:100000000C94A0020C94C1020C94C1020C94C10285
:100010000C94C1020C94C1020C94C1020C94C10254
:100020000C94C1020C9494440C94C1020C94623E52
:100030000C9422440C94C1020C94C1020C94C10291
:100040000C94C1020C94973E0C94C1020C94C10212
:100050000C94C1020C94C1020C94C1020C94813E18
:100060000C94C1020C94FE420C94F7430C94C10210
:100070000C94C1020C94C1020C94C1020C94C102F4
:100080000C94C1020C94C1020C94C1020C9457420E
:100090000C94D6420C94AB420C94C1020C94C10255
:1000A0000C94C1020C94C1020C94C1020C94C102C4
:1000B0000C94C1020C94C1020C94C1020C94A9448A
:1000C0000C94C1020C94C1020C94C1020C94934292
:1000D0000C9468420C94C1020C94C1020C94C102AD
:1000E0000C94C102084AD73B3BCE016E84BCBFFDD5
:1000F000C12F3D6C74319ABD56833DDA3D00C77FF8
:1001000011BED9E4BB4C3E916BAAAABE0000008090
:100110003F05A84CCDB2D44EB93836A9020C50B91F
:10012000918688083CA6AAAA2ABE000000803F004B
:100130000C9494430C94504F0C9480430C94CE4AEE
:100140000C94852E0C949C430C9422480C94EF2E16
:100150000C94F92E0C94D3430C94B24A0C947A4F1D
:100160000C948F4A0C94F14F0C94B8430C94922E3B
:100170000C9467430C947D4A0C94C4430C940D2F4B
:100180000C94E12E0C94BC4F0C94BA430C946D4F1C
:100190000C94222F0C94B0430C94C54F0C94864FB2
:1001A0000C94032F0C940B500C949E430C94A0437E
:1001B0000C94B6430C94D7430C94D44F0C94CC4A73
:1001C0000C948A430C94F94F0C947E430C94C04ACF
:1001D0000C9498430C94584F0C94DF430C94654F47
:1001E0000C94BE430C94A72C0C94C9430C948C43E0
:1001F0000C94E84F0C94A8430C94794A0C948643D1
:100200000C94BA4A0C94B62E0C943C2F0C94A54F27
:100210000C9490430C94E3430C94DD2E0C94532ED9
:100220000C949F2E0C94A4430C948E430C94B94FC1
:100230000C94994A0C9492430C9496430C949B4FC3
:100240000C94934A0C948F4F0C9402500C945B4F77
:100250000C94CE4F0C94E5430C94AA430C94DD4FC0
:100260000C94C6430C949D4A0C94864A0C94534FAC
:100270000C94A84A0C94A6430C94AC2E0C942F2FEB
:100280000C947D4F0C94B14F0C94D02E0C94C64A14
:100290000C944A4F0C94E1430C94B4430C94C24325
:1002A0000C94C0430C94A2430C94C32E0C94AE4304
:1002B0000C94DB430C94CF43244E005B4F50543AD4
:1002C000005B5645523A312E31652E32303137308F
:1002D0003131343A005B5A706F733A005B544C4FC3
:1002E0003A005B4739323A003330003238005B471E
:1002F00000204700204D00205300204600205400DD
:1003000033382E005B47433A47000D0A005D005B1F
:10031000746F6F6C5374617475733A20007D0D0AAD
:1003200000273A007B27746F6F6C007D0D0A002751
:100330003A007B27746F6F6C007D0D0A00273A002E
:100340007B27746F6F6C005D7D0D0A002C007B278E
:10035000746F6F6C44617461273A5B00416C617229
:100360006D3A00536C656570696E67005265737411
:100370006F72696E67207370696E646C6500526598
:1003800073746F72696E672064656661756C7473EF
:100390000050726F6772616D20656E646564004322
:1003A0006865636B206C696D69747300436865638D
:1003B0006B20646F6F720044697361626C656400E6
:1003C000456E61626C65640043617574696F6E3A75
:1003D00020556E6C6F636B656400506C656173656E
:1003E00020756E6C6F636B005B4D53473A000D0ACE
:1003F000005BE68EA2E992883A00312E302E33005F
:100400005B76657273696F6E3A007C46533A007C86
:100410004C6E3A007C42663A007C473A007C4D3A8A
:10042000007C533A007C46423A007C53463A007CBA
:10043000483A007C41463A007C4C3A007C433A0002
:100440007C44523A007C443A007C54443A007C524A
:100450003A007C52573A007C4C573A007C52465442
:100460003A007C4C46543A007C53543A007C463A5D
:10047000007C543A007C57506F733A007C4D506FAB
:10048000733A00536C65657000446F6F723A0043B5
:100490006865636B00416C61726D00486F6D696ED9
:1004A00067004D6F76696E67005061757365004D2A
:1004B0006F76696E67005265616479006572726F6C
:1004C000723A005D002C002C002C002C002C002C1B
:1004D000002C006E756C6C5D002774687265616439
:1004E000272C00276472696C6C272C0027636F6EC1
:1004F00065272C002762616C6C272C0027656E64D1
:100500006D696C6C272C005B000D0A006265666FDC
:100510007265546F6F6C3A000D0A006E6F77546FFE
:100520006F6C3A000D0A00537461727420746F6F1F
:100530006C2073657474696E67006F6B0D0A000040
:1005400011241FBECFEFD1E2DEBFCDBF00E00CBF54
:1005500013E0A0E0B2E0ECE6F0EB00E00BBF02C07D
:1005600007900D92A237B107D9F728E1A2E7B3E0CF
:1005700001C01D92AB3AB207E1F70E94B6450C9458
:1005800034580C9400002F923F924F925F926F92DA
:100590007F928F929F92AF92BF92CF92DF92EF9213
:1005A000FF920F931F93CF93DF93CDB7DEB72E97B4
:1005B0000FB6F894DEBF0FBECDBF4B015C017A01D0
:1005C00020E030E0A9010E94745110E087FF05C0CF
:1005D000B7FAB094B7F8B09411E0C501B4010E9425
:1005E000F7516B877C878D879E87112331F08DE2D1
:1005F000F7018083C70101967C016B857C858D8521
:100600009E858E010F5F1F4F68013AE0232E312C2B
:10061000412C512C3801EFEF6E1A7E0AA201910194
:100620000E940D55605DF8016083B901CA01830124
:10063000611571058105910569F7D701F301CE16A2
:10064000DF06E1F583010C191D090F5F1F4F0E0D29
:100650001F1D6B857C858D859E850E9426529B0182
:10066000AC01C501B4010E947E5093012C193D09D3
:10067000E20EF31E2EE2F7012083680124E0F22E41
:10068000FA94F1101EC0F80113822E960FB6F8945A
:10069000DEBF0FBECDBFDF91CF911F910F91FF90B5
:1006A000EF90DF90CF90BF90AF909F908F907F9012
:1006B0006F905F904F903F902F90089582918D930F
:1006C000BECF20E030E040E251E40E94D6534B011F
:1006D0005C010E94F05120E3260FF60121936F0187
:1006E000072E000C880B990B0E9428529B01AC012D
:1006F000C501B4010E947E50C3CF882361F08130D0
:1007000061F0823061F0833061F0843061F08530D7
:1007100061F082E0089584E0089588E0089580E122
:10072000089580E2089580E4089580E808952FB741
:10073000F89490912915892B809329152FBF08953E
:100740002FB7F89490912815892B809328152FBFE7
:1007500008959FB7F89480932A159FBF08959FB777
:10076000F89420912B158095822380932B159FBFA1
:1007700008952FB7F89490912B15892B80932B1502
:100780002FBF08954F925F926F927F928F929F92A8
:10079000AF92BF92CF92DF92EF92FF920F931F938F
:1007A000CF93DF938090EF16912C2DEBA22E26E1B4
:1007B000B22E8C01D0E0C0E0F501C190D190E19063
:1007C000F1905F0120E030E0A901C701B6010E946D
:1007D0007451882381F1F8014080518062807380D8
:1007E000C4010C2E02C0959587950A94E2F720E08B
:1007F00030E0A90180FF11C0C301B2010E94745111
:1008000087FD09C0C701B6019058A30192010E945B
:10081000745187FF10C081E016C0C301B2010E946D
:1008200096531816C4F3A3019201C701B6010E94A2
:100830009653181684F321960C5F1F4FC730D105CD
:1008400009F0BACF80E0DF91CF911F910F91FF9017
:10085000EF90DF90CF90BF90AF909F908F907F9060
:100860006F905F904F9008958F929F92AF92BF923A
:10087000CF92DF92EF92FF920F931F93CF93DF936C
:10088000EB0129E6E22E26E1F22E8C016B018CE1D0
:10089000C80ED11C6991799189919991F701819044
:1008A0009190A190B1907F010E942852A5019401DE
:1008B0000E947E51F80161937193819391938F010E
:1008C000CC15DD0539F7DF91CF911F910F91FF9086
:1008D000EF90DF90CF90BF90AF909F908F90089552
:1008E000E2E0F1E08081886080830895882341F010
:1008F000739A91E0811101C090E090934915089599
:100900007398F7CF882341F08F9A91E0811101C04D
:1009100090E090934B1508958F98F7CF813019F49C
:10092000899A8A9804C089988230D9F78A9A8093E4
:100930004C150895882341F0A29A91E0811101C0DD
:1009400090E090934A150895A298F7CFCF93DF9344
:10095000C0912315D09124152097C9F08091F314EC
:1009600081608093F3146091091570910A1580914C
:100970000B1590910C159B01AC010E94D6536EA3F0
:100980007FA388A799A71092241510922315DF91B1
:10099000CF910895EDE4F9E080914A09868F809126
:1009A000D9168250990B880F8195858FEFE6F0E07C
:1009B00080818260808308952091EE1621FF0BC014
:1009C0009093AB008093AA00892B31F48091A00012
:1009D0008F7D8093A00008958091A0008062F9CF60
:1009E000882361F0813061F0823061F0833061F002
:1009F000843061F0853061F082E0089580E80895E8
:100A000080E4089580E2089580E1089588E00895E3
:100A100084E00895AF92BF92CF92DF92EF92FF925F
:100A20000F931F93CF93DF93E090DA16F12CC090D1
:100A3000DB16D12CD0E0C0E010E000E0BC2EAC2EE4
:100A4000C7010C2E02C0959587950A94E2F780FFA6
:100A500004C08C2F0E947D03082BC60102C095950F
:100A60008795AA94E2F780FF04C08B2D0E94F004C2
:100A7000182B2196C730D10509F700934A09109326
:100A80004B09DF91CF911F910F91FF90EF90DF9075
:100A9000CF90BF90AF90089520912709DC0180E0AE
:100AA000861301C00895909126092917D9F3E92FDB
:100AB000F0E0EA5DF74F30813D938F5F9F5F909349
:100AC0002609EECF9091260980912709891749F0D0
:100AD000E92FF0E0EA5DF74F80819F5F9093260950
:100AE00008958FEF0895E091240791E09E0F2091E3
:100AF0002508291761F0F0E0EB5DF84F80839093B3
:100B000024078091D10080628093D10004C020919D
:100B10002B1524FFECCF0895E091200691E09E0F65
:100B200020912107291761F0F0E0EF5DF94F8083F4
:100B3000909320068091C90080628093C90004C010
:100B400020912B1524FFECCF0895E0911C04DC01CB
:100B500080E091E09E0F20911D05291308C0E093CD
:100B60001C049091C10090629093C10008952D9152
:100B7000F0E0E35EFB4F20838F5FE92F6813E9CF3E
:100B8000EECFE0911C0491E09E0F20911D052917E6
:100B900061F0F0E0E35EFB4F808390931C04809152
:100BA000C10080628093C10004C020912B1524FFF6
:100BB000ECCF0895809109018C709091DF03891327
:100BC00009C09FB1907181E02091DE03921303C0B0
:100BD00080E0089581E008951092DF031092DE0313
:100BE0009091EE1697FD06C09CE09093DF0390E194
:100BF0009093DE03882361F08091DF039CE08927D6
:100C00008093DF038091DE0390E189278093DE03E8
:100C100008958F929F92AF92BF92CF92DF92EF9200
:100C2000FF920F931F93CF93DF93CDB7DEB72D972E
:100C30000FB6F894DEBF0FBECDBF6B017C01042F51
:100C400020E030E0A9010E94745187FF07C08DE2C7
:100C50000E94C105F7FAF094F7F8F094102F1230C3
:100C600008F054C000FF0AC020E030E040E251E448
:100C7000C701B6010E94D6536B017C0120E030E031
:100C800040E05FE3C701B6010E947F500E94F0512F
:100C900010E03AE0832E912CA12CB12CE12FF0E052
:100CA0006115710581059105E9F581E090E08C0FF2
:100CB0009D1FE80FF91F80E3101708F445C01013BB
:100CC00009C0E1E0F0E0EC0FFD1FE10FF11D80E352
:100CD00080831F5FEE24E394F12CEC0EFD1EE10EE9
:100CE000F11C111134C02D960FB6F894DEBF0FBE63
:100CF000CDBFDF91CF911F910F91FF90EF90DF90CB
:100D0000CF90BF90AF909F908F90089520E030E0FB
:100D100048EC52E4C701B6010E94D6536B017C0136
:100D200012509DCFEE24E394F12CEC0EFD1EEE0E3E
:100D3000FF1EA50194010E940D55605DF7016083BF
:100D4000B901CA011F5FAACF1F5F8193B5CF1013EE
:100D500003C08EE20E94C105F70182917F010E94CB
:100D6000C1051150BECF2091EE1640E020FF07C014
:100D70002BE832E441E25DE30E94D65341E00C945B
:100D800009062091EE1643E020FF07C02BE832E46D
:100D900041E25DE30E94D65344E00C9409060F93B0
:100DA0001F93CF938C01C0E0F80161917191819103
:100DB00091918F010E94C106C33019F08CE20E940C
:100DC000C105CF5FC43081F7CF911F910F91089576
:100DD0008F929F92AF92BF92CF92DF92EF92FF924B
:100DE0000F931F93CF93DF9300D000D000D01F92BA
:100DF000CDB7DEB76115710581059105A9F480E3D2
:100E00002A960FB6F894DEBF0FBECDBFDF91CF910B
:100E10001F910F91FF90EF90DF90CF90BF90AF9018
:100E20009F908F900C94C10500E09E012F5F3F4F73
:100E300079012AE0822E912CA12CB12C6701C00EE1
:100E4000D11CA50194010E940D55F6016083B901E2
:100E5000CA010F5F611571058105910579F70E0DC6
:100E60001F2D111DE016F10699F42A960FB6F8947D
:100E7000DEBF0FBECDBFDF91CF911F910F91FF90CD
:100E8000EF90DF90CF90BF90AF909F908F9008959C
:100E9000F80182918F01805D0E94C105E3CFCF925E
:100EA000DF92EF92FF9297FF0CC06B017C018DE205
:100EB0000E94C10566277727CB016C197D098E0931
:100EC0009F09FF90EF90DF90CF900C94E806CF93AE
:100ED000DF93843658F06AE00E94DF54C0E3C90F04
:100EE0006AE00E94DF54D0E3D90F04C0C0E0D0E034
:100EF0008A30B0F7805D0E94C105DD2319F08D2F87
:100F00000E94C105CC2329F08C2FDF91CF910C9446
:100F1000C105DF91CF910895CF93DF93EC01FE01DE
:100F200084912196811103C0DF91CF9108950E9491
:100F3000C105F5CF2F923F924F925F926F927F92B1
:100F40008F929F92AF92BF92CF92DF92EF92FF92D9
:100F50000F931F93CF93DF9300D000D01F921F9267
:100F6000CDB7DEB7FC01108121803284C384D484E4
:100F70000585E684F784FE24EF24FE244280538016
:100F80006480758049825A826B827C8286809780D9
:100F9000A084B1848D829E82AF82B88687E095E07E
:100FA0000E948C07133009F46DC050F4113009F41D
:100FB00066C084EF94E0123051F083ED94E045C0B8
:100FC000143009F462C089ED94E01530B1F70E9445
:100FD0008C07822D0E94670781ED94E00E948C07A8
:100FE00042E0C301B2010E9409068FEC94E00E9426
:100FF0008C0742E0C501B4010E9409068DEC94E023
:101000000E948C07832D0E9467078BEC94E00E945E
:101010008C078C2D0E94670789EC94E00E948C0756
:101020008D2D0E94670787EC94E00E948C07802F2B
:101030000E94670785EC94E00E948C07B70190E05E
:1010400080E00E94E80683EC94E028960FB6F894BE
:10105000DEBF0FBECDBFDF91CF911F910F91FF90EB
:10106000EF90DF90CF90BF90AF909F908F907F9048
:101070006F905F904F903F902F900C948C078CEF67
:1010800094E0A5CF8CEE94E0A2CF83EE94E09FCFC6
:101090008EEE93E00C948C07CF93C82F8CEB94E0EA
:1010A0000E948C078C2F0E946707CF910C944808F0
:1010B000882321F0823031F00C944C088AE395E0CB
:1010C0000C948C070895CF92DF92EF92FF92CF930A
:1010D000DF93D82F6A017B01C22F84E20E94C105F1
:1010E0008D2F0E9467078DE30E94C1054C2FC70119
:1010F000B6010E940906DF91CF91FF90EF90DF903B
:10110000CF900C944808EF92FF920F931F93CF93C8
:10111000DF9303E117E1C2EDD0E0EE24E394EC0E9F
:1011200082E0F82EFC0EF801D130C9F0D230F1F097
:10113000408151816281738123E08C2F0E9463087A
:10114000DF5FD33081F7CD5F0C5F1F4FC43E21F7C7
:10115000DF91CF911F910F91FF90EF900895408DF7
:10116000518D628D738D23E08E2DE8CF40A951A95A
:1011700062A973A923E08F2DE1CFCF93DF93D82FFE
:10118000C62F84E20E94C1058D2F0E9467078DE360
:101190000E94C1058C2F0E946707DF91CF910C94AC
:1011A0004808EF92FF920F931F93CF93DF936091C4
:1011B000D91670E080E00E94BD086091DC1670E0F6
:1011C00081E00E94BD086091DA1670E082E00E9422
:1011D000BD086091DB1670E083E00E94BD0860915D
:1011E000EE1662FB662760F970E084E00E94BD089D
:1011F0006091EE1666FB662760F970E085E00E945C
:10120000BD088091EE16082E000C990B692F661F01
:101210006627661F70E086E00E94BD086091DD16BB
:1012200070E08AE00E94BD084091DE165091DF1602
:101230006091E0167091E11623E08BE00E94630854
:101240004091E2165091E3166091E4167091E51614
:1012500023E08CE00E9463086091EE16617070E0FC
:101260008DE00E94BD086091EE1665FB662760F96F
:1012700070E084E10E94BD086091EE1663FB662772
:1012800060F970E085E10E94BD086091EE166295FC
:10129000617070E086E10E94BD086091EF1670E019
:1012A00087E10E94BD084091F0165091F1166091BF
:1012B000F2167091F31623E088E10E9463084091D2
:1012C000F4165091F5166091F6167091F71623E01A
:1012D00089E10E9463086091F8167091F9168AE11D
:1012E0000E94BD084091FA165091FB166091FC16C1
:1012F0007091FD1623E08BE10E9463084091E61691
:101300005091E7166091E8167091E91620E08EE1A1
:101310000E9463084091EA165091EB166091EC161A
:101320007091ED1620E08FE10E9463086091EE1647
:101330006695617070E080E20E94BD0840910717D9
:10134000509108176091091770910A1723E081E204
:101350000E94630840910B1750910C1760910D1774
:1013600070910E1723E082E20E94630840910F17EC
:1013700050911017609111177091121723E083E2BA
:101380000E94630894E6F92E10E0C9E6D6E100E079
:10139000E02EEF0C123009F461C0133009F46BC079
:1013A000113009F456C0488159816A817B8123E05C
:1013B0008E2D0E9463080F5F2496073049F78AE05C
:1013C000F80E1F5FECE8FE12E0CF6091FE1670E0B1
:1013D00088EC0E94BD084091FF1650910017609163
:1013E00001177091021723E089EC0E946308409175
:1013F000031750910417609105177091061723E0A9
:101400008AEC0E94630803E117E1C2EDD0E0EE240C
:10141000E394EC0E82E0F82EFC0EF801D130A1F13D
:10142000D230C9F1408151816281738123E08C2FD8
:101430000E946308DF5FD33081F7CD5F0C5F1F4FE1
:10144000C43E21F7DF91CF911F910F91FF90EF9054
:1014500008954C8D5D8D6E8D7F8DA9CF20E030E09D
:1014600041E655E468AD79AD8AAD9BAD0E947E51F1
:10147000AB01BC019CCFFE01EC5AFF4F4081518172
:1014800062817381705893CF408D518D628D738DC1
:1014900023E08E2DCDCF40A951A962A973A923E0E5
:1014A0008F2DC6CF8DE50E94C1050C94480880E0C1
:1014B00094E00E948C078AEF93E00E948C070C94C2
:1014C000520ACF93DF93CDB7DEB76C970FB6F8947F
:1014D000DEBF0FBECDBF81EF93E00E948C076DE2AF
:1014E00079E0CE0101960E943404CE0101960E945B
:1014F000CF068AE30E94C105809135150E946707D7
:101500008CE20E94C10560910317709104178091CD
:101510000517909106170E94C1060E94520A6C9608
:101520000FB6F894DEBF0FBECDBFDF91CF91089507
:10153000CF93DF93EC018991811103C0DF91CF91AB
:1015400008950E94C105F7CFE1ECF5E1A0EEB3E00C
:1015500041915191619171914D935D936D937D9303
:1015600085E1ED3DF807A1F70895BF92CF92DF9294
:10157000EF92FF920F931F93CF93DF937C01FC01B7
:10158000FE9600811181D281C381FC0181A180FF7F
:1015900033C06091381570E090E080E00E942852DE
:1015A0002AE037ED43E25CE30E94D6539B01AC0195
:1015B000B8018D2F9C2F0E94D6538B01D82FC92F95
:1015C00020E030E040E85FE3B8018D2F9C2F0E94BF
:1015D0009653181624F000E010E0D0E8CFE3B801ED
:1015E0008D2F9C2FDF91CF911F910F91FF90EF9046
:1015F000DF90CF90BF90089582FD17C0609137159E
:1016000070E090E080E00E9428522AE037ED43E24B
:101610005CE30E94D6539B01AC01B8018D2F9C2F37
:101620000E94D6538B01D82FC92FF701B2ACC3AC9F
:10163000D4ACF5AC98014D2F5C2F6B2D7C2D8D2DEE
:101640009F2D0E94745187FFBBCF0B2D1C2DDD2DCC
:10165000CF2DB6CF8091910990916A13981739F0E8
:1016600026E4829FC00111248E56964F089590E083
:1016700080E008954F925F926F927F928F929F9237
:10168000AF92BF92CF92DF92EF92FF920F931F9390
:10169000CF93DF93CDB7DEB7C057D1090FB6F8941B
:1016A000DEBF0FBECDBF8CE1E1ECF5E1DE011196AE
:1016B00001900D928A95E1F7BE016F5F7F4FCE01D9
:1016C0004D960E943404BE016F5F7F4FCE01C996D4
:1016D0000E9434048CE30E94C1058091301588304B
:1016E00009F42FC108F013C1813009F433C108F4A3
:1016F00023C1823009F431C1843009F428C18091BA
:10170000DD16282F2170E22E80FF40C180913C150C
:10171000882309F43BC18CE794E00E948C07CE013A
:101720004D960E94CF0685E794E00E948C07CE017B
:10173000C9960E94CF0681E794E00E948C078091B1
:10174000FE160E9467078DE694E00E948C07609168
:1017500060157091611580916215909163150E94DA
:10176000B30688E694E00E948C0760E070E0CB014D
:101770000E94B30682E694E00E948C0760E070E06D
:10178000CB010E94B3068CE594E00E948C0760E0D8
:1017900070E0CB010E94B30687E594E00E948C07BD
:1017A00060914D1570E090E080E00E9426520E940A
:1017B000B30682E594E00E948C0760914E1570E0BC
:1017C00090E080E00E9426520E94B3068EE494E0EE
:1017D0000E948C076091451570E090E080E00E94C7
:1017E00026520E94B30689E494E00E948C0760911F
:1017F000461570E090E080E00E9426520E94B306F9
:1018000085E494E00E948C076091471570E090E0B9
:1018100080E00E9426520E94B30680E494E00E9479
:101820008C0760914F1570E090E080E00E94265296
:101830000E94B3068CE394E00E948C0760914815E7
:1018400070E090E080E00E9426520E94B30688E398
:1018500094E00E948C076091491570E090E080E070
:101860000E9426520E94B30683E394E00E948C07F4
:1018700060914A1570E090E080E00E9426520E943C
:10188000B3068FE294E00E948C076091511570E0DE
:1018900090E080E00E9426520E94B3068AE294E023
:1018A0000E948C0760914C1570E090E080E00E94EF
:1018B00026520E94B30685E294E00E948C07609154
:1018C0004B1570E090E080E00E9426520E94B30623
:1018D00081E294E00E948C0760915C1570915D1527
:1018E00080915E1590915F1540E00E9409068DE1A0
:1018F00094E00E948C0780915B15803109F498C0B8
:10190000803209F425C1811196C085E392C08032EE
:10191000D9F050F4803109F0F2CE8091321587FD74
:1019200013C089EA94E00AC08034D1F0803809F00D
:10193000E6CE83E894E002C086EB94E00E948C0738
:10194000DECE8FEA94E0FACF82EA94E0F7CF8BE91B
:1019500094E0F4CF85E994E0F1CF8FE894E0EECF06
:1019600089E894E00E948C078091321583FF04C0BF
:1019700083E30E94C105C3CE82FF06C085FF02C07B
:1019800081E3F7CF80E3F5CF82E3F3CF4090BD153D
:101990005090BE156090BF157090C01585E8A82EB8
:1019A00085E1B82E6E0185E5C80ED11C8E01075C5D
:1019B0001F4FF12C4601F501619171918191919137
:1019C0005F01208D318D428D538D0E947F50F60135
:1019D00061937193819391936F01F2E0FF1225C09F
:1019E000A30192010E947F50F40160877187828772
:1019F0009387E11016C0F60134972081318142812E
:101A00005381F80160817181828193810E947E50AF
:101A1000F8016083718382839383F6E0FF1609F4F3
:101A20007ACEF3940C5F1F4FC6CFEE2021F3F5CF93
:101A300083E30E94C10589E194E00E948C078091B4
:101A400058158A5C0E9467078091DD1681FF1EC0D1
:101A500084E194E00E948C0790916A13809191092F
:101A6000981708F477C08D5D891B0E9467078CE288
:101A70000E94C10580911E0690911F06981708F4D8
:101A80006BC0981B892F80950E9467070E942A0BC4
:101A9000009791F0FC01C2A0D3A0E4A0F5A0C1146E
:101AA000D104E104F10441F08FE094E00E948C073E
:101AB000C701B6010E944F078AE094E00E948C079C
:101AC000809130158C7709F44AC0609109157091A6
:101AD0000A1580910B1590910C150E94B3068CE2AB
:101AE0000E94C10560913D1570913E1580913F1592
:101AF0009091401540E00E94090680913C15882392
:101B000091F1815080933C1580913B158823E1F140
:101B1000815080933B158EE30E94C1050E944808C6
:101B2000C059DF4F0FB6F894DEBF0FBECDBFDF91B7
:101B3000CF911F910F91FF90EF90DF90CF90BF90CA
:101B4000AF909F908F907F906F905F904F9008958F
:101B500084E36FCF815088CF8150891B95CF60E09F
:101B600070E0CB01BACF809130158C7759F08DE1C0
:101B700080933C1580913B158111C6CF81E0809305
:101B80003B15C2CF89E0F4CF809130158C7711F0EE
:101B900083E1BFCF89E0BDCF0E942A0B892B19F0CA
:101BA00082E00C94B90308952F923F924F925F9276
:101BB0006F927F928F929F92AF92BF92CF92DF925D
:101BC000EF92FF920F931F93CF93DF9300D01F925A
:101BD000CDB7DEB700916A13002309F486C00983EC
:101BE00039813150398310919009131709F466C077
:101BF000C32ED12CE6E43E9FC00111249C012E5639
:101C0000364F7901F90172A483A494A4A5A466A512
:101C100077A580A991A99B01AC010E947F50F70193
:101C200022A933A944A955A90E94D653B62EE72E5E
:101C3000F82E9B83262F372F482F592F672D782D6D
:101C4000892D9A2D0E94745187FF03C0B72C74010F
:101C5000AB8286E48C9DF0018D9DF00D1124EE5633
:101C6000F64F8B2D9E2DAF2DBB8186A397A3A0A7EA
:101C7000B1A7F9818F2FF11101C084E2FF24FA94FA
:101C8000F80E309091091F1133C0131102C00E9449
:101C9000A604E6E41E9FC00111248E56964F9A8337
:101CA000898333243394310EF4E23F1201C0312C86
:101CB00086E4282E031185C0109390090F900F9091
:101CC0000F900F90DF91CF911F910F91FF90EF90A8
:101CD000DF90CF90BF90AF909F908F907F906F904C
:101CE0005F904F903F902F90089524E2298378CF02
:101CF000298186E4289F900111242E56364F3C837B
:101D00002B8326E4E22E8F2C912CFE9CC001112403
:101D1000FC01EE56F64FFA83E983F11002C094E21B
:101D2000F92EFA94F31002C00E94A604E89CC001A8
:101D3000E99C900D11249C012E56364F6901F90142
:101D400042A453A464A475A4A301920166A177A13F
:101D500080A591A50E947451882339F1F60166A5EA
:101D600077A580A991A99B01AC010E947F50F60143
:101D700022A933A944A955A90E94D653EB81FC811D
:101D800026A137A140A551A50E947F504B015C01BF
:101D9000AC019B01C301B2010E949653F6011816D3
:101DA0005CF486A297A2A0A6B1A629813A813C83C1
:101DB0002B831F11A8CF6DCF46A257A260A671A694
:101DC000F4CFC32CD12C329CC00111249C012E567F
:101DD000364F7901E981FA8146A057A060A471A429
:101DE000F90186A097A0A0A4B1A4A5019401C30104
:101DF000B2010E94745187FF26C0E981FA8166A56D
:101E000077A580A991A99B01AC010E947F50E9812F
:101E1000FA8122A933A944A955A90E94D653A30146
:101E200092010E947F502B013C01AC019B01C50136
:101E3000B4010E949653181634F4F70146A257A233
:101E400060A671A6132D2C9CF0012D9CF00D112481
:101E5000EE56F64F22A533A544A555A566A177A158
:101E600080A591A50E947451811101C0132D339456
:101E7000F4E23F1201C0312CFA82E9821BCF6F924B
:101E80007F928F929F92AF92BF92CF92DF92EF920A
:101E9000FF920F931F93CF93DF93EB018C015B01B4
:101EA0008CE1A80EB11C89E9682E96E7792E26E907
:101EB000822E3EE7932EC990D990E990F99020E0C8
:101EC00030E0A901C701B6010E9474518823B9F01E
:101ED000A7019601F80160817181828193810E943E
:101EE0007E516B017C01E894F7F89301A401C701CE
:101EF000B6010E949653181614F0360147010C5F84
:101F00001F4FCA15DB05B9F6B301C401DF91CF91AC
:101F10001F910F91FF90EF90DF90CF90BF90AF9007
:101F20009F908F907F906F9008954F925F926F92E5
:101F30007F92AF92BF92CF92DF92EF92FF920F9378
:101F40001F93CF93DF936C01FB015A01A081A80F6F
:101F5000B92FB11D8C91ED018D3249F52296119664
:101F60008C9101E0512C612C10E020E030E0A901BF
:101F70007E0190ED792E780E89E0871528F1639423
:101F8000A8E0A615E8F051101150A5E0B0E00E94BD
:101F900037559B01AC01220F331F441F551F270DDE
:101FA000311D411D511D2196D7018C91E1CF8B32FE
:101FB00019F0219600E0D6CF229611968C91FACF97
:101FC0005110F1CF1F5FEFCFBEEF7B1205C0511054
:101FD00003C055245394E7CF662009F17F01CA015D
:101FE000B9010E9426522B013C0120E030E0A901FA
:101FF0000E94745181112EC0002309F448C077FA61
:10200000709477F87094F5014082518262827382F5
:10201000CC19DD09C150F701C08366246394862D75
:10202000DF91CF911F910F91FF90EF90DF90CF90B4
:10203000BF90AF907F906F905F904F9008952AE08F
:1020400037ED43E25CE3C301B2010E94D6532B019A
:102050003C011E5F1F3F9CF31F3F59F42DEC3CECED
:102060004CEC5DE3C301B2010E94D6532B013C014D
:10207000C3CF112309F220E030E040E251E4C30174
:10208000B2010E94D6532B013C011150F2CFD50171
:102090004D925D926D927C921397BACF93B18091DD
:1020A000EE1686FF9095992399F094FB882780F986
:1020B00095FD826096FD8460292F247092FD8860D2
:1020C00091FD80612111806293FF03C080640895B7
:1020D00080E00895EBE6F0E080811082E8E6F0E031
:1020E00080818E7F8083089584B114B88091070128
:1020F0008B7F8093070180910801846080930801A1
:1021000085B18FEF85B99091EE1693FF15C0909130
:102110006B0080936B008091680081608093680001
:1021200084B7877F84BF809160008861809360005E
:1021300081E08093600008950E946A10F1CF27E04B
:1021400030E090E0AC01022E02C0559547950A940C
:10215000E2F7A09A40FF11C000000000000000005C
:10216000000000000000000000000000A098000037
:1021700000002150310930F7089500000000A098B8
:10218000000000000000000000000000000000004F
:1021900000000000EECF27E030E090E0AC01022E1E
:1021A00002C0559547950A94E2F740FF1AC0409146
:1021B0000B01406440930B01000000000000000090
:1021C00000000000000000000000000040910B0132
:1021D0004F7B40930B010000000021503109F0F6C5
:1021E000089540910B01406440930B0100000000F2
:1021F00040910B014F7B40930B0100000000000059
:102200000000000000000000000000000000E5CF1A
:10221000CF93DF93D82F862FC42F0E94CB108D2F02
:102220000E94CB108C2FDF91CF910C94CB1061ECDE
:1022300075E189E695E10C943404F894F999FECFA0
:1022400092BD81BD81E08FBB20B5862F8227082EED
:10225000000C990B50E086239523892B49F084E1EB
:102260006F3F11F060BD84E08FBBF99A78940895B8
:102270002617E1F360BD84E2F7CF9F92AF92BF9241
:10228000CF92DF92EF92FF920F931F93CF93DF9342
:102290005C018A017B01E40EF51EEB01912C6C01BF
:1022A000C61AD70ACE018C0D9D1D21E0911007C0E2
:1022B000292D990C330B232F221F2227221F6991CE
:1022C000962E920E0E941D11CE15DF0559F7692D2D
:1022D000C501800F911FDF91CF911F910F91FF904A
:1022E000EF90DF90CF90BF90AF909F900C941D1116
:1022F0006AE090E080E00E941D1142E451E069E64E
:1023000076E181E090E00C943D11F999FECF92BD09
:1023100081BD81E08FBB80B508959F92AF92BF923F
:10232000CF92DF92EF92FF920F931F93CF93DF93A1
:102330005B018A017C01E40EF51EEC01912C6B011E
:10234000C81AD90AC6018C0F9D1F0E94851121E071
:10235000911007C0292D990C330B232F221F222700
:10236000221F982E920E8993CE15DF0559F7C501CD
:10237000800F911F0E94851121E030E0891511F036
:1023800030E020E0C901DF91CF911F910F91FF90C4
:10239000EF90DF90CF90BF90AF909F9008958CE327
:1023A00090E0A0E0B0E08A309105A105B10560F4AD
:1023B00025E02A95F1F700000197A109B1090097DE
:1023C000A105B10581F7089525E32A95F1F70000ED
:1023D0000A97A109B109F3CFCF92DF92EF92FF9252
:1023E0000F931F93CF93DF936B017A01E901209143
:1023F0000B012F7720930B0120910B012068209374
:102400000B01F8948230910591F030F44FEF6FEFAB
:10241000019779F040E008C040E06FEF833091050C
:1024200021F04FEF0497B1F760E080E003C040E097
:1024300060E08FEF0E94081182E0C816D104B1F06D
:1024400038F44FEF6FEFCA94CD2891F040E00BC005
:1024500040E06FEF83E0C816D10431F04FEF84E025
:10246000C816D10499F760E080E003C040E060E066
:102470008FEF0E94081182E0E816F104B1F038F401
:102480004FEF6FEFEA94EF2891F040E00BC040E08F
:102490006FEF83E0E816F10431F04FEF84E0E816C7
:1024A000F10499F760E080E003C040E060E08FEF66
:1024B0000E940811C230D10591F030F44FEF6FEF58
:1024C000219779F040E008C040E06FEFC330D105BC
:1024D00021F04FEF2497B1F760E080E003C040E0C7
:1024E00060E08FEF0E94081102301105A1F038F46E
:1024F0004FEF6FEF0130110581F040E009C040E07F
:102500006FEF0330110529F04FEF04301105A9F7E3
:1025100060E080E003C040E060E08FEF0E940811BF
:102520007894DF91CF911F910F91FF90EF90DF9002
:10253000CF900C94CF11CF93DF93D82FA198A19A6D
:10254000F894CFE0D13081F480E00E949F108FEFAB
:102550000E949F1080E00E949F10C15099F77894CC
:10256000DF91CF910C94CF11D23029F48FEF0E94DC
:102570009F1080E0EDCF80E00E949F1080E00E94DD
:102580009F108FEFE8CF019708F40895EFE9FFE07F
:102590003197F1F700C00000F6CF80916F008D7F7A
:1025A00080936F0080918100887F8160809381009B
:1025B00010924C098091DC16909130158F3F49F4B0
:1025C00020912A15211105C0903829F490E00C942F
:1025D000C3129430D9F70895EF92FF920F931F938F
:1025E000CF93DF93EC01FC0127E08FEF9FEF2150A9
:1025F000D9F48C017E0186E0E80EF11C89910E94DD
:102600007305EC16FD06D1F7802F0E947305812F0C
:102610000E94730582E390E0DF91CF911F910F91AB
:10262000FF90EF900C94C3123191832748E050E063
:10263000BC016170772796958795672B21F031E073
:10264000832730EA93274150510991F7D0CFCF9398
:10265000DF9300D000D0CDB7DEB78091EE1681FFBA
:102660000EC08091A0008F7D8093A00026960FB6AB
:10267000F894DEBF0FBECDBFDF91CF91089586E005
:10268000E9E0F2E0DE01119601900D928A95E1F702
:10269000CE0101960E94EC12E9CFE1E0F1E08081E9
:1026A0008061808383E08093A0008AE18093A10011
:1026B00080E094E09093A9008093A8002091EA160E
:1026C0003091EB164091EC165091ED166091E616A4
:1026D0007091E7168091E8169091E9160E947E505D
:1026E0009B01AC0160E070EC8FE794E40E947E51A6
:1026F0006093290970932A0980932B0990932C09E0
:102700000C94271380E00E949A0489988A9880E0AC
:102710000E948204A59880E00E947604E2E0F1E045
:1027200080818F7D808380818F7B808310988B98C0
:102730005F988081877F8083089580912B1584FD29
:1027400020C080E10E94B9030E9427130E948213D7
:1027500090913015892F8C7221F4809134158670F8
:1027600059F0943079F480912A15811103C086E0E4
:102770000E94A9030E94CD1281E00E949B12109238
:102780005115089583E0F4CFCF93DF930E94CD12CB
:10279000E2EFF4E181E3DF011D928A95E9F7CDE4F0
:1027A000D9E083E4FE0111928A95E9F7109224158D
:1027B0001092231510926B131092BD1381E0809339
:1027C0006C1310924C090E940A0580914B098F8F5F
:1027D00082B1817090914A09892B82B988B1817048
:1027E00090914B09892B88B9DF91CF910895E9EC3D
:1027F000F0E080818F7E8083808180618083809102
:10280000270980932609E6E2F8E080E091E0DF0105
:102810009C011D9221503040E1F70895E0EEF3E075
:102820008CE3DF011D928A95E9F7109291091092CD
:102830006A1381E08093DD031092900908954F920E
:102840005F926F927F92AF92BF92CF92DF92EF92A0
:10285000FF920F931F93CF93DF93EC015C012CE168
:10286000A20EB11C8C01C12CD12C7601F801419033
:102870005190619071908F0120E030E0A901C30177
:10288000B2010E947451882371F0A3019201C30127
:10289000B2010E94D6539B01AC01C701B6010E9450
:1028A0007F506B017C010A151B0501F7C701B601BA
:1028B0000E9475546B017C01AC019B0160E070E0EB
:1028C00080E89FE30E947E512B013C016991799140
:1028D000899199915E01F4E0AF1AB108A3019201C8
:1028E0000E94D653F5016083718382839383C0175E
:1028F000D10761F7C701B601DF91CF911F910F9109
:10290000FF90EF90DF90CF90BF90AF907F906F904F
:102910005F904F9008954F925F926F927F928F9247
:102920009F92AF92BF92CF92DF92EF92FF926B0194
:102930007C018090EA169090EB16A090EC16B09077
:10294000ED164090E6165090E7166090E8167090ED
:10295000E916A3019201C501B4010E94965387FFB5
:102960001BC06091391570E090E080E00E94285211
:102970002AE037ED43E25CE30E94D653A7019601BB
:102980000E94D6536B017C01AC019B01C301B201D3
:102990000E9474511816BCF040923D1550923E159D
:1029A00060923F157092401580E094E0FF90EF90A8
:1029B000DF90CF90BF90AF909F908F907F906F905F
:1029C0005F904F900895A7019601C501B4010E9440
:1029D000965387FD1FC020E030E0A901C701B60172
:1029E0000E94745181110BC010923D1510923E153A
:1029F00010923F151092401590E080E0D7CF809262
:102A00003D1590923E15A0923F15B092401581E081
:102A100090E0CCCFC0923D15D0923E15E0923F158C
:102A2000F0924015A5019401C701B6010E947E50A5
:102A30002091290930912A0940912B0950912C09A4
:102A40000E94D6530E94635220E030E040E85FE3EA
:102A50000E947F500E94F751CB01A8CF2F923F9246
:102A60004F925F926F927F928F929F92AF92BF929E
:102A7000CF92DF92EF92FF920F931F93CF93DF934A
:102A8000CDB7DEB7C054D1090FB6F894DEBF0FBE84
:102A9000CDBF8091341580FD75C290916B138091EC
:102AA0006C13981709F46EC2809123159091241528
:102AB000892B09F07EC01091341512FF7DC28091E0
:102AC0006A1326E4829FC00111248E56964F90937C
:102AD00024158093231540912315509124155E836E
:102AE0004D83452B09F44EC20091F31400FF67C2D9
:102AF0001092F314109205151092061510920715F6
:102B000010920815AD81BE819E962D913D914D91FB
:102B10005C91D19729833A834B835C8360E070E0BA
:102B200080E09FE30E947E5169877A878B879C872C
:102B3000ED81FE8142A853A864A875A886A097A03D
:102B4000A0A4B1A411FF29C3F2E0F0930415A501DC
:102B500094010E94D6539B01AC01C301B2010E94B3
:102B60007E506B017C0120E030E0A9010E9474518D
:102B700087FF02C329813A814B815C81CA01B90177
:102B80000E947F50A30192010E94D6539B01AC0189
:102B9000C501B4010E947E500E94755460931115C6
:102BA0007093121580931315909314151860109359
:102BB0003415E091BD13F8E0EF9FD0011124BA87DE
:102BC000A987FD01E359FC4E8091F2148483409063
:102BD000231550902415D201D296BC91BEA3F201C8
:102BE000F3A9FFA3D201D496BC91B8A7F201F5A92D
:102BF000F9A72091001530910115409102155091CF
:102C000003156EA17FA18B2F9F2F0E947E506AAB70
:102C10007BAB8CAB9DAB20E030E0A9010E947451EE
:102C200087FF04C01AAA1BAA1CAA1DAA2091151569
:102C30002E8B309116153F8B40911715488F509170
:102C40001815598F80910D158E8F90910E159F8FAD
:102C5000A0910F15A8A3B0911015B9A3E091191573
:102C6000EAA7F0911A15FBA720911B152CA730910C
:102C70001C153DA7409109154FAF50910A1521969B
:102C80005FAF219760900B1570900C158091041523
:102C90008983909105159EA7A0910615AFA7B091C5
:102CA0000715B8ABE0910815E9ABF0911115FBAF32
:102CB000209112152CAF309113153DAF4091141592
:102CC0004EAF2AA53BA54CA55DA56E897F89888D51
:102CD000998D0E9474518111EFC352E05EAB9EA1A9
:102CE0009D83AFA1AD87B8A5B98BE9A5ED8B8EE328
:102CF000C82E83ECD82E8EE2E82E89E3F82E1A8EA9
:102D00001B8E1C8E1D8EA70196012AA33BA34CA3EC
:102D10005DA33981313009F449C4D201313008F45E
:102D2000D3C3333009F075C49E962D913D914D91DA
:102D30005C91D197C701B6010E94D6534B015C014B
:102D400020E030E040E05FE30E94D6539B01AC01FD
:102D50006FAD21967FAD2197C3010E947E50A701E0
:102D600096010E94D6536FAB78AF89AF9AAF9B01A3
:102D7000AC016D817D8589899D890E947E501B01F2
:102D80008C012E893F89488D598D0E94745187FD91
:102D90000CC020E030E0A9016FA978AD89AD9AADF3
:102DA0000E94745118160CF472C42E893F89488D04
:102DB000598D6EA17FA188A599A50E947E509B0187
:102DC000AC010E947F506B017C012E8D3F8D48A18C
:102DD00059A16FAD21967FAD2197C3010E947F500D
:102DE0009B01AC01C701B6010E947E516B017C01C1
:102DF000BE8DBFAFEF8D2196EFAF219768A079A070
:102E00002E883F88088D198DF1E0F983A70196017E
:102E10006A8D7B8D8C8D9D8D0E947F506A8F7B8FFC
:102E20008C8F9D8F2AA13BA14CA15DA10E94745162
:102E300087FF67C42A8D3B8D4C8D5D8D6AA17BA178
:102E40008CA19DA10E947E506B017C019101A80183
:102E50006EA57FA588A999A90E94745187FD2FC3EB
:102E60008FAD21969FAD2197D30180930915909343
:102E70000A15A0930B15B0930C15F981F093041566
:102E8000E091BE13F091BF1381A1811104C0909114
:102E9000341593FF33C0D20191969C91907309F43D
:102EA0005EC4F201EE5BFF4FC080D180E280F38010
:102EB0008823B9F020911D1530911E1540911F15E2
:102EC000509120156FAD21967FAD2197C3010E94CF
:102ED000D6539B01AC01C701B6010E94D6536B01CA
:102EE0007C01C701B6010E948B1490932215809338
:102EF000211580913415877F809334158091211599
:102F000090912215E985FA85E359FC4EFE83ED8305
:102F1000978386832091FC143091FD144091FE1418
:102F20005091FF14B101C8010E94D6532B013C01FE
:102F30000E945D516B017C016091F8147091F9144D
:102F40008091FA149091FB140E945D514B015C0139
:102F5000A70196010E947E500E94F75169837A83EF
:102F60008B839C83E981FA81AD81BE81ED93FC93D3
:102F7000EF2B09F001C48091341581FFFDC38160FE
:102F800080933415C05CDF4F0FB6F894DEBF0FBEE0
:102F9000CDBFDF91CF911F910F91FF90EF90DF9008
:102FA000CF90BF90AF909F908F907F906F905F90E9
:102FB0004F903F902F9008950E942A0B88CD8091CA
:102FC000F2148F5F893009F480E08093F214282F87
:102FD00030E052E2859FC0011124DC01A054BC4EB8
:102FE0007D01B093BF13A093BE13ED81FE8180A13C
:102FF00090968C9390E080E0419151916191719114
:10300000D701A80FB91F689412F8440F551F661F07
:10301000771F1694D1F74D935D936D937C9313971F
:1030200004968C31910541F7AD81BE815C966D911E
:103030007D918D919C915F97B2E2B29FA001B39F69
:10304000500D1124FA01E054FC4E4B015C0123E0C9
:10305000880C991CAA1CBB1C2A95D1F7848E958ECE
:10306000A68EB78E0E9426526093F8147093F914BE
:103070008093FA149093FB14ED81FE8122A933A969
:1030800044A955A90E947E519B01AC012093FC14D8
:103090003093FD144093FE145093FF1460E070E0F1
:1030A00080EA9FE30E947E516093001570930115A2
:1030B00080930215909303151092F4141092F51456
:1030C0001092F6141092F71411FD02C003FF43C0D2
:1030D000609111157091121580911315909114152E
:1030E0006093091570930A1580930B1590930C1536
:1030F0009B01AC010E94D653AD81BE8196966D9323
:103100007D938D939C939997077F0093F314D70138
:1031100091961C928091EE1681FFECCCED81FE81A0
:1031200081A185FFE7CCFE962081318142815381C8
:1031300060E070E080E89FE30E947E5160931D157F
:1031400070931E1580931F1590932015E1E0D70111
:103150009196EC93CFCCED81FE8166A177A180A5FD
:1031600091A50E9475546093091570930A15809378
:103170000B1590930C15CBCFC0920515D092061568
:10318000E0920715F0920815109211151092121581
:10319000109213151092141509CD10920415409237
:1031A000151550921615609217157092181512FF8A
:1031B0006AC01092111510921215109213151092E8
:1031C0001415C12CD12C76018D819E810E94B50AE7
:1031D000698B7A8B8B8B9C8B9B01AC010E94D653A5
:1031E0006D837E838F839887A50194010E9474511B
:1031F00087FF93C02D813E814F815885C501B40161
:103200000E947E5029853A854B855C850E94D65365
:103210009B01AC01C301B2010E947E506093151561
:1032200070931615809317159093181520E030E0D1
:10323000A9010E94745118160CF449C032E0309371
:10324000041529813A814B815C81CA01B9010E9430
:103250007F50A30192010E94D6539B01AC01C5018E
:10326000B4010E947E500E947554609311157093B2
:10327000121580931315909314158091F3148860A0
:103280008093F31493CCE0919109EF5FE43209F459
:10329000E0E080916A13C12CD12C76018E1751F099
:1032A00026E42E9FF0011124EE56F64FC6A0D7A0BB
:1032B000E0A4F1A4C701B6010E94755460931115F2
:1032C0007093121580931315909314157DCFA70159
:1032D00096016D817E818F8198850E947E5029851F
:1032E0003A854B855C850E94D6536093191570937F
:1032F0001A1580931B1590931C1589899A89AB899F
:10330000BC8980930D1590930E15A0930F15B09363
:10331000101593E09093041549CCA7019601C501BF
:10332000B4010E947E5029853A854B855C850E94B8
:10333000D653A30192010E947F5020E030E040E08C
:103340005FE30E94D6536D877E878F87988B20E03E
:1033500030E0A9010E94965318160CF094C0A30106
:1033600092016D857E858F8598890E94745187FFB3
:1033700088C0A70196016D817E818F8198850E940A
:103380007E5029853A854B855C850E94D6539B01EA
:10339000AC012093191530931A1540931B155093C7
:1033A0001C156D857E858F8598890E949653181609
:1033B000BCF529893A894B895C8920930D15309396
:1033C0000E1540930F1550931015A50194016D81B2
:1033D0007E818F8198850E947451811104C031E0F3
:1033E00030930415E3CBA50194016D817E818F811B
:1033F00098850E947E5029853A854B855C850E9480
:10340000D6539B01AC01C301B2010E947E50609370
:103410001515709316158093171590931815C6CB34
:103420008D859E85AF85B889809315159093161567
:10343000A0931715B09318158093191590931A152A
:10344000A0931B15B0931C1529813A814B815C8197
:10345000CA01B9010E947F502D853E854F8558894C
:103460000E94D653A70196010E947F500E94755476
:1034700060930D1570930E1580930F159093101592
:1034800095CB92E047CF8091111590911215A091A4
:103490001315B0911415109215151092161510925F
:1034A00017151092181580930D1590930E15A09373
:1034B0000F15B09310157ACB81E08EAB10CC2D8216
:1034C0003D86098B1D8B25CC9E962D913D914D916E
:1034D0005C91D197C701B6010E94D6534B015C01A4
:1034E00020E030E040E05FE30E94D6532FAD21960C
:1034F0003FAD2197A3010E947F50A70196010E9432
:10350000D6539B01AC016D817D8589899D890E947F
:103510007E501B018C019B01AC016E897F89888DD7
:10352000998D0E949653181694F52E893F89488DDF
:10353000598D6EA17FA188A599A50E947E509B01FF
:10354000AC010E947F506B017C012E8D3F8D48A104
:1035500059A16FAD21967FAD2197C3010E947F5085
:103560009B01AC01C701B6010E947E516B017C0139
:10357000BEA9B983EE8DEFAFFF8D2196FFAF2197E6
:1035800068A079A02E883F88088D198D3FCCA501B1
:1035900094016FAD21967FAD2197C3010E947F50AA
:1035A0006FAF21967FAF21973C0130CC2E8D3F8DA0
:1035B00048A159A1C701B6010E94D6539B01AC0195
:1035C0006D817D8589899D890E947E501B018C01BA
:1035D0002AA53BA54CA55DA50E94745187FF16CC7A
:1035E0002AA53BA54CA55DA56D817D8589899D8911
:1035F0000E947E502E8D3F8D48A159A10E947E5180
:103600006B017C012AA43BA40CA51DA522E0298303
:10361000FDCB9E962D913D914D915C91D197C70127
:10362000B6010E94D6534B015C01AC019B016FAD0A
:1036300021967FAD2197C3010E94965318168CF5F1
:1036400020E030E040E05FE3C501B4010E94D653C2
:103650009B01AC016FAD21967FAD2197C3010E9404
:103660007E50A70196010E94D6539B01AC016D814B
:103670007D8589899D890E947E501B018C012EA524
:103680003FA548A959A90E949653181654F4A501BC
:1036900094016FAD21967FAD2197C3010E947E50AA
:1036A0007FCF2EA53FA548A959A96D817D85898920
:1036B0009D890E947E509B01AC010E947F506B014E
:1036C0007C012BAD3CAD4DAD5EAD6FAD21967FADB8
:1036D0002197C3010E947F509B01AC01C701B60135
:1036E0000E947E516B017C01BBADBFAFECAD21965A
:1036F000EFAF21976DAC7EAC2EA43FA408A919A909
:1037000085CB2AA93BA94CA95DA9B101C8010E949A
:10371000965318169CF42EE333EC4EE259E36AA15B
:103720007BA18CA19DA10E947F506AA37BA38CA347
:103730009DA32A8D3B8D4C8D5D8D84CB8FAD2196C5
:103740009FAD2197D3018093091590930A15A093FB
:103750000B15B0930C1529812093041591CB109271
:103760003D1510923E1510923F1510924015109283
:10377000221510922115BDCB2091F4143091F5142F
:103780004091F6145091F7146A8D7B8D8C8D9D8D30
:103790000E947F506D837E838F839887A30192015F
:1037A000C501B4010E947E509B01AC016D817E81F8
:1037B0008F8198850E947E514B015C0120EC31EE97
:1037C00044E65EE40E94D6530E945D510E94F75188
:1037D000E985FA85E359FC4E603D37E073078105C2
:1037E000910508F054C01582E985FA85E359FC4E2D
:1037F0007383628380916C138093BD138F5F8A30D3
:1038000009F47BC080936C13E0912315F09124158B
:10381000C101D80182AB93ABA4ABB5ABC092F81495
:10382000D092F914E092FA14F092FB14A3019201E1
:10383000C701B6010E947E50A50194010E94D65393
:103840006093F4147093F5148093F6149093F71426
:1038500020910515309106154091071550910815D6
:10386000B101C8010E947451811117C9909134159A
:10387000998320E030E0A901B101C8010E9496536C
:103880001816F4F5A981A160A09334157BCB603A9A
:103890004FE074078105910520F551E05583E985D6
:1038A000FA85E359FC4E2581022E04C09695879532
:1038B000779567950A94D2F749815A8102C0440FDF
:1038C000551F2A95E2F7518340836115710551E038
:1038D0008507910508F488CF8FEF9FEF938382834C
:1038E00089CF6034AFE17A078105910518F4B2E021
:1038F000B583D5CF23E02583D2CF10926C1384CF2C
:10390000B981B2FF04C0B160B09334153BCB1092C3
:103910002415109223159091910980916A138917AB
:1039200009F4BBC881E0890F843209F480E020915A
:103930009009921302C08093900980939109ADC8B9
:103940004F925F926F927F928F929F92AF92BF92AF
:10395000CF92DF92EF92FF920F931F93CF93DF935B
:10396000C0912A15CC23D1F081E0809330158CE5ED
:1039700093E00E948C078C2F0E9467070E944808E2
:1039800084EF91E00E94C312C150C23010F40E9433
:103990009D138FB7F89410922A158FBFC0912B15E5
:1039A000CC2309F4DBC0C4FF14C081E0809331153F
:1039B000DF91CF911F910F91FF90EF90DF90CF900B
:1039C000BF90AF909F908F907F906F905F904F903F
:1039D0000895C0FF05C00E943A0B81E00E94AF032A
:1039E0008C2F887E09F46AC080913015982F9370CF
:1039F00009F053C08872A9F080913215807C89F457
:103A00000E94A60482E080933415809130158032A4
:103A100041F480E2C7FD0CC080913215806880932C
:103A2000321580913015811103C091E090933215C9
:103A3000C6FF07C085FD05C0909132159064909334
:103A40003215C3FF05C0807E19F480E180933015E4
:103A5000C5FF23C088EE93E00E948C078CEA93E0B8
:103A60000E948C070E94520A8091321587FD10C077
:103A700090913015903451F483FF04C0837E8260AE
:103A80008093321580E48093301502C09038D1F7CE
:103A900080913215806280933215C7FF0CC08091EF
:103AA0003015813029F4809132158560809332156C
:103AB00080E88093301588EE0E94AF03C1FF28C0D4
:103AC0008C2F887611F580913015803441F48091E7
:103AD000321585FD04C084FFF4C01092301580912A
:103AE0003015882309F4F3C084FF0FC0909132157C
:103AF00090FF0BC0803109F0EAC080913A1588230D
:103B000009F4E5C0886080933A1582E00E94AF0313
:103B1000C2FF24C09091321580913015807D09F448
:103B2000EFC0809133158111EBC097FDEBC00E946F
:103B3000A60480919109809390090E94D40D8091F0
:103B4000341581FF05C09091321591609093321524
:103B5000897F8093341584E00E94AF0390912815EB
:103B6000992309F44DC08FB7F894109228158FBF90
:103B700040913715842F90FD84E691FD865F92FD7C
:103B80008A5093FD8F5F94FD8150893C08F088EC4A
:103B90008A3008F48AE030913815232F95FD24E609
:103BA00096FD22E397FD29E1481302C0231741F156
:103BB000809337152093381510923B15809091090A
:103BC00040906A13C82D89E9B82E96E7E92E26E9B8
:103BD000F22EDEE736E4532EC411AFC08B2D9E2D9E
:103BE000AF2DBD2F8093180490931904A0931A044D
:103BF000B0931B040E94A604809290090E94D40DE9
:103C000090912915992309F445C08FB7F894109223
:103C100029158FBF20913915822F90FD84E691FDE3
:103C2000865F92FD8A5093FD8F5F94FD8150893CA1
:103C300008F088EC8A3008F48AE0281749F02091CF
:103C400034152860209334158093391510923B1554
:103C50008091301595FF09C0803139F420913A15D3
:103C60002111C0C022E020933A15292F207C91F029
:103C7000882311F0887171F080915A1597FF03C065
:103C800087FFB4C08F7796FF03C086FFB1C08F7BDC
:103C900080935A15809130158C7F09F489CEDF917D
:103CA000CF911F910F91FF90EF90DF90CF90BF9039
:103CB000AF909F908F907F906F905F904F900C94FB
:103CC0002E1582FF0CCF88608093321508CF10929A
:103CD00034150E942A0B892B71F08091321586FDD4
:103CE0000AC01092321588E0809330150E942E157C
:103CF0000E94CA040ACF109232151092301505CFD7
:103D000097FF0AC0109234150E940E140E94C4132B
:103D10000E9417110E94A40A8091321585FF08C0E5
:103D20008F7781608093321580E48093301513CFB4
:103D300010923215109230150ECFCC2ED12CC59D7D
:103D4000C00111248E56964F0E94B50A3B01982E51
:103D5000A92E2B2D3E2D4F2D5D2F0E9496535C9C3E
:103D600080015D9C100D11240E56164F18169CF5FF
:103D70002B2D3E2D4F2D5D2F6B2D7E2D8F2D9D2FAD
:103D80000E94D653F80162A773A784A795A75C9CED
:103D900080015D9C100D11240E56164FF801C6A827
:103DA000D7A8E0ACF1ACA701960162A573A584A5E4
:103DB00095A50E94965318162CF4F801C2A6D3A616
:103DC000E4A6F5A6CF5FC43209F4C0E0B62CE72C18
:103DD000F92CDA2D01CF9301492D5A2DB301892DEC
:103DE0009A2DCECF20FF41CF24603DCF80684BCFAE
:103DF00080644ECFCF92DF92EF92FF92CF93DF930A
:103E000000D000D0CDB7DEB790913115911110C020
:103E10006A017B01811119C010923D1510923E1567
:103E200010923F15109240150E94271310923B15D7
:103E300026960FB6F894DEBF0FBECDBFDF91CF91AF
:103E4000FF90EF90DF90CF9008959091EE169270D2
:103E5000803181F486E0EFE0F2E0992381F08091F7
:103E6000EE1681FF17C0C701B6010E948B140E9495
:103E7000DC04DCCF9111F3CF86E0E5E1F2E0DE0176
:103E8000119601900D928A95E1F7CE0101960E945C
:103E9000EC12E5CF20E030E040EC50E4C701B60181
:103EA0000E947E510E94F75181E0898386E08A83D7
:103EB00080EF8B8388E08C837D836E83CE010196B7
:103EC0000E94EC12B3CFCF92DF92EF92FF920F934A
:103ED0001F93CF93DF930E94A01C809132158823FB
:103EE00009F460C00E942A0B0097D1F5C0915B15C0
:103EF00080915A15C82BC0905C15D0905D15E0904C
:103F00005E15F0905F158091EE1681FF03C080E290
:103F10000E949703C073D1E080913215882309F481
:103F200041C09091311591113DC080FF16C0909114
:103F30003015292F207C09F484C082FD1BC010920B
:103F40003A1540E050E0BA0180E00E94FA1E8091EC
:103F500032158D7F8460809332150E94A01CDCCFC7
:103F6000FC01C1A18E5B9F4FFC01C080D180E2802B
:103F7000F380C9CF903811F588EE93E00E948C074A
:103F800083E693E00E948C070E94520A40E050E0D2
:103F9000BA0180E00E94FA1E0E94CD128091311574
:103FA000882349F0DF91CF911F910F91FF90EF90FF
:103FB000DF90CF9008950E94A01CF0CF903429F498
:103FC000909106018F7D809332158091321583FF89
:103FD000C4CF90915B15992359F081FDBECF80919C
:103FE000EE1681FF10C080913415886080933415DF
:103FF0008091321581FDB1CF80618093321582E0CE
:104000000E94B903AACFB701A6018C2F0E94FA1E05
:1040100001E510E00150110959F38091311581112A
:10402000E7CF0E94A01C8091321581FD96CFFFEF53
:1040300020E782E0F15020408040E1F700C000001E
:10404000E9CF80913A158823C9F181FF0DC0809195
:104050005B15882351F140E050E0BA0180E00E94F6
:10406000FA1ED0933A1579CF8C7009F476CF8091EF
:104070005B15882399F088EE93E00E948C078CE60C
:1040800093E00E948C070E94520A8091EE1681FFF5
:104090000FC08091341588608093341580913A1553
:1040A00083FF03C082E00E94B90310923A1555CFF6
:1040B000B701A6018C2F0E94FA1EF0CF8091341513
:1040C00083FF4BCFB701A6018C2F0E94FA1E80916F
:1040D0003415877F8093341540CF0E94CC0D0E9409
:1040E000631F80913115811108C00E942A0B892B12
:1040F000B1F780913015883091F30895CF93DF9315
:1041000021E031E0829FE001839FD00D1124DD5F2B
:1041100040E051E0BE018BEA97E10E948D11892BAE
:1041200079F41092AB170E946D2040E051E06BEAE9
:1041300077E1CE010E943D1180E0DF91CF9108959B
:1041400081E0FBCF0E946D2010923C150895CF9224
:10415000DF92EF92FF92CF9390913015923079F0E9
:104160006A017B01C82F0E946D20B701A6018C2F28
:10417000CF91FF90EF90DF90CF900C94FA1ECF91EB
:10418000FF90EF90DF90CF9008950F931F93CF9300
:10419000C82F8B010E946D202DE1C29FC001112408
:1041A0004CE150E0B8019E5FCF911F910F910C94AC
:1041B0003D111F93CF93DF93182FEB018DE1189FD3
:1041C000B00111247E5F4CE150E0CE010E948D11C0
:1041D000892B71F48CE1FE0111928A95E9F7BE01F9
:1041E000812F0E94C52080E0DF91CF911F9108951B
:1041F00081E0FACF4F925F926F927F928F929F925F
:10420000AF92BF92CF92DF92EF92FF920F931F93E4
:10421000CF93DF93CDB7DEB76C970FB6F894DEBFC0
:104220000FBECDBF182F80FF1EC28AE08093D91623
:1042300089E18093DC161092DA1684E08093DB1615
:1042400082E08093DD168AE097EDA3E2BCE38093E1
:10425000DE169093DF16A093E016B093E1168FE67A
:1042600092E1A3E0BBE38093E2169093E316A09360
:10427000E416B093E51680E090E4ACE9B6E48093F0
:10428000E6169093E716A093E816B093E9161092FD
:10429000EA161092EB161092EC161092ED16109290
:1042A000EF1680E090E0A8ECB1E48093F0169093D4
:1042B000F116A093F216B093F31680E090E0A6E119
:1042C000B4E48093F4169093F516A093F616B09389
:1042D000F7168AEF90E09093F9168093F81680E035
:1042E00090E0A0E0B0E48093FA169093FB16A093C0
:1042F000FC16B093FD1688E18093EE1680E090E006
:10430000A8ECB3E48093691690936A16A0936B1699
:10431000B0936C1680936D1690936E16A0936F16E3
:10432000B09370168093711690937216A0937316C3
:10433000B093741680E090E0AAE7B5E48093851608
:1043400090938616A0938716B0938816809389164B
:1043500090938A16A0938B16B0938C1680938D162B
:1043600090938E16A0938F16B093901680E098ECE1
:10437000AFEAB9E48093A1169093A216A093A31676
:10438000B093A4168093A5169093A616A093A71693
:10439000B093A8168093A9169093AA16A093AB1673
:1043A000B093AC1680E090E0A8ECB3EC8093BD161F
:1043B0009093BE16A093BF16B093C0168093C116FB
:1043C0009093C216A093C316B093C4168093C516DB
:1043D0009093C616A093C716B093C81680E090E0DD
:1043E000A0E2B1E48093071790930817A0930917F0
:1043F000B0930A1780E090E0A0EAB1E480930B1735
:1044000090930C17A0930D17B0930E1780E090E0D7
:10441000A0EFB1E480930F1790931017A09311179A
:10442000B093121781E08093FE161092FF1610923F
:104430000017109201171092021710920317109292
:104440000417109205171092061733E1C32E37E1B7
:10445000D32E4CEEE42EFF24FA94412C512C50EA3A
:10446000652E50EC752E812C912C68E4A62E62EC02
:10447000B62EF60141925192619271926F01B7018D
:104480000F2C000C880B990B0E942852F601648BAC
:10449000758B868B978B84A695A6A6A6B7A6FEE1FC
:1044A000EF1AF10888E3E8168FEFF80611F7EBE54D
:1044B000F7E181E070EC60E453E04AE036E022E3AB
:1044C00092E2808311821282138274836583168242
:1044D00017821086118652874387348725878687FF
:1044E00097877096A7E1EB39FA0759F710929B1757
:1044F00010929C1710929D1710929E1710929F1762
:104500001092A0171092A1171092A2171092A31741
:104510001092A4171092A5171092A6171092A71721
:104520001092A81787E08093A91784E08093AA17B8
:104530008FE195ECA1E3B3E4809375169093761622
:10454000A0937716B093781640E050E06AE775E4E0
:10455000409391165093921660939316709394160D
:10456000C12C88ECD82E8FEAE82E89E4F82EC09270
:10457000AD16D092AE16E092AF16F092B01680E073
:1045800090E0A8E4B3EC8093C9169093CA16A09368
:10459000CB16B093CC16812C912C20EAA22E23E4CA
:1045A000B22E8092791690927A16A0927B16B092D3
:1045B0007C164093951650939616609397167093B9
:1045C0009816C092B116D092B216E092B316F0923D
:1045D000B4168093CD169093CE16A093CF16B093B9
:1045E000D01680927D1690927E16A0927F16B09281
:1045F0008016C092B516D092B616E092B716F09219
:10460000B8164093991650939A1660939B16709320
:104610009C168093D1169093D216A093D316B09384
:10462000D4168092811690928216A0928316B09230
:104630008416C092B916D092BA16E092BB16F092C8
:10464000BC1640939D1650939E1660939F167093D0
:10465000A0168093D5169093D616A093D716B09334
:10466000D8160E94781111FF0FC0FE0131967F010C
:104670008CE111928A95E9F700E0B701802F0E9442
:10468000C5200F5F0830C9F712FF14C060E080E05A
:1046900093E00E941D1160E081E093E00E941D11F3
:1046A00060E081E094E00E941D1160E082E094E00F
:1046B0000E941D1113FF0AC060E08EEA93E00E9481
:1046C0001D1160E08FEA93E00E941D116C960FB6F9
:1046D000F894DEBF0FBECDBFDF91CF911F910F9138
:1046E000FF90EF90DF90CF90BF90AF909F908F9012
:1046F0007F906F905F904F9008955F926F927F923E
:104700008F929F92AF92BF92CF92DF92EF92FF92E1
:104710000F931F93CF93DF9300D000D000D01F9250
:104720001F92CDB7DEB74C016DB67EB68BE0EBE1E4
:10473000F2E0DE01119601900D928A95E1F70E9458
:10474000F7138FE0582E5E012CE0A20EB11C8E01F3
:104750000F5F1F4FF80181918F010E948C05A016F9
:10476000B106C1F784E690E00E94C3120E94620580
:104770008A3A09F04BC00E946205CDB6DEB6082F1A
:1047800010E02DB73EB7201B310B0FB6F8943EBF9B
:104790000FBE2DBFEDB7FEB731967F01682FCF0159
:1047A0000E944C050E0D1F1DF80131978081853543
:1047B00041F5F701369680E1D40101900D928A957A
:1047C000E1F70FB6F894DEBE0FBECDBE0FB6F8947B
:1047D0007EBE0FBE6DBE2B960FB6F894DEBF0FBE29
:1047E000CDBFDF91CF911F910F91FF90EF90DF90A0
:1047F000CF90BF90AF909F908F907F906F905F9081
:1048000008950FB6F894DEBE0FBECDBE5A94511077
:104810009ECFDCCF2F923F924F925F926F927F920A
:104820008F929F92AF92BF92CF92DF92EF92FF92C0
:104830000F931F93CF93DF93CDB7DEB7C658D1093F
:104840000FB6F894DEBF0FBECDBFE9967FAF6EAF57
:10485000E997B0906A132B2D30E0E3963FAF2EAF6F
:10486000E39726E4B29EA0011124BA016E56764F5A
:10487000EB967FAF6EAFEB97DB011D922A95E9F7C0
:10488000E996EEADFFADE9972485DB0191962C9377
:10489000FB01EE5BFF4FE996AEADBFADE997149615
:1048A0004D915D916D917C91179740835183628307
:1048B000738318964D915D916D917C911B97EB964A
:1048C000EEADFFADEB9742A353A364A375A321FF05
:1048D000E9C12CE1E1ECF5E1DE01D99601900D9200
:1048E0002A95E1F7E4968FAFE497E5969FAFE597B9
:1048F00029E636E1CD57DF4F39832883C358D040AE
:10490000BE01635E7F4FCF57DF4F79836883C15805
:10491000D040CE01C996C158DF4F99838883CF57C5
:10492000D040EB96AEADBFADEB97EF96BFAFAEAF5D
:10493000EF974E01B5E58B0E911CED969FAE8EAEB6
:10494000ED9710E086E4E396EEADFFADE3978E9F22
:1049500010018F9F300C112491012E56364F1901F2
:10496000B901645E7F4FCB57DF4F79836883C558A9
:10497000D04070E2270E311CE596AEADBFADE59795
:104980006D917D918D919D91E596BFAFAEAFE5970D
:10499000CD57DF4FE881F981C358D0404190519005
:1049A00061907190CD57DF4FF983E883C358D040B1
:1049B000A30192010E94D6530E94A353CF57DF4F09
:1049C000A881B981C158D0406D937D938D939D93FB
:1049D000CF57DF4FB983A883C158D040C158DF4FAC
:1049E000E881F981CF57D040C190D190E190F1900A
:1049F000C158DF4FF983E883CF57D0406C197D0948
:104A00008E099F099B01AC0197FF07C0222733271E
:104A1000A901261B370B480B590BEF96AEADBFAD66
:104A2000EF972D933D934D935D93EF96BFAFAEAF50
:104A3000EF97CB57DF4FE881F981C558D040C08050
:104A4000D180E280F380C216D306E406F50610F4A6
:104A500069017A01CB57DF4FA881B981C558D04091
:104A6000CD92DD92ED92FC9213970E942852A30101
:104A700092010E947E51ED96EEADFFADED976193F0
:104A8000719381939193ED96FFAFEEAFED9720E098
:104A900030E0A9010E94745187FF07C0812F0E9456
:104AA000F004D1019C91892B8C931F5F173009F082
:104AB00063CF80E0CD28CE28CF2809F4D9C0CE011D
:104AC0008B5A9F4F0E941F146B017C0186E4E39672
:104AD000EEADFFADE3978E9F80018F9F100D1124E7
:104AE0000E56164FD801D296CD92DD92ED92FC92E1
:104AF000D597BE016B5A7F4F81EA96E10E943F0F26
:104B0000F80166A777A780AB91ABBE016B5A7F4FC8
:104B100085E896E10E943F0FD801DA966D937D9368
:104B20008D939C93DD979196AC90025C1F4FA0FEF5
:104B3000BDC0F80160837183828393838091910962
:104B4000B81611F0A1FECDC086E4E3962EAD3FADC0
:104B5000E397829FF001839FF00D1124EE56F64FEC
:104B600016A217A210A611A616AA17AA10AE11AE69
:104B700086E4E396EEADFFADE3978E9F80018F9FB5
:104B8000100D11240E56164FD80191968C9181FD6F
:104B90006EC0EB968EAD9FADEB970E94B50A6B0190
:104BA0007C018090180490901904A0901A04B09091
:104BB0001B04AC019B01C501B4010E94745187FF25
:104BC0006DC1A5019401C501B4010E94D653F8013D
:104BD00062A773A784A795A786E4E396EEADFFAD21
:104BE000E3978E9F80018F9F100D11240E56164F54
:104BF000D801D6968D909D90AD90BC90D997A50187
:104C000094019A966D917D918D919C919D970E94B2
:104C1000965318162CF4F80182A693A6A4A6B5A65E
:104C2000C0921804D0921904E0921A04F0921B0466
:104C30008CE1FE01EB5AFF4FACEFB3E001900D9217
:104C40008A95E1F78CE1FE017D96A0EEB3E001903C
:104C50000D928A95E1F78091DD0380936A138F5F4F
:104C6000843209F480E08093DD030E94D40D81E05A
:104C7000CA57DF4F0FB6F894DEBF0FBECDBFDF912E
:104C8000CF911F910F91FF90EF90DF90CF90BF9049
:104C9000AF909F908F907F906F905F904F903F90DC
:104CA0002F9008952CE1E0EEF3E016CEE996AEAD3C
:104CB000BFADE9972D913D914D915C91A3FC06C04C
:104CC000F801208331834283538338CFC701B60173
:104CD0000E94D653D8016D937D938D939C93139727
:104CE0002DCF6CEF73E0E9967FAF6EAFE9978E0141
:104CF0000F5F1F4F14017CE1270E311CC12CD12CFA
:104D000076015801E996EEADFFADE9978191919159
:104D1000A191B191E996FFAFEEAFE997E7968CAF1D
:104D20009DAFAEAFBFAFE797D4014D905D906D9052
:104D30007D904D01A3019201E7966CAD7DAD8EADE6
:104D40009FADE7970E94D6539B01AC01C701B60106
:104D50000E947E506B017C01E7962CAD3DAD4EADBF
:104D60005FADE797C301B2010E947E50F8016193E5
:104D70007193819391938F012814390419F62FEEC2
:104D80003FEF4FE75FE3C701B6010E949653181645
:104D90006CF486E4E3962EAD3FADE397829FF0017D
:104DA000839FF00D1124EE56F64FDECE2FEE3FEF2F
:104DB0004FE75FEBC701B6010E94745187FF15C032
:104DC00086E4E3966EAD7FADE397869FF001879F03
:104DD000F00D1124EE56F64F89E996E7A6E9BEE7F5
:104DE00086AB97ABA0AFB1AFC3CEC5010E941F1475
:104DF000B50181EA96E10E943F0F4B015C01A701DA
:104E0000960160E070E080E89FE30E947E5020E021
:104E100030E040E05FE30E94D6530E9475546B017E
:104E20007C012091DE163091DF164091E016509102
:104E3000E116C501B4010E94D653A70196010E9454
:104E4000D6534B015C01A701960160E070E080E859
:104E50009FE30E947E509B01AC01C501B4010E94FA
:104E60007E516B017C0120E030E0A9010E94745169
:104E700087FF03C0C12CD12C760186E4E396AEAD4A
:104E8000BFADE3978A9FF0018B9FF00D1124EE5682
:104E9000F64FC6AAD7AAE0AEF1AE6ACEA701960138
:104EA000C701B6010E94D653D8019A966D937D939F
:104EB0008D939C939D9790CEBF92CF92DF92EF926D
:104EC000FF920F931F93CF93DF93CDB7DEB7A997D0
:104ED0000FB6F894DEBF0FBECDBFB82E0E946D2076
:104EE0000E946A1080913115811179C08E01035E94
:104EF0001F4F8DE0F80111928A95E9F786E089A7A6
:104F000020E030E040E450EC6091D5167091D61668
:104F10008091D7169091D8160E94D6536B017C01D0
:104F200020E030E0A9010E94745187FF03C0C12C2A
:104F3000D12C760161EC75E1CE0101960E9434041A
:104F40001092D9151092DA151092DB151092DC151B
:104F5000BB2021F0F7FAF094F7F8F094C98EDA8EBE
:104F6000EB8EFC8E82E08093361580E090E0A8E422
:104F7000B2E48D8F9E8FAF8FB8A3B801CE0101969A
:104F80000E940A2484E0809334150E942E150E940A
:104F9000CA0412E0809109018095BB2081F18071E3
:104FA000811110E0109336150E942E1580912B155B
:104FB000847309F44EC010912B1514FF03C086E0D2
:104FC0000E94A90315FF03C087E00E94A9038091F6
:104FD0002A158823B1F00E949D130E94631FA99691
:104FE0000FB6F894DEBF0FBECDBFDF91CF911F91FA
:104FF0000F91FF90EF90DF90CF90BF900895807257
:10500000CFCF84E00E94AF030E94C4138091F816B2
:105010009091F9160E94C3121092D9151092DA15C8
:105020001092DB151092DC15109234150E94631F4C
:10503000809131158111D3CF0E9417110E94A40ACB
:105040000E94741081E0B11001C080E08093461589
:10505000C6CF11119FCFD8CFBF92CF92DF92EF92E0
:10506000FF920F931F93CF93DF93CDB7DEB7A9972E
:105070000FB6F894DEBF0FBECDBFB82E0E946D20D4
:105080005F9A0E946A1080913115811176C08E015D
:10509000035E1F4F8DE0F80111928A95E9F786E0D3
:1050A00089A720E030E040E450EC6091CD1670918B
:1050B000CE168091CF169091D0160E94D6536B01D8
:1050C0007C0120E030E0A9010E94745187FF03C0F9
:1050D000C12CD12C760161EC75E1CE0101960E94C4
:1050E00034041092D1151092D2151092D31510924B
:1050F000D415BB2009F451C0F7FAF094F7F8F094F6
:10510000C98ADA8AEB8AFC8A80E48093361580E0CB
:1051100090E0A8E4B2E48D8F9E8FAF8FB8A3B80162
:10512000CE0101960E940A2484E0809334150E94E7
:105130002E150E94CA0410E4BB2011F07D9B10E0E4
:10514000109336150E942E1580912B15847309F447
:1051500052C010912B1514FF03C086E00E94A903D2
:1051600015FF03C087E00E94A90380912A158823B8
:10517000E9F00E949D130E94631FA9960FB6F89450
:10518000DEBF0FBECDBFDF91CF911F910F91FF907A
:10519000EF90DF90CF90BF90089580E090E0A0EC7A
:1051A000BFE3898B9A8BAB8BBC8BAECF84E00E9424
:1051B000AF030E94C4138091F8169091F9160E94D3
:1051C000C3121092D1151092D2151092D3151092CD
:1051D000D415109234150E94631F809131158111EE
:1051E000CCCF0E9417110E94A40A0E9474100E9442
:1051F0006D205F98C2CF11119FCFDBCFAF92BF92CE
:10520000CF92DF92EF92FF920F931F93CF93DF9392
:10521000CDB7DEB7A9970FB6F894DEBF0FBECDBFEE
:10522000182F0E946D200E946A1080913115811103
:1052300075C05E018DE1A80EB11C8DE0F5011192E3
:105240008A95E9F786E089A720E030E040E450EC59
:105250006091D1167091D2168091D3169091D41688
:105260000E94D6536B017C0120E030E0A9010E942E
:10527000745187FF03C0C12CD12C760161EC75E11C
:10528000CE0101960E9434041092D5151092D615C5
:105290001092D7151092D815112309F450C0CD8A59
:1052A000DE8AEF8AF88E80E88093361580E090E001
:1052B000AAEFB4E48D8F9E8FAF8FB8A3B501CE0156
:1052C00001960E940A2484E0809334150E942E15D2
:1052D0000E94CA0400E8112321F08091090181FF96
:1052E00000E0009336150E942E1580912B158473D3
:1052F00009F456C000912B1504FF03C086E00E94FC
:10530000A90305FF03C087E00E94A90380912A1525
:105310008823F1F00E949D130E94631FA9960FB687
:10532000F894DEBF0FBECDBFDF91CF911F910F91DB
:10533000FF90EF90DF90CF90BF90AF90089580E006
:1053400090E0A8ECB2EC8D8B9E8BAF8BB88FABCF7F
:1053500084E00E94AF030E94C4138091F8169091DC
:10536000F9160E94C3121092D5151092D6151092FC
:10537000D7151092D815109234150E94631F809192
:1053800031158111CBCF0E9417110E94A40A0E94EF
:10539000741081E0111101C080E080935015BECFE0
:1053A000011199CFD8CFEF92FF921F93CF93DF9344
:1053B000EC017B018091EE1685FF22C01091301523
:1053C000103211F1CE010E94C2038823C9F081E09E
:1053D00080933315183069F488E00E94B9030E9465
:1053E000631F8091311581110BC08091301581119F
:1053F000F6CF0E949D1382E00E94A9030E94631FC2
:10540000809130158230C1F00E94631F8091311568
:10541000811112C0909191098091DD03981303C00E
:105420000E94CC0DF1CFB701CE01DF91CF911F913A
:10543000FF90EF900C940A24DF91CF911F91FF9081
:10544000EF9008952F923F924F925F926F927F92CA
:105450008F929F92AF92BF92CF92DF92EF92FF9284
:105460000F931F93CF93DF93CDB7DEB7E7970FB6B8
:10547000F894DEBF0FBECDBF90913115911114C1CC
:105480008DAB9E01235E3F4F3AAB29AB8DE0D90136
:105490001D928A95E9F786E089A729E6A22E26E1E2
:1054A000B22EFE01BA964F0110E000E0C12CD12CC3
:1054B0007601FDA92F2E312C802F0E947D03D4016F
:1054C0008D934D01C101002E02C0959587950A94D8
:1054D000E2F780FF1BC020E030E040EC5FEBF5011D
:1054E000EC5AFF4F60817181828193810E94D65373
:1054F000762E472E582E692EA70196010E947451D0
:1055000087FD04C0C72CD42CE52CF62C0F5F1F4F51
:10551000B4E0AB0EB11C0730110571F68090F416A3
:105520009090F516A090F616B090F71694E0692EBC
:1055300001E061EC75E1CE0101960E943404809196
:10554000EF16E82FF0E0FCABEBABFE01319681ECFF
:10555000482E85E1582E5FAA4EAA712C10E030E04B
:1055600020E0B701A6017058C101022E02C0959536
:1055700087950A94E2F780FF28C07394AEA9BFA96B
:105580001D921D921D921C9213978BA99CA9022E0D
:1055900002C0959587950A94E2F780FF07C0002323
:1055A00039F0408351836283738306C00023C9F3BB
:1055B000C082D182E282F3828AE290E08C0F9D1F4A
:1055C000820F931FDC018C91182B2F5F3F4F349675
:1055D0008EA99FA904969FAB8EAB2730310521F68B
:1055E000672D70E090E080E00E9426520E94755482
:1055F00010933615A50194010E94D6536D8F7E8FAE
:105600008F8F98A3BE01635E7F4FCE0101960E94EB
:105610000A2494E0909334150E942E150E94CA0427
:105620000023E9F00E944E10FE01BA9630E020E01F
:1056300090E06191462F412359F0AC01022E02C047
:10564000559547950A94E2F740FF02C060951623EE
:105650002F5F3F4F2730310561F7109336150E94B9
:105660002E1580912B15847309F47AC010912B1597
:1056700014FF03C086E00E94A90315FF03C087E062
:105680000E94A903011182C00E944E10ADA98A2375
:1056900019F088E00E94A90380912A158823E9F077
:1056A0000E949D130E94631FE7960FB6F894DEBF19
:1056B0000FBECDBFDF91CF911F910F91FF90EF9063
:1056C000DF90CF90BF90AF909F908F907F906F9022
:1056D0005F904F903F902F90089584E00E94AF0319
:1056E0000E94C4138091F8169091F9160E94C3127B
:1056F000B1E00B27D1F120E030E040EA50E46091C6
:10570000FA167091FB168091FC169091FD160E947E
:10571000D6536B017C018090F0169090F116A0900A
:10572000F216B090F3166A94611003CF90E080E017
:105730009101082E02C0359527950A94E2F720FFC3
:1057400005C0F20110821182128213820196F4E0E8
:105750004F0E511C8730910559F710923415A4CF84
:10576000812F8E7F09F05CCFBBCFC090FA16D0900E
:10577000FB16E090FC16F090FD168090F4169090C9
:10578000F516A090F616B090F716CDCF12FF84CF85
:1057900089E080CFCF93C82F0E946A108C2FC1114F
:1057A00004C084E00E94222A83E00E94222A0E94F0
:1057B000631F80913115811107C00E9417110E944B
:1057C000A40ACF910C947410CF9108952F923F9218
:1057D0004F925F926F927F928F929F92AF92BF9201
:1057E000CF92DF92EF92FF920F931F93CF93DF93AD
:1057F000CDB7DEB7C056D1090FB6F894DEBF0FBEE5
:10580000CDBF7C01E9E7F3E089E5DF011D928A95D0
:10581000E9F78AE0E2E5F5E1AAE7B3E001900D924D
:105820008A95E1F7F70180818432A1F01EA61FAAB4
:10583000312C212C29961FAE1EAE29971DAE1FA616
:105840001BAACC24C394D12C01E051E6A52E53E031
:10585000B52E5CC181E080937A0310927B0383E0D4
:105860008EA7F1E0FFABE4CF6FEB862E890C29E128
:10587000281510F40C94603A8F5F8EA7AE01465D38
:105880005F4FBE01625D7F4FC7010E94950F882365
:1058900011F40C94633A4AA45BA46CA47DA4C301E4
:1058A000B2010E94B9540E94F751162F70E090E0A7
:1058B00080E00E9428529B01AC01C301B2010E940A
:1058C0007E5020E030E048EC52E40E94D6530E9423
:1058D00043540E94F751CB0137E4931609F427C0D3
:1058E0004DE4941609F46DC1E82D880CFF0B882750
:1058F000E358F34D8F4F0C942F55532E852E922E37
:105900009F2EA72CAC2EA72CA72CB62EC32ED02EA4
:10591000DD2EA72CE12EA72CEF2EA72CF92E032F7E
:105920000D2FA72CA72CA72C222F2F2F3C2F18325E
:1059300009F4E0C030F5143160F4113108F09BC077
:10594000143009F475C0B0F01A3009F469C084E16C
:1059500099C01C3109F464C040F41631C0F725E148
:10596000211B20937C0326E08AC01E3109F458C015
:10597000163269F7EBA9E1110C94663AF2E0FBAB41
:1059800028C01D3309F4B1C0E0F4153309F450C048
:1059900088F41B3211F01133D1F62BA921110C948C
:1059A000663A113309F098C010927F0328E033E083
:1059B0003BAB50C01C3358F616531093800329E0BC
:1059C0005EC01C3510F51A3508F076C0103509F0A8
:1059D000BECF10937A0321E0163209F050C0843113
:1059E000910551F08E31910539F08832910521F001
:1059F0008233910509F0ABCF6AE070E00E94F95460
:105A0000665760937A0321E025C01C3549F01F35A5
:105A100008F09DCF2EE5211B20937B0325E02FC0AE
:105A2000009731F4ABA9A1110C94663AB1E0BBAB7D
:105A300010937903212F2D7F2C3119F020E01C3594
:105A4000F1F4009719F00A9709F081CF610F609384
:105A5000790320E0C60102C0880F991F2A95E2F75A
:105A600029962EAD3FAD299728233923232B09F4FE
:105A700043C085E107C0115110937E0322E0892BBA
:105A800049F387E1C05ADF4F0FB6F894DEBF0FBE6F
:105A9000CDBFDF91CF911F910F91FF90EF90DF90DD
:105AA000CF90BF90AF909F908F907F906F905F90BE
:105AB0004F903F902F900895892B29F41A551093F9
:105AC0007D0323E0C7CF6A30710509F040CF1A3556
:105AD00009F43DCF24E0BECF0A9709F038CF0093F8
