:100000000C94BE020C94DF020C94DF020C94DF020D
:100010000C94DF020C94DF020C94DF020C94DF02DC
:100020000C94DF020C9407520C94DF020C94464BA4
:100030000C9490510C94DF020C94DF020C94DF02BC
:100040000C94DF020C94A24B0C94DF020C94DF02A0
:100050000C94DF020C94DF020C94DF020C948C4BA6
:100060000C94DF020C946F500C9465510C94DF02D9
:100070000C94DF020C94DF020C94DF020C94DF027C
:100080000C94DF020C94DF020C94DF020C94654F99
:100090000C9447500C941C500C94DF020C94DF021B
:1000A0000C94DF020C94DF020C94DF020C94DF024C
:1000B0000C94DF020C94DF020C94DF020C941C52AF
:1000C0000C94DF020C94DF020C94DF020C94F44FCA
:1000D0000C94C94F0C94DF020C94A14F0C94764FF2
:1000E0000C94DF02084AD73B3BCE016E84BCBFFDB7
:1000F000C12F3D6C74319ABD56833DDA3D00C77FF8
:1001000011BED9E4BB4C3E916BAAAABE0000008090
:100110003F05A84CCDB2D44EB93836A9020C50B91F
:10012000918688083CA6AAAA2ABE000000803F004B
:100130000C94E7450C94D5450C94A84A0C940651B0
:100140000C9467310C940E510C948F4A0C940A5104
:100150000C94E74A0C94754A0C946C4A0C94313117
:100160000C941E510C948B300C9419310C94EE505D
:100170000C94CA300C9441510C9402510C94BC451F
:100180000C94ED450C943F4B0C94FB300C94F450C4
:100190000C94D7500C9414510C944F510C94B245BC
:1001A0000C94B6450C9426510C940A4B0C947D4A41
:1001B0000C949C4A0C9449510C9432510C94F04A82
:1001C0000C94F64A0C94134B0C94CA450C9453515E
:1001D0000C94DB4A0C941B4B0C94D34A0C9437516F
:1001E0000C941C510C9412510C940C510C947431BD
:1001F0000C949F4A0C94F3450C9408310C94FE50D7
:100200000C94364B0C94FB450C94C0450C94453132
:100210000C94724A0C9430510C9427310C94C645BE
:100220000C94FC500C947A4A0C945A310C9415316D
:100230000C94FA500C9404510C9428510C941651BF
:100240000C9400510C942E510C9418510C94D12EF6
:100250000C94D7300C9445510C942D4B0C94E430F5
:100260000C94FF4A0C9424510C94DE4A0C94F945EA
:100270000C94AD490C9451510C94BA450C942C51EA
:100280000C9410510C9434510C94DF450C94B14AE9
:100290000C94F8500C94244B0C944D510C94874AB8
:1002A0000C94BD4A0C9422510C94EE300C943B31CA
:1002B0000C94C74A0C943D510C94BD300D0A007C3F
:1002C00057506F733A004D506F733A000D0A00415A
:1002D0006C61726D3A005BE68EA2E992883A003159
:1002E0002E302E33005B76657273696F6E3A007C38
:1002F00046533A007C4C6E3A007C42663A007C479A
:100300003A007C4D3A007C533A007C46423A007CED
:1003100053463A007C483A007C41463A007C4C3ACD
:10032000007C433A007C44523A007C443A007C54BE
:10033000443A007C523A007C52573A007C4C573A7F
:10034000007C5246543A007C4C46543A007C53544C
:100350003A007C463A007C543A007C4C443A007C9B
:1003600057506F733A007C4D506F733A00536C6571
:10037000657000446F6F723A00436865636B0041BB
:100380006C61726D00486F6D696E67004D6F7669C4
:100390006E67005061757365004D6F76696E67001A
:1003A0005265616479006572726F723A005D002C6B
:1003B000002C002C002C002C002C002C006E756CE6
:1003C0006C5D0027746872656164272C0027647275
:1003D000696C6C272C0027636F6E65272C002762E1
:1003E000616C6C272C0027656E646D696C6C272C22
:1003F000005B007D0D0A00273A007B27746F6F6C4D
:10040000007D0D0A00273A007B27746F6F6C007D1A
:100410000D0A00273A007B27746F6F6C000D0A00ED
:100420005D005B746F6F6C5374617475733A200078
:100430000D0A00537461727420746F6F6C207365C1
:100440007474696E6700204700204D00205300201F
:10045000460020540033382E005B47433A47005B88
:100460005A706F733A005B544C4F3A005B47393215
:100470003A003330003238005B47005B4F50543A4B
:10048000005B5645523A312E31652E3230313730CD
:100490003131343A00536C656570696E670052659E
:1004A00073746F72696E67207370696E646C650037
:1004B000526573746F72696E672064656661756CEE
:1004C00074730050726F6772616D20656E6465644D
:1004D00000436865636B206C696D697473004368E1
:1004E00065636B20646F6F720044697361626C6551
:1004F0006400456E61626C65640043617574696F88
:100500006E3A20556E6C6F636B656400506C65616C
:10051000736520756E6C6F636B00506C65617365FD
:10052000205265736574005B4D53473A006F6B0D45
:100530000A00244E005D7D0D0A002C007B27746F9D
:100540006F6C44617461273A5B000D0A0062656656
:100550006F7265546F6F6C3A000D0A006E6F7754BE
:100560006F6F6C3A000D0A00537461727420746FDF
:100570006F6C2073657474696E67000011241FBE70
:10058000CFEFD1E2DEBFCDBF00E00CBF2DE1A0E098
:10059000B4E001C01D92A036B207E1F714E0A0E07C
:1005A000B2E0E8EEFDEB00E00BBF02C007900D9259
:1005B000A030B107D9F70E946F530C94F25E0C94EF
:1005C00000002F923F924F925F926F927F928F9294
:1005D0009F92AF92BF92CF92DF92EF92FF920F93D2
:1005E0001F93CF93DF93CDB7DEB72E970FB6F89456
:1005F000DEBF0FBECDBF4B015C017A0120E030E0D1
:10060000A9010E94135810E087FF05C0B7FAB09403
:10061000B7F8B09411E0C501B4010E9496586B87F9
:100620007C878D879E87112331F08DE2F7018083CF
:10063000C70101967C016B857C858D859E858E0129
:100640000F5F1F4F68013AE0232E312C412C512CB3
:100650003801EFEF6E1A7E0AA20191010E94AC5B95
:10066000605DF8016083B901CA01830161157105FC
:100670008105910569F7D701F301CE16DF06E1F593
:1006800083010C191D090F5F1F4F0E0D1F1D6B8578
:100690007C858D859E850E94C5589B01AC01C50156
:1006A000B4010E941D5793012C193D09E20EF31E5F
:1006B0002EE2F7012083680124E0F22EFA94F11073
:1006C0001EC0F80113822E960FB6F894DEBF0FBE3F
:1006D000CDBFDF91CF911F910F91FF90EF90DF90F1
:1006E000CF90BF90AF909F908F907F906F905F90D2
:1006F0004F903F902F90089582918D93BECF20E030
:1007000030E040E251E40E94755A4B015C010E94C6
:100710008F5820E3260FF60121936F01072E000C5E
:10072000880B990B0E94C7589B01AC01C501B4010D
:100730000E941D57C3CF2FB7F8949091D11A892BDF
:100740008093D11A2FBF08952FB7F8949091D01AA3
:10075000892B8093D01A2FBF08959FB7F894809368
:10076000CF1A9FBF08959FB7F8942091CE1A809515
:1007700082238093CE1A9FBF08952FB7F89490914B
:10078000CE1A892B8093CE1A2FBF08954F925F9275
:100790006F927F928F929F92AF92BF92CF92DF9291
:1007A000EF92FF920F931F93CF93DF9380909D1C46
:1007B000912C2BE6A22E2CE1B22E8C01D0E0C0E0D1
:1007C000F501C190D190E190F1905F0120E030E01F
:1007D000A901C701B6010E941358882381F1F801CD
:1007E0004080518062807380C4010C2E02C09595B8
:1007F00087950A94E2F720E030E0A90180FF11C05C
:10080000C301B2010E94135887FD09C0C701B60198
:100810009058A30192010E94135887FF10C081E0F5
:1008200016C0C301B2010E94355A1816C4F3A301C1
:100830009201C701B6010E94355A181684F3219619
:100840000C5F1F4FC730D10509F0BACF80E0DF91B0
:10085000CF911F910F91FF90EF90DF90CF90BF90BD
:10086000AF909F908F907F906F905F904F90089582
:100870008F929F92AF92BF92CF92DF92EF92FF92B0
:100880000F931F93CF93DF93EB0127E1E22E2CE12F
:10089000F22E8C016B018CE1C80ED11C699179910B
:1008A00089919991F70181909190A190B1907F01E8
:1008B0000E94C758A50194010E941D58F801619338
:1008C0007193819391938F01CC15DD0539F7DF91F9
:1008D000CF911F910F91FF90EF90DF90CF90BF903D
:1008E000AF909F908F900895E2E0F1E08081886062
:1008F00080830895882341F0739A91E0811101C0AB
:1009000090E09093F11A08957398F7CF882341F0FF
:100910008F9A91E0811101C090E09093F31A0895AD
:100920008F98F7CF813019F4899A8A9804C08998F2
:100930008230D9F78A9A8093F41A0895882341F077
:10094000A29A91E0811101C090E09093F21A08956B
:10095000A298F7CFCF93DF93C091C91AD091CA1A4A
:100960002097C9F08091991A81608093991A6091BB
:10097000AF1A7091B01A8091B11A9091B21A9B017E
:10098000AC010E94755A6EA37FA388A799A7109205
:10099000CA1A1092C91ADF91CF910895E3EFFEE0D1
:1009A0008091F00E868F8091871C8250990B880F62
:1009B0008195858FEFE6F0E08081826080830895E5
:1009C00020919C1C21FF0BC09093AB008093AA0048
:1009D000892B31F48091A0008F7D8093A000089531
:1009E0008091A0008062F9CF882361F0813061F0AE
:1009F000823061F0833061F0843061F0853061F0E5
:100A000082E0089580E8089580E4089580E20895E2
:100A100080E1089588E0089584E00895882361F0D6
:100A2000813061F0823061F0833061F0843061F0B8
:100A3000853061F082E0089584E0089588E00895AB
:100A400080E1089580E2089580E4089580E80895A3
:100A5000AF92BF92CF92DF92EF92FF920F931F93CC
:100A6000CF93DF93E090881CF12CC090891CD12C8F
:100A7000D0E0C0E010E000E0BC2EAC2EC7010C2E90
:100A800002C0959587950A94E2F780FF04C08C2FE9
:100A90000E940E05082BC60102C095958795AA9461
:100AA000E2F780FF04C08B2D0E94F404182B2196DE
:100AB000C730D10509F70093F00E1093F10EDF91C6
:100AC000CF911F910F91FF90EF90DF90CF90BF904B
:100AD000AF9008959091D21A8091D31A891749F056
:100AE000E92FF0E0EB53F64F80819F5F9093D21A8D
:100AF00008958FEF08952091CC0EDC0180E08613DD
:100B000001C008959091CB0E2917D9F3E92FF0E099
:100B1000E553F24F30813D938F5F9F5F9093CB0EF3
:100B2000EECF9091CB0E8091CC0E891749F0E92F32
:100B3000F0E0E553F24F80819F5F9093CB0E0895D4
:100B40008FEF0895E091C90C91E09E0F2091CA0D9E
:100B5000291761F0F0E0E653F34F80839093C90CBE
:100B60008091310180628093310104C02091CE1ABE
:100B700024FFECCF0895E091C50A91E09E0F2091EB
:100B8000C60B291761F0F0E0EA53F54F808390938C
:100B9000C50A8091D10080628093D10004C0209169
:100BA000CE1A24FFECCF0895E091C30891E09E0F88
:100BB0002091C409291761F0F0E0EC53F74F8083CE
:100BC0009093C3088091C90080628093C90004C0DB
:100BD0002091CE1A24FFECCF0895E091BF06DC01EE
:100BE00080E091E09E0F2091C007291308C0E09398
:100BF000BF069091C10090629093C10008952D911D
:100C0000F0E0E054F94F20838F5FE92F6813E9CFBC
:100C1000EECFE091BF0691E09E0F2091C00729170B
:100C200061F0F0E0E054F94F80839093BF0680912B
:100C3000C10080628093C10004C02091CE1A24FFBD
:100C4000ECCF08951092D20E90919C1C97FD03C09A
:100C50009CE09093D20E882331F08091D20E9CE0DC
:100C600089278093D20E08958F929F92AF92BF9260
:100C7000CF92DF92EF92FF920F931F93CF93DF9368
:100C8000CDB7DEB72D970FB6F894DEBF0FBECDBF40
:100C90006B017C01042F20E030E0A9010E94135871
:100CA00087FF07C08DE20E94A205F7FAF094F7F8DB
:100CB000F09420E030E048EC52E4C701B6010E9415
:100CC000755A20E030E048EC52E4043031F0033053
:100CD00031F420E030E040E251E40E94755A20E017
:100CE00030E040E05FE30E941E570E948F5810E002
:100CF0003AE0832E912CA12CB12CE12FF0E061156C
:100D000071058105910581F581E090E08C0F9D1FB3
:100D1000E80FF91F80E31017C8F1101309C0E1E0D4
:100D2000F0E0EC0FFD1FE10FF11D80E380831F5FFA
:100D3000EE24E394F12CEC0EFD1EE10EF11C1111DA
:100D400028C02D960FB6F894DEBF0FBECDBFDF9141
:100D5000CF911F910F91FF90EF90DF90CF90BF90B8
:100D6000AF909F908F900895EE24E394F12CEC0EB9
:100D7000FD1EEE0EFF1EA50194010E94AC5B605D9E
:100D8000F7016083B901CA011F5FB7CF1F5F81936D
:100D9000C2CF101303C08EE20E94A205F701829118
:100DA0007F010E94A2051150CACF0F931F93CF93CA
:100DB0008C01C0E0F80161917191819191918F0155
:100DC00020919C1C43E020FF07C02BE832E441E265
:100DD0005DE30E94755A44E00E943406C33019F066
:100DE0008CE20E94A205CF5FC43021F7CF911F9102
:100DF0000F9108958F929F92AF92BF92CF92DF9200
:100E0000EF92FF920F931F93CF93DF93CDB7DEB78F
:100E10002D970FB6F894DEBF0FBECDBF6B017C01DE
:100E2000042F20E030E0A9010E94135887FF07C07B
:100E30008DE20E940906F7FAF094F7F8F094102F6B
:100E4000123008F054C000FF0AC020E030E040E259
:100E500051E4C701B6010E94755A6B017C0120E084
:100E600030E040E05FE3C701B6010E941E570E94D8
:100E70008F5810E03AE0832E912CA12CB12CE12F59
:100E8000F0E06115710581059105E9F581E090E0DB
:100E90008C0F9D1FE80FF91F80E3101708F445C061
:100EA000101309C0E1E0F0E0EC0FFD1FE10FF11DB0
:100EB00080E380831F5FEE24E394F12CEC0EFD1E93
:100EC000E10EF11C111134C02D960FB6F894DEBF5F
:100ED0000FBECDBFDF91CF911F910F91FF90EF908B
:100EE000DF90CF90BF90AF909F908F90089520E0BB
:100EF00030E048EC52E4C701B6010E94755A6B011C
:100F00007C0112509DCFEE24E394F12CEC0EFD1EDB
:100F1000EE0EFF1EA50194010E94AC5B605DF7011F
:100F20006083B901CA011F5FAACF1F5F8193B5CF4C
:100F3000101303C08EE20E940906F70182917F011F
:100F40000E9409061150BECF20919C1C40E020FF5A
:100F500007C02BE832E441E25DE30E94755A41E0AC
:100F60000C94FA0620919C1C43E020FF07C02BE85C
:100F700032E441E25DE30E94755A44E00C94FA06C3
:100F80000F931F93CF938C01C0E0F8016191719191
:100F9000819191918F010E94B207C33019F08CE2C8
:100FA0000E940906CF5FC43081F7CF911F910F9146
:100FB00008958F929F92AF92BF92CF92DF92EF925D
:100FC000FF920F931F93CF93DF9300D000D000D0F8
:100FD0001F92CDB7DEB76115710581059105A9F4A2
:100FE00080E32A960FB6F894DEBF0FBECDBFDF9127
:100FF000CF911F910F91FF90EF90DF90CF90BF9016
:10100000AF909F908F900C94090600E09E012F5F97
:101010003F4F79012AE0822E912CA12CB12C67013F
:10102000C00ED11CA50194010E94AC5BF601608347
:10103000B901CA010F5F611571058105910579F745
:101040000E0D1F2D111DE016F10699F42A960FB60C
:10105000F894DEBF0FBECDBFDF91CF911F910F91EE
:10106000FF90EF90DF90CF90BF90AF909F908F90C8
:101070000895F80182918F01805D0E940906E3CFF7
:10108000CF92DF92EF92FF9297FF0CC06B017C0131
:101090008DE20E94090666277727CB016C197D092E
:1010A0008E099F09FF90EF90DF90CF900C94D907A5
:1010B000CF93DF93843658F06AE00E947E5BC0E3F2
:1010C000C90F6AE00E947E5BD0E3D90F04C0C0E084
:1010D000D0E08A30B0F7805D0E940906DD2319F068
:1010E0008D2F0E940906CC2329F08C2FDF91CF9100
:1010F0000C940906DF91CF910895CF93DF93EC0113
:10110000FE0184912196811103C0DF91CF91089552
:101110000E94A205F5CFCF93DF93EC01FE018491ED
:101120002196811103C0DF91CF9108950E94090695
:10113000F5CF2F923F924F925F926F927F928F9254
:101140009F92AF92BF92CF92DF92EF92FF920F9356
:101150001F93CF93DF9300D000D01F921F92CDB783
:10116000DEB7FC01108121803284C384D4840585DC
:10117000E684F784FE24EF24FE24428053806480BA
:10118000758049825A826B827C8286809780A08497
:10119000B1848D829E82AF82B88681EF93E00E94F7
:1011A0008B08133009F46DC050F4113009F466C097
:1011B0008EED93E0123051F08DEB93E045C014308A
:1011C00009F462C083EC93E01530B1F70E948B08FC
:1011D000822D0E9458088BEB93E00E948B0842E01E
:1011E000C301B2010E94FA0689EB93E00E948B08CA
:1011F00042E0C501B4010E94FA0687EB93E00E9429
:101200008B08832D0E94580885EB93E00E948B0881
:101210008C2D0E94580883EB93E00E948B088D2D43
:101220000E94580881EB93E00E948B08802F0E9457
:1012300058088FEA93E00E948B08B70190E080E0A5
:101240000E94D9078DEA93E028960FB6F894DEBF86
:101250000FBECDBFDF91CF911F910F91FF90EF9007
:10126000DF90CF90BF90AF909F908F907F906F90C6
:101270005F904F903F902F900C948B0886EE93E0F8
:10128000A5CF86ED93E0A2CF8DEC93E09FCF8CECC1
:1012900092E00C948B08CF93C82F86EA93E00E94CB
:1012A0008B088C2F0E945808CF910C9447098823F3
:1012B00021F0823031F00C944B098DE295E00C94D2
:1012C0008B080895CF92DF92EF92FF92CF93DF9336
:1012D000D82F6A017B01C22F84E20E9409068D2F5C
:1012E0000E9458088DE30E9409064C2FC701B601E1
:1012F0000E94FA06DF91CF91FF90EF90DF90CF90A0
:101300000C944709EF92FF920F931F93CF93DF93B3
:1013100001EC1CE1C2EDD0E0EE24E394EC0E82E09F
:10132000F82EFC0EF801D130C9F0D230F1F0408136
:1013300051816281738123E08C2F0E946209DF5FFB
:10134000D33081F7CD5F0C5F1F4FC43E21F7DF9193
:10135000CF911F910F91FF90EF900895408D518D87
:10136000628D738D23E08E2DE8CF40A951A962A92B
:1013700073A923E08F2DE1CFCF93DF93D82FC62F12
:1013800084E20E9409068D2F0E9458088DE30E9476
:1013900009068C2F0E945808DF91CF910C944709C1
:1013A000EF92FF920F931F93CF93DF936091871C6F
:1013B00070E080E00E94BC0960918A1C70E081E0CE
:1013C0000E94BC096091881C70E082E00E94BC0908
:1013D0006091891C70E083E00E94BC0960919C1CB4
:1013E00062FB662760F970E084E00E94BC096091AE
:1013F0009C1C66FB662760F970E085E00E94BC09D2
:1014000080919C1C082E000C990B692F661F662783
:10141000661F70E086E00E94BC0960918B1C70E042
:101420008AE00E94BC0940918C1C50918D1C6091F7
:101430008E1C70918F1C23E08BE00E94620940910A
:10144000901C5091911C6091921C7091931C23E010
:101450008CE00E94620960919C1C617070E08DE0DC
:101460000E94BC0960919C1C65FB662760F970E0D6
:1014700084E10E94BC0960919C1C63FB662760F9B3
:1014800070E085E10E94BC0960919C1C62956170CE
:1014900070E086E10E94BC0960919D1C70E087E1CC
:1014A0000E94BC0940919E1C50919F1C6091A01C01
:1014B0007091A11C23E088E10E9462094091A21C66
:1014C0005091A31C6091A41C7091A51C23E089E19C
:1014D0000E9462096091A61C7091A71C8AE10E947B
:1014E000BC094091A81C5091A91C6091AA1C709144
:1014F000AB1C23E08BE10E9462094091941C509147
:10150000951C6091961C7091971C20E08EE10E94C2
:1015100062094091981C5091991C60919A1C70919D
:101520009B1C20E08FE10E94620960919C1C6695E3
:10153000617070E080E20E94BC094091B51C50913E
:10154000B61C6091B71C7091B81C23E081E20E9428
:1015500062094091B91C5091BA1C6091BB1C7091FA
:10156000BC1C23E082E20E9462094091BD1C5091A4
:10157000BE1C6091BF1C7091C01C23E083E20E94DE
:1015800062094091591D50915A1D60915B1D7091E7
:101590005C1D23E084E20E94620960915D1D70E0A1
:1015A00085E20E94BC0994E6F92E10E0C7E1DCE177
:1015B00000E0E02EEF0C123009F461C0133009F4A2
:1015C0006BC0113009F456C0488159816A817B8112
:1015D00023E08E2D0E9462090F5F2496073049F7A1
:1015E0008AE0F80E1F5FECE8FE12E0CF6091AC1CC1
:1015F00070E088EC0E94BC094091AD1C5091AE1C7B
:101600006091AF1C7091B01C23E089EC0E946209CC
:101610004091B11C5091B21C6091B31C7091B41CEC
:1016200023E08AEC0E94620901EC1CE1C2EDD0E0EB
:10163000EE24E394EC0E82E0F82EFC0EF801D1309B
:10164000A1F1D230C9F1408151816281738123E0DF
:101650008C2F0E946209DF5FD33081F7CD5F0C5F72
:101660001F4FC43E21F7DF91CF911F910F91FF9043
:10167000EF9008954C8D5D8D6E8D7F8DA9CF20E00C
:1016800030E041E655E468AD79AD8AAD9BAD0E948E
:101690001D58AB01BC019CCFFE01EC5AFF4F4081AD
:1016A000518162817381705893CF408D518D628DCD
:1016B000738D23E08E2DCDCF40A951A962A973A9C6
:1016C00023E08F2DC6CF8DE50E9409060C944709B3
:1016D00085EE92E00E948B088FED92E00E948B08CD
:1016E0000C94630BCF93DF93CDB7DEB76C970FB637
:1016F000F894DEBF0FBECDBF86ED92E00E948B084E
:1017000063ED7EE0CE0101960E943804CE01019681
:101710000E94C0078AE30E9409068091DD1A0E9498
:1017200058088CE20E9409066091B11C7091B21CAD
:101730008091B31C9091B41C0E94B2070E94630B6D
:101740006C960FB6F894DEBF0FBECDBFDF91CF9180
:101750000895CF93DF93EC018991811103C0DF914C
:10176000CF9108950E940906F7CFEFE6FBE1A3E8C9
:10177000B6E041915191619171914D935D936D935B
:101780007D938BE1EB38F807A1F70895BF92CF92D4
:10179000DF92EF92FF920F931F93CF93DF937C0121
:1017A000FC01FE9600811181D281C381FC0181A1DF
:1017B00080FF33C06091E01A70E090E080E00E940A
:1017C000C7582AE037ED43E25CE30E94755A9B015B
:1017D000AC01B8018D2F9C2F0E94755A8B01D82F18
:1017E000C92F20E030E040E85FE3B8018D2F9C2F47
:1017F0000E94355A181624F000E010E0D0E8CFE33C
:10180000B8018D2F9C2FDF91CF911F910F91FF90E9
:10181000EF90DF90CF90BF90089582FD17C0609148
:10182000DF1A70E090E080E00E94C7582AE037EDB0
:1018300043E25CE30E94755A9B01AC01B8018D2F15
:101840009C2F0E94755A8B01D82FC92FF701B2AC7B
:10185000C3ACD4ACF5AC98014D2F5C2F6B2D7C2D17
:101860008D2D9F2D0E94135887FFBBCF0B2D1C2D54
:10187000DD2DCF2DB6CF8091370F9091101998178D
:1018800039F026E4829FC0011124885C904F0895AE
:1018900090E080E008954F925F926F927F928F92D6
:1018A0009F92AF92BF92CF92DF92EF92FF920F93EF
:1018B0001F93CF93DF93CDB7DEB7C057D1090FB6D3
:1018C000F894DEBF0FBECDBF8CE1EFE6FBE1DE0199
:1018D000119601900D928A95E1F7BE016F5F7F4FDF
:1018E000CE014D960E943804BE016F5F7F4FCE013E
:1018F000C9960E9438048CE30E9409068091D81A88
:10190000883009F43EC108F022C1813009F442C197
:1019100008F432C1823009F440C1843009F437C17F
:1019200080918B1C282F2170E22E80FF4FC1809167
:10193000E41A882309F44AC186E693E00E948B08E2
:10194000CE014D960E94C0078FE593E00E948B0860
:10195000CE01C9960E94C0078AE593E00E948B08D9
:101960006091FA1A7091FB1A8091FC1A9091FD1AFD
:1019700042E00E94FA0686E593E00E948B0880917F
:10198000AC1C0E94580882E593E00E948B0860918D
:101990000E1B70910F1B8091101B9091111B0E94C8
:1019A000A4078DE493E00E948B0860E070E0CB0117
:1019B0000E94A40787E493E00E948B0860E070E037
:1019C000CB010E94A40781E493E00E948B0860E0B1
:1019D00070E0CB010E94A4078CE393E00E948B0887
:1019E0006091F51A70E090E080E00E94C5580E9476
:1019F000A40787E393E00E948B086091F61A70E0D9
:101A000090E080E00E94C5580E94A40783E393E021
:101A10000E948B086091ED1A70E090E080E00E94D7
:101A2000C5580E94A4078EE293E00E948B08609143
:101A3000EE1A70E090E080E00E94C5580E94A40772
:101A40008AE293E00E948B086091EF1A70E090E0C8
:101A500080E00E94C5580E94A40785E293E00E949E
:101A60008B086091F71A70E090E080E00E94C55802
:101A70000E94A40781E293E00E948B086091F01A13
:101A800070E090E080E00E94C5580E94A4078DE1BC
:101A900093E00E948B086091F11A70E090E080E082
:101AA0000E94C5580E94A40788E193E00E948B0819
:101AB0006091F21A70E090E080E00E94C5580E94A8
:101AC000A40784E193E00E948B086091F91A70E00A
:101AD00090E080E00E94C5580E94A4078FE093E048
:101AE0000E948B086091F41A70E090E080E00E9400
:101AF000C5580E94A4078AE093E00E948B08609179
:101B0000F31A70E090E080E00E94C5580E94A4079C
:101B100086E093E00E948B0860910A1B70910B1B7A
:101B200080910C1B90910D1B40E00E94FA0682E010
:101B300093E00E948B088091091B803109F498C0C2
:101B4000803209F425C1811196C085E392C08032AC
:101B5000D9F050F4803109F0E3CE8091DA1A87FD94
:101B600013C083E993E00AC08034D1F0803809F0D3
:101B7000D7CE8DE693E002C080EA93E00E948B0806
:101B8000CFCE89E993E0FACF8CE893E0F7CF85E8F0
:101B900093E0F4CF8FE793E0F1CF89E793E0EECFC6
:101BA00083E793E00E948B088091DA1A83FF04C0D8
:101BB00083E30E940906B4CE82FF06C085FF02C0FF
:101BC00081E3F7CF80E3F5CF82E3F3CF40906B1B47
:101BD00050906C1B60906D1B70906E1B83E3A82E61
:101BE0008BE1B82E6E0185E5C80ED11C8E01075C15
:101BF0001F4FF12C4601F5016191719181919191F5
:101C00005F01208D318D428D538D0E941E57F6014C
:101C100061937193819391936F01F2E0FF1225C05C
:101C2000A30192010E941E57F40160877187828789
:101C30009387E11016C0F6013497208131814281EB
:101C40005381F80160817181828193810E941D57C7
:101C5000F8016083718382839383F6E0FF1609F4B1
:101C60006BCEF3940C5F1F4FC6CFEE2021F3F5CF60
:101C700083E30E9409068EEF92E00E948B08809118
:101C8000061B8A5C0E94580880918B1C81FF1EC035
:101C900089EF92E00E948B08909110198091370F84
:101CA000981708F477C08D5D891B0E9458088CE254
:101CB0000E9409068091C1089091C208981708F403
:101CC0006BC0981B892F80950E9458080E943B0C7E
:101CD000009791F0FC01C2A0D3A0E4A0F5A0C1142C
:101CE000D104E104F10441F084EF92E00E948B08FA
:101CF000C701B6010E9440088FEE92E00E948B0857
:101D00008091D81A8C7709F44AC06091AF1A70910B
:101D1000B01A8091B11A9091B21A0E94A4078CE275
:101D20000E9409066091E51A7091E61A8091E71AFF
:101D30009091E81A40E00E94FA068091E41A882304
:101D400091F181508093E41A8091E31A8823E1F1A4
:101D500081508093E31A8EE30E9409060E9447098E
:101D6000C059DF4F0FB6F894DEBF0FBECDBFDF9175
:101D7000CF911F910F91FF90EF90DF90CF90BF9088
:101D8000AF909F908F907F906F905F904F9008954D
:101D900084E36FCF815088CF8150891B95CF60E05D
:101DA00070E0CB01BACF8091D81A8C7759F08DE1D1
:101DB0008093E41A8091E31A8111C6CF81E0809369
:101DC000E31AC2CF89E0F4CF8091D81A8C7711F052
:101DD00083E1BFCF89E0BDCF0E943B0C892B19F076
:101DE00082E00C94BD0308952F923F924F925F9230
:101DF0006F927F928F929F92AF92BF92CF92DF921B
:101E0000EF92FF920F931F93CF93DF9300D01F9217
:101E1000CDB7DEB700911019002309F486C00983FD
:101E20003981315039831091360F131709F466C088
:101E3000C32ED12CE6E43E9FC00111249C01285CF6
:101E4000304F7901F90172A483A494A4A5A466A5D6
:101E500077A580A991A99B01AC010E941E57F701AB
:101E600022A933A944A955A90E94755AB62EE72E76
:101E7000F82E9B83262F372F482F592F672D782D2B
:101E8000892D9A2D0E94135887FF03C0B72C740127
:101E9000AB8286E48C9DF0018D9DF00D1124E85CF1
:101EA000F04F8B2D9E2DAF2DBB8186A397A3A0A7AE
:101EB000B1A7F9818F2FF11101C084E2FF24FA94B8
:101EC000F80E3090370F1F1133C0131102C00E945B
:101ED000AA04E6E41E9FC0011124885C904F9A83F7
:101EE000898333243394310EF4E23F1201C0312C44
:101EF00086E4282E031185C01093360F0F900F90A3
:101F00000F900F90DF91CF911F910F91FF90EF9065
:101F1000DF90CF90BF90AF909F908F907F906F9009
:101F20005F904F903F902F90089524E2298378CFBF
:101F3000298186E4289F90011124285C304F3C833E
:101F40002B8326E4E22E8F2C912CFE9CC0011124C1
:101F5000FC01E85CF04FFA83E983F11002C094E2DF
:101F6000F92EFA94F31002C00E94AA04E89CC00162
:101F7000E99C900D11249C01285C304F6901F90106
:101F800042A453A464A475A4A301920166A177A1FD
:101F900080A591A50E941358882339F1F60166A502
:101FA00077A580A991A99B01AC010E941E57F6015B
:101FB00022A933A944A955A90E94755AEB81FC8135
:101FC00026A137A140A551A50E941E574B015C01D7
:101FD000AC019B01C301B2010E94355AF6011816EB
:101FE0005CF486A297A2A0A6B1A629813A813C837F
:101FF0002B831F11A8CF6DCF46A257A260A671A652
:10200000F4CFC32CD12C329CC00111249C01285C3C
:10201000304F7901E981FA8146A057A060A471A4EC
:10202000F90186A097A0A0A4B1A4A5019401C301C1
:10203000B2010E94135887FF26C0E981FA8166A584
:1020400077A580A991A99B01AC010E941E57E98147
:10205000FA8122A933A944A955A90E94755AA3015E
:1020600092010E941E572B013C01AC019B01C5014E
:10207000B4010E94355A181634F4F70146A257A24B
:1020800060A671A6132D2C9CF0012D9CF00D11243F
:10209000E85CF04F22A533A544A555A566A177A11C
:1020A00080A591A50E941358811101C0132D33946E
:1020B000F4E23F1201C0312CFA82E9821BCF6F9209
:1020C0007F928F929F92AF92BF92CF92DF92EF92C8
:1020D000FF920F931F93CF93DF93EB018C015B0172
:1020E0008CE1A80EB11C89E9682E96E7792E26E9C5
:1020F000822E3EE7932EC990D990E990F99020E086
:1021000030E0A901C701B6010E9413588823B9F035
:10211000A7019601F80160817181828193810E94FB
:102120001D586B017C01E894F7F89301A401C701E5
:10213000B6010E94355A181614F0360147010C5F9B
:102140001F4FCA15DB05B9F6B301C401DF91CF916A
:102150001F910F91FF90EF90DF90CF90BF90AF90C5
:102160009F908F907F906F9008954F925F926F92A3
:102170007F92AF92BF92CF92DF92EF92FF920F9336
:102180001F93CF93DF936C01FB015A01A081A80F2D
:10219000B92FB11D8C91ED018D3249F52296119622
:1021A0008C9101E0512C612C10E020E030E0A9017D
:1021B0007E0190ED792E780E89E0871528F16394E1
:1021C000A8E0A615E8F051101150A5E0B0E00E947B
:1021D000F55B9B01AC01220F331F441F551F270DD8
:1021E000311D411D511D2196D7018C91E1CF8B32BC
:1021F00019F0219600E0D6CF229611968C91FACF55
:102200005110F1CF1F5FEFCFBEEF7B1205C0511011
:1022100003C055245394E7CF662009F17F01CA011A
:10222000B9010E94C5582B013C0120E030E0A90112
:102230000E94135881112EC0002309F448C077FA78
:10224000709477F87094F5014082518262827382B3
:10225000CC19DD09C150F701C08366246394862D33
:10226000DF91CF911F910F91FF90EF90DF90CF9072
:10227000BF90AF907F906F905F904F9008952AE04D
:1022800037ED43E25CE3C301B2010E94755A2B01B2
:102290003C011E5F1F3F9CF31F3F59F42DEC3CECAB
:1022A0004CEC5DE3C301B2010E94755A2B013C0165
:1022B000C3CF112309F220E030E040E251E4C30132
:1022C000B2010E94755A2B013C011150F2CFD50189
:1022D0004D925D926D927C921397BACF93B180919B
:1022E0009C1C86FF17C09E77B9F094FB882780F965
:1022F00095FD8260292F207409F08460292F2470B5
:1023000092FD886091FD80612111806293FF05C07C
:10231000806408959095E7CF80E00895EBE6F0E0C3
:10232000808181788083E8E6F0E080818E7F808301
:10233000089584B1817884B9809107018B7F80935F
:1023400007018091080184608093080185B18E6740
:1023500085B980919C1C83FF16C080916B008E67AD
:1023600080936B008091680081608093680084B7DF
:10237000877F84BF8091600088618093600081E0E6
:102380008093600008950E948E11F1CF27E030E025
:1023900090E0AC01022E02C0559547950A94E2F7F1
:1023A000A09A40FF11C000000000000000000000E3
:1023B00000000000000000000000A09800000000E5
:1023C0002150310930F7089500000000A098000066
:1023D00000000000000000000000000000000000FD
:1023E0000000EECF809181048823F1F180917A0082
:1023F000806480937A0080917A0086FDFCCF909172
:10240000780080917900892798278927009721F003
:10241000893E23E092075CF010926D0410926E04E6
:1024200010926F0410927004109277040895092E90
:10243000000CAA0BBB0B40917C0450917D04609171
:102440007E0470917F04840F951FA61FB71F809391
:102450007C0490937D04A0937E04B0937F048091CC
:1024600080048F5F8093800408956FE67BE187E1AD
:102470009BE10C943804F894F999FECF92BD81BD8C
:1024800081E08FBB20B5862F8227082E000C990B88
:1024900050E086239523892B49F084E16F3F11F0AA
:1024A00060BD84E08FBBF99A789408952617E1F314
:1024B00060BD84E2F7CF9F92AF92BF92CF92DF923E
:1024C000EF92FF920F931F93CF93DF935C018A01EA
:1024D0007B01E40EF51EEB01912C6C01C61AD70AA4
:1024E000CE018C0D9D1D21E0911007C0292D990C66
:1024F000330B232F221F2227221F6991962E920E23
:102500000E943B12CE15DF0559F7692DC501800FDA
:10251000911FDF91CF911F910F91FF90EF90DF906E
:10252000CF90BF90AF909F900C943B126AE090E0E8
:1025300080E00E943B1247E451E067E17CE181E0EA
:1025400090E00C945B12F999FECF92BD81BD81E0C1
:102550008FBB80B508959F92AF92BF92CF92DF92CA
:10256000EF92FF920F931F93CF93DF935B018A014A
:102570007C01E40EF51EEC01912C6B01C81AD90AFE
:10258000C6018C0F9D1F0E94A31221E0911007C06D
:10259000292D990C330B232F221F2227221F982E1F
:1025A000920E8993CE15DF0559F7C501800F911F53
:1025B0000E94A31221E030E0891511F030E020E004
:1025C000C901DF91CF911F910F91FF90EF90DF90A4
:1025D000CF90BF90AF909F900895E9ECF0E080819C
:1025E0008F7E80838081806180838091CC0E8093F8
:1025F000CB0EEBECFDE080E091E0DF019C011D9251
:1026000021503040E1F70895E3E8F6E08CE3DF0184
:102610001D928A95E9F71092370F1092101981E0F8
:10262000809382061092360F089580E00E949E04E7
:1026300080E00E94920480E00E948604A59880E0D9
:102640000E947A04E2E0F1E080818F7D80838081C6
:102650008F7B808310988B985F988081877F8083A1
:1026600008954F925F926F927F92AF92BF92CF92F6
:10267000DF92EF92FF920F931F93CF93DF93EC01C2
:102680005C012CE1A20EB11C8C01C12CD12C760175
:10269000F80141905190619071908F0120E030E0FD
:1026A000A901C301B2010E941358882371F0A3014C
:1026B0009201C301B2010E94755A9B01AC01C7018E
:1026C000B6010E941E576B017C010A151B0501F71C
:1026D000C701B6010E94145B6B017C01AC019B0138
:1026E00060E070E080E89FE30E941D582B013C01F0
:1026F00069917991899199915E01F4E0AF1AB108DD
:10270000A30192010E94755AF5016083718382834F
:102710009383C017D10761F7C701B601DF91CF914D
:102720001F910F91FF90EF90DF90CF90BF90AF90EF
:102730007F906F905F904F9008954F925F926F924D
:102740007F928F929F92AF92BF92CF92DF92EF9241
:10275000FF926B017C018090981C9090991CA09036
:102760009A1CB0909B1C4090941C5090951C6090BB
:10277000961C7090971CA3019201C501B4010E94A0
:10278000355A87FF1BC06091E11A70E090E080E04D
:102790000E94C7582AE037ED43E25CE30E94755A75
:1027A000A70196010E94755A6B017C01AC019B0147
:1027B000C301B2010E9413581816BCF04092E51AEA
:1027C0005092E61A6092E71A7092E81A80E094E05C
:1027D000FF90EF90DF90CF90BF90AF909F908F9041
:1027E0007F906F905F904F900895A7019601C5016B
:1027F000B4010E94355A87FD1FC020E030E0A901D6
:10280000C701B6010E94135881110BC01092E51A3E
:102810001092E61A1092E71A1092E81A90E080E0FF
:10282000D7CF8092E51A9092E61AA092E71AB0925A
:10283000E81A81E090E0CCCFC092E51AD092E61A77
:10284000E092E71AF092E81AA5019401C701B601D7
:102850000E941D572091CE0E3091CF0E4091D00E88
:102860005091D10E0E94755A0E94025920E030E02A
:1028700040E85FE30E941E570E949658CB01A8CF04
:102880002F923F924F925F926F927F928F929F9280
:10289000AF92BF92CF92DF92EF92FF920F931F936E
:1028A000CF93DF93CDB7DEB7C054D1090FB6F894FC
:1028B000DEBF0FBECDBF8091DC1A80FD75C2909146
:1028C000111980911219981709F46EC28091C91AD2
:1028D0009091CA1A892B09F07EC01091DC1A12FF60
:1028E0007DC28091101926E4829FC0011124885C6A
:1028F000904F9093CA1A8093C91A4091C91A509167
:10290000CA1A5E834D83452B09F44EC20091991A71
:1029100000FF67C21092991A1092AB1A1092AC1A6B
:102920001092AD1A1092AE1AAD81BE819E962D9175
:102930003D914D915C91D19729833A834B835C8380
:1029400060E070E080E09FE30E941D5869877A870D
:102950008B879C87ED81FE8142A853A864A875A847
:1029600086A097A0A0A4B1A411FF29C3F2E0F09320
:10297000AA1AA50194010E94755A9B01AC01C301DA
:10298000B2010E941D576B017C0120E030E0A901DB
:102990000E94135887FF02C329813A814B815C81D1
:1029A000CA01B9010E941E57A30192010E94755AE3
:1029B0009B01AC01C501B4010E941D570E94145B2C
:1029C0006093B71A7093B81A8093B91A9093BA1A91
:1029D00018601093DC1AE0916319F8E0EF9FD001C2
:1029E0001124BA87A987FD01ED5EF64E8091981AF1
:1029F00084834090C91A5090CA1AD201D296BC91D1
:102A0000BEA3F201F3A9FFA3D201D496BC91B8A74B
:102A1000F201F5A9F9A72091A61A3091A71A4091C1
:102A2000A81A5091A91A6EA17FA18B2F9F2F0E94E7
:102A30001D576AAB7BAB8CAB9DAB20E030E0A901AE
:102A40000E94135887FF04C01AAA1BAA1CAA1DAA19
:102A50002091BB1A2E8B3091BC1A3F8B4091BD1A2E
:102A6000488F5091BE1A598F8091B31A8E8F9091D2
:102A7000B41A9F8FA091B51AA8A3B091B61AB9A3A2
:102A8000E091BF1AEAA7F091C01AFBA72091C11AE2
:102A90002CA73091C21A3DA74091AF1A4FAF509169
:102AA000B01A21965FAF21976090B11A7090B21A58
:102AB0008091AA1A89839091AB1A9EA7A091AC1A13
:102AC000AFA7B091AD1AB8ABE091AE1AE9ABF091F7
:102AD000B71AFBAF2091B81A2CAF3091B91A3DAF9D
:102AE0004091BA1A4EAF2AA53BA54CA55DA56E89AB
:102AF0007F89888D998D0E9413588111EFC352E010
:102B00005EAB9EA19D83AFA1AD87B8A5B98BE9A5AA
:102B1000ED8B8EE3C82E83ECD82E8EE2E82E89E36F
:102B2000F82E1A8E1B8E1C8E1D8EA70196012AA3CD
:102B30003BA34CA35DA33981313009F449C4D201D0
:102B4000313008F4D3C3333009F075C49E962D910B
:102B50003D914D915C91D197C701B6010E94755A84
:102B60004B015C0120E030E040E05FE30E94755AD9
:102B70009B01AC016FAD21967FAD2197C3010E94EF
:102B80001D57A70196010E94755A6FAB78AF89AFA8
:102B90009AAF9B01AC016D817D8589899D890E94D9
:102BA0001D571B018C012E893F89488D598D0E942C
:102BB000135887FD0CC020E030E0A9016FA978AD63
:102BC00089AD9AAD0E94135818160CF472C42E8960
:102BD0003F89488D598D6EA17FA188A599A50E9436
:102BE0001D579B01AC010E941E576B017C012E8D6D
:102BF0003F8D48A159A16FAD21967FAD2197C301AB
:102C00000E941E579B01AC01C701B6010E941D58CE
:102C10006B017C01BE8DBFAFEF8D2196EFAF219789
:102C200068A079A02E883F88088D198DF1E0F9837E
:102C3000A70196016A8D7B8D8C8D9D8D0E941E57FC
:102C40006A8F7B8F8C8F9D8F2AA13BA14CA15DA1A8
:102C50000E94135887FF67C42A8D3B8D4C8D5D8D74
:102C60006AA17BA18CA19DA10E941D576B017C01D3
:102C70009101A8016EA57FA588A999A90E94135862
:102C800087FD2FC38FAD21969FAD2197D3018093F0
:102C9000AF1A9093B01AA093B11AB093B21AF981F7
:102CA000F093AA1AE0916419F091651981A181113C
:102CB00004C09091DC1A93FF33C0D20191969C918D
:102CC000907309F45EC4F201EE5BFF4FC080D180C7
:102CD000E280F3808823B9F02091C31A3091C41A9E
:102CE0004091C51A5091C61A6FAD21967FAD2197BC
:102CF000C3010E94755A9B01AC01C701B6010E9435
:102D0000755A6B017C01C701B6010E949D13909317
:102D1000C81A8093C71A8091DC1A877F8093DC1AC7
:102D20008091C71A9091C81AE985FA85ED5EF64E32
:102D3000FE83ED83978386832091A21A3091A31A94
:102D40004091A41A5091A51AB101C8010E94755A68
:102D50002B013C010E94FC576B017C0160919E1A83
:102D600070919F1A8091A01A9091A11A0E94FC570D
:102D70004B015C01A70196010E941D570E949658C5
:102D800069837A838B839C83E981FA81AD81BE81DB
:102D9000ED93FC93EF2B09F001C48091DC1A81FFC5
:102DA000FDC381608093DC1AC05CDF4F0FB6F894DE
:102DB000DEBF0FBECDBFDF91CF911F910F91FF906E
:102DC000EF90DF90CF90BF90AF909F908F907F90CB
:102DD0006F905F904F903F902F9008950E943B0C12
:102DE00088CD8091981A8F5F893009F480E08093B4
:102DF000981A282F30E052E2859FC0011124DC018F
:102E0000AA59B64E7D01B0936519A0936419ED815E
:102E1000FE8180A190968C9390E080E04191519149
:102E200061917191D701A80FB91F689412F8440FEE
:102E3000551F661F771F1694D1F74D935D936D93C1
:102E40007C93139704968C31910541F7AD81BE8137
:102E50005C966D917D918D919C915F97B2E2B29F4E
:102E6000A001B39F500D1124FA01EA59F64E4B010F
:102E70005C0123E0880C991CAA1CBB1C2A95D1F785
:102E8000848E958EA68EB78E0E94C55860939E1A2A
:102E900070939F1A8093A01A9093A11AED81FE81DE
:102EA00022A933A944A955A90E941D589B01AC0130
:102EB0002093A21A3093A31A4093A41A5093A51AF0
:102EC00060E070E080EA9FE30E941D586093A61ABC
:102ED0007093A71A8093A81A9093A91A10929A1A1D
:102EE00010929B1A10929C1A10929D1A11FD02C00A
:102EF00003FF43C06091B71A7091B81A8091B91A54
:102F00009091BA1A6093AF1A7093B01A8093B11A65
:102F10009093B21A9B01AC010E94755AAD81BE819B
:102F200096966D937D938D939C939997077F0093CD
:102F3000991AD70191961C9280919C1C81FFECCC30
:102F4000ED81FE8181A185FFE7CCFE962081318154
:102F50004281538160E070E080E89FE30E941D5849
:102F60006093C31A7093C41A8093C51A9093C61ABB
:102F7000E1E0D7019196EC93CFCCED81FE8166A183
:102F800077A180A591A50E94145B6093AF1A7093FE
:102F9000B01A8093B11A9093B21ACBCFC092AB1AE9
:102FA000D092AC1AE092AD1AF092AE1A1092B71A03
:102FB0001092B81A1092B91A1092BA1A09CD10923A
:102FC000AA1A4092BB1A5092BC1A6092BD1A709213
:102FD000BE1A12FF6AC01092B71A1092B81A109255
:102FE000B91A1092BA1AC12CD12C76018D819E810A
:102FF0000E94C60B698B7A8B8B8B9C8B9B01AC01DF
:103000000E94755A6D837E838F839887A5019401F2
:103010000E94135887FF93C02D813E814F815885B0
:10302000C501B4010E941D5729853A854B855C85F1
:103030000E94755A9B01AC01C301B2010E941D5749
:103040006093BB1A7093BC1A8093BD1A9093BE1AFA
:1030500020E030E0A9010E94135818160CF449C072
:1030600032E03093AA1A29813A814B815C81CA01EE
:10307000B9010E941E57A30192010E94755A9B013B
:10308000AC01C501B4010E941D570E94145B6093FE
:10309000B71A7093B81A8093B91A9093BA1A80919C
:1030A000991A88608093991A93CCE091370FEF5F5B
:1030B000E43209F4E0E080911019C12CD12C7601A2
:1030C0008E1751F026E42E9FF0011124E85CF04F9A
:1030D000C6A0D7A0E0A4F1A4C701B6010E94145B6A
:1030E0006093B71A7093B81A8093B91A9093BA1A6A
:1030F0007DCFA70196016D817E818F8198850E9489
:103100001D5729853A854B855C850E94755A6093C9
:10311000BF1A7093C01A8093C11A9093C21A8989FA
:103120009A89AB89BC898093B31A9093B41AA093FF
:10313000B51AB093B61A93E09093AA1A49CCA70196
:103140009601C501B4010E941D5729853A854B851A
:103150005C850E94755AA30192010E941E5720E0CF
:1031600030E040E05FE30E94755A6D877E878F876D
:10317000988B20E030E0A9010E94355A18160CF017
:1031800094C0A30192016D857E858F8598890E94E8
:10319000135887FF88C0A70196016D817E818F81BA
:1031A00098850E941D5729853A854B855C850E942C
:1031B000755A9B01AC012093BF1A3093C01A4093FB
:1031C000C11A5093C21A6D857E858F8598890E9499
:1031D000355A1816BCF529893A894B895C892093A0
:1031E000B31A3093B41A4093B51A5093B61AA50186
:1031F00094016D817E818F8198850E941358811181
:1032000004C031E03093AA1AE3CBA50194016D818B
:103210007E818F8198850E941D5729853A854B852F
:103220005C850E94755A9B01AC01C301B2010E94EA
:103230001D576093BB1A7093BC1A8093BD1A90936C
:10324000BE1AC6CB8D859E85AF85B8898093BB1A83
:103250009093BC1AA093BD1AB093BE1A8093BF1A64
:103260009093C01AA093C11AB093C21A29813A81CF
:103270004B815C81CA01B9010E941E572D853E8594
:103280004F8558890E94755AA70196010E941E57C2
:103290000E94145B6093B31A7093B41A8093B51AAA
:1032A0009093B61A95CB92E047CF8091B71A909140
:1032B000B81AA091B91AB091BA1A1092BB1A10920A
:1032C000BC1A1092BD1A1092BE1A8093B31A909332
:1032D000B41AA093B51AB093B61A7ACB81E08EAB2C
:1032E00010CC2D823D86098B1D8B25CC9E962D9171
:1032F0003D914D915C91D197C701B6010E94755ADD
:103300004B015C0120E030E040E05FE30E94755A31
:103310002FAD21963FAD2197A3010E941E57A70113
:1033200096010E94755A9B01AC016D817D8589894A
:103330009D890E941D571B018C019B01AC016E8968
:103340007F89888D998D0E94355A181694F52E899B
:103350003F89488D598D6EA17FA188A599A50E94AE
:103360001D579B01AC010E941E576B017C012E8DE5
:103370003F8D48A159A16FAD21967FAD2197C30123
:103380000E941E579B01AC01C701B6010E941D5847
:103390006B017C01BEA9B983EE8DEFAFFF8D219645
:1033A000FFAF219768A079A02E883F88088D198DDE
:1033B0003FCCA50194016FAD21967FAD2197C3014C
:1033C0000E941E576FAF21967FAF21973C0130CCF2
:1033D0002E8D3F8D48A159A1C701B6010E94755A93
:1033E0009B01AC016D817D8589899D890E941D5756
:1033F0001B018C012AA53BA54CA55DA50E94135875
:1034000087FF16CC2AA53BA54CA55DA56D817D85C2
:1034100089899D890E941D572E8D3F8D48A159A1F4
:103420000E941D586B017C012AA43BA40CA51DA57C
:1034300022E02983FDCB9E962D913D914D915C918B
:10344000D197C701B6010E94755A4B015C01AC01CE
:103450009B016FAD21967FAD2197C3010E94355A24
:1034600018168CF520E030E040E05FE3C501B401C0
:103470000E94755A9B01AC016FAD21967FAD2197DB
:10348000C3010E941D57A70196010E94755A9B0116
:10349000AC016D817D8589899D890E941D571B0125
:1034A0008C012EA53FA548A959A90E94355A181686
:1034B00054F4A50194016FAD21967FAD2197C3010E
:1034C0000E941D577FCF2EA53FA548A959A96D8100
:1034D0007D8589899D890E941D579B01AC010E94B1
:1034E0001E576B017C012BAD3CAD4DAD5EAD6FAD9C
:1034F00021967FAD2197C3010E941E579B01AC010D
:10350000C701B6010E941D586B017C01BBADBFAF66
:10351000ECAD2196EFAF21976DAC7EAC2EA43FA40D
:1035200008A919A985CB2AA93BA94CA95DA9B10174
:10353000C8010E94355A18169CF42EE333EC4EE273
:1035400059E36AA17BA18CA19DA10E941E576AA389
:103550007BA38CA39DA32A8D3B8D4C8D5D8D84CB4D
:103560008FAD21969FAD2197D3018093AF1A909391
:10357000B01AA093B11AB093B21A29812093AA1A53
:1035800091CB1092E51A1092E61A1092E71A109257
:10359000E81A1092C81A1092C71ABDCB20919A1A35
:1035A00030919B1A40919C1A50919D1A6A8D7B8D87
:1035B0008C8D9D8D0E941E576D837E838F8398878F
:1035C000A3019201C501B4010E941D579B01AC01EA
:1035D0006D817E818F8198850E941D584B015C0111
:1035E00020EC31EE44E65EE40E94755A0E94FC57DE
:1035F0000E949658E985FA85ED5EF64E603D37E00B
:1036000073078105910508F054C01582E985FA8594
:10361000ED5EF64E73836283809112198093631975
:103620008F5F8A3009F47BC080931219E091C91A28
:10363000F091CA1AC101D80182AB93ABA4ABB5AB70
:10364000C0929E1AD0929F1AE092A01AF092A11AEC
:10365000A3019201C701B6010E941D57A501940163
:103660000E94755A60939A1A70939B1A80939C1AC1
:1036700090939D1A2091AB1A3091AC1A4091AD1ADB
:103680005091AE1AB101C8010E941358811117C997
:103690009091DC1A998320E030E0A901B101C801C2
:1036A0000E94355A1816F4F5A981A160A093DC1A7E
:1036B0007BCB603A4FE074078105910520F551E01E
:1036C0005583E985FA85ED5EF64E2581022E04C00C
:1036D00096958795779567950A94D2F749815A818F
:1036E00002C0440F551F2A95E2F7518340836115AC
:1036F000710551E08507910508F488CF8FEF9FEFA2
:103700009383828389CF6034AFE17A078105910585
:1037100018F4B2E0B583D5CF23E02583D2CF109241
:10372000121984CFB981B2FF04C0B160B093DC1A22
:103730003BCB1092CA1A1092C91A9091370F809100
:103740001019891709F4BBC881E0890F843209F484
:1037500080E02091360F921302C08093360F809341
:10376000370FADC8019708F40895EFE9FFE03197EE
:10377000F1F700C00000F6CF80916F008D7F80933D
:103780006F0080918100887F81608093810010921A
:10379000F20E80918A1C9091D81A8F3F49F42091A3
:1037A000CF1A211105C0903829F490E00C94B21B77
:1037B0009430D9F70895CF93DF930E94BC1BE8E9BA
:1037C000FAE181E3DF011D928A95E9F7C3EFDEE0BC
:1037D00083E4FE0111928A95E9F71092CA1A1092B9
:1037E000C91A109211191092631981E0809312196D
:1037F0001092F20E0E9428058091F10E8F8F82B1F7
:1038000081709091F00E892B82B988B1817090916E
:10381000F10E892B88B9DF91CF910895EF92FF9235
:103820000F931F93CF93DF93EC01FC0127E08FEF01
:103830009FEF2150D9F48C017E0186E0E80EF11C47
:1038400089910E94BB05EC16FD06D1F7802F0E94DE
:10385000BB05812F0E94BB0582E390E0DF91CF91F1
:103860001F910F91FF90EF900C94B21B3191832721
:1038700048E050E0BC016170772796958795672BEB
:1038800021F031E0832730EA93274150510991F725
:10389000D0CFCF93DF9300D000D0CDB7DEB78091EB
:1038A0009C1C81FF0EC08091A0008F7D8093A000A2
:1038B00026960FB6F894DEBF0FBECDBFDF91CF9135
:1038C000089586E0E9E0F2E0DE01119601900D92A4
:1038D0008A95E1F7CE0101960E940E1CE9CFCF92A6
:1038E000DF92EF92FF92CF93DF9300D000D0CDB75D
:1038F000DEB79091D91A911110C06A017B01811134
:1039000019C01092E51A1092E61A1092E71A109256
:10391000E81A0E94491C1092E31A26960FB6F894F2
:10392000DEBF0FBECDBFDF91CF91FF90EF90DF9054
:10393000CF90089590919C1C9270803181F486E024
:10394000EFE0F2E0992381F080919C1C81FF17C089
:10395000C701B6010E949D130E94E004DCCF9111C3
:10396000F3CF86E0E5E1F2E0DE01119601900D92E1
:103970008A95E1F7CE0101960E940E1CE5CF20E06A
:1039800030E040EC50E4C701B6010E941D580E948F
:10399000965881E0898386E08A8380EF8B8388E074
:1039A0008C837D836E83CE0101960E940E1CB3CF63
:1039B000E1E0F1E080818061808383E08093A0007A
:1039C0008AE18093A10080E094E09093A900809325
:1039D000A8002091981C3091991C40919A1C5091FC
:1039E0009B1C6091941C7091951C8091961C9091E9
:1039F000971C0E941D579B01AC0160E070EC8FE7A3
:103A000094E40E941D586093CE0E7093CF0E809365
:103A1000D00E9093D10E0C94491C2F923F924F924E
:103A20005F926F927F928F929F92AF92BF92CF924E
:103A3000DF92EF92FF920F931F93CF93DF93CDB757
:103A4000DEB72F970FB6F894DEBF0FBECDBF082F9D
:103A50004B016DB67EB68CE0EBE1F2E0DE01119633
:103A600001900D928A95E1F70E94ED1210E0180185
:103A700084E0220C331C8A95E1F723E02D872E0188
:103A80003DE0430E511CF101E95FF24EFF87EE87E6
:103A90008101085F124E9E012F5F3F4F7901F701B0
:103AA00081917F010E94D405E414F504C1F7F12C43
:103AB000E12CF101EE0DFF1DE750F34E80810E94D5
:103AC000D405FFEFEF1AFF0A2EE0E216F10489F7A2
:103AD000EE85FF85E080F8018081FE2CE82EE80C61
:103AE000F91C8F2D0E94D405FE2DFF70EF2E8F2F15
:103AF0000E94D40585E50E94D405EE85FF85F082FD
:103B0000F801E08284E690E00E94B21B0E949105D9
:103B10008A3A19F50E949105CDB6DEB6A82EB12CD1
:103B20002DB73EB72A193B090FB6F8943EBF0FBE1A
:103B30002DBFEDB7FEB731967F01682FCF010E94F0
:103B40007B05EA0CFB1CF70131978081853559F024
:103B50000FB6F894DEBE0FBECDBEFD85F150FD87D9
:103B6000F11199CF05C00FB6F894DEBE0FBECDBEE1
:103B70000FB6F8947EBE0FBE6DBE2F960FB6F894AA
:103B8000DEBF0FBECDBFDF91CF911F910F91FF9090
:103B9000EF90DF90CF90BF90AF909F908F907F90ED
:103BA0006F905F904F903F902F9008955F926F922B
:103BB0007F928F929F92AF92BF92CF92DF92EF92BD
:103BC000FF920F931F93CF93DF9300D000D000D0CC
:103BD0001F921F92CDB7DEB74C016DB67EB68BE05B
:103BE000E7E2F2E0DE01119601900D928A95E1F78D
:103BF0000E94ED128FE0582E5E012CE0A20EB11C47
:103C00008E010F5F1F4FF80181918F010E94D40533
:103C1000A016B106C1F784E690E00E94B21B0E9494
:103C200091058A3A09F04BC00E949105CDB6DEB6E7
:103C3000082F10E02DB73EB7201B310B0FB6F894BC
:103C40003EBF0FBE2DBFEDB7FEB731967F01682F87
:103C5000CF010E947B050E0D1F1DF8013197808159
:103C6000853541F5F701369680E1D40101900D923A
:103C70008A95E1F70FB6F894DEBE0FBECDBE0FB643
:103C8000F8947EBE0FBE6DBE2B960FB6F894DEBFC5
:103C90000FBECDBFDF91CF911F910F91FF90EF909D
:103CA000DF90CF90BF90AF909F908F907F906F905C
:103CB0005F9008950FB6F894DEBE0FBECDBE5A9445
:103CC00051109ECFDCCFCF93C82F8FEC92E00E9493
:103CD0008B088C2F0E9458080E94470984EF91E0BE
:103CE000CF910C94B21B4F925F926F927F928F9202
:103CF0009F92AF92BF92CF92DF92EF92FF920F937B
:103D00001F93CF93DF93C091CF1ACC23F9F081E0BA
:103D10008093D81A8C2F0E94631EC150C23088F441
:103D200087E295E00E948B088AE195E00E948B086B
:103D30000E94630B80E10E94B3038091CE1A84FF3E
:103D4000FCCF8FB7F8941092CF1A8FBFC091CE1AC4
:103D5000CC2309F4DBC0C4FF14C081E08093D91ADE
:103D6000DF91CF911F910F91FF90EF90DF90CF9057
:103D7000BF90AF909F908F907F906F905F904F908B
:103D80000895C0FF05C00E944B0C81E00E94B30360
:103D90008C2F887E09F46AC08091D81A982F93706E
:103DA00009F053C08872A9F08091DA1A807C89F4F6
:103DB0000E94AA0482E08093DC1A8091D81A803293
:103DC00041F480E2C7FD0CC08091DA1A80688093CC
:103DD000DA1A8091D81A811103C091E09093DA1A0F
:103DE000C6FF07C085FD05C09091DA1A90649093D4
:103DF000DA1AC3FF05C0807E19F480E18093D81AD7
:103E0000C5FF23C087E295E00E948B088EED94E009
:103E10000E948B080E94630B8091DA1A87FD10C004
:103E20009091D81A903451F483FF04C0837E82604D
:103E30008093DA1A80E48093D81A02C09038D1F7C0
:103E40008091DA1A80628093DA1AC7FF0CC08091E1
:103E5000D81A813029F48091DA1A85608093DA1AB1
:103E600080E88093D81A88EE0E94B303C1FF28C06F
:103E70008C2F887611F58091D81A803441F4809186
:103E8000DA1A85FD04C084FFF4C01092D81A80911C
:103E9000D81A882309F4F3C084FF0FC09091DA1A6E
:103EA00090FF0BC0803109F0EAC08091E21A8823AC
:103EB00009F4E5C088608093E21A82E00E94B303AF
:103EC000C2FF24C09091DA1A8091D81A807D09F43B
:103ED000EFC08091DB1A8111EBC097FDEBC00E940F
:103EE000AA048091370F8093360F0E94F40E8091C0
:103EF000DC1A81FF05C09091DA1A91609093DA1A6A
:103F0000897F8093DC1A84E00E94B3039091D01AD9
:103F1000992309F44DC08FB7F8941092D01A8FBF2F
:103F20004091DF1A842F90FD84E691FD865F92FD1B
:103F30008A5093FD8F5F94FD8150893C08F088EC96
:103F40008A3008F48AE03091E01A232F95FD24E6A8
:103F500096FD22E397FD29E1481302C0231741F1A2
:103F60008093DF1A2093E01A1092E31A8090370FA3
:103F700040901019C82D89E9B82E96E7E92E26E958
:103F8000F22EDEE736E4532EC411AFC08B2D9E2DEA
:103F9000AF2DBD2F8093BB069093BC06A093BD06AA
:103FA000B093BE060E94AA048092360F0E94F40EBF
:103FB0009091D11A992309F445C08FB7F8941092C3
:103FC000D11A8FBF2091E11A822F90FD84E691FDD6
:103FD000865F92FD8A5093FD8F5F94FD8150893CEE
:103FE00008F088EC8A3008F48AE0281749F020911C
:103FF000DC1A28602093DC1A8093E11A1092E31AED
:104000008091D81A95FF09C0803139F42091E21AC5
:104010002111C0C022E02093E21A292F207C91F0C8
:10402000882311F0887171F08091081B97FF03C0FD
:1040300087FFB4C08F7796FF03C086FFB1C08F7B28
:104040008093081B8091D81A8C7F09F489CEDF9168
:10405000CF911F910F91FF90EF90DF90CF90BF9085
:10406000AF909F908F907F906F905F904F900C9447
:10407000401482FF0CCF88608093DA1A08CF109228
:10408000DC1A0E943B0C892B71F08091DA1A86FDB4
:104090000AC01092DA1A88E08093D81A0E9440145D
:1040A0000E94CE040ACF1092DA1A1092D81A05CFC5
:1040B00097FF0AC01092DC1A0E9404130E94DB1BB7
:1040C0000E9435120E94B50B8091DA1A85FF08C054
:1040D0008F7781608093DA1A80E48093D81A13CFA7
:1040E0001092DA1A1092D81A0ECFCC2ED12CC59D70
:1040F000C0011124885C904F0E94C60B3B01982E92
:10410000A92E2B2D3E2D4F2D5D2F0E94355A5C9CE4
:1041100080015D9C100D1124085C104F18169CF551
:104120002B2D3E2D4F2D5D2F6B2D7E2D8F2D9D2FF9
:104130000E94755AF80162A773A784A795A75C9C93
:1041400080015D9C100D1124085C104FF801C6A879
:10415000D7A8E0ACF1ACA701960162A573A584A530
:1041600095A50E94355A18162CF4F801C2A6D3A6BC
:10417000E4A6F5A6CF5FC43209F4C0E0B62CE72C64
:10418000F92CDA2D01CF9301492D5A2DB301892D38
:104190009A2DCECF20FF41CF24603DCF80684BCFFA
:1041A00080644ECFCF92DF92EF92FF920F931F93D6
:1041B000CF93DF930E94731E8091DA1A882309F44B
:1041C00060C00E943B0C0097D1F5C091091B809103
:1041D000081BC82BC0900A1BD0900B1BE0900C1B37
:1041E000F0900D1B80919C1C81FF03C080E20E9417
:1041F0009B03C073D1E08091DA1A882309F441C08F
:104200009091D91A91113DC080FF16C09091D81A93
:10421000292F207C09F484C082FD1BC01092E21A71
:1042200040E050E0BA0180E00E946F1C8091DA1AF1
:104230008D7F84608093DA1A0E94731EDCCFFC01AC
:10424000C1A18E5B9F4FFC01C080D180E280F380D2
:10425000C9CF903811F587E295E00E948B0885E977
:1042600094E00E948B080E94630B40E050E0BA018A
:1042700080E00E946F1C0E94BC1B8091D91A882389
:1042800049F0DF91CF911F910F91FF90EF90DF9058
:10429000CF9008950E94731EF0CF903429F490912E
:1042A00006018F7D8093DA1A8091DA1A83FFC4CFDA
:1042B0009091091B992359F081FDBECF80919C1CE0
:1042C00081FF10C08091DC1A88608093DC1A809195
:1042D000DA1A81FDB1CF80618093DA1A82E00E9400
:1042E000BD03AACFB701A6018C2F0E946F1C01E568
:1042F00010E00150110959F38091D91A8111E7CFCB
:104300000E94731E8091DA1A81FD96CFFFEF20E79D
:1043100082E0F15020408040E1F700C00000E9CF8A
:104320008091E21A8823C9F181FF0DC08091091B99
:10433000882351F140E050E0BA0180E00E946F1CF8
:10434000D093E21A79CF8C7009F476CF8091091B53
:10435000882399F087E295E00E948B088EE994E02B
:104360000E948B080E94630B80919C1C81FF0FC0F0
:104370008091DC1A88608093DC1A8091E21A83FFB6
:1043800003C082E00E94BD031092E21A55CFB7012C
:10439000A6018C2F0E946F1CF0CF8091DC1A83FF46
:1043A0004BCFB701A6018C2F0E946F1C8091DC1AA5
:1043B000877F8093DC1A40CF0E94EC0E0E94D220AF
:1043C0008091D91A811108C00E943B0C892BB1F74A
:1043D0008091D81A883091F308950E94DC211092C0
:1043E000E41A0895CF92DF92EF92FF92CF939091CB
:1043F000D81A923079F06A017B01C82F0E94DC2123
:10440000B701A6018C2FCF91FF90EF90DF90CF9056
:104410000C946F1CCF91FF90EF90DF90CF90089598
:104420000F931F93CF93DF938B0121E031E0829FA5
:10443000E001839FD00D1124DD5F40E051E0BE011B
:10444000C8010E94AB12892B81F4F80110820E94EE
:10445000DC2140E051E0B801CE010E945B1280E017
:10446000DF91CF911F910F91089581E0F9CF0F93C4
:104470001F93CF93C82F8B010E94DC212DE1C29F97
:10448000C00111244CE150E0B8019E5FCF911F9113
:104490000F910C945B121F93CF93DF93182FEB01B6
:1044A0008DE1189FB00111247E5F4CE150E0CE01F8
:1044B0000E94AB12892B71F48CE1FE0111928A9556
:1044C000E9F7BE01812F0E94372280E0DF91CF9172
:1044D0001F91089581E0FACF4F925F926F927F9281
:1044E0008F929F92AF92BF92CF92DF92EF92FF9204
:1044F0000F931F93CF93DF93CDB7DEB76C970FB6B3
:10450000F894DEBF0FBECDBF182F80FF2BC28AE00C
:104510008093871C89E180938A1C1092881C82E01A
:104520008093891C80938B1C8AE097EDA3E2BCE307
:1045300080938C1C90938D1CA0938E1CB0938F1C29
:104540008FE692E1A3E0BBE38093901C9093911CD3
:10455000A093921CB093931C80E090E0AFE7B3E48B
:104560008093941C9093951CA093961CB093971CD9
:104570001092981C1092991C10929A1C10929B1CDD
:1045800010929D1C80E090E0A8ECB1E480939E1C0A
:1045900090939F1CA093A01CB093A11C80E090E07E
:1045A000A6E1B4E48093A21C9093A31CA093A41C46
:1045B000B093A51C8AEF90E09093A71C8093A61C53
:1045C00080E090E0A0E0B0E48093A81C9093A91C48
:1045D000A093AA1CB093AB1C88E180939C1C80E044
:1045E00090E0A8ECB3E48093171C9093181CA09360
:1045F000191CB0931A1C80931B1C90931C1CA09335
:104600001D1CB0931E1C80931F1C9093201CA09314
:10461000211CB093221C80E090ECAAE5B5E48093C5
:10462000331C9093341CA093351CB093361C80939C
:10463000371C9093381CA093391CB0933A1C80937C
:104640003B1C90933C1CA0933D1CB0933E1C80E00F
:1046500098ECAFEAB9E480934F1C9093501CA09360
:10466000511CB093521C8093531C9093541CA093E4
:10467000551CB093561C8093571C9093581CA093C4
:10468000591CB0935A1C80E090E0A8ECB3EC8093E6
:104690006B1C90936C1CA0936D1CB0936E1C80934C
:1046A0006F1C9093701CA093711CB093721C80932C
:1046B000731C9093741CA093751CB093761C80E0BF
:1046C00090E0ACE5B2EC8093B51C9093B61CA0933F
:1046D000B71CB093B81C1092B91C1092BA1C10925F
:1046E000BB1C1092BC1C80E090E0A8E5B2EC80936B
:1046F000BD1C9093BE1CA093BF1CB093C01C8DEC3E
:104700009CECACE8BFEB8093591D90935A1DA0938D
:104710005B1DB0935C1D86E280935D1D81E08093FC
:10472000AC1C1092AD1C1092AE1C1092AF1C1092DB
:10473000B01C1092B11C1092B21C1092B31C1092BB
:10474000B41C41ECC42E4CE1D42E5CEEE52EFF24CB
:10475000FA94412C512C60EA662E60EC762E812C66
:10476000912C78E4A72E72ECB72EF601419251926B
:10477000619271926F01B7010F2C000C880B990B9D
:104780000E94C758F601648B758B868B978B84A625
:1047900095A6A6A6B7A6FEE1EF1AF10888E3E816EB
:1047A0008FEFF80611F7E9E0FDE181E070EC60E4DD
:1047B00053E04AE036E022E392E2808311821282E3
:1047C000138274836583168217821086118652873E
:1047D000438734872587868797877096ADE1E934CC
:1047E000FA0759F71092491D10924A1D10924B1D5D
:1047F00010924C1D10924D1D10924E1D10924F1D87
:104800001092501D1092511D1092521D1092531D66
:104810001092541D1092551D1092561D87E08093E2
:10482000571D84E08093581D80E090E0A4E3B3E43A
:104830008093231C9093241CA093251CB093261CCA
:1048400080E090E0AAEFB4E480933F1C9093401C7A
:10485000A093411CB093421C40E058EC6FEA79E40D
:1048600040935B1C50935C1C60935D1C70935E1CBA
:1048700080E090E0A8E4B3EC8093771C9093781CE0
:10488000A093791CB0937A1C812C912C20EAA22E43
:1048900023E4B22E8092271C9092281CA092291CFF
:1048A000B0922A1CC12CD12C3AE7E32E35E4F32E2A
:1048B000C092431CD092441CE092451CF092461CCE
:1048C00040935F1C5093601C6093611C7093621C4A
:1048D00080937B1C90937C1CA0937D1CB0937E1CCA
:1048E00080922B1C90922C1CA0922D1CB0922E1CFE
:1048F0004093631C5093641C6093651C7093661C0A
:10490000C092471CD092481CE092491CF0924A1C6D
:1049100080937F1C9093801CA093811CB093821C79
:1049200080922F1C9092301CA092311CB092321CAD
:104930004093671C5093681C6093691C70936A1CB9
:10494000C0924B1CD0924C1CE0924D1CF0924E1C1D
:104950008093831C9093841CA093851CB093861C29
:104960000E94961211FF0FC0FE0131967F018CE16B
:1049700011928A95E9F700E0B701802F0E94372253
:104980000F5F0830C9F712FF14C060E080E093E0C9
:104990000E943B1260E081E093E00E943B1260E0E5
:1049A00081E094E00E943B1260E082E094E00E948B
:1049B0003B1213FF0AC060E08EEA93E00E943B12B4
:1049C00060E08FEA93E00E943B126C960FB6F89479
:1049D000DEBF0FBECDBFDF91CF911F910F91FF9032
:1049E000EF90DF90CF90BF90AF909F908F907F908F
:1049F0006F905F904F900895EF92FF920F931F93E7
:104A0000CF93DF93CDB7DEB765970FB6F894DEBFCF
:104A10000FBECDBFE5E1FE2EE2E3F2E0DE0111962E
:104A200001900D92FA94E1F78230910549F1E0F49A
:104A3000019709F162307105B1F140F561307105FE
:104A400071F14230510509F441C098F541305105EA
:104A5000C9F12230310509F457C0F0F52130310594
:104A600009F445C01F8657C08330910561F0049753
:104A700009F78FEF03C08FEF8E838F838887DACF9C
:104A80008FEF8F83D7CF8FEF8E83D4CF63307105B5
:104A900069F08FEF64307105A1F68B87D2CF8FEF6D
:104AA00089878A87FACF8FEF8A87CBCF8FEF898765
:104AB000C8CF4330510569F08FEF4430510549F6B6
:104AC0008E87C7CF8FEF8C878D87FACF8FEF8D873B
:104AD000C0CF8FEF8C87BDCF23303105D1F024308C
:104AE000310509F0BFCF1F86188A8FEF03C08FEF03
:104AF0008F87888B898B02301105E1F170F40130CA
:104B00001105A9F01A8A3DC01F868FEF888B198A7C
:104B1000F2CF8FEF8F87188AFACF0330110579F122
:104B20000430110579F71A8A1B8A8FEF03C08FEFC3
:104B30008A8B8B8B8C8B8E010F5F1F4F7E0186E1E2
:104B4000E80EF11CF80181918F010E94BB050E1542
:104B50001F05C1F784E690E065960FB6F894DEBFB6
:104B60000FBECDBFDF91CF911F910F91FF90EF90BE
:104B70000C94B21B1A8A8FEF8B8B1C8ADCCF8FEFC1
:104B80008A8B1B8AFACFCF93DF93D82FA198A19A53
:104B9000F894C0EAD13019F580E00E94C6118FEF79
:104BA0000E94C61180E00E94C611C15099F7789406
:104BB0008CE390E0A0E0B0E08A309105A105B1055A
:104BC000E8F425E02A95F1F700000197A109B10961
:104BD0000097A105B10581F7DF91CF910895D230FB
:104BE00029F48FEF0E94C61180E0DACF80E00E94A6
:104BF000C61180E00E94C6118FEFD5CF25E32A951C
:104C0000F1F700000A97A109B109E2CF8091CE1A0D
:104C100084FD20C080E10E94BD030E94491C0E94C7
:104C200015139091D81A892F8C7221F48091DC1A77
:104C3000867059F0943079F48091CF1A811103C0B5
:104C400086E00E94AD030E94BC1B81E00E94C32548
:104C50001092F91A089583E0F4CF7F928F929F9279
:104C6000AF92BF92CF92DF92EF92FF920F931F937A
:104C7000CF93DF93CDB7DEB766970FB6F894DEBF5C
:104C80000FBECDBF9091D81A913009F464C098E05E
:104C9000E7E4F2E0DE01119601900D929A95E1F7BA
:104CA00098E0EFE4F2E0DE01199601900D929A95FA
:104CB000E1F796E0E7E5F2E0DE01519601900D9212
:104CC0009A95E1F79091D31A9093D21A9E01275F9B
:104CD0003F4F7901882309F492C0CE0101966C01FF
:104CE000F60181916F010E94BB05EC14FD04C1F730
:104CF00084E690E00E94B21B0E946A058F3FE1F7B4
:104D000022E3D22E5E01F7E1AF0EB11C812C38E018
:104D1000932E7E0121E1E20EF11CF70181917F01CA
:104D20000E94BB05AE14BF04C1F784E690E00E9468
:104D3000B21B0E946A058F3F11F5C401801B910BC5
:104D40000130F8E01F0710F0C8019850C297B8F57D
:104D500081E08093EE1A66960FB6F894DEBF0FBE20
:104D6000CDBFDF91CF911F910F91FF90EF90DF901A
:104D7000CF90BF90AF909F908F907F9008958E3F7F
:104D8000C1F60E946A058E3FA1F60E946A05853031
:104D900081F60E946A05813061F60E946A058230C0
:104DA00041F60E946A05E82E0E946A05F82E0E94CC
:104DB0006A058A3F09F0BDCF1E2D0F2DBACFDA94B8
:104DC000D110A7CF81E08093D81A8AE00E94631E99
:104DD0000E94062666960FB6F894DEBF0FBECDBFC2
:104DE000DF91CF911F910F91FF90EF90DF90CF90C7
:104DF000BF90AF909F908F907F900C94D2206E01C7
:104E000031E1C30ED11CF70181917F010E94BB05E6
:104E1000CE14DF04C1F784E690E00E94B21B0E942A
:104E20006A058F3FE1F782E3782E5E01F7E1AF0E6E
:104E3000B11C96EF892E99E0992E7601F7018191A8
:104E40007F010E94BB05AE14BF04C1F784E690E069
:104E50000E94B21B0E946A058F3F79F4C401801B37
:104E6000910B073FF9E01F0718F0C801865F9940D2
:104E7000C29710F51092EE1A6ECF8E3F59F70E942E
:104E80006A058E3F39F70E946A05853019F70E943E
:104E90006A058130F9F60E946A058230D9F60E94CF
:104EA0006A05E82E0E946A05F82E0E946A058A3F6C
:104EB00089F61E2D0F2DCECF7A947110BECF82CFE2
:104EC000CF93C82F81E09C2F9870C3FF80E0809320
:104ED000EF1A911103C081E00E947A04C1FB882778
:104EE00080F98093F71A8091CF1A811108C0C7FD0D
:104EF00006C00E94062681E0CF910C94AD03CF91AD
:104F000008952F923F924F925F926F927F928F926D
:104F10009F92AF92BF92CF92DF92EF92FF920F9348
:104F20001F93CF93DF93CDB7DEB7C658D1090FB625
:104F3000F894DEBF0FBECDBFE9967FAF6EAFE997A5
:104F4000B09010192B2D30E0E3963FAF2EAFE397D2
:104F500026E4B29EA0011124BA01685C704FEB9662
:104F60007FAF6EAFEB97DB011D922A95E9F7E996CB
:104F7000EEADFFADE9972485DB0191962C93FB0103
:104F8000EE5BFF4FE996AEADBFADE99714964D913C
:104F90005D916D917C9117974083518362837383F8
:104FA00018964D915D916D917C911B97EB96EEADAE
:104FB000FFADEB9742A353A364A375A321FFE9C1FF
:104FC0002CE1EFE6FBE1DE01D99601900D922A95E6
:104FD000E1F7E4968FAFE497E5969FAFE59727E179
:104FE0003CE1CD57DF4F39832883C358D040BE0101
:104FF000635E7F4FCF57DF4F79836883C158D040BE
:10500000CE01C996C158DF4F99838883CF57D040CE
:10501000EB96AEADBFADEB97EF96BFAFAEAFEF97F0
:105020004E01B5E58B0E911CED969FAE8EAEED97C1
:1050300010E086E4E396EEADFFADE3978E9F10019E
:105040008F9F300C11249101285C304F1901B90158
:10505000645E7F4FCB57DF4F79836883C558D0405C
:1050600070E2270E311CE596AEADBFADE5976D91B0
:105070007D918D919D91E596BFAFAEAFE597CD57F0
:10508000DF4FE881F981C358D04041905190619041
:105090007190CD57DF4FF983E883C358D040A30107
:1050A00092010E94755A0E94425ACF57DF4FA88141
:1050B000B981C158D0406D937D938D939D93CF5707
:1050C000DF4FB983A883C158D040C158DF4FE88172
:1050D000F981CF57D040C190D190E190F190C15863
:1050E000DF4FF983E883CF57D0406C197D098E09D3
:1050F0009F099B01AC0197FF07C022273327A90115
:10510000261B370B480B590BEF96AEADBFADEF9793
:105110002D933D934D935D93EF96BFAFAEAFEF9759
:10512000CB57DF4FE881F981C558D040C080D1808E
:10513000E280F380C216D306E406F50610F4690196
:105140007A01CB57DF4FA881B981C558D040CD92A5
:10515000DD92ED92FC9213970E94C758A301920131
:105160000E941D58ED96EEADFFADED9761937193E2
:1051700081939193ED96FFAFEEAFED9720E030E095
:10518000A9010E94135887FF07C0812F0E94F404D1
:10519000D1019C91892B8C931F5F173009F063CF4D
:1051A00080E0CD28CE28CF2809F4D9C0CE018B5A73
:1051B0009F4F0E9431136B017C0186E4E396EEADB4
:1051C000FFADE3978E9F80018F9F100D1124085C27
:1051D000104FD801D296CD92DD92ED92FC92D597E8
:1051E000BE016B5A7F4F8FE49CE10E945F10F80173
:1051F00066A777A780AB91ABBE016B5A7F4F83E365
:105200009CE10E945F10D801DA966D937D938D9397
:105210009C93DD979196AC90025C1F4FA0FEBDC0A1
:10522000F80160837183828393838091370FB8166E
:1052300011F0A1FECDC086E4E3962EAD3FADE3971D
:10524000829FF001839FF00D1124E85CF04F16A2BD
:1052500017A210A611A616AA17AA10AE11AE86E4C0
:10526000E396EEADFFADE3978E9F80018F9F100D0B
:105270001124085C104FD80191968C9181FD6EC06D
:10528000EB968EAD9FADEB970E94C60B6B017C0138
:105290008090BB069090BC06A090BD06B090BE0664
:1052A000AC019B01C501B4010E94135887FF6DC179
:1052B000A5019401C501B4010E94755AF80162A7C5
:1052C00073A784A795A786E4E396EEADFFADE397B9
:1052D0008E9F80018F9F100D1124085C104FD80104
:1052E000D6968D909D90AD90BC90D997A5019401D4
:1052F0009A966D917D918D919C919D970E94355AC2
:1053000018162CF4F80182A693A6A4A6B5A6C092FE
:10531000BB06D092BC06E092BD06F092BE068CE1C0
:10532000FE01EB5AFF4FAFE9B6E001900D928A956E
:10533000E1F78CE1FE017D96A3E8B6E001900D92C5
:105340008A95E1F780918206809310198F5F8432ED
:1053500009F480E0809382060E94F40E81E0CA572F
:10536000DF4F0FB6F894DEBF0FBECDBFDF91CF91F8
:105370001F910F91FF90EF90DF90CF90BF90AF9073
:105380009F908F907F906F905F904F903F902F9065
:1053900008952CE1E3E8F6E016CEE996AEADBFAD98
:1053A000E9972D913D914D915C91A3FC06C0F801C8
:1053B000208331834283538338CFC701B6010E94D3
:1053C000755AD8016D937D938D939C9313972DCF30
:1053D0006FE976E0E9967FAF6EAFE9978E010F5FD8
:1053E0001F4F14017CE1270E311CC12CD12C7601FA
:1053F0005801E996EEADFFADE99781919191A191A8
:10540000B191E996FFAFEEAFE997E7968CAF9DAF0C
:10541000AEAFBFAFE797D4014D905D906D907D909A
:105420004D01A3019201E7966CAD7DAD8EAD9FADB0
:10543000E7970E94755A9B01AC01C701B6010E9413
:105440001D576B017C01E7962CAD3DAD4EAD5FADB8
:10545000E797C301B2010E941D57F8016193719350
:10546000819391938F012814390419F62FEE3FEFA1
:105470004FE75FE3C701B6010E94355A18166CF476
:1054800086E4E3962EAD3FADE397829FF001839FC4
:10549000F00D1124E85CF04FDECE2FEE3FEF4FE72A
:1054A0005FEBC701B6010E94135887FF15C086E461
:1054B000E3966EAD7FADE397869FF001879FF00D79
:1054C0001124E85CF04F89E996E7A6E9BEE786ABD0
:1054D00097ABA0AFB1AFC3CEC5010E943113B501E8
:1054E0008FE49CE10E945F104B015C01A7019601D3
:1054F00060E070E080E89FE30E941D5720E030E00C
:1055000040E05FE30E94755A0E94145B6B017C01CE
:1055100020918C1C30918D1C40918E1C50918F1CC1
:10552000C501B4010E94755AA70196010E94755ADF
:105530004B015C01A701960160E070E080E89FE309
:105540000E941D579B01AC01C501B4010E941D586A
:105550006B017C0120E030E0A9010E94135887FF15
:1055600003C0C12CD12C760186E4E396AEADBFAD6D
:10557000E3978A9FF0018B9FF00D1124E85CF04FB8
:10558000C6AAD7AAE0AEF1AE6ACEA7019601C701BE
:10559000B6010E94755AD8019A966D937D938D93AA
:1055A0009C939D9790CEAF92BF92CF92DF92EF9255
:1055B000FF920F931F93CF93DF93CDB7DEB7A997D9
:1055C0000FB6F894DEBF0FBECDBF082F0E94DC21BE
:1055D0005F9A0E948E118091D91A811173C05E0169
:1055E0008DE1A80EB11C8DE0F50111928A95E9F7C5
:1055F00086E089A720E030E040E450EC60917B1C1D
:1056000070917C1C80917D1C90917E1C0E94755A2B
:105610006B017C0120E030E0A9010E94135887FF54
:1056200003C0C12CD12C76016FE67BE1CE0101963F
:105630000E94380410927F1B1092801B1092811BD5
:105640001092821B002309F44EC0C98ADA8AEB8AC1
:10565000FC8A80E48093DE1A80E090E0A8E4B2E463
:105660008D8F9E8FAF8FB8A3B501CE0101960E949A
:10567000812784E08093DC1A0E9440140E94CE04AB
:1056800010E4002311F07D9B10E01093DE1A0E94BD
:1056900040148091CE1A847309F457C01091CE1A29
:1056A00014FF03C086E00E94AD0315FF03C087E02E
:1056B0000E94AD038091CF1A882311F10E94062623
:1056C0000E94D220A9960FB6F894DEBF0FBECDBFC0
:1056D000DF91CF911F910F91FF90EF90DF90CF90CE
:1056E000BF90AF9008958091591D90915A1DA0913F
:1056F0005B1DB0915C1D898B9A8BAB8BBC8BA9CF4A
:1057000084E00E94B3030E94DB1B8091A61C909151
:10571000A71C0E94B21B10927F1B1092801B10923C
:10572000811B1092821B1092DC1A0E94D220809161
:10573000D91A8111C7CF0E9435120E94B50B0E9461
:1057400099110E94DC215F98BDCF11119ACFDBCF58
:10575000EF92FF921F93CF93DF93EC017B01809137
:105760009C1C85FF26C01091D81A103231F180910F
:10577000001B8C38F0F4CE010E94C6038823C9F0C8
:1057800081E08093DB1A183069F488E00E94BD0341
:105790000E94D2208091D91A81110BC08091D81A11
:1057A0008111F6CF0E94062682E00E94AD030E947E
:1057B000D2208091D81A8230C1F00E94D2208091EC
:1057C000D91A811112C09091370F809182069813D7
:1057D00003C00E94EC0EF1CFB701CE01DF91CF9153
:1057E0001F91FF90EF900C948127DF91CF911F9133
:1057F000FF90EF9008952F923F924F925F926F9299
:105800007F928F929F92AF92BF92CF92DF92EF9250
:10581000FF920F931F93CF93DF93CDB7DEB7E79738
:105820000FB6F894DEBF0FBECDBF9091D91A91117B
:1058300014C18DAB9E01235E3F4F3AAB29AB8DE087
:10584000D9011D928A95E9F786E089A727E1A22E62
:105850002CE1B22EFE01BA964F0110E000E0C12CFF
:10586000D12C7601FDA92F2E312C802F0E940E0500
:10587000D4018D934D01C101002E02C095958795ED
:105880000A94E2F780FF1BC020E030E040EC5FEBC1
:10589000F501EC5AFF4F60817181828193810E94F2
:1058A000755A762E472E582E692EA70196010E9412
:1058B000135887FD04C0C72CD42CE52CF62C0F5FA1
:1058C0001F4FB4E0AB0EB11C0730110571F680908C
:1058D000A21C9090A31CA090A41CB090A51C94E0C6
:1058E000692E01E06FE67BE1CE0101960E9438044B
:1058F00080919D1CE82FF0E0FCABEBABFE013196F4
:105900008FE6482E8BE1582E5FAA4EAA712C10E02C
:1059100030E020E0B701A6017058C101022E02C09C
:10592000959587950A94E2F780FF28C07394AEA9F5
:10593000BFA91D921D921D921C9213978BA99CA921
:10594000022E02C0959587950A94E2F780FF07C062
:10595000002339F0408351836283738306C00023A0
:10596000C9F3C082D182E282F3828AE290E08C0F96
:105970009D1F820F931FDC018C91182B2F5F3F4FCF
:1059800034968EA99FA904969FAB8EAB2730310524
:1059900021F6672D70E090E080E00E94C5580E94DB
:1059A000145B1093DE1AA50194010E94755A6D8F45
:1059B0007E8F8F8F98A3BE01635E7F4FCE010196CD
:1059C0000E94812794E09093DC1A0E9440140E9468
:1059D000CE040023E9F00E946E11FE01BA9630E079
:1059E00020E090E06191462F412359F0AC01022E56
:1059F00002C0559547950A94E2F740FF02C06095B2
:105A000016232F5F3F4F2730310561F71093DE1AC1
:105A10000E9440148091CE1A847309F47AC01091C8
:105A2000CE1A14FF03C086E00E94AD0315FF03C029
:105A300087E00E94AD03011182C00E946E11ADA9E2
:105A40008A2319F088E00E94AD038091CF1A882341
:105A5000E9F00E9406260E94D220E7960FB6F8943D
:105A6000DEBF0FBECDBFDF91CF911F910F91FF9091
:105A7000EF90DF90CF90BF90AF909F908F907F90EE
:105A80006F905F904F903F902F90089584E00E9418
:105A9000B3030E94DB1B8091A61C9091A71C0E945F
:105AA000B21BB1E00B27D1F120E030E040EA50E436
:105AB0006091A81C7091A91C8091AA1C9091AB1CAC
:105AC0000E94755A6B017C0180909E1C90909F1CD7
:105AD000A090A01CB090A11C6A94611003CF90E02C
