:100000000C94D9020C94FA020C94FA020C94FA02A1
:100010000C94FA020C94FA020C94FA020C94FA0270
:100020000C94FA020C94945A0C94FA020C94C35354
:100030000C941D5A0C94FA020C94FA020C94FA02D5
:100040000C94FA020C941F540C94FA020C94FA02C9
:100050000C94FA020C94FA020C94FA020C940954CF
:100060000C94FA020C94F0580C94F2590C94FA0285
:100070000C94FA020C94FA020C94FA020C94FA0210
:100080000C94FA020C94FA020C94FA020C94E657BF
:100090000C94C8580C949D580C94FA020C94FA02D3
:1000A0000C94FA020C94FA020C94FA020C94FA02E0
:1000B0000C94FA020C94FA020C94FA020C94A95AC9
:1000C0000C94FA020C94FA020C94FA020C947558EF
:1000D0000C944A580C94FA020C9422580C94F7573A
:1000E0000C94FA02084AD73B3BCE016E84BCBFFD9C
:1000F000C12F3D6C74319ABD56833DDA3D00C77FF8
:1001000011BED9E4BB4C3E916BAAAABE0000008090
:100110003F05A84CCDB2D44EB93836A9020C50B91F
:10012000918688083CA6AAAA2ABE000000803F004B
:100130000C94A6590C9414330C94B8590C945B533A
:100140000C94CD590C94AA530C94A2590C94A6303B
:100150000C94094E0C94F2320C949A590C947353EB
:100160000C941C530C940C530C94C9590C94EF52DE
:100170000C9488330C9425530C94C5590C94C15994
:100180000C9484590C9486590C9482590C94F25214
:100190000C94A0590C94DE590C9492590C94E95289
:1001A0000C94D5590C94DA590C9487530C9426333B
:1001B0000C94B2590C948A590C94134E0C94A8596F
:1001C0000C945B590C943A530C9477330C94A432EE
:1001D0000C9490590C94FA520C941E4E0C943D338E
:1001E0000C94B3530C9404530C94BC530C94B45916
:1001F0000C9480590C94D7320C9498530C94A153BE
:100200000C94B6590C94054E0C940F4E0C949859BE
:100210000C9403330C9488590C94C6320C942E53CE
:100220000C94B5320C9472590C94D3590C94195304
:100230000C9458530C94434E0C9494590C94D859E4
:100240000C9430330C946D530C9450530C94FB4D20
:100250000C94E1320C94E0590C947C530C94474E6E
:100260000C94B0590C9451330C94F7520C94AA5935
:100270000C947E590C94FF4D0C94AC590C949053F3
:100280000C94034E0C942A520C94284E0C94183360
:100290000C94364E0C9447330C9461320C949C5958
:1002A0000C9464530C947C590C9444530C94BB5997
:1002B0000C9466330C94304E0C948E590C94454E2D
:1002C0000C943C4E0C9478590C9496590C94D1593A
:1002D0000D0A007C57506F733A004D506F733A000F
:1002E0000D0A00416C61726D3A005BE68EA2E992E4
:1002F000883A00636F6E74726F6C2D312E302E3021
:100300002D616C70686137005B76657273696F6E22
:100310003A007C46533A007C4C6E3A007C42663A86
:10032000007C473A007C4D3A007C533A007C4642C0
:100330003A007C53463A007C483A007C41463A00F9
:100340007C4C3A007C433A007C48573A007C44524B
:100350003A007C443A007C54443A007C523A007C97
:1003600052573A007C4C573A007C5246543A007C33
:100370004C46543A007C53543A007C463A007C5434
:100380003A007C4C443A007C57506F733A007C4DE5
:10039000506F733A00536C65657000446F6F723A2A
:1003A00000436865636B00416C61726D00486F6D5E
:1003B000696E67004D6F76696E6700506175736591
:1003C000004D6F76696E67005265616479006572F1
:1003D000726F723A005D002C002C002C002C002C57
:1003E000002C002C006E756C6C5D00276368616DDD
:1003F000666572272C0027746872656164272C007B
:10040000276472696C6C272C0027636F6E65272C3C
:10041000002762616C6C272C0027656E646D696C27
:100420006C272C005B007D0D0A00273A007B2774A7
:100430006F6F6C007D0D0A00273A007B27746F6F89
:100440006C007D0D0A00273A007B27746F6F6C00EB
:100450000D0A005D005B746F6F6C5374617475738B
:100460003A20005D0D0A005B726669645F706F7709
:1004700065723A000D0A00537461727420746F6FD4
:100480006C2073657474696E6700204700204D000E
:1004900020530020460020540033382E005B474391
:1004A0003A47005B5A706F733A005B544C4F3A0006
:1004B0005B4739323A003330003238005B47005B2B
:1004C0004F50543A005B5645523A312E31652E3228
:1004D000303137303131343A00536C656570696EB4
:1004E0006700526573746F72696E67207370696E0E
:1004F000646C6500526573746F72696E6720646521
:100500006661756C74730050726F6772616D2065FF
:100510006E64656400436865636B206C696D697423
:100520007300436865636B20646F6F720044697386
:1005300061626C656400456E61626C656400436174
:100540007574696F6E3A20556E6C6F636B656400ED
:10055000506C6561736520756E6C6F636B005B4DED
:1005600053473A006F6B0D0A00244E005D7D0D0A63
:10057000002C007B27746F6F6C44617461273A5BB9
:10058000000D0A006265666F7265546F6F6C3A0009
:100590000D0A006E6F77546F6F6C3A000D0A0053AE
:1005A0007461727420746F6F6C2073657474696EFB
:1005B000670011241FBECFEFD1E2DEBFCDBF00E048
:1005C0000CBF2EE1A6E2B4E001C01D92A331B20738
:1005D000E1F714E0A0E0B2E0E6EBFFEC00E00BBFD7
:1005E00002C007900D92A632B107D9F70E94375C7E
:1005F0000C94D9670C9400002F923F924F925F9217
:100600006F927F928F929F92AF92BF92CF92DF9222
:10061000EF92FF920F931F93CF93DF93CDB7DEB787
:100620002E970FB6F894DEBF0FBECDBF4B015C0115
:100630007A0120E030E0A9010E94FA6010E087FF13
:1006400005C0B7FAB094B7F8B09411E0C501B40191
:100650000E947D616B877C878D879E87112331F097
:100660008DE2F7018083C70101967C016B857C8553
:100670008D859E858E010F5F1F4F68013AE0232E06
:10068000312C412C512C3801EFEF6E1A7E0AA20159
:1006900091010E949364605DF8016083B901CA0111
:1006A0008301611571058105910569F7D701F30192
:1006B000CE16DF06E1F583010C191D090F5F1F4FF0
:1006C0000E0D1F1D6B857C858D859E850E94AC61FE
:1006D0009B01AC01C501B4010E94046093012C1977
:1006E0003D09E20EF31E2EE2F7012083680124E0AB
:1006F000F22EFA94F1101EC0F80113822E960FB656
:10070000F894DEBF0FBECDBFDF91CF911F910F9147
:10071000FF90EF90DF90CF90BF90AF909F908F9021
:100720007F906F905F904F903F902F9008958291AF
:100730008D93BECF20E030E040E251E40E945C6344
:100740004B015C010E94766120E3260FF6012193A4
:100750006F01072E000C880B990B0E94AE619B0164
:10076000AC01C501B4010E940460C3CF2FB7F89457
:100770009091701B892B8093701B2FBF08952FB70A
:10078000F89490916F1B892B80936F1B2FBF089556
:100790009FB7F89480936E1B9FBF08959FB7F894FE
:1007A00020916D1B8095822380936D1B9FBF0895C0
:1007B0002FB7F89490916D1B892B80936D1B2FBFE1
:1007C00008952F923F924F925F926F927F928F92F5
:1007D0009F92AF92BF92CF92DF92EF92FF920F93D0
:1007E0001F93CF93DF9300D01F92CDB7DEB7209138
:1007F000261D222E312C4090311D5090321D6090CC
:10080000331D7090341D24EF3CE13A8329838C0121
:100810001C821B82E981FA81C190D190E190F19014
:10082000FA83E98320E030E0A901C701B6010E9404
:10083000FA608823B9F1F80180809180A280B380AA
:100840002DEC3CEC4CEC5DE3C301B2010E94046072
:100850009B01AC01C1010B8002C0959587950A945C
:10086000E2F780FF11C0C501B4010E94FA6087FD64
:1008700009C0C701B6019058A50194010E94FA6011
:1008800087FF10C081E01BC0C501B4010E941C633A
:100890001816C4F3A5019401C701B6010E941C6398
:1008A000181684F32B813C812F5F3F4F3C832B83B1
:1008B0000C5F1F4F2730310509F0ACCF80E00F905F
:1008C0000F900F900F90DF91CF911F910F91FF909C
:1008D000EF90DF90CF90BF90AF909F908F907F90E0
:1008E0006F905F904F903F902F9008958F929F92BE
:1008F000AF92BF92CF92DF92EF92FF920F931F932E
:10090000CF93DF93EB0120EAE22E2CE1F22E8C0153
:100910006B018CE1C80ED11C6991799189919991F3
:10092000F70181909190A190B1907F010E94AE61FA
:10093000A50194010E940461F80161937193819370
:1009400091938F01CC15DD0539F7DF91CF911F9180
:100950000F91FF90EF90DF90CF90BF90AF909F905E
:100960008F9008955F9A0895E2E0F1E080818860B9
:1009700080830895882341F0739A91E0811101C02A
:1009800090E09093001E08957398F7CF882341F06C
:100990008F9A91E0811101C090E09093021E08951A
:1009A0008F98F7CF813019F4899A8A9804C0899872
:1009B0008230D9F78A9A8093031E0895882341F0E4
:1009C000A29A91E0811101C090E09093011E0895D8
:1009D000A298F7CFCF93DF93C091661AD091671A90
:1009E0002097C9F08091361A81608093361A609101
:1009F0004C1A70914D1A80914E1A90914F1A9B018A
:100A0000AC010E945C636EA37FA388A799A7109294
:100A1000671A1092661ADF91CF910895E0E9FEE01F
:100A200080918D0E868F8091101D8250990B880FBA
:100A30008195858FEFE6F0E0808182608083089564
:100A40002091251D21FF0BC09093AB008093AA003D
:100A5000892B31F48091A0008F7D8093A0000895B0
:100A60008091A0008062F9CF882361F0813061F02D
:100A7000823061F0833061F0843061F0853061F064
:100A800082E0089580E8089580E4089580E2089562
:100A900080E1089588E0089584E00895882361F056
:100AA000813061F0823061F0833061F0843061F038
:100AB000853061F082E0089584E0089588E008952B
:100AC00080E1089580E2089580E4089580E8089523
:100AD000AF92BF92CF92DF92EF92FF920F931F934C
:100AE000CF93DF93E090111DF12CC090121DD12CFB
:100AF000D0E0C0E010E000E0BC2EAC2EC7010C2E10
:100B000002C0959587950A94E2F780FF04C08C2F68
:100B10000E944E05082BC60102C095958795AA94A0
:100B2000E2F780FF04C08B2D0E943405182B21961C
:100B3000C730D10509F700938D0E10938E0EDF910B
:100B4000CF911F910F91FF90EF90DF90CF90BF90CA
:100B5000AF9008959091711B8091721B891749F095
:100B6000E92FF0E0EE59F64F80819F5F9093711B63
:100B700008958FEF08952091690EDC0180E08613BF
:100B800001C008959091680E2917D9F3E92FF0E07C
:100B9000E859F24F30813D938F5F9F5F9093680ECD
:100BA000EECF9091680E8091690E891749F0E92F78
:100BB000F0E0E859F24F80819F5F9093680E0895AE
:100BC0008FEF0895E091660C91E09E0F2091670DE4
:100BD000291761F0F0E0E959F34F80839093660C98
:100BE0008091310180628093310104C020916D1B9E
:100BF00024FFECCF0895E091620A91E09E0F2091CE
:100C0000630B291761F0F0E0ED59F54F8083909365
:100C1000620A8091D10080628093D10004C020914B
:100C20006D1B24FFECCF0895E091600891E09E0FCA
:100C300020916109291761F0F0E0EF59F74F8083A7
:100C4000909360088091C90080628093C90004C0BD
:100C500020916D1B24FFECCF0895E0916C1B91E077
:100C60009E0F20916B1B291761F0F0E0E559F54EBE
:100C7000808390936C1B8091C10080628093C1003F
:100C800004C020916D1B24FFECCF089510926F0ECD
:100C90009091251D97FD03C09CE090936F0E8823D3
:100CA00031F080916F0E9CE0892780936F0E08953C
:100CB0008F929F92AF92BF92CF92DF92EF92FF926C
:100CC0000F931F93CF93DF93CDB7DEB72D970FB65A
:100CD000F894DEBF0FBECDBF6B017C01042F20E076
:100CE00030E0A9010E94FA6087FF07C08DE20E94F0
:100CF000E205F7FAF094F7F8F09420E030E048ECE1
:100D000052E4C701B6010E945C6320E030E048EC89
:100D100052E4043031F0033031F420E030E040E2BE
:100D200051E40E945C6320E030E040E05FE30E9419
:100D300005600E94766110E03AE0832E912CA12C90
:100D4000B12CE12FF0E0611571058105910581F568
:100D500081E090E08C0F9D1FE80FF91F80E31017D2
:100D6000C8F1101309C0E1E0F0E0EC0FFD1FE10F46
:100D7000F11D80E380831F5FEE24E394F12CEC0EE1
:100D8000FD1EE10EF11C111128C02D960FB6F8942E
:100D9000DEBF0FBECDBFDF91CF911F910F91FF90AE
:100DA000EF90DF90CF90BF90AF909F908F9008957D
:100DB000EE24E394F12CEC0EFD1EEE0EFF1EA501B9
:100DC00094010E949364605DF7016083B901CA01D8
:100DD0001F5FB7CF1F5F8193C2CF101303C08EE296
:100DE0000E94E205F70182917F010E94E205115005
:100DF000CACF0F931F93CF938C01C0E0F80161918C
:100E00007191819191918F012091251D43E020FFE7
:100E100007C02BE832E441E25DE30E945C6344E0FA
:100E20000E945806C33019F08CE20E94E205CF5FA1
:100E3000C43021F7CF911F910F9108958F929F9207
:100E4000AF92BF92CF92DF92EF92FF920F931F93D8
:100E5000CF93DF93CDB7DEB72D970FB6F894DEBFF3
:100E60000FBECDBF6B017C01042F20E030E0A90153
:100E70000E94FA6087FF07C08DE20E942D06F7FAF4
:100E8000F094F7F8F094102F123008F054C000FFDF
:100E90000AC020E030E040E251E4C701B6010E9400
:100EA0005C636B017C0120E030E040E05FE3C70160
:100EB000B6010E9405600E94766110E03AE0832E40
:100EC000912CA12CB12CE12FF0E061157105810569
:100ED0009105E9F581E090E08C0F9D1FE80FF91F67
:100EE00080E3101708F445C0101309C0E1E0F0E0FA
:100EF000EC0FFD1FE10FF11D80E380831F5FEE24E7
:100F0000E394F12CEC0EFD1EE10EF11C111134C026
:100F10002D960FB6F894DEBF0FBECDBFDF91CF91F7
:100F20001F910F91FF90EF90DF90CF90BF90AF9007
:100F30009F908F90089520E030E048EC52E4C70184
:100F4000B6010E945C636B017C0112509DCFEE24C0
:100F5000E394F12CEC0EFD1EEE0EFF1EA501940194
:100F60000E949364605DF7016083B901CA011F5F4D
:100F7000AACF1F5F8193B5CF101303C08EE20E94EA
:100F80002D06F70182917F010E942D061150BECFE0
:100F90002091251D40E020FF07C02BE832E441E20C
:100FA0005DE30E945C6341E00C941E072091251DC7
:100FB00043E020FF07C02BE832E441E25DE30E94FA
:100FC0005C6344E00C941E070F931F93CF938C0136
:100FD000C0E0F80161917191819191918F010E941E
:100FE000D607C33019F08CE20E942D06CF5FC430C3
:100FF00081F7CF911F910F9108958F929F92AF9299
:10100000BF92CF92DF92EF92FF920F931F93CF93F5
:10101000DF9300D000D000D01F92CDB7DEB76115AE
:10102000710581059105A9F480E32A960FB6F8941D
:10103000DEBF0FBECDBFDF91CF911F910F91FF900B
:10104000EF90DF90CF90BF90AF909F908F900C94D7
:101050002D0600E09E012F5F3F4F79012AE0822E8E
:10106000912CA12CB12C6701C00ED11CA5019401BB
:101070000E949364F6016083B901CA010F5F611594
:1010800071058105910579F70E0D1F2D111DE016D3
:10109000F10699F42A960FB6F894DEBF0FBECDBFC5
:1010A000DF91CF911F910F91FF90EF90DF90CF9044
:1010B000BF90AF909F908F900895F80182918F011B
:1010C000805D0E942D06E3CFCF92DF92EF92FF92D8
:1010D00097FF0CC06B017C018DE20E942D066627F4
:1010E0007727CB016C197D098E099F09FF90EF903E
:1010F000DF90CF900C94FD07CF93DF93843658F0A8
:101100006AE00E946564C0E3C90F6AE00E946564FA
:10111000D0E3D90F04C0C0E0D0E08A30B0F7805DE2
:101120000E942D06DD2319F08D2F0E942D06CC2361
:1011300029F08C2FDF91CF910C942D06DF91CF9168
:101140000895CF93DF93EC01FE01849121968111E4
:1011500003C0DF91CF9108950E94E205F5CFCF93B0
:10116000DF93EC01FE0184912196811103C0DF9190
:10117000CF9108950E942D06F5CF2F923F924F9266
:101180005F926F927F928F929F92AF92BF92CF9217
:10119000DF92EF92FF920F931F93CF93DF9300D0D4
:1011A00000D01F921F92CDB7DEB7FC0110812180C5
:1011B0003284C384D4840585E684F784FE24EF2436
:1011C000FE24428053806480758049825A826B82FB
:1011D0007C8286809780A084B1848D829E82AF823B
:1011E000B88684E294E00E94AF08133009F46FC01F
:1011F00050F4113009F468C081E194E0123061F0DC
:1012000085EE93E047C0153009F467C008F462C06A
:101210008BEE93E01630A1F70E94AF08822D0E945A
:101220007C0883EE93E00E94AF0843E0C301B20163
:101230000E941E0781EE93E00E94AF0843E0C501C3
:10124000B4010E941E078FED93E00E94AF08832D2A
:101250000E947C088DED93E00E94AF088C2D0E94C7
:101260007C088BED93E00E94AF088D2D0E947C08D6
:1012700089ED93E00E94AF08802F0E947C0887EDE3
:1012800093E00E94AF08B70190E080E00E94FD0764
:1012900085ED93E028960FB6F894DEBF0FBECDBF64
:1012A000DF91CF911F910F91FF90EF90DF90CF9042
:1012B000BF90AF909F908F907F906F905F904F9076
:1012C0003F902F900C94AF0889E194E0A5CF89E07E
:1012D00094E0A2CF80E094E09FCF86EF93E09CCF94
:1012E00080EE92E00C94AF08CF93C82F8EEC93E081
:1012F0000E94AF088C2F0E947C08CF910C9470093B
:10130000882321F0823031F00C94740984E695E052
:101310000C94AF080895CF92DF92EF92FF92CF9393
:10132000DF93D82F6A017B01C22F84E20E942D0631
:101330008D2F0E947C088DE30E942D064C2FC70143
:10134000B6010E941E07DF91CF91FF90EF90DF90D2
:10135000CF900C947009EF92FF920F931F93CF934D
:10136000DF930AE41DE1C2EDD0E0EE24E394EC0E3D
:1013700082E0F82EFC0EF801D130C9F0D230F1F045
:10138000408151816281738123E08C2F0E948B09FF
:10139000DF5FD33081F7CD5F0C5F1F4FC43E21F775
:1013A000DF91CF911F910F91FF90EF900895408DA5
:1013B000518D628D738D23E08E2DE8CF40A951A908
:1013C00062A973A923E08F2DE1CFCF93DF93D82FAC
:1013D000C62F84E20E942D068D2F0E947C088DE38B
:1013E0000E942D068C2F0E947C08DF91CF910C94D7
:1013F0007009EF92FF920F931F93CF93DF93609149
:10140000101D70E080E00E94E5096091131D70E0FE
:1014100081E00E94E5096091111D70E082E00E9468
:10142000E5096091121D70E083E00E94E50960917A
:10143000251D62FB662760F970E084E00E94E509E3
:101440006091251D66FB662760F970E085E00E94CB
:10145000E5098091251D082E000C990B692F661F48
:101460006627661F70E086E00E94E5096091141D02
:1014700070E08AE00E94E5094091151D5091161D0B
:101480006091171D7091181D23E08BE00E948B095D
:101490004091191D50911A1D60911B1D70911C1DCA
:1014A00023E08CE00E948B096091251D617070E043
:1014B0008DE00E94E5096091251D65FB662760F9B6
:1014C00070E084E10E94E5096091251D63FB6627B9
:1014D00060F970E085E10E94E5096091251D629543
:1014E000617070E086E10E94E5096091261D70E060
:1014F00087E10E94E5094091271D5091281D6091C8
:10150000291D70912A1D23E088E10E948B094091DA
:101510002B1D50912C1D60912D1D70912E1D23E0CF
:1015200089E10E948B0960912F1D7091301D8AE125
:101530000E94E5094091311D5091321D6091331D8B
:101540007091341D23E08BE10E948B0940911D1D99
:1015500050911E1D60911F1D7091201D20E08EE195
:101560000E948B094091211D5091221D6091231DE5
:101570007091241D20E08FE10E948B096091251D50
:101580006695617070E080E20E94E50940913E1D21
:1015900050913F1D6091401D7091411D23E081E2FB
:1015A0000E948B094091421D5091431D6091441D42
:1015B0007091451D23E082E20E948B094091461DF7
:1015C0005091471D6091481D7091491D23E083E2B1
:1015D0000E948B094091E21D5091E31D6091E41D32
:1015E0007091E51D23E084E20E948B096091E61D65
:1015F00070E085E20E94E50994E6F92E10E0C0EA69
:10160000DCE100E0E02EEF0C123009F461C0133091
:1016100009F46BC0113009F456C0488159816A81C0
:101620007B8123E08E2D0E948B090F5F249607306B
:1016300049F78AE0F80E1F5FECE8FE12E0CF6091F8
:10164000351D70E088EC0E94E5094091361D5091EF
:10165000371D6091381D7091391D23E089EC0E947F
:101660008B0940913A1D50913B1D60913C1D70913A
:101670003D1D23E08AEC0E948B090AE41DE1C2EDC6
:10168000D0E0EE24E394EC0E82E0F82EFC0EF8019C
:10169000D130A1F1D230C9F1408151816281738191
:1016A00023E08C2F0E948B09DF5FD33081F7CD5F61
:1016B0000C5F1F4FC43E21F7DF91CF911F910F9117
:1016C000FF90EF9008954C8D5D8D6E8D7F8DA9CF2D
:1016D00020E030E041E655E468AD79AD8AAD9BADE0
:1016E0000E940461AB01BC019CCFFE01EC5AFF4F8C
:1016F0004081518162817381705893CF408D518DAB
:10170000628D738D23E08E2DCDCF40A951A962A9A2
:1017100073A923E08F2DC6CF8DE50E942D060C9472
:10172000700988E093E00E94AF0883EF92E00E9486
:10173000AF080C948C0BCF93DF93CDB7DEB76C97CB
:101740000FB6F894DEBF0FBECDBF8AEE92E00E94C6
:10175000AF0860E77EE0CE0101960E947604CE01DC
:1017600001960E94E4078AE30E942D068091EC1DF9
:101770000E947C088CE20E942D0660913A1D7091B7
:101780003B1D80913C1D90913D1D0E94D6070E94FB
:101790008C0B6C960FB6F894DEBF0FBECDBFDF91F9
:1017A000CF910895CF93DF93EC018991811103C00C
:1017B000DF91CF9108950E942D06F7CFE8EFFBE16E
:1017C000AEEAB6E041915191619171914D935D9373
:1017D0006D937D938CE1E431F807A1F70895BF92F2
:1017E000CF92DF92EF92FF920F931F93CF93DF93ED
:1017F0007C01FC01FE9600811181D281C381FC0134
:1018000081A180FF33C06091EF1D70E090E080E027
:101810000E94AE612AE037ED43E25CE30E945C6324
:101820009B01AC01B8018D2F9C2F0E945C638B0142
:10183000D82FC92F20E030E040E85FE3B8018D2FBA
:101840009C2F0E941C63181624F000E010E0D0E8E2
:10185000CFE3B8018D2F9C2FDF91CF911F910F9176
:10186000FF90EF90DF90CF90BF90089582FD17C05A
:101870006091EE1D70E090E080E00E94AE612AE091
:1018800037ED43E25CE30E945C639B01AC01B8016D
:101890008D2F9C2F0E945C638B01D82FC92FF701DD
:1018A000B2ACC3ACD4ACF5AC98014D2F5C2F6B2D12
:1018B0007C2D8D2D9F2D0E94FA6087FFBBCF0B2DB5
:1018C0001C2DDD2DCF2DB6CF8091D40E9091AD186B
:1018D000981739F026E4829FC00111248B52914F52
:1018E000089590E080E008954F925F926F927F920A
:1018F0008F929F92AF92BF92CF92DF92EF92FF9220
:101900000F931F93CF93DF93CDB7DEB7C057D109A5
:101910000FB6F894DEBF0FBECDBF8CE1E8EFFBE160
:10192000DE01119601900D928A95E1F7BE016F5F7D
:101930007F4FCE014D960E947604BE016F5F7F4FB0
:10194000CE01C9960E9476048CE30E942D068091F8
:10195000E71D883009F44BC108F02FC1813009F42C
:101960004FC108F43FC1823009F44DC1843009F4FD
:1019700044C18091141D282F2170E22E80FF5CC18C
:101980008091F31D882309F457C18EE893E00E94EB
:10199000AF08CE014D960E94E40787E893E00E94CD
:1019A000AF08CE01C9960E94E40782E893E00E9446
:1019B000AF086091091E70910A1E80910B1E9091D4
:1019C0000C1E42E00E941E078EE793E00E94AF08C3
:1019D0008091351D0E947C088AE793E00E94AF0841
:1019E0006091861B7091871B8091881B9091891B49
:1019F0000E94C80785E793E00E94AF0860E070E0AE
:101A0000CB010E94C8078FE693E00E94AF0860E018
:101A100070E0CB010E94C80789E693E00E94AF08FE
:101A200060E070E0CB010E94C80784E693E00E946A
:101A3000AF086091041E70E090E080E00E94AC610D
:101A40000E94C8078FE593E00E94AF086091051ED1
:101A500070E090E080E00E94AC610E94C8078BE5D6
:101A600093E00E94AF086091FC1D70E090E080E080
:101A70000E94AC610E94C80786E593E00E94AF080F
:101A80006091FD1D70E090E080E00E94AC610E94DA
:101A9000C80782E593E00E94AF086091FE1D70E0E8
:101AA00090E080E00E94AC610E94C8078DE493E062
:101AB0000E94AF086091061E70E090E080E00E94F6
:101AC000AC610E94C80788E493E00E94AF0860916F
:101AD0000F1E70E090E080E00E94AC610E94C80799
:101AE00084E493E00E94AF086091FF1D70E090E0F5
:101AF00080E00E94AC610E94C80780E493E00E94ED
:101B0000AF086091001E70E090E080E00E94AC6140
:101B10000E94C8078BE393E00E94AF086091011E0A
:101B200070E090E080E00E94AC610E94C80787E30B
:101B300093E00E94AF086091081E70E090E080E0A2
:101B40000E94AC610E94C80782E393E00E94AF0844
:101B50006091031E70E090E080E00E94AC610E9402
:101B6000C8078DE293E00E94AF086091021E70E00A
:101B700090E080E00E94AC610E94C80789E293E097
:101B80000E94AF086091821B7091831B8091841B1F
:101B90009091851B40E00E941E0785E293E00E9421
:101BA000AF088091811B803109F498C0803209F41C
:101BB00025C1811196C085E392C08032D9F050F4DE
:101BC000803109F0D6CE8091E91D87FD13C08BEBE3
:101BD00093E00AC08034D1F0803809F0CACE85E99C
:101BE00093E002C088EC93E00E94AF08C2CE81EC83
:101BF00093E0FACF84EB93E0F7CF8DEA93E0F4CF54
:101C000087EA93E0F1CF81EA93E0EECF8BE993E0AE
:101C10000E94AF088091E91D83FF04C083E30E9406
:101C20002D06A7CE82FF06C085FF02C081E3F7CF55
:101C300080E3F5CF82E3F3CF4090E31B5090E41BA9
:101C40006090E51B7090E61B8BEAA82E8BE1B82E06
:101C50006E0185E5C80ED11C8E01075C1F4FF12C6B
:101C60004601F50161917191819191915F01208D02
:101C7000318D428D538D0E940560F6016193719301
:101C8000819391936F01F2E0FF1225C0A3019201AD
:101C90000E940560F4016087718782879387E11055
:101CA00016C0F60134972081318142815381F801B9
:101CB00060817181828193810E940460F801608358
:101CC000718382839383F6E0FF1609F45ECEF3946A
:101CD0000C5F1F4FC6CFEE2021F3F5CF83E30E94A8
:101CE0002D0681E293E00E94AF0880917D1B8A5C03
:101CF0000E947C088091141D81FF1EC08CE193E03E
:101D00000E94AF089091AD188091D40E981708F4F6
:101D100077C08D5D891B0E947C088CE20E942D0695
:101D200080915E0890915F08981708F46BC0981B2B
:101D3000892F80950E947C080E94640C009791F086
:101D4000FC01C2A0D3A0E4A0F5A0C114D104E10419
:101D5000F10441F087E193E00E94AF08C701B601AA
:101D60000E94640882E193E00E94AF088091E71D21
:101D70008C7709F44AC060914C1A70914D1A809189
:101D80004E1A90914F1A0E94C8078CE20E942D06AD
:101D90006091F41D7091F51D8091F61D9091F71DD5
:101DA00040E00E941E078091F31D882391F181502D
:101DB0008093F31D8091F21D8823E1F1815080937F
:101DC000F21D8EE30E942D060E947009C059DF4F5C
:101DD0000FB6F894DEBF0FBECDBFDF91CF911F913C
:101DE0000F91FF90EF90DF90CF90BF90AF909F90BA
:101DF0008F907F906F905F904F90089584E36FCFA6
:101E0000815088CF8150891B95CF60E070E0CB0175
:101E1000BACF8091E71D8C7759F08DE18093F31D47
:101E20008091F21D8111C6CF81E08093F21DC2CF57
:101E300089E0F4CF8091E71D8C7711F083E1BFCF6B
:101E400089E0BDCF0E94640C892B19F082E00C94CC
:101E5000D80308952F923F924F925F926F927F9294
:101E60008F929F92AF92BF92CF92DF92EF92FF92AA
:101E70000F931F93CF93DF9300D01F92CDB7DEB7A0
:101E80000091AD18002309F486C0098339813150CF
:101E900039831091D30E131709F466C0C32ED12CC9
:101EA000E6E43E9FC00111249C012B52314F790181
:101EB000F90172A483A494A4A5A466A577A580A91A
:101EC00091A99B01AC010E940560F70122A933A9E9
:101ED00044A955A90E945C63B62EE72EF82E9B8379
:101EE000262F372F482F592F672D782D892D9A2D82
:101EF0000E94FA6087FF03C0B72C7401AB8286E4AE
:101F00008C9DF0018D9DF00D1124EB52F14F8B2D26
:101F10009E2DAF2DBB8186A397A3A0A7B1A7F98162
:101F20008F2FF11101C084E2FF24FA94F80E309053
:101F3000D40E1F1133C0131102C00E94EA04E6E45C
:101F40001E9FC00111248B52914F9A8389833324A1
:101F50003394310EF4E23F1201C0312C86E4282E76
:101F6000031185C01093D30E0F900F900F900F9018
:101F7000DF91CF911F910F91FF90EF90DF90CF9065
:101F8000BF90AF909F908F907F906F905F904F9099
:101F90003F902F90089524E2298378CF298186E409
:101FA000289F900111242B52314F3C832B8326E430
:101FB000E22E8F2C912CFE9CC0011124FC01EB52CF
:101FC000F14FFA83E983F11002C094E2F92EFA94FA
:101FD000F31002C00E94EA04E89CC001E99C900D45
:101FE00011249C012B52314F6901F90142A453A4E1
:101FF00064A475A4A301920166A177A180A591A50F
:102000000E94FA60882339F1F60166A577A580A9B8
:1020100091A99B01AC010E940560F60122A933A998
:1020200044A955A90E945C63EB81FC8126A137A1DC
:1020300040A551A50E9405604B015C01AC019B01CC
:10204000C301B2010E941C63F60118165CF486A25B
:1020500097A2A0A6B1A629813A813C832B831F11A8
:10206000A8CF6DCF46A257A260A671A6F4CFC32C0D
:10207000D12C329CC00111249C012B52314F79018B
:10208000E981FA8146A057A060A471A4F90186A055
:1020900097A0A0A4B1A4A5019401C301B2010E941C
:1020A000FA6087FF26C0E981FA8166A577A580A935
:1020B00091A99B01AC010E940560E981FA8122A9E6
:1020C00033A944A955A90E945C63A30192010E940F
:1020D00005602B013C01AC019B01C501B4010E94CC
:1020E0001C63181634F4F70146A257A260A671A625
:1020F000132D2C9CF0012D9CF00D1124EB52F14F6F
:1021000022A533A544A555A566A177A180A591A5D3
:102110000E94FA60811101C0132D3394F4E23F1242
:1021200001C0312CFA82E9821BCF6F927F928F928D
:102130009F92AF92BF92CF92DF92EF92FF920F9356
:102140001F93CF93DF93EB018C015B018CE1A80E11
:10215000B11C89E9682E96E7792E26E9822E3EE7A2
:10216000932EC990D990E990F99020E030E0A90130
:10217000C701B6010E94FA608823B9F0A701960151
:10218000F80160817181828193810E9404616B01F9
:102190007C01E894F7F89301A401C701B6010E94FD
:1021A0001C63181614F0360147010C5F1F4FCA1547
:1021B000DB05B9F6B301C401DF91CF911F910F91F7
:1021C000FF90EF90DF90CF90BF90AF909F908F9057
:1021D0007F906F9008954F925F926F927F92AF922F
:1021E000BF92CF92DF92EF92FF920F931F93CF9304
:1021F000DF936C01FB015A01A081A80FB92FB11D1B
:102200008C91ED018D3249F5229611968C9101E069
:10221000512C612C10E020E030E0A9017E0190ED0E
:10222000792E780E89E0871528F16394A8E0A61529
:10223000E8F051101150A5E0B0E00E94DC649B0171
:10224000AC01220F331F441F551F270D311D411DA7
:10225000511D2196D7018C91E1CF8B3219F0219637
:1022600000E0D6CF229611968C91FACF5110F1CF83
:102270001F5FEFCFBEEF7B1205C0511003C0552486
:102280005394E7CF662009F17F01CA01B9010E948A
:10229000AC612B013C0120E030E0A9010E94FA6012
:1022A00081112EC0002309F448C077FA709477F8A2
:1022B0007094F5014082518262827382CC19DD09EB
:1022C000C150F701C08366246394862DDF91CF91BE
:1022D0001F910F91FF90EF90DF90CF90BF90AF9044
:1022E0007F906F905F904F9008952AE037ED43E222
:1022F0005CE3C301B2010E945C632B013C011E5FE1
:102300001F3F9CF31F3F59F42DEC3CEC4CEC5DE37C
:10231000C301B2010E945C632B013C01C3CF1123B6
:1023200009F220E030E040E251E4C301B2010E9432
:102330005C632B013C011150F2CFD5014D925D92AF
:102340006D927C921397BACF93B18091251D86FF31
:1023500017C09E77B9F094FB882780F995FD8260BD
:10236000292F207409F08460292F247092FD886041
:1023700091FD80612111806293FF05C08064089502
:102380009095E7CF80E00895EBE6F0E080818178DA
:102390008083E8E6F0E080818E7F8083089584B1B9
:1023A000817884B9809107018B7F809307018091A8
:1023B000080184608093080185B18E6785B980919A
:1023C000251D83FF16C080916B008E6780936B0084
:1023D0008091680081608093680084B7877F84BFA4
:1023E0008091600088618093600081E0809360004C
:1023F00008950E94C411F1CF27E030E090E0AC01D5
:10240000022E02C0559547950A94E2F7A09A40FF24
:1024100011C00000000000000000000000000000EB
:10242000000000000000A0980000000021503109C9
:1024300030F7089500000000A098000000000000A0
:102440000000000000000000000000000000EECFCF
:102450008091AC048823F1F180917A0080648093AC
:102460007A0080917A0086FDFCCF9091780080916F
:102470007900892798278927009721F0893E23E052
:1024800092075CF0109298041092990410929A04AA
:1024900010929B041092A2040895092E000CAA0B1E
:1024A000BB0B4091A7045091A8046091A9047091BE
:1024B000AA04840F951FA61FB71F8093A7049093AB
:1024C000A804A093A904B093AA048091AB048F5FE1
:1024D0008093AB04089568EF7BE18FE89BE10C9457
:1024E0007604F894F999FECF92BD81BD81E08FBB4F
:1024F00020B5862F8227082E000C990B50E08623EA
:102500009523892B49F084E16F3F11F060BD84E091
:102510008FBBF99A789408952617E1F360BD84E2A1
:10252000F7CF9F92AF92BF92CF92DF92EF92FF923E
:102530000F931F93CF93DF935C018A017B01E40E1D
:10254000F51EEB01912C6C01C61AD70ACE018C0D39
:102550009D1D21E0911007C0292D990C330B232FCD
:10256000221F2227221F6991962E920E0E9471121D
:10257000CE15DF0559F7692DC501800F911FDF9139
:10258000CF911F910F91FF90EF90DF90CF90BF9070
:10259000AF909F900C9471126AE090E080E00E94EE
:1025A000711247E451E060EA7CE181E090E00C9434
:1025B0009112F999FECF92BD81BD81E08FBB80B5AC
:1025C00008959F92AF92BF92CF92DF92EF92FF92C7
:1025D0000F931F93CF93DF935B018A017C01E40E7D
:1025E000F51EEC01912C6B01C81AD90AC6018C0F9B
:1025F0009D1F0E94D91221E0911007C0292D990C2E
:10260000330B232F221F2227221F982E920E8993ED
:10261000CE15DF0559F7C501800F911F0E94D91211
:1026200021E030E0891511F030E020E0C901DF91B0
:10263000CF911F910F91FF90EF90DF90CF90BF90BF
:10264000AF909F900895E9ECF0E080818F7E8083C9
:102650008081806180838091690E8093680EE8E6B6
:10266000FDE080E091E0DF019C011D9221503040AF
:10267000E1F70895EEEAF6E08CE3DF011D928A951A
:10268000E9F71092D40E1092AD1881E08093AD0658
:102690001092D30E0895CF93C82F80910201C130BC
:1026A00071F4806280930201809102018F7B80939C
:1026B00002010E94B404C093FF1DCF910895C2305F
:1026C00039F4806480930201809102018F7DEFCF05
:1026D0008F7B80930201809102018F7D80930201A4
:1026E00080910201877F80930201E5CF80E00E9404
:1026F000DE0480E00E94D20480E00E94C604A59817
:1027000080E00E94BA04E2E0F1E080818F7D808366
:1027100080818F7B808310988B985F988081877FE2
:10272000808308954F925F926F927F92AF92BF9293
:10273000CF92DF92EF92FF920F931F93CF93DF938D
:10274000EC015C012CE1A20EB11C8C01C12CD12C3E
:102750007601F80141905190619071908F0120E0D5
:1027600030E0A901C301B2010E94FA60882371F030
:10277000A3019201C301B2010E945C639B01AC0101
:10278000C701B6010E9405606B017C010A151B059B
:1027900001F7C701B6010E94FB636B017C01AC012C
:1027A0009B0160E070E080E89FE30E9404612B01E0
:1027B0003C0169917991899199915E01F4E0AF1A98
:1027C000B108A30192010E945C63F50160837183EB
:1027D00082839383C017D10761F7C701B601DF91E8
:1027E000CF911F910F91FF90EF90DF90CF90BF900E
:1027F000AF907F906F905F904F9008954F925F924F
:102800006F927F928F929F92AF92BF92CF92DF9200
:10281000EF92FF926B017C018090211D9090221D10
:10282000A090231DB090241D40901D1D50901E1D92
:1028300060901F1D7090201DA3019201C501B4017D
:102840000E941C6387FF1BC06091F01D70E090E048
:1028500080E00E94AE612AE037ED43E25CE30E9433
:102860005C63A70196010E945C636B017C01AC0173
:102870009B01C301B2010E94FA601816BCF040929D
:10288000F41D5092F51D6092F61D7092F71D80E0C8
:1028900094E0FF90EF90DF90CF90BF90AF909F902B
:1028A0008F907F906F905F904F900895A701960151
:1028B000C501B4010E941C6387FD1FC020E030E009
:1028C000A901C701B6010E94FA6081110BC01092E4
:1028D000F41D1092F51D1092F61D1092F71D90E058
:1028E00080E0D7CF8092F41D9092F51DA092F61D46
:1028F000B092F71D81E090E0CCCFC092F41DD09251
:10290000F51DE092F61DF092F71DA5019401C70197
:10291000B6010E94046020916B0E30916C0E4091C4
:102920006D0E50916E0E0E945C630E94E96120E082
:1029300030E040E85FE30E9405600E947D61CB01CA
:10294000A8CF2F923F924F925F926F927F928F9279
:102950009F92AF92BF92CF92DF92EF92FF920F932E
:102960001F93CF93DF93CDB7DEB7C054D1090FB615
:10297000F894DEBF0FBECDBF8091EB1D80FD75C208
:102980009091AE188091AF18981709F46EC280919B
:10299000661A9091671A892B09F07EC01091EB1D81
:1029A00012FF7DC28091AD1826E4829FC0011124E0
:1029B0008B52914F9093671A8093661A4091661AD2
:1029C0005091671A5E834D83452B09F44EC20091E6
:1029D000361A00FF67C21092361A1092481A1092E7
:1029E000491A10924A1A10924B1AAD81BE819E96D6
:1029F0002D913D914D915C91D19729833A834B83E1
:102A00005C8360E070E080E09FE30E94046169877E
:102A10007A878B879C87ED81FE8142A853A864A8A2
:102A200075A886A097A0A0A4B1A411FF29C3F2E0C5
:102A3000F093471AA50194010E945C639B01AC01CD
:102A4000C301B2010E9404606B017C0120E030E010
:102A5000A9010E94FA6087FF02C329813A814B8154
:102A60005C81CA01B9010E940560A30192010E9424
:102A70005C639B01AC01C501B4010E9404600E942B
:102A8000FB636093541A7093551A8093561A90936F
:102A9000571A18601093EB1DE0910019F8E0EF9FB2
:102AA000D0011124BA87A987FD01E055F74E809126
:102AB000351A84834090661A5090671AD201D296D4
:102AC000BC91BEA3F201F3A9FFA3D201D496BC919D
:102AD000B8A7F201F5A9F9A72091431A3091441A39
:102AE0004091451A5091461A6EA17FA18B2F9F2FBE
:102AF0000E9404606AAB7BAB8CAB9DAB20E030E006
:102B0000A9010E94FA6087FF04C01AAA1BAA1CAA86
:102B10001DAA2091581A2E8B3091591A3F8B409143
:102B20005A1A488F50915B1A598F8091501A8E8F84
:102B30009091511A9F8FA091521AA8A3B091531A45
:102B4000B9A3E0915C1AEAA7F0915D1AFBA7209166
:102B50005E1A2CA730915F1A3DA740914C1A4FAFD7
:102B600050914D1A21965FAF219760904E1A709048
:102B70004F1A8091471A89839091481A9EA7A09175
:102B8000491AAFA7B0914A1AB8ABE0914B1AE9AB1A
:102B9000F091541AFBAF2091551A2CAF3091561A70
:102BA0003DAF4091571A4EAF2AA53BA54CA55DA558
:102BB0006E897F89888D998D0E94FA608111EFC39B
:102BC00052E05EAB9EA19D83AFA1AD87B8A5B98B46
:102BD000E9A5ED8B8EE3C82E83ECD82E8EE2E82E8D
:102BE00089E3F82E1A8E1B8E1C8E1D8EA70196016E
:102BF0002AA33BA34CA35DA33981313009F449C416
:102C0000D201313008F4D3C3333009F075C49E9635
:102C10002D913D914D915C91D197C701B6010E94D4
:102C20005C634B015C0120E030E040E05FE30E9428
:102C30005C639B01AC016FAD21967FAD2197C30111
:102C40000E940460A70196010E945C636FAB78AF9D
:102C500089AF9AAF9B01AC016D817D8589899D8982
:102C60000E9404601B018C012E893F89488D598D7B
:102C70000E94FA6087FD0CC020E030E0A9016FA936
:102C800078AD89AD9AAD0E94FA6018160CF472C442
:102C90002E893F89488D598D6EA17FA188A599A560
:102CA0000E9404609B01AC010E9405606B017C01E5
:102CB0002E8D3F8D48A159A16FAD21967FAD2197F3
:102CC000C3010E9405609B01AC01C701B6010E94CF
:102CD00004616B017C01BE8DBFAFEF8D2196EFAF1C
:102CE000219768A079A02E883F88088D198DF1E082
:102CF000F983A70196016A8D7B8D8C8D9D8D0E9435
:102D000005606A8F7B8F8C8F9D8F2AA13BA14CA180
:102D10005DA10E94FA6087FF67C42A8D3B8D4C8DB0
:102D20005D8D6AA17BA18CA19DA10E9404606B01B5
:102D30007C019101A8016EA57FA588A999A90E948F
:102D4000FA6087FD2FC38FAD21969FAD2197D301E8
:102D500080934C1A90934D1AA0934E1AB0934F1A29
:102D6000F981F093471AE0910119F091021981A1BC
:102D7000811104C09091EB1D93FF33C0D201919655
:102D80009C91907309F45EC4F201EE5BFF4FC0802A
:102D9000D180E280F3808823B9F02091601A3091CD
:102DA000611A4091621A5091631A6FAD21967FADFE
:102DB0002197C3010E945C639B01AC01C701B6016E
:102DC0000E945C636B017C01C701B6010E94FE1387
:102DD0009093651A8093641A8091EB1D877F80938E
:102DE000EB1D8091641A9091651AE985FA85E0558A
:102DF000F74EFE83ED839783868320913F1A3091AF
:102E0000401A4091411A5091421AB101C8010E94E2
:102E10005C632B013C010E94E3606B017C016091CB
:102E20003B1A70913C1A80913D1A90913E1A0E9473
:102E3000E3604B015C01A70196010E9404600E94BF
:102E40007D6169837A838B839C83E981FA81AD817B
:102E5000BE81ED93FC93EF2B09F001C48091EB1D33
:102E600081FFFDC381608093EB1DC05CDF4F0FB617
:102E7000F894DEBF0FBECDBFDF91CF911F910F91B0
:102E8000FF90EF90DF90CF90BF90AF909F908F908A
:102E90007F906F905F904F903F902F9008950E9489
:102EA000640C88CD8091351A8F5F893009F480E0F9
:102EB0008093351A282F30E052E2859FC0011124FB
:102EC000DC01AD5FB64E7D01B0930219A0930119EC
:102ED000ED81FE8180A190968C9390E080E04191FD
:102EE000519161917191D701A80FB91F689412F89F
:102EF000440F551F661F771F1694D1F74D935D93AE
:102F00006D937C93139704968C31910541F7AD81B5
:102F1000BE815C966D917D918D919C915F97B2E29F
:102F2000B29FA001B39F500D1124FA01ED5FF64E40
:102F30004B015C0123E0880C991CAA1CBB1C2A9540
:102F4000D1F7848E958EA68EB78E0E94AC61609369
:102F50003B1A70933C1A80933D1A90933E1AED8170
:102F6000FE8122A933A944A955A90E9404619B01AD
:102F7000AC0120933F1A3093401A4093411A50936A
:102F8000421A60E070E080EA9FE30E94046160936F
:102F9000431A7093441A8093451A9093461A1092DC
:102FA000371A1092381A1092391A10923A1A11FDE3
:102FB00002C003FF43C06091541A7091551A80916A
:102FC000561A9091571A60934C1A70934D1A809329
:102FD0004E1A90934F1A9B01AC010E945C63AD8125
:102FE000BE8196966D937D938D939C939997077F61
:102FF0000093361AD70191961C928091251D81FF6E
:10300000ECCCED81FE8181A185FFE7CCFE9620818D
:1030100031814281538160E070E080E89FE30E944B
:1030200004616093601A7093611A8093621A90939E
:10303000631AE1E0D7019196EC93CFCCED81FE814C
:1030400066A177A180A591A50E94FB6360934C1AAD
:1030500070934D1A80934E1A90934F1ACBCFC09213
:10306000481AD092491AE0924A1AF0924B1A1092DA
:10307000541A1092551A1092561A1092571A09CDD6
:103080001092471A4092581A5092591A60925A1A3E
:1030900070925B1A12FF6AC01092541A1092551A5D
:1030A0001092561A1092571AC12CD12C76018D818C
:1030B0009E810E94EF0B698B7A8B8B8B9C8B9B0183
:1030C000AC010E945C636D837E838F839887A5012A
:1030D00094010E94FA6087FF93C02D813E814F8149
:1030E0005885C501B4010E94046029853A854B8545
:1030F0005C850E945C639B01AC01C301B2010E942C
:1031000004606093581A7093591A80935A1A9093D6
:103110005B1A20E030E0A9010E94FA6018160CF456
:1031200049C032E03093471A29813A814B815C8152
:10313000CA01B9010E940560A30192010E945C636B
:103140009B01AC01C501B4010E9404600E94FB63B5
:103150006093541A7093551A8093561A9093571A85
:103160008091361A88608093361A93CCE091D40E01
:10317000EF5FE43209F4E0E08091AD18C12CD12C6E
:1031800076018E1751F026E42E9FF0011124EB52A8
:10319000F14FC6A0D7A0E0A4F1A4C701B6010E94D8
:1031A000FB636093541A7093551A8093561A909348
:1031B000571A7DCFA70196016D817E818F819885F9
:1031C0000E94046029853A854B855C850E945C637A
:1031D00060935C1A70935D1A80935E1A90935F1AE5
:1031E00089899A89AB89BC898093501A9093511A26
:1031F000A093521AB093531A93E09093471A49CC74
:10320000A7019601C501B4010E94046029853A8591
:103210004B855C850E945C63A30192010E9405605E
:1032200020E030E040E05FE30E945C636D877E87D2
:103230008F87988B20E030E0A9010E941C6318164C
:103240000CF094C0A30192016D857E858F859889CD
:103250000E94FA6087FF88C0A70196016D817E8178
:103260008F8198850E94046029853A854B855C850D
:103270000E945C639B01AC0120935C1A30935D1A41
:1032800040935E1A50935F1A6D857E858F8598896D
:103290000E941C631816BCF529893A894B895C8900
:1032A0002093501A3093511A4093521A5093531A44
:1032B000A50194016D817E818F8198850E94FA60BD
:1032C000811104C031E03093471AE3CBA50194018A
:1032D0006D817E818F8198850E94046029853A8561
:1032E0004B855C850E945C639B01AC01C301B2010C
:1032F0000E9404606093581A7093591A80935A1A66
:1033000090935B1AC6CB8D859E85AF85B8898093D7
:10331000581A9093591AA0935A1AB0935B1A809333
:103320005C1A90935D1AA0935E1AB0935F1A29817C
:103330003A814B815C81CA01B9010E9405602D85EB
:103340003E854F8558890E945C63A70196010E94C3
:1033500005600E94FB636093501A7093511A80932A
:10336000521A9093531A95CB92E047CF8091541AFA
:103370009091551AA091561AB091571A1092581A56
:103380001092591A10925A1A10925B1A8093501A7E
:103390009093511AA093521AB093531A7ACB81E0AA
:1033A0008EAB10CC2D823D86098B1D8B25CC9E9635
:1033B0002D913D914D915C91D197C701B6010E942D
:1033C0005C634B015C0120E030E040E05FE30E9481
:1033D0005C632FAD21963FAD2197A3010E9405604C
:1033E000A70196010E945C639B01AC016D817D8504
:1033F00089899D890E9404601B018C019B01AC019D
:103400006E897F89888D998D0E941C63181694F5AA
:103410002E893F89488D598D6EA17FA188A599A5D8
:103420000E9404609B01AC010E9405606B017C015D
:103430002E8D3F8D48A159A16FAD21967FAD21976B
:10344000C3010E9405609B01AC01C701B6010E9447
:1034500004616B017C01BEA9B983EE8DEFAFFF8DD6
:103460002196FFAF219768A079A02E883F88088D0C
:10347000198D3FCCA50194016FAD21967FAD2197A9
:10348000C3010E9405606FAF21967FAF21973C0179
:1034900030CC2E8D3F8D48A159A1C701B6010E94A5
:1034A0005C639B01AC016D817D8589899D890E944A
:1034B00004601B018C012AA53BA54CA55DA50E94BB
:1034C000FA6087FF16CC2AA53BA54CA55DA56D81AA
:1034D0007D8589899D890E9404602E8D3F8D48A13C
:1034E00059A10E9404616B017C012AA43BA40CA594
:1034F0001DA522E02983FDCB9E962D913D914D91F6
:103500005C91D197C701B6010E945C634B015C01DD
:10351000AC019B016FAD21967FAD2197C3010E9445
:103520001C6318168CF520E030E040E05FE3C50135
:10353000B4010E945C639B01AC016FAD21967FAD2D
:103540002197C3010E940460A70196010E945C6359
:103550009B01AC016D817D8589899D890E940460F4
:103560001B018C012EA53FA548A959A90E941C63E7
:10357000181654F4A50194016FAD21967FAD2197E3
:10358000C3010E9404607FCF2EA53FA548A959A979
:103590006D817D8589899D890E9404609B01AC01B4
:1035A0000E9405606B017C012BAD3CAD4DAD5EAD65
:1035B0006FAD21967FAD2197C3010E9405609B01ED
:1035C000AC01C701B6010E9404616B017C01BBAD77
:1035D000BFAFECAD2196EFAF21976DAC7EAC2EA4C2
:1035E0003FA408A919A985CB2AA93BA94CA95DA983
:1035F000B101C8010E941C6318169CF42EE333EC41
:103600004EE259E36AA17BA18CA19DA10E940560B5
:103610006AA37BA38CA39DA32A8D3B8D4C8D5D8DCE
:1036200084CB8FAD21969FAD2197D30180934C1A07
:1036300090934D1AA0934E1AB0934F1A298120935C
:10364000471A91CB1092F41D1092F51D1092F61DA1
:103650001092F71D1092651A1092641ABDCB20913A
:10366000371A3091381A4091391A50913A1A6A8DA6
:103670007B8D8C8D9D8D0E9405606D837E838F83F5
:103680009887A3019201C501B4010E9404609B01C7
:10369000AC016D817E818F8198850E9404614B0110
:1036A0005C0120EC31EE44E65EE40E945C630E9423
:1036B000E3600E947D61E985FA85E055F74E603D43
:1036C00037E073078105910508F054C01582E9853C
:1036D000FA85E055F74E738362838091AF1880932B
:1036E00000198F5F8A3009F47BC08093AF18E09196
:1036F000661AF091671AC101D80182AB93ABA4ABF3
:10370000B5ABC0923B1AD0923C1AE0923D1AF092AF
:103710003E1AA3019201C701B6010E940460A501EF
:1037200094010E945C636093371A7093381A8093F7
:10373000391A90933A1A2091481A3091491A4091B7
:103740004A1A50914B1AB101C8010E94FA608111C6
:1037500017C99091EB1D998320E030E0A901B101D8
:10376000C8010E941C631816F4F5A981A160A093FA
:10377000EB1D7BCB603A4FE074078105910520F586
:1037800051E05583E985FA85E055F74E2581022EF3
:1037900004C096958795779567950A94D2F74981E5
:1037A0005A8102C0440F551F2A95E2F75183408386
:1037B0006115710551E08507910508F488CF8FEFF9
:1037C0009FEF9383828389CF6034AFE17A078105CD
:1037D000910518F4B2E0B583D5CF23E02583D2CF8D
:1037E0001092AF1884CFB981B2FF04C0B160B0931A
:1037F000EB1D3BCB1092671A1092661A9091D40E73
:103800008091AD18891709F4BBC881E0890F843213
:1038100009F480E02091D30E921302C08093D30E5E
:103820008093D40EADC8019708F40895EFE9FFE046
:103830003197F1F700C00000F6CF80916F008D7FC7
:1038400080936F0080918100887F816080938100E8
:1038500010928F0E8091131D9091E71D8F3F49F4B8
:1038600020916E1B211105C0903829F490E00C9432
:10387000131C9430D9F70895CF93DF930E941D1C39
:10388000E5E3FAE181E3DF011D928A95E9F7C0E9FA
:10389000DEE083E4FE0111928A95E9F71092671A3F
:1038A0001092661A1092AE181092001981E080935F
:1038B000AF1810928F0E0E94680580918E0E8F8F28
:1038C00082B1817090918D0E892B82B988B18170FF
:1038D00090918E0E892B88B9DF91CF910895AF9288
:1038E000BF92DF92EF92FF920F931F93CF93DF93DC
:1038F000EC01FC0127E08FEF9FEF215019F5E82E36
:10390000D92E85E0F82E5E0186E0A80EB11C8E014E
:10391000F80181918F010E94FB05A016B106C1F745
:103920008E2D0E94FB058D2D0E94FB0584E690E004
:103930000E94131C0E94AA058F3FB9F4FA94F1105B
:10394000E6CF37C03191832748E050E0BC01617079
:10395000772796958795672B21F031E0832730EA0A
:1039600093274150510991F7C8CF98819813E2CF1E
:103970000E94AA0599818913DDCF0E94AA059A8128
:103980008913D8CF0E94AA059B818913D3CF0E94A7
:10399000AA059C818913CECF0E94AA059D81891317
:1039A000C9CF0E94AA05E812C5CF0E94AA058D11B1
:1039B000C1CFDF91CF911F910F91FF90EF90DF90DA
:1039C000BF90AF900895CF93DF9300D000D0CDB7D4
:1039D000DEB78091251D81FF0EC08091A0008F7DF4
:1039E0008093A00026960FB6F894DEBF0FBECDBF21
:1039F000DF91CF91089586E0E9E0F2E0DE011196D3
:103A000001900D928A95E1F7CE0101960E946F1CFC
:103A1000E9CFCF92DF92EF92FF92CF93DF9300D066
:103A200000D0CDB7DEB79091E81D911110C06A01AA
:103A30007B01811119C01092F41D1092F51D109296
:103A4000F61D1092F71D0E94E31C1092F21D26969F
:103A50000FB6F894DEBF0FBECDBFDF91CF91FF90C0
:103A6000EF90DF90CF9008959091251D9270803156
:103A700081F486E0EFE0F2E0992381F08091251D4A
:103A800081FF17C0C701B6010E94FE130E942005E6
:103A9000DCCF9111F3CF86E0E5E1F2E0DE01119693
:103AA00001900D928A95E1F7CE0101960E946F1C5C
:103AB000E5CF20E030E040EC50E4C701B6010E94C1
:103AC00004610E947D6181E0898386E08A8380EFC2
:103AD0008B8388E08C837D836E83CE0101960E9468
:103AE0006F1CB3CFE1E0F1E080818061808383E0EF
:103AF0008093A0008AE18093A10080E094E09093FD
:103B0000A9008093A8002091211D3091221D409191
:103B1000231D5091241D60911D1D70911E1D8091CB
:103B20001F1D9091201D0E9404609B01AC0160E06C
:103B300070EC8FE794E40E94046160936B0E7093C5
:103B40006C0E80936D0E90936E0E0C94E31C2F926E
:103B50003F924F925F926F927F928F929F92AF921D
:103B6000BF92CF92DF92EF92FF920F931F93CF936A
:103B7000DF93CDB7DEB766970FB6F894DEBF0FBE02
:103B8000CDBF4C018DB79EB79E8B8D8B662359F0B0
:103B900010925D07EAEEF6E083E7DF011D928A9559
:103BA000E9F70E94231380911B0290911C02A091BF
:103BB0001D02B0911E02898B9A8BAB8BBC8B8E0140
:103BC0000F5E1F4F7E01B5E1EB0EF11CF8018191F4
:103BD0008F010E9414060E151F05C1F784E190E0C5
:103BE0000E94131CF12CE12CADB6BEB685E090E02E
:103BF0000E94131C0E94D1058A3A09F454C08F3FD9
:103C000019F0F1E0EF1AF1080FB6F894BEBE0FBE3E
:103C1000ADBE9FEFE91AF90AA4E6EA16F10421F70E
:103C200080911F0290912002A0912102B091220266
:103C300089839A83AB83BC838E010F5F1F4F7E0104
:103C4000B5E0EB0EF11CF80181918F010E94140682
:103C50000E151F05C1F790915D07EAEEF6E081E0D1
:103C60008F019111ADC0ED89FE890FB6F894FEBFAA
:103C70000FBEEDBF66960FB6F894DEBF0FBECDBF88
:103C8000DF91CF911F910F91FF90EF90DF90CF9038
:103C9000BF90AF909F908F907F906F905F904F906C
:103CA0003F902F9008950E94D105782E082F10E0A4
:103CB0008DB79EB7801B910B0FB6F8949EBF0FBEB9
:103CC0008DBFADB7BEB711966D01672DCD010E94B6
:103CD000BB050C0D1D1DF80131978081853509F05C
:103CE00093CFB5E17B1290CFF601048180E1349649
:103CF000DE01119601900D928A95E1F7D601169694
:103D00002D903D904D905C90199710915D078AEE33
:103D1000682E86E0782ED12CC12CC11600F115300A
:103D200009F472CF87E1819FD0011124FD01E65192
:103D3000F94F2082318242825382048381E090E0F5
:103D4000968B858BA151B94F80E1FE013196019090
:103D50000D928A95E1F71F5F10935D0755CFF30130
:103D60002081318142815381C201B1010E94FA60F8
:103D7000811113C0D30114968C9108130EC0B7E1C2
:103D8000BC9DF001BD9DF00D1124E651F94F8589D0
:103D900096890196968B858B37CFEFEFCE1ADE0A88
:103DA000F7E16F0E711CB9CF44A555A5D801559602
:103DB0002D913C9177962417350708F48F018F5F7A
:103DC0009813F2CF0115110509F44DCFF80185893B
:103DD0009689409738F080E13596D40101900D9294
:103DE0008A95E1F7D80114968C910E947C088EE4A4
:103DF00093E00E94D20BF8016081718182819381EE
:103E000043E00E941E078EE493E00E94D20BD8018B
:103E100055966D917C9190E080E00E94FD078EE4C4
:103E200093E00E94D20B1FCF2F923F924F925F924E
:103E30006F927F928F929F92AF92BF92CF92DF92BA
:103E4000EF92FF920F931F93CF93DF93CDB7DEB71F
:103E50002F970FB6F894DEBF0FBECDBF082F4B01D2
:103E60006DB67EB68CE0E3E2F2E0DE0111960190E1
:103E70000D928A95E1F70E94231310E0180184E067
:103E8000220C331C8A95E1F723E02D872E013DE0BB
:103E9000430E511CF101E057F24EFF87EE8781017E
:103EA0000F56124E9E012F5F3F4F7901F70181910E
:103EB0007F010E941406E414F504C1F7F12CE12CF3
:103EC000F101EE0DFF1DEE57F24E80810E941406A7
:103ED000FFEFEF1AFF0A2EE0E216F10489F7EE85F4
:103EE000FF85E080F8018081FE2CE82EE80CF91CAB
:103EF0008F2D0E941406FE2DFF70EF2E8F2F0E9433
:103F0000140685E50E941406EE85FF85F082F8010F
:103F1000E08284E690E00E94131C0E94D1058A3A58
:103F200019F50E94D105CDB6DEB6A82EB12C2DB75D
:103F30003EB72A193B090FB6F8943EBF0FBE2DBFFE
:103F4000EDB7FEB731967F01682FCF010E94BB0508
:103F5000EA0CFB1CF70131978081853559F00FB6CB
:103F6000F894DEBE0FBECDBEFD85F150FD87F11188
:103F700099CF05C00FB6F894DEBE0FBECDBE0FB60A
:103F8000F8947EBE0FBE6DBE2F960FB6F894DEBFBE
:103F90000FBECDBFDF91CF911F910F91FF90EF909A
:103FA000DF90CF90BF90AF909F908F907F906F9059
:103FB0005F904F903F902F900895CF93C82F83EE3E
:103FC00092E00E94AF088C2F0E947C080E9470092A
:103FD00084EF91E0CF910C94131C4F925F926F92FB
:103FE0007F928F929F92AF92BF92CF92DF92EF9289
:103FF000FF920F931F93CF93DF9380916E1B8823C3
:1040000051F091E09093E71D0E94DD1F8FB7F89467
:1040100010926E1B8FBFC0916D1BCC2309F4DBC0C7
:10402000C4FF14C081E08093E81DDF91CF911F9100
:104030000F91FF90EF90DF90CF90BF90AF909F9047
:104040008F907F906F905F904F900895C0FF05C054
:104050000E94740C81E00E94CE038C2F887E09F4AC
:104060006AC08091E71D982F937009F053C0887241
:10407000A9F08091E91D807C89F40E94EA0482E025
:104080008093EB1D8091E71D803241F480E2C7FDF3
:104090000CC08091E91D80688093E91D8091E71D27
:1040A000811103C091E09093E91DC6FF07C085FD13
:1040B00005C09091E91D90649093E91DC3FF05C070
:1040C000807E19F480E18093E71DC5FF23C08EE553
:1040D00095E00E94AF0882E295E00E94AF080E943E
:1040E0008C0B8091E91D87FD10C09091E71D9034E5
:1040F00051F483FF04C0837E82608093E91D80E4D5
:104100008093E71D02C09038D1F78091E91D80624D
:104110008093E91DC7FF0CC08091E71D813029F411
:104120008091E91D85608093E91D80E88093E71DFB
:1041300088EE0E94CE03C1FF28C08C2F887611F52F
:104140008091E71D803441F48091E91D85FD04C014
:1041500084FFF4C01092E71D8091E71D882309F4C5
:10416000F3C084FF0FC09091E91D90FF0BC0803118
:1041700009F0EAC08091F11D882309F4E5C0886048
:104180008093F11D82E00E94CE03C2FF24C0909173
:10419000E91D8091E71D807D09F4EFC08091EA1D43
:1041A0008111EBC097FDEBC00E94EA048091D40E10
:1041B0008093D30E0E942A0F8091EB1D81FF05C0D2
:1041C0009091E91D91609093E91D897F8093EB1D8B
:1041D00084E00E94CE0390916F1B992309F44DC097
:1041E0008FB7F89410926F1B8FBF4091EE1D842FF4
:1041F00090FD84E691FD865F92FD8A5093FD8F5F6E
:1042000094FD8150893C08F088EC8A3008F48AE0FB
:104210003091EF1D232F95FD24E696FD22E397FDB7
:1042200029E1481302C0231741F18093EE1D20932A
:10423000EF1D1092F21D8090D40E4090AD18C82D45
:1042400089E9B82E96E7E92E26E9F22EDEE736E474
:10425000532EC411AFC08B2D9E2DAF2DBD2F80933B
:10426000E6069093E706A093E806B093E9060E945D
:10427000EA048092D30E0E942A0F9091701B99231A
:1042800009F445C08FB7F8941092701B8FBF20912E
:10429000F01D822F90FD84E691FD865F92FD8A508D
:1042A00093FD8F5F94FD8150893C08F088EC8A3043
:1042B00008F48AE0281749F02091EB1D286020932C
:1042C000EB1D8093F01D1092F21D8091E71D95FF6C
:1042D00009C0803139F42091F11D2111C0C022E0C4
:1042E0002093F11D292F207C91F0882311F08871F3
:1042F00071F08091801B97FF03C087FFB4C08F7758
:1043000096FF03C086FFB1C08F7B8093801B809196
:10431000E71D8C7F09F489CEDF91CF911F910F911A
:10432000FF90EF90DF90CF90BF90AF909F908F90D5
:104330007F906F905F904F900C94A11482FF0CCFF0
:1043400088608093E91D08CF1092EB1D0E94640CD9
:10435000892B71F08091E91D86FD0AC01092E91D3C
:1043600088E08093E71D0E94A1140E940E050ACFE9
:104370001092E91D1092E71D05CF97FF0AC0109219
:10438000EB1D0E943A130E943C1C0E946B120E947B
:10439000DE0B8091E91D85FF08C08F7781608093D7
:1043A000E91D80E48093E71D13CF1092E91D109260
:1043B000E71D0ECFCC2ED12CC59DC00111248B52F0
:1043C000914F0E94EF0B3B01982EA92E2B2D3E2DD5
:1043D0004F2D5D2F0E941C635C9C80015D9C100D25
:1043E00011240B52114F18169CF52B2D3E2D4F2DDD
:1043F0005D2F6B2D7E2D8F2D9D2F0E945C63F8010C
:1044000062A773A784A795A75C9C80015D9C100D93
:1044100011240B52114FF801C6A8D7A8E0ACF1AC9B
:10442000A701960162A573A584A595A50E941C63AA
:1044300018162CF4F801C2A6D3A6E4A6F5A6CF5F01
:10444000C43209F4C0E0B62CE72CF92CDA2D01CFE8
:104450009301492D5A2DB301892D9A2DCECF20FFDE
:1044600041CF24603DCF80684BCF80644ECFCF9248
:10447000DF92EF92FF920F931F93CF93DF930E94EF
:10448000ED1F8091E91D882309F460C00E94640C2F
:104490000097D1F5C091811B8091801BC82BC090E3
:1044A000821BD090831BE090841BF090851B809131
:1044B000251D81FF03C080E20E94B603C073D1E0D6
:1044C0008091E91D882309F441C09091E81D911164
:1044D0003DC080FF16C09091E71D292F207C09F474
:1044E00084C082FD1BC01092F11D40E050E0BA0173
:1044F00080E00E94091D8091E91D8D7F846080937A
:10450000E91D0E94ED1FDCCFFC01C1A18E5B9F4F16
:10451000FC01C080D180E280F380C9CF903811F5D2
:104520008EE595E00E94AF0889ED94E00E94AF0807
:104530000E948C0B40E050E0BA0180E00E94091D0F
:104540000E941D1C8091E81D882349F0DF91CF91C6
:104550001F910F91FF90EF90DF90CF9008950E94F0
:10456000ED1FF0CF903429F4909106018F7D809358
:10457000E91D8091E91D83FFC4CF9091811B992390
:1045800059F081FDBECF8091251D81FF10C0809123
:10459000EB1D88608093EB1D8091E91D81FDB1CFFB
:1045A00080618093E91D82E00E94D803AACFB70101
:1045B000A6018C2F0E94091D01E510E00150110990
:1045C00059F38091E81D8111E7CF0E94ED1F809182
:1045D000E91D81FD96CFFFEF20E782E0F1502040FA
:1045E0008040E1F700C00000E9CF8091F11D8823F1
:1045F000C9F181FF0DC08091811B882351F140E0FA
:1046000050E0BA0180E00E94091DD093F11D79CFDE
:104610008C7009F476CF8091811B882399F08EE508
:1046200095E00E94AF0882EE94E00E94AF080E94DD
:104630008C0B8091251D81FF0FC08091EB1D886040
:104640008093EB1D8091F11D83FF03C082E00E94E7
:10465000D8031092F11D55CFB701A6018C2F0E94EF
:10466000091DF0CF8091EB1D83FF4BCFB701A60151
:104670008C2F0E94091D8091EB1D877F8093EB1D7D
:1046800040CF0E94220F0E9437228091E81D8111A5
:1046900008C00E94640C892BB1F78091E71D883017
:1046A00091F308950E9441231092F31D0895CF9233
:1046B000DF92EF92FF92CF939091E71D923079F0C5
:1046C0006A017B01C82F0E944123B701A6018C2FEC
:1046D000CF91FF90EF90DF90CF900C94091DCF9178
:1046E000FF90EF90DF90CF9008950F931F93CF939B
:1046F000DF938B0121E031E0829FE001839FD00DA9
:104700001124DD5F40E051E0BE01C8010E94E112CA
:10471000892B81F4F80110820E94412340E051E08E
:10472000B801CE010E94911280E0DF91CF911F91DC
:104730000F91089581E0F9CF0F931F93CF93C82F66
:104740008B010E9441232DE1C29FC00111244CE145
:1047500050E0B8019E5FCF911F910F910C94911280
:104760001F93CF93DF93182FEB018DE1189FB001BA
:1047700011247E5F4CE150E0CE010E94E112892BB2
:1047800071F48CE1FE0111928A95E9F7BE01812F47
:104790000E949C2380E0DF91CF911F91089581E0DA
:1047A000FACF4F925F926F927F928F929F92AF92C9
:1047B000BF92CF92DF92EF92FF920F931F93CF930E
:1047C000DF93CDB7DEB76C970FB6F894DEBF0FBEA0
:1047D000CDBF182F80FF31C28AE08093101D89E180
:1047E0008093131D1092111D82E08093121D8093FF
:1047F000141D8AE097EDA3E2BCE38093151D90930E
:10480000161DA093171DB093181D8FE692E1A3E02B
:10481000BBE38093191D90931A1DA0931B1DB093A9
:104820001C1D80E090E0AFE7B3E480931D1D9093E2
:104830001E1DA0931F1DB093201D1092211D1092CC
:10484000221D1092231D1092241D1092261D80E01F
:1048500090E0A8ECB1E48093271D9093281DA093CD
:10486000291DB0932A1D80E090E0A6E1B4E4809376
:104870002B1D90932C1DA0932D1DB0932E1D8AEF00
:1048800090E09093301D80932F1D80E090E0A0E099
:10489000B0E48093311D9093321DA093331DB093EB
:1048A000341D88E18093251D80E090E0A8ECB3E4FE
:1048B0008093A01C9093A11CA093A21CB093A31C56
:1048C0008093A41C9093A51CA093A61CB093A71C36
:1048D0008093A81C9093A91CA093AA1CB093AB1C16
:1048E00080E090ECAAE5B5E48093BC1C9093BD1CDD
:1048F000A093BE1CB093BF1C8093C01C9093C11C9E
:10490000A093C21CB093C31C8093C41C9093C51C7D
:10491000A093C61CB093C71C80E098ECAFEAB9E442
:104920008093D81C9093D91CA093DA1CB093DB1C05
:104930008093DC1C9093DD1CA093DE1CB093DF1CE5
:104940008093E01C9093E11CA093E21CB093E31CC5
:1049500080E090E0A8ECB3EC8093F41C9093F51CFD
:10496000A093F61CB093F71C8093F81C9093F91C4D
:10497000A093FA1CB093FB1C8093FC1C9093FD1C2D
:10498000A093FE1CB093FF1C80E090E0ACE5B2EC7D
:1049900080933E1D90933F1DA093401DB093411DF9
:1049A0001092421D1092431D1092441D1092451DFD
:1049B00080E090E0A8E5B2EC8093461D9093471DFF
:1049C000A093481DB093491D8DEC9CECACE8BFEB67
:1049D0008093E21D9093E31DA093E41DB093E51D29
:1049E00086E28093E61D1092351D1092361D1092BE
:1049F000371D1092381D1092391D10923A1D1092D9
:104A00003B1D10923C1D10923D1D4AE4C42E4DE109
:104A1000D42E5EEDE52EFF24FA946DEC462E6CEC60
:104A2000562E6CE4662E6EEB762E812C912C76EF52
:104A3000A72E72ECB72EF6014192519261927192BB
:104A40006F01B7010F2C000C880B990B0E94AE610F
:104A5000F601648B758B868B978B84A695A6A6A68C
:104A6000B7A6F3E2EF1AF1088CE0E8168FEFF8062C
:104A700011F7E2E9FDE181E070EC60E453E04AE027
:104A800036E022E392E280831182128213827483E1
:104A90006583168217821086118652874387348772
:104AA0002587868797877096ADE1E23DFA0759F72B
:104AB0001092D21D1092D31D1092D41D1092D51DAC
:104AC0001092D61D1092D71D1092D81D1092D91D8C
:104AD0001092DA1D1092DB1D1092DC1D1092DD1D6C
:104AE0001092DE1D1092DF1D87E08093E01D84E0B0
:104AF0008093E11D80E090E0A4EBB3E48093AC1CD4
:104B00009093AD1CA093AE1CB093AF1C80E090E0DE
:104B1000AAEFB4E48093C81C9093C91CA093CA1C4C
:104B2000B093CB1C80E098ECAFEAB8E48093E41C2F
:104B30009093E51CA093E61CB093E71C80E090E006
:104B4000A8E4B3EC8093001D9093011DA093021D77
:104B5000B093031D812C912C20EAA22E23E4B22EC7
:104B60008092B01C9092B11CA092B21CB092B31C67
:104B700040E050E06AE775E44093CC1C5093CD1CB4
:104B80006093CE1C7093CF1CC12C38ECD32E3FEA1F
:104B9000E32E39E4F32EC092E81CD092E91CE09297
:104BA000EA1CF092EB1C8093041D9093051DA093CA
:104BB000061DB093071D8092B41C9092B51CA09264
:104BC000B61CB092B71CC092EC1CD092ED1CE092C7
:104BD000EE1CF092EF1C4093D01C5093D11C6093BC
:104BE000D21C7093D31C8093081D9093091DA09331
:104BF0000A1DB0930B1D8092B81C9092B91CA09214
:104C0000BA1CB092BB1CC092F01CD092F11CE09276
:104C1000F21CF092F31C4093D41C5093D51C60936B
:104C2000D61C7093D71C80930C1D90930D1DA093E0
:104C30000E1DB0930F1D0E94CC1211FF0FC0FE017C
:104C400031967F018CE111928A95E9F700E0B70176
:104C5000802F0E949C230F5F0830C9F712FF14C0F9
:104C600060E080E093E00E94711260E081E093E0F8
:104C70000E94711260E081E094E00E94711260E095
:104C800082E094E00E94711213FF0AC060E08EEA95
:104C900093E00E94711260E08FEA93E00E9471122B
:104CA0006C960FB6F894DEBF0FBECDBFDF91CF91EB
:104CB0001F910F91FF90EF90DF90CF90BF90AF903A
:104CC0009F908F907F906F905F904F900895EF929C
:104CD000FF920F931F93CF93DF93CDB7DEB7659706
:104CE0000FB6F894DEBF0FBECDBFE5E1FE2EEFE2BA
:104CF000F2E0DE01119601900D92FA94E1F7823014
:104D0000910549F1E0F4019709F162307105B1F1C3
:104D100040F56130710571F14230510509F441C02F
:104D200098F541305105C9F12230310509F457C0D9
:104D3000F0F52130310509F445C01F8657C0833096
:104D4000910561F0049709F78FEF03C08FEF8E8311
:104D50008F838887DACF8FEF8F83D7CF8FEF8E83C4
:104D6000D4CF6330710569F08FEF64307105A1F61F
:104D70008B87D2CF8FEF89878A87FACF8FEF8A8789
:104D8000CBCF8FEF8987C8CF4330510569F08FEFC4
:104D90004430510549F68E87C7CF8FEF8C878D87BA
:104DA000FACF8FEF8D87C0CF8FEF8C87BDCF2330A9
:104DB0003105D1F02430310509F0BFCF1F86188AA4
:104DC0008FEF03C08FEF8F87888B898B023011059F
:104DD000E1F170F401301105A9F01A8A3DC01F8677
:104DE0008FEF888B198AF2CF8FEF8F87188AFACFCF
:104DF0000330110579F10430110579F71A8A1B8AFD
:104E00008FEF03C08FEF8A8B8B8B8C8B8E010F5FA4
:104E10001F4F7E0186E1E80EF11CF80181918F01A0
:104E20000E94FB050E151F05C1F784E690E065960C
:104E30000FB6F894DEBF0FBECDBFDF91CF911F91AB
:104E40000F91FF90EF900C94131C1A8A8FEF8B8BAD
:104E50001C8ADCCF8FEF8A8B1B8AFACFCF93DF932C
:104E6000D82FA198A19AF894C0EAD13019F580E022
:104E70000E94FC118FEF0E94FC1180E00E94FC1147
:104E8000C15099F778948CE390E0A0E0B0E08A30CC
:104E90009105A105B105E8F425E02A95F1F7000098
:104EA0000197A109B1090097A105B10581F7DF912B
:104EB000CF910895D23029F48FEF0E94FC1180E049
:104EC000DACF80E00E94FC1180E00E94FC118FEF9D
:104ED000D5CF25E32A95F1F700000A97A109B1097A
:104EE000E2CF80916D1B84FD20C080E10E94D80339
:104EF0000E94E31C0E9476139091E71D892F8C720B
:104F000021F48091EB1D867059F0943079F48091F2
:104F10006E1B811103C086E00E94C8030E941D1C05
:104F200081E00E942E271092081E089583E0F4CF9E
:104F30003F924F925F926F927F928F929F92AF9229
:104F4000BF92CF92DF92EF92FF920F931F93CF9376
:104F5000DF93CDB7DEB766970FB6F894DEBF0FBE0E
:104F6000CDBF9091E71D913009F43FC198E0E4E492
:104F7000F2E0DE01119601900D929A95E1F798E02A
:104F8000ECE4F2E0DE01199601900D929A95E1F7BA
:104F900096E0E4E5F2E0DE01519601900D929A95DB
:104FA000E1F79091721B9093711B8E01075F1F4F69
:104FB000882309F4A0C0CE0101966C01F60181910D
:104FC0006F010E94FB050C151D05C1F784E690E0FA
:104FD0000E94131C0E94AA058F3FE1F722E3D22E04
:104FE0005E01F7E1AF0EB11C812C38E0932E8E01EB
:104FF0000F5E1F4FF80181918F010E94FB050A157A
:105000001B05C1F784E690E00E94131C0E94AA05CC
:105010008F3F61F5C4018E199F09F1E0EF16F8E0AA
:10502000FF0610F0C70198508436910508F03FC084
:1050300081E08093FD1D88EC90E066960FB6F894B1
:10504000DEBF0FBECDBFDF91CF911F910F91FF90BB
:10505000EF90DF90CF90BF90AF909F908F907F9018
:105060006F905F904F903F900C94131C8E3F71F6A1
:105070000E94AA058E3F51F60E94AA05853031F69E
:105080000E94AA05813011F60E94AA05823009F01B
:10509000BDCF0E94AA05082F0E94AA05182F0E94C2
:1050A000AA058A3F09F0B2CFF02EE12EAFCFDA94F5
:1050B000D1109DCF81E08093E71D8AE00E94DD1F23
:1050C0000E94712766960FB6F894DEBF0FBECDBF63
:1050D000DF91CF911F910F91FF90EF90DF90CF90D4
:1050E000BF90AF909F908F907F906F905F904F9008
:1050F0003F900C9437224E0181E1880E911C68018B
:10510000F60181916F010E94FB05C814D904C1F713
:1051100084E690E00E94131C0E94AA058F3FE1F7ED
:1051200082E3382E2E01F7E14F0E511C96EF692EC7
:1051300099E0792E5401F50181915F010E94FB05F0
:10514000A414B504C1F784E690E00E94131C0E94E9
:10515000AA058F3FB1F4F7EFEF16F9E0FF0680F1F3
:10516000C701865F994084369105D8F51092FD1DE0
:10517000F80181918F010E94FB05C016D106C1F78D
:105180005ACF8E3F21F70E94AA058E3F01F70E9459
:10519000AA058530E1F60E94AA058130C1F60E9479
:1051A000AA058230A1F60E94AA05A82E0E94AA058F
:1051B000B82E0E94AA058A3F51F6FA2CEB2CC7CFD5
:1051C000C3018E199F098436910558F41092FD1D74
:1051D000F80181918F010E94FB05C016D106C1F72D
:1051E0002ACF3A943110A6CF65CF66960FB6F894C1
:1051F000DEBF0FBECDBFDF91CF911F910F91FF900A
:10520000EF90DF90CF90BF90AF909F908F907F9066
:105210006F905F904F903F900895CF93C82F81E09B
:105220009C2F9870C3FF80E08093FE1D911103C0F6
:1052300081E00E94BA04C1FB882780F98093061E92
:1052400080916E1B811108C0C7FD06C00E947127A6
:1052500081E0CF910C94C803CF9108952F923F9293
:105260004F925F926F927F928F929F92AF92BF9276
:10527000CF92DF92EF92FF920F931F93CF93DF9322
:10528000CDB7DEB7C658D1090FB6F894DEBF0FBE52
:10529000CDBFE9967FAF6EAFE997B090AD182B2DDB
:1052A00030E0E3963FAF2EAFE39726E4B29EA00135
:1052B0001124BA016B52714FEB967FAF6EAFEB9733
:1052C000DB011D922A95E9F7E996EEADFFADE9976E
:1052D0002485DB0191962C93FB01EE5BFF4FE99651
:1052E000AEADBFADE99714964D915D916D917C91F6
:1052F0001797408351836283738318964D915D9114
:105300006D917C911B97EB96EEADFFADEB9742A3B1
:1053100053A364A375A321FFE9C12CE1E8EFFBE1EE
:10532000DE01D99601900D922A95E1F7E4968FAFB0
:10533000E497E5969FAFE59720EA3CE1CD57DF4F34
:1053400039832883C358D040BE01635E7F4FCF5757
:10535000DF4F79836883C158D040CE01C996C158C8
:10536000DF4F99838883CF57D040EB96AEADBFAD6A
:10537000EB97EF96BFAFAEAFEF974E01B5E58B0E53
:10538000911CED969FAE8EAEED9710E086E4E3960D
:10539000EEADFFADE3978E9F10018F9F300C11246F
:1053A00091012B52314F1901B901645E7F4FCB57E8
:1053B000DF4F79836883C558D04070E2270E311CD7
:1053C000E596AEADBFADE5976D917D918D919D91C7
:1053D000E596BFAFAEAFE597CD57DF4FE881F981D6
:1053E000C358D0404190519061907190CD57DF4F9C
:1053F000F983E883C358D040A30192010E945C6303
:105400000E942963CF57DF4FA881B981C158D0408E
:105410006D937D938D939D93CF57DF4FB983A88371
:10542000C158D040C158DF4FE881F981CF57D040F3
:10543000C190D190E190F190C158DF4FF983E8839A
:10544000CF57D0406C197D098E099F099B01AC0193
:1054500097FF07C022273327A901261B370B480BCC
:10546000590BEF96AEADBFADEF972D933D934D9396
:105470005D93EF96BFAFAEAFEF97CB57DF4FE881AD
:10548000F981C558D040C080D180E280F380C21637
:10549000D306E406F50610F469017A01CB57DF4F15
:1054A000A881B981C558D040CD92DD92ED92FC9291
:1054B00013970E94AE61A30192010E940461ED96D0
:1054C000EEADFFADED976193719381939193ED965E
:1054D000FFAFEEAFED9720E030E0A9010E94FA6047
:1054E00087FF07C0812F0E943405D1019C91892B31
:1054F0008C931F5F173009F063CF80E0CD28CE2852
:10550000CF2809F4D9C0CE018B5A9F4F0E94921325
:105510006B017C0186E4E396EEADFFADE3978E9FD1
:1055200080018F9F100D11240B52114FD801D2967C
:10553000CD92DD92ED92FC92D597BE016B5A7F4FD2
:1055400088ED9CE10E949510F80166A777A780ABD3
:1055500091ABBE016B5A7F4F8CEB9CE10E94951082
:10556000D801DA966D937D938D939C93DD979196F8
:10557000AC90025C1F4FA0FEBDC0F8016083718338
:10558000828393838091D40EB81611F0A1FECDC012
:1055900086E4E3962EAD3FADE397829FF001839FB3
:1055A000F00D1124EB52F14F16A217A210A611A66E
:1055B00016AA17AA10AE11AE86E4E396EEADFFADC3
:1055C000E3978E9F80018F9F100D11240B52114F76
:1055D000D80191968C9181FD6EC0EB968EAD9FADFA
:1055E000EB970E94EF0B6B017C018090E606909098
:1055F000E706A090E806B090E906AC019B01C50162
:10560000B4010E94FA6087FF6DC1A5019401C50134
:10561000B4010E945C63F80162A773A784A795A7F1
:1056200086E4E396EEADFFADE3978E9F80018F9FFA
:10563000100D11240B52114FD801D6968D909D90CC
:10564000AD90BC90D997A50194019A966D917D91EA
:105650008D919C919D970E941C6318162CF4F80163
:1056600082A693A6A4A6B5A6C092E606D092E706A7
:10567000E092E806F092E9068CE1FE01EB5AFF4F5A
:10568000AAECB6E001900D928A95E1F78CE1FE015B
:105690007D96AEEAB6E001900D928A95E1F7809191
:1056A000AD068093AD188F5F843209F480E080935B
:1056B000AD060E942A0F81E0CA57DF4F0FB6F8945B
:1056C000DEBF0FBECDBFDF91CF911F910F91FF9035
:1056D000EF90DF90CF90BF90AF909F908F907F9092
:1056E0006F905F904F903F902F9008952CE1EEEADD
:1056F000F6E016CEE996AEADBFADE9972D913D919E
:105700004D915C91A3FC06C0F80120833183428354
:10571000538338CFC701B6010E945C63D8016D93F3
:105720007D938D939C9313972DCF6AEC76E0E99649
:105730007FAF6EAFE9978E010F5F1F4F14017CE1C1
:10574000270E311CC12CD12C76015801E996EEAD03
:10575000FFADE99781919191A191B191E996FFAF48
:10576000EEAFE997E7968CAF9DAFAEAFBFAFE797CF
:10577000D4014D905D906D907D904D01A3019201FB
:10578000E7966CAD7DAD8EAD9FADE7970E945C63F3
:105790009B01AC01C701B6010E9404606B017C0152
:1057A000E7962CAD3DAD4EAD5FADE797C301B201BD
:1057B0000E940460F80161937193819391938F012A
:1057C0002814390419F62FEE3FEF4FE75FE3C701C6
:1057D000B6010E941C6318166CF486E4E3962EADA5
:1057E0003FADE397829FF001839FF00D1124EB52B0
:1057F000F14FDECE2FEE3FEF4FE75FEBC701B60173
:105800000E94FA6087FF15C086E4E3966EAD7FAD17
:10581000E397869FF001879FF00D1124EB52F14F23
:1058200089E996E7A6E9BEE786AB97ABA0AFB1AF33
:10583000C3CEC5010E949213B50188ED9CE10E9480
:1058400095104B015C01A701960160E070E080E8D3
:105850009FE30E94046020E030E040E05FE30E94AC
:105860005C630E94FB636B017C012091151D3091EC
:10587000161D4091171D5091181DC501B4010E94BD
:105880005C63A70196010E945C634B015C01A70168
:10589000960160E070E080E89FE30E9404609B0155
:1058A000AC01C501B4010E9404616B017C0120E0E0
:1058B00030E0A9010E94FA6087FF03C0C12CD12CFF
:1058C000760186E4E396AEADBFADE3978A9FF00123
:1058D0008B9FF00D1124EB52F14FC6AAD7AAE0AE70
:1058E000F1AE6ACEA7019601C701B6010E945C63C2
:1058F000D8019A966D937D938D939C939D9790CEAE
:10590000AF92BF92CF92DF92EF92FF920F931F93CD
:10591000CF93DF93CDB7DEB7A9970FB6F894DEBF6C
:105920000FBECDBF9091E71D913009F47EC0182FB6
:105930000E9441230E94B2040E94C4118091E81D7C
:10594000811173C05E018DE1A80EB11C8DE0F501DF
:1059500011928A95E9F786E089A720E030E040E4DB
:1059600050EC6091041D7091051D8091061D909171
:10597000071D0E945C636B017C0120E030E0A901FF
:105980000E94FA6087FF03C0C12CD12C760168EF1A
:105990007BE1CE0101960E9476041092081C1092C1
:1059A000091C10920A1C10920B1C112309F44EC002
:1059B000C98ADA8AEB8AFC8A80E48093ED1D80E054
:1059C00090E0A8E4B2E48D8F9E8FAF8FB8A3B501AD
:1059D000CE0101960E942E2984E08093EB1D0E9447
:1059E000A1140E940E0500E4112311F07D9B00E03C
:1059F0000093ED1D0E94A11480916D1B847309F426
:105A000057C010916D1B14FF03C086E00E94C803AD
:105A100015FF03C087E00E94C80380916E1B882396
:105A200011F10E9471270E943722A9960FB6F894AF
:105A3000DEBF0FBECDBFDF91CF911F910F91FF90C1
:105A4000EF90DF90CF90BF90AF9008958091E21DCE
:105A50009091E31DA091E41DB091E51D898B9A8B77
:105A6000AB8BBC8BA9CF84E00E94CE030E943C1C70
:105A700080912F1D9091301D0E94131C1092081CC4
:105A80001092091C10920A1C10920B1C1092EB1D14
:105A90000E9437228091E81D8111C7CF0E946B12AE
:105AA0000E94DE0B0E94CF110E9441235F98BDCF60
:105AB00001119ACFDBCFEF92FF921F93CF93DF9329
:105AC000EC017B018091251D85FF26C01091E71D0B
:105AD000103231F18091771B8C38F0F4CE010E94A6
