:100000000C9468020C9489020C9489020C94890265
:100010000C9489020C9489020C9489020C94890234
:100020000C9489020C9437450C9489020C94553F2A
:100030000C94C5440C9489020C9489020C94890296
:100040000C9489020C948A3F0C9489020C948902C6
:100050000C9489020C9489020C9489020C94743FCC
:100060000C9489020C94F4430C949A440C948902E5
:100070000C9489020C9489020C9489020C948902D4
:100080000C9489020C9489020C9489020C944D43BF
:100090000C94CC430C94A1430C9489020C948902D7
:1000A0000C9489020C9489020C9489020C948902A4
:1000B0000C9489020C9489020C9489020C944C458E
:1000C0000C9489020C9489020C9489020C94894343
:1000D0000C945E430C9489020C9489020C9489025E
:1000E0000C948902084AD73B3BCE016E84BCBFFD0D
:1000F000C12F3D6C74319ABD56833DDA3D00C77FF8
:1001000011BED9E4BB4C3E916BAAAABE0000008090
:100110003F05A84CCDB2D44EB93836A9020C50B91F
:10012000918688083CA6AAAA2ABE000000803F004B
:100130000C94A7500C9478440C944E500C9464503A
:100140000C9424500C9486440C941F310C94464B10
:100150000C94404B0C940B300C946C440C94E92F91
:100160000C948A4B0C94804B0C9476440C947B50EA
:100170000C94B0500C9466440C9470440C942C4B2A
:100180000C9439500C943C500C946A440C948D2F70
:100190000C9412310C9484440C94D82F0C94884401
:1001A0000C942C310C94BE2F0C9470500C94455030
:1001B0000C948C2D0C9478500C9480440C940F501B
:1001C0000C9484500C945E4B0C94344B0C94744BF4
:1001D0000C9493500C941A500C9412500C94664B3F
:1001E0000C949A2F0C9417500C947E440C94B42FBA
:1001F0000C947A4B0C9409500C94F72F0C948D505E
:100200000C9474440C94E52F0C946E440C94234B82
:100210000C9415300C94524B0C946E4B0C947C4403
:100220000C945E440C949C500C94A72F0C94824424
:100230000C9401300C94174B0C9472440C942C5079
:100240000C9460440C944D490C945A500C945A2FC1
:100250000C94CB2F0C9447440D0A006E6F77546FAB
:100260006F6C3A00244E005B4F50543A005B564589
:10027000523A312E31652E32303137303131343A05
:10028000005B5A706F733A005B544C4F3A005B4707
:1002900039323A003330003238005B4700204700E3
:1002A000204D0020530020460020540033382E00FB
:1002B0005B47433A47000D0A005D005B746F6F6C4B
:1002C0005374617475733A20007D0D0A00273A005B
:1002D0007B27746F6F6C005D7D0D0A002C007B27FF
:1002E000746F6F6C44617461273A5B00416C61729A
:1002F0006D3A00536C656570696E67005265737482
:100300006F72696E67207370696E646C6500526508
:1003100073746F72696E672064656661756C74735F
:100320000050726F6772616D20656E646564004392
:100330006865636B206C696D6974730043686563FD
:100340006B20646F6F720044697361626C65640056
:10035000456E61626C65640043617574696F6E3AE5
:1003600020556E6C6F636B656400506C65617365DE
:1003700020756E6C6F636B00506C65617365205205
:1003800065736574005B4D53473A000D0A005BE6E8
:100390008EA2E992883A00312E302E33005B7665CA
:1003A0007273696F6E3A007C46533A007C4C6E3A29
:1003B000007C42663A007C473A007C4D3A007C5310
:1003C0003A007C42463A007C53463A007C483A0068
:1003D0007C41463A007C4C3A007C433A007C4452D3
:1003E0003A007C443A007C54443A007C523A007C07
:1003F00052573A007C4C573A007C5246543A007CA3
:100400004C46543A007C53543A007C463A007C54A3
:100410003A007C57506F733A007C4D506F733A002E
:10042000536C65657000446F6F723A004368656392
:100430006B00416C61726D00486F6D696E67004DB5
:100440006F76696E67005061757365004D6F7669F0
:100450006E67005265616479006572726F723A006E
:100460005D002C002C002C002C002C002C002C00FB
:100470006E756C6C5D0027746872656164272C0072
:100480002764696C6C272C0027636F6E65272C002E
:100490002762616C6C272C0027656E646D696C6C3B
:1004A000272C005B000D0A006265666F7265546F51
:1004B0006F6C3A000D0A00537461727420746F6F90
:1004C0006C2073657474696E67006F6B0D0A0000B1
:1004D00011241FBECFEFD1E2DEBFCDBF00E00CBFC5
:1004E00013E0A0E0B2E0E0EBF1EB00E00BBF02C0F4
:1004F00007900D92A237B107D9F728E1A2E7B3E040
:1005000001C01D92AD3AB207E1F70E94BB460C94C0
:10051000D6580C9400002F923F924F925F926F92A8
:100520007F928F929F92AF92BF92CF92DF92EF9283
:10053000FF920F931F93CF93DF93CDB7DEB72E9724
:100540000FB6F894DEBF0FBECDBF4B015C017A0140
:1005500020E030E0A9010E94165210E087FF05C09C
:10056000B7FAB094B7F8B09411E0C501B4010E9495
:1005700099526B877C878D879E87112331F08DE29E
:10058000F7018083C70101967C016B857C858D8591
:100590009E858E010F5F1F4F68013AE0232E312C9C
:1005A000412C512C3801EFEF6E1A7E0AA201910105
:1005B0000E94AF55605DF8016083B901CA018301F3
:1005C000611571058105910569F7D701F301CE1613
:1005D000DF06E1F583010C191D090F5F1F4F0E0D9A
:1005E0001F1D6B857C858D859E850E94C8529B0151
:1005F000AC01C501B4010E94205193012C193D09A1
:10060000E20EF31E2EE2F7012083680124E0F22EB1
:10061000FA94F1101EC0F80113822E960FB6F894CA
:10062000DEBF0FBECDBFDF91CF911F910F91FF9025
:10063000EF90DF90CF90BF90AF909F908F907F9082
:100640006F905F904F903F902F90089582918D937F
:10065000BECF20E030E040E251E40E9478544B01EC
:100660005C010E94925220E3260FF60121936F0154
:10067000072E000C880B990B0E94CA529B01AC01FB
:10068000C501B4010E942051C3CF882361F081309D
:1006900061F0823061F0833061F0843061F0853048
:1006A00061F082E0089584E0089588E0089580E193
:1006B000089580E2089580E4089580E808952FB7B2
:1006C000F89490913715892B809337152FBF089593
:1006D0002FB7F89490913615892B809336152FBF3C
:1006E00008959FB7F894809338159FBF08959FB7DA
:1006F000F8942091391580958223809339159FBFF6
:1007000008952FB7F89490913915892B8093391556
:100710002FBF08954F925F926F927F928F929F9218
:10072000AF92BF92CF92DF92EF92FF920F931F93FF
:10073000CF93DF938090FD16912C2BECA22E26E117
:10074000B22E8C01D0E0C0E0F501C190D190E190D3
:10075000F1905F0120E030E0A901C701B6010E94DD
:100760001652882381F1F8014080518062807380A5
:10077000C4010C2E02C0959587950A94E2F720E0FB
:1007800030E0A90180FF11C0C301B2010E941652DE
:1007900087FD09C0C701B6019058A30192010E94CC
:1007A000165287FF10C081E016C0C301B2010E943B
:1007B00038541816C4F3A3019201C701B6010E9470
:1007C0003854181684F321960C5F1F4FC730D1059B
:1007D00009F0BACF80E0DF91CF911F910F91FF9088
:1007E000EF90DF90CF90BF90AF909F908F907F90D1
:1007F0006F905F904F9008958F929F92AF92BF92AB
:10080000CF92DF92EF92FF920F931F93CF93DF93DC
:10081000EB0127E7E22E26E1F22E8C016B018CE141
:10082000C80ED11C6991799189919991F7018190B4
:100830009190A190B1907F010E94CA52A5019401AC
:100840000E942052F80161937193819391938F01DB
:10085000CC15DD0539F7DF91CF911F910F91FF90F6
:10086000EF90DF90CF90BF90AF909F908F900895C2
:100870008A9A0895CF93DF93C0913115D0913215A4
:100880002097C9F0809101158160809301156091D6
:100890001715709118158091191590911A159B01D3
:1008A000AC010E9478546EA37FA388A799A71092E9
:1008B000321510923115DF91CF910895EBE5F9E0F3
:1008C00080915809868F8091E7168250990B880F86
:1008D0008195858FEFE6F0E08081826080830895C6
:1008E0002091FC1621FF0BC09093AB008093AA00CF
:1008F000892B31F48091A0008F7D8093A000089512
:100900008091A0008062F9CF882361F0813061F08E
:10091000823061F0833061F0843061F0853061F0C5
:1009200082E0089580E8089580E4089580E20895C3
:1009300080E1089588E0089584E00895AF92BF9221
:10094000CF92DF92EF92FF920F931F93CF93DF939B
:10095000E090E816F12CC090E916D12CD0E0C0E070
:1009600010E000E0BC2EAC2EC7010C2E02C0959505
:1009700087950A94E2F780FF04C08C2F0E944503FC
:10098000082BC60102C095958795AA94E2F780FFCF
:1009900004C08B2D0E948404182B2196C730D105EA
:1009A00009F70093580910935909DF91CF911F91CE
:1009B0000F91FF90EF90DF90CF90BF90AF90089590
:1009C00020913409DC0180E0861301C008959091E4
:1009D00033092917D9F3E92FF0E0ED5CF74F3081A7
:1009E0003D938F5F9F5F90933309EECF90913309D2
:1009F00080913409891749F0E92FF0E0ED5CF74F59
:100A000080819F5F9093330908958FEF0895E0915F
:100A1000310791E09E0F20913208291761F0F0E034
:100A2000EE5CF84F8083909331078091D100806213
:100A30008093D10004C02091391524FFECCF089594
:100A4000E0912D0691E09E0F20912E07291761F06D
:100A5000F0E0E25DF94F808390932D068091C9000C
:100A600080628093C90004C02091391524FFECCF27
:100A70000895E0912904DC0180E091E09E0F20912F
:100A80002A05291308C0E09329049091C1009062BF
:100A90009093C10008952D91F0E0E65DFB4F208317
:100AA0008F5FE92F6813E9CFEECFE091290491E041
:100AB0009E0F20912A05291761F0F0E0E65DFB4FBB
:100AC0008083909329048091C10080628093C1004B
:100AD00004C02091391524FFECCF089510923A09F3
:100AE0009091FC1697FD03C09CE090933A098823EF
:100AF00031F080913A099CE0892780933A09089562
:100B00008F929F92AF92BF92CF92DF92EF92FF921D
:100B10000F931F93CF93DF93CDB7DEB72D970FB60B
:100B2000F894DEBF0FBECDBF6B017C01042F20E027
:100B300030E0A9010E94165287FF07C08DE20E9493
:100B40005505F7FAF094F7F8F094102F123008F0EA
:100B500054C000FF0AC020E030E040E251E4C70189
:100B6000B6010E9478546B017C0120E030E040E047
:100B70005FE3C701B6010E9421510E94925210E02A
:100B80003AE0832E912CA12CB12CE12FF0E06115DD
:100B9000710581059105E9F581E090E08C0F9D1FBD
:100BA000E80FF91F80E3101708F445C0101309C0BF
:100BB000E1E0F0E0EC0FFD1FE10FF11D80E3808329
:100BC0001F5FEE24E394F12CEC0EFD1EE10EF11CF0
:100BD000111134C02D960FB6F894DEBF0FBECDBFF5
:100BE000DF91CF911F910F91FF90EF90DF90CF9009
:100BF000BF90AF909F908F90089520E030E048EC38
:100C000052E4C701B6010E9478546B017C01125076
:100C10009DCFEE24E394F12CEC0EFD1EEE0EFF1E94
:100C2000A50194010E94AF55605DF7016083B90191
:100C3000CA011F5FAACF1F5F8193B5CF101303C0F6
:100C40008EE20E945505F70182917F010E945505B1
:100C50001150BECF2091FC1640E020FF07C02BE8CA
:100C600032E441E25DE30E94785441E00C94800557
:100C70002091FC1643E020FF07C02BE832E441E25C
:100C80005DE30E94785444E00C9480050F931F9319
:100C9000CF938C01C0E0F8016191719181919191A4
:100CA0008F010E943806C33019F08CE20E9455056E
:100CB000CF5FC43081F7CF911F910F9108958F922C
:100CC0009F92AF92BF92CF92DF92EF92FF920F93DB
:100CD0001F93CF93DF9300D000D000D01F92CDB7E9
:100CE000DEB76115710581059105A9F480E32A96A7
:100CF0000FB6F894DEBF0FBECDBFDF91CF911F912D
:100D00000F91FF90EF90DF90CF90BF90AF909F90AA
:100D10008F900C94550500E09E012F5F3F4F7901A5
:100D20002AE0822E912CA12CB12C6701C00ED11C7F
:100D3000A50194010E94AF55F6016083B901CA0173
:100D40000F5F611571058105910579F70E0D1F2D56
:100D5000111DE016F10699F42A960FB6F894DEBF3D
:100D60000FBECDBFDF91CF911F910F91FF90EF90FC
:100D7000DF90CF90BF90AF909F908F900895F80133
:100D800082918F01805D0E945505E3CFCF92DF9263
:100D9000EF92FF9297FF0CC06B017C018DE20E94E5
:100DA000550566277727CB016C197D098E099F09A8
:100DB000FF90EF90DF90CF900C945F06CF93DF937E
:100DC000843658F06AE00E948155C0E3C90F6AE09A
:100DD0000E948155D0E3D90F04C0C0E0D0E08A3032
:100DE000B0F7805D0E945505DD2319F08D2F0E941C
:100DF0005505CC2329F08C2FDF91CF910C9455050C
:100E0000DF91CF910895CF93DF93EC01FE018491A0
:100E10002196811103C0DF91CF9108950E9455055D
:100E2000F5CF2F923F924F925F926F927F928F9267
:100E30009F92AF92BF92CF92DF92EF92FF920F9369
:100E40001F93CF93DF9300D000D01F921F92CDB796
:100E5000DEB7FC01108121803284C384D4840585EF
:100E6000E684F784FE24EF24FE24428053806480CD
:100E7000758049825A826B827C8286809780A084AA
:100E8000B1848D829E82AF82B88683EA94E00E940C
:100E90000307133009F46DC050F4113009F466C033
:100EA00080E994E0123051F080E794E045C01430BE
:100EB00009F462C086E794E01530B1F70E94030799
:100EC000822D0E94DE068EE694E00E94030742E037
:100ED000C301B2010E9480058CE694E00E940307E2
:100EE00042E0C501B4010E9480058AE694E00E94B8
:100EF0000307832D0E94DE0688E694E00E94030724
:100F00008C2D0E94DE0686E694E00E9403078D2D5C
:100F10000E94DE0684E694E00E940307802F0E9470
:100F2000DE0682E694E00E940307B70190E080E0CD
:100F30000E945F0680E694E028960FB6F894DEBF24
:100F40000FBECDBFDF91CF911F910F91FF90EF901A
:100F5000DF90CF90BF90AF909F908F907F906F90D9
:100F60005F904F903F902F900C94030788E994E096
:100F7000A5CF88E894E0A2CF80E894E09FCF8BE8EB
:100F800093E00C940307CF93C82F89E594E00E9467
:100F900003078C2F0E94DE06CF910C94BF07882395
:100FA00021F0823031F00C94C3078AEC94E00C9469
:100FB00003070895CF92DF92EF92FF92CF93DF93D2
:100FC000D82F6A017B01C22F84E20E9455058D2F24
:100FD0000E94DE068DE30E9455054C2FC701B60125
:100FE0000E948005DF91CF91FF90EF90DF90CF902E
:100FF0000C94BF07EF92FF920F931F93CF93DF9351
:1010000005E117E1C2EDD0E0EE24E394EC0E82E0BE
:10101000F82EFC0EF801D130C9F0D230F1F0408149
:1010200051816281738123E08C2F0E94DA07DF5F98
:10103000D33081F7CD5F0C5F1F4FC43E21F7DF91A6
:10104000CF911F910F91FF90EF900895408D518D9A
:10105000628D738D23E08E2DE8CF40A951A962A93E
:1010600073A923E08F2DE1CFCF93DF93D82FC62F25
:1010700084E20E9455058D2F0E94DE068DE30E94BA
:1010800055058C2F0E94DE06DF91CF910C94BF078F
:10109000EF92FF920F931F93CF93DF936091E71628
:1010A00070E080E00E9434086091EA1670E081E010
:1010B0000E9434086091E81670E082E00E943408D3
:1010C0006091E91670E083E00E9434086091FC169C
:1010D00062FB662760F970E084E00E94340860914A
:1010E000FC1666FB662760F970E085E00E94340814
:1010F0008091FC16082E000C990B692F661F66273D
:10110000661F70E086E00E9434086091EB1670E084
:101110008AE00E9434084091EC165091ED166091DF
:10112000EE167091EF1623E08BE00E94DA074091F3
:10113000F0165091F1166091F2167091F31623E0BB
:101140008CE00E94DA076091FC16617070E08DE01F
:101150000E9434086091FC1665FB662760F970E018
:1011600084E10E9434086091FC1663FB662760F9F5
:1011700070E085E10E9434086091FC166295617010
:1011800070E086E10E9434086091FD1670E087E10E
:101190000E9434084091FE165091FF16609100178E
:1011A0007091011723E088E10E94DA07409102174D
:1011B00050910317609104177091051723E089E19E
:1011C0000E94DA0760910617709107178AE10E9462
:1011D0003408409108175091091760910A177091CF
:1011E0000B1723E08BE10E94DA074091F41650912F
:1011F000F5166091F6167091F71620E08EE10E94C8
:10120000DA074091F8165091F9166091FA1670912C
:10121000FB1620E08FE10E94DA076091FC166695CC
:10122000617070E080E20E94340894E6F92E10E0CC
:10123000C7E7D6E100E0E02EEF0C123009F461C000
:10124000133009F46BC0113009F456C0488159813C
:101250006A817B8123E08E2D0E94DA070F5F24963E
:10126000073049F78AE0F80E1F5FECE8FE12E0CF86
:1012700060910C1770E088EC0E94340840910D17C3
:1012800050910E1760910F177091101723E089ECA1
:101290000E94DA07409111175091121760911317AD
:1012A0007091141723E08AEC0E94DA0705E117E138
:1012B000C2EDD0E0EE24E394EC0E82E0F82EFC0EBA
:1012C000F801D130A1F1D230C9F140815181628160
:1012D000738123E08C2F0E94DA07DF5FD33081F720
:1012E000CD5F0C5F1F4FC43E21F7DF91CF911F915F
:1012F0000F91FF90EF9008954C8D5D8D6E8D7F8DD9
:10130000A9CF20E030E041E655E468AD79AD8AAD83
:101310009BAD0E942052AB01BC019CCFFE01EC5A58
:10132000FF4F4081518162817381705893CF408D0E
:10133000518D628D738D23E08E2DCDCF40A951A9A3
:1013400062A973A923E08F2DC6CF8DE50E945505B4
:101350000C94BF078DE993E00E94030787E993E0AF
:101360000E9403070C94A509CF93DF93CDB7DEB796
:101370006C970FB6F894DEBF0FBECDBF8EE893E03A
:101380000E9403076BE379E0CE0101960E94FC0303
:10139000CE0101960E9446068AE30E94550580917F
:1013A00043150E94DE068CE20E94550560911117DC
:1013B0007091121780911317909114170E9438069C
:1013C0000E94A5096C960FB6F894DEBF0FBECDBF84
:1013D000DF91CF910895CF93DF93EC018991811133
:1013E00003C0DF91CF9108950E945505F7CFEFEC30
:1013F000F5E1A1EEB3E041915191619171914D936D
:101400005D936D937D9385E1EB3EF807A1F7089519
:10141000BF92CF92DF92EF92FF920F931F93CF93E1
:10142000DF937C01FC01FE9600811181D281C38192
:10143000FC0181A180FF33C06091461570E090E00F
:1014400080E00E94CA522AE037ED43E25CE30E944A
:1014500078549B01AC01B8018D2F9C2F0E947854C9
:101460008B01D82FC92F20E030E040E85FE3B801BE
:101470008D2F9C2F0E943854181624F000E010E0A5
:10148000D0E8CFE3B8018D2F9C2FDF91CF911F9132
:101490000F91FF90EF90DF90CF90BF90089582FD65
:1014A00017C06091451570E090E080E00E94CA523C
:1014B0002AE037ED43E25CE30E9478549B01AC01E3
:1014C000B8018D2F9C2F0E9478548B01D82FC92FE3
:1014D000F701B2ACC3ACD4ACF5AC98014D2F5C2F86
:1014E0006B2D7C2D8D2D9F2D0E94165287FFBBCF1B
:1014F0000B2D1C2DDD2DCF2DB6CF80919F09909106
:101500007813981739F026E4829FC0011124805681
:10151000964F089590E080E008954F925F926F9209
:101520007F928F929F92AF92BF92CF92DF92EF9273
:10153000FF920F931F93CF93DF93CDB7DEB7C057C2
:10154000D1090FB6F894DEBF0FBECDBF8CE1EFEC32
:10155000F5E1DE01119601900D928A95E1F7BE0149
:101560006F5F7F4FCE014D960E94FC03BE016F5FFF
:101570007F4FCE01C9960E94FC038CE30E94550563
:1015800080913E15883009F43EC108F022C18130B7
:1015900009F442C108F432C1823009F440C18430F8
:1015A00009F437C18091EB16282F2170E22E80FFBD
:1015B0004FC180914A15882309F44AC189E194E01A
:1015C0000E940307CE014D960E94460682E194E0F8
:1015D0000E940307CE01C9960E9446068EE094E061
:1015E0000E94030780910C170E94DE068AE094E0B7
:1015F0000E94030760916E1570916F1580917015B0
:10160000909171150E942A0685E094E00E940307DC
:1016100060911D0470911E0480911F04909120041C
:101620000E942A068FEF93E00E9403076091210435
:101630007091220480912304909124040E942A0630
:1016400089EF93E00E9403076091250470912604BE
:1016500080912704909128040E942A0684EF93E049
:101660000E94030760915B1570E090E080E00E94AB
:10167000C8520E942A068FEE93E00E9403076091F1
:101680005C1570E090E080E00E94C8520E942A063B
:101690008BEE93E00E9403076091531570E090E099
:1016A00080E00E94C8520E942A0686EE93E00E94C3
:1016B00003076091541570E090E080E00E94C852EA
:1016C0000E942A0682EE93E00E940307609155155E
:1016D00070E090E080E00E94C8520E942A068DEDE2
:1016E00093E00E94030760915D1570E090E080E058
:1016F0000E94C8520E942A0689ED93E00E940307C7
:101700006091561570E090E080E00E94C8520E94FF
:101710002A0685ED93E00E9403076091571570E05B
:1017200090E080E00E94C8520E942A0680ED93E07B
:101730000E9403076091581570E090E080E00E94DD
:10174000C8520E942A068CEC93E00E940307609125
:101750005F1570E090E080E00E94C8520E942A0667
:1017600087EC93E00E94030760915A1570E090E0C7
:1017700080E00E94C8520E942A0682EC93E00E94F8
:1017800003076091591570E090E080E00E94C85214
:101790000E942A068EEB93E00E94030760916A156F
:1017A00070916B1580916C1590916D1540E00E94C1
:1017B00080058AEB93E00E940307809169158031D0
:1017C00009F498C0803209F425C1811196C085E3DF
:1017D00092C08032D9F050F4803109F0E3CE80918C
:1017E000401587FD13C086E494E00AC08034D1F030
:1017F000803809F0D7CE80E294E002C083E594E01F
:101800000E940307CFCE8CE494E0FACF8FE394E0FC
:10181000F7CF88E394E0F4CF82E394E0F1CF8CE259
:1018200094E0EECF86E294E00E9403078091401599
:1018300083FF04C083E30E945505B4CE82FF06C037
:1018400085FF02C081E3F7CF80E3F5CF82E3F3CFDA
:101850004090CB155090CC156090CD157090CE1562
:1018600083E9A82E85E1B82E6E0185E5C80ED11C4E
:101870008E01075C1F4FF12C4601F50161917191BA
:10188000819191915F01208D318D428D538D0E9408
:101890002151F60161937193819391936F01F2E06D
:1018A000FF1225C0A30192010E942151F40160871B
:1018B000718782879387E11016C0F60134972081E3
:1018C000318142815381F8016081718182819381EC
:1018D0000E942051F8016083718382839383F6E034
:1018E000FF1609F46BCEF3940C5F1F4FC6CFEE20AA
:1018F00021F3F5CF83E30E94550586EB93E00E9428
:101900000307809166158A5C0E94DE068091EB16C3
:1019100081FF1EC081EB93E00E9403079091781332
:1019200080919F09981708F477C08D5D891B0E94EC
:10193000DE068CE20E94550580912B0690912C06C4
:10194000981708F46BC0981B892F80950E94DE06BB
:101950000E947D0A009791F0FC01C2A0D3A0E4A0F0
:10196000F5A0C114D104E104F10441F08CEA93E044
:101970000E940307C701B6010E94C60687EA93E0EA
:101980000E94030780913E158C7709F44AC060914C
:101990001715709118158091191590911A150E94BC
:1019A0002A068CE20E94550560914B1570914C15EA
:1019B00080914D1590914E1540E00E9480058091D8
:1019C0004A15882391F1815080934A1580914915D9
:1019D0008823E1F18150809349158EE30E945505DB
:1019E0000E94BF07C059DF4F0FB6F894DEBF0FBE8D
:1019F000CDBFDF91CF911F910F91FF90EF90DF90BE
:101A0000CF90BF90AF909F908F907F906F905F909E
:101A10004F90089584E36FCF815088CF8150891B08
:101A200095CF60E070E0CB01BACF80913E158C7706
:101A300059F08DE180934A15809149158111C6CFE7
:101A400081E080934915C2CF89E0F4CF80913E15A3
:101A50008C7711F083E1BFCF89E0BDCF0E947D0A72
:101A6000892B19F082E00C94810308952F923F9204
:101A70004F925F926F927F928F929F92AF92BF929E
:101A8000CF92DF92EF92FF920F931F93CF93DF934A
:101A900000D01F92CDB7DEB700917813002309F470
:101AA00086C0098339813150398310919E091317FB
:101AB00009F466C0C32ED12CE6E43E9FC001112478
:101AC0009C012056364F7901F90172A483A494A495
:101AD000A5A466A577A580A991A99B01AC010E9448
:101AE0002151F70122A933A944A955A90E9478548C
:101AF000B62EE72EF82E9B83262F372F482F592FEF
:101B0000672D782D892D9A2D0E94165287FF03C0CC
:101B1000B72C7401AB8286E48C9DF0018D9DF00D95
:101B20001124E056F64F8B2D9E2DAF2DBB8186A341
:101B300097A3A0A7B1A7F9818F2FF11101C084E26B
:101B4000FF24FA94F80E30909F091F1133C013112F
:101B500002C00E943A04E6E41E9FC0011124805690
:101B6000964F9A83898333243394310EF4E23F12E3
:101B700001C0312C86E4282E031185C010939E09E4
:101B80000F900F900F900F90DF91CF911F910F91B9
:101B9000FF90EF90DF90CF90BF90AF909F908F908D
:101BA0007F906F905F904F903F902F90089524E228
:101BB000298378CF298186E4289F9001112420561B
:101BC000364F3C832B8326E4E22E8F2C912CFE9CF7
:101BD000C0011124FC01E056F64FFA83E983F110AD
:101BE00002C094E2F92EFA94F31002C00E943A0463
:101BF000E89CC001E99C900D11249C012056364FB1
:101C00006901F90142A453A464A475A4A30192013B
:101C100066A177A180A591A50E941652882339F16B
:101C2000F60166A577A580A991A99B01AC010E9448
:101C30002151F60122A933A944A955A90E9478543B
:101C4000EB81FC8126A137A140A551A50E9421511D
:101C50004B015C01AC019B01C301B2010E943854ED
:101C6000F60118165CF486A297A2A0A6B1A6298157
:101C70003A813C832B831F11A8CF6DCF46A257A278
:101C800060A671A6F4CFC32CD12C329CC0011124C4
:101C90009C012056364F7901E981FA8146A057A070
:101CA00060A471A4F90186A097A0A0A4B1A4A50185
:101CB0009401C301B2010E94165287FF26C0E98138
:101CC000FA8166A577A580A991A99B01AC010E9424
:101CD0002151E981FA8122A933A944A955A90E9479
:101CE0007854A30192010E9421512B013C01AC01C7
:101CF0009B01C501B4010E943854181634F4F70151
:101D000046A257A260A671A6132D2C9CF0012D9C13
:101D1000F00D1124E056F64F22A533A544A555A594
:101D200066A177A180A591A50E941652811101C0DC
:101D3000132D3394F4E23F1201C0312CFA82E98270
:101D40001BCF6F927F928F929F92AF92BF92CF9252
:101D5000DF92EF92FF920F931F93CF93DF93EB01EC
:101D60008C015B018CE1A80EB11C89E9682E96E715
:101D7000792E26E9822E3EE7932EC990D990E990DC
:101D8000F99020E030E0A901C701B6010E94165287
:101D90008823B9F0A7019601F801608171818281E1
:101DA00093810E9420526B017C01E894F7F8930123
:101DB000A401C701B6010E943854181614F0360168
:101DC00047010C5F1F4FCA15DB05B9F6B301C4010B
:101DD000DF91CF911F910F91FF90EF90DF90CF9007
:101DE000BF90AF909F908F907F906F9008954F928B
:101DF0005F926F927F92AF92BF92CF92DF92EF92FB
:101E0000FF920F931F93CF93DF936C01FB015A0155
:101E1000A081A80FB92FB11D8C91ED018D3249F52C
:101E2000229611968C9101E0512C612C10E020E05B
:101E300030E0A9017E0190ED792E780E89E08715BA
:101E400028F16394A8E0A615E8F051101150A5E020
:101E5000B0E00E94D9559B01AC01220F331F441FF3
:101E6000551F270D311D411D511D2196D7018C9104
:101E7000E1CF8B3219F0219600E0D6CF2296119651
:101E80008C91FACF5110F1CF1F5FEFCFBEEF7B12D5
:101E900005C0511003C055245394E7CF662009F1C3
:101EA0007F01CA01B9010E94C8522B013C0120E008
:101EB00030E0A9010E94165281112EC0002309F4BE
:101EC00048C077FA709477F87094F5014082518297
:101ED00062827382CC19DD09C150F701C083662488
:101EE0006394862DDF91CF911F910F91FF90EF901A
:101EF000DF90CF90BF90AF907F906F905F904F90AA
:101F000008952AE037ED43E25CE3C301B2010E9489
:101F100078542B013C011E5F1F3F9CF31F3F59F477
:101F20002DEC3CEC4CEC5DE3C301B2010E94785413
:101F30002B013C01C3CF112309F220E030E040E245
:101F400051E4C301B2010E9478542B013C011150AD
:101F5000F2CFD5014D925D926D927C921397BACFDC
:101F600093B18091FC1686FF9095992399F094FB8C
:101F7000882780F995FD826096FD8460292F247062
:101F800092FD886091FD80612111806293FF03C002
:101F90008064089580E00895EBE6F0E0808110828F
:101FA000E8E6F0E080818E7F8083089584B114B8E4
:101FB000809107018B7F80930701809108018460E5
:101FC0008093080185B18FEF85B99091FC1693FF3E
:101FD00015C090916B0080936B00809168008160C8
:101FE0008093680084B7877F84BF80916000886198
:101FF0008093600081E08093600008950E94CC0F80
:10200000F1CF27E030E090E0AC01022E02C0559500
:1020100047950A94E2F7A09A40FF11C00000000023
:1020200000000000000000000000000000000000B0
:10203000A098000000002150310930F708950000F9
:102040000000A09800000000000000000000000058
:102050000000000000000000EECF27E030E090E03C
:10206000AC01022E02C0559547950A94E2F740FF55
:102070001AC040910B01406440930B010000000026
:102080000000000000000000000000000000000050
:1020900040910B014F7B40930B0100000000215049
:1020A0003109F0F6089540910B01406440930B0113
:1020B0000000000040910B014F7B40930B0100009A
:1020C0000000000000000000000000000000000010
:1020D0000000E5CFCF93DF93D82F862FC42F0E9427
:1020E0002D108D2F0E942D108C2FDF91CF910C94ED
:1020F0002D10811103C08098889A0895813019F4B9
:102100003898409A08956D98759A0895811102C083
:10211000809A0895813011F4389A08956D9A08953F
:102120006FEC75E187E795E10C94FC03F894F9995D
:10213000FECF92BD81BD81E08FBB20B5862F822767
:10214000082E000C990B50E086239523892B49F02B
:1021500084E16F3F11F060BD84E08FBBF99A789401
:1021600008952617E1F360BD84E2F7CF9F92AF9206
:10217000BF92CF92DF92EF92FF920F931F93CF9374
:10218000DF935C018A017B01E40EF51EEB01912CCB
:102190006C01C61AD70ACE018C0D9D1D21E091104D
:1021A00007C0292D990C330B232F221F2227221F12
:1021B0006991962E920E0E949610CE15DF0559F762
:1021C000692DC501800F911FDF91CF911F910F9154
:1021D000FF90EF90DF90CF90BF90AF909F900C94C6
:1021E00096106AE090E080E00E94961046E351E08D
:1021F00067E776E181E090E00C94B610F999FECFA4
:1022000092BD81BD81E08FBB80B508959F92AF9252
:10221000BF92CF92DF92EF92FF920F931F93CF93D3
:10222000DF935B018A017C01E40EF51EEC01912C29
:102230006B01C81AD90AC6018C0F9D1F0E94FE109F
:1022400021E0911007C0292D990C330B232F221F59
:102250002227221F982E920E8993CE15DF0559F75B
:10226000C501800F911F0E94FE1021E030E089150A
:1022700011F030E020E0C901DF91CF911F910F9163
:10228000FF90EF90DF90CF90BF90AF909F90089518
:102290008A9889980895A29889988A988F98A5987D
:1022A0007398E2E0F1E080818F7D808380818F7B75
:1022B000808310988B985F988081877F80830895B2
:1022C000E9ECF0E080818F7E808380818061808373
:1022D0008091340980933309E3E3F8E080E091E0F2
:1022E000DF019C011D9221503040E1F70895E1EE9D
:1022F000F3E08CE3DF011D928A95E9F710929F09C4
:102300001092781381E08093E00310929E09089563
:102310004F925F926F927F92AF92BF92CF92DF9275
:10232000EF92FF920F931F93CF93DF93EC015C0129
:102330002CE1A20EB11C8C01C12CD12C7601F8012C
:1023400041905190619071908F0120E030E0A9019F
:10235000C301B2010E941652882371F0A3019201B9
:10236000C301B2010E9478549B01AC01C701B601C0
:102370000E9421516B017C010A151B0501F7C70161
:10238000B6010E9417556B017C01AC019B0160E016
:1023900070E080E89FE30E9420522B013C0169918C
:1023A0007991899199915E01F4E0AF1AB108A30186
:1023B00092010E947854F501608371838283938334
:1023C000C017D10761F7C701B601DF91CF911F9107
:1023D0000F91FF90EF90DF90CF90BF90AF907F90E4
:1023E0006F905F904F9008954F925F926F927F929F
:1023F0008F929F92AF92BF92CF92DF92EF92FF9215
:102400006B017C018090F8169090F916A090FA1656
:10241000B090FB164090F4165090F5166090F616AA
:102420007090F716A3019201C501B4010E943854BF
:1024300087FF1BC06091471570E090E080E00E942C
:10244000CA522AE037ED43E25CE30E947854A701C8
:1024500096010E9478546B017C01AC019B01C30181
:10246000B2010E9416521816BCF040924B155092C1
:102470004C1560924D1570924E1580E094E0FF90DF
:10248000EF90DF90CF90BF90AF909F908F907F9014
:102490006F905F904F900895A7019601C501B40118
:1024A0000E94385487FD1FC020E030E0A901C70119
:1024B000B6010E94165281110BC010924B1510925A
:1024C0004C1510924D1510924E1590E080E0D7CF2C
:1024D00080924B1590924C15A0924D15B0924E15CE
:1024E00081E090E0CCCFC0924B15D0924C15E09299
:1024F0004D15F0924E15A5019401C701B6010E9439
:102500002051209136093091370940913809509176
:1025100039090E9478540E94055320E030E040E8D9
:102520005FE30E9421510E949952CB01A8CF2F92C4
:102530003F924F925F926F927F928F929F92AF9253
:10254000BF92CF92DF92EF92FF920F931F93CF93A0
:10255000DF93CDB7DEB7C054D1090FB6F894DEBF14
:102560000FBECDBF8091421580FD75C29091791349
:1025700080917A13981709F46EC280913115909169
:102580003215892B09F07EC01091421512FF7DC2D1
:102590008091781326E4829FC00111248056964FC3
:1025A0009093321580933115409131155091321529
:1025B0005E834D83452B09F44EC20091011500FF47
:1025C00067C21092011510921315109214151092F3
:1025D000151510921615AD81BE819E962D913D91D7
:1025E0004D915C91D19729833A834B835C8360E062
:1025F00070E080E09FE30E94205269877A878B8792
:102600009C87ED81FE8142A853A864A875A886A086
:1026100097A0A0A4B1A411FF29C3F2E0F093121572
:10262000A50194010E9478549B01AC01C301B20141
:102630000E9420516B017C0120E030E0A9010E9442
:10264000165287FF02C329813A814B815C81CA01FE
:10265000B9010E942151A30192010E9478549B016B
:10266000AC01C501B4010E9420510E94175560932E
:102670001F157093201580932115909322151860D3
:1026800010934215E091CB13F8E0EF9FD001112495
:10269000BA87A987FD01E558FC4E80910015848317
:1026A0004090311550903215D201D296BC91BEA304
:1026B000F201F3A9FFA3D201D496BC91B8A7F2010D
:1026C000F5A9F9A720910E1530910F15409110151D
:1026D000509111156EA17FA18B2F9F2F0E94205129
:1026E0006AAB7BAB8CAB9DAB20E030E0A9010E94D4
:1026F000165287FF04C01AAA1BAA1CAA1DAA209161
:1027000023152E8B309124153F8B40912515488F32
:1027100050912615598F80911B158E8F90911C1505
:102720009F8FA0911D15A8A3B0911E15B9A3E0918C
:102730002715EAA7F0912815FBA7209129152CA7AA
:1027400030912A153DA7409117154FAF509118159C
:1027500021965FAF21976090191570901A1580919E
:1027600012158983909113159EA7A0911415AFA7F8
:10277000B0911515B8ABE0911615E9ABF0911F15A6
:10278000FBAF209120152CAF309121153DAF40912A
:1027900022154EAF2AA53BA54CA55DA56E897F8964
:1027A000888D998D0E9416528111EFC352E05EAB65
:1027B0009EA19D83AFA1AD87B8A5B98BE9A5ED8B8F
:1027C0008EE3C82E83ECD82E8EE2E82E89E3F82E15
:1027D0001A8E1B8E1C8E1D8EA70196012AA33BA369
:1027E0004CA35DA33981313009F449C4D2013130A1
:1027F00008F4D3C3333009F075C49E962D913D91F2
:102800004D915C91D197C701B6010E9478544B015C
:102810005C0120E030E040E05FE30E9478549B01DF
:10282000AC016FAD21967FAD2197C3010E9420516D
:10283000A70196010E9478546FAB78AF89AF9AAF29
:102840009B01AC016D817D8589899D890E94205104
:102850001B018C012E893F89488D598D0E9416528B
:1028600087FD0CC020E030E0A9016FA978AD89ADEB
:102870009AAD0E94165218160CF472C42E893F8924
:10288000488D598D6EA17FA188A599A50E942051E0
:102890009B01AC010E9421516B017C012E8D3F8D6B
:1028A00048A159A16FAD21967FAD2197C3010E9428
:1028B00021519B01AC01C701B6010E9420526B015E
:1028C0007C01BE8DBFAFEF8D2196EFAF219768A041
:1028D00079A02E883F88088D198DF1E0F983A70132
:1028E00096016A8D7B8D8C8D9D8D0E9421516A8F02
:1028F0007B8F8C8F9D8F2AA13BA14CA15DA10E9453
:10290000165287FF67C42A8D3B8D4C8D5D8D6AA161
:102910007BA18CA19DA10E9420516B017C019101A2
:10292000A8016EA57FA588A999A90E94165287FDC6
:102930002FC38FAD21969FAD2197D301809317159B
:1029400090931815A0931915B0931A15F981F09367
:102950001215E091CC13F091CD1381A1811104C027
:102960009091421593FF33C0D20191969C91907340
:1029700009F45EC4F201EE5BFF4FC080D180E280BB
:10298000F3808823B9F020912B1530912C154091BC
:102990002D1550912E156FAD21967FAD2197C30156
:1029A0000E9478549B01AC01C701B6010E94785483
:1029B0006B017C01C701B6010E94F41190933015A0
:1029C00080932F1580914215877F809342158091C7
:1029D0002F1590913015E985FA85E558FC4EFE8358
:1029E000ED839783868320910A1530910B154091D2
:1029F0000C1550910D15B101C8010E9478542B019E
:102A00003C010E94FF516B017C01609106157091A1
:102A1000071580910815909109150E94FF514B01EF
:102A20005C01A70196010E9420510E94995269837E
:102A30007A838B839C83E981FA81AD81BE81ED939A
:102A4000FC93EF2B09F001C48091421581FFFDC377
:102A5000816080934215C05CDF4F0FB6F894DEBFF3
:102A60000FBECDBFDF91CF911F910F91FF90EF90DF
:102A7000DF90CF90BF90AF909F908F907F906F909E
:102A80005F904F903F902F9008950E947D0A88CDCF
:102A9000809100158F5F893009F480E080930015E4
:102AA000282F30E052E2859FC0011124DC01A2539F
:102AB000BC4E7D01B093CD13A093CC13ED81FE816C
:102AC00080A190968C9390E080E04191519161912A
:102AD0007191D701A80FB91F689412F8440F551FC0
:102AE000661F771F1694D1F74D935D936D937C937A
:102AF000139704968C31910541F7AD81BE815C96A8
:102B00006D917D918D919C915F97B2E2B29FA001F2
:102B1000B39F500D1124FA01E253FC4E4B015C01AE
:102B200023E0880C991CAA1CBB1C2A95D1F7848E23
:102B3000958EA68EB78E0E94C8526093061570932C
:102B400007158093081590930915ED81FE8122A940
:102B500033A944A955A90E9420529B01AC0120939E
:102B60000A1530930B1540930C1550930D1560E02A
:102B700070E080EA9FE30E94205260930E157093EC
:102B80000F15809310159093111510920215109245
:102B90000315109204151092051511FD02C003FFD4
:102BA00043C060911F15709120158091211590915F
:102BB000221560931715709318158093191590932B
:102BC0001A159B01AC010E947854AD81BE81969686
:102BD0006D937D938D939C939997077F0093011537
:102BE000D70191961C928091FC1681FFECCCED816F
:102BF000FE8181A185FFE7CCFE9620813181428153
:102C0000538160E070E080E89FE30E94205260936F
:102C10002B1570932C1580932D1590932E15E1E0B4
:102C2000D7019196EC93CFCCED81FE8166A177A17F
:102C300080A591A50E9417556093171570931815DC
:102C40008093191590931A15CBCFC0921315D0927B
:102C50001415E0921515F092161510921F1510928A
:102C60002015109221151092221509CD10921215DF
:102C700040922315509224156092251570922615C6
:102C800012FF6AC010921F15109220151092211584
:102C900010922215C12CD12C76018D819E810E942B
:102CA000080A698B7A8B8B8B9C8B9B01AC010E94F1
:102CB00078546D837E838F839887A50194010E9449
:102CC000165287FF93C02D813E814F815885C501E3
:102CD000B4010E94205129853A854B855C850E946C
:102CE00078549B01AC01C301B2010E942051609352
:102CF000231570932415809325159093261520E0B5
:102D000030E0A9010E94165218160CF449C032E0B6
:102D10003093121529813A814B815C81CA01B90136
:102D20000E942151A30192010E9478549B01AC01A1
:102D3000C501B4010E9420510E94175560931F15D0
:102D40007093201580932115909322158091011581
:102D500088608093011593CCE0919F09EF5FE43286
:102D600009F4E0E080917813C12CD12C76018E1704
:102D700051F026E42E9FF0011124E056F64FC6A034
:102D8000D7A0E0A4F1A4C701B6010E941755609333
:102D90001F157093201580932115909322157DCFD8
:102DA000A70196016D817E818F8198850E942051B7
:102DB00029853A854B855C850E9478546093271558
:102DC000709328158093291590932A1589899A89DB
:102DD000AB89BC8980931B1590931C15A0931D157E
:102DE000B0931E1593E09093121549CCA70196015C
:102DF000C501B4010E94205129853A854B855C8527
:102E00000E947854A30192010E94215120E030E0F9
:102E100040E05FE30E9478546D877E878F87988BB0
:102E200020E030E0A9010E94385418160CF094C03C
:102E3000A30192016D857E858F8598890E94165227
:102E400087FF88C0A70196016D817E818F8198855B
:102E50000E94205129853A854B855C850E947854D3
:102E60009B01AC0120932715309328154093291519
:102E700050932A156D857E858F8598890E943854D8
:102E80001816BCF529893A894B895C8920931B1552
:102E900030931C1540931D1550931E15A5019401E8
:102EA0006D817E818F8198850E941652811104C0A8
:102EB00031E030931215E3CBA50194016D817E8141
:102EC0008F8198850E94205129853A854B855C85A4
:102ED0000E9478549B01AC01C301B2010E942051B1
:102EE00060932315709324158093251590932615D0
:102EF000C6CB8D859E85AF85B88980932315909329
:102F00002415A0932515B09326158093271590932B
:102F10002815A0932915B0932A1529813A814B8150
:102F20005C81CA01B9010E9421512D853E854F85E2
:102F300058890E947854A70196010E9421510E944D
:102F4000175560931B1570931C1580931D15909356
:102F50001E1595CB92E047CF80911F1590912015BB
:102F6000A0912115B09122151092231510922415CD
:102F7000109225151092261580931B1590931C1501
:102F8000A0931D15B0931E157ACB81E08EAB10CCAB
:102F90002D823D86098B1D8B25CC9E962D913D91D2
:102FA0004D915C91D197C701B6010E9478544B01B5
:102FB0005C0120E030E040E05FE30E9478542FADF8
:102FC00021963FAD2197A3010E942151A7019601AF
:102FD0000E9478549B01AC016D817D8589899D8912
:102FE0000E9420511B018C019B01AC016E897F89DD
:102FF000888D998D0E943854181694F52E893F8932
:10300000488D598D6EA17FA188A599A50E94205158
:103010009B01AC010E9421516B017C012E8D3F8DE3
:1030200048A159A16FAD21967FAD2197C3010E94A0
:1030300021519B01AC01C701B6010E9420526B01D6
:103040007C01BEA9B983EE8DEFAFFF8D2196FFAF56
:10305000219768A079A02E883F88088D198D3FCCD4
:10306000A50194016FAD21967FAD2197C3010E9408
:1030700021516FAF21967FAF21973C0130CC2E8D2F
:103080003F8D48A159A1C701B6010E9478549B0108
:10309000AC016D817D8589899D890E9420511B012C
:1030A0008C012AA53BA54CA55DA50E94165287FF61
:1030B00016CC2AA53BA54CA55DA56D817D8589898A
:1030C0009D890E9420512E8D3F8D48A159A10E94BB
:1030D00020526B017C012AA43BA40CA51DA522E073
:1030E0002983FDCB9E962D913D914D915C91D19779
:1030F000C701B6010E9478544B015C01AC019B01F1
:103100006FAD21967FAD2197C3010E9438541816E8
:103110008CF520E030E040E05FE3C501B4010E949F
:1031200078549B01AC016FAD21967FAD2197C3010F
:103130000E942051A70196010E9478549B01AC0186
:103140006D817D8589899D890E9420511B018C019B
:103150002EA53FA548A959A90E943854181654F421
:10316000A50194016FAD21967FAD2197C3010E9407
:1031700020517FCF2EA53FA548A959A96D817D85F6
:1031800089899D890E9420519B01AC010E94215197
:103190006B017C012BAD3CAD4DAD5EAD6FAD2196AD
:1031A0007FAD2197C3010E9421519B01AC01C70152
:1031B000B6010E9420526B017C01BBADBFAFECADEC
:1031C0002196EFAF21976DAC7EAC2EA43FA408A949
:1031D00019A985CB2AA93BA94CA95DA9B101C801B0
:1031E0000E94385418169CF42EE333EC4EE259E357
:1031F0006AA17BA18CA19DA10E9421516AA37BA3FE
:103200008CA39DA32A8D3B8D4C8D5D8D84CB8FAD82
:1032100021969FAD2197D301809317159093181590
:10322000A0931915B0931A1529812093121591CBEB
:1032300010924B1510924C1510924D1510924E1580
:103240001092301510922F15BDCB209102153091A0
:10325000031540910415509105156A8D7B8D8C8D59
:103260009D8D0E9421516D837E838F839887A3015A
:103270009201C501B4010E9420519B01AC016D81F6
:103280007E818F8198850E9420524B015C0120EC49
:1032900031EE44E65EE40E9478540E94FF510E94A1
:1032A0009952E985FA85E558FC4E603D37E0730791
:1032B0008105910508F054C01582E985FA85E55825
:1032C000FC4E7383628380917A138093CB138F5F5C
:1032D0008A3009F47BC080937A13E0913115F09124
:1032E0003215C101D80182AB93ABA4ABB5ABC09290
:1032F0000615D0920715E0920815F0920915A30162
:103300009201C701B6010E942051A50194010E94BB
:10331000785460930215709303158093041590936D
:1033200005152091131530911415409115155091E4
:103330001615B101C8010E941652811117C990914A
:103340004215998320E030E0A901B101C8010E9433
:1033500038541816F4F5A981A160A09342157BCBCF
:10336000603A4FE074078105910520F551E05583DF
:10337000E985FA85E558FC4E2581022E04C0969514
:103380008795779567950A94D2F749815A8102C04B
:10339000440F551F2A95E2F751834083611571054B
:1033A00051E08507910508F488CF8FEF9FEF938355
:1033B000828389CF6034AFE17A078105910518F4E3
:1033C000B2E0B583D5CF23E02583D2CF10927A1314
:1033D00084CFB981B2FF04C0B160B09342153BCB3A
:1033E000109232151092311590919F0980917813A7
:1033F000891709F4BBC881E0890F843209F480E0A1
:1034000020919E09921302C080939E0980939F0988
:10341000ADC86A3071058105910570F425E02A95E3
:10342000F1F7000061507109810991096115710579
:103430008105910571F7089564367105810591053F
:1034400048F4E5E3EA95F1F700006A507109810953
:103450009109ECCFEFE8F1E03197F1F700C00000FF
:103460006456710981099109E1CFCF92DF92EF9201
:10347000FF920F931F93CF93DF936B017A01E901C2
:1034800020910B012F7720930B0120910B012068D5
:1034900020930B01F8948230910591F030F44FEFB6
:1034A0006FEF019779F040E008C040E06FEF8330A4
:1034B000910521F04FEF0497B1F760E080E003C081
:1034C00040E060E08FEF0E946A1082E0C816D104ED
:1034D000B1F038F44FEF6FEFCA94CD2891F040E08F
:1034E0000BC040E06FEF83E0C816D10431F04FEF1E
:1034F00084E0C816D10499F760E080E003C040E0A2
:1035000060E08FEF0E946A1082E0E816F104B1F0EB
:1035100038F44FEF6FEFEA94EF2891F040E00BC0E2
:1035200040E06FEF83E0E816F10431F04FEF84E004
:10353000E816F10499F760E080E003C040E060E045
:103540008FEF0E946A10C230D10591F030F44FEF36
:103550006FEF219779F040E008C040E06FEFC33093
:10356000D10521F04FEF2497B1F760E080E003C070
:1035700040E060E08FEF0E946A1002301105A1F078
:1035800038F44FEF6FEF0130110581F040E009C0D2
:1035900040E06FEF0330110529F04FEF04301105C3
:1035A000A9F760E080E003C040E060E08FEF0E9498
:1035B0006A1078946CE370E080E090E0DF91CF9146
:1035C0001F910F91FF90EF90DF90CF900C94091A0C
:1035D000CF93DF93D82FA198A19AF894CFE0D13060
:1035E000A1F480E00E9401108FEF0E94011080E0A2
:1035F0000E940110C15099F778946CE370E080E06C
:1036000090E0DF91CF910C94091AD23029F48FEF1A
:103610000E94011080E0E9CF80E00E94011080E06C
:103620000E9401108FEFE4CFCF93C82F0E94861025
:10363000C1111EC0889860EE71E080E090E00E94A9
:10364000091A8C2F0E94791066E470E080E090E007
:103650000E94091AC11112C0CFB1C095C1706AE9A8
:1036600071E080E090E00E94091A8C2FCF910895BC
:10367000C13011F44098DFCF7598DDCFC13011F41F
:10368000C6B1EBCFCCB1C5FBCC27C0F981E0C827D0
:10369000E6CFEF92FF921F93CF93DF93D82F88E06E
:1036A000E82EF12C10E016958D2F0E948610D11176
:1036B00027C0889863E070E080E090E00E94091ADB
:1036C0008D2F0E9479106AE070E080E090E00E9407
:1036D000091AD1111BC0CFB1C17062E370E080E064
:1036E00090E00E94091AC111106881E0E81AF108FF
:1036F000D1F6812FDF91CF911F91FF90EF90089528
:10370000D13011F44098D6CF7598D4CFD13011F480
:10371000C6B1E2CFCCB1C5FBCC27C0F9DECF0F9349
:103720001F93CF93DF93C82FD62F08E010E08C2F84
:103730000E948610D0FF21C0C11119C0889865E091
:1037400070E080E090E00E94091A8C2F0E947910AE
:1037500067E370E080E090E00E94091AD69501507E
:10376000110929F7DF91CF911F910F910895C13071
:1037700011F44098E4CF7598E2CFC1110FC088983A
:1037800061E470E080E090E00E94091A8C2F0E94B2
:10379000791065E070E080E090E0DECFC13011F498
:1037A0004098EECF7598ECCF8F929F92AF92BF92D8
:1037B000CF92DF92EF92FF92CF93C82F61111AC080
:1037C0000E94141B81110DC060E070E0CB01CF910D
:1037D000FF90EF90DF90CF90BF90AF909F908F9031
:1037E00008956CEC8C2F0E948F1B64E48C2F0E9438
:1037F0008F1BEACF442341F30E94141B6CEC8C2FE7
:103800000E948F1B6EEB8C2F0E948F1B8C2F0E94AF
:10381000491BC82E8C2F0E94491BD82E0D2C000C42
:10382000EE08FF08C701B601C1112FC00E94CA529D
:1038300020E030E040E85DE30E9478544B015C01F9
:1038400020E030E040EA50E40E943854181694F426
:1038500020E030E040EA52E4C501B4010E94165273
:1038600087FF08C080921D0490921E04A0921F043E
:10387000B0922004C701B6010E94CA5220E030E095
:1038800040E85DE30E947854A2CF0E94CA5220E033
:1038900030E040E85DE30E9478544B015C0120E099
:1038A00030E040EA50E4C130B9F40E9438541816B0
:1038B0000CF720E030E040EA52E4C501B4010E9478
:1038C000165287FFD7CF8092210490922204A092B3
:1038D0002304B0922404CECF0E943854181654F614
:1038E00020E030E040EA52E4C501B4010E941652E3
:1038F00087FFC0CF8092250490922604A0922704CF
:10390000B0922804B7CF019708F40895EFE9FFE0DB
:103910003197F1F700C00000F6CF80916F008D7FE6
:1039200080936F0080918100887F81608093810007
:1039300010925A098091EA1690913E158F3F49F4F2
:1039400020913815211105C0903829F490E00C948D
:10395000831C9430D9F70895CF93DF930E948D1C78
:10396000E0E0F5E181E3DF011D928A95E9F7CBE51F
:10397000D9E083E4FE0111928A95E9F7109232159D
:1039800010923115109279131092CB1381E080932D
:103990007A1310925A090E949E04809159098F8FC0
:1039A00082B1817090915809892B82B988B1817058
:1039B00090915909892B88B9DF91CF910895EF92A1
:1039C000FF920F931F93CF93DF93EC01FC0127E04D
:1039D0008FEF9FEF2150D9F48C017E0186E0E80E35
:1039E000F11C89910E940705EC16FD06D1F7802F86
:1039F0000E940705812F0E94070582E390E0DF9176
:103A0000CF911F910F91FF90EF900C94831C3191F7
:103A1000832748E050E0BC01617077279695879531
:103A2000672B21F031E0832730EA93274150510979
:103A300091F7D0CFCF93DF9300D000D0CDB7DEB7D2
:103A40008091FC1681FF0EC08091A0008F7D809335
:103A5000A00026960FB6F894DEBF0FBECDBFDF9153
:103A6000CF91089586E0E9E0F2E0DE011196019041
:103A70000D928A95E1F7CE0101960E94DF1CE9CFF5
:103A8000CF92DF92EF92FF92CF93DF9300D000D0DE
:103A9000CDB7DEB790913F15911110C06A017B013F
:103AA000811119C010924B1510924C1510924D15A2
:103AB00010924E150E941A1D1092491526960FB6A7
:103AC000F894DEBF0FBECDBFDF91CF91FF90EF9096
:103AD000DF90CF9008959091FC169270803181F420
:103AE00086E0EFE0F2E0992381F08091FC1681FFFF
:103AF00017C0C701B6010E94F4110E947004DCCF08
:103B00009111F3CF86E0E5E1F2E0DE01119601903C
:103B10000D928A95E1F7CE0101960E94DF1CE5CF58
:103B200020E030E040EC50E4C701B6010E94205292
:103B30000E94995281E0898386E08A8380EF8B839B
:103B400088E08C837D836E83CE0101960E94DF1C0A
:103B5000B3CFE1E0F1E080818061808383E08093F6
:103B6000A0008AE18093A10080E094E09093A900F6
:103B70008093A8002091F8163091F9164091FA161A
:103B80005091FB166091F4167091F5168091F6161F
:103B90009091F7160E9420519B01AC0160E070ECFF
:103BA0008FE794E40E94205260933609709337099E
:103BB00080933809909339090C941A1D8091391516
:103BC00084FD20C080E10E9481030E941A1D0E9492
:103BD0004B1190913E15892F8C7221F480914215E2
:103BE000867059F0943079F480913815811103C0B2
:103BF00086E00E9471030E948D1C81E00E94E81AF9
:103C000010925F15089583E0F4CF5F926F927F92D8
:103C10008F929F92AF92BF92CF92DF92EF92FF92DC
:103C20000F931F93CF93DF9300D000D000D01F924B
:103C30001F92CDB7DEB74C016DB67EB68BE0EBE1DF
:103C4000F2E0DE01119601900D928A95E1F70E9453
:103C5000601183E0582E5E012CE0A20EB11C8E0193
:103C60000F5F1F4FF80181918F010E942005A01660
:103C7000B106C1F784E690E00E94831C0E94F6041E
:103C80008A3A09F04BC00E94F604CDB6DEB6082F82
:103C900010E02DB73EB7201B310B0FB6F8943EBF96
:103CA0000FBE2DBFEDB7FEB731967F01682FCF0154
:103CB0000E94E0040E0D1F1DF801319780818535AB
:103CC00041F5F701369680E1D40101900D928A9575
:103CD000E1F70FB6F894DEBE0FBECDBE0FB6F89476
:103CE0007EBE0FBE6DBE2B960FB6F894DEBF0FBE24
:103CF000CDBFDF91CF911F910F91FF90EF90DF909B
:103D0000CF90BF90AF909F908F907F906F905F907B
:103D100008950FB6F894DEBE0FBECDBE5A94511072
:103D20009ECFDCCF4F925F926F927F928F929F9245
:103D3000AF92BF92CF92DF92EF92FF920F931F93B9
:103D4000CF93DF93C0913815CC2349F181E0809364
:103D50003E158CEE92E00E9403078C2F0E94DE0637
:103D60000E94BF0784EF91E00E94831CC150C230C3
:103D700088F485E893E00E94030788E793E00E94B7
:103D800003070E94A50980E10E94770380913915FD
:103D900084FFFCCF8FB7F894109238158FBFC09175
:103DA0003915CC2309F4DBC0C4FF14C081E0809333
:103DB0003F15DF91CF911F910F91FF90EF90DF9012
:103DC000CF90BF90AF909F908F907F906F905F90BB
:103DD0004F900895C0FF05C00E948D0A81E00E94A7
:103DE00077038C2F887E09F46AC080913E15982F46
:103DF000937009F053C08872A9F080914015807CBF
:103E000089F40E943A0482E08093421580913E1525
:103E1000803241F480E2C7FD0CC08091401580687B
:103E20008093401580913E15811103C091E09093DD
:103E30004015C6FF07C085FD05C0909140159064F0
:103E400090934015C3FF05C0807E19F480E18093F4
:103E50003E15C5FF23C085E893E00E9403078CE36D
:103E600093E00E9403070E94A5098091401587FDF9
:103E700010C090913E15903451F483FF04C0837EAE
:103E800082608093401580E480933E1502C0903894
:103E9000D1F780914015806280934015C7FF0CC018
:103EA00080913E15813029F4809140158560809382
:103EB000401580E880933E1588EE0E947703C1FF8D
:103EC00028C08C2F887611F580913E15803441F4FE
:103ED0008091401585FD04C084FFF4C010923E150A
:103EE00080913E15882309F4F3C084FF0FC09091A0
:103EF000401590FF0BC0803109F0EAC08091481551
:103F0000882309F4E5C088608093481582E00E9408
:103F10007703C2FF24C09091401580913E15807DAB
:103F200009F4EFC0809141158111EBC097FDEBC002
:103F30000E943A0480919F0980939E090E94360D49
:103F40008091421581FF05C090914015916090933A
:103F50004015897F8093421584E00E9477039091F9
:103F60003615992309F44DC08FB7F8941092361581
:103F70008FBF40914515842F90FD84E691FD865FAB
:103F800092FD8A5093FD8F5F94FD8150893C08F02B
:103F900088EC8A3008F48AE030914615232F95FD8D
:103FA00024E696FD22E397FD29E1481302C023177A
:103FB00041F1809345152093461510924915809044
:103FC0009F0940907813C82D89E9B82E96E7E92E0D
:103FD00026E9F22EDEE736E4532EC411AFC08B2D56
:103FE0009E2DAF2DBD2F8093190490931A04A0939A
:103FF0001B04B0931C040E943A0480929E090E9404
:10400000360D90913715992309F445C08FB7F89470
:10401000109237158FBF20914715822F90FD84E6AF
:1040200091FD865F92FD8A5093FD8F5F94FD8150D4
:10403000893C08F088EC8A3008F48AE0281749F0B7
:1040400020914215286020934215809347151092C5
:10405000491580913E1595FF09C0803139F42091B2
:1040600048152111C0C022E020934815292F207C3B
:1040700091F0882311F0887171F08091681597FF95
:1040800003C087FFB4C08F7796FF03C086FFB1C01F
:104090008F7B8093681580913E158C7F09F489CEC3
:1040A000DF91CF911F910F91FF90EF90DF90CF9014
:1040B000BF90AF909F908F907F906F905F904F9048
:1040C0000C94971282FF0CCF88608093401508CF24
:1040D000109242150E947D0A892B71F08091401543
:1040E00086FD0AC01092401588E080933E150E941C
:1040F00097120E945E040ACF1092401510923E154E
:1041000005CF97FF0AC0109242150E9477110E94B6
:10411000AC1C0E9490100E94F7098091401585FF09
:1041200008C08F7781608093401580E480933E15AE
:1041300013CF1092401510923E150ECFCC2ED12CDD
:10414000C59DC00111248056964F0E94080A3B016C
:10415000982EA92E2B2D3E2D4F2D5D2F0E943854C9
:104160005C9C80015D9C100D11240056164F1816A2
:104170009CF52B2D3E2D4F2D5D2F6B2D7E2D8F2DE4
:104180009D2F0E947854F80162A773A784A795A772
:104190005C9C80015D9C100D11240056164FF801A7
:1041A000C6A8D7A8E0ACF1ACA701960162A573A59B
:1041B00084A595A50E94385418162CF4F801C2A6BF
:1041C000D3A6E4A6F5A6CF5FC43209F4C0E0B62CAE
:1041D000E72CF92CDA2D01CF9301492D5A2DB3018B
:1041E000892D9A2DCECF20FF41CF24603DCF80680E
:1041F0004BCF80644ECFCF92DF92EF92FF920F931E
:104200001F93CF93DF930E94921E809140158823C5
:1042100009F460C00E947D0A0097D1F5C09169152C
:1042200080916815C82BC0906A15D0906B15E090EE
:104230006C15F0906D158091FC1681FF03C080E233
:104240000E945F03C073D1E080914015882309F478
:1042500041C090913F1591113DC080FF16C09091D3
:104260003E15292F207C09F484C082FD1BC01092CA
:10427000481540E050E0BA0180E00E94401D809166
:1042800040158D7F8460809340150E94921EDCCF84
:10429000FC01C1A18E5B9F4FFC01C080D180E280F8
:1042A000F380C9CF903811F585E893E00E940307A9
:1042B00083EF92E00E9403070E94A50940E050E0CE
:1042C000BA0180E00E94401D0E948D1C80913F1524
:1042D000882349F0DF91CF911F910F91FF90EF90CC
:1042E000DF90CF9008950E94921EF0CF903429F471
:1042F000909106018F7D809340158091401583FF3A
:10430000C4CF90916915992359F081FDBECF80915A
:10431000FC1681FF10C08091421588608093421581
:104320008091401581FDB1CF80618093401582E07E
:104330000E948103AACFB701A6018C2F0E94401DC5
:1043400001E510E00150110959F380913F158111E9
:10435000E7CF0E94921E8091401581FD96CFFFEF1E
:1043600020E782E0F15020408040E1F700C00000EB
:10437000E9CF809148158823C9F181FF0DC0809154
:104380006915882351F140E050E0BA0180E00E94B5
:10439000401DD093481579CF8C7009F476CF809169
:1043A0006915882399F085E893E00E9403078CEF54
:1043B00092E00E9403070E94A5098091FC1681FFEC
:1043C0000FC08091421588608093421580914815F6
:1043D00083FF03C082E00E9481031092481555CFED
:1043E000B701A6018C2F0E94401DF0CF809142158D
:1043F00083FF4BCFB701A6018C2F0E94401D8091F7
:104400004215877F8093421540CF0E942E0D0E9457
:10441000FB2080913F15811108C00E947D0A892BE5
:10442000B1F780913E15883091F30895CF93DF93D3
:1044300021E031E0829FE001839FD00D1124DD5FF8
:1044400040E051E0BE018DEA97E10E940611892B00
:1044500079F41092AD170E94052240E051E06DEA18
:1044600077E1CE010E94B61080E0DF91CF910895F0
:1044700081E0FBCF0E94052210924A150895CF9249
:10448000DF92EF92FF92CF9390913E15923079F0A8
:104490006A017B01C82F0E940522B701A6018C2F5B
:1044A000CF91FF90EF90DF90CF900C94401DCF9173
:1044B000FF90EF90DF90CF9008950F931F93CF93CD
:1044C000C82F8B010E9405222DE1C29FC00111243B
:1044D0004CE150E0B8019E5FCF911F910F910C9479
:1044E000B6101F93CF93DF93182FEB018DE1189F28
:1044F000B00111247E5F4CE150E0CE010E94061114
:10450000892B71F48CE1FE0111928A95E9F7BE01C5
:10451000812F0E945D2280E0DF91CF911F9108954D
:1045200081E0FACF4F925F926F927F928F929F922B
:10453000AF92BF92CF92DF92EF92FF920F931F93B1
:10454000CF93DF93CDB7DEB76C970FB6F894DEBF8D
:104550000FBECDBF182F80FFFAC18AE08093E71607
:1045600089E18093EA161092E81684E08093E916B8
:1045700082E08093EB168AE097EDA3E2BCE38093A0
:10458000EC169093ED16A093EE16B093EF168FE60F
:1045900092E1A3E0BBE38093F0169093F116A09311
:1045A000F216B093F31680E090E4ACE9B6E48093A1
:1045B000F4169093F516A093F616B093F716109292
:1045C000F8161092F9161092FA161092FB16109225
:1045D000FD1680E090E0A8ECB1E48093FE16909385
:1045E000FF16A0930017B093011780E090E0A6E1BA
:1045F000B4E48093021790930317A0930417B09329
:1046000005178AEF90E0909307178093061780E0D4
:1046100090E0A0E0B0E48093081790930917A0936E
:104620000A17B0930B1788E18093FC1680E090E0A6
:10463000A8ECB3E48093771690937816A09379163C
:10464000B0937A1680937B1690937C16A0937D1678
:10465000B0937E1680937F1690938016A093811658
:10466000B093821680E090E0AAE7B5E480939316B9
:1046700090939416A0939516B093961680939716E0
:1046800090939816A0939916B0939A1680939B16C0
:1046900090939C16A0939D16B0939E1680E098EC84
:1046A000AFEAB9E48093AF169093B016A093B11619
:1046B000B093B2168093B3169093B416A093B51628
:1046C000B093B6168093B7169093B816A093B91608
:1046D000B093BA1680E090E0A8ECB3EC8093CB16D0
:1046E0009093CC16A093CD16B093CE168093CF1690
:1046F0009093D016A093D116B093D2168093D31670
:104700009093D416A093D516B093D61681E08093DB
:104710000C1710920D1710920E1710920F1710927F
:10472000101710921117109212171092131710925F
:10473000141735E1C32E37E1D32E4CEEE42EFF24BF
:10474000FA94412C512C50EA652E50EC752E812C98
:10475000912C68E4A62E62ECB62EF601419251929D
:10476000619271926F01B7010F2C000C880B990BAD
:104770000E94CA52F601648B758B868B978B84A638
:1047800095A6A6A6B7A6FEE1EF1AF10888E3E816FB
:104790008FEFF80611F7EDE5F7E181E070EC60E4EA
:1047A00053E04AE036E022E392E2808311821282F3
:1047B000138274836583168217821086118652874E
:1047C000438734872587868797877096A7E1ED39D9
:1047D000FA0759F710929D1710929E1710929F1783
:1047E0001092A0171092A1171092A2171092A3175F
:1047F0001092A4171092A5171092A6171092A7173F
:104800001092A8171092A9171092AA1787E0809308
:10481000AB1784E08093AC178FE195ECA1E3B3E490
:104820008093831690938416A0938516B093861672
:1048300040E050E06AE775E440939F165093A0165D
:104840006093A1167093A216C12C88ECD82E8FEA23
:10485000E82E89E4F82EC092BB16D092BC16E092E6
:10486000BD16F092BE1680E090E0A8E4B3EC809311
:10487000D7169093D816A093D916B093DA16812C38
:10488000912C20EAA22E23E4B22E809287169092D9
:104890008816A0928916B0928A164093A316509358
:1048A000A4166093A5167093A616C092BF16D09258
:1048B000C016E092C116F092C2168093DB16909358
:1048C000DC16A093DD16B093DE1680928B169092C4
:1048D0008C16A0928D16B0928E16C092C316D092EE
:1048E000C416E092C516F092C6164093A7165093D0
:1048F000A8166093A9167093AA168093DF1690935A
:10490000E016A093E116B093E21680928F16909273
:104910009016A0929116B0929216C092C716D0929D
:10492000C816E092C916F092CA164093AB1650937F
:10493000AC166093AD167093AE168093E316909309
:10494000E416A093E516B093E6160E94F11011FF4D
:104950000FC0FE0131967F018CE111928A95E9F733
:1049600000E0B701802F0E945D220F5F0830C9F779
:1049700012FF14C060E080E093E00E94961060E0B7
:1049800081E093E00E94961060E081E094E00E9454
:10499000961060E082E094E00E94961013FF0AC037
:1049A00060E08EEA93E00E94961060E08FEA93E068
:1049B0000E9496106C960FB6F894DEBF0FBECDBF66
:1049C000DF91CF911F910F91FF90EF90DF90CF90EB
:1049D000BF90AF909F908F907F906F905F904F901F
:1049E00008952F923F924F925F926F927F928F9293
:1049F0009F92AF92BF92CF92DF92EF92FF920F936E
:104A00001F93CF93DF93CDB7DEB7C658D1090FB64A
:104A1000F894DEBF0FBECDBFE9967FAF6EAFE997CA
:104A2000B09078132B2D30E0E3963FAF2EAFE39795
:104A300026E4B29EA0011124BA016056764FEB968F
:104A40007FAF6EAFEB97DB011D922A95E9F7E996F0
:104A5000EEADFFADE9972485DB0191962C93FB0128
:104A6000EE5BFF4FE996AEADBFADE99714964D9161
:104A70005D916D917C91179740835183628373831D
:104A800018964D915D916D917C911B97EB96EEADD3
:104A9000FFADEB9742A353A364A375A321FFE9C124
:104AA0002CE1EFECF5E1DE01D99601900D922A950B
:104AB000E1F7E4968FAFE497E5969FAFE59727E798
:104AC00036E1CD57DF4F39832883C358D040BE012C
:104AD000635E7F4FCF57DF4F79836883C158D040E3
:104AE000CE01C996C158DF4F99838883CF57D040F4
:104AF000EB96AEADBFADEB97EF96BFAFAEAFEF9716
:104B00004E01B5E58B0E911CED969FAE8EAEED97E6
:104B100010E086E4E396EEADFFADE3978E9F1001C3
:104B20008F9F300C112491012056364F1901B90185
:104B3000645E7F4FCB57DF4F79836883C558D04081
:104B400070E2270E311CE596AEADBFADE5976D91D5
:104B50007D918D919D91E596BFAFAEAFE597CD5715
:104B6000DF4FE881F981C358D04041905190619066
:104B70007190CD57DF4FF983E883C358D040A3012C
:104B800092010E9478540E944554CF57DF4FA8816C
:104B9000B981C158D0406D937D938D939D93CF572C
:104BA000DF4FB983A883C158D040C158DF4FE88197
:104BB000F981CF57D040C190D190E190F190C15888
:104BC000DF4FF983E883CF57D0406C197D098E09F8
:104BD0009F099B01AC0197FF07C022273327A9013A
:104BE000261B370B480B590BEF96AEADBFADEF97B9
:104BF0002D933D934D935D93EF96BFAFAEAFEF977F
:104C0000CB57DF4FE881F981C558D040C080D180B3
:104C1000E280F380C216D306E406F50610F46901BB
:104C20007A01CB57DF4FA881B981C558D040CD92CA
:104C3000DD92ED92FC9213970E94CA52A301920159
:104C40000E942052ED96EEADFFADED97619371930A
:104C500081939193ED96FFAFEEAFED9720E030E0BA
:104C6000A9010E94165287FF07C0812F0E94840469
:104C7000D1019C91892B8C931F5F173009F063CF72
:104C800080E0CD28CE28CF2809F4D9C0CE018B5A98
:104C90009F4F0E9488116B017C0186E4E396EEAD84
:104CA000FFADE3978E9F80018F9F100D112400565A
:104CB000164FD801D296CD92DD92ED92FC92D59707
:104CC000BE016B5A7F4F8FEA96E10E94A10EF80158
:104CD00066A777A780AB91ABBE016B5A7F4F83E984
:104CE00096E10E94A10ED801DA966D937D938D9383
:104CF0009C93DD979196AC90025C1F4FA0FEBDC0C7
:104D0000F801608371838283938380919F09B81631
:104D100011F0A1FECDC086E4E3962EAD3FADE39742
:104D2000829FF001839FF00D1124E056F64F16A2EA
:104D300017A210A611A616AA17AA10AE11AE86E4E5
:104D4000E396EEADFFADE3978E9F80018F9F100D30
:104D500011240056164FD80191968C9181FD6EC09A
:104D6000EB968EAD9FADEB970E94080A6B017C011C
:104D70008090190490901A04A0901B04B0901C0419
:104D8000AC019B01C501B4010E94165287FF6DC1A1
:104D9000A5019401C501B4010E947854F80162A7ED
:104DA00073A784A795A786E4E396EEADFFADE397DE
:104DB0008E9F80018F9F100D11240056164FD80131
:104DC000D6968D909D90AD90BC90D997A5019401F9
:104DD0009A966D917D918D919C919D970E943854EA
:104DE00018162CF4F80182A693A6A4A6B5A6C09224
:104DF0001904D0921A04E0921B04F0921C048CE176
:104E0000FE01EB5AFF4FADEFB3E001900D928A9592
:104E1000E1F78CE1FE017D96A1EEB3E001900D92E9
:104E20008A95E1F78091E003809378138F5F843255
:104E300009F480E08093E0030E94360D81E0CA57B8
:104E4000DF4F0FB6F894DEBF0FBECDBFDF91CF911D
:104E50001F910F91FF90EF90DF90CF90BF90AF9098
:104E60009F908F907F906F905F904F903F902F908A
:104E700008952CE1E1EEF3E016CEE996AEADBFADBC
:104E8000E9972D913D914D915C91A3FC06C0F801ED
:104E9000208331834283538338CFC701B6010E94F8
:104EA0007854D8016D937D938D939C9313972DCF58
:104EB0006DEF73E0E9967FAF6EAFE9978E010F5FFC
:104EC0001F4F14017CE1270E311CC12CD12C76011F
:104ED0005801E996EEADFFADE99781919191A191CD
:104EE000B191E996FFAFEEAFE997E7968CAF9DAF32
:104EF000AEAFBFAFE797D4014D905D906D907D90C0
:104F00004D01A3019201E7966CAD7DAD8EAD9FADD5
:104F1000E7970E9478549B01AC01C701B6010E943B
:104F200020516B017C01E7962CAD3DAD4EAD5FADE0
:104F3000E797C301B2010E942051F8016193719378
:104F4000819391938F012814390419F62FEE3FEFC6
:104F50004FE75FE3C701B6010E94385418166CF49E
:104F600086E4E3962EAD3FADE397829FF001839FE9
:104F7000F00D1124E056F64FDECE2FEE3FEF4FE757
:104F80005FEBC701B6010E94165287FF15C086E489
:104F9000E3966EAD7FADE397869FF001879FF00D9E
:104FA0001124E056F64F89E996E7A6E9BEE786ABFD
:104FB00097ABA0AFB1AFC3CEC5010E948811B501B8
:104FC0008FEA96E10E94A10E4B015C01A7019601B8
:104FD00060E070E080E89FE30E94205120E030E034
:104FE00040E05FE30E9478540E9417556B017C01FA
:104FF0002091EC163091ED164091EE165091EF167F
:10500000C501B4010E947854A70196010E9478540A
:105010004B015C01A701960160E070E080E89FE32E
:105020000E9420519B01AC01C501B4010E94205295
:105030006B017C0120E030E0A9010E94165287FF3D
:1050400003C0C12CD12C760186E4E396AEADBFAD92
:10505000E3978A9FF0018B9FF00D1124E056F64FE5
:10506000C6AAD7AAE0AEF1AE6ACEA7019601C701E3
:10507000B6010E947854D8019A966D937D938D93D2
:105080009C939D9790CEBF92CF92DF92EF92FF922A
:105090000F931F93CF93DF93CDB7DEB7A9970FB6CA
:1050A000F894DEBF0FBECDBFB82E0E9405220E942D
:1050B000CC0F80913F15811179C08E01035E1F4F87
:1050C0008DE0F80111928A95E9F786E089A720E042
:1050D00030E040E450EC6091E3167091E41680916A
:1050E000E5169091E6160E9478546B017C0120E051
:1050F00030E0A9010E94165287FF03C0C12CD12CB9
:1051000076016FEC75E1CE0101960E94FC031092CE
:10511000E7151092E8151092E9151092EA15BB20D8
:1051200021F0F7FAF094F7F8F094C98EDA8EEB8E4E
:10513000FC8E82E08093441580E090E0A8E4B2E425
:105140008D8F9E8FAF8FB8A3B801CE0101960E94BC
:10515000F12484E0809342150E9497120E945E041D
:1051600012E0809109018095BB2081F1807181114D
:1051700010E0109344150E949712809139158473A2
:1051800009F448C01091391514FF03C086E00E944D
:10519000710315FF03C087E00E94710380913815E9
:1051A0008823B1F00E94DE1D0E94FB20A9960FB655
:1051B000F894DEBF0FBECDBFDF91CF911F910F914D
:1051C000FF90EF90DF90CF90BF9008958072CFCF87
:1051D00084E00E9477030E94AC1C80910617909196
:1051E00007170E94831C1092E7151092E815109281
:1051F000E9151092EA15109242150E94FB20809149
:105200003F158111D3CF0E9490100E94F7090E9490
:10521000D60FCCCF1111A5CFDECFBF92CF92DF92A8
:10522000EF92FF920F931F93CF93DF93CDB7DEB72B
:10523000A9970FB6F894DEBF0FBECDBFB82E0E945F
:1052400005225F9A0E94CC0F80913F15811176C094
:105250008E01035E1F4F8DE0F80111928A95E9F7E8
:1052600086E089A720E030E040E450EC6091DB1656
:105270007091DC168091DD169091DE160E947854B4
:105280006B017C0120E030E0A9010E94165287FFEB
:1052900003C0C12CD12C76016FEC75E1CE010196D3
:1052A0000E94FC031092DF151092E0151092E11598
:1052B0001092E215BB2009F451C0F7FAF094F7F808
:1052C000F094C98ADA8AEB8AFC8A80E480934415D8
:1052D00080E090E0A8E4B2E48D8F9E8FAF8FB8A3FA
:1052E000B801CE0101960E94F12484E0809342151A
:1052F0000E9497120E945E0410E4BB2011F07D9B77
:1053000010E0109344150E94971280913915847310
:1053100009F452C01091391514FF03C086E00E94B1
:10532000710315FF03C087E00E9471038091381557
:105330008823E9F00E94DE1D0E94FB20A9960FB68B
:10534000F894DEBF0FBECDBFDF91CF911F910F91BB
:10535000FF90EF90DF90CF90BF90089580E090E0B5
:10536000A0ECBFE3898B9A8BAB8BBC8BAECF84E078
:105370000E9477030E94AC1C80910617909107173A
:105380000E94831C1092DF151092E0151092E11517
:105390001092E215109242150E94FB2080913F1559
:1053A0008111CCCF0E9490100E94F7090E94D60F65
:1053B0000E9405225F98C2CF11119FCFDBCFAF9221
:1053C000BF92CF92DF92EF92FF920F931F93CF93F2
:1053D000DF93CDB7DEB7A9970FB6F894DEBF0FBE47
:1053E000CDBF182F0E9405220E94CC0F80913F153F
:1053F000811175C05E018DE1A80EB11C8DE0F50133
:1054000011928A95E9F786E089A720E030E040E430
:1054100050EC6091DF167091E0168091E11690914A
:10542000E2160E9478546B017C0120E030E0A90173
:105430000E94165287FF03C0C12CD12C76016FEC5D
:1054400075E1CE0101960E94FC031092E3151092C3
:10545000E4151092E5151092E615112309F450C0D9
:10546000CD8ADE8AEF8AF88E80E88093441580E04A
:1054700090E0AAEFB4E48D8F9E8FAF8FB8A3B501F3
:10548000CE0101960E94F12484E0809342150E948F
:1054900097120E945E0400E8112321F08091090117
:1054A00081FF00E0009344150E9497128091391506
:1054B000847309F456C00091391504FF03C086E0D7
:1054C0000E94710305FF03C087E00E947103809171
:1054D00038158823F1F00E94DE1D0E94FB20A9965A
:1054E0000FB6F894DEBF0FBECDBFDF91CF911F91F5
:1054F0000F91FF90EF90DF90CF90BF90AF90089505
:1055000080E090E0A8ECB2EC8D8B9E8BAF8BB88FD7
:10551000ABCF84E00E9477030E94AC1C80910617F9
:10552000909107170E94831C1092E3151092E415C6
:105530001092E5151092E615109242150E94FB207C
:1055400080913F158111CBCF0E9490100E94F709E6
:105550000E94D60F81E0111101C080E080935E159A
:10556000BECF011199CFD8CFEF92FF921F93CF9367
:10557000DF93EC017B018091FC1685FF22C0109126
:105580003E15103211F1CE010E948A038823C9F022
:1055900081E080934115183069F488E00E9481030E
:1055A0000E94FB2080913F1581110BC080913E1518
:1055B0008111F6CF0E94DE1D82E00E9471030E94DD
:1055C000FB2080913E158230C1F00E94FB2080912B
:1055D0003F15811112C090919F098091E0039813AB
:1055E00003C00E942E0DF1CFB701CE01DF91CF9104
:1055F0001F91FF90EF900C94F124DF91CF911F91B8
:10560000FF90EF9008952F923F924F925F926F928A
:105610007F928F929F92AF92BF92CF92DF92EF9242
:10562000FF920F931F93CF93DF93CDB7DEB7E7972A
:105630000FB6F894DEBF0FBECDBF90913F1591110C
:1056400014C18DAB9E01235E3F4F3AAB29AB8DE079
:10565000D9011D928A95E9F786E089A727E7A22E4E
:1056600026E1B22EFE01BA964F0110E000E0C12CF7
:10567000D12C7601FDA92F2E312C802F0E944503BD
:10568000D4018D934D01C101002E02C095958795DF
:105690000A94E2F780FF1BC020E030E040EC5FEBB3
:1056A000F501EC5AFF4F60817181828193810E94E4
:1056B0007854762E472E582E692EA70196010E9407
:1056C000165287FD04C0C72CD42CE52CF62C0F5F96
:1056D0001F4FB4E0AB0EB11C0730110571F680907E
:1056E000021790900317A0900417B090051794E04C
:1056F000692E01E06FEC75E1CE0101960E94FC037A
:105700008091FD16E82FF0E0FCABEBABFE0131968B
:105710008FEC482E85E1582E5FAA4EAA712C10E01E
:1057200030E020E0B701A6017058C101022E02C08E
:10573000959587950A94E2F780FF28C07394AEA9E7
:10574000BFA91D921D921D921C9213978BA99CA913
:10575000022E02C0959587950A94E2F780FF07C054
:10576000002339F0408351836283738306C0002392
:10577000C9F3C082D182E282F3828AE290E08C0F88
:105780009D1F820F931FDC018C91182B2F5F3F4FC1
:1057900034968EA99FA904969FAB8EAB2730310516
:1057A00021F6672D70E090E080E00E94C8520E94D0
:1057B000175510934415A50194010E9478546D8FDC
:1057C0007E8F8F8F98A3BE01635E7F4FCE010196BF
:1057D0000E94F12494E0909342150E9497120E9437
:1057E0005E040023E9F00E94B00FFE01BA9630E09B
:1057F00020E090E06191462F412359F0AC01022E48
:1058000002C0559547950A94E2F740FF02C06095A3
:1058100016232F5F3F4F2730310561F71093441552
:105820000E94971280913915847309F47AC01091FF
:10583000391514FF03C086E00E94710315FF03C0F1
:1058400087E00E947103011182C00E94B00FADA9D0
:105850008A2319F088E00E9471038091381588230B
:10586000E9F00E94DE1D0E94FB20E7960FB6F89437
:10587000DEBF0FBECDBFDF91CF911F910F91FF9083
:10588000EF90DF90CF90BF90AF909F908F907F90E0
:105890006F905F904F903F902F90089584E00E940A
:1058A00077030E94AC1C80910617909107170E9405
:1058B000831CB1E00B27D1F120E030E040EA50E456
:1058C000609108177091091780910A1790910B1732
:1058D0000E9478546B017C018090FE169090FF1618
:1058E000A0900017B09001176A94611003CF90E068
:1058F00080E09101082E02C0359527950A94E2F7C1
:1059000020FF05C0F20110821182128213820196DB
:10591000F4E04F0E511C8730910559F71092421553
:10592000A4CF812F8E7F09F05CCFBBCFC09008172A
:10593000D0900917E0900A17F0900B17809002178B
:1059400090900317A0900417B0900517CDCF12FFC9
:1059500084CF89E080CFCF93C82F0E94CC0F8C2FAB
:10596000C11104C084E00E94032B83E00E94032B3A
:105970000E94FB2080913F15811107C00E9490106A
:105980000E94F709CF910C94D60FCF9108952F92D2
:105990003F924F925F926F927F928F929F92AF92BF
:1059A000BF92CF92DF92EF92FF920F931F93CF930C
:1059B000DF93CDB7DEB7C256D1090FB6F894DEBF7C
:1059C0000FBECDBF7C01E4E7F3E089E5DF011D9266
:1059D0008A95E9F78AE0E0E6F5E1A5E7B3E0019012
:1059E0000D928A95E1F7F7018081843289F01EA635
:1059F0001FAA312C212C27961FAE1EAE27971FAE53
:105A00001FA61BAA88248394912CAA24A3947AC14C
:105A100081E0809375031092760383E08EA7F1E016
:105A2000FFABE7CF0FEB010F0A3110F00C944F3CA6
:105A30008F5F8EA7AE01465D5F4FBE01625D7F4FF7
:105A4000C7010E94F70E882311F40C94523C4AA41B
:105A50005BA46CA47DA4C301B2010E945B550E94AB
:105A60009952B62EC62ED12CB6010D2C000C880BE7
:105A7000990B0E94CA529B01AC01C301B2010E9462
:105A8000205120E030E048EC52E40E9478540E941B
:105A9000E5540E949952CB01173409F426C01D34F5
:105AA00009F48BC1E02F000FFF0B8827E55AF24D58
:105AB0008F4F0C94D1555A2F8D2F9A2FA72F8C2DA5
:105AC000B42F8C2D8C2DBE2FCB2FD82FE52F8C2DC6
:105AD000E92F8C2DF72F8C2D01300B3015308C2DAC
