:100000000C94BE020C94DF020C94DF020C94DF020D
:100010000C94DF020C94DF020C94DF020C94DF02DC
:100020000C94DF020C9436520C94DF020C94894B32
:100030000C94F0510C94DF020C94DF020C94DF025C
:100040000C94DF020C94EF4B0C94DF020C94DF0253
:100050000C94DF020C94DF020C94DF020C94D94B59
:100060000C94DF020C94CF500C94C5510C94DF0219
:100070000C94DF020C94DF020C94DF020C94DF027C
:100080000C94DF020C94DF020C94DF020C94B24F4C
:100090000C94A7500C947C500C94DF020C94DF025B
:1000A0000C94DF020C94DF020C94DF020C94DF024C
:1000B0000C94DF020C94DF020C94DF020C944B5280
:1000C0000C94DF020C94DF020C94DF020C94545069
:1000D0000C9429500C94DF020C94EE4F0C94C34FF7
:1000E0000C94DF02084AD73B3BCE016E84BCBFFDB7
:1000F000C12F3D6C74319ABD56833DDA3D00C77FF8
:1001000011BED9E4BB4C3E916BAAAABE0000008090
:100110003F05A84CCDB2D44EB93836A9020C50B91F
:10012000918688083CA6AAAA2ABE000000803F004B
:100130000C94A1310C948C510C949D510C94394B1E
:100140000C94F4450C9466510C9488510C94F0492D
:100150000C945C510C94B84A0C940F460C94A55125
:100160000C94F0450C9421460C948E510C947531EE
:100170000C94674B0C9454510C94B54A0C94F6456E
:100180000C94F44A0C944F310C940A4B0C94825109
:100190000C94CA4A0C945E4B0C9427460C949431F0
:1001A0000C9490510C9484510C9461310C945A51DC
:1001B0000C94794B0C9435310C94E24A0C9419460A
:1001C0000C9411310C947F310C9437510C945E5186
:1001D0000C941E310C944D4B0C94164B0C94334BD9
:1001E0000C94F7300C94D24A0C94AD510C946C5191
:1001F0000C94214B0C94564B0C94AE310C946251E0
:100200000C946A510C9486510C9478510C942D46A0
:100210000C946B310C942A4B0C9476510C94EC4555
:100220000C9470510C94AF510C94C5300C9404464E
:100230000C9494510C947C510C94704B0C94DF4AA8
:100240000C9497510C9400460C9428310C94A151B5
:100250000C94EB4A0C946E510C9433460C94354636
:100260000C94424B0C9474510C9460510C94AF4A12
:100270000C9458510C94FA450C941E4B0C94043178
:100280000C9442310C94A9510C94004B0C94B15134
:100290000C947E510C94BD4A0C944E510C940B2F2F
:1002A0000C94C04A0C9453310C94B3510C94725179
:1002B0000C9492510C9464510C94824B0D0A007C66
:1002C00057506F733A004D506F733A000D0A00415A
:1002D0006C61726D3A005BE68EA2E992883A003159
:1002E0002E302E33005B76657273696F6E3A007C38
:1002F00046533A007C4C6E3A007C42663A007C479A
:100300003A007C4D3A007C533A007C46423A007CED
:1003100053463A007C483A007C41463A007C4C3ACD
:10032000007C433A007C44523A007C443A007C54BE
:10033000443A007C523A007C52573A007C4C573A7F
:10034000007C5246543A007C4C46543A007C53544C
:100350003A007C463A007C543A007C4C443A007C9B
:1003600057506F733A007C4D506F733A00536C6571
:10037000657000446F6F723A00436865636B0041BB
:100380006C61726D00486F6D696E67004D6F7669C4
:100390006E67005061757365004D6F76696E67001A
:1003A0005265616479006572726F723A005D002C6B
:1003B000002C002C002C002C002C002C006E756CE6
:1003C0006C5D0027746872656164272C0027647275
:1003D000696C6C272C0027636F6E65272C002762E1
:1003E000616C6C272C0027656E646D696C6C272C22
:1003F000005B007D0D0A00273A007B27746F6F6C4D
:10040000007D0D0A00273A007B27746F6F6C007D1A
:100410000D0A00273A007B27746F6F6C000D0A00ED
:100420005D005B746F6F6C5374617475733A200078
:100430000D0A00537461727420746F6F6C207365C1
:100440007474696E6700204700204D00205300201F
:10045000460020540033382E005B47433A47005B88
:100460005A706F733A005B544C4F3A005B47393215
:100470003A003330003238005B47005B4F50543A4B
:10048000005B5645523A312E31652E3230313730CD
:100490003131343A00536C656570696E670052659E
:1004A00073746F72696E67207370696E646C650037
:1004B000526573746F72696E672064656661756CEE
:1004C00074730050726F6772616D20656E6465644D
:1004D00000436865636B206C696D697473004368E1
:1004E00065636B20646F6F720044697361626C6551
:1004F0006400456E61626C65640043617574696F88
:100500006E3A20556E6C6F636B656400506C65616C
:10051000736520756E6C6F636B00506C65617365FD
:10052000205265736574005B4D53473A006F6B0D45
:100530000A00244E005D7D0D0A002C007B27746F9D
:100540006F6C44617461273A5B000D0A0062656656
:100550006F7265546F6F6C3A000D0A006E6F7754BE
:100560006F6F6C3A000D0A00537461727420746FDF
:100570006F6C2073657474696E67000011241FBE70
:10058000CFEFD1E2DEBFCDBF00E00CBF2DE1A4E094
:10059000B4E001C01D92A436B207E1F714E0A0E078
:1005A000B2E0E6E4FEEB00E00BBF02C007900D9264
:1005B000A430B107D9F70E949E530C94215F0C948C
:1005C00000002F923F924F925F926F927F928F9294
:1005D0009F92AF92BF92CF92DF92EF92FF920F93D2
:1005E0001F93CF93DF93CDB7DEB72E970FB6F89456
:1005F000DEBF0FBECDBF4B015C017A0120E030E0D1
:10060000A9010E94425810E087FF05C0B7FAB094D4
:10061000B7F8B09411E0C501B4010E94C5586B87CA
:100620007C878D879E87112331F08DE2F7018083CF
:10063000C70101967C016B857C858D859E858E0129
:100640000F5F1F4F68013AE0232E312C412C512CB3
:100650003801EFEF6E1A7E0AA20191010E94DB5B66
:10066000605DF8016083B901CA01830161157105FC
:100670008105910569F7D701F301CE16DF06E1F593
:1006800083010C191D090F5F1F4F0E0D1F1D6B8578
:100690007C858D859E850E94F4589B01AC01C50127
:1006A000B4010E944C5793012C193D09E20EF31E30
:1006B0002EE2F7012083680124E0F22EFA94F11073
:1006C0001EC0F80113822E960FB6F894DEBF0FBE3F
:1006D000CDBFDF91CF911F910F91FF90EF90DF90F1
:1006E000CF90BF90AF909F908F907F906F905F90D2
:1006F0004F903F902F90089582918D93BECF20E030
:1007000030E040E251E40E94A45A4B015C010E9497
:10071000BE5820E3260FF60121936F01072E000C2F
:10072000880B990B0E94F6589B01AC01C501B401DE
:100730000E944C57C3CF2FB7F8949091D51A892BAC
:100740008093D51A2FBF08952FB7F8949091D41A9B
:10075000892B8093D41A2FBF08959FB7F894809364
:10076000D31A9FBF08959FB7F8942091D21A80950D
:1007700082238093D21A9FBF08952FB7F894909147
:10078000D21A892B8093D21A2FBF08954F925F926D
:100790006F927F928F929F92AF92BF92CF92DF9291
:1007A000EF92FF920F931F93CF93DF938090A11C42
:1007B000912C2FE6A22E2CE1B22E8C01D0E0C0E0CD
:1007C000F501C190D190E190F1905F0120E030E01F
:1007D000A901C701B6010E944258882381F1F8019E
:1007E0004080518062807380C4010C2E02C09595B8
:1007F00087950A94E2F720E030E0A90180FF11C05C
:10080000C301B2010E94425887FD09C0C701B60169
:100810009058A30192010E94425887FF10C081E0C6
:1008200016C0C301B2010E94645A1816C4F3A30192
:100830009201C701B6010E94645A181684F32196EA
:100840000C5F1F4FC730D10509F0BACF80E0DF91B0
:10085000CF911F910F91FF90EF90DF90CF90BF90BD
:10086000AF909F908F907F906F905F904F90089582
:100870008F929F92AF92BF92CF92DF92EF92FF92B0
:100880000F931F93CF93DF93EB012BE1E22E2CE12B
:10089000F22E8C016B018CE1C80ED11C699179910B
:1008A00089919991F70181909190A190B1907F01E8
:1008B0000E94F658A50194010E944C58F8016193DA
:1008C0007193819391938F01CC15DD0539F7DF91F9
:1008D000CF911F910F91FF90EF90DF90CF90BF903D
:1008E000AF909F908F900895E2E0F1E08081886062
:1008F00080830895882341F0739A91E0811101C0AB
:1009000090E09093F51A08957398F7CF882341F0FB
:100910008F9A91E0811101C090E09093F71A0895A9
:100920008F98F7CF813019F4899A8A9804C08998F2
:100930008230D9F78A9A8093F81A0895882341F073
:10094000A29A91E0811101C090E09093F61A089567
:10095000A298F7CFCF93DF93C091CD1AD091CE1A42
:100960002097C9F080919D1A816080939D1A6091B3
:10097000B31A7091B41A8091B51A9091B61A9B016E
:10098000AC010E94A45A6EA37FA388A799A71092D6
:10099000CE1A1092CD1ADF91CF910895E7EFFEE0C5
:1009A0008091F40E868F80918B1C8250990B880F5A
:1009B0008195858FEFE6F0E08081826080830895E5
:1009C0002091A01C21FF0BC09093AB008093AA0044
:1009D000892B31F48091A0008F7D8093A000089531
:1009E0008091A0008062F9CF882361F0813061F0AE
:1009F000823061F0833061F0843061F0853061F0E5
:100A000082E0089580E8089580E4089580E20895E2
:100A100080E1089588E0089584E00895882361F0D6
:100A2000813061F0823061F0833061F0843061F0B8
:100A3000853061F082E0089584E0089588E00895AB
:100A400080E1089580E2089580E4089580E80895A3
:100A5000AF92BF92CF92DF92EF92FF920F931F93CC
:100A6000CF93DF93E0908C1CF12CC0908D1CD12C87
:100A7000D0E0C0E010E000E0BC2EAC2EC7010C2E90
:100A800002C0959587950A94E2F780FF04C08C2FE9
:100A90000E940E05082BC60102C095958795AA9461
:100AA000E2F780FF04C08B2D0E94F404182B2196DE
:100AB000C730D10509F70093F40E1093F50EDF91BE
:100AC000CF911F910F91FF90EF90DF90CF90BF904B
:100AD000AF9008959091D61A8091D71A891749F04E
:100AE000E92FF0E0E753F64F80819F5F9093D61A8D
:100AF00008958FEF08952091D00EDC0180E08613D9
:100B000001C008959091CF0E2917D9F3E92FF0E095
:100B1000E153F24F30813D938F5F9F5F9093CF0EF3
:100B2000EECF9091CF0E8091D00E891749F0E92F2A
:100B3000F0E0E153F24F80819F5F9093CF0E0895D4
:100B40008FEF0895E091CD0C91E09E0F2091CE0D96
:100B5000291761F0F0E0E253F34F80839093CD0CBE
:100B60008091310180628093310104C02091D21ABA
:100B700024FFECCF0895E091C90A91E09E0F2091E7
:100B8000CA0B291761F0F0E0E653F54F808390938C
:100B9000C90A8091D10080628093D10004C0209165
:100BA000D21A24FFECCF0895E091C70891E09E0F80
:100BB0002091C809291761F0F0E0E853F74F8083CE
:100BC0009093C7088091C90080628093C90004C0D7
:100BD0002091D21A24FFECCF0895E091C306DC01E6
:100BE00080E091E09E0F2091C407291308C0E09394
:100BF000C3069091C10090629093C10008952D9119
:100C0000F0E0EC53F94F20838F5FE92F6813E9CFB1
:100C1000EECFE091C30691E09E0F2091C407291703
:100C200061F0F0E0EC53F94F80839093C30680911C
:100C3000C10080628093C10004C02091D21A24FFB9
:100C4000ECCF08951092D60E9091A01C97FD03C092
:100C50009CE09093D60E882331F08091D60E9CE0D4
:100C600089278093D60E08958F929F92AF92BF925C
:100C7000CF92DF92EF92FF920F931F93CF93DF9368
:100C8000CDB7DEB72D970FB6F894DEBF0FBECDBF40
:100C90006B017C01042F20E030E0A9010E94425842
:100CA00087FF07C08DE20E94A205F7FAF094F7F8DB
:100CB000F09420E030E048EC52E4C701B6010E9415
:100CC000A45A20E030E048EC52E4043031F0033024
:100CD00031F420E030E040E251E40E94A45A20E0E8
:100CE00030E040E05FE30E944D570E94BE5810E0A4
:100CF0003AE0832E912CA12CB12CE12FF0E061156C
:100D000071058105910581F581E090E08C0F9D1FB3
:100D1000E80FF91F80E31017C8F1101309C0E1E0D4
:100D2000F0E0EC0FFD1FE10FF11D80E380831F5FFA
:100D3000EE24E394F12CEC0EFD1EE10EF11C1111DA
:100D400028C02D960FB6F894DEBF0FBECDBFDF9141
:100D5000CF911F910F91FF90EF90DF90CF90BF90B8
:100D6000AF909F908F900895EE24E394F12CEC0EB9
:100D7000FD1EEE0EFF1EA50194010E94DB5B605D6F
:100D8000F7016083B901CA011F5FB7CF1F5F81936D
:100D9000C2CF101303C08EE20E94A205F701829118
:100DA0007F010E94A2051150CACF0F931F93CF93CA
:100DB0008C01C0E0F80161917191819191918F0155
:100DC0002091A01C43E020FF07C02BE832E441E261
:100DD0005DE30E94A45A44E00E943406C33019F037
:100DE0008CE20E94A205CF5FC43021F7CF911F9102
:100DF0000F9108958F929F92AF92BF92CF92DF9200
:100E0000EF92FF920F931F93CF93DF93CDB7DEB78F
:100E10002D970FB6F894DEBF0FBECDBF6B017C01DE
:100E2000042F20E030E0A9010E94425887FF07C04C
:100E30008DE20E940906F7FAF094F7F8F094102F6B
:100E4000123008F054C000FF0AC020E030E040E259
:100E500051E4C701B6010E94A45A6B017C0120E055
:100E600030E040E05FE3C701B6010E944D570E94A9
:100E7000BE5810E03AE0832E912CA12CB12CE12F2A
:100E8000F0E06115710581059105E9F581E090E0DB
:100E90008C0F9D1FE80FF91F80E3101708F445C061
:100EA000101309C0E1E0F0E0EC0FFD1FE10FF11DB0
:100EB00080E380831F5FEE24E394F12CEC0EFD1E93
:100EC000E10EF11C111134C02D960FB6F894DEBF5F
:100ED0000FBECDBFDF91CF911F910F91FF90EF908B
:100EE000DF90CF90BF90AF909F908F90089520E0BB
:100EF00030E048EC52E4C701B6010E94A45A6B01ED
:100F00007C0112509DCFEE24E394F12CEC0EFD1EDB
:100F1000EE0EFF1EA50194010E94DB5B605DF701F0
:100F20006083B901CA011F5FAACF1F5F8193B5CF4C
:100F3000101303C08EE20E940906F70182917F011F
:100F40000E9409061150BECF2091A01C40E020FF56
:100F500007C02BE832E441E25DE30E94A45A41E07D
:100F60000C94FA062091A01C43E020FF07C02BE858
:100F700032E441E25DE30E94A45A44E00C94FA0694
:100F80000F931F93CF938C01C0E0F8016191719191
:100F9000819191918F010E94B207C33019F08CE2C8
:100FA0000E940906CF5FC43081F7CF911F910F9146
:100FB00008958F929F92AF92BF92CF92DF92EF925D
:100FC000FF920F931F93CF93DF9300D000D000D0F8
:100FD0001F92CDB7DEB76115710581059105A9F4A2
:100FE00080E32A960FB6F894DEBF0FBECDBFDF9127
:100FF000CF911F910F91FF90EF90DF90CF90BF9016
:10100000AF909F908F900C94090600E09E012F5F97
:101010003F4F79012AE0822E912CA12CB12C67013F
:10102000C00ED11CA50194010E94DB5BF601608318
:10103000B901CA010F5F611571058105910579F745
:101040000E0D1F2D111DE016F10699F42A960FB60C
:10105000F894DEBF0FBECDBFDF91CF911F910F91EE
:10106000FF90EF90DF90CF90BF90AF909F908F90C8
:101070000895F80182918F01805D0E940906E3CFF7
:10108000CF92DF92EF92FF9297FF0CC06B017C0131
:101090008DE20E94090666277727CB016C197D092E
:1010A0008E099F09FF90EF90DF90CF900C94D907A5
:1010B000CF93DF93843658F06AE00E94AD5BC0E3C3
:1010C000C90F6AE00E94AD5BD0E3D90F04C0C0E055
:1010D000D0E08A30B0F7805D0E940906DD2319F068
:1010E0008D2F0E940906CC2329F08C2FDF91CF9100
:1010F0000C940906DF91CF910895CF93DF93EC0113
:10110000FE0184912196811103C0DF91CF91089552
:101110000E94A205F5CFCF93DF93EC01FE018491ED
:101120002196811103C0DF91CF9108950E94090695
:10113000F5CF2F923F924F925F926F927F928F9254
:101140009F92AF92BF92CF92DF92EF92FF920F9356
:101150001F93CF93DF9300D000D01F921F92CDB783
:10116000DEB7FC01108121803284C384D4840585DC
:10117000E684F784FE24EF24FE24428053806480BA
:10118000758049825A826B827C8286809780A08497
:10119000B1848D829E82AF82B88681EF93E00E94F7
:1011A0008B08133009F46DC050F4113009F466C097
:1011B0008EED93E0123051F08DEB93E045C014308A
:1011C00009F462C083EC93E01530B1F70E948B08FC
:1011D000822D0E9458088BEB93E00E948B0842E01E
:1011E000C301B2010E94FA0689EB93E00E948B08CA
:1011F00042E0C501B4010E94FA0687EB93E00E9429
:101200008B08832D0E94580885EB93E00E948B0881
:101210008C2D0E94580883EB93E00E948B088D2D43
:101220000E94580881EB93E00E948B08802F0E9457
:1012300058088FEA93E00E948B08B70190E080E0A5
:101240000E94D9078DEA93E028960FB6F894DEBF86
:101250000FBECDBFDF91CF911F910F91FF90EF9007
:10126000DF90CF90BF90AF909F908F907F906F90C6
:101270005F904F903F902F900C948B0886EE93E0F8
:10128000A5CF86ED93E0A2CF8DEC93E09FCF8CECC1
:1012900092E00C948B08CF93C82F86EA93E00E94CB
:1012A0008B088C2F0E945808CF910C9447098823F3
:1012B00021F0823031F00C944B098DE295E00C94D2
:1012C0008B080895CF92DF92EF92FF92CF93DF9336
:1012D000D82F6A017B01C22F84E20E9409068D2F5C
:1012E0000E9458088DE30E9409064C2FC701B601E1
:1012F0000E94FA06DF91CF91FF90EF90DF90CF90A0
:101300000C944709EF92FF920F931F93CF93DF93B3
:1013100005EC1CE1C2EDD0E0EE24E394EC0E82E09B
:10132000F82EFC0EF801D130C9F0D230F1F0408136
:1013300051816281738123E08C2F0E946209DF5FFB
:10134000D33081F7CD5F0C5F1F4FC43E21F7DF9193
:10135000CF911F910F91FF90EF900895408D518D87
:10136000628D738D23E08E2DE8CF40A951A962A92B
:1013700073A923E08F2DE1CFCF93DF93D82FC62F12
:1013800084E20E9409068D2F0E9458088DE30E9476
:1013900009068C2F0E945808DF91CF910C944709C1
:1013A000EF92FF920F931F93CF93DF9360918B1C6B
:1013B00070E080E00E94BC0960918E1C70E081E0CA
:1013C0000E94BC0960918C1C70E082E00E94BC0904
:1013D00060918D1C70E083E00E94BC096091A01CAC
:1013E00062FB662760F970E084E00E94BC096091AE
:1013F000A01C66FB662760F970E085E00E94BC09CE
:101400008091A01C082E000C990B692F661F66277F
:10141000661F70E086E00E94BC0960918F1C70E03E
:101420008AE00E94BC094091901C5091911C6091EF
:10143000921C7091931C23E08BE00E946209409102
:10144000941C5091951C6091961C7091971C23E000
:101450008CE00E9462096091A01C617070E08DE0D8
:101460000E94BC096091A01C65FB662760F970E0D2
:1014700084E10E94BC096091A01C63FB662760F9AF
:1014800070E085E10E94BC096091A01C62956170CA
:1014900070E086E10E94BC096091A11C70E087E1C8
:1014A0000E94BC094091A21C5091A31C6091A41CF5
:1014B0007091A51C23E088E10E9462094091A61C5E
:1014C0005091A71C6091A81C7091A91C23E089E190
:1014D0000E9462096091AA1C7091AB1C8AE10E9473
:1014E000BC094091AC1C5091AD1C6091AE1C709138
:1014F000AF1C23E08BE10E9462094091981C50913F
:10150000991C60919A1C70919B1C20E08EE10E94B6
:10151000620940919C1C50919D1C60919E1C709191
:101520009F1C20E08FE10E9462096091A01C6695DB
:10153000617070E080E20E94BC094091B91C50913A
:10154000BA1C6091BB1C7091BC1C23E081E20E941C
:1015500062094091BD1C5091BE1C6091BF1C7091EE
:10156000C01C23E082E20E9462094091C11C50919C
:10157000C21C6091C31C7091C41C23E083E20E94D2
:10158000620940915D1D50915E1D60915F1D7091DB
:10159000601D23E084E20E9462096091611D70E099
:1015A00085E20E94BC0994E6F92E10E0CBE1DCE173
:1015B00000E0E02EEF0C123009F461C0133009F4A2
:1015C0006BC0113009F456C0488159816A817B8112
:1015D00023E08E2D0E9462090F5F2496073049F7A1
:1015E0008AE0F80E1F5FECE8FE12E0CF6091B01CBD
:1015F00070E088EC0E94BC094091B11C5091B21C73
:101600006091B31C7091B41C23E089EC0E946209C4
:101610004091B51C5091B61C6091B71C7091B81CDC
:1016200023E08AEC0E94620905EC1CE1C2EDD0E0E7
:10163000EE24E394EC0E82E0F82EFC0EF801D1309B
:10164000A1F1D230C9F1408151816281738123E0DF
:101650008C2F0E946209DF5FD33081F7CD5F0C5F72
:101660001F4FC43E21F7DF91CF911F910F91FF9043
:10167000EF9008954C8D5D8D6E8D7F8DA9CF20E00C
:1016800030E041E655E468AD79AD8AAD9BAD0E948E
:101690004C58AB01BC019CCFFE01EC5AFF4F40817E
:1016A000518162817381705893CF408D518D628DCD
:1016B000738D23E08E2DCDCF40A951A962A973A9C6
:1016C00023E08F2DC6CF8DE50E9409060C944709B3
:1016D00085EE92E00E948B088FED92E00E948B08CD
:1016E0000C94630BCF93DF93CDB7DEB76C970FB637
:1016F000F894DEBF0FBECDBF86ED92E00E948B084E
:1017000067ED7EE0CE0101960E943804CE0101967D
:101710000E94C0078AE30E9409068091E11A0E9494
:1017200058088CE20E9409066091B51C7091B61CA5
:101730008091B71C9091B81C0E94B2070E94630B65
:101740006C960FB6F894DEBF0FBECDBFDF91CF9180
:101750000895CF93DF93EC018991811103C0DF914C
:10176000CF9108950E940906F7CFE3E7FBE1A7E8D0
:10177000B6E041915191619171914D935D936D935B
:101780007D938BE1EF38F807A1F70895BF92CF92D0
:10179000DF92EF92FF920F931F93CF93DF937C0121
:1017A000FC01FE9600811181D281C381FC0181A1DF
:1017B00080FF33C06091E41A70E090E080E00E9406
:1017C000F6582AE037ED43E25CE30E94A45A9B01FD
:1017D000AC01B8018D2F9C2F0E94A45A8B01D82FE9
:1017E000C92F20E030E040E85FE3B8018D2F9C2F47
:1017F0000E94645A181624F000E010E0D0E8CFE30D
:10180000B8018D2F9C2FDF91CF911F910F91FF90E9
:10181000EF90DF90CF90BF90089582FD17C0609148
:10182000E31A70E090E080E00E94F6582AE037ED7D
:1018300043E25CE30E94A45A9B01AC01B8018D2FE6
:101840009C2F0E94A45A8B01D82FC92FF701B2AC4C
:10185000C3ACD4ACF5AC98014D2F5C2F6B2D7C2D17
:101860008D2D9F2D0E94425887FFBBCF0B2D1C2D25
:10187000DD2DCF2DB6CF80913B0F90911419981785
:1018800039F026E4829FC0011124845C904F0895B2
:1018900090E080E008954F925F926F927F928F92D6
:1018A0009F92AF92BF92CF92DF92EF92FF920F93EF
:1018B0001F93CF93DF93CDB7DEB7C057D1090FB6D3
:1018C000F894DEBF0FBECDBF8CE1E3E7FBE1DE01A4
:1018D000119601900D928A95E1F7BE016F5F7F4FDF
:1018E000CE014D960E943804BE016F5F7F4FCE013E
:1018F000C9960E9438048CE30E9409068091DC1A84
:10190000883009F43EC108F022C1813009F442C197
:1019100008F432C1823009F440C1843009F437C17F
:1019200080918F1C282F2170E22E80FF4FC1809163
:10193000E81A882309F44AC186E693E00E948B08DE
:10194000CE014D960E94C0078FE593E00E948B0860
:10195000CE01C9960E94C0078AE593E00E948B08D9
:101960006091FE1A7091FF1A8091001B9091011BEB
:1019700042E00E94FA0686E593E00E948B0880917F
:10198000B01C0E94580882E593E00E948B08609189
:10199000121B7091131B8091141B9091151B0E94B8
:1019A000A4078DE493E00E948B0860E070E0CB0117
:1019B0000E94A40787E493E00E948B0860E070E037
:1019C000CB010E94A40781E493E00E948B0860E0B1
:1019D00070E0CB010E94A4078CE393E00E948B0887
:1019E0006091F91A70E090E080E00E94F4580E9443
:1019F000A40787E393E00E948B086091FA1A70E0D5
:101A000090E080E00E94F4580E94A40783E393E0F2
:101A10000E948B086091F11A70E090E080E00E94D3
:101A2000F4580E94A4078EE293E00E948B08609114
:101A3000F21A70E090E080E00E94F4580E94A4073F
:101A40008AE293E00E948B086091F31A70E090E0C4
:101A500080E00E94F4580E94A40785E293E00E946F
:101A60008B086091FB1A70E090E080E00E94F458CF
:101A70000E94A40781E293E00E948B086091F41A0F
:101A800070E090E080E00E94F4580E94A4078DE18D
:101A900093E00E948B086091F51A70E090E080E07E
:101AA0000E94F4580E94A40788E193E00E948B08EA
:101AB0006091F61A70E090E080E00E94F4580E9475
:101AC000A40784E193E00E948B086091FD1A70E006
:101AD00090E080E00E94F4580E94A4078FE093E019
:101AE0000E948B086091F81A70E090E080E00E94FC
:101AF000F4580E94A4078AE093E00E948B0860914A
:101B0000F71A70E090E080E00E94F4580E94A40769
:101B100086E093E00E948B0860910E1B70910F1B72
:101B20008091101B9091111B40E00E94FA0682E008
:101B300093E00E948B0880910D1B803109F498C0BE
:101B4000803209F425C1811196C085E392C08032AC
:101B5000D9F050F4803109F0E3CE8091DE1A87FD90
:101B600013C083E993E00AC08034D1F0803809F0D3
:101B7000D7CE8DE693E002C080EA93E00E948B0806
:101B8000CFCE89E993E0FACF8CE893E0F7CF85E8F0
:101B900093E0F4CF8FE793E0F1CF89E793E0EECFC6
:101BA00083E793E00E948B088091DE1A83FF04C0D4
:101BB00083E30E940906B4CE82FF06C085FF02C0FF
:101BC00081E3F7CF80E3F5CF82E3F3CF40906F1B43
:101BD0005090701B6090711B7090721B87E3A82E51
:101BE0008BE1B82E6E0185E5C80ED11C8E01075C15
:101BF0001F4FF12C4601F5016191719181919191F5
:101C00005F01208D318D428D538D0E944D57F6011D
:101C100061937193819391936F01F2E0FF1225C05C
:101C2000A30192010E944D57F4016087718782875A
:101C30009387E11016C0F6013497208131814281EB
:101C40005381F80160817181828193810E944C5798
:101C5000F8016083718382839383F6E0FF1609F4B1
:101C60006BCEF3940C5F1F4FC6CFEE2021F3F5CF60
:101C700083E30E9409068EEF92E00E948B08809118
:101C80000A1B8A5C0E94580880918F1C81FF1EC02D
:101C900089EF92E00E948B089091141980913B0F7C
:101CA000981708F477C08D5D891B0E9458088CE254
:101CB0000E9409068091C5089091C608981708F4FB
:101CC0006BC0981B892F80950E9458080E943B0C7E
:101CD000009791F0FC01C2A0D3A0E4A0F5A0C1142C
:101CE000D104E104F10441F084EF92E00E948B08FA
:101CF000C701B6010E9440088FEE92E00E948B0857
:101D00008091DC1A8C7709F44AC06091B31A709103
:101D1000B41A8091B51A9091B61A0E94A4078CE269
:101D20000E9409066091E91A7091EA1A8091EB1AF3
:101D30009091EC1A40E00E94FA068091E81A8823FC
:101D400091F181508093E81A8091E71A8823E1F19C
:101D500081508093E71A8EE30E9409060E9447098A
:101D6000C059DF4F0FB6F894DEBF0FBECDBFDF9175
:101D7000CF911F910F91FF90EF90DF90CF90BF9088
:101D8000AF909F908F907F906F905F904F9008954D
:101D900084E36FCF815088CF8150891B95CF60E05D
:101DA00070E0CB01BACF8091DC1A8C7759F08DE1CD
:101DB0008093E81A8091E71A8111C6CF81E0809361
:101DC000E71AC2CF89E0F4CF8091DC1A8C7711F04A
:101DD00083E1BFCF89E0BDCF0E943B0C892B19F076
:101DE00082E00C94BD0308952F923F924F925F9230
:101DF0006F927F928F929F92AF92BF92CF92DF921B
:101E0000EF92FF920F931F93CF93DF9300D01F9217
:101E1000CDB7DEB700911419002309F486C00983F9
:101E200039813150398310913A0F131709F466C084
:101E3000C32ED12CE6E43E9FC00111249C01245CFA
:101E4000304F7901F90172A483A494A4A5A466A5D6
:101E500077A580A991A99B01AC010E944D57F7017C
:101E600022A933A944A955A90E94A45AB62EE72E47
:101E7000F82E9B83262F372F482F592F672D782D2B
:101E8000892D9A2D0E94425887FF03C0B72C7401F8
:101E9000AB8286E48C9DF0018D9DF00D1124E45CF5
:101EA000F04F8B2D9E2DAF2DBB8186A397A3A0A7AE
:101EB000B1A7F9818F2FF11101C084E2FF24FA94B8
:101EC000F80E30903B0F1F1133C0131102C00E9457
:101ED000AA04E6E41E9FC0011124845C904F9A83FB
:101EE000898333243394310EF4E23F1201C0312C44
:101EF00086E4282E031185C010933A0F0F900F909F
:101F00000F900F90DF91CF911F910F91FF90EF9065
:101F1000DF90CF90BF90AF909F908F907F906F9009
:101F20005F904F903F902F90089524E2298378CFBF
:101F3000298186E4289F90011124245C304F3C8342
:101F40002B8326E4E22E8F2C912CFE9CC0011124C1
:101F5000FC01E45CF04FFA83E983F11002C094E2E3
:101F6000F92EFA94F31002C00E94AA04E89CC00162
:101F7000E99C900D11249C01245C304F6901F9010A
:101F800042A453A464A475A4A301920166A177A1FD
:101F900080A591A50E944258882339F1F60166A5D3
:101FA00077A580A991A99B01AC010E944D57F6012C
:101FB00022A933A944A955A90E94A45AEB81FC8106
:101FC00026A137A140A551A50E944D574B015C01A8
:101FD000AC019B01C301B2010E94645AF6011816BC
:101FE0005CF486A297A2A0A6B1A629813A813C837F
:101FF0002B831F11A8CF6DCF46A257A260A671A652
:10200000F4CFC32CD12C329CC00111249C01245C40
:10201000304F7901E981FA8146A057A060A471A4EC
:10202000F90186A097A0A0A4B1A4A5019401C301C1
:10203000B2010E94425887FF26C0E981FA8166A555
:1020400077A580A991A99B01AC010E944D57E98118
:10205000FA8122A933A944A955A90E94A45AA3012F
:1020600092010E944D572B013C01AC019B01C5011F
:10207000B4010E94645A181634F4F70146A257A21C
:1020800060A671A6132D2C9CF0012D9CF00D11243F
:10209000E45CF04F22A533A544A555A566A177A120
:1020A00080A591A50E944258811101C0132D33943F
:1020B000F4E23F1201C0312CFA82E9821BCF6F9209
:1020C0007F928F929F92AF92BF92CF92DF92EF92C8
:1020D000FF920F931F93CF93DF93EB018C015B0172
:1020E0008CE1A80EB11C89E9682E96E7792E26E9C5
:1020F000822E3EE7932EC990D990E990F99020E086
:1021000030E0A901C701B6010E9442588823B9F006
:10211000A7019601F80160817181828193810E94FB
:102120004C586B017C01E894F7F89301A401C701B6
:10213000B6010E94645A181614F0360147010C5F6C
:102140001F4FCA15DB05B9F6B301C401DF91CF916A
:102150001F910F91FF90EF90DF90CF90BF90AF90C5
:102160009F908F907F906F9008954F925F926F92A3
:102170007F92AF92BF92CF92DF92EF92FF920F9336
:102180001F93CF93DF936C01FB015A01A081A80F2D
:10219000B92FB11D8C91ED018D3249F52296119622
:1021A0008C9101E0512C612C10E020E030E0A9017D
:1021B0007E0190ED792E780E89E0871528F16394E1
:1021C000A8E0A615E8F051101150A5E0B0E00E947B
:1021D000245C9B01AC01220F331F441F551F270DA8
:1021E000311D411D511D2196D7018C91E1CF8B32BC
:1021F00019F0219600E0D6CF229611968C91FACF55
:102200005110F1CF1F5FEFCFBEEF7B1205C0511011
:1022100003C055245394E7CF662009F17F01CA011A
:10222000B9010E94F4582B013C0120E030E0A901E3
:102230000E94425881112EC0002309F448C077FA49
:10224000709477F87094F5014082518262827382B3
:10225000CC19DD09C150F701C08366246394862D33
:10226000DF91CF911F910F91FF90EF90DF90CF9072
:10227000BF90AF907F906F905F904F9008952AE04D
:1022800037ED43E25CE3C301B2010E94A45A2B0183
:102290003C011E5F1F3F9CF31F3F59F42DEC3CECAB
:1022A0004CEC5DE3C301B2010E94A45A2B013C0136
:1022B000C3CF112309F220E030E040E251E4C30132
:1022C000B2010E94A45A2B013C011150F2CFD5015A
:1022D0004D925D926D927C921397BACF93B180919B
:1022E000A01C86FF17C09E77B9F094FB882780F961
:1022F00095FD8260292F207409F08460292F2470B5
:1023000092FD886091FD80612111806293FF05C07C
:10231000806408959095E7CF80E00895EBE6F0E0C3
:10232000808181788083E8E6F0E080818E7F808301
:10233000089584B1817884B9809107018B7F80935F
:1023400007018091080184608093080185B18E6740
:1023500085B98091A01C83FF16C080916B008E67A9
:1023600080936B008091680081608093680084B7DF
:10237000877F84BF8091600088618093600081E0E6
:102380008093600008950E948E11F1CF27E030E025
:1023900090E0AC01022E02C0559547950A94E2F7F1
:1023A000A09A40FF11C000000000000000000000E3
:1023B00000000000000000000000A09800000000E5
:1023C0002150310930F7089500000000A098000066
:1023D00000000000000000000000000000000000FD
:1023E0000000EECF809185048823F1F180917A007E
:1023F000806480937A0080917A0086FDFCCF909172
:10240000780080917900892798278927009721F003
:10241000893E23E092075CF01092710410927204DE
:10242000109273041092740410927B040895092E84
:10243000000CAA0BBB0B4091800450918104609169
:10244000820470918304840F951FA61FB71F809389
:10245000800490938104A0938204B09383048091BC
:1024600084048F5F80938404089563E77BE18BE1AC
:102470009BE10C943804F894F999FECF92BD81BD8C
:1024800081E08FBB20B5862F8227082E000C990B88
:1024900050E086239523892B49F084E16F3F11F0AA
:1024A00060BD84E08FBBF99A789408952617E1F314
:1024B00060BD84E2F7CF9F92AF92BF92CF92DF923E
:1024C000EF92FF920F931F93CF93DF935C018A01EA
:1024D0007B01E40EF51EEB01912C6C01C61AD70AA4
:1024E000CE018C0D9D1D21E0911007C0292D990C66
:1024F000330B232F221F2227221F6991962E920E23
:102500000E943B12CE15DF0559F7692DC501800FDA
:10251000911FDF91CF911F910F91FF90EF90DF906E
:10252000CF90BF90AF909F900C943B126AE090E0E8
:1025300080E00E943B1247E451E06BE17CE181E0E6
:1025400090E00C945B12F999FECF92BD81BD81E0C1
:102550008FBB80B508959F92AF92BF92CF92DF92CA
:10256000EF92FF920F931F93CF93DF935B018A014A
:102570007C01E40EF51EEC01912C6B01C81AD90AFE
:10258000C6018C0F9D1F0E94A31221E0911007C06D
:10259000292D990C330B232F221F2227221F982E1F
:1025A000920E8993CE15DF0559F7C501800F911F53
:1025B0000E94A31221E030E0891511F030E020E004
:1025C000C901DF91CF911F910F91FF90EF90DF90A4
:1025D000CF90BF90AF909F900895EF92FF920F938E
:1025E0001F93CF93DF9300D000D01F921F92CDB7DF
:1025F000DEB79E012F5F3F4F7901285F3F4FF70104
:10260000982F917091938695E217F307C9F78F0180
:10261000F80182918F01805D0E940906E016F106A3
:10262000B9F728960FB6F894DEBF0FBECDBFDF9185
:10263000CF911F910F91FF90EF900895E9ECF0E09A
:1026400080818F7E80838081806180838091D00EA5
:102650008093CF0EEFECFDE080E091E0DF019C0184
:102660001D9221503040E1F70895E7E8F6E08CE351
:10267000DF011D928A95E9F710923B0F1092141911
:1026800081E08093860610923A0F089580E00E94C0
:102690009E0480E00E94920480E00E948604A59837
:1026A00080E00E947A04E2E0F1E080818F7D808307
:1026B00080818F7B808310988B985F988081877F43
:1026C000808308954F925F926F927F92AF92BF92F4
:1026D000CF92DF92EF92FF920F931F93CF93DF93EE
:1026E000EC015C012CE1A20EB11C8C01C12CD12C9F
:1026F0007601F80141905190619071908F0120E036
:1027000030E0A901C301B2010E944258882371F050
:10271000A3019201C301B2010E94A45A9B01AC0122
:10272000C701B6010E944D576B017C010A151B05BC
:1027300001F7C701B6010E94435B6B017C01AC014C
:102740009B0160E070E080E89FE30E944C582B0101
:102750003C0169917991899199915E01F4E0AF1AF8
:10276000B108A30192010E94A45AF501608371830C
:1027700082839383C017D10761F7C701B601DF9148
:10278000CF911F910F91FF90EF90DF90CF90BF906E
:10279000AF907F906F905F904F9008954F925F92AF
:1027A0006F927F928F929F92AF92BF92CF92DF9261
:1027B000EF92FF926B017C0180909C1C90909D1C7D
:1027C000A0909E1CB0909F1C4090981C5090991C0B
:1027D00060909A1C70909B1CA3019201C501B401EA
:1027E0000E94645A87FF1BC06091E51A70E090E078
:1027F00080E00E94F6582AE037ED43E25CE30E9455
:10280000A45AA70196010E94A45A6B017C01AC0155
:102810009B01C301B2010E9442581816BCF04092BD
:10282000E91A5092EA1A6092EB1A7092EC1A80E060
:1028300094E0FF90EF90DF90CF90BF90AF909F908B
:102840008F907F906F905F904F900895A7019601B1
:10285000C501B4010E94645A87FD1FC020E030E02A
:10286000A901C701B6010E94425881110BC0109204
:10287000E91A1092EA1A1092EB1A1092EC1A90E0F0
:1028800080E0D7CF8092E91A9092EA1AA092EB1AD0
:10289000B092EC1A81E090E0CCCFC092E91AD092CD
:1028A000EA1AE092EB1AF092EC1AA5019401C70122
:1028B000B6010E944C572091D20E3091D30E409118
:1028C000D40E5091D50E0E94A45A0E94315920E096
:1028D00030E040E85FE30E944D570E94C558CB01AD
:1028E000A8CF2F923F924F925F926F927F928F92DA
:1028F0009F92AF92BF92CF92DF92EF92FF920F938F
:102900001F93CF93DF93CDB7DEB7C054D1090FB675
:10291000F894DEBF0FBECDBF8091E01A80FD75C276
:102920009091151980911619981709F46EC280912B
:10293000CD1A9091CE1A892B09F07EC01091E01A21
:1029400012FF7DC28091141926E4829FC0011124D8
:10295000845C904F9093CE1A8093CD1A4091CD1AFB
:102960005091CE1A5E834D83452B09F44EC20091DF
:102970009D1A00FF67C210929D1A1092AF1A109212
:10298000B01A1092B11A1092B21AAD81BE819E9601
:102990002D913D914D915C91D19729833A834B8341
:1029A0005C8360E070E080E09FE30E944C586987A0
:1029B0007A878B879C87ED81FE8142A853A864A803
:1029C00075A886A097A0A0A4B1A411FF29C3F2E026
:1029D000F093AE1AA50194010E94A45A9B01AC0188
:1029E000C301B2010E944C576B017C0120E030E032
:1029F000A9010E94425887FF02C329813A814B8175
:102A00005C81CA01B9010E944D57A30192010E9445
:102A1000A45A9B01AC01C501B4010E944C570E940D
:102A2000435B6093BB1A7093BC1A8093BD1A90935A
:102A3000BE1A18601093E01AE0916719F8E0EF9F52
:102A4000D0011124BA87A987FD01E95EF64E809175
:102A50009C1A84834090CD1A5090CE1AD201D296FF
:102A6000BC91BEA3F201F3A9FFA3D201D496BC91FD
:102A7000B8A7F201F5A9F9A72091AA1A3091AB1ACB
:102A80004091AC1A5091AD1A6EA17FA18B2F9F2F50
:102A90000E944C576AAB7BAB8CAB9DAB20E030E027
:102AA000A9010E94425887FF04C01AAA1BAA1CAAA7
:102AB0001DAA2091BF1A2E8B3091C01A3F8B4091D6
:102AC000C11A488F5091C21A598F8091B71A8E8FB0
:102AD0009091B81A9F8FA091B91AA8A3B091BA1A71
:102AE000B9A3E091C31AEAA7F091C41AFBA72091F9
:102AF000C51A2CA73091C61A3DA74091B31A4FAF03
:102B00005091B41A21965FAF21976090B51A7090DA
:102B1000B61A8091AE1A89839091AF1A9EA7A091A0
:102B2000B01AAFA7B091B11AB8ABE091B21AE9AB45
:102B3000F091BB1AFBAF2091BC1A2CAF3091BD1A9B
:102B40003DAF4091BE1A4EAF2AA53BA54CA55DA551
:102B50006E897F89888D998D0E9442588111EFC3BB
:102B600052E05EAB9EA19D83AFA1AD87B8A5B98BA6
:102B7000E9A5ED8B8EE3C82E83ECD82E8EE2E82EED
:102B800089E3F82E1A8E1B8E1C8E1D8EA7019601CE
:102B90002AA33BA34CA35DA33981313009F449C476
:102BA000D201313008F4D3C3333009F075C49E9696
:102BB0002D913D914D915C91D197C701B6010E9435
:102BC000A45A4B015C0120E030E040E05FE30E944A
:102BD000A45A9B01AC016FAD21967FAD2197C30133
:102BE0000E944C57A70196010E94A45A6FAB78AF80
:102BF00089AF9AAF9B01AC016D817D8589899D89E3
:102C00000E944C571B018C012E893F89488D598D9C
:102C10000E94425887FD0CC020E030E0A9016FA956
:102C200078AD89AD9AAD0E94425818160CF472C462
:102C30002E893F89488D598D6EA17FA188A599A5C0
:102C40000E944C579B01AC010E944D576B017C01C7
:102C50002E8D3F8D48A159A16FAD21967FAD219753
:102C6000C3010E944D579B01AC01C701B6010E94F0
:102C70004C586B017C01BE8DBFAFEF8D2196EFAF3D
:102C8000219768A079A02E883F88088D198DF1E0E2
:102C9000F983A70196016A8D7B8D8C8D9D8D0E9495
:102CA0004D576A8F7B8F8C8F9D8F2AA13BA14CA1A2
:102CB0005DA10E94425887FF67C42A8D3B8D4C8DD1
:102CC0005D8D6AA17BA18CA19DA10E944C576B01D7
:102CD0007C019101A8016EA57FA588A999A90E94F0
:102CE000425887FD2FC38FAD21969FAD2197D30109
:102CF0008093B31A9093B41AA093B51AB093B61AEE
:102D0000F981F093AE1AE0916819F091691981A1E7
:102D1000811104C09091E01A93FF33C0D2019196C3
:102D20009C91907309F45EC4F201EE5BFF4FC0808A
:102D3000D180E280F3808823B9F02091C71A3091C6
:102D4000C81A4091C91A5091CA1A6FAD21967FAD29
:102D50002197C3010E94A45A9B01AC01C701B6018F
:102D60000E94A45A6B017C01C701B6010E94CE13D8
:102D70009093CC1A8093CB1A8091E01A877F80932E
:102D8000E01A8091CB1A9091CC1AE985FA85E95E18
:102D9000F64EFE83ED83978386832091A61A3091A9
:102DA000A71A4091A81A5091A91AB101C8010E940E
:102DB000A45A2B013C010E942B586B017C016091AD
:102DC000A21A7091A31A8091A41A9091A51A0E9438
:102DD0002B584B015C01A70196010E944C570E94A1
:102DE000C55869837A838B839C83E981FA81AD819D
:102DF000BE81ED93FC93EF2B09F001C48091E01AA2
:102E000081FFFDC381608093E01AC05CDF4F0FB685
:102E1000F894DEBF0FBECDBFDF91CF911F910F9110
:102E2000FF90EF90DF90CF90BF90AF909F908F90EA
:102E30007F906F905F904F903F902F9008950E94E9
:102E40003B0C88CD80919C1A8F5F893009F480E01B
:102E500080939C1A282F30E052E2859FC0011124F4
:102E6000DC01A659B64E7D01B0936919A09368198B
:102E7000ED81FE8180A190968C9390E080E041915D
:102E8000519161917191D701A80FB91F689412F8FF
:102E9000440F551F661F771F1694D1F74D935D930E
:102EA0006D937C93139704968C31910541F7AD8116
:102EB000BE815C966D917D918D919C915F97B2E200
:102EC000B29FA001B39F500D1124FA01E659F64EAE
:102ED0004B015C0123E0880C991CAA1CBB1C2A95A1
:102EE000D1F7848E958EA68EB78E0E94F45860938B
:102EF000A21A7093A31A8093A41A9093A51AED8135
:102F0000FE8122A933A944A955A90E944C589B01CE
:102F1000AC012093A61A3093A71A4093A81A509395
:102F2000A91A60E070E080EA9FE30E944C58609329
:102F3000AA1A7093AB1A8093AC1A9093AD1A1092A0
:102F40009E1A10929F1A1092A01A1092A11A11FDA7
:102F500002C003FF43C06091BB1A7091BC1A8091FC
:102F6000BD1A9091BE1A6093B31A7093B41A8093ED
:102F7000B51A9093B61A9B01AC010E94A45AAD8178
:102F8000BE8196966D937D938D939C939997077FC1
:102F900000939D1AD70191961C928091A01C81FFED
:102FA000ECCCED81FE8181A185FFE7CCFE962081EE
:102FB00031814281538160E070E080E89FE30E94AC
:102FC0004C586093C71A7093C81A8093C91A90938B
:102FD000CA1AE1E0D7019196EC93CFCCED81FE8146
:102FE00066A177A180A591A50E94435B6093B31A67
:102FF0007093B41A8093B51A9093B61ACBCFC0923F
:10300000AF1AD092B01AE092B11AF092B21A10929E
:10301000BB1A1092BC1A1092BD1A1092BE1A09CD9A
:103020001092AE1A4092BF1A5092C01A6092C11A02
:103030007092C21A12FF6AC01092BB1A1092BC1A88
:103040001092BD1A1092BE1AC12CD12C76018D811E
:103050009E810E94C60B698B7A8B8B8B9C8B9B010C
:10306000AC010E94A45A6D837E838F839887A5014B
:1030700094010E94425887FF93C02D813E814F8169
:103080005885C501B4010E944C5729853A854B8566
:103090005C850E94A45A9B01AC01C301B2010E944D
:1030A0004C576093BF1A7093C01A8093C11A9093C3
:1030B000C21A20E030E0A9010E94425818160CF410
:1030C00049C032E03093AE1A29813A814B815C814C
:1030D000CA01B9010E944D57A30192010E94A45A4E
:1030E0009B01AC01C501B4010E944C570E94435B97
:1030F0006093BB1A7093BC1A8093BD1A9093BE1A4A
:1031000080919D1A886080939D1A93CCE0913B0F2B
:10311000EF5FE43209F4E0E080911419C12CD12C66
:1031200076018E1751F026E42E9FF0011124E45C05
:10313000F04FC6A0D7A0E0A4F1A4C701B6010E9439
:10314000435B6093BB1A7093BC1A8093BD1A909333
:10315000BE1A7DCFA70196016D817E818F819885F2
:103160000E944C5729853A854B855C850E94A45A5C
:103170006093C31A7093C41A8093C51A9093C61AA9
:1031800089899A89AB89BC898093B71A9093B81AB8
:10319000A093B91AB093BA1A93E09093AE1A49CC9F
:1031A000A7019601C501B4010E944C5729853A85B3
:1031B0004B855C850E94A45AA30192010E944D5741
:1031C00020E030E040E05FE30E94A45A6D877E87F4
:1031D0008F87988B20E030E0A9010E94645A18166E
:1031E0000CF094C0A30192016D857E858F8598892E
:1031F0000E94425887FF88C0A70196016D817E8199
:103200008F8198850E944C5729853A854B855C852E
:103210000E94A45A9B01AC012093C31A3093C41A94
:103220004093C51A5093C61A6D857E858F859889FF
:103230000E94645A1816BCF529893A894B895C8921
:103240002093B71A3093B81A4093B91A5093BA1A08
:10325000A50194016D817E818F8198850E944258DD
:10326000811104C031E03093AE1AE3CBA501940183
:103270006D817E818F8198850E944C5729853A8582
:103280004B855C850E94A45A9B01AC01C301B2012D
:103290000E944C576093BF1A7093C01A8093C11A52
:1032A0009093C21AC6CB8D859E85AF85B8898093D1
:1032B000BF1A9093C01AA093C11AB093C21A8093F8
:1032C000C31A9093C41AA093C51AB093C61A298141
:1032D0003A814B815C81CA01B9010E944D572D850D
:1032E0003E854F8558890E94A45AA70196010E94E5
:1032F0004D570E94435B6093B71A7093B81A80933E
:10330000B91A9093BA1A95CB92E047CF8091BB1A25
:103310009091BC1AA091BD1AB091BE1A1092BF1A1A
:103320001092C01A1092C11A1092C21A8093B71A42
:103330009093B81AA093B91AB093BA1A7ACB81E0D5
:103340008EAB10CC2D823D86098B1D8B25CC9E9695
:103350002D913D914D915C91D197C701B6010E948D
:10336000A45A4B015C0120E030E040E05FE30E94A2
:10337000A45A2FAD21963FAD2197A3010E944D572E
:10338000A70196010E94A45A9B01AC016D817D8525
:1033900089899D890E944C571B018C019B01AC01BE
:1033A0006E897F89888D998D0E94645A181694F5CC
:1033B0002E893F89488D598D6EA17FA188A599A539
:1033C0000E944C579B01AC010E944D576B017C0140
:1033D0002E8D3F8D48A159A16FAD21967FAD2197CC
:1033E000C3010E944D579B01AC01C701B6010E9469
:1033F0004C586B017C01BEA9B983EE8DEFAFFF8DF8
:103400002196FFAF219768A079A02E883F88088D6C
:10341000198D3FCCA50194016FAD21967FAD219709
:10342000C3010E944D576FAF21967FAF21973C019A
:1034300030CC2E8D3F8D48A159A1C701B6010E9405
:10344000A45A9B01AC016D817D8589899D890E946B
:103450004C571B018C012AA53BA54CA55DA50E94DC
:10346000425887FF16CC2AA53BA54CA55DA56D81CA
:103470007D8589899D890E944C572E8D3F8D48A15D
:1034800059A10E944C586B017C012AA43BA40CA5B5
:103490001DA522E02983FDCB9E962D913D914D9156
:1034A0005C91D197C701B6010E94A45A4B015C01FF
:1034B000AC019B016FAD21967FAD2197C3010E94A6
:1034C000645A18168CF520E030E040E05FE3C50157
:1034D000B4010E94A45A9B01AC016FAD21967FAD4F
:1034E0002197C3010E944C57A70196010E94A45A3C
:1034F0009B01AC016D817D8589899D890E944C5716
:103500001B018C012EA53FA548A959A90E94645A08
:10351000181654F4A50194016FAD21967FAD219743
:10352000C3010E944C577FCF2EA53FA548A959A99A
:103530006D817D8589899D890E944C579B01AC01D5
:103540000E944D576B017C012BAD3CAD4DAD5EAD86
:103550006FAD21967FAD2197C3010E944D579B010E
:10356000AC01C701B6010E944C586B017C01BBAD98
:10357000BFAFECAD2196EFAF21976DAC7EAC2EA422
:103580003FA408A919A985CB2AA93BA94CA95DA9E3
:10359000B101C8010E94645A18169CF42EE333EC62
:1035A0004EE259E36AA17BA18CA19DA10E944D57D7
:1035B0006AA37BA38CA39DA32A8D3B8D4C8D5D8D2F
:1035C00084CB8FAD21969FAD2197D3018093B31A01
:1035D0009093B41AA093B51AB093B61A2981209388
:1035E000AE1A91CB1092E91A1092EA1A1092EB1AC5
:1035F0001092EC1A1092CC1A1092CB1ABDCB2091DB
:103600009E1A30919F1A4091A01A5091A11A6A8D6A
:103610007B8D8C8D9D8D0E944D576D837E838F8316
:103620009887A3019201C501B4010E944C579B01E8
:10363000AC016D817E818F8198850E944C584B0131
:103640005C0120EC31EE44E65EE40E94A45A0E9444
:103650002B580E94C558E985FA85E95EF64E603D13
:1036600037E073078105910508F054C01582E9859C
:10367000FA85E95EF64E7383628380911619809312
:1036800067198F5F8A3009F47BC080931619E09127
:10369000CD1AF091CE1AC101D80182AB93ABA4AB85
:1036A000B5ABC092A21AD092A31AE092A41AF092DB
:1036B000A51AA3019201C701B6010E944C57A501AA
:1036C00094010E94A45A60939E1A70939F1A80934B
:1036D000A01A9093A11A2091AF1A3091B01A40917C
:1036E000B11A5091B21AB101C8010E944258811119
:1036F00017C99091E01A998320E030E0A901B10147
:10370000C8010E94645A1816F4F5A981A160A0931B
:10371000E01A7BCB603A4FE074078105910520F5F4
:1037200051E05583E985FA85E95EF64E2581022E42
:1037300004C096958795779567950A94D2F7498145
:103740005A8102C0440F551F2A95E2F751834083E6
:103750006115710551E08507910508F488CF8FEF59
:103760009FEF9383828389CF6034AFE17A0781052D
:10377000910518F4B2E0B583D5CF23E02583D2CFED
:103780001092161984CFB981B2FF04C0B160B09312
:10379000E01A3BCB1092CE1A1092CD1A90913B0FAB
:1037A00080911419891709F4BBC881E0890F84320C
:1037B00009F480E020913A0F921302C080933A0FEF
:1037C00080933B0FADC8019708F40895EFE9FFE03F
:1037D0003197F1F700C00000F6CF80916F008D7F28
:1037E00080936F0080918100887F81608093810049
:1037F0001092F60E80918E1C9091DC1A8F3F49F446
:103800002091D31A211105C0903829F490E00C942E
:10381000E31B9430D9F70895CF93DF930E94ED1BFB
:10382000ECE9FAE181E3DF011D928A95E9F7C7EF40
:10383000DEE083E4FE0111928A95E9F71092CE1A38
:103840001092CD1A109215191092671981E0809389
:1038500016191092F60E0E9428058091F50E8F8F92
:1038600082B181709091F40E892B82B988B18170F8
:103870009091F50E892B88B9DF91CF910895EF9241
:10388000FF920F931F93CF93DF93EC01FC0127E08E
:103890008FEF9FEF2150D9F48C017E0186E0E80E76
:1038A000F11C89910E94BB05EC16FD06D1F7802F13
:1038B0000E94BB05812F0E94BB0582E390E0DF914F
:1038C000CF911F910F91FF90EF900C94E31B3191DA
:1038D000832748E050E0BC01617077279695879573
:1038E000672B21F031E0832730EA932741505109BB
:1038F00091F7D0CFCF93DF9300D000D0CDB7DEB714
:103900008091A01C81FF0EC08091A0008F7D8093CC
:10391000A00026960FB6F894DEBF0FBECDBFDF9194
:10392000CF91089586E0E9E0F2E0DE011196019082
:103930000D928A95E1F7CE0101960E943F1CE9CFD6
:10394000CF92DF92EF92FF92CF93DF9300D000D01F
:10395000CDB7DEB79091DD1A911110C06A017B01DD
:10396000811119C01092E91A1092EA1A1092EB1AFA
:103970001092EC1A0E947A1C1092E71A26960FB643
:10398000F894DEBF0FBECDBFDF91CF91FF90EF90D7
:10399000DF90CF9008959091A01C9270803181F4B7
:1039A00086E0EFE0F2E0992381F08091A01C81FF96
:1039B00017C0C701B6010E94CE130E94E004DCCFFD
:1039C0009111F3CF86E0E5E1F2E0DE01119601907E
:1039D0000D928A95E1F7CE0101960E943F1CE5CF3A
:1039E00020E030E040EC50E4C701B6010E944C58A2
:1039F0000E94C55881E0898386E08A8380EF8B83AB
:103A000088E08C837D836E83CE0101960E943F1CEB
:103A1000B3CFE1E0F1E080818061808383E0809337
:103A2000A0008AE18093A10080E094E09093A90037
:103A30008093A80020919C1C30919D1C40919E1C5D
:103A400050919F1C6091981C7091991C80919A1CB8
:103A500090919B1C0E944C579B01AC0160E070EC64
:103A60008FE794E40E944C586093D20E7093D30E6B
:103A70008093D40E9093D50E0C947A1C2F923F9283
:103A80004F925F926F927F928F929F92AF92BF926E
:103A9000CF92DF92EF92FF920F931F93CF93DF931A
:103AA000CDB7DEB72F970FB6F894DEBF0FBECDBFF0
:103AB000082F4B016DB67EB68CE0EBE1F2E0DE0143
:103AC000119601900D928A95E1F70E941E1310E065
:103AD000180184E0220C331C8A95E1F723E02D873E
:103AE0002E013DE0430E511CF101E55FF24EFF87D0
:103AF000EE878101045F124E9E012F5F3F4F7901D7
:103B0000F70181917F010E94D405E414F504C1F707
:103B1000F12CE12CF101EE0DFF1DE350F34E8081FD
:103B20000E94D405FFEFEF1AFF0A2EE0E216F1041F
:103B300089F7EE85FF85E080F8018081FE2CE82E74
:103B4000E80CF91C8F2D0E94D405FE2DFF70EF2E7E
:103B50008F2F0E94D40585E50E94D405EE85FF8550
:103B6000F082F801E08284E690E00E94E31B0E946C
:103B700091058A3A19F50E949105CDB6DEB6A82EB8
:103B8000B12C2DB73EB72A193B090FB6F8943EBFAA
:103B90000FBE2DBFEDB7FEB731967F01682FCF0165
:103BA0000E947B05EA0CFB1CF7013197808185356B
:103BB00059F00FB6F894DEBE0FBECDBEFD85F150B4
:103BC000FD87F11199CF05C00FB6F894DEBE0FBE88
:103BD000CDBE0FB6F8947EBE0FBE6DBE2F960FB64B
:103BE000F894DEBF0FBECDBFDF91CF911F910F9133
:103BF000FF90EF90DF90CF90BF90AF909F908F900D
:103C00007F906F905F904F903F902F9008955F92BC
:103C10006F927F928F929F92AF92BF92CF92DF92DC
:103C2000EF92FF920F931F93CF93DF9300D000D0BA
:103C300000D01F921F92CDB7DEB74C016DB67EB695
:103C40008BE0E7E2F2E0DE01119601900D928A9599
:103C5000E1F70E941E138FE0582E5E012CE0A20EA9
:103C6000B11C8E010F5F1F4FF80181918F010E94DF
:103C7000D405A016B106C1F784E690E00E94E31BCC
:103C80000E9491058A3A09F04BC00E949105CDB679
:103C9000DEB6082F10E02DB73EB7201B310B0FB654
:103CA000F8943EBF0FBE2DBFEDB7FEB731967F0132
:103CB000682FCF010E947B050E0D1F1DF801319763
:103CC0008081853541F5F701369680E1D401019078
:103CD0000D928A95E1F70FB6F894DEBE0FBECDBE09
:103CE0000FB6F8947EBE0FBE6DBE2B960FB6F8943D
:103CF000DEBF0FBECDBFDF91CF911F910F91FF901F
:103D0000EF90DF90CF90BF90AF909F908F907F907B
:103D10006F905F9008950FB6F894DEBE0FBECDBED3
:103D20005A9451109ECFDCCFCF93C82F8FEC92E0E6
:103D30000E948B088C2F0E9458080E94470984EF2C
:103D400091E0CF910C94E31B4F925F926F927F9220
:103D50008F929F92AF92BF92CF92DF92EF92FF929B
:103D60000F931F93CF93DF93C091D31ACC23F9F015
:103D700081E08093DC1A8C2F0E94941EC150C230C7
:103D800088F487E295E00E948B088AE195E00E9422
:103D90008B080E94630B80E10E94B3038091D21ACA
:103DA00084FFFCCF8FB7F8941092D31A8FBFC091C5
:103DB000D21ACC2309F4DBC0C4FF14C081E0809385
:103DC000DD1ADF91CF911F910F91FF90EF90DF905F
:103DD000CF90BF90AF909F908F907F906F905F90AB
:103DE0004F900895C0FF05C00E944B0C81E00E94D7
:103DF000B3038C2F887E09F46AC08091DC1A982F57
:103E0000937009F053C08872A9F08091DE1A807C0B
:103E100089F40E94AA0482E08093E01A8091DC1A5F
:103E2000803241F480E2C7FD0CC08091DE1A8068C8
:103E30008093DE1A8091DC1A811103C091E0909387
:103E4000DE1AC6FF07C085FD05C09091DE1A90649A
:103E50009093DE1AC3FF05C0807E19F480E1809341
:103E6000DC1AC5FF23C087E295E00E948B088EED27
:103E700094E00E948B080E94630B8091DE1A87FDFC
:103E800010C09091DC1A903451F483FF04C0837EFB
:103E900082608093DE1A80E48093DC1A02C090383E
:103EA000D1F78091DE1A80628093DE1AC7FF0CC0C2
:103EB0008091DC1A813029F48091DE1A856080932C
:103EC000DE1A80E88093DC1A88EE0E94B303C1FFFB
:103ED00028C08C2F887611F58091DC1A803441F44B
:103EE0008091DE1A85FD04C084FFF4C01092DC1AB4
:103EF0008091DC1A882309F4F3C084FF0FC09091ED
:103F0000DE1A90FF0BC0803109F0EAC08091E61AFA
:103F1000882309F4E5C088608093E61A82E00E9455
:103F2000B303C2FF24C09091DE1A8091DC1A807D19
:103F300009F4EFC08091DF1A8111EBC097FDEBC04F
:103F40000E94AA0480913B0F80933A0F0E94F40EC6
:103F50008091E01A81FF05C09091DE1A91609093E4
:103F6000DE1A897F8093E01A84E00E94B303909167
:103F7000D41A992309F44DC08FB7F8941092D41A2B
:103F80008FBF4091E31A842F90FD84E691FD865FF8
:103F900092FD8A5093FD8F5F94FD8150893C08F01B
:103FA00088EC8A3008F48AE03091E41A232F95FDDA
:103FB00024E696FD22E397FD29E1481302C023176A
:103FC00041F18093E31A2093E41A1092E71A80904B
:103FD0003B0F40901419C82D89E9B82E96E7E92EB9
:103FE00026E9F22EDEE736E4532EC411AFC08B2D46
:103FF0009E2DAF2DBD2F8093BF069093C006A0933A
:10400000C106B093C2060E94AA0480923A0F0E9491
:10401000F40E9091D51A992309F445C08FB7F894FE
:104020001092D51A8FBF2091E51A822F90FD84E659
:1040300091FD865F92FD8A5093FD8F5F94FD8150C4
:10404000893C08F088EC8A3008F48AE0281749F0A7
:104050002091E01A28602093E01A8093E51A1092CC
:10406000E71A8091DC1A95FF09C0803139F420915C
:10407000E61A2111C0C022E02093E61A292F207CE5
:1040800091F0882311F0887171F080910C1B97FFDB
:1040900003C087FFB4C08F7796FF03C086FFB1C00F
:1040A0008F7B80930C1B8091DC1A8C7F09F489CE66
:1040B000DF91CF911F910F91FF90EF90DF90CF9004
:1040C000BF90AF909F908F907F906F905F904F9038
:1040D0000C94711482FF0CCF88608093DE1A08CF95
:1040E0001092E01A0E943B0C892B71F08091DE1A2D
:1040F00086FD0AC01092DE1A88E08093DC1A0E94C6
:1041000071140E94CE040ACF1092DE1A1092DC1AAB
:1041100005CF97FF0AC01092E01A0E9435130E9443
:104120000C1C0E9435120E94B50B8091DE1A85FF8F
:1041300008C08F7781608093DE1A80E48093DC1A58
:1041400013CF1092DE1A1092DC1A0ECFCC2ED12C87
:10415000C59DC0011124845C904F0E94C60B3B0199
:10416000982EA92E2B2D3E2D4F2D5D2F0E94645A87
:104170005C9C80015D9C100D1124045C104F18168E
:104180009CF52B2D3E2D4F2D5D2F6B2D7E2D8F2DD4
:104190009D2F0E94A45AF80162A773A784A795A730
:1041A0005C9C80015D9C100D1124045C104FF80193
:1041B000C6A8D7A8E0ACF1ACA701960162A573A58B
:1041C00084A595A50E94645A18162CF4F801C2A67D
:1041D000D3A6E4A6F5A6CF5FC43209F4C0E0B62C9E
:1041E000E72CF92CDA2D01CF9301492D5A2DB3017B
:1041F000892D9A2DCECF20FF41CF24603DCF8068FE
:104200004BCF80644ECFCF92DF92EF92FF920F930D
:104210001F93CF93DF930E94A41E8091DE1A882300
:1042200009F460C00E943B0C0097D1F5C0910D1BB2
:1042300080910C1BC82BC0900E1BD0900F1BE090E0
:10424000101BF090111B8091A01C81FF03C080E225
:104250000E949B03C073D1E08091DE1A882309F489
:1042600041C09091DD1A91113DC080FF16C0909120
:10427000DC1A292F207C09F484C082FD1BC0109217
:10428000E61A40E050E0BA0180E00E94A01C809154
:10429000DE1A8D7F84608093DE1A0E94A41EDCCF1C
:1042A000FC01C1A18E5B9F4FFC01C080D180E280E8
:1042B000F380C9CF903811F587E295E00E948B0812
:1042C00085E994E00E948B080E94630B40E050E077
:1042D000BA0180E00E94A01C0E94ED1B8091DD1AB3
:1042E000882349F0DF91CF911F910F91FF90EF90BC
:1042F000DF90CF9008950E94A41EF0CF903429F44F
:10430000909106018F7D8093DE1A8091DE1A83FFE3
:10431000C4CF90910D1B992359F081FDBECF8091A0
:10432000A01C81FF10C08091E01A88608093E01A81
:104330008091DE1A81FDB1CF80618093DE1A82E028
:104340000E94BD03AACFB701A6018C2F0E94A01C1A
:1043500001E510E00150110959F38091DD1A811136
:10436000E7CF0E94A41E8091DE1A81FD96CFFFEF59
:1043700020E782E0F15020408040E1F700C00000DB
:10438000E9CF8091E61A8823C9F181FF0DC08091A1
:104390000D1B882351F140E050E0BA0180E00E94FB
:1043A000A01CD093E61A79CF8C7009F476CF809157
:1043B0000D1B882399F087E295E00E948B088EE917
:1043C00094E00E948B080E94630B8091A01C81FFE7
:1043D0000FC08091E01A88608093E01A8091E61AFD
:1043E00083FF03C082E00E94BD031092E61A55CFFE
:1043F000B701A6018C2F0E94A01CF0CF8091E01A7B
:1044000083FF4BCFB701A6018C2F0E94A01C809187
:10441000E01A877F8093E01A40CF0E94EC0E0E9442
:1044200003218091DD1A811108C00E943B0C892B69
:10443000B1F78091DC1A883091F308950E940D2223
:104440001092E81A0895CF92DF92EF92FF92CF93E5
:104450009091DC1A923079F06A017B01C82F0E949A
:104460000D22B701A6018C2FCF91FF90EF90DF9026
:10447000CF900C94A01CCF91FF90EF90DF90CF9045
:1044800008950F931F93CF93DF938B0121E031E0C9
:10449000829FE001839FD00D1124DD5F40E051E059
:1044A000BE01C8010E94AB12892B81F4F801108271
:1044B0000E940D2240E051E0B801CE010E945B1243
:1044C00080E0DF91CF911F910F91089581E0F9CFA6
:1044D0000F931F93CF93C82F8B010E940D222DE1C4
:1044E000C29FC00111244CE150E0B8019E5FCF9102
:1044F0001F910F910C945B121F93CF93DF93182F92
:10450000EB018DE1189FB00111247E5F4CE150E07A
:10451000CE010E94AB12892B71F48CE1FE01119245
:104520008A95E9F7BE01812F0E94682280E0DF9121
:10453000CF911F91089581E0FACF4F925F926F92D1
:104540007F928F929F92AF92BF92CF92DF92EF9223
:10455000FF920F931F93CF93DF93CDB7DEB76C9786
:104560000FB6F894DEBF0FBECDBF182F80FF2BC251
:104570008AE080938B1C89E180938E1C10928C1CA6
:1045800082E080938D1C80938F1C8AE097EDA3E2DC
:10459000BCE38093901C9093911CA093921CB093C9
:1045A000931C8FE692E1A3E0BBE38093941C90936D
:1045B000951CA093961CB093971C80E090E0AFE709
:1045C000B3E48093981C9093991CA0939A1CB09389
:1045D0009B1C10929C1C10929D1C10929E1C109271
:1045E0009F1C1092A11C80E090E0A8ECB1E48093A5
:1045F000A21C9093A31CA093A41CB093A51C80E0C4
:1046000090E0A6E1B4E48093A61C9093A71CA0932D
:10461000A81CB093A91C8AEF90E09093AB1C8093E8
:10462000AA1C80E090E0A0E0B0E48093AC1C9093E2
:10463000AD1CA093AE1CB093AF1C88E18093A01C6E
:1046400080E090E0A8ECB3E480931B1C90931C1CCA
:10465000A0931D1CB0931E1C80931F1C9093201CC4
:10466000A093211CB093221C8093231C9093241CA4
:10467000A093251CB093261C80E090ECAAE5B5E43D
:104680008093371C9093381CA093391CB0933A1C2C
:1046900080933B1C90933C1CA0933D1CB0933E1C0C
:1046A00080933F1C9093401CA093411CB093421CEC
:1046B00080E098ECAFEAB9E48093531C9093541CCB
:1046C000A093551CB093561C8093571C9093581C74
:1046D000A093591CB0935A1C80935B1C90935C1C54
:1046E000A0935D1CB0935E1C80E090E0A8ECB3EC5E
:1046F00080936F1C9093701CA093711CB093721CDC
:104700008093731C9093741CA093751CB093761CBB
:104710008093771C9093781CA093791CB0937A1C9B
:1047200080E090E0ACE5B2EC8093B91C9093BA1CA9
:10473000A093BB1CB093BC1C1092BD1C1092BE1C5D
:104740001092BF1C1092C01C80E090E0A8E5B2EC73
:104750008093C11C9093C21CA093C31CB093C41C33
:104760008DEC9CECACE8BFEB80935D1D90935E1DDF
:10477000A0935F1DB093601D86E28093611D81E070
:104780008093B01C1092B11C1092B21C1092B31CFA
:104790001092B41C1092B51C1092B61C1092B71C4B
:1047A0001092B81C45ECC42E4CE1D42E5CEEE52EE4
:1047B000FF24FA94412C512C60EA662E60EC762E90
:1047C000812C912C78E4A72E72ECB72EF601419241
:1047D0005192619271926F01B7010F2C000C880BFE
:1047E000990B0E94F658F601648B758B868B978B1C
:1047F00084A695A6A6A6B7A6FEE1EF1AF10888E35F
:10480000E8168FEFF80611F7EDE0FDE181E070ECBE
:1048100060E453E04AE036E022E392E280831182D2
:104820001282138274836583168217821086118622
:104830005287438734872587868797877096ADE1AF
:10484000ED34FA0759F710924D1D10924E1D10923B
:104850004F1D1092501D1092511D1092521D10921A
:10486000531D1092541D1092551D1092561D1092FA
:10487000571D1092581D1092591D10925A1D87E015
:1048800080935B1D84E080935C1D80E090E0A4E356
:10489000B3E48093271C9093281CA093291CB09309
:1048A0002A1C80E090E0AAEFB4E48093431C90932C
:1048B000441CA093451CB093461C40E058EC6FEAA2
:1048C00079E440935F1C5093601C6093611C70936B
:1048D000621C80E090E0A8E4B3EC80937B1C909392
:1048E0007C1CA0937D1CB0937E1C812C912C20EA13
:1048F000A22E23E4B22E80922B1C90922C1CA0920C
:104900002D1CB0922E1CC12CD12C3AE7E32E35E49D
:10491000F32EC092471CD092481CE092491CF092A2
:104920004A1C4093631C5093641C6093651C7093F5
:10493000661C80937F1C9093801CA093811CB09375
:10494000821C80922F1C9092301CA092311CB0923D
:10495000321C4093671C5093681C6093691C7093D1
:104960006A1CC0924B1CD0924C1CE0924D1CF092E1
:104970004E1C8093831C9093841CA093851CB09341
:10498000861C8092331C9092341CA092351CB092ED
:10499000361C40936B1C50936C1C60936D1C709381
:1049A0006E1CC0924F1CD092501CE092511CF09291
:1049B000521C8093871C9093881CA093891CB093F1
:1049C0008A1C0E94961211FF0FC0FE0131967F01D2
:1049D0008CE111928A95E9F700E0B701802F0E94DF
:1049E00068220F5F0830C9F712FF14C060E080E052
:1049F00093E00E943B1260E081E093E00E943B1252
:104A000060E081E094E00E943B1260E082E094E08C
:104A10000E943B1213FF0AC060E08EEA93E00E94FE
:104A20003B1260E08FEA93E00E943B126C960FB657
:104A3000F894DEBF0FBECDBFDF91CF911F910F91D4
:104A4000FF90EF90DF90CF90BF90AF909F908F90AE
:104A50007F906F905F904F900895EF92FF920F9329
:104A60001F93CF93DF93CDB7DEB765970FB6F8945A
:104A7000DEBF0FBECDBFE5E1FE2EE2E3F2E0DE01D8
:104A8000119601900D92FA94E1F78230910549F167
:104A9000E0F4019709F162307105B1F140F5613040
:104AA000710571F14230510509F441C098F541306A
:104AB0005105C9F12230310509F457C0F0F5213014
:104AC000310509F445C01F8657C08330910561F058
:104AD000049709F78FEF03C08FEF8E838F8388874A
:104AE000DACF8FEF8F83D7CF8FEF8E83D4CF633022
:104AF000710569F08FEF64307105A1F68B87D2CF15
:104B00008FEF89878A87FACF8FEF8A87CBCF8FEF96
:104B10008987C8CF4330510569F08FEF4430510584
:104B200049F68E87C7CF8FEF8C878D87FACF8FEFAF
:104B30008D87C0CF8FEF8C87BDCF23303105D1F06B
:104B40002430310509F0BFCF1F86188A8FEF03C0CC
:104B50008FEF8F87888B898B02301105E1F170F41C
:104B600001301105A9F01A8A3DC01F868FEF888B8E
:104B7000198AF2CF8FEF8F87188AFACF0330110589
:104B800079F10430110579F71A8A1B8A8FEF03C077
:104B90008FEF8A8B8B8B8C8B8E010F5F1F4F7E016B
:104BA00086E1E80EF11CF80181918F010E94BB059E
:104BB0000E151F05C1F784E690E065960FB6F894D0
:104BC000DEBF0FBECDBFDF91CF911F910F91FF9040
:104BD000EF900C94E31B1A8A8FEF8B8B1C8ADCCF2F
:104BE0008FEF8A8B1B8AFACFCF93DF93D82FA198B0
:104BF000A19AF894C0EAD13019F580E00E94C6115C
:104C00008FEF0E94C61180E00E94C611C15099F733
:104C100078948CE390E0A0E0B0E08A309105A105A3
:104C2000B105E8F425E02A95F1F700000197A10904
:104C3000B1090097A105B10581F7DF91CF910895E2
:104C4000D23029F48FEF0E94C61180E0DACF80E0E5
:104C50000E94C61180E00E94C6118FEFD5CF25E3D8
:104C60002A95F1F700000A97A109B109E2CF8091D6
:104C7000D21A84FD20C080E10E94BD030E947A1CEC
:104C80000E9446139091DC1A892F8C7221F4809136
:104C9000E01A867059F0943079F48091D31A81111A
:104CA00003C086E00E94AD030E94ED1B81E00E94DC
:104CB000F4251092FD1A089583E0F4CF7F928F922D
:104CC0009F92AF92BF92CF92DF92EF92FF920F939B
:104CD0001F93CF93DF93CDB7DEB766970FB6F894E7
:104CE000DEBF0FBECDBF9091DC1A913009F464C0D5
:104CF00098E0E7E4F2E0DE01119601900D929A95BA
:104D0000E1F798E0EFE4F2E0DE01199601900D92F0
:104D10009A95E1F796E0E7E5F2E0DE015196019021
:104D20000D929A95E1F79091D71A9093D61A9E0119
:104D3000275F3F4F7901882309F492C0CE01019685
:104D40006C01F60181916F010E94BB05EC14FD041A
:104D5000C1F784E690E00E94E31B0E946A058F3F42
:104D6000E1F722E3D22E5E01F7E1AF0EB11C812CF8
:104D700038E0932E7E0121E1E20EF11CF7018191D2
:104D80007F010E94BB05AE14BF04C1F784E690E02A
:104D90000E94E31B0E946A058F3F11F5C401801B2E
:104DA000910B0130F8E01F0710F0C8019850C2972E
:104DB000B8F581E08093F21A66960FB6F894DEBFDC
:104DC0000FBECDBFDF91CF911F910F91FF90EF905C
:104DD000DF90CF90BF90AF909F908F907F9008957D
:104DE0008E3FC1F60E946A058E3FA1F60E946A05B9
:104DF000853081F60E946A05813061F60E946A055D
:104E0000823041F60E946A05E82E0E946A05F82E5B
:104E10000E946A058A3F09F0BDCF1E2D0F2DBACF23
:104E2000DA94D110A7CF81E08093DC1A8AE00E9447
:104E3000941E0E94372666960FB6F894DEBF0FBE0A
:104E4000CDBFDF91CF911F910F91FF90EF90DF9039
:104E5000CF90BF90AF909F908F907F900C94032144
:104E60006E0131E1C30ED11CF70181917F010E94D7
:104E7000BB05CE14DF04C1F784E690E00E94E31B7B
:104E80000E946A058F3FE1F782E3782E5E01F7E129
:104E9000AF0EB11C96EF892E99E0992E7601F7019D
:104EA00081917F010E94BB05AE14BF04C1F784E667
:104EB00090E00E94E31B0E946A058F3F79F4C401D1
:104EC000801B910B073FF9E01F0718F0C801865FB0
:104ED0009940C29710F51092F21A6ECF8E3F59F793
:104EE0000E946A058E3F39F70E946A05853019F7DE
:104EF0000E946A058130F9F60E946A058230D9F66F
:104F00000E946A05E82E0E946A05F82E0E946A0532
:104F10008A3F89F61E2D0F2DCECF7A947110BECF09
:104F200082CFCF93C82F81E09C2F9870C3FF80E081
:104F30008093F31A911103C081E00E947A04C1FBAF
:104F4000882780F98093FB1A8091D31A811111C0B0
:104F5000C0958C2F80780E94ED128DE592E00E9422
:104F6000A90BC7FF06C00E94372681E0CF910C94A1
:104F7000AD03CF9108952F923F924F925F926F921F
:104F80007F928F929F92AF92BF92CF92DF92EF92D9
:104F9000FF920F931F93CF93DF93CDB7DEB7C65821
:104FA000D1090FB6F894DEBF0FBECDBFE9967FAF33
:104FB0006EAFE997B09014192B2D30E0E3963FAF18
:104FC0002EAFE39726E4B29EA0011124BA01645CDF
:104FD000704FEB967FAF6EAFEB97DB011D922A957A
:104FE000E9F7E996EEADFFADE9972485DB019196EF
:104FF0002C93FB01EE5BFF4FE996AEADBFADE99799
:1050000014964D915D916D917C91179740835183DA
:105010006283738318964D915D916D917C911B977E
:10502000EB96EEADFFADEB9742A353A364A375A33C
:1050300021FFE9C12CE1E3E7FBE1DE01D996019014
:105040000D922A95E1F7E4968FAFE497E5969FAF2E
:10505000E5972BE13CE1CD57DF4F39832883C358D7
:10506000D040BE01635E7F4FCF57DF4F79836883A7
:10507000C158D040CE01C996C158DF4F998388836B
:10508000CF57D040EB96AEADBFADEB97EF96BFAF2D
:10509000AEAFEF974E01B5E58B0E911CED969FAE2E
:1050A0008EAEED9710E086E4E396EEADFFADE397AC
:1050B0008E9F10018F9F300C11249101245C304F82
:1050C0001901B901645E7F4FCB57DF4F7983688345
:1050D000C558D04070E2270E311CE596AEADBFAD8D
:1050E000E5976D917D918D919D91E596BFAFAEAFA6
:1050F000E597CD57DF4FE881F981C358D040419003
:10510000519061907190CD57DF4FF983E883C35878
:10511000D040A30192010E94A45A0E94715ACF5715
:10512000DF4FA881B981C158D0406D937D938D9395
:105130009D93CF57DF4FB983A883C158D040C15842
:10514000DF4FE881F981CF57D040C190D190E190F5
:10515000F190C158DF4FF983E883CF57D0406C19E5
:105160007D098E099F099B01AC0197FF07C022278B
:105170003327A901261B370B480B590BEF96AEAD11
:10518000BFADEF972D933D934D935D93EF96BFAFDA
:10519000AEAFEF97CB57DF4FE881F981C558D040CC
:1051A000C080D180E280F380C216D306E406F50603
:1051B00010F469017A01CB57DF4FA881B981C55836
:1051C000D040CD92DD92ED92FC9213970E94F6585A
:1051D000A30192010E944C58ED96EEADFFADED9704
:1051E0006193719381939193ED96FFAFEEAFED973D
:1051F00020E030E0A9010E94425887FF07C0812FBC
:105200000E94F404D1019C91892B8C931F5F17306D
:1052100009F063CF80E0CD28CE28CF2809F4D9C08B
:10522000CE018B5A9F4F0E9462136B017C0186E472
:10523000E396EEADFFADE3978E9F80018F9F100D3B
:105240001124045C104FD801D296CD92DD92ED92DC
:10525000FC92D597BE016B5A7F4F83E59CE10E947B
:105260005F10F80166A777A780AB91ABBE016B5AC0
:105270007F4F87E39CE10E945F10D801DA966D931F
:105280007D938D939C93DD979196AC90025C1F4F1C
:10529000A0FEBDC0F80160837183828393838091F7
:1052A0003B0FB81611F0A1FECDC086E4E3962EADFB
:1052B0003FADE397829FF001839FF00D1124E45CE2
:1052C000F04F16A217A210A611A616AA17AA10AE82
:1052D00011AE86E4E396EEADFFADE3978E9F8001BD
:1052E0008F9F100D1124045C104FD80191968C9162
:1052F00081FD6EC0EB968EAD9FADEB970E94C60B05
:105300006B017C018090BF069090C006A090C10602
:10531000B090C206AC019B01C501B4010E94425885
:1053200087FF6DC1A5019401C501B4010E94A45A73
:10533000F80162A773A784A795A786E4E396EEAD6C
:10534000FFADE3978E9F80018F9F100D1124045CA9
:10535000104FD801D6968D909D90AD90BC90D99766
:10536000A50194019A966D917D918D919C919D9747
:105370000E94645A18162CF4F80182A693A6A4A6DB
:10538000B5A6C092BF06D092C006E092C106F092C8
:10539000C2068CE1FE01EB5AFF4FA3EAB6E0019092
:1053A0000D928A95E1F78CE1FE017D96A7E8B6E0C3
:1053B00001900D928A95E1F78091860680931419E9
:1053C0008F5F843209F480E0809386060E94F40E99
:1053D00081E0CA57DF4F0FB6F894DEBF0FBECDBFD6
:1053E000DF91CF911F910F91FF90EF90DF90CF90C1
:1053F000BF90AF909F908F907F906F905F904F90F5
:105400003F902F9008952CE1E7E8F6E016CEE9965C
:10541000AEADBFADE9972D913D914D915C91A3FC4F
:1054200006C0F801208331834283538338CFC701FC
:10543000B6010E94A45AD8016D937D938D939C93DD
:1054400013972DCF63EA76E0E9967FAF6EAFE997C9
:105450008E010F5F1F4F14017CE1270E311CC12C00
:10546000D12C76015801E996EEADFFADE997819117
:105470009191A191B191E996FFAFEEAFE997E796CF
:105480008CAF9DAFAEAFBFAFE797D4014D905D90AD
:105490006D907D904D01A3019201E7966CAD7DADBD
:1054A0008EAD9FADE7970E94A45A9B01AC01C70146
:1054B000B6010E944C576B017C01E7962CAD3DADC7
:1054C0004EAD5FADE797C301B2010E944C57F801A2
:1054D00061937193819391938F012814390419F684
:1054E0002FEE3FEF4FE75FE3C701B6010E94645A1A
:1054F00018166CF486E4E3962EAD3FADE397829FD9
:10550000F001839FF00D1124E45CF04FDECE2FEE0E
:105510003FEF4FE75FEBC701B6010E94425887FF9C
:1055200015C086E4E3966EAD7FADE397869FF001EC
:10553000879FF00D1124E45CF04F89E996E7A6E916
:10554000BEE786AB97ABA0AFB1AFC3CEC5010E949B
:105550006213B50183E59CE10E945F104B015C0181
:10556000A701960160E070E080E89FE30E944C573D
:1055700020E030E040E05FE30E94A45A0E94435BD9
:105580006B017C012091901C3091911C4091921CE8
:105590005091931CC501B4010E94A45AA701960121
:1055A0000E94A45A4B015C01A701960160E070E0E3
:1055B00080E89FE30E944C579B01AC01C501B401F8
:1055C0000E944C586B017C0120E030E0A9010E9450
:1055D000425887FF03C0C12CD12C760186E4E396A4
:1055E000AEADBFADE3978A9FF0018B9FF00D112404
:1055F000E45CF04FC6AAD7AAE0AEF1AE6ACEA7012E
:105600009601C701B6010E94A45AD8019A966D93DB
:105610007D938D939C939D9790CEAF92BF92CF92A6
:10562000DF92EF92FF920F931F93CF93DF93CDB74B
:10563000DEB7A9970FB6F894DEBF0FBECDBF082F17
:105640000E940D225F9A0E948E118091DD1A8111B5
:1056500073C05E018DE1A80EB11C8DE0F5011192C1
:105660008A95E9F786E089A720E030E040E450EC35
:1056700060917F1C7091801C8091811C9091821C94
:105680000E94A45A6B017C0120E030E0A9010E9435
:10569000425887FF03C0C12CD12C760163E77BE120
:1056A000CE0101960E9438041092831B1092841B35
:1056B0001092851B1092861B002309F44EC0C98AE4
:1056C000DA8AEB8AFC8A80E48093E21A80E090E038
:1056D000A8E4B2E48D8F9E8FAF8FB8A3B501CE0141
:1056E00001960E94BB2784E08093E01A0E94711407
:1056F0000E94CE0410E4002311F07D9B10E0109373
:10570000E21A0E9471148091D21A847309F457C06E
:105710001091D21A14FF03C086E00E94AD0315FF5A
:1057200003C087E00E94AD038091D31A882311F152
:105730000E9437260E940321A9960FB6F894DEBF77
:105740000FBECDBFDF91CF911F910F91FF90EF90D2
:10575000DF90CF90BF90AF90089580915D1D9091A4
:105760005E1DA0915F1DB091601D898B9A8BAB8BE4
:10577000BC8BA9CF84E00E94B3030E940C1C8091D3
:10578000AA1C9091AB1C0E94E31B1092831B1092E9
:10579000841B1092851B1092861B1092E01A0E94A7
:1057A00003218091DD1A8111C7CF0E9435120E941A
:1057B000B50B0E9499110E940D225F98BDCF111167
:1057C0009ACFDBCFEF92FF921F93CF93DF93EC0141
:1057D0007B018091A01C85FF26C01091DC1A10323D
:1057E00031F18091041B8C38F0F4CE010E94C60385
:1057F0008823C9F081E08093DF1A183069F488E0CB
:105800000E94BD030E9403218091DD1A81110BC00B
:105810008091DC1A8111F6CF0E94372682E00E9427
:10582000AD030E9403218091DC1A8230C1F00E94F6
:1058300003218091DD1A811112C090913B0F80915C
:105840008606981303C00E94EC0EF1CFB701CE017B
:10585000DF91CF911F91FF90EF900C94BB27DF91C8
:10586000CF911F91FF90EF9008952F923F924F920A
:105870005F926F927F928F929F92AF92BF92CF92E0
:10588000DF92EF92FF920F931F93CF93DF93CDB7E9
:10589000DEB7E7970FB6F894DEBF0FBECDBF90918D
:1058A000DD1A911114C18DAB9E01235E3F4F3AABBF
:1058B00029AB8DE0D9011D928A95E9F786E089A789
:1058C0002BE1A22E2CE1B22EFE01BA964F0110E080
:1058D00000E0C12CD12C7601FDA92F2E312C802F78
:1058E0000E940E05D4018D934D01C101002E02C00E
:1058F000959587950A94E2F780FF1BC020E030E081
:1059000040EC5FEBF501EC5AFF4F608171818281C1
:1059100093810E94A45A762E472E582E692EA701F5
:1059200096010E94425887FD04C0C72CD42CE52C58
:10593000F62C0F5F1F4FB4E0AB0EB11C0730110502
:1059400071F68090A61C9090A71CA090A81CB09007
:10595000A91C94E0692E01E063E77BE1CE0101968A
:105960000E9438048091A11CE82FF0E0FCABEBAB67
:10597000FE01319683E7482E8BE1582E5FAA4EAA8E
:10598000712C10E030E020E0B701A6017058C10191
:10599000022E02C0959587950A94E2F780FF28C0F1
:1059A0007394AEA9BFA91D921D921D921C921397CC
:1059B0008BA99CA9022E02C0959587950A94E2F7BF
:1059C00080FF07C0002339F04083518362837383D3
:1059D00006C00023C9F3C082D182E282F3828AE248
:1059E00090E08C0F9D1F820F931FDC018C91182B70
:1059F0002F5F3F4F34968EA99FA904969FAB8EAB25
:105A00002730310521F6672D70E090E080E00E949C
:105A1000F4580E94435B1093E21AA50194010E947E
:105A2000A45A6D8F7E8F8F8F98A3BE01635E7F4FC8
:105A3000CE0101960E94BB2794E09093E01A0E9449
:105A400071140E94CE040023E9F00E946E11FE0141
:105A5000BA9630E020E090E06191462F412359F062
:105A6000AC01022E02C0559547950A94E2F740FF1B
:105A700002C0609516232F5F3F4F2730310561F735
:105A80001093E21A0E9471148091D21A847309F45F
:105A90007AC01091D21A14FF03C086E00E94AD03B1
:105AA00015FF03C087E00E94AD03011182C00E9470
:105AB0006E11ADA98A2319F088E00E94AD03809190
:105AC000D31A8823E9F00E9437260E940321E79623
:105AD0000FB6F894DEBF0FBECDBFDF91CF911F91FF
