:100000000C94D7020C94F8020C94F8020C94F802A9
:100010000C94F8020C94F8020C94F8020C94F80278
:100020000C94F8020C941C550C94F8020C944F4E4E
:100030000C94A5540C94F8020C94F8020C94F80259
:100040000C94F8020C94AB4E0C94F8020C94F80249
:100050000C94F8020C94F8020C94F8020C94954E4F
:100060000C94F8020C9478530C947A540C94F80283
:100070000C94F8020C94F8020C94F8020C94F80218
:100080000C94F8020C94F8020C94F8020C946E5242
:100090000C9450530C9425530C94F8020C94F802D1
:1000A0000C94F8020C94F8020C94F8020C94F802E8
:1000B0000C94F8020C94F8020C94F8020C9431554C
:1000C0000C94F8020C94F8020C94F8020C94FD5273
:1000D0000C94D2520C94F8020C94AA520C947F52B5
:1000E0000C94F802084AD73B3BCE016E84BCBFFD9E
:1000F000C12F3D6C74319ABD56833DDA3D00C77FF8
:1001000011BED9E4BB4C3E916BAAAABE0000008090
:100110003F05A84CCDB2D44EB93836A9020C50B91F
:10012000918688083CA6AAAA2ABE000000803F004B
:100130000C94864D0C94E44D0C94AB320C949D328F
:100140000C943C540C94834D0C9440540C940E54D9
:100150000C94F94D0C9438540C94DE320C940454E5
:100160000C94D1480C9468540C94BA4D0C94B64C31
:100170000C948C320C9434540C94EB320C940F325B
:100180000C9410540C94484E0C94B5320C94244E9C
:100190000C94DC4D0C94D04D0C9466540C94993214
:1001A0000C947E4D0C94F04D0C941A540C941C4EEF
:1001B0000C9451540C9418540C9408540C94A54D60
:1001C0000C943F4E0C9443540C941E540C949B4836
:1001D0000C94904D0C945B540C9406540C941C5449
:1001E0000C9487480C942D4E0C9455540C94C8488C
:1001F0000C949F480C94134E0C9495480C94BF3269
:100200000C9430540C9428540C9424540C94E74DC2
:100210000C94B4480C944D540C945B320C940A54D6
:100220000C94754D0C942A540C9422540C94FF4D4C
:100230000C9432540C94CF480C94C64D0C946832F4
:100240000C94FA530C9441320C9412540C94F832DE
:100250000C94D3480C9400540C947F320C94C248F4
:100260000C94364E0C9462540C945D540C94AA4831
:100270000C942E540C944E320C9460540C94823096
:100280000C94BC480C943A540C94E3530C94723282
:100290000C94C9320C9420540C94A84D0C94B14D7C
:1002A0000C943E540C9416540C9459540C9491484C
:1002B0000C947B4D0C9449540C940C540C948B4826
:1002C0000C94984D0C94084E0C948F480D0A007CA9
:1002D00057506F733A004D506F733A000D0A00414A
:1002E0006C61726D3A005BE68EA2E992883A006317
:1002F0006F6E74726F6C2D312E302E302D616C70DC
:10030000686136005B76657273696F6E3A007C4691
:10031000533A007C4C6E3A007C42663A007C473A85
:10032000007C4D3A007C533A007C46423A007C53B4
:10033000463A007C483A007C41463A007C4C3A0000
:100340007C433A007C48573A007C44523A007C4453
:100350003A007C54443A007C523A007C52573A00AE
:100360007C4C573A007C5246543A007C4C46543AF6
:10037000007C53543A007C463A007C543A007C4C52
:10038000443A007C57506F733A007C4D506F733A7B
:1003900000536C65657000446F6F723A0043686586
:1003A000636B00416C61726D00486F6D696E670030
:1003B0004D6F76696E67005061757365004D6F769D
:1003C000696E67005265616479006572726F723A96
:1003D000005D002C002C002C002C002C002C002C8C
:1003E000006E756C6C5D00276368616D66657227D1
:1003F0002C0027746872656164272C002764726979
:100400006C6C272C0027636F6E65272C00276261B8
:100410006C6C272C0027656E646D696C6C272C0052
:100420005B007D0D0A00273A007B27746F6F6C001C
:100430007D0D0A00273A007B27746F6F6C007D0DDD
:100440000A00273A007B27746F6F6C000D0A005D6D
:10045000005B746F6F6C5374617475733A20005D48
:100460000D0A005B726669645F706F7765723A00AF
:100470000D0A00537461727420746F6F6C20736581
:100480007474696E6700204700204D0020530020DF
:10049000460020540033382E005B47433A47005B48
:1004A0005A706F733A005B544C4F3A005B473932D5
:1004B0003A003330003238005B47005B4F50543A0B
:1004C000005B5645523A312E31652E32303137308D
:1004D0003131343A00536C656570696E670052655E
:1004E00073746F72696E67207370696E646C6500F7
:1004F000526573746F72696E672064656661756CAE
:1005000074730050726F6772616D20656E6465640C
:1005100000436865636B206C696D697473004368A0
:1005200065636B20646F6F720044697361626C6510
:100530006400456E61626C65640043617574696F47
:100540006E3A20556E6C6F636B656400506C65612C
:10055000736520756E6C6F636B005B4D53473A009B
:100560006F6B0D0A00244E005D7D0D0A002C007B90
:1005700027746F6F6C44617461273A5B000D0A0049
:100580006265666F7265546F6F6C3A000D0A006E9B
:100590006F77546F6F6C3A000D0A00537461727478
:1005A00020746F6F6C2073657474696E670011241A
:1005B0001FBECFEFD1E2DEBFCDBF00E00CBF2DE10B
:1005C000A2E1B4E001C01D92A73EB207E1F714E03A
:1005D000A0E0B2E0EEE4F4EC00E00BBF02C0079054
:1005E0000D92A231B107D9F70E9484560C9425626E
:1005F0000C9400002F923F924F925F926F927F92E5
:100600008F929F92AF92BF92CF92DF92EF92FF9222
:100610000F931F93CF93DF93CDB7DEB72E970FB60F
:10062000F894DEBF0FBECDBF4B015C017A0120E024
:1006300030E0A9010E94465B10E087FF05C0B7FAD1
:10064000B094B7F8B09411E0C501B4010E94C95B41
:100650006B877C878D879E87112331F08DE2F701B0
:100660008083C70101967C016B857C858D859E8585
:100670008E010F5F1F4F68013AE0232E312C412C71
:10068000512C3801EFEF6E1A7E0AA20191010E94EF
:10069000DF5E605DF8016083B901CA018301611505
:1006A00071058105910569F7D701F301CE16DF06C3
:1006B000E1F583010C191D090F5F1F4F0E0D1F1D62
:1006C0006B857C858D859E850E94F85B9B01AC01C6
:1006D000C501B4010E94505A93012C193D09E20E44
:1006E000F31E2EE2F7012083680124E0F22EFA9433
:1006F000F1101EC0F80113822E960FB6F894DEBFDB
:100700000FBECDBFDF91CF911F910F91FF90EF9062
:10071000DF90CF90BF90AF909F908F907F906F9021
:100720005F904F903F902F90089582918D93BECF10
:1007300020E030E040E251E40E94A85D4B015C0102
:100740000E94C25B20E3260FF60121936F01072E62
:10075000000C880B990B0E94FA5B9B01AC01C50150
:10076000B4010E94505AC3CF2FB7F8949091571BF1
:10077000892B8093571B2FBF08952FB7F894909122
:10078000561B892B8093561B2FBF08959FB7F89453
:100790008093551B9FBF08959FB7F8942091541BD9
:1007A000809582238093541B9FBF08952FB7F894A0
:1007B0009091541B892B8093541B2FBF08952F9227
:1007C0003F924F925F926F927F928F929F92AF92E1
:1007D000BF92CF92DF92EF92FF920F931F93CF932E
:1007E000DF9300D01F92CDB7DEB72091241D222EBB
:1007F000312C40902F1D5090301D6090311D709015
:10080000321D22EF3CE13A8329838C011C821B823A
:10081000E981FA81C190D190E190F190FA83E98366
:1008200020E030E0A901C701B6010E94465B8823A1
:10083000B9F1F80180809180A280B3802DEC3CEC6E
:100840004CEC5DE3C301B2010E94505A9B01AC0124
:10085000C1010B8002C0959587950A94E2F780FF4D
:1008600011C0C501B4010E94465B87FD09C0C701E4
:10087000B6019058A50194010E94465B87FF10C005
:1008800081E01BC0C501B4010E94685D1816C4F365
:10089000A5019401C701B6010E94685D181684F392
:1008A0002B813C812F5F3F4F3C832B830C5F1F4F7D
:1008B0002730310509F0ACCF80E00F900F900F90FA
:1008C0000F90DF91CF911F910F91FF90EF90DF90EC
:1008D000CF90BF90AF909F908F907F906F905F90E0
:1008E0004F903F902F9008958F929F92AF92BF921A
:1008F000CF92DF92EF92FF920F931F93CF93DF93EC
:10090000EB012EE9E22E2CE1F22E8C016B018CE141
:10091000C80ED11C6991799189919991F7018190C3
:100920009190A190B1907F010E94FA5BA501940182
:100930000E94505BF80161937193819391938F01B1
:10094000CC15DD0539F7DF91CF911F910F91FF9005
:10095000EF90DF90CF90BF90AF909F908F900895D1
:100960005F9A0895E2E0F1E08081886080830895D5
:10097000882341F0739A91E0811101C090E0909337
:10098000021C08957398F7CF882341F08F9A91E065
:10099000811101C090E09093041C08958F98F7CFC7
:1009A000813019F4899A8A9804C089988230D9F7DD
:1009B0008A9A8093051C0895882341F0A29A91E0B9
:1009C000811101C090E09093031C0895A298F7CF85
:1009D000CF93DF93C0914D1AD0914E1A2097C9F052
:1009E00080911D1A816080931D1A6091331A709155
:1009F000341A8091351A9091361A9B01AC010E94ED
:100A0000A85D6EA37FA388A799A710924E1A109293
:100A10004D1ADF91CF910895E7E7FEE08091740EC3
:100A2000868F80910E1D8250990B880F8195858F3E
:100A3000EFE6F0E080818260808308952091231D9D
:100A400021FF0BC09093AB008093AA00892B31F457
:100A50008091A0008F7D8093A00008958091A000D8
:100A60008062F9CF882361F0813061F0823061F0DB
:100A7000833061F0843061F0853061F082E0089568
:100A800080E8089580E4089580E2089580E1089563
:100A900088E0089584E00895882361F0813061F052
:100AA000823061F0833061F0843061F0853061F034
:100AB00082E0089584E0089588E0089580E1089533
:100AC00080E2089580E4089580E80895AF92BF928F
:100AD000CF92DF92EF92FF920F931F93CF93DF930A
:100AE000E0900F1DF12CC090101DD12CD0E0C0E083
:100AF00010E000E0BC2EAC2EC7010C2E02C0959574
:100B000087950A94E2F780FF04C08C2F0E944C0561
:100B1000082BC60102C095958795AA94E2F780FF3D
:100B200004C08B2D0E943205182B2196C730D105A9
:100B300009F70093740E1093750EDF91CF911F91FA
:100B40000F91FF90EF90DF90CF90BF90AF900895FE
:100B50009091581B8091591B891749F0E92FF0E0BB
:100B6000E75BF64F80819F5F9093581B08958FEF4E
:100B700008952091500EDC0180E0861301C0089595
:100B800090914F0E2917D9F3E92FF0E0E15BF24F76
:100B900030813D938F5F9F5F90934F0EEECF90918A
:100BA0004F0E8091500E891749F0E92FF0E0E15B7C
:100BB000F24F80819F5F90934F0E08958FEF0895BD
:100BC000E0914D0C91E09E0F20914E0D291761F0A0
:100BD000F0E0E25BF34F808390934D0C8091310104
:100BE00080628093310104C02091541B24FFECCF1C
:100BF0000895E091490A91E09E0F20914A0B291730
:100C000061F0F0E0E65BF54F80839093490A8091B4
:100C1000D10080628093D10004C02091541B24FF36
:100C2000ECCF0895E091470891E09E0F209148098C
:100C3000291761F0F0E0E85BF74F80839093470855
:100C40008091C90080628093C90004C02091541B28
:100C500024FFECCF0895E091531B91E09E0F20916B
:100C6000521B291761F0F0E0EE5AF54E8083909305
:100C7000531B8091C10080628093C10004C0209109
:100C8000541B24FFECCF08951092560E9091231D13
:100C900097FD03C09CE09093560E882331F080911D
:100CA000560E9CE089278093560E08958F929F924E
:100CB000AF92BF92CF92DF92EF92FF920F931F936A
:100CC000CF93DF93CDB7DEB72D970FB6F894DEBF85
:100CD0000FBECDBF6B017C01042F20E030E0A901E5
:100CE0000E94465B87FF07C08DE20E94E005F7FA8D
:100CF000F094F7F8F09420E030E048EC52E4C701BB
:100D0000B6010E94A85D20E030E048EC52E40430D7
:100D100031F0033031F420E030E040E251E40E9451
:100D2000A85D20E030E040E05FE30E94515A0E945D
:100D3000C25B10E03AE0832E912CA12CB12CE12F64
:100D4000F0E0611571058105910581F581E090E084
:100D50008C0F9D1FE80FF91F80E31017C8F11013C7
:100D600009C0E1E0F0E0EC0FFD1FE10FF11D80E3B1
:100D700080831F5FEE24E394F12CEC0EFD1EE10E48
:100D8000F11C111128C02D960FB6F894DEBF0FBECE
:100D9000CDBFDF91CF911F910F91FF90EF90DF902A
:100DA000CF90BF90AF909F908F900895EE24E394E2
:100DB000F12CEC0EFD1EEE0EFF1EA50194010E940B
:100DC000DF5E605DF7016083B901CA011F5FB7CFC5
:100DD0001F5F8193C2CF101303C08EE20E94E00513
:100DE000F70182917F010E94E0051150CACF0F9355
:100DF0001F93CF938C01C0E0F801619171918191B3
:100E000091918F012091231D43E020FF07C02BE823
:100E100032E441E25DE30E94A85D44E00E94560690
:100E2000C33019F08CE20E94E005CF5FC43021F797
:100E3000CF911F910F9108958F929F92AF92BF9281
:100E4000CF92DF92EF92FF920F931F93CF93DF9396
:100E5000CDB7DEB72D970FB6F894DEBF0FBECDBF6E
:100E60006B017C01042F20E030E0A9010E94465B69
:100E700087FF07C08DE20E942B06F7FAF094F7F87F
:100E8000F094102F123008F054C000FF0AC020E088
:100E900030E040E251E4C701B6010E94A85D6B0159
:100EA0007C0120E030E040E05FE3C701B6010E9432
:100EB000515A0E94C25B10E03AE0832E912CA12C83
:100EC000B12CE12FF0E06115710581059105E9F57F
:100ED00081E090E08C0F9D1FE80FF91F80E3101751
:100EE00008F445C0101309C0E1E0F0E0EC0FFD1F6D
:100EF000E10FF11D80E380831F5FEE24E394F12C6A
:100F0000EC0EFD1EE10EF11C111134C02D960FB632
:100F1000F894DEBF0FBECDBFDF91CF911F910F912F
:100F2000FF90EF90DF90CF90BF90AF909F908F9009
:100F3000089520E030E048EC52E4C701B6010E9479
:100F4000A85D6B017C0112509DCFEE24E394F12C3F
:100F5000EC0EFD1EEE0EFF1EA50194010E94DF5E49
:100F6000605DF7016083B901CA011F5FAACF1F5FEF
:100F70008193B5CF101303C08EE20E942B06F701B8
:100F800082917F010E942B061150BECF2091231D1C
:100F900040E020FF07C02BE832E441E25DE30E941D
:100FA000A85D41E00C941C072091231D43E020FF25
:100FB00007C02BE832E441E25DE30E94A85D44E013
:100FC0000C941C070F931F93CF938C01C0E0F80182
:100FD00061917191819191918F010E94D407C330E9
:100FE00019F08CE20E942B06CF5FC43081F7CF91BD
:100FF0001F910F9108958F929F92AF92BF92CF92BF
:10100000DF92EF92FF920F931F93CF93DF9300D065
:1010100000D000D01F92CDB7DEB7611571058105F4
:101020009105A9F480E32A960FB6F894DEBF0FBEAF
:10103000CDBFDF91CF911F910F91FF90EF90DF9087
:10104000CF90BF90AF909F908F900C942B0600E0B4
:101050009E012F5F3F4F79012AE0822E912CA12C17
:10106000B12C6701C00ED11CA50194010E94DF5E66
:10107000F6016083B901CA010F5F61157105810531
:10108000910579F70E0D1F2D111DE016F10699F44B
:101090002A960FB6F894DEBF0FBECDBFDF91CF9179
:1010A0001F910F91FF90EF90DF90CF90BF90AF9086
:1010B0009F908F900895F80182918F01805D0E942A
:1010C0002B06E3CFCF92DF92EF92FF9297FF0CC0F7
:1010D0006B017C018DE20E942B0666277727CB01EE
:1010E0006C197D098E099F09FF90EF90DF90CF90DA
:1010F0000C94FB07CF93DF93843658F06AE00E948C
:10110000B15EC0E3C90F6AE00E94B15ED0E3D90FBF
:1011100004C0C0E0D0E08A30B0F7805D0E942B06AA
:10112000DD2319F08D2F0E942B06CC2329F08C2F64
:10113000DF91CF910C942B06DF91CF910895CF933F
:10114000DF93EC01FE0184912196811103C0DF91B0
:10115000CF9108950E94E005F5CFCF93DF93EC0186
:10116000FE0184912196811103C0DF91CF910895F2
:101170000E942B06F5CF2F923F924F925F926F9273
:101180007F928F929F92AF92BF92CF92DF92EF9217
:10119000FF920F931F93CF93DF9300D000D01F9245
:1011A0001F92CDB7DEB7FC01108121803284C38449
:1011B000D4840585E684F784FE24EF24FE2442804F
:1011C00053806480758049825A826B827C828680DB
:1011D0009780A084B1848D829E82AF82B88680E29F
:1011E00094E00E94AD08133009F46FC050F4113040
:1011F00009F468C08DE094E0123061F081EE93E074
:1012000047C0153009F467C008F462C087EE93E068
:101210001630A1F70E94AD08822D0E947A088FED4A
:1012200093E00E94AD0843E0C301B2010E941C0795
:101230008DED93E00E94AD0843E0C501B4010E942A
:101240001C078BED93E00E94AD08832D0E947A0865
:1012500089ED93E00E94AD088C2D0E947A0887EDFD
:1012600093E00E94AD088D2D0E947A0885ED93E0F1
:101270000E94AD08802F0E947A0883ED93E00E94BF
:10128000AD08B70190E080E00E94FB0781ED93E09C
:1012900028960FB6F894DEBF0FBECDBFDF91CF9179
:1012A0001F910F91FF90EF90DF90CF90BF90AF9084
:1012B0009F908F907F906F905F904F903F902F9076
:1012C0000C94AD0885E194E0A5CF85E094E0A2CF31
:1012D0008CEF93E09FCF82EF93E09CCF8CED92E078
:1012E0000C94AD08CF93C82F8AEC93E00E94AD0810
:1012F0008C2F0E947A08CF910C946E09882321F0DC
:10130000823031F00C94720980E695E00C94AD08BF
:101310000895CF92DF92EF92FF92CF93DF93D82F71
:101320006A017B01C22F84E20E942B068D2F0E944E
:101330007A088DE30E942B064C2FC701B6010E944C
:101340001C07DF91CF91FF90EF90DF90CF900C942E
:101350006E09EF92FF920F931F93CF93DF9308E4F0
:101360001DE1C2EDD0E0EE24E394EC0E82E0F82E15
:10137000FC0EF801D130C9F0D230F1F0408151813A
:101380006281738123E08C2F0E948909DF5FD33053
:1013900081F7CD5F0C5F1F4FC43E21F7DF91CF91E6
:1013A0001F910F91FF90EF900895408D518D628DA8
:1013B000738D23E08E2DE8CF40A951A962A973A9AE
:1013C00023E08F2DE1CFCF93DF93D82FC62F84E278
:1013D0000E942B068D2F0E947A088DE30E942B0617
:1013E0008C2F0E947A08DF91CF910C946E09EF92B6
:1013F000FF920F931F93CF93DF9360910E1D70E0C8
:1014000080E00E94E3096091111D70E081E00E947C
:10141000E30960910F1D70E082E00E94E309609192
:10142000101D70E083E00E94E3096091231D62FBC0
:10143000662760F970E084E00E94E3096091231D53
:1014400066FB662760F970E085E00E94E309809101
:10145000231D082E000C990B692F661F6627661F37
:1014600070E086E00E94E3096091121D70E08AE05E
:101470000E94E3094091131D5091141D6091151DA8
:101480007091161D23E08BE00E9489094091171D81
:101490005091181D6091191D70911A1D23E08CE068
:1014A0000E9489096091231D617070E08DE00E94A7
:1014B000E3096091231D65FB662760F970E084E114
:1014C0000E94E3096091231D63FB662760F970E0C9
:1014D00085E10E94E3096091231D6295617070E0CF
:1014E00086E10E94E3096091241D70E087E10E947B
:1014F000E3094091251D5091261D6091271D709193
:10150000281D23E088E10E9489094091291D5091FE
:101510002A1D60912B1D70912C1D23E089E10E94F2
:10152000890960912D1D70912E1D8AE10E94E309A9
:1015300040912F1D5091301D6091311D7091321DD1
:1015400023E08BE10E94890940911B1D50911C1DD5
:1015500060911D1D70911E1D20E08EE10E94890981
:1015600040911F1D5091201D6091211D7091221DE1
:1015700020E08FE10E9489096091231D66956170CA
:1015800070E080E20E94E30940913C1D50913D1DB6
:1015900060913E1D70913F1D23E081E20E94890908
:1015A0004091401D5091411D6091421D7091431D1D
:1015B00023E082E20E9489094091441D5091451D1B
:1015C0006091461D7091471D23E083E20E948909C6
:1015D0004091E01D5091E11D6091E21D7091E31D6D
:1015E00023E084E20E9489096091E41D70E085E2B5
:1015F0000E94E30994E6F92E10E0CEE9DCE100E078
:10160000E02EEF0C123009F461C0133009F46BC006
:10161000113009F456C0488159816A817B8123E0E9
:101620008E2D0E9489090F5F2496073049F78AE0C2
:10163000F80E1F5FECE8FE12E0CF6091331D70E002
:1016400088EC0E94E3094091341D5091351D609152
:10165000361D7091371D23E089EC0E948909409165
:10166000381D5091391D60913A1D70913B1D23E04A
:101670008AEC0E94890908E41DE1C2EDD0E0EE2465
:10168000E394EC0E82E0F82EFC0EF801D130A1F1CB
:10169000D230C9F1408151816281738123E08C2F66
:1016A0000E948909DF5FD33081F7CD5F0C5F1F4F48
:1016B000C43E21F7DF91CF911F910F91FF90EF90E2
:1016C00008954C8D5D8D6E8D7F8DA9CF20E030E02B
:1016D00041E655E468AD79AD8AAD9BAD0E94505BA3
:1016E000AB01BC019CCFFE01EC5AFF4F4081518100
:1016F00062817381705893CF408D518D628D738D4F
:1017000023E08E2DCDCF40A951A962A973A923E072
:101710008F2DC6CF8DE50E942B060C946E0984E0B8
:1017200093E00E94AD088FEE92E00E94AD080C9409
:101730008A0BCF93DF93CDB7DEB76C970FB6F894D3
:10174000DEBF0FBECDBF86EE92E00E94AD0867E51A
:101750007EE0CE0101960E947404CE0101960E94A3
:10176000E2078AE30E942B068091EE1B0E947A0812
:101770008CE20E942B066091381D7091391D80917A
:101780003A1D90913B1D0E94D4070E948A0B6C96D3
:101790000FB6F894DEBF0FBECDBFDF91CF91089595
:1017A000CF93DF93EC018991811103C0DF91CF9139
:1017B00008950E942B06F7CFEDECFBE1A5E9B6E01A
:1017C00041915191619171914D935D936D937D9391
:1017D0008BE1E93EF807A1F70895BF92CF92DF921F
:1017E000EF92FF920F931F93CF93DF937C01FC0145
:1017F000FE9600811181D281C381FC0181A180FF0D
:1018000033C06091F11B70E090E080E00E94FA5BD1
:101810002AE037ED43E25CE30E94A85D9B01AC0146
:10182000B8018D2F9C2F0E94A85D8B01D82FC92F46
:1018300020E030E040E85FE3B8018D2F9C2F0E944C
:10184000685D181624F000E010E0D0E8CFE3B8019E
:101850008D2F9C2FDF91CF911F910F91FF90EF90D3
:10186000DF90CF90BF90089582FD17C06091F01B6C
:1018700070E090E080E00E94FA5B2AE037ED43E2FE
:101880005CE30E94A85D9B01AC01B8018D2F9C2FE9
:101890000E94A85D8B01D82FC92FF701B2ACC3AC51
:1018A000D4ACF5AC98014D2F5C2F6B2D7C2D8D2D7C
:1018B0009F2D0E94465B87FFBBCF0B2D1C2DDD2D7E
:1018C000CF2DB6CF8091BB0E90919418981739F018
:1018D00026E4829FC00111248454914F089590E022
:1018E00080E008954F925F926F927F928F929F92C5
:1018F000AF92BF92CF92DF92EF92FF920F931F931E
:10190000CF93DF93CDB7DEB7C057D1090FB6F894A8
:10191000DEBF0FBECDBF8CE1EDECFBE1DE01119629
:1019200001900D928A95E1F7BE016F5F7F4FCE0166
:101930004D960E947404BE016F5F7F4FCE01C99621
:101940000E9474048CE30E942B068091E91B88306E
:1019500009F44BC108F02FC1813009F44FC108F4DC
:101960003FC1823009F44DC1843009F444C18091F3
:10197000121D282F2170E22E80FF5CC18091F51B83
:10198000882309F457C18AE893E00E94AD08CE018C
:101990004D960E94E20783E893E00E94AD08CE01D5
:1019A000C9960E94E2078EE793E00E94AD0860911D
:1019B0000B1C70910C1C80910D1C90910E1C42E030
:1019C0000E941C078AE793E00E94AD088091331DB6
:1019D0000E947A0886E793E00E94AD0860916C1B34
:1019E00070916D1B80916E1B90916F1B0E94C607BA
:1019F00081E793E00E94AD0860E070E0CB010E94B7
:101A0000C6078BE693E00E94AD0860E070E0CB0172
:101A10000E94C60785E693E00E94AD0860E070E092
:101A2000CB010E94C60780E693E00E94AD0860915A
:101A3000061C70E090E080E00E94F85B0E94C60700
:101A40008BE593E00E94AD086091071C70E090E088
:101A500080E00E94F85B0E94C60787E593E00E9441
:101A6000AD086091FE1B70E090E080E00E94F85BA2
:101A70000E94C60782E593E00E94AD086091FF1BBB
:101A800070E090E080E00E94F85B0E94C6078EE460
:101A900093E00E94AD086091001C70E090E080E04F
:101AA0000E94F85B0E94C60789E493E00E94AD089B
:101AB0006091081C70E090E080E00E94F85B0E945A
:101AC000C60784E493E00E94AD086091111C70E0A9
:101AD00090E080E00E94F85B0E94C60780E493E0FB
:101AE0000E94AD086091011C70E090E080E00E94CF
:101AF000F85B0E94C6078CE393E00E94AD086091FA
:101B0000021C70E090E080E00E94F85B0E94C60733
:101B100087E393E00E94AD086091031C70E090E0C1
:101B200080E00E94F85B0E94C60783E393E00E9476
:101B3000AD0860910A1C70E090E080E00E94F85BC4
:101B40000E94C6078EE293E00E94AD086091051CDA
:101B500070E090E080E00E94F85B0E94C60789E296
:101B600093E00E94AD086091041C70E090E080E07A
:101B70000E94F85B0E94C60785E293E00E94AD08D0
:101B80006091681B7091691B80916A1B90916B1B1F
:101B900040E00E941C0781E293E00E94AD08809122
:101BA000671B803109F498C0803209F425C1811186
:101BB00096C085E392C08032D9F050F4803109F0AC
:101BC000D6CE8091EB1B87FD13C087EB93E00AC054
:101BD0008034D1F0803809F0CACE81E993E002C0A8
:101BE00084EC93E00E94AD08C2CE8DEB93E0FACF77
:101BF00080EB93E0F7CF89EA93E0F4CF83EA93E0B8
:101C0000F1CF8DE993E0EECF87E993E00E94AD0834
:101C10008091EB1B83FF04C083E30E942B06A7CEB9
:101C200082FF06C085FF02C081E3F7CF80E3F5CFD6
:101C300082E3F3CF4090C91B5090CA1B6090CB1B2E
:101C40007090CC1B81E9A82E8BE1B82E6E0185E542
:101C5000C80ED11C8E01075C1F4FF12C4601F50107
:101C600061917191819191915F01208D318D428DB2
:101C7000538D0E94515AF601619371938193919310
:101C80006F01F2E0FF1225C0A30192010E94515A98
:101C9000F4016087718782879387E11016C0F6018F
:101CA00034972081318142815381F80160817181B3
:101CB000828193810E94505AF801608371838283EC
:101CC0009383F6E0FF1609F45ECEF3940C5F1F4F8A
:101CD000C6CFEE2021F3F5CF83E30E942B068DE1E2
:101CE00093E00E94AD088091641B8A5C0E947A0890
:101CF0008091121D81FF1EC088E193E00E94AD0813
:101D0000909194188091BB0E981708F477C08D5D60
:101D1000891B0E947A088CE20E942B06809145085C
:101D200090914608981708F46BC0981B892F8095EE
:101D30000E947A080E94620C009791F0FC01C2A0F8
:101D4000D3A0E4A0F5A0C114D104E104F10441F052
:101D500083E193E00E94AD08C701B6010E946208CA
:101D60008EE093E00E94AD088091E91B8C7709F426
:101D70004AC06091331A7091341A8091351A90914B
:101D8000361A0E94C6078CE20E942B066091F61B51
:101D90007091F71B8091F81B9091F91B40E00E9415
:101DA0001C078091F51B882391F181508093F51BCE
:101DB0008091F41B8823E1F181508093F41B8EE322
:101DC0000E942B060E946E09C059DF4F0FB6F8948F
:101DD000DEBF0FBECDBFDF91CF911F910F91FF905E
:101DE000EF90DF90CF90BF90AF909F908F907F90BB
:101DF0006F905F904F90089584E36FCF815088CFAC
:101E00008150891B95CF60E070E0CB01BACF809103
:101E1000E91B8C7759F08DE18093F51B8091F41BC1
:101E20008111C6CF81E08093F41BC2CF89E0F4CF4B
:101E30008091E91B8C7711F083E1BFCF89E0BDCFA2
:101E40000E94620C892B19F082E00C94D60308954D
:101E50002F923F924F925F926F927F928F929F92BA
:101E6000AF92BF92CF92DF92EF92FF920F931F93A8
:101E7000CF93DF9300D01F92CDB7DEB700919418B7
:101E8000002309F486C009833981315039831091C8
:101E9000BA0E131709F466C0C32ED12CE6E43E9F98
:101EA000C00111249C012454314F7901F90172A41D
:101EB00083A494A4A5A466A577A580A991A99B0154
:101EC000AC010E94515AF70122A933A944A955A98E
:101ED0000E94A85DB62EE72EF82E9B83262F372F63
:101EE000482F592F672D782D892D9A2D0E94465BFA
:101EF00087FF03C0B72C7401AB8286E48C9DF00190
:101F00008D9DF00D1124E454F14F8B2D9E2DAF2D9E
:101F1000BB8186A397A3A0A7B1A7F9818F2FF11149
:101F200001C084E2FF24FA94F80E3090BB0E1F111A
:101F300033C0131102C00E94E804E6E41E9FC001F2
:101F400011248454914F9A83898333243394310E1E
:101F5000F4E23F1201C0312C86E4282E031185C023
:101F60001093BA0E0F900F900F900F90DF91CF91BA
:101F70001F910F91FF90EF90DF90CF90BF90AF90A7
:101F80009F908F907F906F905F904F903F902F9099
:101F9000089524E2298378CF298186E4289F90013F
:101FA00011242454314F3C832B8326E4E22E8F2CC2
:101FB000912CFE9CC0011124FC01E454F14FFA83E2
:101FC000E983F11002C094E2F92EFA94F31002C0F2
:101FD0000E94E804E89CC001E99C900D11249C013A
:101FE0002454314F6901F90142A453A464A475A497
:101FF000A301920166A177A180A591A50E94465BED
:10200000882339F1F60166A577A580A991A99B01DE
:10201000AC010E94515AF60122A933A944A955A93D
:102020000E94A85DEB81FC8126A137A140A551A5A6
:102030000E94515A4B015C01AC019B01C301B201EA
:102040000E94685DF60118165CF486A297A2A0A60D
:10205000B1A629813A813C832B831F11A8CF6DCF74
:1020600046A257A260A671A6F4CFC32CD12C329CF5
:10207000C00111249C012454314F7901E981FA8176
:1020800046A057A060A471A4F90186A097A0A0A4BF
:10209000B1A4A5019401C301B2010E94465B87FF70
:1020A00026C0E981FA8166A577A580A991A99B013F
:1020B000AC010E94515AE981FA8122A933A944A9AD
:1020C00055A90E94A85DA30192010E94515A2B01BB
:1020D0003C01AC019B01C501B4010E94685D18166A
:1020E00034F4F70146A257A260A671A6132D2C9CCA
:1020F000F0012D9CF00D1124E454F14F22A533A5DD
:1021000044A555A566A177A180A591A50E94465B2F
:10211000811101C0132D3394F4E23F1201C0312C20
:10212000FA82E9821BCF6F927F928F929F92AF9239
:10213000BF92CF92DF92EF92FF920F931F93CF93B4
:10214000DF93EB018C015B018CE1A80EB11C89E9E6
:10215000682E96E7792E26E9822E3EE7932EC990C7
:10216000D990E990F99020E030E0A901C701B601CB
:102170000E94465B8823B9F0A7019601F8016081AF
:102180007181828193810E94505B6B017C01E89494
:10219000F7F89301A401C701B6010E94685D181603
:1021A00014F0360147010C5F1F4FCA15DB05B9F665
:1021B000B301C401DF91CF911F910F91FF90EF9078
:1021C000DF90CF90BF90AF909F908F907F906F9057
:1021D00008954F925F926F927F92AF92BF92CF928B
:1021E000DF92EF92FF920F931F93CF93DF936C01D7
:1021F000FB015A01A081A80FB92FB11D8C91ED01EF
:102200008D3249F5229611968C9101E0512C612C6A
:1022100010E020E030E0A9017E0190ED792E780EEB
:1022200089E0871528F16394A8E0A615E8F051101D
:102230001150A5E0B0E00E94285F9B01AC01220F85
:10224000331F441F551F270D311D411D511D219660
:10225000D7018C91E1CF8B3219F0219600E0D6CFD7
:10226000229611968C91FACF5110F1CF1F5FEFCFCC
:10227000BEEF7B1205C0511003C055245394E7CF25
:10228000662009F17F01CA01B9010E94F85B2B01A8
:102290003C0120E030E0A9010E94465B81112EC084
:1022A000002309F448C077FA709477F87094F50128
:1022B0004082518262827382CC19DD09C150F701DC
:1022C000C08366246394862DDF91CF911F910F9177
:1022D000FF90EF90DF90CF90BF90AF907F906F9086
:1022E0005F904F9008952AE037ED43E25CE3C3012D
:1022F000B2010E94A85D2B013C011E5F1F3F9CF3B1
:102300001F3F59F42DEC3CEC4CEC5DE3C301B201F2
:102310000E94A85D2B013C01C3CF112309F220E0EC
:1023200030E040E251E4C301B2010E94A85D2B01FC
:102330003C011150F2CFD5014D925D926D927C928D
:102340001397BACF93B18091231D86FF17C09E7754
:10235000B9F094FB882780F995FD8260292F2074BD
:1023600009F08460292F247092FD886091FD8061BE
:102370002111806293FF05C0806408959095E7CF96
:1023800080E00895EBE6F0E0808181788083E8E6E4
:10239000F0E080818E7F8083089584B1817884B954
:1023A000809107018B7F80930701809108018460F1
:1023B0008093080185B18E6785B98091231D83FFC5
:1023C00016C080916B008E6780936B0080916800CF
:1023D00081608093680084B7877F84BF80916000AC
:1023E00088618093600081E08093600008950E947E
:1023F000C211F1CF27E030E090E0AC01022E02C024
:10240000559547950A94E2F7A09A40FF11C0000045
:1024100000000000000000000000000000000000BC
:102420000000A098000000002150310930F7089505
:1024300000000000A0980000000000000000000064
:1024400000000000000000000000EECF8091930427
:102450008823F1F180917A00806480937A008091E2
:102460007A0086FDFCCF90917800809179008927D1
:1024700098278927009721F0893E23E092075CF096
:1024800010927F04109280041092810410928204B2
:10249000109289040895092E000CAA0BBB0B4091E1
:1024A0008E0450918F046091900470919104840F78
:1024B000951FA61FB71F80938E0490938F04A0933F
:1024C0009004B0939104809192048F5F8093920462
:1024D00008956DEC7BE185E79BE10C947404F8941E
:1024E000F999FECF92BD81BD81E08FBB20B5862FCB
:1024F0008227082E000C990B50E086239523892B08
:1025000049F084E16F3F11F060BD84E08FBBF99A20
:10251000789408952617E1F360BD84E2F7CF9F9287
:10252000AF92BF92CF92DF92EF92FF920F931F93E1
:10253000CF93DF935C018A017B01E40EF51EEB0172
:10254000912C6C01C61AD70ACE018C0D9D1D21E07D
:10255000911007C0292D990C330B232F221F2227FE
:10256000221F6991962E920E0E946F12CE15DF05E2
:1025700059F7692DC501800F911FDF91CF911F91F0
:102580000F91FF90EF90DF90CF90BF90AF909F9012
:102590000C946F126AE090E080E00E946F1247E4B2
:1025A00051E06EE97CE181E090E00C948F12F999A2
:1025B000FECF92BD81BD81E08FBB80B508959F9213
:1025C000AF92BF92CF92DF92EF92FF920F931F9341
:1025D000CF93DF935B018A017C01E40EF51EEC01D1
:1025E000912C6B01C81AD90AC6018C0F9D1F0E943D
:1025F000D71221E0911007C0292D990C330B232FFE
:10260000221F2227221F982E920E8993CE15DF05B6
:1026100059F7C501800F911F0E94D71221E030E0C9
:10262000891511F030E020E0C901DF91CF911F91B1
:102630000F91FF90EF90DF90CF90BF90AF909F9061
:102640000895E9ECF0E080818F7E80838081806155
:1026500080838091500E80934F0EEFE4FDE080E088
:1026600091E0DF019C011D9221503040E1F7089577
:10267000E5E9F6E08CE3DF011D928A95E9F7109217
:10268000BB0E1092941881E0809394061092BA0EBB
:102690000895CF93C82F80910201C13071F48062F8
:1026A00080930201809102018F7B809302010E943E
:1026B000B204C093011CCF910895C23039F48064F4
:1026C00080930201809102018F7DEFCF8F7B8093F9
:1026D0000201809102018F7D8093020180910201AD
:1026E000877F80930201E5CF80E00E94DC0480E0D8
:1026F0000E94D00480E00E94C404A59880E00E945B
:10270000B804E2E0F1E080818F7D808380818F7B5F
:10271000808310988B985F988081877F808308954D
:102720004F925F926F927F92AF92BF92CF92DF9261
:10273000EF92FF920F931F93CF93DF93EC015C0115
:102740002CE1A20EB11C8C01C12CD12C7601F80118
:1027500041905190619071908F0120E030E0A9018B
:10276000C301B2010E94465B882371F0A30192016C
:10277000C301B2010E94A85D9B01AC01C701B60173
:102780000E94515A6B017C010A151B0501F7C70114
:10279000B6010E94475E6B017C01AC019B0160E0C9
:1027A00070E080E89FE30E94505B2B013C0169913F
:1027B0007991899199915E01F4E0AF1AB108A30172
:1027C00092010E94A85DF5016083718382839383E7
:1027D000C017D10761F7C701B601DF91CF911F91F3
:1027E0000F91FF90EF90DF90CF90BF90AF907F90D0
:1027F0006F905F904F9008954F925F926F927F928B
:102800008F929F92AF92BF92CF92DF92EF92FF9200
:102810006B017C0180901F1D9090201DA090211DB8
:10282000B090221D40901B1D50901C1D60901D1DDE
:1028300070901E1DA3019201C501B4010E94685D44
:1028400087FF1BC06091F21B70E090E080E00E9467
:10285000FA5B2AE037ED43E25CE30E94A85DA70142
:1028600096010E94A85D6B017C01AC019B01C30134
:10287000B2010E94465B1816BCF04092F61B5092C3
:10288000F71B6092F81B7092F91B80E094E0FF90B8
:10289000EF90DF90CF90BF90AF909F908F907F9000
:1028A0006F905F904F900895A7019601C501B40104
:1028B0000E94685D87FD1FC020E030E0A901C701CC
:1028C000B6010E94465B81110BC01092F61B10925C
:1028D000F71B1092F81B1092F91B90E080E0D7CF05
:1028E0008092F61B9092F71BA092F81BB092F91BF6
:1028F00081E090E0CCCFC092F61BD092F71BE09223
:10290000F81BF092F91BA5019401C701B6010E94C2
:10291000505A2091520E3091530E4091540E5091C6
:10292000550E0E94A85D0E94355C20E030E040E832
:102930005FE30E94515A0E94C95BCB01A8CF2F923E
:102940003F924F925F926F927F928F929F92AF923F
:10295000BF92CF92DF92EF92FF920F931F93CF938C
:10296000DF93CDB7DEB7C054D1090FB6F894DEBF00
:102970000FBECDBF8091ED1B80FD75C29091951863
:1029800080919618981709F46EC280914D1A909113
:102990004E1A892B09F07EC01091ED1B12FF7DC2EB
:1029A0008091941826E4829FC00111248454914F91
:1029B00090934E1A80934D1A40914D1A50914E1A91
:1029C0005E834D83452B09F44EC200911D1A00FF12
:1029D00067C210921D1A10922F1A1092301A10927C
:1029E000311A1092321AAD81BE819E962D913D9181
:1029F0004D915C91D19729833A834B835C8360E04E
:102A000070E080E09FE30E94505B69877A878B8744
:102A10009C87ED81FE8142A853A864A875A886A072
:102A200097A0A0A4B1A411FF29C3F2E0F0932E1A3D
:102A3000A50194010E94A85D9B01AC01C301B201F4
:102A40000E94505A6B017C0120E030E0A9010E94F5
:102A5000465B87FF02C329813A814B815C81CA01B1
:102A6000B9010E94515AA30192010E94A85D9B01E5
:102A7000AC01C501B4010E94505A0E94475E6093A8
:102A80003B1A70933C1A80933D1A90933E1A18603B
:102A90001093ED1BE091E718F8E0EF9FD0011124AF
:102AA000BA87A987FD01E956F74E80911C1A8483E5
:102AB00040904D1A50904E1AD201D296BC91BEA3AE
:102AC000F201F3A9FFA3D201D496BC91B8A7F201F9
:102AD000F5A9F9A720912A1A30912B1A40912C1AA6
:102AE00050912D1A6EA17FA18B2F9F2F0E94505ABB
:102AF0006AAB7BAB8CAB9DAB20E030E0A9010E94C0
:102B0000465B87FF04C01AAA1BAA1CAA1DAA209113
:102B10003F1A2E8B3091401A3F8B4091411A488FBB
:102B20005091421A598F8091371A8E8F9091381A8E
:102B30009F8FA091391AA8A3B0913A1AB9A3E09136
:102B4000431AEAA7F091441AFBA72091451A2CA733
:102B50003091461A3DA74091331A4FAF5091341A25
:102B600021965FAF21976090351A7090361A809148
:102B70002E1A898390912F1A9EA7A091301AAFA781
:102B8000B091311AB8ABE091321AE9ABF0913B1A2F
:102B9000FBAF20913C1A2CAF30913D1A3DAF4091D4
:102BA0003E1A4EAF2AA53BA54CA55DA56E897F892F
:102BB000888D998D0E94465B8111EFC352E05EAB18
:102BC0009EA19D83AFA1AD87B8A5B98BE9A5ED8B7B
:102BD0008EE3C82E83ECD82E8EE2E82E89E3F82E01
:102BE0001A8E1B8E1C8E1D8EA70196012AA33BA355
:102BF0004CA35DA33981313009F449C4D20131308D
:102C000008F4D3C3333009F075C49E962D913D91DD
:102C10004D915C91D197C701B6010E94A85D4B010F
:102C20005C0120E030E040E05FE30E94A85D9B0192
:102C3000AC016FAD21967FAD2197C3010E94505A20
:102C4000A70196010E94A85D6FAB78AF89AF9AAFDC
:102C50009B01AC016D817D8589899D890E94505AB7
:102C60001B018C012E893F89488D598D0E94465B3E
:102C700087FD0CC020E030E0A9016FA978AD89ADD7
:102C80009AAD0E94465B18160CF472C42E893F89D7
:102C9000488D598D6EA17FA188A599A50E94505A93
:102CA0009B01AC010E94515A6B017C012E8D3F8D1E
:102CB00048A159A16FAD21967FAD2197C3010E9414
:102CC000515A9B01AC01C701B6010E94505B6B01D8
:102CD0007C01BE8DBFAFEF8D2196EFAF219768A02D
:102CE00079A02E883F88088D198DF1E0F983A7011E
:102CF00096016A8D7B8D8C8D9D8D0E94515A6A8FB5
:102D00007B8F8C8F9D8F2AA13BA14CA15DA10E943E
:102D1000465B87FF67C42A8D3B8D4C8D5D8D6AA114
:102D20007BA18CA19DA10E94505A6B017C01910155
:102D3000A8016EA57FA588A999A90E94465B87FD79
:102D40002FC38FAD21969FAD2197D3018093331A66
:102D50009093341AA093351AB093361AF981F093F0
:102D60002E1AE091E818F091E91881A1811104C0B0
:102D70009091ED1B93FF33C0D20191969C9190737B
:102D800009F45EC4F201EE5BFF4FC080D180E280A7
:102D9000F3808823B9F02091471A3091481A409166
:102DA000491A50914A1A6FAD21967FAD2197C30100
:102DB0000E94A85D9B01AC01C701B6010E94A85DFD
:102DC0006B017C01C701B6010E94FC1390934C1A61
:102DD00080934B1A8091ED1B877F8093ED1B809130
:102DE0004B1A90914C1AE985FA85E956F74EFE8305
:102DF000ED83978386832091261A3091271A40917C
:102E0000281A5091291AB101C8010E94A85D2B010E
:102E10003C010E942F5B6B017C016091221A709132
:102E2000231A8091241A9091251A0E942F5B4B013E
:102E30005C01A70196010E94505A0E94C95B6983F8
:102E40007A838B839C83E981FA81AD81BE81ED9386
:102E5000FC93EF2B09F001C48091ED1B81FFFDC3B2
:102E600081608093ED1BC05CDF4F0FB6F894DEBF2E
:102E70000FBECDBFDF91CF911F910F91FF90EF90CB
:102E8000DF90CF90BF90AF909F908F907F906F908A
:102E90005F904F903F902F9008950E94620C88CDD4
:102EA00080911C1A8F5F893009F480E080931C1A8E
:102EB000282F30E052E2859FC0011124DC01A65189
:102EC000B74E7D01B093E918A093E818ED81FE811B
:102ED00080A190968C9390E080E041915191619116
:102EE0007191D701A80FB91F689412F8440F551FAC
:102EF000661F771F1694D1F74D935D936D937C9366
:102F0000139704968C31910541F7AD81BE815C9693
:102F10006D917D918D919C915F97B2E2B29FA001DE
:102F2000B39F500D1124FA01E651F74E4B015C019D
:102F300023E0880C991CAA1CBB1C2A95D1F7848E0F
:102F4000958EA68EB78E0E94F85B6093221A7093BE
:102F5000231A8093241A9093251AED81FE8122A9C9
:102F600033A944A955A90E94505B9B01AC01209351
:102F7000261A3093271A4093281A5093291A60E092
:102F800070E080EA9FE30E94505B60932A1A70937E
:102F90002B1A80932C1A90932D1A10921E1A1092AD
:102FA0001F1A1092201A1092211A11FD02C003FF5D
:102FB00043C060913B1A70913C1A80913D1A9091E8
:102FC0003E1A6093331A7093341A8093351A909393
:102FD000361A9B01AC010E94A85DAD81BE81969618
:102FE0006D937D938D939C939997077F00931D1A02
:102FF000D70191961C928091231D81FFECCCED812D
:10300000FE8181A185FFE7CCFE962081318142813E
:10301000538160E070E080E89FE30E94505B609322
:10302000471A7093481A8093491A90934A1AE1E01C
:10303000D7019196EC93CFCCED81FE8166A177A16B
:1030400080A591A50E94475E6093331A7093341A4D
:103050008093351A9093361ACBCFC0922F1AD09204
:10306000301AE092311AF092321A10923B1A1092F2
:103070003C1A10923D1A10923E1A09CD10922E1A47
:1030800040923F1A5092401A6092411A7092421A2E
:1030900012FF6AC010923B1A10923C1A10923D1A0D
:1030A00010923E1AC12CD12C76018D819E810E94F6
:1030B000ED0B698B7A8B8B8B9C8B9B01AC010E94F7
:1030C000A85D6D837E838F839887A50194010E94FC
:1030D000465B87FF93C02D813E814F815885C50196
:1030E000B4010E94505A29853A854B855C850E941F
:1030F000A85D9B01AC01C301B2010E94505A6093CC
:103100003F1A7093401A8093411A9093421A20E01C
:1031100030E0A9010E94465B18160CF449C032E069
:1031200030932E1A29813A814B815C81CA01B90101
:103130000E94515AA30192010E94A85D9B01AC011B
:10314000C501B4010E94505A0E94475E60933B1A29
:1031500070933C1A80933D1A90933E1A80911D1AE9
:10316000886080931D1A93CCE091BB0EEF5FE43230
:1031700009F4E0E080919418C12CD12C76018E17CF
:1031800051F026E42E9FF0011124E454F14FC6A023
:10319000D7A0E0A4F1A4C701B6010E94475E6093E6
:1031A0003B1A70933C1A80933D1A90933E1A7DCF40
:1031B000A70196016D817E818F8198850E94505A6A
:1031C00029853A854B855C850E94A85D6093431AEA
:1031D0007093441A8093451A9093461A89899A8964
:1031E000AB89BC898093371A9093381AA093391A07
:1031F000B0933A1A93E090932E1A49CCA701960106
:10320000C501B4010E94505A29853A854B855C85D9
:103210000E94A85DA30192010E94515A20E030E073
:1032200040E05FE30E94A85D6D877E878F87988B63
:1032300020E030E0A9010E94685D18160CF094C0EF
:10324000A30192016D857E858F8598890E94465BDA
:1032500087FF88C0A70196016D817E818F81988547
:103260000E94505A29853A854B855C850E94A85D4D
:103270009B01AC012093431A3093441A4093451AA2
:103280005093461A6D857E858F8598890E94685D6A
:103290001816BCF529893A894B895C892093371A1D
:1032A0003093381A4093391A50933A1AA501940171
:1032B0006D817E818F8198850E94465B811104C05B
:1032C00031E030932E1AE3CBA50194016D817E810C
:1032D0008F8198850E94505A29853A854B855C8557
:1032E0000E94A85D9B01AC01C301B2010E94505A2B
:1032F00060933F1A7093401A8093411A9093421A38
:10330000C6CB8D859E85AF85B88980933F1A9093F3
:10331000401AA093411AB093421A8093431A909393
:10332000441AA093451AB093461A29813A814B81D9
:103330005C81CA01B9010E94515A2D853E854F8595
:1033400058890E94A85DA70196010E94515A0E94C7
:10335000475E6093371A7093381A8093391A9093A6
:103360003A1A95CB92E047CF80913B1A90913C1A44
:10337000A0913D1AB0913E1A10923F1A1092401A35
:103380001092411A1092421A8093371A9093381A69
:10339000A093391AB0933A1A7ACB81E08EAB10CC55
:1033A0002D823D86098B1D8B25CC9E962D913D91BE
:1033B0004D915C91D197C701B6010E94A85D4B0168
:1033C0005C0120E030E040E05FE30E94A85D2FADAB
:1033D00021963FAD2197A3010E94515AA701960162
:1033E0000E94A85D9B01AC016D817D8589899D89C5
:1033F0000E94505A1B018C019B01AC016E897F8990
:10340000888D998D0E94685D181694F52E893F89E4
:10341000488D598D6EA17FA188A599A50E94505A0B
:103420009B01AC010E94515A6B017C012E8D3F8D96
:1034300048A159A16FAD21967FAD2197C3010E948C
:10344000515A9B01AC01C701B6010E94505B6B0150
:103450007C01BEA9B983EE8DEFAFFF8D2196FFAF42
:10346000219768A079A02E883F88088D198D3FCCC0
:10347000A50194016FAD21967FAD2197C3010E94F4
:10348000515A6FAF21967FAF21973C0130CC2E8DE2
:103490003F8D48A159A1C701B6010E94A85D9B01BB
:1034A000AC016D817D8589899D890E94505A1B01DF
:1034B0008C012AA53BA54CA55DA50E94465B87FF14
:1034C00016CC2AA53BA54CA55DA56D817D85898976
:1034D0009D890E94505A2E8D3F8D48A159A10E946E
:1034E000505B6B017C012AA43BA40CA51DA522E026
:1034F0002983FDCB9E962D913D914D915C91D19765
:10350000C701B6010E94A85D4B015C01AC019B01A3
:103510006FAD21967FAD2197C3010E94685D18169B
:103520008CF520E030E040E05FE3C501B4010E948B
:10353000A85D9B01AC016FAD21967FAD2197C301C2
:103540000E94505AA70196010E94A85D9B01AC0100
:103550006D817D8589899D890E94505A1B018C014E
:103560002EA53FA548A959A90E94685D181654F4D4
:10357000A50194016FAD21967FAD2197C3010E94F3
:10358000505A7FCF2EA53FA548A959A96D817D85A9
:1035900089899D890E94505A9B01AC010E94515A11
:1035A0006B017C012BAD3CAD4DAD5EAD6FAD219699
:1035B0007FAD2197C3010E94515A9B01AC01C70105
:1035C000B6010E94505B6B017C01BBADBFAFECAD9F
:1035D0002196EFAF21976DAC7EAC2EA43FA408A935
:1035E00019A985CB2AA93BA94CA95DA9B101C8019C
:1035F0000E94685D18169CF42EE333EC4EE259E30A
:103600006AA17BA18CA19DA10E94515A6AA37BA3B0
:103610008CA39DA32A8D3B8D4C8D5D8D84CB8FAD6E
:1036200021969FAD2197D3018093331A9093341A3A
:10363000A093351AB093361A298120932E1A91CB74
:103640001092F61B1092F71B1092F81B1092F91BA8
:1036500010924C1A10924B1ABDCB20911E1A309129
:103660001F1A4091201A5091211A6A8D7B8D8C8DE2
:103670009D8D0E94515A6D837E838F839887A3010D
:103680009201C501B4010E94505A9B01AC016D81A9
:103690007E818F8198850E94505B4B015C0120ECFC
:1036A00031EE44E65EE40E94A85D0E942F5B0E941A
:1036B000C95BE985FA85E956F74E603D37E0730747
:1036C0008105910508F054C01582E985FA85E9560F
:1036D000F74E73836283809196188093E7188F5F0B
:1036E0008A3009F47BC080939618E0914D1AF091CE
:1036F0004E1AC101D80182AB93ABA4ABB5ABC0925B
:10370000221AD092231AE092241AF092251AA301C9
:103710009201C701B6010E94505AA50194010E946E
:10372000A85D60931E1A70931F1A8093201A9093BD
:10373000211A20912F1A3091301A4091311A50914C
:10374000321AB101C8010E94465B811117C99091DC
:10375000ED1B998320E030E0A901B101C8010E946E
:10376000685D1816F4F5A981A160A093ED1B7BCBD1
:10377000603A4FE074078105910520F551E05583CB
:10378000E985FA85E956F74E2581022E04C0969503
:103790008795779567950A94D2F749815A8102C037
:1037A000440F551F2A95E2F7518340836115710537
:1037B00051E08507910508F488CF8FEF9FEF938341
:1037C000828389CF6034AFE17A078105910518F4CF
:1037D000B2E0B583D5CF23E02583D2CF10929618DF
:1037E00084CFB981B2FF04C0B160B093ED1B3BCB75
:1037F00010924E1A10924D1A9091BB0E809194180F
:10380000891709F4BBC881E0890F843209F480E08C
:103810002091BA0E921302C08093BA0E8093BB0E11
:10382000ADC8019708F40895EFE9FFE03197F1F78B
:1038300000C00000F6CF80916F008D7F80936F00F5
:1038400080918100887F8160809381001092760E44
:103850008091111D9091E91B8F3F49F42091551BD8
:10386000211105C0903829F490E00C94111C94307B
:10387000D9F70895CF93DF930E941B1CECE1FAE186
:1038800081E3DF011D928A95E9F7C7E7DEE083E473
:10389000FE0111928A95E9F710924E1A10924D1A74
:1038A000109295181092E71881E080939618109264
:1038B000760E0E9466058091750E8F8F82B18170A1
:1038C0009091740E892B82B988B181709091750E98
:1038D000892B88B9DF91CF910895AF92BF92DF9283
:1038E000EF92FF920F931F93CF93DF93EC01FC01B4
:1038F00027E08FEF9FEF215019F5E82ED92E85E0B4
:10390000F82E5E0186E0A80EB11C8E01F8018191AF
:103910008F010E94F905A016B106C1F78E2D0E94F5
:10392000F9058D2D0E94F90584E690E00E94111C96
:103930000E94A8058F3FB9F4FA94F110E6CF37C082
:103940003191832748E050E0BC016170772796955C
:103950008795672B21F031E0832730EA9327415088
:10396000510991F7C8CF98819813E2CF0E94A8051A
:1039700099818913DDCF0E94A8059A818913D8CF38
:103980000E94A8059B818913D3CF0E94A8059C8122
:103990008913CECF0E94A8059D818913C9CF0E94AB
:1039A000A805E812C5CF0E94A8058D11C1CFDF91EF
:1039B000CF911F910F91FF90EF90DF90BF90AF904C
:1039C0000895CF93DF9300D000D0CDB7DEB78091BC
:1039D000231D81FF0EC08091A0008F7D8093A000E9
:1039E00026960FB6F894DEBF0FBECDBFDF91CF9104
:1039F000089586E0E9E0F2E0DE01119601900D9273
:103A00008A95E1F7CE0101960E946D1CE9CFCF9215
:103A1000DF92EF92FF92CF93DF9300D000D0CDB72B
:103A2000DEB79091EA1B911110C06A017B018111F0
:103A300019C01092F61B1092F71B1092F81B1092EF
:103A4000F91B0E94E11C1092F41B26960FB6F89405
:103A5000DEBF0FBECDBFDF91CF91FF90EF90DF9023
:103A6000CF9008959091231D9270803181F486E06B
:103A7000EFE0F2E0992381F08091231D81FF17C0D0
:103A8000C701B6010E94FC130E941E05DCCF9111F4
:103A9000F3CF86E0E5E1F2E0DE01119601900D92B0
:103AA0008A95E1F7CE0101960E946D1CE5CF20E0DA
:103AB00030E040EC50E4C701B6010E94505B0E9428
:103AC000C95B81E0898386E08A8380EF8B8388E00D
:103AD0008C837D836E83CE0101960E946D1CB3CFD3
:103AE000E1E0F1E080818061808383E08093A00049
:103AF0008AE18093A10080E094E09093A9008093F4
:103B0000A80020911F1D3091201D4091211D509132
:103B1000221D60911B1D70911C1D80911D1D909197
:103B20001E1D0E94505A9B01AC0160E070EC8FE7B3
:103B300094E40E94505B6093520E7093530E8093F6
:103B4000540E9093550E0C94E11C2F923F924F927D
:103B50005F926F927F928F929F92AF92BF92CF921D
:103B6000DF92EF92FF920F931F93CF93DF93CDB726
:103B7000DEB766970FB6F894DEBF0FBECDBF4C011F
:103B80008DB79EB79E8B8D8B662359F0109244079C
:103B9000E1EDF6E083E7DF011D928A95E9F70E94E7
:103BA000211380911B0290911C02A0911D02B091E3
:103BB0001E02898B9A8BAB8BBC8B8E010F5E1F4FC5
:103BC0007E01B5E1EB0EF11CF80181918F010E949D
:103BD00012060E151F05C1F784E190E00E94111C2A
:103BE000F12CE12CADB6BEB685E090E00E94111C30
:103BF0000E94CF058A3A09F454C08F3F19F0F1E0D2
:103C0000EF1AF1080FB6F894BEBE0FBEADBE9FEF1F
:103C1000E91AF90AA4E6EA16F10421F780911F02D5
:103C200090912002A0912102B091220289839A836F
:103C3000AB83BC838E010F5F1F4F7E01B5E0EB0E9F
:103C4000F11CF80181918F010E9412060E151F05CB
:103C5000C1F790914407E1EDF6E081E08F01911109
:103C6000ADC0ED89FE890FB6F894FEBF0FBEEDBF63
:103C700066960FB6F894DEBF0FBECDBFDF91CF9131
:103C80001F910F91FF90EF90DF90CF90BF90AF907A
:103C90009F908F907F906F905F904F903F902F906C
:103CA00008950E94CF05782E082F10E08DB79EB79B
:103CB000801B910B0FB6F8949EBF0FBE8DBFADB7A2
:103CC000BEB711966D01672DCD010E94B9050C0D8F
:103CD0001D1DF80131978081853509F093CFB5E13D
:103CE0007B1290CFF601048180E13496DE011196BB
:103CF00001900D928A95E1F7D60116962D903D9090
:103D00004D905C9019971091440781ED682E86E0E4
:103D1000782ED12CC12CC11600F1153009F472CFC8
:103D200087E1819FD0011124FD01EF52F94F2082DC
:103D3000318242825382048381E090E0968B858BAE
:103D4000AA52B94F80E1FE01319601900D928A95F9
:103D5000E1F71F5F1093440755CFF30120813181B4
:103D600042815381C201B1010E94465B811113C09F
:103D7000D30114968C9108130EC0B7E1BC9DF001DD
:103D8000BD9DF00D1124EF52F94F8589968901965A
:103D9000968B858B37CFEFEFCE1ADE0AF7E16F0EE9
:103DA000711CB9CF44A555A5D80155962D913C91CC
:103DB00077962417350708F48F018F5F9813F2CF99
:103DC0000115110509F44DCFF801858996894097B1
:103DD00038F080E13596D40101900D928A95E1F793
:103DE000D80114968C910E947A088AE393E00E948D
:103DF000D00BF801608171818281938143E00E9440
:103E00001C078AE393E00E94D00BD80155966D9170
:103E10007C9190E080E00E94FB078AE393E00E949F
:103E2000D00B1FCF2F923F924F925F926F927F9253
:103E30008F929F92AF92BF92CF92DF92EF92FF92BA
:103E40000F931F93CF93DF93CDB7DEB72F970FB6A6
:103E5000F894DEBF0FBECDBF082F4B016DB67EB606
:103E60008CE0E3E2F2E0DE01119601900D928A957A
:103E7000E1F70E94211310E0180184E0220C331CAA
:103E80008A95E1F723E02D872E013DE0430E511C7A
:103E9000F101E257F24EFF87EE8781010157124E82
:103EA0009E012F5F3F4F7901F70181917F010E94B1
:103EB0001206E414F504C1F7F12CE12CF101EE0D2A
:103EC000FF1DE058F24E80810E941206FFEFEF1AAC
:103ED000FF0A2EE0E216F10489F7EE85FF85E08007
:103EE000F8018081FE2CE82EE80CF91C8F2D0E9431
:103EF0001206FE2DFF70EF2E8F2F0E94120685E511
:103F00000E941206EE85FF85F082F801E08284E6C9
:103F100090E00E94111C0E94CF058A3A19F50E9478
:103F2000CF05CDB6DEB6A82EB12C2DB73EB72A19D7
:103F30003B090FB6F8943EBF0FBE2DBFEDB7FEB7DD
:103F400031967F01682FCF010E94B905EA0CFB1C56
:103F5000F70131978081853559F00FB6F894DEBEB0
:103F60000FBECDBEFD85F150FD87F11199CF05C083
:103F70000FB6F894DEBE0FBECDBE0FB6F8947EBE6F
:103F80000FBE6DBE2F960FB6F894DEBF0FBECDBF2D
:103F9000DF91CF911F910F91FF90EF90DF90CF9025
:103FA000BF90AF909F908F907F906F905F904F9059
:103FB0003F902F900895CF93C82F8FED92E00E94ED
:103FC000AD088C2F0E947A080E946E0984EF91E060
:103FD000CF910C94111C4F925F926F927F928F92AF
:103FE0009F92AF92BF92CF92DF92EF92FF920F9388
:103FF0001F93CF93DF938091551B882351F091E05D
:104000009093E91B0E94DB1F8FB7F8941092551B09
:104010008FBFC091541BCC2309F4DBC0C4FF14C074
:1040200081E08093EA1BDF91CF911F910F91FF9068
:10403000EF90DF90CF90BF90AF909F908F907F9048
:104040006F905F904F900895C0FF05C00E94720C62
:1040500081E00E94CC038C2F887E09F46AC0809195
:10406000E91B982F937009F053C08872A9F08091D2
:10407000EB1B807C89F40E94E80482E08093ED1BB6
:104080008091E91B803241F480E2C7FD0CC0809131
:10409000EB1B80688093EB1B8091E91B811103C0AF
:1040A00091E09093EB1BC6FF07C085FD05C0909182
:1040B000EB1B90649093EB1BC3FF05C0807E19F44B
:1040C00080E18093E91BC5FF23C08AE595E00E944B
:1040D000AD088EE195E00E94AD080E948A0B8091A8
:1040E000EB1B87FD10C09091E91B903451F483FFC6
:1040F00004C0837E82608093EB1B80E48093E91B85
:1041000002C09038D1F78091EB1B80628093EB1B4B
:10411000C7FF0CC08091E91B813029F48091EB1B13
:1041200085608093EB1B80E88093E91B88EE0E94FA
:10413000CC03C1FF28C08C2F887611F58091E91B34
:10414000803441F48091EB1B85FD04C084FFF4C0F2
:104150001092E91B8091E91B882309F4F3C084FFC6
:104160000FC09091EB1B90FF0BC0803109F0EAC0AB
:104170008091F31B882309F4E5C088608093F31BCA
:1041800082E00E94CC03C2FF24C09091EB1B80917F
:10419000E91B807D09F4EFC08091EC1B8111EBC01D
:1041A00097FDEBC00E94E8048091BB0E8093BA0E8D
:1041B0000E94280F8091ED1B81FF05C09091EB1BA1
:1041C00091609093EB1B897F8093ED1B84E00E94AC
:1041D000CC039091561B992309F44DC08FB7F894E6
:1041E0001092561B8FBF4091F01B842F90FD84E6E8
:1041F00091FD865F92FD8A5093FD8F5F94FD815003
:10420000893C08F088EC8A3008F48AE03091F11B90
:10421000232F95FD24E696FD22E397FD29E148131F
:1042200002C0231741F18093F01B2093F11B1092E1
:10423000F41B8090BB0E40909418C82D89E9B82ECD
:1042400096E7E92E26E9F22EDEE736E4532EC41176
:10425000AFC08B2D9E2DAF2DBD2F8093CD0690939B
:10426000CE06A093CF06B093D0060E94E8048092B9
:10427000BA0E0E94280F9091571B992309F445C04C
:104280008FB7F8941092571B8FBF2091F21B822F8B
:1042900090FD84E691FD865F92FD8A5093FD8F5FCD
:1042A00094FD8150893C08F088EC8A3008F48AE05B
:1042B000281749F02091ED1B28602093ED1B809377
:1042C000F21B1092F41B8091E91B95FF09C080310D
:1042D00039F42091F31B2111C0C022E02093F31B7D
:1042E000292F207C91F0882311F0887171F0809142
:1042F000661B97FF03C087FFB4C08F7796FF03C08C
:1043000086FFB1C08F7B8093661B8091E91B8C7FF9
:1043100009F489CEDF91CF911F910F91FF90EF901B
:10432000DF90CF90BF90AF909F908F907F906F90D5
:104330005F904F900C949F1482FF0CCF8860809305
:10434000EB1B08CF1092ED1B0E94620C892B71F0C1
:104350008091EB1B86FD0AC01092EB1B88E08093D6
:10436000E91B0E949F140E940C050ACF1092EB1BC0
:104370001092E91B05CF97FF0AC01092ED1B0E9417
:1043800038130E943A1C0E9469120E94DC0B809133
:10439000EB1B85FF08C08F7781608093EB1B80E467
:1043A0008093E91B13CF1092EB1B1092E91B0ECFE9
:1043B000CC2ED12CC59DC00111248454914F0E9454
:1043C000ED0B3B01982EA92E2B2D3E2D4F2D5D2F51
:1043D0000E94685D5C9C80015D9C100D112404545A
:1043E000114F18169CF52B2D3E2D4F2D5D2F6B2D4B
:1043F0007E2D8F2D9D2F0E94A85DF80162A773A7C7
:1044000084A795A75C9C80015D9C100D1124045429
:10441000114FF801C6A8D7A8E0ACF1ACA7019601EE
:1044200062A573A584A595A50E94685D18162CF455
:10443000F801C2A6D3A6E4A6F5A6CF5FC43209F45C
:10444000C0E0B62CE72CF92CDA2D01CF9301492DD1
:104450005A2DB301892D9A2DCECF20FF41CF246054
:104460003DCF80684BCF80644ECFCF92DF92EF92EA
:10447000FF920F931F93CF93DF930E94EB1F8091C6
:10448000EB1B882309F460C00E94620C0097D1F5F1
:10449000C091671B8091661BC82BC090681BD09091
:1044A000691BE0906A1BF0906B1B8091231D81FFBC
:1044B00003C080E20E94B403C073D1E08091EB1B83
:1044C000882309F441C09091EA1B91113DC080FFFF
:1044D00016C09091E91B292F207C09F484C082FD2D
:1044E0001BC01092F31B40E050E0BA0180E00E9434
:1044F000071D8091EB1B8D7F84608093EB1B0E94D6
:10450000EB1FDCCFFC01C1A18E5B9F4FFC01C08083
:10451000D180E280F380C9CF903811F58AE595E02B
:104520000E94AD0885ED94E00E94AD080E948A0BC0
:1045300040E050E0BA0180E00E94071D0E941B1C71
:104540008091EA1B882349F0DF91CF911F910F9151
:10455000FF90EF90DF90CF9008950E94EB1FF0CF77
:10456000903429F4909106018F7D8093EB1B80910C
:10457000EB1B83FFC4CF9091671B992359F081FDFA
:10458000BECF8091231D81FF10C08091ED1B8860FC
:104590008093ED1B8091EB1B81FDB1CF80618093F7
:1045A000EB1B82E00E94D603AACFB701A6018C2F95
:1045B0000E94071D01E510E00150110959F3809197
:1045C000EA1B8111E7CF0E94EB1F8091EB1B81FD5D
:1045D00096CFFFEF20E782E0F15020408040E1F7E6
:1045E00000C00000E9CF8091F31B8823C9F181FF4F
:1045F0000DC08091671B882351F140E050E0BA0163
:1046000080E00E94071DD093F31B79CF8C7009F4D2
:1046100076CF8091671B882399F08AE595E00E9408
:10462000AD088EED94E00E94AD080E948A0B809147
:10463000231D81FF0FC08091ED1B88608093ED1BCF
:104640008091F31B83FF03C082E00E94D603109287
:10465000F31B55CFB701A6018C2F0E94071DF0CF89
:104660008091ED1B83FF4BCFB701A6018C2F0E94D9
:10467000071D8091ED1B877F8093ED1B40CF0E942B
:10468000200F0E9435228091EA1B811108C00E94F0
:10469000620C892BB1F78091E91B883091F3089562
:1046A0000E943F231092F51B0895CF92DF92EF9264
:1046B000FF92CF939091E91B923079F06A017B01D0
:1046C000C82F0E943F23B701A6018C2FCF91FF90E6
:1046D000EF90DF90CF900C94071DCF91FF90EF905B
:1046E000DF90CF9008950F931F93CF93DF938B01AB
:1046F00021E031E0829FE001839FD00D1124DD5F36
:1047000040E051E0BE01C8010E94DF12892B81F414
:10471000F80110820E943F2340E051E0B801CE0131
:104720000E948F1280E0DF91CF911F910F91089529
:1047300081E0F9CF0F931F93CF93C82F8B010E9475
:104740003F232DE1C29FC00111244CE150E0B8018C
:104750009E5FCF911F910F910C948F121F93CF9357
:10476000DF93182FEB018DE1189FB00111247E5FBC
:104770004CE150E0CE010E94DF12892B71F48CE1F4
:10478000FE0111928A95E9F7BE01812F0E949A23BA
:1047900080E0DF91CF911F91089581E0FACF4F9291
:1047A0005F926F927F928F929F92AF92BF92CF92C1
:1047B000DF92EF92FF920F931F93CF93DF93CDB7CA
:1047C000DEB76C970FB6F894DEBF0FBECDBF182FC3
:1047D00080FF31C288E280930E1D89E18093111D14
:1047E00010920F1D82E08093101D8093121D8AE0AD
:1047F00097EDA3E2BCE38093131D9093141DA09347
:10480000151DB093161D8FE692E1A3E0BBE38093E4
:10481000171D9093181DA093191DB0931A1D80E0C9
:1048200090E0AFE7B3E480931B1D90931C1DA09311
:104830001D1DB0931E1D10921F1D1092201D109261
:10484000211D1092221D1092241D80E090E0A8EC02
:10485000B1E48093251D9093261DA093271DB0934E
:10486000281D80E090E0A6E1B4E48093291D909398
:104870002A1DA0932B1DB0932C1D8AEF90E09093DE
:104880002E1D80932D1D80E090E0A0E0B0E4809389
:104890002F1D9093301DA093311DB093321D88E1E0
:1048A0008093231D80E090E0A8ECB3E480939E1CED
:1048B00090939F1CA093A01CB093A11C8093A21C5A
:1048C0009093A31CA093A41CB093A51C8093A61C3A
:1048D0009093A71CA093A81CB093A91C80E090EC17
:1048E000AAE5B5E48093BA1C9093BB1CA093BC1CB2
:1048F000B093BD1C8093BE1C9093BF1CA093C01CA2
:10490000B093C11C8093C21C9093C31CA093C41C81
:10491000B093C51C80E098ECAFEAB9E48093D61C54
:104920009093D71CA093D81CB093D91C8093DA1C09
:104930009093DB1CA093DC1CB093DD1C8093DE1CE9
:104940009093DF1CA093E01CB093E11C80E090E00A
:10495000A8ECB3EC8093F21C9093F31CA093F41C8E
:10496000B093F51C8093F61C9093F71CA093F81C51
:10497000B093F91C8093FA1C9093FB1CA093FC1C31
:10498000B093FD1C80E090E0ACE5B2EC80933C1D60
:1049900090933D1DA0933E1DB0933F1D1092401D6E
:1049A0001092411D1092421D1092431D80E090E034
:1049B000A8E5B2EC8093441D9093451DA093461D3D
:1049C000B093471D8DEC9CECACE8BFEB8093E01DF1
:1049D0009093E11DA093E21DB093E31D86E28093C6
:1049E000E41D1092331D1092341D1092351D10924B
:1049F000361D1092371D1092381D1092391D1092DD
:104A00003A1D10923B1D48E4C42E4DE1D42E5EEDBC
:104A1000E52EFF24FA946DEC462E6CEC562E6CE4D9
:104A2000662E6EEB762E812C912C76EFA72E72ECF3
:104A3000B72EF60141925192619271926F01B701C6
:104A40000F2C000C880B990B0E94FA5BF601648B0B
:104A5000758B868B978B84A695A6A6A6B7A6F3E240
:104A6000EF1AF1088CE0E8168FEFF80611F7E0E98D
:104A7000FDE181E070EC60E453E04AE036E022E3DF
:104A800092E280831182128213827483658316827C
:104A90001782108611865287438734872587868739
:104AA00097877096ADE1E03DFA0759F71092D01D57
:104AB0001092D11D1092D21D1092D31D1092D41DB0
:104AC0001092D51D1092D61D1092D71D1092D81D90
:104AD0001092D91D1092DA1D1092DB1D1092DC1D70
:104AE0001092DD1D87E08093DE1D84E08093DF1D42
:104AF00080E090E0A4EBB3E48093AA1C9093AB1CFD
:104B0000A093AC1CB093AD1C80E090E0AAEFB4E49D
:104B10008093C61C9093C71CA093C81CB093C91C5B
:104B200080E098ECAFEAB8E48093E21C9093E31C39
:104B3000A093E41CB093E51C80E090E0A8E4B3EC03
:104B40008093FE1C9093FF1CA093001DB093011D49
:104B5000812C912C20EAA22E23E4B22E8092AE1C4E
:104B60009092AF1CA092B01CB092B11C40E050E0FB
:104B70006AE775E44093CA1C5093CB1C6093CC1C2D
:104B80007093CD1CC12C38ECD32E3FEAE32E39E4D0
:104B9000F32EC092E61CD092E71CE092E81CF09243
:104BA000E91C8093021D9093031DA093041DB093F4
:104BB000051D8092B21C9092B31CA092B41CB092BE
:104BC000B51CC092EA1CD092EB1CE092EC1CF09257
:104BD000ED1C4093CE1C5093CF1C6093D01C70935F
:104BE000D11C8093061D9093071DA093081DB093C0
:104BF000091D8092B61C9092B71CA092B81CB0926E
:104C0000B91CC092EE1CD092EF1CE092F01CF09206
:104C1000F11C4093D21C5093D31C6093D41C70930E
:104C2000D51C80930A1D90930B1DA0930C1DB0936F
:104C30000D1D0E94CA1211FF0FC0FE0131967F01A7
:104C40008CE111928A95E9F700E0B701802F0E946C
:104C50009A230F5F0830C9F712FF14C060E080E0AC
:104C600093E00E946F1260E081E093E00E946F1277
:104C700060E081E094E00E946F1260E082E094E0E6
:104C80000E946F1213FF0AC060E08EEA93E00E9458
:104C90006F1260E08FEA93E00E946F126C960FB67D
:104CA000F894DEBF0FBECDBFDF91CF911F910F9162
:104CB000FF90EF90DF90CF90BF90AF909F908F903C
:104CC0007F906F905F904F900895EF92FF920F93B7
:104CD0001F93CF93DF93CDB7DEB765970FB6F894E8
:104CE000DEBF0FBECDBFE5E1FE2EEFE2F2E0DE015A
:104CF000119601900D92FA94E1F78230910549F1F5
:104D0000E0F4019709F162307105B1F140F56130CD
:104D1000710571F14230510509F441C098F54130F7
:104D20005105C9F12230310509F457C0F0F52130A1
:104D3000310509F445C01F8657C08330910561F0E5
:104D4000049709F78FEF03C08FEF8E838F838887D7
:104D5000DACF8FEF8F83D7CF8FEF8E83D4CF6330AF
:104D6000710569F08FEF64307105A1F68B87D2CFA2
:104D70008FEF89878A87FACF8FEF8A87CBCF8FEF24
:104D80008987C8CF4330510569F08FEF4430510512
:104D900049F68E87C7CF8FEF8C878D87FACF8FEF3D
:104DA0008D87C0CF8FEF8C87BDCF23303105D1F0F9
:104DB0002430310509F0BFCF1F86188A8FEF03C05A
:104DC0008FEF8F87888B898B02301105E1F170F4AA
:104DD00001301105A9F01A8A3DC01F868FEF888B1C
:104DE000198AF2CF8FEF8F87188AFACF0330110517
:104DF00079F10430110579F71A8A1B8A8FEF03C005
:104E00008FEF8A8B8B8B8C8B8E010F5F1F4F7E01F8
:104E100086E1E80EF11CF80181918F010E94F905ED
:104E20000E151F05C1F784E690E065960FB6F8945D
:104E3000DEBF0FBECDBFDF91CF911F910F91FF90CD
:104E4000EF900C94111C1A8A8FEF8B8B1C8ADCCF8D
:104E50008FEF8A8B1B8AFACFCF93DF93D82FA1983D
:104E6000A19AF894C0EAD13019F580E00E94FA11B5
:104E70008FEF0E94FA1180E00E94FA11C15099F759
:104E800078948CE390E0A0E0B0E08A309105A10531
:104E9000B105E8F425E02A95F1F700000197A10992
:104EA000B1090097A105B10581F7DF91CF91089570
:104EB000D23029F48FEF0E94FA1180E0DACF80E03F
:104EC0000E94FA1180E00E94FA118FEFD5CF25E3FE
:104ED0002A95F1F700000A97A109B109E2CF809164
:104EE000541B84FD20C080E10E94D6030E94E11C77
:104EF0000E9474139091E91B892F8C7221F4809188
:104F0000ED1B867059F0943079F48091551B811116
:104F100003C086E00E94C6030E941B1C81E00E9421
:104F20002C2710920A1C089583E0F4CF3F924F92F1
:104F30005F926F927F928F929F92AF92BF92CF9229
:104F4000DF92EF92FF920F931F93CF93DF93CDB732
:104F5000DEB766970FB6F894DEBF0FBECDBF909157
:104F6000E91B913009F43FC198E0E4E4F2E0DE018E
:104F7000119601900D929A95E1F798E0ECE4F2E039
:104F8000DE01199601900D929A95E1F796E0E4E51D
:104F9000F2E0DE01519601900D929A95E1F7909121
:104FA000591B9093581B8E01075F1F4F882309F4EC
:104FB000A0C0CE0101966C01F60181916F010E94A3
:104FC000F9050C151D05C1F784E690E00E94111C3F
:104FD0000E94A8058F3FE1F722E3D22E5E01F7E1A0
:104FE000AF0EB11C812C38E0932E8E010F5E1F4F47
:104FF000F80181918F010E94F9050A151B05C1F77F
:1050000084E690E00E94111C0E94A8058F3F61F584
:10501000C4018E199F09F1E0EF16F8E0FF0610F0C9
:10502000C70198508436910508F03FC081E0809315
:10503000FF1B88EC90E066960FB6F894DEBF0FBEBB
:10504000CDBFDF91CF911F910F91FF90EF90DF9037
:10505000CF90BF90AF909F908F907F906F905F9018
:105060004F903F900C94111C8E3F71F60E94A80542
:105070008E3F51F60E94A805853031F60E94A805A2
:10508000813011F60E94A805823009F0BDCF0E9440
:10509000A805082F0E94A805182F0E94A8058A3F7E
:1050A00009F0B2CFF02EE12EAFCFDA94D1109DCF20
:1050B00081E08093E91B8AE00E94DB1F0E946F273A
:1050C00066960FB6F894DEBF0FBECDBFDF91CF91CD
:1050D0001F910F91FF90EF90DF90CF90BF90AF9016
:1050E0009F908F907F906F905F904F903F900C9427
:1050F00035224E0181E1880E911C6801F6018191F3
:105100006F010E94F905C814D904C1F784E690E044
:105110000E94111C0E94A8058F3FE1F782E3382E00
:105120002E01F7E14F0E511C96EF692E99E0792E72
:105130005401F50181915F010E94F905A414B504A1
:10514000C1F784E690E00E94111C0E94A8058F3FE1
:10515000B1F4F7EFEF16F9E0FF0680F1C701865FC3
:10516000994084369105D8F51092FF1BF801819182
:105170008F010E94F905C016D106C1F75ACF8E3FA4
:1051800021F70E94A8058E3F01F70E94A8058530EF
:10519000E1F60E94A8058130C1F60E94A805823080
:1051A000A1F60E94A805A82E0E94A805B82E0E946C
:1051B000A8058A3F51F6FA2CEB2CC7CFC3018E19F4
:1051C0009F098436910558F41092FF1BF8018191D4
:1051D0008F010E94F905C016D106C1F72ACF3A9473
:1051E0003110A6CF65CF66960FB6F894DEBF0FBE1E
:1051F000CDBFDF91CF911F910F91FF90EF90DF9086
:10520000CF90BF90AF909F908F907F906F905F9066
:105210004F903F900895CF93C82F81E09C2F9870B6
:10522000C3FF80E08093001C911103C081E00E94C5
:10523000B804C1FB882780F98093081C8091551B16
:10524000811108C0C7FD06C00E946F2781E0CF9181
:105250000C94C603CF9108952F923F924F925F9284
:105260006F927F928F929F92AF92BF92CF92DF9276
:10527000EF92FF920F931F93CF93DF93CDB7DEB7DB
:10528000C658D1090FB6F894DEBF0FBECDBFE99660
:105290007FAF6EAFE997B09094182B2D30E0E39676
:1052A0003FAF2EAFE39726E4B29EA0011124BA01CE
:1052B0006454714FEB967FAF6EAFEB97DB011D929D
:1052C0002A95E9F7E996EEADFFADE9972485DB0174
:1052D00091962C93FB01EE5BFF4FE996AEADBFAD0F
:1052E000E99714964D915D916D917C91179740834C
:1052F00051836283738318964D915D916D917C917A
:105300001B97EB96EEADFFADEB9742A353A364A3BF
:1053100075A321FFE9C12CE1EDECFBE1DE01D9969B
:1053200001900D922A95E1F7E4968FAFE497E59608
:105330009FAFE5972EE93CE1CD57DF4F39832883B6
:10534000C358D040BE01635E7F4FCF57DF4F798394
:105350006883C158D040CE01C996C158DF4F9983A8
:105360008883CF57D040EB96AEADBFADEB97EF96AD
:10537000BFAFAEAFEF974E01B5E58B0E911CED962A
:105380009FAE8EAEED9710E086E4E396EEADFFADF6
:10539000E3978E9F10018F9F300C112491012454AC
:1053A000314F1901B901645E7F4FCB57DF4F7983CD
:1053B0006883C558D04070E2270E311CE596AEAD2B
:1053C000BFADE5976D917D918D919D91E596BFAFB4
:1053D000AEAFE597CD57DF4FE881F981C358D04094
:1053E0004190519061907190CD57DF4FF983E883E0
:1053F000C358D040A30192010E94A85D0E94755D30
:10540000CF57DF4FA881B981C158D0406D937D93AC
:105410008D939D93CF57DF4FB983A883C158D04058
:10542000C158DF4FE881F981CF57D040C190D1906A
:10543000E190F190C158DF4FF983E883CF57D04016
:105440006C197D098E099F099B01AC0197FF07C06C
:1054500022273327A901261B370B480B590BEF9640
:10546000AEADBFADEF972D933D934D935D93EF960A
:10547000BFAFAEAFEF97CB57DF4FE881F981C5588B
:10548000D040C080D180E280F380C216D306E4060B
:10549000F50610F469017A01CB57DF4FA881B98175
:1054A000C558D040CD92DD92ED92FC9213970E94A8
:1054B000FA5BA30192010E94505BED96EEADFFAD49
:1054C000ED976193719381939193ED96FFAFEEAF5A
:1054D000ED9720E030E0A9010E94465B87FF07C0FE
:1054E000812F0E943205D1019C91892B8C931F5FE3
:1054F000173009F063CF80E0CD28CE28CF2809F4FB
:10550000D9C0CE018B5A9F4F0E9490136B017C0132
:1055100086E4E396EEADFFADE3978E9F80018F9F0B
:10552000100D11240454114FD801D296CD92DD9262
:10553000ED92FC92D597BE016B5A7F4F86ED9CE1B0
:105540000E949310F80166A777A780AB91ABBE01CC
:105550006B5A7F4F8AEB9CE10E949310D801DA9638
:105560006D937D938D939C93DD979196AC90025CA7
:105570001F4FA0FEBDC0F8016083718382839383B7
:105580008091BB0EB81611F0A1FECDC086E4E39663
:105590002EAD3FADE397829FF001839FF00D112464
:1055A000E454F14F16A217A210A611A616AA17AA24
:1055B00010AE11AE86E4E396EEADFFADE3978E9F9D
:1055C00080018F9F100D11240454114FD801919622
:1055D0008C9181FD6EC0EB968EAD9FADEB970E94D6
:1055E000ED0B6B017C018090CD069090CE06A090D3
:1055F000CF06B090D006AC019B01C501B4010E945A
:10560000465B87FF6DC1A5019401C501B4010E94ED
:10561000A85DF80162A773A784A795A786E4E3961F
:10562000EEADFFADE3978E9F80018F9F100D11248B
:105630000454114FD801D6968D909D90AD90BC909A
:10564000D997A50194019A966D917D918D919C9128
:105650009D970E94685D18162CF4F80182A693A607
:10566000A4A6B5A6C092CD06D092CE06E092CF06F3
:10567000F092D0068CE1FE01EB5AFF4FA1EBB6E0B1
:1056800001900D928A95E1F78CE1FE017D96A5E9E6
:10569000B6E001900D928A95E1F78091940680938F
:1056A00094188F5F843209F480E0809394060E94FE
:1056B000280F81E0CA57DF4F0FB6F894DEBF0FBE48
:1056C000CDBFDF91CF911F910F91FF90EF90DF90B1
:1056D000CF90BF90AF909F908F907F906F905F9092
:1056E0004F903F902F9008952CE1E5E9F6E016CE1B
:1056F000E996AEADBFADE9972D913D914D915C918D
:10570000A3FC06C0F801208331834283538338CF42
:10571000C701B6010E94A85DD8016D937D938D935A
:105720009C9313972DCF61EB76E0E9967FAF6EAF38
:10573000E9978E010F5F1F4F14017CE1270E311C8A
:10574000C12CD12C76015801E996EEADFFADE99759
:1057500081919191A191B191E996FFAFEEAFE99757
:10576000E7968CAF9DAFAEAFBFAFE797D4014D903A
:105770005D906D907D904D01A3019201E7966CAD17
:105780007DAD8EAD9FADE7970E94A85D9B01AC01FA
:10579000C701B6010E94505A6B017C01E7962CADFF
:1057A0003DAD4EAD5FADE797C301B2010E94505AC7
:1057B000F80161937193819391938F0128143904B7
:1057C00019F62FEE3FEF4FE75FE3C701B6010E94E6
:1057D000685D18166CF486E4E3962EAD3FADE39752
:1057E000829FF001839FF00D1124E454F14FDECE2F
:1057F0002FEE3FEF4FE75FEBC701B6010E94465B1C
:1058000087FF15C086E4E3966EAD7FADE397869F74
:10581000F001879FF00D1124E454F14F89E996E7D8
:10582000A6E9BEE786AB97ABA0AFB1AFC3CEC501CB
:105830000E949013B50186ED9CE10E9493104B01EC
:105840005C01A701960160E070E080E89FE30E94A0
:10585000505A20E030E040E05FE30E94A85D0E94E3
:10586000475E6B017C012091131D3091141D409106
:10587000151D5091161DC501B4010E94A85DA70118
:1058800096010E94A85D4B015C01A701960160E0B2
:1058900070E080E89FE30E94505A9B01AC01C50173
:1058A000B4010E94505B6B017C0120E030E0A90153
:1058B0000E94465B87FF03C0C12CD12C760186E491
:1058C000E396AEADBFADE3978A9FF0018B9FF00DDD
:1058D0001124E454F14FC6AAD7AAE0AEF1AE6ACEC5
:1058E000A7019601C701B6010E94A85DD8019A964A
:1058F0006D937D938D939C939D9790CEAF92BF9225
:10590000CF92DF92EF92FF920F931F93CF93DF938B
:10591000CDB7DEB7A9970FB6F894DEBF0FBECDBFE7
:105920009091E91B913009F47EC0182F0E943F230B
:105930000E94B0040E94C2118091EA1B811173C0C1
:105940005E018DE1A80EB11C8DE0F50111928A95E2
:10595000E9F786E089A720E030E040E450EC609170
:10596000021D7091031D8091041D9091051D0E94E0
:10597000A85D6B017C0120E030E0A9010E94465B3C
:1059800087FF03C0C12CD12C76016DEC7BE1CE01E9
:1059900001960E9474041092DD1B1092DE1B10927F
:1059A000DF1B1092E01B112309F44EC0C98ADA8A6A
:1059B000EB8AFC8A80E48093EF1B80E090E0A8E40F
:1059C000B2E48D8F9E8FAF8FB8A3B501CE01019643
:1059D0000E942C2984E08093ED1B0E949F140E945A
:1059E0000C0500E4112311F07D9B00E00093EF1BF8
:1059F0000E949F148091541B847309F457C0109126
:105A0000541B14FF03C086E00E94C60315FF03C0A9
:105A100087E00E94C6038091551B882311F10E94E4
:105A20006F270E943522A9960FB6F894DEBF0FBEED
:105A3000CDBFDF91CF911F910F91FF90EF90DF903D
:105A4000CF90BF90AF9008958091E01D9091E11D9F
:105A5000A091E21DB091E31D898B9A8BAB8BBC8B1F
:105A6000A9CF84E00E94CC030E943A1C80912D1D96
:105A700090912E1D0E94111C1092DD1B1092DE1BB6
:105A80001092DF1B1092E01B1092ED1B0E9435223A
:105A90008091EA1B8111C7CF0E9469120E94DC0B22
:105AA0000E94CD110E943F235F98BDCF01119ACF74
:105AB000DBCFEF92FF921F93CF93DF93EC017B013B
:105AC0008091231D85FF26C01091E91B103231F112
:105AD00080915E1B8C38F0F4CE010E94DF03882396
