:020000040000FA
:100000000C9471020C9492020C9492020C94920241
:100010000C9492020C9492020C9492020C94920210
:100020000C9492020C9430450C9492020C944E3F26
:100030000C94BE440C94183F0C9492020C949202BF
:100040000C9492020C94833F0C9492020C949202B2
:100050000C9492020C9492020C9492020C946D3FB8
:100060000C9492020C94ED430C9493440C949202E1
:100070000C9492020C9492020C9492020C949202B0
:100080000C9492020C9492020C9492020C944643AB
:100090000C94C5430C949A430C9492020C949202D3
:1000A0000C9492020C9492020C9492020C94920280
:1000B0000C9492020C9492020C9492020C9445457A
:1000C0000C9492020C9492020C9492020C9482432F
:1000D0000C9457430C9492020C9492020C9492024A
:1000E0000C949202084AD73B3BCE016E84BCBFFD04
:1000F000C12F3D6C74319ABD56833DDA3D00C77FF8
:1001000011BED9E4BB4C3E916BAAAABE0000008090
:100110003F05A84CCDB2D44EB93836A9020C50B91F
:10012000918688083CA6AAAA2ABE000000803F004B
:100130000C94A5500C94CF500C9475440C94114C15
:100140000C949E4B0C94292E0C949B500C94F54BC4
:100150000C94BA500C9440440C9457320C940E51A9
:100160000C948B300C94ED4B0C945F440C947D44B8
:100170000C9498500C94BB4B0C9428510C94E55063
:100180000C944A320C9490500C94E54B0C946744B8
:100190000C9471440C94A3300C94C74B0C94C6502F
:1001A0000C94DB500C94B9490C9405510C9479448F
:1001B0000C94AA4B0C9456300C941D510C94AD30F9
:1001C0000C94014C0C9457440C946D300C946D4479
:1001D0000C947B440C948A500C94D94B0C94FC5096
:1001E0000C94FB4B0C9465440C94CD4B0C946F44D5
:1001F0000C94BD500C9431510C9459440C94774498
:100200000C94AD500C9469440C94FB2F0C942F303B
:100210000C94F1500C9493500C94B7300C94074C00
:100220000C9414510C9463440C94B34B0C9481447F
:100230000C9449300C9499300C943C300C946B44E1
:100240000C9487300C9464320C94F9500C947F44D5
:100250000C9460300C947A300D0A005374617274FF
:1002600020746F6F6C2073657474696E67000D0A7B
:10027000006E6F77546F6F6C3A00244E005B4F50E6
:10028000543A005B5645523A312E31652E323031A8
:1002900037303131343A005B5A706F733A005B5437
:1002A0004C4F3A005B4739323A0033300032380065
:1002B0005B4700204700204D0020530020460020CF
:1002C000540033382E005B47433A47000D0A005371
:1002D0007461727420746F6F6C2073657474696ECE
:1002E00067000D0A005D005B746F6F6C537461747E
:1002F00075733A20007D0D0A00273A007B27746F42
:100300006F6C005D7D0D0A002C007B27746F6F6C95
:1003100044617461273A5B00416C61726D3A00532D
:100320006C656570696E6700526573746F72696E93
:1003300067207370696E646C6500526573746F72C8
:10034000696E672064656661756C74730050726FC6
:100350006772616D20656E64656400436865636BF8
:10036000206C696D69747300436865636B20646F0A
:100370006F720044697361626C656400456E61620E
:100380006C65640043617574696F6E3A20556E6CDC
:100390006F636B656400506C6561736520756E6C8E
:1003A0006F636B00506C6561736520526573657493
:1003B000005B4D53473A000D0A005BE68EA2E992BE
:1003C000883A00312E302E32005B76657273696F89
:1003D0006E3A007C46533A007C4C6E3A007C426692
:1003E0003A007C473A007C4D3A007C533A007C420C
:1003F000463A007C53463A007C41463A007C4C3AEF
:10040000007C433A007C44523A007C443A007C54DD
:10041000443A007C523A007C52573A007C4C573A9E
:10042000007C5246543A007C4C46543A007C53546B
:100430003A007C463A007C543A007C57506F733A3D
:10044000007C4D506F733A00536C65657000446FCB
:100450006F723A00436865636B00416C61726D00B6
:10046000486F6D696E67004D6F76696E6700506109
:10047000757365004D6F76696E67005265616479CA
:10048000006572726F723A005D002C002C002C0027
:100490002C002C002C002C006E756C6C5D002774F9
:1004A0006872656164272C002764696C6C272C00D6
:1004B00027636F6E65272C002762616C6C272C0008
:1004C00027656E646D696C6C272C005B000D0A005B
:1004D0006265666F7265546F6F6C3A006F6B0D0AE0
:1004E000000011241FBECFEFD1E2DEBFCDBF00E080
:1004F0000CBF13E0A0E0B2E0E2EBF2EB00E00BBFD8
:1005000002C007900D92A237B107D9F728E1A2E700
:10051000B3E001C01D92AD3AB207E1F70E949346E5
:100520000C9457590C9400002F923F924F925F9277
:100530006F927F928F929F92AF92BF92CF92DF92F3
:10054000EF92FF920F931F93CF93DF93CDB7DEB758
:100550002E970FB6F894DEBF0FBECDBF4B015C01E6
:100560007A0120E030E0A9010E94975210E087FF55
:1005700005C0B7FAB094B7F8B09411E0C501B40162
:100580000E941A536B877C878D879E87112331F0D9
:100590008DE2F7018083C70101967C016B857C8524
:1005A0008D859E858E010F5F1F4F68013AE0232ED7
:1005B000312C412C512C3801EFEF6E1A7E0AA2012A
:1005C00091010E943056605DF8016083B901CA0153
:1005D0008301611571058105910569F7D701F30163
:1005E000CE16DF06E1F583010C191D090F5F1F4FC1
:1005F0000E0D1F1D6B857C858D859E850E94495340
:100600009B01AC01C501B4010E94A15193012C19B9
:100610003D09E20EF31E2EE2F7012083680124E07B
:10062000F22EFA94F1101EC0F80113822E960FB626
:10063000F894DEBF0FBECDBFDF91CF911F910F9118
:10064000FF90EF90DF90CF90BF90AF909F908F90F2
:100650007F906F905F904F903F902F900895829180
:100660008D93BECF20E030E040E251E40E94F95487
:100670004B015C010E94135320E3260FF6012193E6
:100680006F01072E000C880B990B0E944B539B01A6
:10069000AC01C501B4010E94A151C3CF882361F010
:1006A000813061F0823061F0833061F0843061F03C
:1006B000853061F082E0089584E0089588E008952F
:1006C00080E1089580E2089580E4089580E8089527
:1006D0002FB7F8949091A515892B8093A5152FBF5E
:1006E00008952FB7F8949091A415892B8093A415A1
:1006F0002FBF08959FB7F8948093A8159FBF0895C2
:100700009FB7F8942091A915809582238093A9150D
:100710009FBF08952FB7F8949091A915892B8093C6
:10072000A9152FBF08954F925F926F927F928F927B
:100730009F92AF92BF92CF92DF92EF92FF920F9370
:100740001F93CF93DF938090FD16912C2BECA22E5C
:1007500026E1B22E8C01D0E0C0E0F501C190D1902D
:10076000E190F1905F0120E030E0A901C701B601FE
:100770000E949752882381F1F80140805180628065
:100780007380C4010C2E02C0959587950A94E2F7F8
:1007900020E030E0A90180FF11C0C301B2010E9436
:1007A000975287FD09C0C701B6019058A301920175
:1007B0000E94975287FF10C081E016C0C301B201AA
:1007C0000E94B9541816C4F3A3019201C701B601DF
:1007D0000E94B954181684F321960C5F1F4FC7303E
:1007E000D10509F0BACF80E0DF91CF911F910F9131
:1007F000FF90EF90DF90CF90BF90AF909F908F9041
:100800007F906F905F904F9008958F929F92AF92DC
:10081000BF92CF92DF92EF92FF920F931F93CF93ED
:10082000DF93EB0127E7E22E26E1F22E8C016B012C
:100830008CE1C80ED11C6991799189919991F70148
:1008400081909190A190B1907F010E944B53A5019E
:1008500094010E94A152F801619371938193919345
:100860008F01CC15DD0539F7DF91CF911F910F91E5
:10087000FF90EF90DF90CF90BF90AF909F908F90C0
:1008800008958A9A0895CF93DF93C0919F15D091D0
:10089000A0152097C9F080916F15816080936F1526
:1008A00060918515709186158091871590918815B6
:1008B0009B01AC010E94F9546EA37FA388A799A75E
:1008C0001092A01510929F15DF91CF910895E9EC39
:1008D000F9E08091C609868F8091E7168250990BC6
:1008E000880F8195858FEFE6F0E0808182608083BC
:1008F00008952091FC1621FF0BC09093AB008093CC
:10090000AA00892B31F48091A0008F7D8093A000F4
:1009100008958091A0008062F9CF882361F0813032
:1009200061F0823061F0833061F0843061F08530B5
:1009300061F082E0089580E8089580E4089580E2FF
:10094000089580E1089588E0089584E00895AF92C5
:10095000BF92CF92DF92EF92FF920F931F93CF93AC
:10096000DF93E090E816F12CC090E916D12CD0E08E
:10097000C0E010E000E0BC2EAC2EC7010C2E02C07F
:10098000959587950A94E2F780FF04C08C2F0E940A
:100990004E03082BC60102C095958795AA94E2F7ED
:1009A00080FF04C08B2D0E948D04182B2196C73028
:1009B000D10509F70093C6091093C709DF91CF91BC
:1009C0001F910F91FF90EF90DF90CF90BF90AF906D
:1009D00008952091A209DC0180E0861301C00895EA
:1009E0009091A1092917D9F3E92FF0E0EF55F74FBE
:1009F00030813D938F5F9F5F9093A109EECF9091DF
:100A0000A1098091A209891749F0E92FF0E0EF557B
:100A1000F74F80819F5F9093A10908958FEF08950C
:100A2000E0919F0791E09E0F2091A008291761F0A7
:100A3000F0E0E056F84F808390939F078091D100BB
:100A400080628093D10004C02091A91524FFECCFCF
:100A50000895E0919B0691E09E0F20919C07291735
:100A600061F0F0E0E456F94F808390939B0680910B
:100A7000C90080628093C90004C02091A91524FF99
:100A8000ECCF0895E0919704DC0180E091E09E0FA7
:100A900020919805291308C0E09397049091C10014
:100AA00090629093C10008952D91F0E0E856FB4FBD
:100AB00020838F5FE92F6813E9CFEECFE091970491
:100AC00091E09E0F20919805291761F0F0E0E8561B
:100AD000FB4F8083909397048091C1008062809344
:100AE000C10004C02091A91524FFECCF08951092F5
:100AF000A8099091FC1697FD03C09CE09093A8096B
:100B0000882331F08091A8099CE089278093A80967
:100B100008958F929F92AF92BF92CF92DF92EF9201
:100B2000FF920F931F93CF93DF93CDB7DEB72D972F
:100B30000FB6F894DEBF0FBECDBF6B017C01042F52
:100B400020E030E0A9010E94975287FF07C08DE2A4
:100B50000E945E05F7FAF094F7F8F094102F123027
:100B600008F054C000FF0AC020E030E040E251E449
:100B7000C701B6010E94F9546B017C0120E030E00E
:100B800040E05FE3C701B6010E94A2510E941353E7
:100B900010E03AE0832E912CA12CB12CE12FF0E053
:100BA0006115710581059105E9F581E090E08C0FF3
:100BB0009D1FE80FF91F80E3101708F445C01013BC
:100BC00009C0E1E0F0E0EC0FFD1FE10FF11D80E353
:100BD00080831F5FEE24E394F12CEC0EFD1EE10EEA
:100BE000F11C111134C02D960FB6F894DEBF0FBE64
:100BF000CDBFDF91CF911F910F91FF90EF90DF90CC
:100C0000CF90BF90AF909F908F90089520E030E0FC
:100C100048EC52E4C701B6010E94F9546B017C0113
:100C200012509DCFEE24E394F12CEC0EFD1EEE0E3F
:100C3000FF1EA50194010E943056605DF70160839C
:100C4000B901CA011F5FAACF1F5F8193B5CF1013EF
:100C500003C08EE20E945E05F70182917F010E942F
:100C60005E051150BECF2091FC1640E020FF07C06A
:100C70002BE832E441E25DE30E94F95441E00C9438
:100C800089052091FC1643E020FF07C02BE832E4E1
:100C900041E25DE30E94F95444E00C9489050F930E
:100CA0001F93CF938C01C0E0F80161917191819104
:100CB00091918F010E944106C33019F08CE20E948D
:100CC0005E05CF5FC43081F7CF911F910F910895DA
:100CD0008F929F92AF92BF92CF92DF92EF92FF924C
:100CE0000F931F93CF93DF9300D000D000D01F92BB
:100CF000CDB7DEB76115710581059105A9F480E3D3
:100D00002A960FB6F894DEBF0FBECDBFDF91CF910C
:100D10001F910F91FF90EF90DF90CF90BF90AF9019
:100D20009F908F900C945E0500E09E012F5F3F4FD7
:100D300079012AE0822E912CA12CB12C6701C00EE2
:100D4000D11CA50194010E943056F6016083B901BF
:100D5000CA010F5F611571058105910579F70E0DC7
:100D60001F2D111DE016F10699F42A960FB6F8947E
:100D7000DEBF0FBECDBFDF91CF911F910F91FF90CE
:100D8000EF90DF90CF90BF90AF909F908F9008959D
:100D9000F80182918F01805D0E945E05E3CFCF92C2
:100DA000DF92EF92FF9297FF0CC06B017C018DE206
:100DB0000E945E0566277727CB016C197D098E0995
:100DC0009F09FF90EF90DF90CF900C946806CF932F
:100DD000DF93843658F06AE00E940256C0E3C90FE0
:100DE0006AE00E940256D0E3D90F04C0C0E0D0E010
:100DF0008A30B0F7805D0E945E05DD2319F08D2FEB
:100E00000E945E05CC2329F08C2FDF91CF910C94AA
:100E10005E05DF91CF910895CF93DF93EC01FE0142
:100E200084912196811103C0DF91CF9108950E9492
:100E30005E05F5CF2F923F924F925F926F927F9215
:100E40008F929F92AF92BF92CF92DF92EF92FF92DA
:100E50000F931F93CF93DF93EC01188129803A847D
:100E6000CB84DC840D85EE84FF84FE24EF24FE24F5
:100E70006C817D81762767277627072E000C880BEB
:100E8000990B0E944B534B015C016885798576274D
:100E900067277627072E000C880B990B0E944B536F
:100EA0002B013C018BEC94E00E940C07133009F4F9
:100EB00067C050F4113009F460C088EB94E0123040
:100EC00051F088E994E045C0143009F45CC08EE923
:100ED00094E01530B1F70E940C07822D0E94E706BE
:100EE00086E994E00E940C0742E0C501B4010E942B
:100EF000890584E994E00E940C0742E0C301B20135
:100F00000E94890582E994E00E940C07832D0E94CB
:100F1000E70680E994E00E940C078C2D0E94E7060A
:100F20008EE894E00E940C078D2D0E94E7068CE865
:100F300094E00E940C07802F0E94E7068AE894E064
:100F40000E940C07B70190E080E00E94680688E8E4
:100F500094E0DF91CF911F910F91FF90EF90DF9080
:100F6000CF90BF90AF909F908F907F906F905F9049
:100F70004F903F902F900C940C0780EC94E0ABCFF7
:100F800080EB94E0A8CF88EA94E0A5CF87EB93E0CC
:100F90000C940C07CF93C82F81E894E00E940C07B3
:100FA0008C2F0E94E706CF910C94C607882321F06E
:100FB000823031F00C94CA078CED94E00C940C074D
:100FC0000895CF92DF92EF92FF92CF93DF93D82FC5
:100FD0006A017B01C22F84E20E945E058D2F0E9470
:100FE000E7068DE30E945E054C2FC701B6010E9403
:100FF0008905DF91CF91FF90EF90DF90CF900C9417
:10100000C607EF92FF920F931F93CF93DF9305E1F3
:1010100017E1C2EDD0E0EE24E394EC0E82E0F82E6E
:10102000FC0EF801D130C9F0D230F1F0408151818D
:101030006281738123E08C2F0E94E107DF5FD33050
:1010400081F7CD5F0C5F1F4FC43E21F7DF91CF9139
:101050001F910F91FF90EF900895408D518D628DFB
:10106000738D23E08E2DE8CF40A951A962A973A901
:1010700023E08F2DE1CFCF93DF93D82FC62F84E2CB
:101080000E945E058D2F0E94E7068DE30E945E059B
:101090008C2F0E94E706DF91CF910C94C607EF9248
:1010A000FF920F931F93CF93DF936091E71670E049
:1010B00080E00E943B086091EA1670E081E00E94A7
:1010C0003B086091E81670E082E00E943B08609166
:1010D000E91670E083E00E943B086091FC1662FB19
:1010E000662760F970E084E00E943B086091FC167E
:1010F00066FB662760F970E085E00E943B088091FE
:10110000FC16082E000C990B692F661F6627661FB8
:1011100070E086E00E943B086091EB1670E08AE088
:101120000E943B084091EC165091ED166091EE162E
:101130007091EF1623E08BE00E94E1074091F016DA
:101140005091F1166091F2167091F31623E08CE045
:101150000E94E1076091FC16617070E08DE00E94D2
:101160003B086091FC1665FB662760F970E084E13E
:101170000E943B086091FC1663FB662760F970E0F3
:1011800085E10E943B086091FC166295617070E0F9
:1011900086E10E943B086091FD1670E087E10E94A5
:1011A0003B084091FE165091FF1660910017709118
:1011B000011723E088E10E94E10740910217509156
:1011C0000317609104177091051723E089E10E94CD
:1011D000E10760910617709107178AE10E943B08AA
:1011E000409108175091091760910A1770910B17D9
:1011F00023E08BE10E94E1074091F4165091F5162F
:101200006091F6167091F71620E08EE10E94E107DA
:101210004091F8165091F9166091FA167091FB16EC
:1012200020E08FE10E94E1076091FC1666956170F5
:1012300070E080E20E943B0894E6F92E10E0C7E7D8
:10124000D6E100E0E02EEF0C123009F461C013305B
:1012500009F46BC0113009F456C0488159816A8184
:101260007B8123E08E2D0E94E1070F5F24960730DB
:1012700049F78AE0F80E1F5FECE8FE12E0CF6091BC
:101280000C1770E088EC0E943B0840910D175091BC
:101290000E1760910F177091101723E089EC0E94D0
:1012A000E107409111175091121760911317709137
:1012B000141723E08AEC0E94E10705E117E1C2ED73
:1012C000D0E0EE24E394EC0E82E0F82EFC0EF80160
:1012D000D130A1F1D230C9F1408151816281738155
:1012E00023E08C2F0E94E107DF5FD33081F7CD5FD1
:1012F0000C5F1F4FC43E21F7DF91CF911F910F91DB
:10130000FF90EF9008954C8D5D8D6E8D7F8DA9CFF0
:1013100020E030E041E655E468AD79AD8AAD9BADA3
:101320000E94A152AB01BC019CCFFE01EC5AFF4FC1
:101330004081518162817381705893CF408D518D6E
:10134000628D738D23E08E2DCDCF40A951A962A966
:1013500073A923E08F2DC6CF8DE50E945E050C9406
:10136000C60789EC93E00E940C0783EC93E00E948F
:101370000C070C94AC09CF93DF93CDB7DEB76C9715
:101380000FB6F894DEBF0FBECDBF8AEB93E00E948C
:101390000C0769EA79E0CE0101960E940504CE01AE
:1013A00001960E944F068AE30E945E058091CF1548
:1013B0000E94E7068CE20E945E0560911117709111
:1013C000121780911317909114170E9441060E94E2
:1013D000AC096C960FB6F894DEBF0FBECDBFDF919F
:1013E000CF910895CF93DF93EC018991811103C0D0
:1013F000DF91CF9108950E945E05F7CFEAEAF5E10B
:10140000A0EEB3E041915191619171914D935D9343
:101410006D937D9385E1E63CF807A1F70895BF92AF
:10142000CF92DF92EF92FF920F931F93CF93DF93B0
:101430007C01FC01FE9600811181D281C381FC01F7
:1014400081A180FF33C06091D21570E090E080E010
:101450000E944B532AE037ED43E25CE30E94F954CB
:101460009B01AC01B8018D2F9C2F0E94F9548B0178
:10147000D82FC92F20E030E040E85FE3B8018D2F7E
:101480009C2F0E94B954181624F000E010E0D0E818
:10149000CFE3B8018D2F9C2FDF91CF911F910F913A
:1014A000FF90EF90DF90CF90BF90089582FD17C01E
:1014B0006091D11570E090E080E00E944B532AE0EB
:1014C00037ED43E25CE30E94F9549B01AC01B801A3
:1014D0008D2F9C2F0E94F9548B01D82FC92FF70113
:1014E000B2ACC3ACD4ACF5AC98014D2F5C2F6B2DD6
:1014F0007C2D8D2D9F2D0E94975287FFBBCF0B2DEA
:101500001C2DDD2DCF2DB6CF80910D0A9091E613C5
:10151000981739F026E4829FC0011124825F954F0D
:10152000089590E080E008954F925F926F927F92CD
:101530008F929F92AF92BF92CF92DF92EF92FF92E3
:101540000F931F93CF93DF93CDB7DEB7C057D10969
:101550000FB6F894DEBF0FBECDBF8CE1EAEAF5E12D
:10156000DE01119601900D928A95E1F7BE016F5F41
:101570007F4FCE014D960E940504BE016F5F7F4FE5
:10158000CE01C9960E9405048CE30E945E058091FD
:10159000CA15883009F431C108F015C1813009F449
:1015A00035C108F425C1823009F433C1843009F40F
:1015B0002AC18091EB16282F2170E22E80FF42C1B4
:1015C0008091D615882309F43DC181E494E00E94FE
:1015D0000C07CE014D960E944F068AE394E00E94CC
:1015E0000C07CE01C9960E944F0686E394E00E9444
:1015F0000C0780910C170E94E70682E394E00E949A
:101600000C076091360470913704809138049091F2
:1016100039040E9433068DE294E00E940C07609129
:101620001C0470911D0480911E0490911F040E945F
:10163000330687E294E00E940C07609120047091C9
:10164000210480912204909123040E94330681E2B8
:1016500094E00E940C07609124047091250480910D
:101660002604909127040E9433068CE194E00E94A6
:101670000C076091E71570E090E080E00E9449530C
:101680000E94330687E194E00E940C076091E81500
:1016900070E090E080E00E9449530E94330683E1AD
:1016A00094E00E940C076091DF1570E090E080E00C
:1016B0000E9449530E9433068EE094E00E940C077A
:1016C0006091E01570E090E080E00E9449530E9434
:1016D00033068AE094E00E940C076091E11570E007
:1016E00090E080E00E9449530E94330685E094E038
:1016F0000E940C076091E91570E090E080E00E9484
:1017000049530E94330681E094E00E940C076091E7
:10171000E21570E090E080E00E9449530E94330699
:101720008DEF93E00E940C076091E31570E090E06C
:1017300080E00E9449530E94330688EF93E00E94A4
:101740000C076091E41570E090E080E00E9449533E
:101750000E94330683EF93E00E940C076091E61528
:1017600070E090E080E00E9449530E9433068EEEC4
:1017700093E00E940C076091E51570E090E080E036
:101780000E9449530E9433068AEE93E00E940C07A0
:101790006091320470913304809134049091350447
:1017A00040E00E94890586EE93E00E940C0780913C
:1017B0003104803109F498C0803209F425C18111C7
:1017C00096C085E392C08032D9F050F4803109F0A0
:1017D000F0CE8091CC1587FD13C08EE694E00AC050
:1017E0008034D1F0803809F0E4CE88E494E002C07F
:1017F0008BE794E00E940C07DCCE84E794E0FACFFC
:1018000087E694E0F7CF80E694E0F4CF8AE594E0B1
:10181000F1CF84E594E0EECF8EE494E00E940C07D3
:101820008091CC1583FF04C083E30E945E05C1CE86
:1018300082FF06C085FF02C081E3F7CF80E3F5CFCA
:1018400082E3F3CF40909304509094046090950409
:10185000709096048BE5A82E84E0B82E6E0185E585
:10186000C80ED11C8E01075C1F4FF12C4601F501FB
:1018700061917191819191915F01208D318D428DA6
:10188000538D0E94A251F6016193719381939193BC
:101890006F01F2E0FF1225C0A30192010E94A25144
:1018A000F4016087718782879387E11016C0F60183
:1018B00034972081318142815381F80160817181A7
:1018C000828193810E94A151F80160837183828398
:1018D0009383F6E0FF1609F478CEF3940C5F1F4F64
:1018E000C6CFEE2021F3F5CF83E30E945E0582EEA2
:1018F00093E00E940C0780912E048A5C0E94E70608
:101900008091EB1681FF1EC08DED93E00E940C07C5
:101910009091E61380910D0A981708F477C08D5DB9
:10192000891B0E94E7068CE20E945E058091990661
:1019300090919A06981708F46BC0981B892F809590
:101940000E94E7060E94840A009791F0FC01C2A061
:10195000D3A0E4A0F5A0C114D104E104F10441F046
:1019600088ED93E00E940C07C701B6010E94CF06E4
:1019700083ED93E00E940C078091CA158C7709F4DF
:101980004AC0609185157091861580918715909158
:1019900088150E9433068CE20E945E056091D7157F
:1019A0007091D8158091D9159091DA1540E00E9478
:1019B00089058091D615882391F181508093D615A1
:1019C0008091D5158823E1F181508093D5158EE360
:1019D0000E945E050E94C607C059DF4F0FB6F894FB
:1019E000DEBF0FBECDBFDF91CF911F910F91FF9052
:1019F000EF90DF90CF90BF90AF909F908F907F90AF
:101A00006F905F904F90089584E36FCF815088CF9F
:101A10008150891B95CF60E070E0CB01BACF8091F7
:101A2000CA158C7759F08DE18093D6158091D51524
:101A30008111C6CF81E08093D515C2CF89E0F4CF64
:101A40008091CA158C7711F083E1BFCF89E0BDCFBB
:101A50000E94840A892B19F082E00C948A0308956D
:101A60002F923F924F925F926F927F928F929F92AE
:101A7000AF92BF92CF92DF92EF92FF920F931F939C
:101A8000CF93DF9300D01F92CDB7DEB70091E6135E
:101A9000002309F486C009833981315039831091BC
:101AA0000C0A131709F466C0C32ED12CE6E43E9F3E
:101AB000C00111249C01225F354F7901F90172A404
:101AC00083A494A4A5A466A577A580A991A99B0148
:101AD000AC010E94A251F70122A933A944A955A93A
:101AE0000E94F954B62EE72EF82E9B83262F372F0F
:101AF000482F592F672D782D892D9A2D0E949752A6
:101B000087FF03C0B72C7401AB8286E48C9DF00183
:101B10008D9DF00D1124E25FF54F8B2D9E2DAF2D85
:101B2000BB8186A397A3A0A7B1A7F9818F2FF1113D
:101B300001C084E2FF24FA94F80E30900D0A1F11C0
:101B400033C0131102C00E944304E6E41E9FC0018B
:101B50001124825F954F9A83898333243394310E05
:101B6000F4E23F1201C0312C86E4282E031185C017
:101B700010930C0A0F900F900F900F90DF91CF9160
:101B80001F910F91FF90EF90DF90CF90BF90AF909B
:101B90009F908F907F906F905F904F903F902F908D
:101BA000089524E2298378CF298186E4289F900133
:101BB0001124225F354F3C832B8326E4E22E8F2CA9
:101BC000912CFE9CC0011124FC01E25FF54FFA83C9
:101BD000E983F11002C094E2F92EFA94F31002C0E6
:101BE0000E944304E89CC001E99C900D11249C01D3
:101BF000225F354F6901F90142A453A464A475A47E
:101C0000A301920166A177A180A591A50E94975298
:101C1000882339F1F60166A577A580A991A99B01D2
:101C2000AC010E94A251F60122A933A944A955A9E9
:101C30000E94F954EB81FC8126A137A140A551A552
:101C40000E94A2514B015C01AC019B01C301B20196
:101C50000E94B954F60118165CF486A297A2A0A6B9
:101C6000B1A629813A813C832B831F11A8CF6DCF68
:101C700046A257A260A671A6F4CFC32CD12C329CE9
:101C8000C00111249C01225F354F7901E981FA815D
:101C900046A057A060A471A4F90186A097A0A0A4B3
:101CA000B1A4A5019401C301B2010E94975287FF1C
:101CB00026C0E981FA8166A577A580A991A99B0133
:101CC000AC010E94A251E981FA8122A933A944A959
:101CD00055A90E94F954A30192010E94A2512B011F
:101CE0003C01AC019B01C501B4010E94B954181616
:101CF00034F4F70146A257A260A671A6132D2C9CBE
:101D0000F0012D9CF00D1124E25FF54F22A533A5C3
:101D100044A555A566A177A180A591A50E949752DB
:101D2000811101C0132D3394F4E23F1201C0312C14
:101D3000FA82E9821BCF6F927F928F929F92AF922D
:101D4000BF92CF92DF92EF92FF920F931F93CF93A8
:101D5000DF93EB018C015B018CE1A80EB11C89E9DA
:101D6000682E96E7792E26E9822E3EE7932EC990BB
:101D7000D990E990F99020E030E0A901C701B601BF
:101D80000E9497528823B9F0A7019601F80160815B
:101D90007181828193810E94A1526B017C01E89440
:101DA000F7F89301A401C701B6010E94B9541816AF
:101DB00014F0360147010C5F1F4FCA15DB05B9F659
:101DC000B301C401DF91CF911F910F91FF90EF906C
:101DD000DF90CF90BF90AF909F908F907F906F904B
:101DE00008954F925F926F927F92AF92BF92CF927F
:101DF000DF92EF92FF920F931F93CF93DF936C01CB
:101E0000FB015A01A081A80FB92FB11D8C91ED01E2
:101E10008D3249F5229611968C9101E0512C612C5E
:101E200010E020E030E0A9017E0190ED792E780EDF
:101E300089E0871528F16394A8E0A615E8F0511011
:101E40001150A5E0B0E00E945A569B01AC01220F50
:101E5000331F441F551F270D311D411D511D219654
:101E6000D7018C91E1CF8B3219F0219600E0D6CFCB
:101E7000229611968C91FACF5110F1CF1F5FEFCFC0
:101E8000BEEF7B1205C0511003C055245394E7CF19
:101E9000662009F17F01CA01B9010E9449532B0153
:101EA0003C0120E030E0A9010E94975281112EC030
:101EB000002309F448C077FA709477F87094F5011C
:101EC0004082518262827382CC19DD09C150F701D0
:101ED000C08366246394862DDF91CF911F910F916B
:101EE000FF90EF90DF90CF90BF90AF907F906F907A
:101EF0005F904F9008952AE037ED43E25CE3C30121
:101F0000B2010E94F9542B013C011E5F1F3F9CF35C
:101F10001F3F59F42DEC3CEC4CEC5DE3C301B201E6
:101F20000E94F9542B013C01C3CF112309F220E098
:101F300030E040E251E4C301B2010E94F9542B01A8
:101F40003C011150F2CFD5014D925D926D927C9281
:101F50001397BACF93B18091FC1686FF9095992381
:101F600099F094FB882780F995FD826096FD846046
:101F7000292F247092FD886091FD8061211180627B
:101F800093FF03C08064089580E00895EBE6F0E0DD
:101F900080811082E8E6F0E080818E7F8083089562
:101FA00084B114B8809107018B7F809307018091E1
:101FB000080184608093080185B18FEF85B9909105
:101FC000FC1693FF15C090916B0080936B0080917D
:101FD000680081608093680084B7877F84BF8091A8
:101FE000600088618093600081E0809360000895C4
:101FF0000E94C60FF1CF27E030E090E0AC01022E46
:1020000002C0559547950A94E2F7A09A40FF11C087
:1020100000000000000000000000000000000000C0
:1020200000000000A098000000002150310930F7A6
:10203000089500000000A0980000000000000000CB
:10204000000000000000000000000000EECF27E0CC
:1020500030E090E0AC01022E02C0559547950A94FD
:10206000E2F740FF1AC040910B01406440930B011E
:102070000000000000000000000000000000000060
:102080000000000040910B014F7B40930B010000CA
:10209000000021503109F0F6089540910B01406491
:1020A00040930B010000000040910B014F7B4093D7
:1020B0000B01000000000000000000000000000014
:1020C000000000000000E5CFCF93DF93D82F862FCC
:1020D000C42F0E9427108D2F0E9427108C2FDF9174
:1020E000CF910C942710811103C08098889A08958D
:1020F000813019F43898409A08956D98759A08952A
:10210000811102C0809A0895813011F4389A08959F
:102110006D9A08956AEA75E18FE394E00C940504E2
:10212000F894F999FECF92BD81BD81E08FBB20B5B7
:10213000862F8227082E000C990B50E086239523CA
:10214000892B49F084E16F3F11F060BD84E08FBBC3
:10215000F99A789408952617E1F360BD84E2F7CFE9
:102160009F92AF92BF92CF92DF92EF92FF920F9326
:102170001F93CF93DF935C018A017B01E40EF51E70
:10218000EB01912C6C01C61AD70ACE018C0D9D1D56
:1021900021E0911007C0292D990C330B232F221F0A
:1021A0002227221F6991962E920E0E949010CE1522
:1021B000DF0559F7692DC501800F911FDF91CF9180
:1021C0001F910F91FF90EF90DF90CF90BF90AF9055
:1021D0009F900C9490106AE090E080E00E94901034
:1021E00046E351E067E776E181E090E00C94B010BF
:1021F000F999FECF92BD81BD81E08FBB80B5089576
:102200009F92AF92BF92CF92DF92EF92FF920F9385
:102210001F93CF93DF935B018A017C01E40EF51ECF
:10222000EC01912C6B01C81AD90AC6018C0F9D1FB5
:102230000E94F81021E0911007C0292D990C330B52
:10224000232F221F2227221F982E920E8993CE150C
:10225000DF0559F7C501800F911F0E94F81021E09A
:1022600030E0891511F030E020E0C901DF91CF9115
:102270001F910F91FF90EF90DF90CF90BF90AF90A4
:102280009F9008958A9889980895A29889988A9825
:102290008F98A5987398E2E0F1E080818F7D80832C
:1022A00080818F7B808310988B985F988081877F57
:1022B000808308959A9A819A829A879A9D9A6B9AB6
:1022C000E1E0F1E0808188608083808180628083AA
:1022D000808180648083089A839A579A0C94451170
:1022E000E9ECF0E080818F7E808380818061808353
:1022F0008091A2098093A109E1EAF8E080E091E0F1
:10230000DF019C011D9221503040E1F70895E0EE7D
:10231000F3E08CE3DF011D928A95E9F710920D0A34
:102320001092E61381E08093DF0310920C0A089567
:102330004F925F926F927F92AF92BF92CF92DF9255
:10234000EF92FF920F931F93CF93DF93EC015C0109
:102350002CE1A20EB11C8C01C12CD12C7601F8010C
:1023600041905190619071908F0120E030E0A9017F
:10237000C301B2010E949752882371F0A301920118
:10238000C301B2010E94F9549B01AC01C701B6011F
:102390000E94A2516B017C010A151B0501F7C701C0
:1023A000B6010E9498556B017C01AC019B0160E075
:1023B00070E080E89FE30E94A1522B013C016991EB
:1023C0007991899199915E01F4E0AF1AB108A30166
:1023D00092010E94F954F501608371838283938393
:1023E000C017D10761F7C701B601DF91CF911F91E7
:1023F0000F91FF90EF90DF90CF90BF90AF907F90C4
:102400006F905F904F9008954F925F926F927F927E
:102410008F929F92AF92BF92CF92DF92EF92FF92F4
:102420006B017C018090F8169090F916A090FA1636
:10243000B090FB164090F4165090F5166090F6168A
:102440007090F716A3019201C501B4010E94B9541E
:1024500087FF1BC06091D31570E090E080E00E9480
:102460004B532AE037ED43E25CE30E94F954A701A5
:1024700096010E94F9546B017C01AC019B01C301E0
:10248000B2010E9497521816BCF04092D715509294
:10249000D8156092D9157092DA1580E094E0FF901B
:1024A000EF90DF90CF90BF90AF909F908F907F90F4
:1024B0006F905F904F900895A7019601C501B401F8
:1024C0000E94B95487FD1FC020E030E0A901C70178
:1024D000B6010E94975281110BC01092D71510922D
:1024E000D8151092D9151092DA1590E080E0D7CF68
:1024F0008092D7159092D815A092D915B092DA157E
:1025000081E090E0CCCFC092D715D092D815E09260
:10251000D915F092DA15A5019401C701B6010E9400
:10252000A1512091A4093091A5094091A60950918B
:10253000A7090E94F9540E94865320E030E040E849
:102540005FE30E94A2510E941A53CB01A8CF2F92A1
:102550003F924F925F926F927F928F929F92AF9233
:10256000BF92CF92DF92EF92FF920F931F93CF9380
:10257000DF93CDB7DEB7C054D1090FB6F894DEBFF4
:102580000FBECDBF8091CE1580FD75C29091E7132F
:102590008091E813981709F46EC280919F1590916D
:1025A000A015892B09F07EC01091CE1512FF7DC2B7
:1025B0008091E61326E4829FC0011124825F954F2B
:1025C0009093A01580939F1540919F155091A01551
:1025D0005E834D83452B09F44EC200916F1500FFB9
:1025E00067C210926F151092811510928215109289
:1025F000831510928415AD81BE819E962D913D91DB
:102600004D915C91D19729833A834B835C8360E041
:1026100070E080E09FE30E94A15269877A878B87F0
:102620009C87ED81FE8142A853A864A875A886A066
:1026300097A0A0A4B1A411FF29C3F2E0F0938015E4
:10264000A50194010E94F9549B01AC01C301B201A0
:102650000E94A1516B017C0120E030E0A9010E94A1
:10266000975287FF02C329813A814B815C81CA015D
:10267000B9010E94A251A30192010E94F9549B0149
:10268000AC01C501B4010E94A1510E94985560930C
:102690008D1570938E1580938F15909390151860FB
:1026A0001093CE15E0913914F8E0EF9FD00111247A
:1026B000BA87A987FD01E751FC4E80916E1584838E
:1026C00040909F155090A015D201D296BC91BEA308
:1026D000F201F3A9FFA3D201D496BC91B8A7F201ED
:1026E000F5A9F9A720917C1530917D1540917E15B3
:1026F00050917F156EA17FA18B2F9F2F0E94A1511A
:102700006AAB7BAB8CAB9DAB20E030E0A9010E94B3
:10271000975287FF04C01AAA1BAA1CAA1DAA2091BF
:1027200091152E8B309192153F8B40919315488FC8
:1027300050919415598F809189158E8F90918A159B
:102740009F8FA0918B15A8A3B0918C15B9A3E09190
:102750009515EAA7F0919615FBA7209197152CA740
:10276000309198153DA7409185154FAF5091861532
:1027700021965FAF219760908715709088158091A2
:1027800080158983909181159EA7A0918215AFA78E
:10279000B0918315B8ABE0918415E9ABF0918D153C
:1027A000FBAF20918E152CAF30918F153DAF40912E
:1027B00090154EAF2AA53BA54CA55DA56E897F89D6
:1027C000888D998D0E9497528111EFC352E05EABC4
:1027D0009EA19D83AFA1AD87B8A5B98BE9A5ED8B6F
:1027E0008EE3C82E83ECD82E8EE2E82E89E3F82EF5
:1027F0001A8E1B8E1C8E1D8EA70196012AA33BA349
:102800004CA35DA33981313009F449C4D201313080
:1028100008F4D3C3333009F075C49E962D913D91D1
:102820004D915C91D197C701B6010E94F9544B01BB
:102830005C0120E030E040E05FE30E94F9549B013E
:10284000AC016FAD21967FAD2197C3010E94A151CC
:10285000A70196010E94F9546FAB78AF89AF9AAF88
:102860009B01AC016D817D8589899D890E94A15163
:102870001B018C012E893F89488D598D0E949752EA
:1028800087FD0CC020E030E0A9016FA978AD89ADCB
:102890009AAD0E94975218160CF472C42E893F8983
:1028A000488D598D6EA17FA188A599A50E94A1513F
:1028B0009B01AC010E94A2516B017C012E8D3F8DCA
:1028C00048A159A16FAD21967FAD2197C3010E9408
:1028D000A2519B01AC01C701B6010E94A1526B013C
:1028E0007C01BE8DBFAFEF8D2196EFAF219768A021
:1028F00079A02E883F88088D198DF1E0F983A70112
:1029000096016A8D7B8D8C8D9D8D0E94A2516A8F60
:102910007B8F8C8F9D8F2AA13BA14CA15DA10E9432
:10292000975287FF67C42A8D3B8D4C8D5D8D6AA1C0
:102930007BA18CA19DA10E94A1516B017C01910101
:10294000A8016EA57FA588A999A90E94975287FD25
:102950002FC38FAD21969FAD2197D301809385150D
:1029600090938615A0938715B0938815F981F093FD
:102970008015E0913A14F0913B1481A1811104C0BB
:102980009091CE1593FF33C0D20191969C91907394
:1029900009F45EC4F201EE5BFF4FC080D180E2809B
:1029A000F3808823B9F02091991530919A154091C0
:1029B0009B1550919C156FAD21967FAD2197C3015A
:1029C0000E94F9549B01AC01C701B6010E94F95461
:1029D0006B017C01C701B6010E94041290939E1501
:1029E00080939D158091CE15877F8093CE15809121
:1029F0009D1590919E15E985FA85E751FC4EFE8361
:102A0000ED839783868320917815309179154091D5
:102A10007A1550917B15B101C8010E94F9542B0120
:102A20003C010E9480526B017C0160917415709191
:102A3000751580917615909177150E9480524B0103
:102A40005C01A70196010E94A1510E941A5369835B
:102A50007A838B839C83E981FA81AD81BE81ED937A
:102A6000FC93EF2B09F001C48091CE1581FFFDC3CB
:102A700081608093CE15C05CDF4F0FB6F894DEBF47
:102A80000FBECDBFDF91CF911F910F91FF90EF90BF
:102A9000DF90CF90BF90AF909F908F907F906F907E
:102AA0005F904F903F902F9008950E94840A88CDA8
:102AB00080916E158F5F893009F480E080936E15E8
:102AC000282F30E052E2859FC0011124DC01A45C74
:102AD000BB4E7D01B0933B14A0933A14ED81FE816F
:102AE00080A190968C9390E080E04191519161910A
:102AF0007191D701A80FB91F689412F8440F551FA0
:102B0000661F771F1694D1F74D935D936D937C9359
:102B1000139704968C31910541F7AD81BE815C9687
:102B20006D917D918D919C915F97B2E2B29FA001D2
:102B3000B39F500D1124FA01E45CFB4E4B015C0184
:102B400023E0880C991CAA1CBB1C2A95D1F7848E03
:102B5000958EA68EB78E0E9449536093741570931C
:102B600075158093761590937715ED81FE8122A9D6
:102B700033A944A955A90E94A1529B01AC012093FD
:102B800078153093791540937A1550937B1560E052
:102B900070E080EA9FE30E94A15260937C157093DD
:102BA0007D1580937E1590937F151092701510926D
:102BB0007115109272151092731511FD02C003FF6A
:102BC00043C060918D1570918E1580918F159091F5
:102BD0009015609385157093861580938715909353
:102BE00088159B01AC010E94F954AD81BE81969677
:102BF0006D937D938D939C939997077F00936F15A9
:102C0000D70191961C928091FC1681FFECCCED814E
:102C1000FE8181A185FFE7CCFE9620813181428132
:102C2000538160E070E080E89FE30E94A1526093CE
:102C3000991570939A1580939B1590939C15E1E0DC
:102C4000D7019196EC93CFCCED81FE8166A177A15F
:102C500080A591A50E94985560938515709386155F
:102C60008093871590938815CBCFC0928115D09211
:102C70008215E0928315F092841510928D151092B2
:102C80008E1510928F151092901509CD1092801507
:102C900040929115509292156092931570929415EE
:102CA00012FF6AC010928D1510928E1510928F151A
:102CB00010929015C12CD12C76018D819E810E949D
:102CC0000F0A698B7A8B8B8B9C8B9B01AC010E94CA
:102CD000F9546D837E838F839887A50194010E94A8
:102CE000975287FF93C02D813E814F815885C50142
:102CF000B4010E94A15129853A854B855C850E94CB
:102D0000F9549B01AC01C301B2010E94A15160932F
:102D1000911570939215809393159093941520E0DC
:102D200030E0A9010E94975218160CF449C032E015
:102D30003093801529813A814B815C81CA01B901A8
:102D40000E94A251A30192010E94F9549B01AC017F
:102D5000C501B4010E94A1510E94985560938D1540
:102D600070938E1580938F159093901580916F15A9
:102D7000886080936F1593CCE0910D0AEF5FE43289
:102D800009F4E0E08091E613C12CD12C76018E1776
:102D900051F026E42E9FF0011124E25FF54FC6A00A
:102DA000D7A0E0A4F1A4C701B6010E949855609392
:102DB0008D1570938E1580938F15909390157DCF00
:102DC000A70196016D817E818F8198850E94A15116
:102DD00029853A854B855C850E94F9546093951549
:102DE00070939615809397159093981589899A8971
:102DF000AB89BC898093891590938A15A0938B1514
:102E0000B0938C1593E09093801549CCA70196015F
:102E1000C501B4010E94A15129853A854B855C8585
:102E20000E94F954A30192010E94A25120E030E0D7
:102E300040E05FE30E94F9546D877E878F87988B0F
:102E400020E030E0A9010E94B95418160CF094C09B
:102E5000A30192016D857E858F8598890E94975286
:102E600087FF88C0A70196016D817E818F8198853B
:102E70000E94A15129853A854B855C850E94F954B1
:102E80009B01AC01209395153093961540939715AF
:102E9000509398156D857E858F8598890E94B954C9
:102EA0001816BCF529893A894B895C8920938915C4
:102EB00030938A1540938B1550938C15A50194017E
:102EC0006D817E818F8198850E949752811104C007
:102ED00031E030938015E3CBA50194016D817E81B3
:102EE0008F8198850E94A15129853A854B855C8503
:102EF0000E94F9549B01AC01C301B2010E94A1518F
:102F000060939115709392158093931590939415F7
:102F1000C6CB8D859E85AF85B8898093911590939A
:102F20009215A0939315B093941580939515909353
:102F30009615A0939715B093981529813A814B81E6
:102F40005C81CA01B9010E94A2512D853E854F8541
:102F500058890E94F954A70196010E94A2510E942B
:102F600098556093891570938A1580938B1590936B
:102F70008C1595CB92E047CF80918D1590918E1551
:102F8000A0918F15B09190151092911510929215F5
:102F900010929315109294158093891590938A1529
:102FA000A0938B15B0938C157ACB81E08EAB10CCAF
:102FB0002D823D86098B1D8B25CC9E962D913D91B2
:102FC0004D915C91D197C701B6010E94F9544B0114
:102FD0005C0120E030E040E05FE30E94F9542FAD57
:102FE00021963FAD2197A3010E94A251A70196010E
:102FF0000E94F9549B01AC016D817D8589899D8971
:103000000E94A1511B018C019B01AC016E897F893B
:10301000888D998D0E94B954181694F52E893F8990
:10302000488D598D6EA17FA188A599A50E94A151B7
:103030009B01AC010E94A2516B017C012E8D3F8D42
:1030400048A159A16FAD21967FAD2197C3010E9480
:10305000A2519B01AC01C701B6010E94A1526B01B4
:103060007C01BEA9B983EE8DEFAFFF8D2196FFAF36
:10307000219768A079A02E883F88088D198D3FCCB4
:10308000A50194016FAD21967FAD2197C3010E94E8
:10309000A2516FAF21967FAF21973C0130CC2E8D8E
:1030A0003F8D48A159A1C701B6010E94F9549B0167
:1030B000AC016D817D8589899D890E94A1511B018B
:1030C0008C012AA53BA54CA55DA50E94975287FFC0
:1030D00016CC2AA53BA54CA55DA56D817D8589896A
:1030E0009D890E94A1512E8D3F8D48A159A10E941A
:1030F000A1526B017C012AA43BA40CA51DA522E0D2
:103100002983FDCB9E962D913D914D915C91D19758
:10311000C701B6010E94F9544B015C01AC019B014F
:103120006FAD21967FAD2197C3010E94B954181647
:103130008CF520E030E040E05FE3C501B4010E947F
:10314000F9549B01AC016FAD21967FAD2197C3016E
:103150000E94A151A70196010E94F9549B01AC0164
:103160006D817D8589899D890E94A1511B018C01FA
:103170002EA53FA548A959A90E94B954181654F480
:10318000A50194016FAD21967FAD2197C3010E94E7
:10319000A1517FCF2EA53FA548A959A96D817D8555
:1031A00089899D890E94A1519B01AC010E94A25175
:1031B0006B017C012BAD3CAD4DAD5EAD6FAD21968D
:1031C0007FAD2197C3010E94A2519B01AC01C701B1
:1031D000B6010E94A1526B017C01BBADBFAFECAD4B
:1031E0002196EFAF21976DAC7EAC2EA43FA408A929
:1031F00019A985CB2AA93BA94CA95DA9B101C80190
:103200000E94B95418169CF42EE333EC4EE259E3B5
:103210006AA17BA18CA19DA10E94A2516AA37BA35C
:103220008CA39DA32A8D3B8D4C8D5D8D84CB8FAD62
:1032300021969FAD2197D301809385159093861594
:10324000A0938715B093881529812093801591CB81
:103250001092D7151092D8151092D9151092DA1530
:1032600010929E1510929D15BDCB20917015309136
:10327000711540917215509173156A8D7B8D8C8DEF
:103280009D8D0E94A2516D837E838F839887A301B9
:103290009201C501B4010E94A1519B01AC016D8155
:1032A0007E818F8198850E94A1524B015C0120ECA8
:1032B00031EE44E65EE40E94F9540E9480520E947E
:1032C0001A53E985FA85E751FC4E603D37E07307F4
:1032D0008105910508F054C01582E985FA85E7510A
:1032E000FC4E738362838091E813809339148F5F5F
:1032F0008A3009F47BC08093E813E0919F15F09128
:10330000A015C101D80182AB93ABA4ABB5ABC09201
:103310007415D0927515E0927615F0927715A30189
:103320009201C701B6010E94A151A50194010E941A
:10333000F954609370157093711580937215909382
:10334000731520918115309182154091831550910C
:103350008415B101C8010E949752811117C990913B
:10336000CE15998320E030E0A901B101C8010E9487
:10337000B9541816F4F5A981A160A093CE157BCBA2
:10338000603A4FE074078105910520F551E05583BF
:10339000E985FA85E751FC4E2581022E04C09695F9
:1033A0008795779567950A94D2F749815A8102C02B
:1033B000440F551F2A95E2F751834083611571052B
:1033C00051E08507910508F488CF8FEF9FEF938335
:1033D000828389CF6034AFE17A078105910518F4C3
:1033E000B2E0B583D5CF23E02583D2CF1092E81386
:1033F00084CFB981B2FF04C0B160B093CE153BCB8E
:103400001092A01510929F1590910D0A8091E613CD
:10341000891709F4BBC881E0890F843209F480E080
:1034200020910C0A921302C080930C0A80930D0A1B
:10343000ADC8019708F40895EFE9FFE03197F1F77F
:1034400000C00000F6CF80916F008D7F80936F00E9
:1034500080918100887F8160809381001092C809EB
:103460008091EA169091CA158F3F49F42091A815D2
:10347000211105C0903829F490E00C94191A943069
:10348000D9F70895CF93DF930E94231AEEE6F5E172
:1034900081E3DF011D928A95E9F7C9ECD9E083E465
:1034A000FE0111928A95E9F71092A01510929F15CE
:1034B0001092E7131092391481E08093E813109270
:1034C000C8090E94A7048091C7098F8F82B18170BB
:1034D0009091C609892B82B988B181709091C709F2
:1034E000892B88B9DF91CF910895EF92FF920F93C6
:1034F0001F93CF93DF93EC01FC0127E08FEF9FEF49
:103500002150D9F48C017E0186E0E80EF11C8991EE
:103510000E941005EC16FD06D1F7802F0E941005C1
:10352000812F0E94100582E390E0DF91CF911F91DF
:103530000F91FF90EF900C94191A3191832748E076
:1035400050E0BC016170772796958795672B21F035
:1035500031E0832730EA93274150510991F7D0CFCA
:10356000CF93DF9300D000D0CDB7DEB78091FC16AB
:1035700081FF0EC08091A0008F7D8093A0002696D1
:103580000FB6F894DEBF0FBECDBFDF91CF91089587
:1035900086E0E9E0F2E0DE01119601900D928A9555
:1035A000E1F7CE0101960E94751AE9CFCF92DF9222
:1035B000EF92FF92CF93DF9300D000D0CDB7DEB76C
:1035C0009091CB15911110C06A017B01811119C036
:1035D0001092D7151092D8151092D9151092DA15AD
:1035E0000E94B01A1092D51526960FB6F894DEBF39
:1035F0000FBECDBFDF91CF91FF90EF90DF90CF90C6
:1036000008959091FC169270803181F486E0EFE08D
:10361000F2E0992381F08091FC1681FF17C0C70169
:10362000B6010E9404120E947904DCCF9111F3CFFD
:1036300086E0E5E1F2E0DE01119601900D928A95B7
:10364000E1F7CE0101960E94751AE5CF20E030E047
:1036500040EC50E4C701B6010E94A1520E941A53E7
:1036600081E0898386E08A8380EF8B8388E08C8386
:103670007D836E83CE0101960E94751AB3CFE1E07F
:10368000F1E080818061808383E08093A0008AE103
:103690008093A10080E094E09093A9008093A8001B
:1036A0002091F8163091F9164091FA165091FB16B8
:1036B0006091F4167091F5168091F6169091F716B8
:1036C0000E94A1519B01AC0160E070EC8FE794E493
:1036D0000E94A1526093A4097093A5098093A60942
:1036E0009093A7090C94B01A2F923F924F925F9239
:1036F0006F927F928F929F92AF92BF92CF92DF9202
:10370000EF92FF920F931F93CF93DF93CDB7DEB766
:103710002F970FB6F894DEBF0FBECDBF082F4B0119
:103720002DB73EB73F872E878CE0EBE1F2E0DE015C
:10373000119601900D928A95E1F70E94701110E0A8
:10374000180184E0220C331C8A95E1F733E03D87B1
:103750002E018DE0480E511C81010959194E380186
:1037600094EF690E711C0B501F4F9E012F5F3F4F4E
:103770007901F70181917F010E942905E414F50484
:10378000C1F7F12CE12CF101EE0DFF1DE35BF84ECA
:1037900080810E942905FFEFEF1AFF0A2EE0E21652
:1037A000F10489F7F301E080F8018081FE2CE82E16
:1037B000E80CF91C8F2D0E942905FE2DFF70EF2EBD
:1037C0008F2F0E94290585E50E942905F301F082CB
:1037D000F801E08284E690E00E94191A0E94FF043A
:1037E0008A3A19F50E94FF04CDB6DEB6A82EB12C98
:1037F0002DB73EB72A193B090FB6F8943EBF0FBE4E
:103800002DBFEDB7FEB731967F01682FCF010E9423
:10381000E904EA0CFB1CF70131978081853559F0EA
:103820000FB6F894DEBE0FBECDBEFD85F150FD870C
:10383000F1119BCF05C00FB6F894DEBE0FBECDBE12
:103840008E859F850FB6F8949EBF0FBE8DBF2F96B5
:103850000FB6F894DEBF0FBECDBFDF91CF911F91A1
:103860000F91FF90EF90DF90CF90BF90AF909F901F
:103870008F907F906F905F904F903F902F90089522
:103880005F926F927F928F929F92AF92BF92CF92F0
:10389000DF92EF92FF920F931F93CF93DF9300D0AD
:1038A00000D000D01F921F92CDB7DEB74C016DB68D
:1038B0007EB68BE0E7E2F2E0DE01119601900D9218
:1038C0008A95E1F70E94701183E0582E5E012CE08A
:1038D000A20EB11C8E010F5F1F4FF80181918F0165
:1038E0000E942905A016B106C1F784E690E00E9467
:1038F000191A0E94FF048A3A09F04BC00E94FF0483
:10390000CDB6DEB6082F10E02DB73EB7201B310B29
:103910000FB6F8943EBF0FBE2DBFEDB7FEB7319680
:103920007F01682FCF010E94E9040E0D1F1DF801D1
:1039300031978081853541F5F701369680E1D401D4
:1039400001900D928A95E1F70FB6F894DEBE0FBE96
:10395000CDBE0FB6F8947EBE0FBE6DBE2B960FB6D1
:10396000F894DEBF0FBECDBFDF91CF911F910F91B5
:10397000FF90EF90DF90CF90BF90AF909F908F908F
:103980007F906F905F9008950FB6F894DEBE0FBEE3
:10399000CDBE5A9451109ECFDCCF4F925F926F9262
:1039A0007F928F929F92AF92BF92CF92DF92EF92CF
:1039B000FF920F931F93CF93DF93C091A815CC2351
:1039C00049F181E08093CA1588E193E00E940C07D9
:1039D0008C2F0E94E7060E94C60784EF91E00E94A8
:1039E000191AC150C23088F481EB93E00E940C0791
:1039F00084EA93E00E940C070E94AC0980E10E94D7
:103A000080038091A91584FFFCCF8FB7F8941092A2
:103A1000A8158FBFC091A915CC2309F4DBC0C4FF42
:103A200014C081E08093CB15DF91CF911F910F914E
:103A3000FF90EF90DF90CF90BF90AF909F908F90CE
:103A40007F906F905F904F900895C0FF05C00E94D7
:103A5000940A81E00E9480038C2F887E09F46AC05A
:103A60008091CA15982F937009F053C08872A9F0FD
:103A70008091CC15807C89F40E94430482E080937D
:103A8000CE158091CA15803241F480E2C7FD0CC08A
:103A90008091CC1580688093CC158091CA158111D6
:103AA00003C091E09093CC15C6FF07C085FD05C00B
:103AB0009091CC1590649093CC15C3FF05C0807E87
:103AC00019F480E18093CA15C5FF23C081EB93E010
:103AD0000E940C0788E693E00E940C070E94AC0944
:103AE0008091CC1587FD10C09091CA15903451F487
:103AF00083FF04C0837E82608093CC1580E4809332
:103B0000CA1502C09038D1F78091CC15806280939D
:103B1000CC15C7FF0CC08091CA15813029F4809163
:103B2000CC1585608093CC1580E88093CA1588EE0B
:103B30000E948003C1FF28C08C2F887611F58091E8
:103B4000CA15803441F48091CC1585FD04C084FFF2
:103B5000F4C01092CA158091CA15882309F4F3C0E5
:103B600084FF0FC09091CC1590FF0BC0803109F0FD
:103B7000EAC08091D415882309F4E5C08860809359
:103B8000D41582E00E948003C2FF24C09091CC151E
:103B90008091CA15807D09F4EFC08091CD15811107
:103BA000EBC097FDEBC00E94430480910D0A809307
:103BB0000C0A0E94300D8091CE1581FF05C09091B6
:103BC000CC1591609093CC15897F8093CE1584E0BD
:103BD0000E9480039091A415992309F44DC08FB7DA
:103BE000F8941092A4158FBF4091D115842F90FDA9
:103BF00084E691FD865F92FD8A5093FD8F5F94FD70
:103C00008150893C08F088EC8A3008F48AE03091D1
:103C1000D215232F95FD24E696FD22E397FD29E199
:103C2000481302C0231741F18093D1152093D21578
:103C30001092D51580900D0A4090E613C82D89E9A1
:103C4000B82E96E7E92E26E9F22EDEE736E4532E6B
:103C5000C411AFC08B2D9E2DAF2DBD2F80931804A6
:103C600090931904A0931A04B0931B040E94430478
:103C700080920C0A0E94300D9091A515992309F4A9
:103C800045C08FB7F8941092A5158FBF2091D3151A
:103C9000822F90FD84E691FD865F92FD8A5093FD10
:103CA0008F5F94FD8150893C08F088EC8A3008F4DD
:103CB0008AE0281749F02091CE1528602093CE1570
:103CC0008093D3151092D5158091CA1595FF09C020
:103CD000803139F42091D4152111C0C022E0209305
:103CE000D415292F207C91F0882311F0887171F070
:103CF0008091300497FF03C087FFB4C08F7796FF91
:103D000003C086FFB1C08F7B809330048091CA15B9
:103D10008C7F09F489CEDF91CF911F910F91FF9095
:103D2000EF90DF90CF90BF90AF909F908F907F905B
:103D30006F905F904F900C94A71282FF0CCF886019
:103D40008093CC1508CF1092CE150E94840A892B3F
:103D500071F08091CC1586FD0AC01092CC1588E0D8
:103D60008093CA150E94A7120E9467040ACF10927E
:103D7000CC151092CA1505CF97FF0AC01092CE1528
:103D80000E9487110E94421A0E948A100E94FE0916
:103D90008091CC1585FF08C08F7781608093CC150A
:103DA00080E48093CA1513CF1092CC151092CA15D7
:103DB0000ECFCC2ED12CC59DC0011124825F954F12
:103DC0000E940F0A3B01982EA92E2B2D3E2D4F2D20
:103DD0005D2F0E94B9545C9C80015D9C100D1124E4
:103DE000025F154F18169CF52B2D3E2D4F2D5D2F84
:103DF0006B2D7E2D8F2D9D2F0E94F954F80162A707
:103E000073A784A795A75C9C80015D9C100D11246D
:103E1000025F154FF801C6A8D7A8E0ACF1ACA70126
:103E2000960162A573A584A595A50E94B95418169C
:103E30002CF4F801C2A6D3A6E4A6F5A6CF5FC4323F
:103E400009F4C0E0B62CE72CF92CDA2D01CF930150
:103E5000492D5A2DB301892D9A2DCECF20FF41CF68
:103E600024603DCF80684BCF80644ECFCF92DF92ED
:103E7000EF92FF920F931F93CF93DF930E94CD1C7D
:103E80008091CC15882309F460C00E94840A0097B1
:103E9000D1F5C091310480913004C82BC090320418
:103EA000D0903304E0903404F09035048091FC16F7
:103EB00081FF03C080E20E946803C073D1E080915B
:103EC000CC15882309F441C09091CB1591113DC0C8
:103ED00080FF16C09091CA15292F207C09F484C058
:103EE00082FD1BC01092D41540E050E0BA0180E082
:103EF0000E94D61A8091CC158D7F84608093CC155A
:103F00000E94CD1CDCCFFC01C1A18E5B9F4FFC0148
:103F1000C080D180E280F380C9CF903811F581EB69
:103F200093E00E940C078FE193E00E940C070E942F
:103F3000AC0940E050E0BA0180E00E94D61A0E942D
:103F4000231A8091CB15882349F0DF91CF911F91DF
:103F50000F91FF90EF90DF90CF9008950E94CD1CBD
:103F6000F0CF903429F4909106018F7D8093CC1589
:103F70008091CC1583FFC4CF90913104992359F0DF
:103F800081FDBECF8091FC1681FF10C08091CE15BF
:103F900088608093CE158091CC1581FDB1CF806172
:103FA0008093CC1582E00E948A03AACFB701A601B4
:103FB0008C2F0E94D61A01E510E00150110959F327
:103FC0008091CB158111E7CF0E94CD1C8091CC153B
:103FD00081FD96CFFFEF20E782E0F1502040804046
:103FE000E1F700C00000E9CF8091D4158823C9F122
:103FF00081FF0DC080913104882351F140E050E0F1
:10400000BA0180E00E94D61AD093D41579CF8C7073
:1040100009F476CF80913104882399F081EB93E005
:104020000E940C0788E293E00E940C070E94AC09F2
:104030008091FC1681FF0FC08091CE15886080931F
:10404000CE158091D41583FF03C082E00E948A03BD
:104050001092D41555CFB701A6018C2F0E94D61A05
:10406000F0CF8091CE1583FF4BCFB701A6018C2FE7
:104070000E94D61A8091CE15877F8093CE1540CFAF
:104080000E94280D0E94361F8091CB15811108C017
:104090000E94840A892BB1F78091CA15883091F368
:1040A0000895CF93DF9321E031E0829FE001839F69
:1040B000D00D1124DD5F40E051E0BE018DEA97E1B3
:1040C0000E940011892B79F41092AD170E944020B4
:1040D00040E051E06DEA77E1CE010E94B01080E04F
:1040E000DF91CF91089581E0FBCF0E944020109294
:1040F000D6150895CF92DF92EF92FF92CF939091D1
:10410000CA15923079F06A017B01C82F0E944020C5
:10411000B701A6018C2FCF91FF90EF90DF90CF9049
:104120000C94D61ACF91FF90EF90DF90CF90089526
:104130000F931F93CF93C82F8B010E9440202DE136
:10414000C29FC00111244CE150E0B8019E5FCF91A5
:104150001F910F910C94B0101F93CF93DF93182FE2
:10416000EB018DE1189FB00111247E5F4CE150E01E
:10417000CE010E940011892B71F48CE1FE01119295
:104180008A95E9F7BE01812F0E94982080E0DF9197
:10419000CF911F91089581E0FACF4F925F926F9275
:1041A0007F928F929F92AF92BF92CF92DF92EF92C7
:1041B000FF920F931F93CF93DF93CDB7DEB76C972A
:1041C0000FB6F894DEBF0FBECDBF182F80FFF7C12A
:1041D0008AE08093E71689E18093EA161092E81648
:1041E00084E08093E91682E08093EB168AE097EDF5
:1041F000A3E2BCE38093EC169093ED16A093EE1629
:10420000B093EF168FE692E1A3E0BBE38093F01644
:104210009093F116A093F216B093F31680E090E419
:10422000ACE9B6E48093F4169093F516A093F616D5
:10423000B093F7161092F8161092F9161092FA161B
:104240001092FB161092FD1680E090E0A8ECB1E40D
:104250008093FE169093FF16A0930017B09301175A
:1042600080E090E0A6E1B4E48093021790930317F6
:10427000A0930417B09305178AEF90E09093071767
:104280008093061780E090E0A0E0B0E480930817E8
:1042900090930917A0930A17B0930B1788E18093A6
:1042A000FC1680E090E0A8ECB3E48093771690933E
:1042B0007816A0937916B0937A1680937B16909314
:1042C0007C16A0937D16B0937E1680937F169093F4
:1042D0008016A0938116B093821680E090E0AAE742
:1042E000B5E48093931690939416A0939516B0938B
:1042F00096168093971690939816A0939916B0935C
:104300009A1680939B1690939C16A0939D16B0933B
:104310009E1680E098ECAFEAB9E48093AF169093D4
:10432000B016A093B116B093B2168093B3169093C3
:10433000B416A093B516B093B6168093B7169093A3
:10434000B816A093B916B093BA1680E090E0A8EC26
:10435000B3EC8093CB169093CC16A093CD16B0936C
:10436000CE168093CF169093D016A093D116B0930B
:10437000D2168093D3169093D416A093D516B093EB
:10438000D61681E080930C1710920D1710920E171D
:1043900010920F17109210171092111710921217F7
:1043A000109213171092141735E1C32E37E1D32E54
:1043B0004CEEE42EFF24FA94412C512C50EA652E49
:1043C00050EC752E812C912C68E4A62E62ECB62E52
:1043D000F60141925192619271926F01B7010F2CD7
:1043E000000C880B990B0E944B53F601648B758B64
:1043F000868B978B84A695A6A6A6B7A6FEE1EF1A94
:10440000F10878E3E7167FEFF70611F7EDE5F7E13E
:1044100061E050E440EC33E02AE096E082E3608320
:10442000118252834383148215821682178210866A
:10443000118632872387948785871686178670961C
:1044400077E1ED39F70759F710929D1710929E17F3
:1044500010929F171092A0171092A1171092A217F6
:104460001092A3171092A4171092A5171092A617D6
:104470001092A7171092A8171092A9171092AA17B6
:104480001092AB171092AC178FE195ECA1E3B3E457
:104490008093831690938416A0938516B093861606
:1044A00040E050E06AE775E440939F165093A016F1
:1044B0006093A1167093A216C12C88ECD82E8FEAB7
:1044C000E82E89E4F82EC092BB16D092BC16E0927A
:1044D000BD16F092BE1680E090E0A8E4B3EC8093A5
:1044E000D7169093D816A093D916B093DA16812CCC
:1044F000912C20EAA22E23E4B22E8092871690926D
:104500008816A0928916B0928A164093A3165093EB
:10451000A4166093A5167093A616C092BF16D092EB
:10452000C016E092C116F092C2168093DB169093EB
:10453000DC16A093DD16B093DE1680928B16909257
:104540008C16A0928D16B0928E16C092C316D09281
:10455000C416E092C516F092C6164093A716509363
:10456000A8166093A9167093AA168093DF169093ED
:10457000E016A093E116B093E21680928F16909207
:104580009016A0929116B0929216C092C716D09231
:10459000C816E092C916F092CA164093AB16509313
:1045A000AC166093AD167093AE168093E31690939D
:1045B000E416A093E516B093E6160E94EB1011FFE7
:1045C00010C0CE0101967C018CE1F70111928A9511
:1045D000E9F700E0B701802F0E9498200F5F0830B4
:1045E000C9F712FF14C060E080E093E00E949010D1
:1045F00060E081E093E00E94901060E081E094E050
:104600000E94901060E082E094E00E94901013FFFE
:104610000AC060E08EEA93E00E94901060E08FEAAA
:1046200093E00E9490106C960FB6F894DEBF0FBE18
:10463000CDBFDF91CF911F910F91FF90EF90DF9051
:10464000CF90BF90AF909F908F907F906F905F9032
:104650004F900895CF92DF92EF92FF920F931F93A6
:10466000CF93DF936B017A01E90120910B012F7742
:1046700020930B0120910B01206820930B01F894EB
:104680008230910591F030F44FEF6FEF019779F0A0
:1046900040E008C040E06FEF8330910521F04FEF1C
:1046A0000497B1F760E080E003C040E060E08FEF86
:1046B0000E94641082E0C816D104B1F038F44FEFC4
:1046C0006FEFCA94CD2891F040E00BC040E06FEF4F
:1046D00093E0C916D10431F04FEF84E0C816D1043D
:1046E00099F760E080E003C040E060E08FEF0E9457
:1046F000641092E0E916F104B1F038F44FEF6FEF77
:10470000EA94EF2891F040E00BC040E06FEF83E0C7
:10471000E816F10431F04FEF94E0E916F10499F74F
:1047200060E080E003C040E060E08FEF0E94641032
:10473000C230D10591F030F44FEF6FEF219779F04F
:1047400040E008C040E06FEFC330D10521F04FEFEB
:104750002497B1F760E080E003C040E060E08FEFB5
:104760000E94641002301105A1F038F44FEF6FEF92
:104770000130110581F040E009C040E06FEF0330E7
:10478000110529F04FEF04301105A9F760E080E032
:1047900003C040E060E08FEF0E94641078948FEED9
:1047A00090E00197F1F700C00000DF91CF911F91D9
:1047B0000F91FF90EF90DF90CF900895CF93DF930C
:1047C000D82FA198A19AF894CFE0D130A9F480E035
:1047D0000E94FB0F8FEF0E94FB0F80E00E94FB0FF7
:1047E000C15099F778948FEE90E00197F1F700C0EF
:1047F0000000DF91CF910895D23029F48FEF0E940D
:10480000FB0F80E0E8CF80E00E94FB0F80E00E9479
:10481000FB0F8FEFE3CF8091A91584FD20C080E1CD
:104820000E948A030E94B01A0E9445119091CA15F5
:10483000892F8C7221F48091CE15867059F09430B6
:1048400061F48091A815811103C086E00E947A036B
:104850000E94231A81E00C94DE2383E0F7CF0895B1
:10486000CF93C82F0E948010C1111DC088988FE778
:1048700097E00197F1F700C000008C2F0E947310A1
:10488000E7E1F1E03197F1F700C00000C11111C07C
:104890008FB180958170E7E6F6E03197F1F700C0BF
:1048A0000000CF910895C13011F44098E0CF759881
:1048B000DECFC13011F486B1ECCF8CB185FB8827F7
:1048C00080F991E08927E7CF0F931F93CF93DF9370
:1048D000C82F08E010E0D0E0D6958C2F0E94801001
:1048E000C11120C0889880E18A95F1F78C2F0E9431
:1048F0007310E5E3EA95F1F70000C11119C08FB11B
:104900008170E7ECF0E03197F1F700C00000811111
:10491000D0680150110901F78D2FDF91CF911F91C0
:104920000F910895C13011F44098DDCF7598DBCF19
:10493000C13011F486B1E4CF8CB185FB882780F9B2
:10494000E0CF0F931F93CF93DF93C82FD62F08E0AC
:1049500010E08C2F0E948010D0FF1FC0C11117C023
:1049600088988AE18A95F1F700C08C2F0E94731015
:104970008BED90E00197F1F700C00000D695015053
:10498000110939F7DF91CF911F910F910895C1302F
:1049900011F44098E6CF7598E4CFC1110FC0889804
:1049A00083E091E00197F1F700C000008C2F0E9496
:1049B00073109AE19A95F1F700C0E0CFC13011F47D
:1049C0004098EECF7598ECCF8F929F92AF92BF92A6
:1049D000CF92DF92EF92FF92CF93C82F61111AC04E
:1049E0000E94302481110DC060E070E0CB01CF91B6
:1049F000FF90EF90DF90CF90BF90AF909F908F90FF
:104A000008956CEC8C2F0E94A12464E48C2F0E94EA
:104A1000A124EACF442341F30E9430246CEC8C2F74
:104A20000E94A1246EEB8C2F0E94A1248C2F0E9447
:104A30006424C82E8C2F0E946424D82E0D2C000CC8
:104A4000EE08FF08C701B601C1112FC00E944B53E9
:104A500020E030E040E85DE30E94F9544B015C0146
:104A600020E030E040EA50E40E94B954181694F473
:104A700020E030E040EA52E4C501B4010E949752C0
:104A800087FF08C080921C0490921D04A0921E040F
:104A9000B0921F04C701B6010E944B5320E030E0E2
:104AA00040E85DE30E94F954A2CF0E944B5320E0FE
:104AB00030E040E85DE30E94F9544B015C0120E0E6
:104AC00030E040EA50E4C130B9F40E94B9541816FD
:104AD0000CF720E030E040EA52E4C501B4010E9446
:104AE000975287FFD7CF8092200490922104A09202
:104AF0002204B0922304CECF0E94B954181654F663
:104B000020E030E040EA52E4C501B4010E9497522F
:104B100087FFC0CF8092240490922504A09226049F
:104B2000B0922704B7CF2F923F924F925F926F922D
:104B30007F928F929F92AF92BF92CF92DF92EF922D
:104B4000FF920F931F93CF93DF93CDB7DEB7C65875
:104B5000D1090FB6F894DEBF0FBECDBFE9967FAF87
:104B60006EAFE997B090E6132B2D30E0E3963FAFA0
:104B70002EAFE39726E4B29EA0011124BA01625F32
:104B8000754FEB967FAF6EAFEB97DB011D922A95C9
:104B9000E9F7E996EEADFFADE9972485DB01919643
:104BA0002C93FB01EE5BFF4FE996AEADBFADE997ED
:104BB00014964D915D916D917C911797408351832F
:104BC0006283738318964D915D916D917C911B97D3
:104BD000EB96EEADFFADEB9742A353A364A375A391
:104BE00021FFE9C12CE1EAEAF5E1DE01D996019065
:104BF0000D922A95E1F7E4968FAFE497E5969FAF83
:104C0000E59727E736E1CD57DF4F39832883C3582F
:104C1000D040BE01635E7F4FCF57DF4F79836883FB
:104C2000C158D040CE01C996C158DF4F99838883BF
:104C3000CF57D040EB96AEADBFADEB97EF96BFAF81
:104C4000AEAFEF974E01B5E58B0E911CED969FAE82
:104C50008EAEED9710E086E4E396EEADFFADE39700
:104C60008E9F10018F9F300C11249101225F354FD0
:104C70001901B901645E7F4FCB57DF4F7983688399
:104C8000C558D04070E2270E311CE596AEADBFADE1
:104C9000E5976D917D918D919D91E596BFAFAEAFFA
:104CA000E597CD57DF4FE881F981C358D040419057
:104CB000519061907190CD57DF4FF983E883C358CD
:104CC000D040A30192010E94F9540E94C654CF57CC
:104CD000DF4FA881B981C158D0406D937D938D93EA
:104CE0009D93CF57DF4FB983A883C158D040C15897
:104CF000DF4FE881F981CF57D040C190D190E1904A
:104D0000F190C158DF4FF983E883CF57D0406C1939
:104D10007D098E099F099B01AC0197FF07C02227DF
:104D20003327A901261B370B480B590BEF96AEAD65
:104D3000BFADEF972D933D934D935D93EF96BFAF2E
:104D4000AEAFEF97CB57DF4FE881F981C558D04020
:104D5000C080D180E280F380C216D306E406F50657
:104D600010F469017A01CB57DF4FA881B981C5588A
:104D7000D040CD92DD92ED92FC9213970E944B535E
:104D8000A30192010E94A152ED96EEADFFADED9709
:104D90006193719381939193ED96FFAFEEAFED9791
:104DA00020E030E0A9010E94975287FF07C0812FC1
:104DB0000E948D04D1019C91892B8C931F5F173029
:104DC00009F063CF80E0CD28CE28CF2809F4D9C0E0
:104DD000CE018B5A9F4F0E9498116B017C0186E493
:104DE000E396EEADFFADE3978E9F80018F9F100D90
:104DF0001124025F154FD801D296CD92DD92ED922B
:104E0000FC92D597BE016B5A7F4F8FEA96E10E94C4
:104E10009B0EF80166A777A780AB91ABBE016B5ADA
:104E20007F4F83E996E10E949B0ED801DA966D933D
:104E30007D938D939C93DD979196AC90025C1F4F70
:104E4000A0FEBDC0F801608371838283938380914B
:104E50000D0AB81611F0A1FECDC086E4E3962EAD82
:104E60003FADE397829FF001839FF00D1124E25F35
:104E7000F54F16A217A210A611A616AA17AA10AED1
:104E800011AE86E4E396EEADFFADE3978E9F800111
:104E90008F9F100D1124025F154FD80191968C91B0
:104EA00081FD6EC0EB968EAD9FADEB970E940F0A11
:104EB0006B017C018090180490901904A0901A0452
:104EC000B0901B04AC019B01C501B4010E94975234
:104ED00087FF6DC1A5019401C501B4010E94F95479
:104EE000F80162A773A784A795A786E4E396EEADC1
:104EF000FFADE3978E9F80018F9F100D1124025FFD
:104F0000154FD801D6968D909D90AD90BC90D997B5
:104F1000A50194019A966D917D918D919C919D979B
:104F20000E94B95418162CF4F80182A693A6A4A6E0
:104F3000B5A6C0921804D0921904E0921A04F09217
:104F40001B048CE1FE01EB5AFF4FACEFB3E0019084
:104F50000D928A95E1F78CE1FE017D96A0EEB3E01B
:104F600001900D928A95E1F78091DF038093E6131B
:104F70008F5F843209F480E08093DF030E94300D5C
:104F800081E0CA57DF4F0FB6F894DEBF0FBECDBF2A
:104F9000DF91CF911F910F91FF90EF90DF90CF9015
:104FA000BF90AF909F908F907F906F905F904F9049
:104FB0003F902F9008952CE1E0EEF3E016CEE996B5
:104FC000AEADBFADE9972D913D914D915C91A3FCA4
:104FD00006C0F801208331834283538338CFC70151
:104FE000B6010E94F954D8016D937D938D939C93E3
:104FF00013972DCF6CEF73E0E9967FAF6EAFE99713
:105000008E010F5F1F4F14017CE1270E311CC12C54
:10501000D12C76015801E996EEADFFADE99781916B
:105020009191A191B191E996FFAFEEAFE997E79623
:105030008CAF9DAFAEAFBFAFE797D4014D905D9001
:105040006D907D904D01A3019201E7966CAD7DAD11
:105050008EAD9FADE7970E94F9549B01AC01C7014B
:10506000B6010E94A1516B017C01E7962CAD3DADCC
:105070004EAD5FADE797C301B2010E94A151F801A7
:1050800061937193819391938F012814390419F6D8
:105090002FEE3FEF4FE75FE3C701B6010E94B9541F
:1050A00018166CF486E4E3962EAD3FADE397829F2D
:1050B000F001839FF00D1124E25FF54FDECE2FEE5D
:1050C0003FEF4FE75FEBC701B6010E94975287FFA2
:1050D00015C086E4E3966EAD7FADE397869FF00141
:1050E000879FF00D1124E25FF54F89E996E7A6E965
:1050F000BEE786AB97ABA0AFB1AFC3CEC5010E94F0
:105100009811B5018FEA96E10E949B0E4B015C015C
:10511000A701960160E070E080E89FE30E94A15142
:1051200020E030E040E05FE30E94F9540E9498558F
:105130006B017C012091EC163091ED164091EE163A
:105140005091EF16C501B4010E94F954A7019601D0
:105150000E94F9544B015C01A701960160E070E0E8
:1051600080E89FE30E94A1519B01AC01C501B401FD
:105170000E94A1526B017C0120E030E0A9010E9455
:10518000975287FF03C0C12CD12C760186E4E396A9
:10519000AEADBFADE3978A9FF0018B9FF00D112458
:1051A000E25FF54FC6AAD7AAE0AEF1AE6ACEA7017C
:1051B0009601C701B6010E94F954D8019A966D93E1
:1051C0007D938D939C939D9790CEBF92CF92DF92CB
:1051D000EF92FF920F931F93CF93DF93CDB7DEB77C
:1051E000A9970FB6F894DEBF0FBECDBFB82E0E94B0
:1051F00040200E94C60F8091CB15811179C08E018D
:10520000035E1F4F8DE0F80111928A95E9F786E061
:1052100089A720E030E040E450EC6091E316709103
:10522000E4168091E5169091E6160E94F9546B0100
:105230007C0120E030E0A9010E94975287FF03C063
:10524000C12CD12C76016AEA75E1CE0101960E944B
:1052500005041092C2151092C3151092C415109235
:10526000C515BB2021F0F7FAF094F7F8F094C98E39
:10527000DA8EEB8EFC8E82E08093D01580E090E099
:10528000A8E4B2E48D8F9E8FAF8FB8A3B801CE0192
:1052900001960E94932584E08093CE150E94A71268
:1052A0000E94670412E0809109018095BB2081F182
:1052B0008071811110E01093D0150E94A712809187
:1052C000A915847309F448C01091A91514FF03C0EF
:1052D00086E00E947A0315FF03C087E00E947A03EC
:1052E0008091A8158823B1F00E940B240E94361FDC
:1052F000A9960FB6F894DEBF0FBECDBFDF91CF9158
:105300001F910F91FF90EF90DF90CF90BF90089585
:105310008072CFCF84E00E9480030E94421A809165
:105320000617909107170E94191A1092C215109231
:10533000C3151092C4151092C5151092CE150E9477
:10534000361F8091CB158111D3CF0E948A100E9405
:10535000FE090E94D00FCCCF1111A5CFDECFBF9296
:10536000CF92DF92EF92FF920F931F93CF93DF9331
:10537000CDB7DEB7A9970FB6F894DEBF0FBECDBF8D
:10538000B82E0E9440205F9A0E94C60F8091CB15D4
:10539000811176C08E01035E1F4F8DE0F8011192DE
:1053A0008A95E9F786E089A720E030E040E450ECF8
:1053B0006091DB167091DC168091DD169091DE16FF
:1053C0000E94F9546B017C0120E030E0A9010E94A9
:1053D000975287FF03C0C12CD12C76016AEA75E190
:1053E000CE0101960E9405041092BA151092BB15C9
:1053F0001092BC151092BD15BB2009F451C0F7FAEC
:10540000F094F7F8F094C98ADA8AEB8AFC8A80E48F
:105410008093D01580E090E0A8E4B2E48D8F9E8F59
:10542000AF8FB8A3B801CE0101960E94932584E006
:105430008093CE150E94A7120E94670410E4BB203F
:1054400011F07D9B10E01093D0150E94A71280915F
:10545000A915847309F452C01091A91514FF03C053
:1054600086E00E947A0315FF03C087E00E947A035A
:105470008091A8158823E9F00E940B240E94361F12
:10548000A9960FB6F894DEBF0FBECDBFDF91CF91C6
:105490001F910F91FF90EF90DF90CF90BF900895F4
:1054A00080E090E0A0ECBFE3898B9A8BAB8BBC8B48
:1054B000AECF84E00E9480030E94421A80910617BA
:1054C000909107170E94191A1092BA151092BB15E5
:1054D0001092BC151092BD151092CE150E94361F69
:1054E0008091CB158111CCCF0E948A100E94FE09B9
:1054F0000E94D00F0E9440205F98C2CF11119FCF11
:10550000DBCFAF92BF92CF92DF92EF92FF920F93D9
:105510001F93CF93DF93CDB7DEB7A9970FB6F8945B
:10552000DEBF0FBECDBF082F0E9440200E94C60FD5
:105530008091CB15811175C05E018DE1A80EB11C63
:105540008DE0F50111928A95E9F786E089A720E0C0
:1055500030E040E450EC6091DF167091E0168091ED
:10556000E1169091E2160E94F9546B017C0120E053
:1055700030E0A9010E94975287FF03C0C12CD12CB3
:1055800076016AEA75E1CE0101960E940504109247
:10559000BE151092BF151092C0151092C1150023B0
:1055A00009F450C0CD8ADE8AEF8AF88E80E88093B5
:1055B000D01580E090E0AAEFB4E48D8F9E8FAF8F7E
:1055C000B8A3B501CE0101960E94932584E0809393
:1055D000CE150E94A7120E94670410E8002321F054
:1055E0008091090181FF10E01093D0150E94A7124D
:1055F0008091A915847309F450C01091A91514FF66
:1056000003C086E00E947A0315FF03C087E00E9472
:105610007A038091A8158823F1F00E940B240E9440
:10562000361FA9960FB6F894DEBF0FBECDBFDF912F
:10563000CF911F910F91FF90EF90DF90CF90BF908F
:10564000AF90089580E090E0A8ECB2EC8D8B9E8B3B
:10565000AF8BB88FABCF84E00E9480030E94421AC8
:1056600080910617909107170E94191A1092BE1583
:105670001092BF151092C0151092C1151092CE1540
:105680000E94361F8091CB158111CBCF0E948A10CA
:105690000E94FE090E94D00FC4CF11119FCFDECF10
:1056A000EF92FF921F93CF93DF93EC017B018091E8
:1056B000FC1685FF22C01091CA15103211F1CE01DF
:1056C0000E9493038823C9F081E08093CD151830A0
:1056D00069F488E00E948A030E94361F8091CB15EE
:1056E00081110BC08091CA158111F6CF0E940B2445
:1056F00082E00E947A030E94361F8091CA15823090
:10570000C1F00E94361F8091CB15811112C090917B
:105710000D0A8091DF03981303C00E94280DF1CF7A
:10572000B701CE01DF91CF911F91FF90EF900C94C4
:105730009325DF91CF911F91FF90EF9008952F92C5
:105740003F924F925F926F927F928F929F92AF9211
:10575000BF92CF92DF92EF92FF920F931F93CF935E
:10576000DF93CDB7DEB7E7970FB6F894DEBF0FBE75
:10577000CDBF9091CB15911114C18DAB9E01235ECD
:105780003F4F3AAB29AB8DE0D9011D928A95E9F7DD
:1057900086E089A727E7A22E26E1B22EFE01BA965F
:1057A0004F0110E000E0C12CD12C7601FDA92F2E75
:1057B000312C802F0E944E03D4018D934D01C101E5
:1057C000002E02C0959587950A94E2F780FF1BC0D2
:1057D00020E030E040EC5FEBF501EC5AFF4F6081D8
:1057E0007181828193810E94F954762E472E582E22
:1057F000692EA70196010E94975287FD04C0C72C0D
:10580000D42CE52CF62C0F5F1F4FB4E0AB0EB11C6F
:105810000730110571F68090021790900317A09041
:105820000417B090051794E0692E01E06AEA75E16B
:10583000CE0101960E9405048091FD16E82FF0E04C
:10584000FCABEBABFE0131968AEA482E85E1582E7F
:105850005FAA4EAA712C10E030E020E0B701A6014B
:105860007058C101022E02C0959587950A94E2F7FF
:1058700080FF28C07394AEA9BFA91D921D921D92EE
:105880001C9213978BA99CA9022E02C0959587950F
:105890000A94E2F780FF07C0002339F04083518368
:1058A0006283738306C00023C9F3C082D182E2827F
:1058B000F3828AE290E08C0F9D1F820F931FDC0120
:1058C0008C91182B2F5F3F4F34968EA99FA9049679
:1058D0009FAB8EAB2730310521F6672D70E090E04D
:1058E00080E00E9449530E9498551093D015A5015D
:1058F00094010E94F9546D8F7E8F8F8F98A3BE0103
:10590000635E7F4FCE0101960E94932594E09093B1
:10591000CE150E94A7120E9467040023E9F00E949E
:10592000AA0FFE01BA9630E020E090E06191462F88
:10593000412359F0AC01022E02C0559547950A94B7
:10594000E2F740FF02C0609516232F5F3F4F2730DC
:10595000310561F71093D0150E94A7128091A91507
:10596000847309F47AC01091A91514FF03C086E06E
:105970000E947A0315FF03C087E00E947A03011199
:1059800082C00E94AA0FADA98A2319F088E00E9464
:105990007A038091A8158823E9F00E940B240E94C5
:1059A000361FE7960FB6F894DEBF0FBECDBFDF916E
:1059B000CF911F910F91FF90EF90DF90CF90BF900C
:1059C000AF909F908F907F906F905F904F903F909F
:1059D0002F90089584E00E9480030E94421A8091D3
:1059E0000617909107170E94191AB1E00B27D1F101
:1059F00020E030E040EA50E4609108177091091708
:105A000080910A1790910B170E94F9546B017C0149
:105A10008090FE169090FF16A0900017B09001178E
:105A20006A94611003CF90E080E09101082E02C0DB
:105A3000359527950A94E2F720FF05C0F201108200
:105A40001182128213820196F4E04F0E511C8730AE
:105A5000910559F71092CE15A4CF812F8E7F09F0B2
:105A60005CCFBBCFC0900817D0900917E0900A1701
:105A7000F0900B178090021790900317A0900417D6
:105A8000B0900517CDCF12FF84CF89E080CFCF93A0
:105A9000C82F0E94C60F8C2FC11104C084E00E9441
:105AA0009F2B83E00E949F2B0E94361F8091CB1575
:105AB000811107C00E948A100E94FE09CF910C94A8
:105AC000D00FCF9108952F923F924F925F926F9295
:105AD0007F928F929F92AF92BF92CF92DF92EF927E
