:020000040000FA
:100000000C943E020C945F020C945F020C945F020D
:100010000C945F020C945F020C945F020C945F02DC
:100020000C945F020C94C33C0C945F020C94D33686
:100030000C947D3C0C945F020C945F020C945F0264
:100040000C945F020C9442370C945F020C945F0294
:100050000C945F020C945F020C945F020C942C379A
:100060000C945F020C94AC3B0C94523C0C945F02D9
:100070000C945F020C945F020C945F020C945F027C
:100080000C945F020C945F020C945F020C94053B8D
:100090000C94843B0C94593B0C945F020C945F02CB
:1000A0000C945F020C945F020C945F020C945F024C
:1000B0000C945F020C945F020C945F020C94D83C89
:1000C0000C945F020C945F020C945F020C94413B11
:1000D0000C94163B0C945F020C945F020C945F022C
:1000E0000C945F02084AD73B3BCE016E84BCBFFD37
:1000F000C12F3D6C74319ABD56833DDA3D00C77FF8
:1001000011BED9E4BB4C3E916BAAAABE0000008090
:100110003F05A84CCDB2D44EB93836A9020C50B91F
:10012000918688083CA6AAAA2ABE000000803F004B
:100130000C9416440C942A3C0C9418290C946C488A
:100140000C942E3C0C9443290C940E440C94183CB3
:100150000C941E440C94303C0C946F290C94EA438C
:100160000C94A2480C942A440C94B7480C94DE4397
:100170000C946F480C9465290C942C3C0C943F29EA
:100180000C94F9480C94E7280C94283C0C9474487F
:100190000C94F6430C94F0480C943E3C0C94FF3BBA
:1001A0000C94E2420C94EA480C9451290C94383C8B
:1001B0000C94403C0C941E3C0C943C3C0C94B42895
:1001C0000C94243C0C94223C0C945B290C94FC432E
:1001D0000C94BE2A0C9499480C940E290C94D8487F
:1001E0000C94263C0C9424440C94F0430C946648E4
:1001F0000C94AB480C940D490C9401290C9489483B
:100200000C94E1480C9432290C9428270C94D5487E
:100210000C9425290C94B12A0C9496480C94C1484E
:100220000C9404490C9481480C9402440C94F428D6
:100230000C94363C0C94CD480C9477480C94A42A2A
:100240000C94343C0C94163C0C943A3C0C94E443CF
:100250000D0A00E5BC80E5A78BE5AFB9E588800015
:100260000D0A00E5908EE58880E58FB73A00244EB0
:10027000005B4F50543A005B5645523A312E31657F
:100280002E32303137303131343A005B5A706F736F
:100290003A005B544C4F3A005B4739323A003330F6
:1002A000003238005B4700204700204D00205300FB
:1002B00020460020540033382E005B47433A470065
:1002C0000D0A00E5BC80E5A78BE5AFB9E5888000A5
:1002D0005BE5B8AEE58AA93A2424202423202447EC
:1002E00020244920244E2024783DE580BC20244E43
:1002F000783DE8A18C20244A3DE8A18C2024534C71
:1003000050202443202458202448207E2021203FB0
:10031000206374726C2D785D0D0A00E8ADA6E68A44
:10032000A53A007C46533A007C4C6E3A007C42660B
:100330003A007C473A007C4D3A007C533A007C52AC
:1003400046543A007C4C46543A007C53543A007C64
:10035000463A007C543A007C57506F733A007C4D0B
:10036000506F733A00536C65657000446F6F723A5A
:1003700000436865636B00416C61726D00486F6D8E
:10038000696E67004D6F76696E67005061757365C1
:10039000004D6F76696E6700526561647900E79D74
:1003A000A1E79CA0E4B8AD00E6ADA3E59CA8E6817A
:1003B000A2E5A48DE4B8BBE8BDB400E6ADA3E59C1E
:1003C000A8E681A2E5A48DE9BB98E8AEA4E580BCCF
:1003D00000E7A88BE5BA8FE7BB93E69D9F00E6A3F5
:1003E00080E69FA5E99990E588B600E6A380E69FA0
:1003F000A5E997A800E5B7B2E7A681E794A800E5CC
:10040000B7B2E590AFE794A800E8ADA6E5918AEF12
:10041000BC9AE5B7B2E8A7A3E9948100272448274E
:100420007C2724582720E8A7A3E9948100E9878D39
:10043000E7BDAEE4BBA5E7BBA7E7BBAD005BE6B697
:1004400088E681AF3A000D0A005BE68EA2E9928849
:100450003A00312E302E30005B76657273696F6E14
:100460003A006572726F723A000D0A00E5898DE5F7
:100470008880E58FB73A006F6B0D0A0011241FBE0C
:10048000CFEFD1E2DEBFCDBF00E00CBF13E0A0E0B4
:10049000B2E0EEE6F2EA00E00BBF02C007900D9278
:1004A000A433B107D9F72AE1A4E3B3E001C01D9258
:1004B000AA32B207E1F70E94523D0C9435510C94D8
:1004C00000002F923F924F925F926F927F928F9295
:1004D0009F92AF92BF92CF92DF92EF92FF920F93D3
:1004E0001F93CF93DF93CDB7DEB72E970FB6F89457
:1004F000DEBF0FBECDBF4B015C017A0120E030E0D2
:10050000A9010E94754A10E087FF05C0B7FAB094B0
:10051000B7F8B09411E0C501B4010E94F84A6B87A6
:100520007C878D879E87112331F08DE2F7018083D0
:10053000C70101967C016B857C858D859E858E012A
:100540000F5F1F4F68013AE0232E312C412C512CB4
:100550003801EFEF6E1A7E0AA20191010E940E4E41
:10056000605DF8016083B901CA01830161157105FD
:100570008105910569F7D701F301CE16DF06E1F594
:1005800083010C191D090F5F1F4F0E0D1F1D6B8579
:100590007C858D859E850E94274B9B01AC01C50102
:1005A000B4010E947F4993012C193D09E20EF31E0C
:1005B0002EE2F7012083680124E0F22EFA94F11074
:1005C0001EC0F80113822E960FB6F894DEBF0FBE40
:1005D000CDBFDF91CF911F910F91FF90EF90DF90F2
:1005E000CF90BF90AF909F908F907F906F905F90D3
:1005F0004F903F902F90089582918D93BECF20E031
:1006000030E040E251E40E94D74C4B015C010E9473
:10061000F14A20E3260FF60121936F01072E000C0B
:10062000880B990B0E94294B9B01AC01C501B401B9
:100630000E947F49C3CF27E030E090E0AC01022E5A
:1006400002C0559547950A94E2F740FF1AC04091C1
:100650000B01406440930B0100000000000000000B
:1006600000000000000000000000000040910B01AD
:100670004F7B40930B010000000021503109F0F640
:10068000089540910B01406440930B01000000006D
:1006900040910B014F7B40930B01000000000000D4
:1006A0000000000000000000000000000000E5CF96
:1006B000CF93C82F862F0E941B038C2F0E941B03F1
:1006C00080E0CF910C941B032FB7F894909187177B
:1006D000892B809387172FBF08952FB7F894909197
:1006E0008617892B809386172FBF08959FB7F8949C
:1006F000809385179FBF08959FB7F8942091841722
:1007000080958223809384179FBF08952FB7F89414
:1007100090918417892B809384172FBF08954F924F
:100720005F926F927F928F929F92AF92BF92CF9281
:10073000DF92EF92FF920F931F93CF93DF938090FE
:100740009A18912C28E6A22E28E1B22E8C01D0E036
:10075000C0E0F501C190D190E190F1905F0120E0FF
:1007600030E0A901C701B6010E94754A882381F1D2
:10077000F8014080518062807380C4010C2E02C059
:10078000959587950A94E2F720E030E0A90180FF73
:1007900011C0C301B2010E94754A87FD09C0C7019B
:1007A000B6019058A30192010E94754A87FF10C0BC
:1007B00081E016C0C301B2010E94974C1816C4F321
:1007C000A3019201C701B6010E94974C181684F349
:1007D00021960C5F1F4FC730D10509F0BACF80E0DA
:1007E000DF91CF911F910F91FF90EF90DF90CF900D
:1007F000BF90AF909F908F907F906F905F904F9041
:1008000008958F929F92AF92BF92CF92DF92EF9214
:10081000FF920F931F93CF93DF93EB0124E1E22E1E
:1008200028E1F22E8C016B018CE1C80ED11C69917C
:10083000799189919991F70181909190A190B190CE
:100840007F010E94294BA50194010E947F4AF80173
:1008500061937193819391938F01CC15DD0539F7E5
:10086000DF91CF911F910F91FF90EF90DF90CF908C
:10087000BF90AF909F908F900895CF93DF93C091DA
:100880007117D09172172097C9F08091411781603C
:10089000809341176091571770915817809159179D
:1008A00090915A179B01AC010E94D74C6EA37FA375
:1008B00088A799A71092721710927117DF91CF91A4
:1008C0000895EBE9FBE08091980B868F8091841866
:1008D0008250990B880F8195858FEFE6F0E080813B
:1008E0008260808308952091991821FF0BC0909316
:1008F000AB008093AA00892B31F48091A0008F7DFA
:100900008093A00008958091A0008062F9CF882391
:1009100061F0813061F0823061F0833061F08430C9
:1009200061F0853061F082E0089580E8089580E408
:10093000089580E2089580E1089588E0089584E0B4
:100940000895882361F0813061F0823061F0833056
:1009500061F0843061F0853061F082E0089584E0D8
:10096000089588E0089580E1089580E2089580E484
:10097000089580E80895AF92BF92CF92DF92EF92F0
:10098000FF920F931F93CF93DF93E0908518F12C84
:10099000C0908618D12CD0E0C0E010E000E0BC2E62
:1009A000AC2EC7010C2E02C0959587950A94E2F7EC
:1009B00080FF04C08C2F0E94A104082BC60102C036
:1009C00095958795AA94E2F780FF04C08B2D0E942D
:1009D0008704182B2196C730D10509F70093980B8F
:1009E0001093990BDF91CF911F910F91FF90EF9092
:1009F000DF90CF90BF90AF900895E091570A91E0BB
:100A00009E0F2091580B291761F0F0E0E85AF54F3E
:100A100080839093570A8091D10080628093D100A7
:100A200004C02091841724FFECCF0895E0914F0477
:100A3000DC0180E091E09E0F20915005291308C051
:100A4000E0934F049091C10090629093C10008958B
:100A50002D91F0E0E05BFB4F20838F5FE92F68135F
:100A6000E9CFEECFE0914F0491E09E0F2091500529
:100A7000291761F0F0E0E05BFB4F808390934F0417
:100A80008091C10080628093C10004C020918417CE
:100A900024FFECCF089510925E0B9091991897FD6A
:100AA00003C09CE090935E0B882331F080915E0B35
:100AB0009CE0892780935E0B08958F929F92AF925E
:100AC000BF92CF92DF92EF92FF920F931F93CF933B
:100AD000DF93CDB7DEB72D970FB6F894DEBF0FBE0C
:100AE000CDBF6B017C01042F20E030E0A9010E9402
:100AF000754A87FF07C08DE20E943205F7FAF0942D
:100B0000F7F8F094102F123008F054C000FF0AC01C
:100B100020E030E040E251E4C701B6010E94D74C2A
:100B20006B017C0120E030E040E05FE3C701B601EB
:100B30000E9480490E94F14A10E03AE0832E912CF5
:100B4000A12CB12CE12FF0E0611571058105910513
:100B5000E9F581E090E08C0F9D1FE80FF91F80E31D
:100B6000101708F445C0101309C0E1E0F0E0EC0FE5
:100B7000FD1FE10FF11D80E380831F5FEE24E394EE
:100B8000F12CEC0EFD1EE10EF11C111134C02D965E
:100B90000FB6F894DEBF0FBECDBFDF91CF911F918E
:100BA0000F91FF90EF90DF90CF90BF90AF909F900C
:100BB0008F90089520E030E048EC52E4C701B60180
:100BC0000E94D74C6B017C0112509DCFEE24E39420
:100BD000F12CEC0EFD1EEE0EFF1EA50194010E94ED
:100BE0000E4E605DF7016083B901CA011F5FAACF95
:100BF0001F5F8193B5CF101303C08EE20E943205B0
:100C0000F70182917F010E9432051150BECF2091E1
:100C1000991840E020FF07C02BE832E441E25DE391
:100C20000E94D74C41E00C945D052091991843E057
:100C300020FF07C02BE832E441E25DE30E94D74C7D
:100C400044E00C945D050F931F93CF938C01C0E09B
:100C5000F80161917191819191918F010E94150626
:100C6000C33019F08CE20E943205CF5FC43081F7A7
:100C7000CF911F910F9108958F929F92AF92BF9243
:100C8000CF92DF92EF92FF920F931F93CF93DF9358
:100C900000D000D000D01F92CDB7DEB7611571052E
:100CA00081059105A9F480E32A960FB6F894DEBF7A
:100CB0000FBECDBFDF91CF911F910F91FF90EF90AD
:100CC000DF90CF90BF90AF909F908F900C943205A3
:100CD00000E09E012F5F3F4F79012AE0822E912C88
:100CE000A12CB12C6701C00ED11CA50194010E945A
:100CF0000E4EF6016083B901CA010F5F61157105DF
:100D00008105910579F70E0D1F2D111DE016F106D5
:100D100099F42A960FB6F894DEBF0FBECDBFDF91CF
:100D2000CF911F910F91FF90EF90DF90CF90BF90E8
:100D3000AF909F908F900895F80182918F01805D10
:100D40000E943205E3CFCF92DF92EF92FF9297FF9E
:100D50000CC06B017C018DE20E943205662777276B
:100D6000CB016C197D098E099F09FF90EF90DF90F0
:100D7000CF900C943C06CF93DF93843658F06AE012
:100D80000E94E04DC0E3C90F6AE00E94E04DD0E34D
:100D9000D90F04C0C0E0D0E08A30B0F7805D0E9477
:100DA0003205DD2319F08D2F0E943205CC2329F066
:100DB0008C2FDF91CF910C943205DF91CF91089564
:100DC000CF93DF93EC01FE0184912196811103C042
:100DD000DF91CF9108950E943205F5CF86E494E02B
:100DE0000C94E006CF93C82F82E694E00E94E006C0
:100DF0008C2F0E94BB06CF910C94EE06882321F025
:100E0000823031F00C94F20687E794E00C94E0060F
:100E10000895CF92DF92EF92FF92CF93DF93D82F76
:100E20006A017B01C22F84E20E9432058D2F0E944D
:100E3000BB068DE30E9432054C2FC701B6010E940C
:100E40005D05DF91CF91FF90EF90DF90CF900C94F4
:100E5000EE06EF92FF920F931F93CF93DF9302EB77
:100E600018E1C2EDD0E0EE24E394EC0E82E0F82E1F
:100E7000FC0EF801D130C9F0D230F1F0408151813F
:100E80006281738123E08C2F0E940907DF5FD330DA
:100E900081F7CD5F0C5F1F4FC43E21F7DF91CF91EB
:100EA0001F910F91FF90EF900895408D518D628DAD
:100EB000738D23E08E2DE8CF40A951A962A973A9B3
:100EC00023E08F2DE1CFCF93DF93D82FC62F84E27D
:100ED0000E9432058D2F0E94BB068DE30E943205D1
:100EE0008C2F0E94BB06DF91CF910C94EE06EF92FF
:100EF000FF920F931F93CF93DF936091841870E05C
:100F000080E00E9463076091871870E081E00E9492
:100F100063076091851870E082E00E94630760912A
:100F2000861870E083E00E9463076091991862FB65
:100F3000662760F970E084E00E9463076091991869
:100F400066FB662760F970E085E00E946307809188
:100F50009918082E000C990B692F661F6627661FCB
:100F600070E086E00E9463076091881870E08AE074
:100F70000E9463074091891850918A1860918B18DC
:100F800070918C1823E08BE00E94090740918D1826
:100F900050918E1860918F187091901823E08CE01A
:100FA0000E94090760919918617070E08DE00E94BD
:100FB00063076091991865FB662760F970E084E12A
:100FC0000E9463076091991863FB662760F970E0DF
:100FD00085E10E946307609199186295617070E0E5
:100FE00086E10E94630760919A1870E087E10E9491
:100FF000630740919B1850919C1860919D187091C7
:101000009E1823E088E10E94090740919F185091A3
:10101000A0186091A1187091A21823E089E10E94A4
:1010200009076091A3187091A4188AE10E946307D0
:101030004091A5185091A6186091A7187091A81812
:1010400023E08BE10E94090740919118509192187A
:10105000609193187091941820E08EE10E94090726
:101060004091951850919618609197187091981822
:1010700020E08FE10E9409076091991866956170E0
:1010800070E080E20E94630794E6F92E10E0C4E16C
:10109000D8E100E0E02EEF0C123009F461C013300B
:1010A00009F46BC0113009F456C0488159816A8136
:1010B0007B8123E08E2D0E9409070F5F2496073065
:1010C00049F78AE0F80E1F5FECE8FE12E0CF60916E
:1010D000A91870E088EC0E9463074091AA1850910B
:1010E000AB186091AC187091AD1823E089EC0E94A8
:1010F00009074091AE185091AF186091B0187091E7
:10110000B11823E08AEC0E94090702EB18E1C2ED56
:10111000D0E0EE24E394EC0E82E0F82EFC0EF80111
:10112000D130A1F1D230C9F1408151816281738106
:1011300023E08C2F0E940907DF5FD33081F7CD5F5A
:101140000C5F1F4FC43E21F7DF91CF911F910F918C
:10115000FF90EF9008954C8D5D8D6E8D7F8DA9CFA2
:1011600020E030E041E655E468AD79AD8AAD9BAD55
:101170000E947F4AAB01BC019CCFFE01EC5AFF4F9D
:101180004081518162817381705893CF408D518D20
:10119000628D738D23E08E2DCDCF40A951A962A918
:1011A00073A923E08F2DC6CF8DE50E9432050C94E4
:1011B000EE0688E594E00E94E00682E594E00E9455
:1011C000E0060C94D408CF93DF93CDB7DEB76C97CD
:1011D0000FB6F894DEBF0FBECDBF89E494E00E9445
:1011E000E0066FE57BE0CE0101960E940104CE018E
:1011F00001960E9423068AE30E94320580917817A7
:101200000E94BB060E94D4086C960FB6F894DEBF0D
:101210000FBECDBFDF91CF910895CF93DF93EC0147
:101220008991811103C0DF91CF9108950E94320509
:10123000F7CFEBE7FBE0A4EAB3E041915191619174
:1012400071914D935D936D937D938BE0E739F80732
:10125000A1F70895BF92CF92DF92EF92FF920F9382
:101260001F93CF93DF937C01FC01FE9600811181D7
:10127000D281C381FC0181A180FF33C060917B17C3
:1012800070E090E080E00E94294B2AE037ED43E2D5
:101290005CE30E94D74C9B01AC01B8018D2F9C2FC1
:1012A0000E94D74C8B01D82FC92F20E030E040E8B6
:1012B0005FE3B8018D2F9C2F0E94974C181624F0E5
:1012C00000E010E0D0E8CFE3B8018D2F9C2FDF9134
:1012D000CF911F910F91FF90EF90DF90CF90BF9033
:1012E000089582FD17C060917A1770E090E080E069
:1012F0000E94294B2AE037ED43E25CE30E94D74C81
:101300009B01AC01B8018D2F9C2F0E94D74C8B0103
:10131000D82FC92FF701B2ACC3ACD4ACF5AC98014F
:101320004D2F5C2F6B2D7C2D8D2D9F2D0E94754A8E
:1013300087FFBBCF0B2D1C2DDD2DCF2DB6CF809180
:10134000DF0B9091B815981739F026E4829FC00101
:1013500011248052944F089590E080E008950E94F7
:101360009F09892B19F082E00C94860308952F922F
:101370003F924F925F926F927F928F929F92AF9225
:10138000BF92CF92DF92EF92FF920F931F93CF9372
:10139000DF9300D01F92CDB7DEB70091B8150023C0
:1013A00009F486C009833981315039831091DE0BED
:1013B000131709F466C0C32ED12CE6E43E9FC0018A
:1013C00011249C012052344F7901F90172A483A4A5
:1013D00094A4A5A466A577A580A991A99B01AC01B9
:1013E0000E948049F70122A933A944A955A90E9466
:1013F000D74CB62EE72EF82E9B83262F372F482F5B
:10140000592F672D782D892D9A2D0E94754A87FFB7
:1014100003C0B72C7401AB8286E48C9DF0018D9DD6
:10142000F00D1124E052F44F8B2D9E2DAF2DBB817A
:1014300086A397A3A0A7B1A7F9818F2FF11101C0AF
:1014400084E2FF24FA94F80E3090DF0B1F1133C0B2
:10145000131102C00E943D04E6E41E9FC001112446
:101460008052944F9A83898333243394310EF4E26B
:101470003F1201C0312C86E4282E031185C0109341
:10148000DE0B0F900F900F900F90DF91CF911F9177
:101490000F91FF90EF90DF90CF90BF90AF909F9013
:1014A0008F907F906F905F904F903F902F90089516
:1014B00024E2298378CF298186E4289F9001112492
:1014C0002052344F3C832B8326E4E22E8F2C912C28
:1014D000FE9CC0011124FC01E052F44FFA83E98321
:1014E000F11002C094E2F92EFA94F31002C00E94A7
:1014F0003D04E89CC001E99C900D11249C01205200
:10150000344F6901F90142A453A464A475A4A30152
:10151000920166A177A180A591A50E94754A8823B2
:1015200039F1F60166A577A580A991A99B01AC01C7
:101530000E948049F60122A933A944A955A90E9415
:10154000D74CEB81FC8126A137A140A551A50E9473
:1015500080494B015C01AC019B01C301B2010E94B7
:10156000974CF60118165CF486A297A2A0A6B1A625
:1015700029813A813C832B831F11A8CF6DCF46A2CE
:1015800057A260A671A6F4CFC32CD12C329CC00107
:1015900011249C012052344F7901E981FA8146A03F
:1015A00057A060A471A4F90186A097A0A0A4B1A43B
:1015B000A5019401C301B2010E94754A87FF26C0AC
:1015C000E981FA8166A577A580A991A99B01AC0163
:1015D0000E948049E981FA8122A933A944A955A929
:1015E0000E94D74CA30192010E9480492B013C012B
:1015F000AC019B01C501B4010E94974C181634F44C
:10160000F70146A257A260A671A6132D2C9CF001EB
:101610002D9CF00D1124E052F44F22A533A544A5D2
:1016200055A566A177A180A591A50E94754A811153
:1016300001C0132D3394F4E23F1201C0312CFA8221
:10164000E9821BCF6F927F928F929F92AF92BF924F
:10165000CF92DF92EF92FF920F931F93CF93DF937E
:10166000EB018C015B018CE1A80EB11C89E9682EAD
:1016700096E7792E26E9822E3EE7932EC990D990DF
:10168000E990F99020E030E0A901C701B6010E947D
:10169000754A8823B9F0A7019601F801608171812C
:1016A000828193810E947F4A6B017C01E894F7F864
:1016B0009301A401C701B6010E94974C181614F0BB
:1016C000360147010C5F1F4FCA15DB05B9F6B301A0
:1016D000C401DF91CF911F910F91FF90EF90DF90A8
:1016E000CF90BF90AF909F908F907F906F90089514
:1016F0004F925F926F927F92AF92BF92CF92DF92A2
:10170000EF92FF920F931F93CF93DF936C01FB0136
:101710005A01A081A80FB92FB11D8C91ED018D3216
:1017200049F5229611968C9101E0512C612C10E024
:1017300020E030E0A9017E0190ED792E780E89E05D
:10174000871528F16394A8E0A615E8F05110115010
:10175000A5E0B0E00E94384E9B01AC01220F331F80
:10176000441F551F270D311D411D511D2196D701C5
:101770008C91E1CF8B3219F0219600E0D6CF2296E2
:1017800011968C91FACF5110F1CF1F5FEFCFBEEFC2
:101790007B1205C0511003C055245394E7CF662037
:1017A00009F17F01CA01B9010E94274B2B013C01BD
:1017B00020E030E0A9010E94754A81112EC000236B
:1017C00009F448C077FA709477F87094F501408274
:1017D000518262827382CC19DD09C150F701C08346
:1017E00066246394862DDF91CF911F910F91FF9016
:1017F000EF90DF90CF90BF90AF907F906F905F9011
:101800004F9008952AE037ED43E25CE3C301B20153
:101810000E94D74C2B013C011E5F1F3F9CF31F3FD2
:1018200059F42DEC3CEC4CEC5DE3C301B2010E9499
:10183000D74C2B013C01C3CF112309F220E030E04B
:1018400040E251E4C301B2010E94D74C2B013C019C
:101850001150F2CFD5014D925D926D927C9213970B
:10186000BACF93B18091991886FF9095992399F0FA
:1018700094FB882780F995FD826096FD8460292F6E
:10188000247092FD886091FD80612111806293FF38
:1018900003C08064089580E00895EBE6F0E0808165
:1018A0001082E8E6F0E080818E7F8083089584B125
:1018B00014B8809107018B7F809307018091080104
:1018C00084608093080185B18FEF85B99091991854
:1018D00093FF15C090916B0080936B00809168001E
:1018E00081608093680084B7877F84BF80916000A7
:1018F00088618093600081E08093600008950E9479
:101900004D0CF1CF811103C08098889A08958130E1
:1019100019F43898409A08956D98759A0895811130
:1019200002C0809A0895813011F4389A08956D9A12
:1019300008956BE77BE087EF93E00C940104F89443
:10194000F999FECF92BD81BD81E08FBB20B5862F76
:101950008227082E000C990B50E086239523892BB3
:1019600049F084E16F3F11F060BD84E08FBBF99ACC
:10197000789408952617E1F360BD84E2F7CF9F9233
:10198000AF92BF92CF92DF92EF92FF920F931F938D
:10199000CF93DF935C018A017B01E40EF51EEB011E
:1019A000912C6C01C61AD70ACE018C0D9D1D21E029
:1019B000911007C0292D990C330B232F221F2227AA
:1019C000221F6991962E920E0E949F0CCE15DF0564
:1019D00059F7692DC501800F911FDF91CF911F919C
:1019E0000F91FF90EF90DF90CF90BF90AF909F90BE
:1019F0000C949F0C6AE090E080E00E949F0C46E10E
:101A000051E064E178E181E090E00C94BF0CF99939
:101A1000FECF92BD81BD81E08FBB80B508959F92BE
:101A2000AF92BF92CF92DF92EF92FF920F931F93EC
:101A3000CF93DF935B018A017C01E40EF51EEC017C
:101A4000912C6B01C81AD90AC6018C0F9D1F0E94E8
:101A5000070D21E0911007C0292D990C330B232F7E
:101A6000221F2227221F982E920E8993CE15DF0562
:101A700059F7C501800F911F0E94070D21E030E04A
:101A8000891511F030E020E0C901DF91CF911F915D
:101A90000F91FF90EF90DF90CF90BF90AF909F900D
:101AA0000895EF92FF920F931F93CF93DF9300D08F
:101AB00000D01F921F92CDB7DEB79E012F5F3F4F20
:101AC0007901285F3F4FF701982F91709193869588
:101AD000E217F307C9F78F01F80182918F01805D4A
:101AE0000E943205E016F106B9F728960FB6F89471
:101AF000DEBF0FBECDBFDF91CF911F910F91FF9041
:101B0000EF9008954F925F926F927F92AF92BF9243
:101B1000CF92DF92EF92FF920F931F93CF93DF93B9
:101B2000EC015C012CE1A20EB11C8C01C12CD12C6A
:101B30007601F80141905190619071908F0120E001
:101B400030E0A901C301B2010E94754A882371F0F7
:101B5000A3019201C301B2010E94D74C9B01AC01C9
:101B6000C701B6010E9480496B017C010A151B0563
:101B700001F7C701B6010E94764D6B017C01AC01F3
:101B80009B0160E070E080E89FE30E947F4A2B01A8
:101B90003C0169917991899199915E01F4E0AF1AC4
:101BA000B108A30192010E94D74CF50160837183B3
:101BB00082839383C017D10761F7C701B601DF9114
:101BC000CF911F910F91FF90EF90DF90CF90BF903A
:101BD000AF907F906F905F904F900895E4EAF3E0AC
:101BE0008CE3DF011D928A95E9F71092DF0B1092CA
:101BF000B81581E0809397031092DE0B08954F9201
:101C00005F926F927F928F929F92AF92BF92CF928C
:101C1000DF92EF92FF926B017C018090951890907B
:101C20009618A0909718B0909818409091185090DE
:101C300092186090931870909418A3019201C501B6
:101C4000B4010E94974C87FF1BC060917C1770E025
:101C500090E080E00E94294B2AE037ED43E25CE30C
:101C60000E94D74CA70196010E94D74C6B017C01C2
:101C7000AC019B01C301B2010E94754A1816BCF069
:101C8000409280175092811760928217709283174A
:101C900080E094E0FF90EF90DF90CF90BF90AF9006
:101CA0009F908F907F906F905F904F900895A701C5
:101CB0009601C501B4010E94974C87FD1FC020E02A
:101CC00030E0A901C701B6010E94754A81110BC01D
:101CD000109280171092811710928217109283171A
:101CE00090E080E0D7CF8092801790928117A092E9
:101CF0008217B092831781E090E0CCCFC09280171A
:101D0000D0928117E0928217F0928317A501940177
:101D1000C701B6010E947F4920915A0B30915B0B9D
:101D200040915C0B50915D0B0E94D74C0E94644B1C
:101D300020E030E040E85FE30E9480490E94F84ADA
:101D4000CB01A8CF2F923F924F925F926F927F92DA
:101D50008F929F92AF92BF92CF92DF92EF92FF92BB
:101D60000F931F93CF93DF93CDB7DEB7C054D10944
:101D70000FB6F894DEBF0FBECDBF8091771780FD00
:101D800075C29091B9158091BA15981709F46EC271
:101D90008091711790917217892B09F07EC0109174
:101DA000771712FF7DC28091B81526E4829FC0018B
:101DB00011248052944F9093721780937117409121
:101DC0007117509172175E834D83452B09F44EC2F3
:101DD0000091411700FF67C21092411710925317EC
:101DE000109254171092551710925617AD81BE815C
:101DF0009E962D913D914D915C91D19729833A8387
:101E00004B835C8360E070E080E09FE30E947F4A48
:101E100069877A878B879C87ED81FE8142A853A8CA
:101E200064A875A886A097A0A0A4B1A411FF29C397
:101E3000F2E0F0935217A50194010E94D74C9B0148
:101E4000AC01C301B2010E947F496B017C0120E01B
:101E500030E0A9010E94754A87FF02C329813A81B7
:101E60004B815C81CA01B9010E948049A3019201A2
:101E70000E94D74C9B01AC01C501B4010E947F496F
:101E80000E94764D60935F1770936017809361177F
:101E900090936217186010937717E0910B16F8E093
:101EA000EF9FD0011124BA87A987FD01E554FA4EAE
:101EB0008091401784834090711750907217D2011F
:101EC000D296BC91BEA3F201F3A9FFA3D201D4968E
:101ED000BC91B8A7F201F5A9F9A720914E1730914E
:101EE0004F1740915017509151176EA17FA18B2F22
:101EF0009F2F0E947F496AAB7BAB8CAB9DAB20E0F0
:101F000030E0A9010E94754A87FF04C01AAA1BAAE3
:101F10001CAA1DAA209163172E8B309164173F8B4A
:101F200040916517488F50916617598F80915B17C4
:101F30008E8F90915C179F8FA0915D17A8A3B09191
:101F40005E17B9A3E0916717EAA7F0916817FBA79E
:101F5000209169172CA730916A173DA74091571718
:101F60004FAF5091581721965FAF21976090591746
:101F700070905A17809152178983909153179EA79A
:101F8000A0915417AFA7B0915517B8ABE091561771
:101F9000E9ABF0915F17FBAF209160172CAF309148
:101FA00061173DAF409162174EAF2AA53BA54CA5E6
:101FB0005DA56E897F89888D998D0E94754A8111F2
:101FC000EFC352E05EAB9EA19D83AFA1AD87B8A5E4
:101FD000B98BE9A5ED8B8EE3C82E83ECD82E8EE26B
:101FE000E82E89E3F82E1A8E1B8E1C8E1D8EA701FB
:101FF00096012AA33BA34CA35DA33981313009F498
:1020000049C4D201313008F4D3C3333009F075C468
:102010009E962D913D914D915C91D197C701B6014E
:102020000E94D74C4B015C0120E030E040E05FE3D0
:102030000E94D74C9B01AC016FAD21967FAD2197DB
:10204000C3010E947F49A70196010E94D74C6FAB44
:1020500078AF89AF9AAF9B01AC016D817D8589898D
:102060009D890E947F491B018C012E893F89488DE3
:10207000598D0E94754A87FD0CC020E030E0A9010F
:102080006FA978AD89AD9AAD0E94754A18160CF407
:1020900072C42E893F89488D598D6EA17FA188A574
:1020A00099A50E947F499B01AC010E9480496B0168
:1020B0007C012E8D3F8D48A159A16FAD21967FAD3A
:1020C0002197C3010E9480499B01AC01C701B60161
:1020D0000E947F4A6B017C01BE8DBFAFEF8D2196C0
:1020E000EFAF219768A079A02E883F88088D198DC1
:1020F000F1E0F983A70196016A8D7B8D8C8D9D8D12
:102100000E9480496A8F7B8F8C8F9D8F2AA13BA173
:102110004CA15DA10E94754A87FF67C42A8D3B8D43
:102120004C8D5D8D6AA17BA18CA19DA10E947F49F0
:102130006B017C019101A8016EA57FA588A999A9D1
:102140000E94754A87FD2FC38FAD21969FAD2197C1
:10215000D3018093571790935817A0935917B093B2
:102160005A17F981F0935217E0910C16F0910D1661
:1021700081A1811104C09091771793FF33C0D201E0
:1021800091969C91907309F45EC4F201EE5BFF4F4F
:10219000C080D180E280F3808823B9F020916B1752
:1021A00030916C1740916D1750916E176FAD21965D
:1021B0007FAD2197C3010E94D74C9B01AC01C701A1
:1021C000B6010E94D74C6B017C01C701B6010E9489
:1021D000FF0D9093701780936F1780917717877F0B
:1021E0008093771780916F1790917017E985FA8522
:1021F000E554FA4EFE83ED839783868320914A1738
:1022000030914B1740914C1750914D17B101C801B7
:102210000E94D74C2B013C010E945E4A6B017C015D
:102220006091461770914717809148179091491710
:102230000E945E4A4B015C01A70196010E947F4902
:102240000E94F84A69837A838B839C83E981FA81AF
:10225000AD81BE81ED93FC93EF2B09F001C4809119
:10226000771781FFFDC3816080937717C05CDF4FD4
:102270000FB6F894DEBF0FBECDBFDF91CF911F9197
:102280000F91FF90EF90DF90CF90BF90AF909F9015
:102290008F907F906F905F904F903F902F90089518
:1022A0000E949F0988CD809140178F5F893009F483
:1022B00080E080934017282F30E052E2859FC001D4
:1022C0001124DC01A25FB94E7D01B0930D16A093DD
:1022D0000C16ED81FE8180A190968C9390E080E0B9
:1022E0004191519161917191D701A80FB91F6894E3
:1022F00012F8440F551F661F771F1694D1F74D93A0
:102300005D936D937C93139704968C31910541F7FF
:10231000AD81BE815C966D917D918D919C915F9711
:10232000B2E2B29FA001B39F500D1124FA01E25F07
:10233000F94E4B015C0123E0880C991CAA1CBB1CC4
:102340002A95D1F7848E958EA68EB78E0E94274B44
:1023500060934617709347178093481790934917D7
:10236000ED81FE8122A933A944A955A90E947F4A83
:102370009B01AC0120934A1730934B1740934C17A5
:1023800050934D1760E070E080EA9FE30E947F4A1F
:1023900060934E1770934F17809350179093511777
:1023A000109242171092431710924417109245173B
:1023B00011FD02C003FF43C060915F177091601769
:1023C0008091611790916217609357177093581717
:1023D0008093591790935A179B01AC010E94D74CD8
:1023E000AD81BE8196966D937D938D939C939997C5
:1023F000077F00934117D70191961C9280919918FD
:1024000081FFECCCED81FE8181A185FFE7CCFE96BA
:10241000208131814281538160E070E080E89FE358
:102420000E947F4A60936B1770936C1780936D17AF
:1024300090936E17E1E0D7019196EC93CFCCED81AC
:10244000FE8166A177A180A591A50E94764D60933B
:102450005717709358178093591790935A17CBCFEB
:10246000C0925317D0925417E0925517F092561716
:1024700010925F17109260171092611710926217F6
:1024800009CD1092521740926317509264176092D0
:1024900065177092661712FF6AC010925F1710924C
:1024A00060171092611710926217C12CD12C76011F
:1024B0008D819E810E942A09698B7A8B8B8B9C8BE4
:1024C0009B01AC010E94D74C6D837E838F839887DC
:1024D000A50194010E94754A87FF93C02D813E811A
:1024E0004F815885C501B4010E947F4929853A85ED
:1024F0004B855C850E94D74C9B01AC01C301B201A6
:102500000E947F49609363177093641780936517E7
:102510009093661720E030E0A9010E94754A1816D2
:102520000CF449C032E03093521729813A814B8133
:102530005C81CA01B9010E948049A30192010E94F5
:10254000D74C9B01AC01C501B4010E947F490E9498
:10255000764D60935F177093601780936117909327
:1025600062178091411788608093411793CCE09166
:10257000DF0BEF5FE43209F4E0E08091B815C12C85
:10258000D12C76018E1751F026E42E9FF0011124F4
:10259000E052F44FC6A0D7A0E0A4F1A4C701B60151
:1025A0000E94764D60935F17709360178093611758
:1025B000909362177DCFA70196016D817E818F81F7
:1025C00098850E947F4929853A854B855C850E94C4
:1025D000D74C60936717709368178093691790932F
:1025E0006A1789899A89AB89BC8980935B17909314
:1025F0005C17A0935D17B0935E1793E0909352170A
:1026000049CCA7019601C501B4010E947F492985E3
:102610003A854B855C850E94D74CA30192010E94AC
:10262000804920E030E040E05FE30E94D74C6D87B6
:102630007E878F87988B20E030E0A9010E94974C1D
:1026400018160CF094C0A30192016D857E858F85CC
:1026500098890E94754A87FF88C0A70196016D81FD
:102660007E818F8198850E947F4929853A854B8597
:102670005C850E94D74C9B01AC0120936717309377
:1026800068174093691750936A176D857E858F850B
:1026900098890E94974C1816BCF529893A894B896C
:1026A0005C8920935B1730935C1740935D175093C0
:1026B0005E17A50194016D817E818F8198850E94AE
:1026C000754A811104C031E030935217E3CBA50164
:1026D00094016D817E818F8198850E947F49298533
:1026E0003A854B855C850E94D74C9B01AC01C301A8
:1026F000B2010E947F4960936317709364178093BF
:10270000651790936617C6CB8D859E85AF85B88972
:102710008093631790936417A0936517B09366171F
:102720008093671790936817A0936917B0936A17FF
:1027300029813A814B815C81CA01B9010E9480499B
:102740002D853E854F8558890E94D74CA70196015B
:102750000E9480490E94764D60935B1770935C17CE
:1027600080935D1790935E1795CB92E047CF809151
:102770005F1790916017A0916117B0916217109246
:102780006317109264171092651710926617809362
:102790005B1790935C17A0935D17B0935E177ACB8D
:1027A00081E08EAB10CC2D823D86098B1D8B25CC14
:1027B0009E962D913D914D915C91D197C701B601A7
:1027C0000E94D74C4B015C0120E030E040E05FE329
:1027D0000E94D74C2FAD21963FAD2197A3010E94B7
:1027E0008049A70196010E94D74C9B01AC016D81E5
:1027F0007D8589899D890E947F491B018C019B01F0
:10280000AC016E897F89888D998D0E94974C18162E
:1028100094F52E893F89488D598D6EA17FA188A599
:1028200099A50E947F499B01AC010E9480496B01E0
:102830007C012E8D3F8D48A159A16FAD21967FADB2
:102840002197C3010E9480499B01AC01C701B601D9
:102850000E947F4A6B017C01BEA9B983EE8DEFAF68
:10286000FF8D2196FFAF219768A079A02E883F8821
:10287000088D198D3FCCA50194016FAD21967FADD8
:102880002197C3010E9480496FAF21967FAF2197A6
:102890003C0130CC2E8D3F8D48A159A1C701B60116
:1028A0000E94D74C9B01AC016D817D8589899D89F2
:1028B0000E947F491B018C012AA53BA54CA55DA563
:1028C0000E94754A87FF16CC2AA53BA54CA55DA59D
:1028D0006D817D8589899D890E947F492E8D3F8DDF
:1028E00048A159A10E947F4A6B017C012AA43BA404
:1028F0000CA51DA522E02983FDCB9E962D913D912F
:102900004D915C91D197C701B6010E94D74C4B0104
:102910005C01AC019B016FAD21967FAD2197C30196
:102920000E94974C18168CF520E030E040E05FE301
:10293000C501B4010E94D74C9B01AC016FAD21963B
:102940007FAD2197C3010E947F49A70196010E9494
:10295000D74C9B01AC016D817D8589899D890E9441
:102960007F491B018C012EA53FA548A959A90E94AA
:10297000974C181654F4A50194016FAD21967FADC4
:102980002197C3010E947F497FCF2EA53FA548A96B
:1029900059A96D817D8589899D890E947F499B0107
:1029A000AC010E9480496B017C012BAD3CAD4DAD6B
:1029B0005EAD6FAD21967FAD2197C3010E94804926
:1029C0009B01AC01C701B6010E947F4A6B017C01EB
:1029D000BBADBFAFECAD2196EFAF21976DAC7EAC38
:1029E0002EA43FA408A919A985CB2AA93BA94CA9C3
:1029F0005DA9B101C8010E94974C18169CF42EE302
:102A000033EC4EE259E36AA17BA18CA19DA10E9407
:102A100080496AA37BA38CA39DA32A8D3B8D4C8DFB
:102A20005D8D84CB8FAD21969FAD2197D30180938F
:102A3000571790935817A0935917B0935A17298195
:102A40002093521791CB10928017109281171092F9
:102A50008217109283171092701710926F17BDCBC8
:102A600020914217309143174091441750914517D8
:102A70006A8D7B8D8C8D9D8D0E9480496D837E83B8
:102A80008F839887A3019201C501B4010E947F49F9
:102A90009B01AC016D817E818F8198850E947F4A68
:102AA0004B015C0120EC31EE44E65EE40E94D74C21
:102AB0000E945E4A0E94F84AE985FA85E554FA4E7A
:102AC000603D37E073078105910508F054C0158219
:102AD000E985FA85E554FA4E738362838091BA15CD
:102AE00080930B168F5F8A3009F47BC08093BA15F0
:102AF000E0917117F0917217C101D80182AB93ABCD
:102B0000A4ABB5ABC0924617D0924717E0924817D6
:102B1000F0924917A3019201C701B6010E947F49B3
:102B2000A50194010E94D74C6093421770934317FC
:102B30008093441790934517209153173091541761
:102B40004091551750915617B101C8010E94754A1E
:102B5000811117C990917717998320E030E0A9017E
:102B6000B101C8010E94974C1816F4F5A981A16023
:102B7000A09377177BCB603A4FE0740781059105EE
:102B800020F551E05583E985FA85E554FA4E258113
:102B9000022E04C096958795779567950A94D2F78B
:102BA00049815A8102C0440F551F2A95E2F751838B
:102BB00040836115710551E08507910508F488CFC0
:102BC0008FEF9FEF9383828389CF6034AFE17A07E1
:102BD0008105910518F4B2E0B583D5CF23E02583B4
:102BE000D2CF1092BA1584CFB981B2FF04C0B160C0
:102BF000B09377173BCB1092721710927117909188
:102C0000DF0B8091B815891709F4BBC881E0890FE3
:102C1000843209F480E02091DE0B921302C080938D
:102C2000DE0B8093DF0BADC8019708F40895EFE940
:102C3000FFE03197F1F700C00000F6CF80916F0000
:102C40008D7F80936F0080918100887F8160809369
:102C5000810010929A0B80918718909173178F3F83
:102C600049F420918517211105C0903829F490E08E
:102C70000C9414169430D9F70895CF93DF930E94E3
:102C80001E16E0E4F7E181E3DF011D928A95E9F782
:102C9000CBE9DBE083E4FE0111928A95E9F710921B
:102CA0007217109271171092B91510920B1681E0DD
:102CB0008093BA1510929A0B0E94BB048091990BD5
:102CC0008F8F82B181709091980B892B82B988B1D6
:102CD00081709091990B892B88B9DF91CF910895DC
:102CE000EF92FF920F931F93CF93DF93EC01FC01C0
:102CF00027E08FEF9FEF2150D9F48C017E0186E011
:102D0000E80EF11C89910E94FD04EC16FD06D1F736
:102D1000802F0E94FD04812F0E94FD0482E390E039
:102D2000DF91CF911F910F91FF90EF900C941416AB
:102D30003191832748E050E0BC0161707727969578
:102D40008795672B21F031E0832730EA93274150A4
:102D5000510991F7D0CFCF93DF9300D000D0CDB7FA
:102D6000DEB78091991881FF0EC08091A0008F7D01
:102D70008093A00026960FB6F894DEBF0FBECDBF9D
:102D8000DF91CF91089586E0E3E0F2E0DE01119655
:102D900001900D928A95E1F7CE0101960E9470167E
:102DA000E9CFCF92DF92EF92FF92CF93DF9300D0E3
:102DB00000D0CDB7DEB790917417911110C06A01A1
:102DC0007B01811119C01092801710928117109207
:102DD0008217109283170E94AB1610927E172696C8
:102DE0000FB6F894DEBF0FBECDBFDF91CF91FF903D
:102DF000EF90DF90CF900895909199189270803164
:102E000081F486E0E9E0F2E0992381F0809199185D
:102E100081FF17C0C701B6010E94FF0D0E94730415
:102E2000DCCF9111F3CF86E0EFE0F2E0DE01119606
:102E300001900D928A95E1F7CE0101960E947016DD
:102E4000E5CF20E030E040EC50E4C701B6010E943D
:102E50007F4A0E94F84A81E0898386E08A8380EF76
:102E60008B8388E08C837D836E83CE0101960E94E4
:102E70007016B3CFE1E0F1E080818061808383E070
:102E80008093A0008AE18093A10080E094E0909379
:102E9000A9008093A8002091951830919618409130
:102EA000971850919818609191187091921880918C
:102EB0009318909194180E947F499B01AC0160E0A7
:102EC00070EC8FE794E40E947F4A60935A0B7093F2
:102ED0005B0B80935C0B90935D0B0C94AB16809115
:102EE000841784FD1BC080E10E9486030E94AB16FC
:102EF00090917317892F8C7221F4809177178670C7
:102F000069F0943049F480918517811103C086E0FF
:102F10000E9476030C941E1683E0FACF08952F9238
:102F20003F924F925F926F927F928F929F92AF9259
:102F3000BF92CF92DF92EF92FF920F931F93CF93A6
:102F4000DF93CDB7DEB7C057D1090FB6F894DEBF17
:102F50000FBECDBF10918517112349F181E08093F9
:102F600073178BE193E00E94E006812F0E94BB065D
:102F70000E94EE0684EF91E00E9414161150123068
:102F800088F48DE394E00E94E0068DE294E00E94D4
:102F9000E0060E94D40880E10E947C03809184179F
:102FA00084FFFCCF8FB7F894109285178FBF1091D4
:102FB0008417112309F4B3C214FF1DC081E080936C
:102FC0007417C059DF4F0FB6F894DEBF0FBECDBFE8
:102FD000DF91CF911F910F91FF90EF90DF90CF90F5
:102FE000BF90AF909F908F907F906F905F904F9029
:102FF0003F902F90089510FFB1C18CE1EBE7FBE00B
:10300000DE01AB5ABF4F01900D928A95E1F7BE01E8
:103010006B5A7F4FCE01C9960E940104BE016B5AC4
:103020007F4FCE014D960E9401048CE30E94320531
:1030300080917317883009F4A2C008F086C08130EF
:1030400009F4A6C008F496C0823009F4A4C0843004
:1030500009F49BC080918818282F2170922E80FF40
:10306000B3C080917F17882309F4AEC08EE593E04A
:103070000E94E006CE01C9960E94230687E593E0F0
:103080000E94E006CE014D960E94230683E593E060
:103090000E94E0068091A9180E94BB068FE493E08D
:1030A0000E94E0066091EE037091EF038091F003BF
:1030B0009091F1030E9407068AE493E00E94E006E3
:1030C000609198037091990380919A0390919B036A
:1030D0000E94070684E493E00E94E00660919C034E
:1030E00070919D0380919E0390919F030E9407061B
:1030F0008EE393E00E94E0066091A0037091A1032B
:103100008091A2039091A3030E9407068AE393E0B3
:103110000E94E0066091EA037091EB038091EC035A
:103120009091ED0340E00E945D0586E393E00E94EC
:10313000E0068091E903803109F494C0803209F4FB
:1031400063C1811192C085E38EC08032D9F050F402
:10315000803109F07FCF8091751787FD13C08BE810
:1031600093E00AC08034D1F0803809F073CF85E64F
:1031700093E002C088E993E00E94E0066BCF81E90A
:1031800093E0FACF84E893E0F7CF8DE793E0F4CFB4
:1031900087E793E0F1CF81E793E0EECF8BE693E012
:1031A0000E94E0068091751783FF04C083E30E94AC
:1031B000320550CF82FF06C085FF02C081E3F7CF02
:1031C00080E3F5CF82E3F3CF40904B0450904C0462
:1031D00060904D0470904E0453E1C52E54E0D52EFE
:1031E000CE0101965C01FE017D967F0100E0F601B3
:1031F00061917191819191916F01208D318D428DFD
:10320000538D0E948049F50161937193819391934D
:103210005F01023021F5A30192010E948049698774
:103220007A878B879C87911015C0F5013497208190
:10323000318142815381F701608171818281938163
:103240000E947F49F70160837183828393830630F4
:1032500009F40CCF0F5FF4E0EF0EF11CC8CF9920FA
:1032600021F3F5CF83E30E94320582E393E00E94CD
:10327000E0068091E6038A5C0E94BB068091881874
:1032800081FF1DC08DE293E00E94E0069091B81589
:103290008091DF0B981708F4B9C08D5D891B0E94DF
:1032A000BB068CE20E943205809150079091510735
:1032B000981708F4ADC08250891B0E94BB060E947B
:1032C0009F09009791F0FC01C2A0D3A0E4A0F5A053
:1032D000C114D104E104F10441F088E293E00E94BA
:1032E000E006C701B6010E94A30683E293E00E94B4
:1032F000E006809173178C7709F48CC060915717A2
:10330000709158178091591790915A170E9407068B
:103310008CE20E9432056091801770918117809134
:1033200082179091831740E00E945D0580917F177E
:10333000882309F473C0815080937F1780917E1792
:10334000882309F47CC0815080937E178EE30E940D
:1033500032050E94EE0681E00E947C03812F887E68
:1033600009F48DC080917317982F937009F076C07F
:103370008872A9F080917517807C89F40E943D04C1
:1033800082E08093771780917317803241F480E256
:1033900017FD0CC080917517806880937517809118
:1033A0007317811103C091E09093751716FF07C042
:1033B00085FD05C09091751790649093751713FF64
:1033C00005C0807E19F480E18093731715FF46C015
:1033D0008DE394E00E94E0068BEE93E00E94E0060D
:1033E0000E94D4088091751787FD33C090917317A0
:1033F000903469F583FF04C0837E826080937517E3
:1034000080E48093731725C084E32DCF815046CF8D
:10341000815052CF60E070E0CB0178CF809173177C
:103420008C7759F08DE180937F1780917E17811101
:1034300085CF81E080937E1781CF89E0F4CF8091A2
:1034400073178C7711F083E17FCF89E07DCF9038BF
:10345000B9F68091751780628093751717FF0CC0BD
:1034600080917317813029F480917517856080935E
:10347000751780E88093731788EE0E947C0311FF14
:1034800028C0812F887611F580917317803441F41C
:103490008091751785FD04C084FFE4C010927317F6
:1034A00080917317882309F4E3C084FF0FC09091C3
:1034B000751790FF0BC0803109F0DAC080917D173D
:1034C000882309F4D5C0886080937D1782E00E942C
:1034D0007C0312FF24C09091751780917317807D33
:1034E00009F4DFC0809176178111DBC097FDDBC046
:1034F0000E943D048091DF0B8093DE0B0E94B70990
:103500008091771781FF05C0909175179160909316
:103510007517897F8093771784E00E947C039091D0
:103520008617992309F44CC08FB7F8941092861728
:103530008FBF40917A17842F90FD84E691FD865FBE
:1035400092FD8A5093FD8F5F94FD8150893C08F075
:1035500088EC8A3008F48AE030917B17232F95FDA0
:1035600024E696FD22E397FD29E1481302C02317C4
:1035700039F180937A1720937B1710927E17709001
:10358000DF0B6090B815172D89E9282E96E7392EA4
:1035900026E9422E3EE7532E46E4842E16119EC0A5
:1035A000C101D2018093DC039093DD03A093DE037D
:1035B000B093DF030E943D047092DE0B0E94B709B6
:1035C00090918717992309F445C08FB7F89410920A
:1035D00087178FBF20917C17822F90FD84E691FD85
:1035E000865F92FD8A5093FD8F5F94FD8150893CE8
:1035F00008F088EC8A3008F48AE0281749F0209116
:10360000771728602093771780937C1710927E1786
:103610008091731795FF09C0803139F420917D178F
:103620002111B2C022E020937D17292F207C91F038
:10363000882311F0887171F08091E80397FF03C02F
:1036400087FFA6C08F7796FF03C086FFA3C08F7B3E
:103650008093E803809173178C7F09F4B2CC0E94A9
:10366000A20EAFCC82FF1CCF88608093751718CF55
:10367000109277170E949F09892B71F0809175171E
:1036800086FD0AC01092751788E0809373170E9418
:10369000A20E0E9461041ACF109275171092731730
:1036A00015CF97FF0AC0109277170E94EE0D0E9467
:1036B0003D160E94990C0E9419098091751785FF8B
:1036C00008C08F7781608093751780E480937317AB
:1036D00023CF10927517109273171ECFA12EB12C05
:1036E000189DC00111248052944F0E942A09962EE1
:1036F000C72ED82E092F9101A2010E94974C8A9CB7
:1037000070018B9CF00C112497012052344F7901E9
:1037100018168CF59101A201B101C2010E94D74C8B
:10372000F70162A773A784A795A78A9CC0018B9C09
:10373000900D11249C012052344F7901F90126A8E3
:1037400037A840AC51ACA201910162A573A584A534
:1037500095A50E94974C18162CF4F70122A633A6C3
:1037600044A655A61F5F143209F410E0292C3C2C06
:103770004D2C502E13CF292D3C2D4D2D502F692D22
:103780007C2D8D2D902FCACF20FF4FCF24604BCFA3
:10379000806859CF80645CCFCF92DF92EF92FF9226
:1037A0000F931F93CF93DF930E948F17809175170C
:1037B000882309F460C00E949F090097D1F5C09149
:1037C000E9038091E803C82BC090EA03D090EB0393
:1037D000E090EC03F090ED038091991881FF03C015
:1037E00080E20E946403C073D1E080917517882342
:1037F00009F441C09091741791113DC080FF16C02B
:1038000090917317292F207C09F484C082FD1BC07E
:1038100010927D1740E050E0BA0180E00E94D1167E
:10382000809175178D7F8460809375170E948F1724
:10383000DCCFFC01C1A18E5B9F4FFC01C080D18019
:10384000E280F380C9CF903811F58DE394E00E94B7
:10385000E0068EE993E00E94E0060E94D40840E072
:1038600050E0BA0180E00E94D1160E941E1680919D
:103870007417882349F0DF91CF911F910F91FF902A
:10388000EF90DF90CF9008950E948F17F0CF903483
:1038900029F4909106018F7D80937517809175179B
:1038A00083FFC4CF9091E903992359F081FDBECFE6
:1038B0008091991881FF10C080917717886080935C
:1038C00077178091751781FDB1CF8061809375174F
:1038D00082E00E948603AACFB701A6018C2F0E9426
:1038E000D11601E510E00150110959F380917417C8
:1038F0008111E7CF0E948F178091751781FD96CFB8
:10390000FFEF20E782E0F15020408040E1F700C067
:103910000000E9CF80917D178823C9F181FF0DC098
:103920008091E903882351F140E050E0BA0180E042
:103930000E94D116D0937D1779CF8C7009F476CF81
:103940008091E903882399F08DE394E00E94E006DA
:1039500088EA93E00E94E0060E94D40880919918BA
:1039600081FF0FC0809177178860809377178091CF
:103970007D1783FF03C082E00E94860310927D17AB
:1039800055CFB701A6018C2F0E94D116F0CF8091A0
:10399000771783FF4BCFB701A6018C2F0E94D1165A
:1039A00080917717877F8093771740CF0E94AF0968
:1039B0000E94CC1B80917417811108C00E949F093E
:1039C000892BB1F780917317883091F30895CF93C5
:1039D000DF9321E031E0829FE001839FD00D11242D
:1039E000DD5F40E051E0BE018AE299E10E940F0DE7
:1039F000892B79F410922A190E94D61C40E051E0DC
:103A00006AE279E1CE010E94BF0C80E0DF91CF91A4
:103A1000089581E0FBCF0E94D61C10927F17089575
:103A2000CF92DF92EF92FF92CF93909173179230E3
:103A300079F06A017B01C82F0E94D61CB701A6014C
:103A40008C2FCF91FF90EF90DF90CF900C94D116F8
:103A5000CF91FF90EF90DF90CF9008950F931F9339
:103A6000CF93C82F8B010E94D61C2DE1C29FC001AD
:103A700011244CE150E0B8019E5FCF911F910F914E
:103A80000C94BF0C1F93CF93DF93182FEB018DE1A4
:103A9000189FB00111247E5F4CE150E0CE010E94DE
:103AA0000F0D892B71F48CE1FE0111928A95E9F7D3
:103AB000BE01812F0E942E1D80E0DF91CF911F91CA
:103AC000089581E0FACF8F929F92AF92BF92CF92EA
:103AD000DF92EF92FF920F931F93CF93DF93CDB7B7
:103AE000DEB76C970FB6F894DEBF0FBECDBF182FB0
:103AF00080FFDDC18AE08093841889E18093871874
:103B00001092851884E08093861882E0809388184C
:103B10008AE097EDA3E2BCE38093891890938A181A
:103B2000A0938B18B0938C188FE692E1A3E0BBE3CF
:103B300080938D1890938E18A0938F18B09390183F
:103B400080E090E4ACE9B6E48093911890939218E9
:103B5000A0939318B09394181092951810929618F9
:103B6000109297181092981810929A1880E090E08E
:103B7000A8ECB1E480939B1890939C18A0939D1897
:103B8000B0939E1880E090E0A6E1B4E480939F1883
:103B90009093A018A093A118B093A2188AEF90E078
:103BA0009093A4188093A31880E090E0A0E0B0E484
:103BB0008093A5189093A618A093A718B093A8185F
:103BC00088E18093991880E090E0A8ECB3E48093BA
:103BD000141890931518A0931618B0931718809383
:103BE000181890931918A0931A18B0931B18809363
:103BF0001C1890931D18A0931E18B0931F1880E0F6
:103C000090E0AAE7B5E48093301890933118A09320
:103C10003218B09333188093341890933518A093CA
:103C20003618B09337188093381890933918A093AA
:103C30003A18B0933B1880E098ECAFEAB9E480936F
:103C40004C1890934D18A0934E18B0934F18809332
:103C5000501890935118A0935218B0935318809312
:103C6000541890935518A0935618B093571880E0A5
:103C700090E0A8ECB3EC8093681890936918A09337
:103C80006A18B0936B1880936C1890936D18A0937A
:103C90006E18B0936F188093701890937118A0935A
:103CA0007218B093731881E08093A9181092AA1823
:103CB0001092AB181092AC181092AD181092AE186A
:103CC0001092AF181092B0181092B11832EBC32EA8
:103CD00038E1D32EF12CE12C812C912C40E8A42E3C
:103CE0004FEBB42EF60181929192A192B1926F01A5
:103CF000B70190E080E00E94274BF601648B758B42
:103D0000868B978B64A775A786A797A7FAE0EF0E17
:103D1000F11C8CE3E816F10429F7EAEFF8E12AE157
:103D200039E141E090EC80E44083118212821382F9
:103D300094838583168217829087818712861386E3
:103D400038962E173F0781F710921A1910921B19F7
:103D500010921C1910921D1910921E1910921F1901
:103D600010922019109221191092221910922319E1
:103D700010922419109225198FE195ECA1E3B3E478
:103D80008093201890932118A0932218B0932318A1
:103D900040E050E06AE775E440933C1850933D18CA
:103DA00060933E1870933F18C12C88ECD82E8FEA90
:103DB000E82E89E4F82EC0925818D0925918E09253
:103DC0005A18F0925B1880E090E0A8E4B3EC80937E
:103DD000741890937518A0937618B0937718812C67
:103DE000912C20EAA22E23E4B22E809224189092E5
:103DF0002518A0922618B092271840934018509387
:103E000041186093421870934318C0925C18D09286
:103E10005D18E0925E18F0925F1880937818909386
:103E20007918A0937A18B0937B18809228189092F2
:103E30002918A0922A18B0922B18C0926018D0921C
:103E40006118E0926218F0926318409344185093FE
:103E50004518609346187093471880937C18909388
:103E60007D18A0937E18B0937F1880922C189092A2
:103E70002D18A0922E18B0922F18C0926418D092CC
:103E80006518E0926618F0926718409348185093AE
:103E9000491860934A1870934B1880938018909338
:103EA0008118A0938218B09383180E94FA0C11FF16
:103EB0000FC0FE0131967F018CE111928A95E9F7DE
:103EC00000E0B701802F0E942E1D0F5F0830C9F758
:103ED00012FF14C060E080E093E00E949F0C60E05D
:103EE00081E093E00E949F0C60E081E094E00E94FA
:103EF0009F0C60E082E094E00E949F0C13FF0AC0D8
:103F000060E08EEA93E00E949F0C60E08FEA93E00D
:103F10000E949F0C6C960FB6F894DEBF0FBECDBF0B
:103F2000DF91CF911F910F91FF90EF90DF90CF9095
:103F3000BF90AF909F908F900895CF93C82F0E940D
:103F40008F0CC1111DC088988FE797E00197F1F79A
:103F500000C000008C2F0E94820CE7E1F1E0319755
:103F6000F1F700C00000C11111C08FB180958170C0
:103F7000E7E6F6E03197F1F700C00000CF91089531
:103F8000C13011F44098E0CF7598DECFC13011F404
:103F900086B1ECCF8CB185FB882780F991E0892729
:103FA000E7CF0F931F93CF93DF93C82F08E010E064
:103FB000D0E0D6958C2F0E948F0CC11120C088981C
:103FC00080E18A95F1F78C2F0E94820CE5E3EA9557
:103FD000F1F70000C11119C08FB18170E7ECF0E07A
:103FE0003197F1F700C000008111D068015011092C
:103FF00001F78D2FDF91CF911F910F910895C1305F
:1040000011F44098DDCF7598DBCFC13011F486B143
:10401000E4CF8CB185FB882780F9E0CF0F931F9305
:10402000CF93DF93C82FD62F08E010E08C2F0E948B
:104030008F0CD0FF1FC0C11117C088988AE18A95E4
:10404000F1F700C08C2F0E94820C8BED90E001975D
:10405000F1F700C00000D6950150110939F7DF9142
:10406000CF911F910F910895C13011F44098E6CF80
:104070007598E4CFC1110FC0889883E091E0019753
:10408000F1F700C000008C2F0E94820C9AE19A95F3
:10409000F1F700C0E0CFC13011F44098EECF759831
:1040A000ECCF8F929F92AF92BF92CF92DF92EF921E
:1040B000FF92CF93C82F61111AC00E949D1F8111DA
:1040C0000DC060E070E0CB01CF91FF90EF90DF90EA
:1040D000CF90BF90AF909F908F9008956CEC8C2FF5
:1040E0000E940E2064E48C2F0E940E20EACF44230D
:1040F00041F30E949D1F6CEC8C2F0E940E206EEBF2
:104100008C2F0E940E208C2F0E94D11FC82E8C2F26
:104110000E94D11FD82E0D2C000CEE08FF08C701FD
:10412000B601C1112FC00E94294B20E030E040E8C9
:104130005DE30E94D74C4B015C0120E030E040EA97
:1041400050E40E94974C181694F420E030E040EAC6
:1041500052E4C501B4010E94754A87FF08C08092ED
:10416000980390929903A0929A03B0929B03C7017F
:10417000B6010E94294B20E030E040E85DE30E9458
:10418000D74CA2CF0E94294B20E030E040E85DE30D
:104190000E94D74C4B015C0120E030E040EA50E443
:1041A000C130B9F40E94974C18160CF720E030E0AB
:1041B00040EA52E4C501B4010E94754A87FFD7CF97
:1041C00080929C0390929D03A0929E03B0929F03C5
:1041D000CECF0E94974C181654F620E030E040EA0B
:1041E00052E4C501B4010E94754A87FFC0CF809296
:1041F000A0039092A103A092A203B092A303B7CF11
:104200002F923F924F925F926F927F928F929F92E6
:10421000AF92BF92CF92DF92EF92FF920F931F93D4
:10422000CF93DF93CDB7DEB7C658D1090FB6F89458
:10423000DEBF0FBECDBFE9967FAF6EAFE997B090FE
:10424000B8152B2D30E0E3963FAF2EAFE39726E471
:10425000B29EA0011124BA016052744FEB967FAF59
:104260006EAFEB97DB011D922A95E9F7E996EEAD6B
:10427000FFADE9972485DB0191962C93FB01EE5B62
:10428000FF4FE996AEADBFADE99714964D915D91A4
:104290006D917C9117974083518362837383189645
:1042A0004D915D916D917C911B97EB96EEADFFADBD
:1042B000EB9742A353A364A375A321FFE9C12CE1AB
:1042C000EBE7FBE0DE01D99601900D922A95E1F72C
:1042D000E4968FAFE497E5969FAFE59724E138E148
:1042E000CD57DF4F39832883C358D040BE01635E6A
:1042F0007F4FCF57DF4F79836883C158D040CE01BD
:10430000C996C158DF4F99838883CF57D040EB9629
:10431000AEADBFADEB97EF96BFAFAEAFEF974E012F
:10432000B5E58B0E911CED969FAE8EAEED9710E02D
:1043300086E4E396EEADFFADE3978E9F10018F9F6D
:10434000300C112491012052344F1901B901645EDF
:104350007F4FCB57DF4F79836883C558D04070E2D9
:10436000270E311CE596AEADBFADE5976D917D9101
:104370008D919D91E596BFAFAEAFE597CD57DF4FDD
:10438000E881F981C358D04041905190619071907B
:10439000CD57DF4FF983E883C358D040A301920182
:1043A0000E94D74C0E94A44CCF57DF4FA881B981FF
:1043B000C158D0406D937D938D939D93CF57DF4F20
:1043C000B983A883C158D040C158DF4FE881F98133
:1043D000CF57D040C190D190E190F190C158DF4FBC
:1043E000F983E883CF57D0406C197D098E099F0966
:1043F0009B01AC0197FF07C022273327A901261B89
:10440000370B480B590BEF96AEADBFADEF972D9321
:104410003D934D935D93EF96BFAFAEAFEF97CB5704
:10442000DF4FE881F981C558D040C080D180E2805B
:10443000F380C216D306E406F50610F469017A018A
:10444000CB57DF4FA881B981C558D040CD92DD92BE
:10445000ED92FC9213970E94294BA30192010E94B6
:104460007F4AED96EEADFFADED9761937193819329
:104470009193ED96FFAFEEAFED9720E030E0A9010C
:104480000E94754A87FF07C0812F0E948704D101CF
:104490009C91892B8C931F5F173009F063CF80E0CC
:1044A000CD28CE28CF2809F4D9C0CE018B5A9F4FF2
:1044B0000E94820D6B017C0186E4E396EEADFFADB8
:1044C000E3978E9F80018F9F100D11240052144F8F
:1044D000D801D296CD92DD92ED92FC92D597BE0195
:1044E0006B5A7F4F8CE498E10E94220BF80166A77B
:1044F00077A780AB91ABBE016B5A7F4F80E398E109
:104500000E94220BD801DA966D937D938D939C9334
:10451000DD979196AC90025C1F4FA0FEBDC0F801E4
:1045200060837183828393838091DF0BB81611F0CF
:10453000A1FECDC086E4E3962EAD3FADE397829F0A
:10454000F001839FF00D1124E052F44F16A217A240
:1045500010A611A616AA17AA10AE11AE86E4E3960D
:10456000EEADFFADE3978E9F80018F9F100D11245C
:104570000052144FD80191968C9181FD6EC0EB963C
:104580008EAD9FADEB970E942A096B017C01809054
:10459000DC039090DD03A090DE03B090DF03AC015C
:1045A0009B01C501B4010E94754A87FF6DC1A50139
:1045B0009401C501B4010E94D74CF80162A773A70A
:1045C00084A795A786E4E396EEADFFADE3978E9FB3
:1045D00080018F9F100D11240052144FD801D696E0
:1045E0008D909D90AD90BC90D997A50194019A961D
:1045F0006D917D918D919C919D970E94974C18167D
:104600002CF4F80182A693A6A4A6B5A6C092DC035A
:10461000D092DD03E092DE03F092DF038CE1FE0135
:10462000EB5AFF4FA0ECB3E001900D928A95E1F7B1
:104630008CE1FE017D96A4EAB3E001900D928A958B
:10464000E1F7809197038093B8158F5F843209F466
:1046500080E0809397030E94B70981E0CA57DF4F3B
:104660000FB6F894DEBF0FBECDBFDF91CF911F9183
:104670000F91FF90EF90DF90CF90BF90AF909F9001
:104680008F907F906F905F904F903F902F90089504
:104690002CE1E4EAF3E016CEE996AEADBFADE997C2
:1046A0002D913D914D915C91A3FC06C0F8012083B2
:1046B00031834283538338CFC701B6010E94D74C60
:1046C000D8016D937D938D939C9313972DCF60ECC0
:1046D00073E0E9967FAF6EAFE9978E010F5F1F4FD2
:1046E00014017CE1270E311CC12CD12C760158011C
:1046F000E996EEADFFADE99781919191A191B191CC
:10470000E996FFAFEEAFE997E7968CAF9DAFAEAFFE
:10471000BFAFE797D4014D905D906D907D904D01B6
:10472000A3019201E7966CAD7DAD8EAD9FADE7978D
:104730000E94D74C9B01AC01C701B6010E947F4982
:104740006B017C01E7962CAD3DAD4EAD5FADE797BB
:10475000C301B2010E947F49F80161937193819373
:1047600091938F012814390419F62FEE3FEF4FE78C
:104770005FE3C701B6010E94974C18166CF486E4FB
:10478000E3962EAD3FADE397829FF001839FF00D3E
:104790001124E052F44FDECE2FEE3FEF4FE75FEBF8
:1047A000C701B6010E94754A87FF15C086E4E396EB
:1047B0006EAD7FADE397869FF001879FF00D1124CA
:1047C000E052F44F89E996E7A6E9BEE786AB97ABDE
:1047D000A0AFB1AFC3CEC5010E94820DB5018CE47C
:1047E00098E10E94220B4B015C01A701960160E059
:1047F00070E080E89FE30E947F4920E030E040E0E5
:104800005FE30E94D74C0E94764D6B017C012091A2
:10481000891830918A1840918B1850918C18C501D5
:10482000B4010E94D74CA70196010E94D74C4B01BE
:104830005C01A701960160E070E080E89FE30E94C0
:104840007F499B01AC01C501B4010E947F4A6B0105
:104850007C0120E030E0A9010E94754A87FF03C077
:10486000C12CD12C760186E4E396AEADBFADE397C3
:104870008A9FF0018B9FF00D1124E052F44FC6AADD
:10488000D7AAE0AEF1AE6ACEA7019601C701B60184
:104890000E94D74CD8019A966D937D938D939C93EB
:1048A0009D9790CEEF92FF921F93CF93DF93EC01F1
:1048B0007B018091991885FF22C0109173171032E7
:1048C00011F1CE010E948F038823C9F081E080930B
:1048D0007617183069F488E00E9486030E94CC1B8A
:1048E0008091741781110BC0809173178111F6CFDD
:1048F0000E946F1782E00E9476030E94CC1B809179
:1049000073178230C1F00E94CC1B80917417811103
:1049100012C09091DF0B80919703981303C00E94FF
:10492000AF09F1CFB701CE01DF91CF911F91FF9079
:10493000EF900C940021DF91CF911F91FF90EF90A9
:1049400008952F923F924F925F926F927F928F9233
:104950009F92AF92BF92CF92DF92EF92FF920F930E
:104960001F93CF93DF93CDB7DEB7E7970FB6F894D9
:10497000DEBF0FBECDBF90917417911116C18DABE4
:104980009E01235E3F4F3AAB29AB8DE0D9011D92CA
:104990008A95E9F786E089A724E1A22E28E1B22EC4
:1049A000FE01BA964F0110E000E0C12CD12C760137
:1049B000FDA92F2E312C802F0E94A104D4018D93AC
:1049C0004D01C101002E02C0959587950A94E2F72A
:1049D00080FF1BC020E030E040EC5FEBF501EC5ABB
:1049E000FF4F60817181828193810E94D74C762E26
:1049F000472E582E692EA70196010E94754A87FD01
:104A000004C0C72CD42CE52CF62C0F5F1F4FB4E04C
:104A1000AB0EB11C0730110571F680909F18909075
:104A2000A018A090A118B090A21894E0692E01E0FF
:104A30006BE77BE0CE0101960E94010480919A18F9
:104A4000E82FF0E0FCABEBABFE0131968BE7482E94
:104A50008BE0582E5FAA4EAA712C10E030E020E0C7
:104A6000B701A6017058C101022E02C09595879525
:104A70000A94E2F780FF28C07394AEA9BFA91D92E3
:104A80001D921D921C9213978BA99CA9022E02C005
:104A9000959587950A94E2F780FF07C0002339F0C7
:104AA000408351836283738306C00023C9F3C082AD
:104AB000D182E282F3828AE290E08C0F9D1F820F06
:104AC000931FDC018C91182B2F5F3F4F34968EA9DA
:104AD0009FA904969FAB8EAB2730310521F6672D39
:104AE00070E090E080E00E94274B0E94764D10938A
:104AF0007917A50194010E94D74C6D8F7E8F8F8FFF
:104B000098A3BE01635E7F4FCE0101960E940021F3
:104B100094E0909377170E94A20E0E9461040E9475
:104B2000CC1B0023E9F00E94310CFE01BA9630E064
:104B300020E090E06191462F412359F0AC01022E14
:104B400002C0559547950A94E2F740FF02C0609570
:104B500016232F5F3F4F2730310561F710937917E8
:104B60000E94A20E80918417847309F47AC0109178
:104B7000841714FF03C086E00E94760315FF03C06C
:104B800087E00E947603011182C00E94310CADA91A
:104B90008A2319F088E00E94760380918517882384
:104BA000E9F00E946F170E94CC1BE7960FB6F894AD
:104BB000DEBF0FBECDBFDF91CF911F910F91FF9050
:104BC000EF90DF90CF90BF90AF909F908F907F90AD
:104BD0006F905F904F903F902F90089584E00E94D7
:104BE0007C030E943D168091A3189091A4180E9406
:104BF0001416B1E00B27D1F120E030E040EA50E498
:104C00006091A5187091A6188091A7189091A81886
:104C10000E94D74C6B017C0180909B1890909C184F
:104C2000A0909D18B0909E186A94611001CF90E0FA
:104C300080E09101082E02C0359527950A94E2F78D
:104C400020FF05C0F20110821182128213820196A8
:104C5000F4E04F0E511C8730910559F710927717E9
:104C6000A4CF812F8E7F09F05ACFBBCFC090A5185B
:104C7000D090A618E090A718F090A81880909F18E0
:104C80009090A018A090A118B090A218CDCF12FFBC
:104C900084CF89E080CFCF93C82F0E944D0C8C2FFA
:104CA000C11104C084E00E94A12483E00E94A124D9
:104CB0000E94CC1B80917417811107C00E94990C2F
:104CC0000E941909CF910C94570CCF9108952F92FF
:104CD0003F924F925F926F927F928F929F92AF928C
:104CE000BF92CF92DF92EF92FF920F931F93CF93D9
:104CF000DF93CDB7DEB7C256D1090FB6F894DEBF49
:104D00000FBECDBF2C01E6E3F3E089E5DF011D9284
:104D10008A95E9F78AE0E0EEF3E0A7E3B3E00190DB
:104D20000D928A95E1F7F2018081843299F01EA6F6
:104D30001FAA312C212C27961FAE1EAE27971FAE1F
:104D40001FA61BAA88248394912C7CE9672E77E107
:104D5000772E5EC181E0809337031092380383E0A1
:104D60008EA7F1E0FFABE5CF0BAD01540A3110F097
:104D70000C94DF358F5F8EA7AE01465D5F4FBE019D
:104D8000625D7F4FC2010E94780B882311F40C945E
:104D9000E235CAA4DBA4ECA4FDA4C701B6010E94BD
:104DA000BA4D0E94F84A162FA62EB12CB5010B2C35
:104DB000000C880B990B0E94294B9B01AC01C70189
:104DC000B6010E947F4920E030E048EC52E40E94A6
:104DD000D74C0E94444D0E94F84ACB012BAD27349A
:104DE00009F426C02D3409F46FC1E02F000FFF0B2A
:104DF0008827E250F94D8F4F0C94304EB428E728A5
:104E0000F428012928270E292827282718292529A9
:104E100032293F29282743292827512928275B2978
:104E200065296F29282728272827A42AB12ABE2ADE
:104E3000183209F4E1C030F5143160F4113108F092
:104E40009BC0143009F475C0B0F01A3009F469C081
:104E500084E199C01C3109F464C040F41631C0F7F4
:104E600025E1211B2093390326E08AC01E3109F475
:104E700058C0163269F7ABA9A1110C94E535B2E020
:104E8000BBAB28C01D3309F4B2C0E0F4153309F4FC
:104E900050C088F41B3211F01133D1F6EBA9E111A7
:104EA0000C94E535113309F098C010923C0328E0CA
:104EB000F3E0FBAB50C01C3358F6165310933D0380
:104EC00029E05EC01C3510F51A3508F076C01035A3
:104ED00009F0BECF1093370321E0163209F050C01D
:104EE0008431910551F08E31910539F08832910568
:104EF00021F08233910509F0ABCF6AE070E00E94A7
:104F0000FA4D66576093370321E025C01C3549F000
:104F10001F3508F09DCF2EE5211B2093380325E097
:104F20002FC0009731F43BA931110C94E53541E0D5
:104F30004BAB10933603212F2D7F2C3119F020E03D
:104F40001C35F1F4009719F00A9709F081CF610F31
:104F50006093360320E0C40102C0880F991F2A9590
:104F6000E2F727962EAD3FAD279728233923232B31
:104F700009F444C085E107C0115110933B0322E0BE
:104F8000892B49F387E1CE59DF4F0FB6F894DEBF86
:104F90000FBECDBFDF91CF911F910F91FF90EF908A
:104FA000DF90CF90BF90AF909F908F907F906F9049
:104FB0005F904F903F902F900895892B29F41A55B8
:104FC00010933A0323E0C7CF6A30710509F040CF50
:104FD0001A3509F43DCF24E0BECF0A9709F038CF47
:104FE00021E020933C0328E033E03BABB4CF892B96
:104FF00009F02ECF2AE0AFCF27E0C2CF2796AEAD83
:10500000BFAD2797A82BB92B2796BFAFAEAF279779
:105010008EA5F201E80FF11D20812BAF2111A4CE46
:105020003FA5332329F04BA9411102C082E08BAB8D
:1050300025FE0FC08091620390916303A0916403E9
:10504000B091650381389649A849B10514F00C94D4
:10505000F135FFA9FF2309F49EC220FEAEC2809164
:1050600039038130B1F423E333E34BEC51E4609135
:1050700041037091420380914303909144030E9445
:10508000D74C609341037093420380934303909302
:10509000440330FC10C08091EA039091EB03A0918F
:1050A000EC03B091ED0380936E0390936F03A09394
:1050B0007003B093710380913603843009F098C275
:1050C00026FC94C28CE15FCF892B09F05BCF1630B0
:1050D00050F4133080F01430C1F080E11530B1F499
:1050E0001092400315C01A3078F11E3109F0B0CE8D
:1050F00010933E0304C0112321F01130C9F78BE057
:1051000008C083E080933E03FACF80E2809340039F
:105110008CE0F40102C0EE0FFF1F8A95E2F7CF0189
:1051200027962EAD3FAD27972E233923232B09F049
:1051300021CF27962EAD3FAD27972E2B392B2796C3
:105140003FAF2EAF279764CF183039F0193049F0B0
:1051500080E8173019F08DE0DCCF80E480933F03C6
:10516000FACF10923F03F7CFC0927F03D092800313
:10517000E0928103F09282033FA538603FA78DE063
:105180008401082E02C0000F111F0A94E2F7980153
:1051900022213321232B11F00C94EB35E1E6F3E0CF
:1051A00002C0F595E7958A95E2F7E0FF0DC020E093
:1051B00030E0A9016AA57BA58CA59DA50E94754A32
:1051C00087FF02C00C94EE35202A312A21CFC092ED
:1051D0008303D0928403E0928503F09286034FA567
:1051E00040614FA78EE0CCCFC0928703D092880356
:1051F000E0928903F0928A038FA580628FA78FE0E7
:10520000BFCFC0928B03D0928C03E0928D03F092BB
:105210008E039FA590649FA780E1B2CFC092410307
:10522000D0924203E0924303F092440380E0A8CF7F
:10523000C0924503D0924603E0924703F0924803A0
:10524000AFADA160AFAF81E09BCFC0924903D092D8
:105250004A03E0924B03F0924C03BFADB260BFAF84
:1052600082E08ECFC0924D03D0924E03E0924F0366
:10527000F0925003EFADE460EFAF83E081CF109385
:10528000610384E07DCFC701B6010E94F14A6093BB
:10529000620370936303809364039093650385E0D6
:1052A0006FCFC0926603D0926703E0926803F092DA
:1052B000690386E065CFC0926A03D0926B03E092E7
:1052C0006C03F0926D0387E05BCFC0926E03D092C7
:1052D0006F03E0927003F092710388E051CF20E0F9
:1052E00030E040E051E4C701B6010E94974C181627
:1052F00014F40C94E8358091A9188117C1F01111AC
:1053000018C00E9438360E94D61C1093A9180E941B
:10531000FA0C83E692E00E94E006612F70E090E0D4
:1053200080E00E94A30680E692E00E94E00689E009
:1053300027CF0E94383680E292E00E9467260E94C2
:10534000D61C8CE292E00E946726C501880F991F47
:10535000880F991F9C01205F374E5901F901E256D1
:10536000FF4F608171818281938140E058E10E940A
:105370006102F501EA54FF4F60817181828193815E
:105380004CEE57E10E946102FCEECF2EF7E1DF2EDA
:10539000DF92CF92A0E0EA2EA8E1FA2EFF92EF92E0
:1053A00084E392E09F938F937F926F920E945F4E6F
:1053B0008CE997E10E946726F501E253FF4F608177
:1053C00071818281938148E857E10E946102B8E8C7
:1053D000AB2EB7E1BB2EBF92AF92E3E4F2E0FF93B6
:1053E000EF937F926F920E945F4E8CE997E10E944B
:1053F00067260E94D61C84EF91E00E94141680E27A
:1054000092E00E9467260E94D61C85E592E00E94E9
:10541000672683E592E00E94E00680E592E00E9424
:10542000E00688E592E00E9467266091C6187091B8
:10543000C7188091C8189091C918A7010E946102ED
:105440006091DE187091DF188091E0189091E1185A
:10545000A6010E946102DF92CF92FF92EF928AE64C
:1054600092E09F938F937F926F920E945F4E8CE9A0
:1054700097E10E9467266091F6187091F718809165
:10548000F8189091F918A5010E946102BF92AF929D
:10549000EFE7F2E0FF93EF937F926F920E945F4EEF
:1054A0008CE997E10E94672681E992E00E946726D5
:1054B00086EA92E00E9467268BEA92E00E946726C5
:1054C0006BE77BE0CE0101960E940104C984DA8477
:1054D000EB84FC842091AE183091AF184091B01845
:1054E0005091B118C701B6010E947F492091AA18B6
:1054F0003091AB184091AC185091AD180E94804982
:1055000060934B0470934C0480934D0490934E042D
:105510006093AA187093AB188093AC189093AD1851
:10552000C092AE18D092AF18E092B018F092B118B5
:105530000E94FA0C88E592E00E9467260FB6F89464
:10554000DEBF0FBECDBFDFCEC0927303D092740317
:10555000E0927503F09276039FA591609FA78AE081
:105560000FCEC0927703D0927803E0927903F09245
:105570007A03AFA5A260AFA78BE002CEC0927B03F7
:10558000D0927C03E0927D03F0927E03BFA5B460CD
:10559000BFA78CE0F5CD80913803813081F42BA931
:1055A000223009F076CD80913703803509F471CD32
:1055B000882309F46ECD20FC6CCD86E1E4CC80918B
:1055C000E103811166CD20FC4ACD8091EE039091DC
:1055D000EF03A091F003B091F10380934103909306
:1055E0004203A0934303B093440353CDE89426F8B9
:1055F00080913B03882379F0813009F4C1C068961B
:105600001FAE689782E060968FAF609791E02E960C
:105610009FAF2E970BC032E068963FAF689741E08E
:1056200060964FAF60972E961FAE2E9780913903EC
:10563000813051F553E7E52E53E0F52E10E000E000
:10564000EFA5CE2ED12CC601002E02C095958795D0
:105650000A94E2F780FF10C023E333E34BEC51E4FC
:10566000D7016D917D918D919C910E94D74CF7014E
:1056700060837183828393830F5F1F4FF4E0EF0E8B
:10568000F11C07301105F9F62BA9233049F480915C
:105690003C03813029F43FA585E2343009F073CC16
:1056A0008CE1E3E1F4E0DE01119601900D928A9520
:1056B000E1F727968EAD9FAD279791FD6DC01091B4
:1056C00036031A3009F47CC01C3509F422C18BA9B9
:1056D0008330F1F19FA59923D9F100913A0380918C
:1056E0004B0490914C04A0914D04B0914E048BAFAB
:1056F0009CAFADAFBEAFB0EEAB2EB3E0BB2E83E739
:10570000C82E83E0D82EF12CE12C9FA5892E912C58
:10571000C4010E2C02C0959587950A94E2F780FD8E
:1057200063C1F5018789908DA18DB28DF6018083CB
:105730009183A283B383BFEFEB1AFB0AE4E0AE0EC2
:10574000B11CF4E0CF0ED11C27E0E216F10401F702
:105750001E3109F497C1153309F4BBC165E473E048
:1057600086E01C3109F02FC10E94421D882331F1CF
:105770003FA531118BC124961FAE24971BAAB1C03F
:10578000A1E06896AFAF689760961FAE6097B2E0F1
:105790002E96BFAF2E974ACF80913D03873010F0F1
:1057A0008DE1F1CB9091E603891709F488CFBE0112
:1057B0006F5F7F4F0E94421D811181CF87E0E3CB55
:1057C0009FA5911102C08AE1DECBC10180759927A6
:1057D000892B09F477CC60916603709167038091FF
:1057E0006803909169030E94BA4D0E94F84A67309D
:1057F000B8F680916103843129F0823009F028CB1A
:1058000027FC26CB662309F478C0615024966FAF3D
:10581000249765E473E024968FAD24970E94421D7F
:10582000882361F2B0916103BBAF40904B0450906C
:105830004C0460904D0470904E0446E3E42E43E027
:10584000F42E10E000E0EFA5CE2ED12CC601002EE4
:1058500002C0959587950A94E2F780FF37C0F7015B
:10586000FD9680809180A280B380FBADF43109F079
:105870004AC0F801EE0FFF1FEE0FFF1FE052FC4F72
:10588000DF01A15BBF4F2D913D914D915C916789E7
:10589000708D818D928D0E947F49A50194010E9497
:1058A0007F49D7011F966D937D938D939C9352975B
:1058B000023061F4A30192010E947F4960934D037D
:1058C00070934E0380934F03909350030F5F1F4FCD
:1058D000F4E0EF0EF11C0730110509F0B7CF2FEA05
:1058E0002222809137038BAF803509F0F9C09FA544
:1058F000992309F4FFC08FE146CBA0913D03249684
:10590000AFAF249786CFF7018786908AA18AB28AA3
:10591000DDCF3FA5332309F456CF40904B04509080
:105920004C0460904D0470904E0490EEA92E93E0CC
:10593000B92E8E010F5F1F4F23E7C22E23E0D22E18
:10594000F12CE12C832E912CC4010E2C02C09595D4
:1059500087950A94E2F780FF3AC0D8012D913D91D6
:105960004D915C91F5016789708D818D928D0E94BA
:105970007F49D6012D913D914D915C910E947F49C7
:10598000F6016083718382839383F2E0EF120CC08F
:10599000A30192010E947F4960937B0370937C0373
:1059A00080937D0390937E03FFEFEF1AFF0A24E0BC
:1059B000A20EB11C0C5F1F4F34E0C30ED11C47E098
:1059C000E416F10409F624961FAE24978ACFF50158
:1059D000E15BFF4F80819181A281B381F6018083D9
:1059E0009183A283B383E0CF153309F4A4CED6010B
:1059F0004D905D906D907C90011134C0F701EE0FD9
:105A0000FF1FEE0FFF1F21E030E02C0F3D1FE20FC4
:105A1000F31FD501A15BBF4F2D913D914D915C913D
:105A200060817181828193810E948049A3019201EA
:105A30000E948049D6016D937D938D939C9313971B
:105A4000B2E0EB1278CE2BAD3CAD4DAD5EAD0E9419
:105A5000804960937B0370937C0380937D039093D4
:105A60007E0369CEA3019201F5016789708D818D56
:105A7000928D0E948049D6016D937D938D939C9366
:105A8000139759CE65E473E087E06ECEA0EEB3E0E5
:105A9000E6E3F3E090E080E04FA5242F30E0A90199
:105AA000082E02C0559547950A94E2F740FD0AC0BA
:105AB00057964D915D916D917C915A974787508B88
:105AC000618B728B0196149634968730910539F765
:105AD0007ACF80913703823008F475CF8EE153CAB4
