:020000040000FA
:100000000C9467020C9488020C9488020C94880269
:100010000C9488020C9488020C9488020C94880238
:100020000C9488020C941D440C9488020C94483E55
:100030000C94DC430C94123E0C9488020C948802BD
:100040000C9488020C94A13E0C9488020C948802B3
:100050000C9488020C9488020C9488020C948B3EB9
:100060000C9488020C940B430C94B1430C948802BA
:100070000C9488020C9488020C9488020C948802D8
:100080000C9488020C9488020C9488020C946442AC
:100090000C94E3420C94B8420C9488020C948802AD
:1000A0000C9488020C9488020C9488020C948802A8
:1000B0000C9488020C9488020C9488020C943244AC
:1000C0000C9488020C9488020C9488020C94A04230
:1000D0000C9475420C9488020C9488020C9488024B
:1000E0000C948802084AD73B3BCE016E84BCBFFD0E
:1000F000C12F3D6C74319ABD56833DDA3D00C77FF8
:1001000011BED9E4BB4C3E916BAAAABE0000008090
:100110003F05A84CCDB2D44EB93836A9020C50B91F
:10012000918688083CA6AAAA2ABE000000803F004B
:100130000C94A34F0C94854A0C9444310C94942F46
:100140000C94BA2F0C9481430C94982F0C94BF4AB2
:100150000C947A2F0C9483430C94522D0C94E34FFF
:100160000C9451310C94872F0C94AE4F0C948B430C
:100170000C943C2F0C9428480C94974F0C94774384
:100180000C94794A0C94C54A0C94C64F0C945E3179
:100190000C946D2F0C949D4A0C9493430C948543BE
:1001A0000C94492F0C94814F0C947D430C94454F33
:1001B0000C94DA4F0C946D4A0C94A94A0C948D4F10
:1001C0000C944A4F0C94082F0C945E430C94C04F2F
:1001D0000C949D430C94424F0C948D430C946C4FA3
:1001E0000C944D4F0C94562F0C94914A0C947F4ACA
:1001F0000C94784F0C94B02F0C946F4F0C948F4349
:100200000C94AB4F0C94C42F0C9497430C94CF4F89
:100210000C9489430C94A62F0C9499430C949B4303
:100220000C94B74F0C94632F0C9495430C94574F38
:100230000C943C4F0C9475430C945F4F0C94874383
:100240000C94CB4A0C949F430C94B14A0C948B4A67
:100250000C94B94A0D0A00537461727420746F6F64
:100260006C2073657474696E67000D0A006E6F7799
:10027000546F6F6C3A00244E005B4F50543A005B51
:100280005645523A312E31652E32303137303131C8
:10029000343A005B5A706F733A005B544C4F3A002B
:1002A0005B4739323A003330003238005B47002078
:1002B0004700204D002053002046002054003338D2
:1002C0002E005B47433A47000D0A00537461727475
:1002D00020746F6F6C2073657474696E67000D0A0B
:1002E000005D005B746F6F6C5374617475733A20BA
:1002F000007D0D0A00273A007B27746F6F6C005D4C
:100300007D0D0A002C007B27746F6F6C4461746153
:10031000273A5B00416C61726D3A00536C65657001
:10032000696E6700526573746F72696E67207370CF
:10033000696E646C6500526573746F72696E6720D4
:1003400064656661756C74730050726F6772616D7D
:1003500020656E64656400436865636B206C696D3D
:1003600069747300436865636B20646F6F72004447
:10037000697361626C656400456E61626C656400FE
:1003800043617574696F6E3A20556E6C6F636B656F
:100390006400506C6561736520756E6C6F636B00F3
:1003A000506C65617365205265736574005B4D53D5
:1003B000473A000D0A005BE68EA2E992883A0031C6
:1003C0002E302E30005B76657273696F6E3A007C5A
:1003D00046533A007C4C6E3A007C42663A007C47B9
:1003E0003A007C4D3A007C533A007C41463A007C0E
:1003F0004C3A007C433A007C443A007C54443A0036
:100400007C523A007C52573A007C4C573A007C525E
:1004100046543A007C4C46543A007C53543A007C93
:10042000463A007C543A007C57506F733A007C4D3A
:10043000506F733A00536C65657000446F6F723A89
:1004400000436865636B00416C61726D00486F6DBD
:10045000696E67004D6F76696E67005061757365F0
:10046000004D6F76696E6700526561647900657250
:10047000726F723A005D002C002C002C002C002CB6
:10048000002C002C006E756C6C5D00277468726522
:100490006164272C002764696C6C272C0027636F2C
:1004A0006E65272C002762616C6C272C0027656E17
:1004B000646D696C6C272C005B000D0A0062656638
:1004C0006F7265546F6F6C3A006F6B0D0A001124E8
:1004D0001FBECFEFD1E2DEBFCDBF00E00CBF12E008
:1004E000A0E0B2E0EAE1F0EB00E00BBF02C0079051
:1004F0000D92A23EB107D9F728E1A2EEB2E001C009
:100500001D92A431B207E1F70E9402450C940B58EA
:100510000C9400002F923F924F925F926F927F92C5
:100520008F929F92AF92BF92CF92DF92EF92FF9203
:100530000F931F93CF93DF93CDB7DEB72E970FB6F0
:10054000F894DEBF0FBECDBF4B015C017A0120E005
:1005500030E0A9010E944B5110E087FF05C0B7FAB7
:10056000B094B7F8B09411E0C501B4010E94CE5127
:100570006B877C878D879E87112331F08DE2F70191
:100580008083C70101967C016B857C858D859E8566
:100590008E010F5F1F4F68013AE0232E312C412C52
:1005A000512C3801EFEF6E1A7E0AA20191010E94D0
:1005B000E454605DF8016083B901CA0183016115EB
:1005C00071058105910569F7D701F301CE16DF06A4
:1005D000E1F583010C191D090F5F1F4F0E0D1F1D43
:1005E0006B857C858D859E850E94FD519B01AC01AC
:1005F000C501B4010E94555093012C193D09E20E2A
:10060000F31E2EE2F7012083680124E0F22EFA9413
:10061000F1101EC0F80113822E960FB6F894DEBFBB
:100620000FBECDBFDF91CF911F910F91FF90EF9043
:10063000DF90CF90BF90AF909F908F907F906F9002
:100640005F904F903F902F90089582918D93BECFF1
:1006500020E030E040E251E40E94AD534B015C01E8
:100660000E94C75120E3260FF60121936F01072E48
:10067000000C880B990B0E94FF519B01AC01C50136
:10068000B4010E945550C3CF882361F0813061F0DE
:10069000823061F0833061F0843061F0853061F048
:1006A00082E0089584E0089588E0089580E1089547
:1006B00080E2089580E4089580E808952FB7F894C3
:1006C00090910F15892B80930F152FBF08952FB789
:1006D000F89490910E15892B80930E152FBF0895D5
:1006E0009FB7F894809312159FBF08959FB7F89411
:1006F0002091131580958223809313159FBF089531
:100700002FB7F89490911315892B809313152FBF51
:1007100008954F925F926F927F928F929F92AF92C5
:10072000BF92CF92DF92EF92FF920F931F93CF93DE
:10073000DF9380906416912C22E3A22E26E1B22E44
:100740008C01D0E0C0E0F501C190D190E190F19032
:100750005F0120E030E0A901C701B6010E944B51C2
:10076000882381F1F8014080518062807380C40148
:100770000C2E02C0959587950A94E2F720E030E0B0
:10078000A90180FF11C0C301B2010E944B5187FD36
:1007900009C0C701B6019058A30192010E944B51B4
:1007A00087FF10C081E016C0C301B2010E946D53E3
:1007B0001816C4F3A3019201C701B6010E946D533C
:1007C000181684F321960C5F1F4FC730D10509F02E
:1007D000BACF80E0DF91CF911F910F91FF90EF9002
:1007E000DF90CF90BF90AF909F908F907F906F9051
:1007F0005F904F9008958F929F92AF92BF92CF9249
:10080000DF92EF92FF920F931F93CF93DF93EB0151
:100810002EEDE22E25E1F22E8C016B018CE1C80E4B
:10082000D11C6991799189919991F7018190919069
:10083000A190B1907F010E94FF51A50194010E94F7
:100840005551F80161937193819391938F01CC1568
:10085000DD0539F7DF91CF911F910F91FF90EF9058
:10086000DF90CF90BF90AF909F908F900895CF93DF
:10087000DF93C0910915D0910A152097C9F0809196
:10088000D91481608093D9146091EF147091F014A1
:100890008091F1149091F2149B01AC010E94AD5330
:1008A0006EA37FA388A799A710920A151092091525
:1008B000DF91CF910895E3E3F9E080913009868FCD
:1008C00080914E168250990B880F8195858FEFE6A7
:1008D000F0E080818260808308952091631621FF7B
:1008E0000BC09093AB008093AA00892B31F48091C8
:1008F000A0008F7D8093A00008958091A000806269
:10090000F9CF882361F0813061F0823061F083306B
:1009100061F0843061F0853061F082E0089580E814
:10092000089580E4089580E2089580E1089588E0C4
:10093000089584E00895AF92BF92CF92DF92EF9234
:10094000FF920F931F93CF93DF93E0904F16F12CFC
:10095000C0905016D12CD0E0C0E010E000E0BC2EDA
:10096000AC2EC7010C2E02C0959587950A94E2F72C
:1009700080FF04C08C2F0E944403082BC60102C0D4
:1009800095958795AA94E2F780FF04C08B2D0E946D
:100990008104182B2196C730D10509F7009330093F
:1009A00010933109DF91CF911F910F91FF90EF903C
:1009B000DF90CF90BF90AF90089520910C09DC019B
:1009C00080E0861301C0089590910B092917D9F38F
:1009D000E92FF0E0E55FF74F30813D938F5F9F5F38
:1009E00090930B09EECF90910B0980910C09891718
:1009F00049F0E92FF0E0E55FF74F80819F5F90932A
:100A00000B0908958FEF0895E091090791E09E0F7B
:100A100020910A08291761F0F0E0E65FF84F808323
:100A2000909309078091D10080628093D10004C027
:100A30002091131524FFECCF0895E091050691E075
:100A40009E0F20910607291761F0F0E0EA5FF94F49
:100A50008083909305068091C90080628093C900CD
:100A600004C02091131524FFECCF0895E0910104F8
:100A7000DC0180E091E09E0F20910205291308C05F
:100A8000E09301049091C10090629093C100089599
:100A90002D91F0E0EE5FFB4F20838F5FE92F68130D
:100AA000E9CFEECFE091010491E09E0F2091020585
:100AB000291761F0F0E0EE5FFB4F80839093010413
:100AC0008091C10080628093C10004C02091131501
:100AD00024FFECCF0895109212099091631697FDB0
:100AE00003C09CE090931209882331F08091120991
:100AF0009CE089278093120908958F929F92AF926C
:100B0000BF92CF92DF92EF92FF920F931F93CF93FA
:100B1000DF93CDB7DEB72D970FB6F894DEBF0FBECB
:100B2000CDBF6B017C01042F20E030E0A9010E94C1
:100B30004B5187FF07C08DE20E945205F7FAF094EF
:100B4000F7F8F094102F123008F054C000FF0AC0DC
:100B500020E030E040E251E4C701B6010E94AD530D
:100B60006B017C0120E030E040E05FE3C701B601AB
:100B70000E9456500E94C75110E03AE0832E912CFB
:100B8000A12CB12CE12FF0E06115710581059105D3
:100B9000E9F581E090E08C0F9D1FE80FF91F80E3DD
:100BA000101708F445C0101309C0E1E0F0E0EC0FA5
:100BB000FD1FE10FF11D80E380831F5FEE24E394AE
:100BC000F12CEC0EFD1EE10EF11C111134C02D961E
:100BD0000FB6F894DEBF0FBECDBFDF91CF911F914E
:100BE0000F91FF90EF90DF90CF90BF90AF909F90CC
:100BF0008F90089520E030E048EC52E4C701B60140
:100C00000E94AD536B017C0112509DCFEE24E39402
:100C1000F12CEC0EFD1EEE0EFF1EA50194010E94AC
:100C2000E454605DF7016083B901CA011F5FAACF78
:100C30001F5F8193B5CF101303C08EE20E9452054F
:100C4000F70182917F010E9452051150BECF209181
:100C5000631640E020FF07C02BE832E441E25DE389
:100C60000E94AD5341E00C947D052091631643E052
:100C700020FF07C02BE832E441E25DE30E94AD5360
:100C800044E00C947D050F931F93CF938C01C0E03B
:100C9000F80161917191819191918F010E943506C6
:100CA000C33019F08CE20E945205CF5FC43081F747
:100CB000CF911F910F9108958F929F92AF92BF9203
:100CC000CF92DF92EF92FF920F931F93CF93DF9318
:100CD00000D000D000D01F92CDB7DEB761157105EE
:100CE00081059105A9F480E32A960FB6F894DEBF3A
:100CF0000FBECDBFDF91CF911F910F91FF90EF906D
:100D0000DF90CF90BF90AF909F908F900C94520542
:100D100000E09E012F5F3F4F79012AE0822E912C47
:100D2000A12CB12C6701C00ED11CA50194010E9419
:100D3000E454F6016083B901CA010F5F61157105C2
:100D40008105910579F70E0D1F2D111DE016F10695
:100D500099F42A960FB6F894DEBF0FBECDBFDF918F
:100D6000CF911F910F91FF90EF90DF90CF90BF90A8
:100D7000AF909F908F900895F80182918F01805DD0
:100D80000E945205E3CFCF92DF92EF92FF9297FF3E
:100D90000CC06B017C018DE20E945205662777270B
:100DA000CB016C197D098E099F09FF90EF90DF90B0
:100DB000CF900C945C06CF93DF93843658F06AE0B2
:100DC0000E94B654C0E3C90F6AE00E94B654D0E353
:100DD000D90F04C0C0E0D0E08A30B0F7805D0E9437
:100DE0005205DD2319F08D2F0E945205CC2329F0E6
:100DF0008C2FDF91CF910C945205DF91CF91089504
:100E0000CF93DF93EC01FE0184912196811103C001
:100E1000DF91CF9108950E945205F5CF2F923F9216
:100E20004F925F926F927F928F929F92AF92BF92FA
:100E3000CF92DF92EF92FF920F931F93CF93DF93A6
:100E4000EC01188129803A84CB84DC840D85EE8402
:100E5000FF84FE24EF24FE246C817D8176276727A2
:100E60007627072E000C880B990B0E94FF514B012F
:100E70005C0168857985762767277627072E000C21
:100E8000880B990B0E94FF512B013C0188EB94E0E9
:100E90000E940007133009F467C050F4113009F4C0
:100EA00060C085EA94E0123051F085E894E045C0D6
:100EB000143009F45CC08BE894E01530B1F70E945F
:100EC0000007822D0E94DB0683E894E00E94000761
:100ED00042E0C501B4010E947D0581E894E00E94D2
:100EE000000742E0C301B2010E947D058FE794E054
:100EF0000E940007832D0E94DB068DE794E00E948C
:100F000000078C2D0E94DB068BE794E00E9400070F
:100F10008D2D0E94DB0689E794E00E940007802F58
:100F20000E94DB0687E794E00E940007B70190E08B
:100F300080E00E945C0685E794E0DF91CF911F91ED
:100F40000F91FF90EF90DF90CF90BF90AF909F9068
:100F50008F907F906F905F904F903F902F900C9468
:100F600000078DEA94E0ABCF8DE994E0A8CF85E946
:100F700094E0A5CF83EB93E00C940007CF93C82FA8
:100F80008EE694E00E9400078C2F0E94DB06CF9132
:100F90000C94BA07882321F0823031F00C94BE07FC
:100FA00089EC94E00C9400070895CF92DF92EF92C1
:100FB000FF92CF93DF93D82F6A017B01C22F84E287
:100FC0000E9452058D2F0E94DB068DE30E94520580
:100FD0004C2FC701B6010E947D05DF91CF91FF9094
:100FE000EF90DF90CF900C94BA07EF92FF920F939F
:100FF0001F93CF93DF930CE716E1C2EDD0E0EE2410
:10100000E394EC0E82E0F82EFC0EF801D130C9F02A
:10101000D230F1F0408151816281738123E08C2FC5
:101020000E94D507DF5FD33081F7CD5F0C5F1F4F84
:10103000C43E21F7DF91CF911F910F91FF90EF9068
:101040000895408D518D628D738D23E08E2DE8CFF4
:1010500040A951A962A973A923E08F2DE1CFCF93B5
:10106000DF93D82FC62F84E20E9452058D2F0E9455
:10107000DB068DE30E9452058C2F0E94DB06DF9178
:10108000CF910C94BA07EF92FF920F931F93CF93D7
:10109000DF9360914E1670E080E00E942F0860910F
:1010A000511670E081E00E942F0860914F1670E0A9
:1010B00082E00E942F086091501670E083E00E9449
:1010C0002F086091631662FB662760F970E084E088
:1010D0000E942F086091631666FB662760F970E036
:1010E00085E00E942F0880916316082E000C990B52
:1010F000692F661F6627661F70E086E00E942F0832
:101100006091521670E08AE00E942F0840915316B9
:1011100050915416609155167091561623E08BE04D
:101120000E94D50740915716509158166091591654
:1011300070915A1623E08CE00E94D50760916316E7
:10114000617070E08DE00E942F086091631665FB6E
:10115000662760F970E084E10E942F0860916316B1
:1011600063FB662760F970E085E10E942F086091BB
:1011700063166295617070E086E10E942F086091AD
:10118000641670E087E10E942F0840916516509127
:101190006616609167167091681623E088E10E94D8
:1011A000D5074091691650916A1660916B1670913F
:1011B0006C1623E089E10E94D50760916D1670914D
:1011C0006E168AE10E942F0840916F16509170169A
:1011D000609171167091721623E08BE10E94D50721
:1011E00040915B1650915C1660915D1670915E1691
:1011F00020E08EE10E94D50740915F165091601665
:10120000609161167091621620E08FE10E94D5070F
:10121000609163166695617070E080E20E942F080D
:1012200094E6F92E10E0CEEDD5E100E0E02EEF0CD3
:10123000123009F461C0133009F46BC0113009F4A5
:1012400056C0488159816A817B8123E08E2D0E949E
:10125000D5070F5F2496073049F78AE0F80E1F5F25
:10126000ECE8FE12E0CF6091731670E088EC0E940B
:101270002F084091741650917516609176167091F2
:10128000771623E089EC0E94D5074091781650919B
:10129000791660917A1670917B1623E08AEC0E9491
:1012A000D5070CE716E1C2EDD0E0EE24E394EC0E96
:1012B00082E0F82EFC0EF801D130A1F1D230C9F154
:1012C000408151816281738123E08C2F0E94D50778
:1012D000DF5FD33081F7CD5F0C5F1F4FC43E21F736
:1012E000DF91CF911F910F91FF90EF9008954C8D5A
:1012F0005D8D6E8D7F8DA9CF20E030E041E655E415
:1013000068AD79AD8AAD9BAD0E945551AB01BC0172
:101310009CCFFE01EC5AFF4F408151816281738165
:10132000705893CF408D518D628D738D23E08E2D3B
:10133000CDCF40A951A962A973A923E08F2DC6CFB3
:101340008DE50E9452050C94BA0785EC93E00E944B
:1013500000078FEB93E00E9400070C94A009CF9345
:10136000DF93CDB7DEB76C970FB6F894DEBF0FBE34
:10137000CDBF86EB93E00E94000763E179E0CE01E8
:1013800001960E94FB03CE0101960E9443068AE368
:101390000E945205809139150E94DB068CE20E9462
:1013A0005205609178167091791680917A16909115
:1013B0007B160E9435060E94A0096C960FB6F89421
:1013C000DEBF0FBECDBFDF91CF910895CF93DF93E6
:1013D000EC018991811103C0DF91CF9108950E94A2
:1013E0005205F7CFE4E1F5E1AAE4B3E04191519170
:1013F000619171914D935D936D937D9385E1E033A0
:10140000F807A1F70895BF92CF92DF92EF92FF9273
:101410000F931F93CF93DF937C01FC01FE96008115
:101420001181D281C381FC0181A180FF33C0609111
:101430003C1570E090E080E00E94FF512AE037ED1B
:1014400043E25CE30E94AD539B01AC01B8018D2FD8
:101450009C2F0E94AD538B01D82FC92F20E030E084
:1014600040E85FE3B8018D2F9C2F0E946D53181642
:1014700024F000E010E0D0E8CFE3B8018D2F9C2FDE
:10148000DF91CF911F910F91FF90EF90DF90CF9060
:10149000BF90089582FD17C060913B1570E090E009
:1014A00080E00E94FF512AE037ED43E25CE30E94B6
:1014B000AD539B01AC01B8018D2F9C2F0E94AD5301
:1014C0008B01D82FC92FF701B2ACC3ACD4ACF5ACAB
:1014D00098014D2F5C2F6B2D7C2D8D2D9F2D0E9403
:1014E0004B5187FFBBCF0B2D1C2DDD2DCF2DB6CF44
:1014F0008091770990915013981739F026E4829FD4
:10150000C00111248858964F089590E080E0089516
:101510004F925F926F927F928F929F92AF92BF9203
:10152000CF92DF92EF92FF920F931F93CF93DF93AF
:10153000CDB7DEB7C057D1090FB6F894DEBF0FBEE6
:10154000CDBF8CE1E4E1F5E1DE01119601900D9251
:101550008A95E1F7BE016F5F7F4FCE014D960E94E5
:10156000FB03BE016F5F7F4FCE01C9960E94FB0354
:101570008CE30E94520580913415883009F40AC129
:1015800008F0EEC0813009F40EC108F4FEC08230CC
:1015900009F40CC1843009F403C180915216282F3C
:1015A0002170E22E80FF1BC180914015882309F431
:1015B00016C18EE294E00E940007CE014D960E9473
:1015C000430687E294E00E940007CE01C9960E947C
:1015D000430683E294E00E940007809173160E9404
:1015E000DB068FE194E00E9400076091A0037091F8
:1015F000A1038091A2039091A3030E9427068AE190
:1016000094E00E94000760918603709187038091A7
:101610008803909189030E94270684E194E00E9448
:10162000000760918A0370918B0380918C039091E5
:101630008D030E9427068EE094E00E9400076091CF
:101640008E0370918F0380919003909191030E947B
:10165000270689E094E00E9400076091501570E031
:1016600090E080E00E94FD510E94270684E094E013
:101670000E9400076091511570E090E080E00E94A8
:10168000FD510E94270680E094E00E9400076091CF
:10169000491570E090E080E00E94FD510E9427060D
:1016A0008BEF93E00E94000760914A1570E090E094
:1016B00080E00E94FD510E94270687EF93E00E9480
:1016C000000760914B1570E090E080E00E94FD51B2
:1016D0000E94270683EF93E00E94000760914C155B
:1016E00070E090E080E00E94FD510E9427068FEE9E
:1016F00093E00E94000760914D1570E090E080E05B
:101700000E94FD510E9427068AEE93E00E94000786
:1017100060914E1570E090E080E00E94FD510E94C3
:10172000270686EE93E00E94000760919C0370916B
:101730009D0380919E0390919F0340E00E947D0550
:1017400082EE93E00E94000780919B03803109F4B0
:1017500098C0803209F425C1811196C085E392C0FA
:101760008032D9F050F4803109F017CF80913615CE
:1017700087FD13C08BE594E00AC08034D1F0803837
:1017800009F00BCF85E394E002C088E694E00E9464
:10179000000703CF81E694E0FACF84E594E0F7CF29
:1017A0008DE494E0F4CF87E494E0F1CF81E494E019
:1017B000EECF8BE394E00E9400078091361583FF03
:1017C00004C083E30E945205E8CE82FF06C085FF75
:1017D00002C081E3F7CF80E3F5CF82E3F3CF4090FF
:1017E000FD035090FE036090FF037090000485ECB1
:1017F000A82E83E0B82E6E0185E5C80ED11C8E019F
:10180000075C1F4FF12C4601F501619171918191A7
:1018100091915F01208D318D428D538D0E945650E4
:10182000F60161937193819391936F01F2E0FF123E
:1018300025C0A30192010E945650F4016087718770
:1018400082879387E11016C0F60134972081318199
:1018500042815381F80160817181828193810E946C
:101860005550F8016083718382839383F6E0FF16FD
:1018700009F49FCEF3940C5F1F4FC6CFEE2021F3E7
:10188000F5CF83E30E9452058EED93E00E9400079E
:10189000809198038A5C0E94DB068091521681FF3A
:1018A0001EC089ED93E00E94000790915013809133
:1018B0007709981708F477C08D5D891B0E94DB06B5
:1018C0008CE20E94520580910306909104069817BD
:1018D00008F46BC0981B892F80950E94DB060E943C
:1018E000780A009791F0FC01C2A0D3A0E4A0F5A073
:1018F000C114D104E104F10441F084ED93E00E94AD
:101900000007C701B6010E94C3068FEC93E00E9456
:101910000007809134158C7709F44AC06091EF1468
:101920007091F0148091F1149091F2140E942706A6
:101930008CE20E9452056091411570914215809190
:1019400043159091441540E00E947D05809140151B
:10195000882391F181508093401580913F15882311
:10196000E1F1815080933F158EE30E9452050E9461
:10197000BA07C059DF4F0FB6F894DEBF0FBECDBF18
:10198000DF91CF911F910F91FF90EF90DF90CF905B
:10199000BF90AF909F908F907F906F905F904F908F
:1019A000089584E36FCF815088CF8150891B95CFF4
:1019B00060E070E0CB01BACF809134158C7759F09C
:1019C0008DE18093401580913F158111C6CF81E054
:1019D00080933F15C2CF89E0F4CF809134158C7786
:1019E00011F083E1BFCF89E0BDCF0E94780A892B37
:1019F00019F082E00C94800308952F923F924F9249
:101A00005F926F927F928F929F92AF92BF92CF928E
:101A1000DF92EF92FF920F931F93CF93DF9300D04B
:101A20001F92CDB7DEB700915013002309F486C092
:101A3000098339813150398310917609131709F4DC
:101A400066C0C32ED12CE6E43E9FC00111249C0148
:101A50002858364F7901F90172A483A494A4A5A44F
:101A600066A577A580A991A99B01AC010E9456505B
:101A7000F70122A933A944A955A90E94AD53B62E56
:101A8000E72EF82E9B83262F372F482F592F672DAF
:101A9000782D892D9A2D0E944B5187FF03C0B72CBA
:101AA0007401AB8286E48C9DF0018D9DF00D1124B4
:101AB000E858F64F8B2D9E2DAF2DBB8186A397A3A3
:101AC000A0A7B1A7F9818F2FF11101C084E2FF24F3
:101AD000FA94F80E309077091F1133C0131102C029
:101AE0000E943704E6E41E9FC00111248858964FD7
:101AF0009A83898333243394310EF4E23F1201C078
:101B0000312C86E4282E031185C0109376090F909E
:101B10000F900F900F90DF91CF911F910F91FF9039
:101B2000EF90DF90CF90BF90AF909F908F907F907D
:101B30006F905F904F903F902F90089524E22983FB
:101B400078CF298186E4289F900111242858364FA8
:101B50003C832B8326E4E22E8F2C912CFE9CC0012B
:101B60001124FC01E858F64FFA83E983F11002C012
:101B700094E2F92EFA94F31002C00E943704E89C14
:101B8000C001E99C900D11249C012858364F690131
:101B9000F90142A453A464A475A4A301920166A10F
:101BA00077A180A591A50E944B51882339F1F601B8
:101BB00066A577A580A991A99B01AC010E9456500A
:101BC000F60122A933A944A955A90E94AD53EB817E
:101BD000FC8126A137A140A551A50E9456504B017A
:101BE0005C01AC019B01C301B2010E946D53F6017F
:101BF00018165CF486A297A2A0A6B1A629813A8104
:101C00003C832B831F11A8CF6DCF46A257A260A69D
:101C100071A6F4CFC32CD12C329CC00111249C019D
:101C20002858364F7901E981FA8146A057A060A46F
:101C300071A4F90186A097A0A0A4B1A4A501940164
:101C4000C301B2010E944B5187FF26C0E981FA818E
:101C500066A577A580A991A99B01AC010E94565069
:101C6000E981FA8122A933A944A955A90E94AD535B
:101C7000A30192010E9456502B013C01AC019B0133
:101C8000C501B4010E946D53181634F4F70146A241
:101C900057A260A671A6132D2C9CF0012D9CF00D6F
:101CA0001124E858F64F22A533A544A555A566A1F1
:101CB00077A180A591A50E944B51811101C0132DE0
:101CC0003394F4E23F1201C0312CFA82E9821BCF37
:101CD0006F927F928F929F92AF92BF92CF92DF923C
:101CE000EF92FF920F931F93CF93DF93EB018C0141
:101CF0005B018CE1A80EB11C89E9682E96E7792E6C
:101D000026E9822E3EE7932EC990D990E990F9906A
:101D100020E030E0A901C701B6010E944B518823A1
:101D2000B9F0A7019601F8016081718182819381E8
:101D30000E9455516B017C01E894F7F89301A401CE
:101D4000C701B6010E946D53181614F03601470101
:101D50000C5F1F4FCA15DB05B9F6B301C401DF9153
:101D6000CF911F910F91FF90EF90DF90CF90BF9098
:101D7000AF909F908F907F906F9008954F925F9259
:101D80006F927F92AF92BF92CF92DF92EF92FF92CB
:101D90000F931F93CF93DF936C01FB015A01A08136
:101DA000A80FB92FB11D8C91ED018D3249F5229606
:101DB00011968C9101E0512C612C10E020E030E074
:101DC000A9017E0190ED792E780E89E0871528F122
:101DD0006394A8E0A615E8F051101150A5E0B0E01A
:101DE0000E940E559B01AC01220F331F441F551F4B
:101DF000270D311D411D511D2196D7018C91E1CF39
:101E00008B3219F0219600E0D6CF229611968C9154
:101E1000FACF5110F1CF1F5FEFCFBEEF7B1205C09D
:101E2000511003C055245394E7CF662009F17F0178
:101E3000CA01B9010E94FD512B013C0120E030E0B4
:101E4000A9010E944B5181112EC0002309F448C002
:101E500077FA709477F87094F5014082518262822B
:101E60007382CC19DD09C150F701C08366246394E5
:101E7000862DDF91CF911F910F91FF90EF90DF9012
:101E8000CF90BF90AF907F906F905F904F900895EC
:101E90002AE037ED43E25CE3C301B2010E94AD5397
:101EA0002B013C011E5F1F3F9CF31F3F59F42DEC9B
:101EB0003CEC4CEC5DE3C301B2010E94AD532B013D
:101EC0003C01C3CF112309F220E030E040E251E4AD
:101ED000C301B2010E94AD532B013C011150F2CF5E
:101EE000D5014D925D926D927C921397BACF93B1CA
:101EF0008091631686FF9095992399F094FB88272B
:101F000080F995FD826096FD8460292F247092FDF2
:101F1000886091FD80612111806293FF03C080641D
:101F2000089580E00895EBE6F0E080811082E8E615
:101F3000F0E080818E7F8083089584B114B8809111
:101F400007018B7F80930701809108018460809353
:101F5000080185B18FEF85B99091631693FF15C085
:101F600090916B0080936B008091680081608093FA
:101F7000680084B7877F84BF809160008861809308
:101F8000600081E08093600008950E94930FF1CF7C
:101F900027E030E090E0AC01022E02C05595479555
:101FA0000A94E2F7A09A40FF11C000000000000070
:101FB0000000000000000000000000000000A098E9
:101FC000000000002150310930F7089500000000A2
:101FD000A0980000000000000000000000000000C9
:101FE000000000000000EECF27E030E090E0AC0100
:101FF000022E02C0559547950A94E2F740FF1AC099
:1020000040910B01406440930B0100000000000070
:1020100000000000000000000000000000004091EF
:102020000B014F7B40930B01000000002150310950
:10203000F0F6089540910B01406440930B010000BD
:10204000000040910B014F7B40930B01000000000A
:102050000000000000000000000000000000000080
:10206000E5CFCF93DF93D82F862FC42F0E94F40F94
:102070008D2F0E94F40F8C2FDF91CF910C94F40FD1
:10208000811103C08098889A0895813019F4389896
:10209000409A08956D98759A0895811102C0809AAA
:1020A0000895813011F4389A08956D9A089564E185
:1020B00075E189EA93E00C94FB03F894F999FECF5B
:1020C00092BD81BD81E08FBB20B5862F8227082E6F
:1020D000000C990B50E086239523892B49F084E16D
:1020E0006F3F11F060BD84E08FBBF99A789408953A
:1020F0002617E1F360BD84E2F7CF9F92AF92BF92C3
:10210000CF92DF92EF92FF920F931F93CF93DF93C3
:102110005C018A017B01E40EF51EEB01912C6C0140
:10212000C61AD70ACE018C0D9D1D21E0911007C063
:10213000292D990C330B232F221F2227221F69914F
:10214000962E920E0E945D10CE15DF0559F7692D6F
:10215000C501800F911FDF91CF911F910F91FF90CB
:10216000EF90DF90CF90BF90AF909F900C945D1058
:102170006AE090E080E00E945D1046E351E06EED81
:1021800075E181E090E00C947D10F999FECF92BD4D
:1021900081BD81E08FBB80B508959F92AF92BF92C1
:1021A000CF92DF92EF92FF920F931F93CF93DF9323
:1021B0005B018A017C01E40EF51EEC01912C6B01A0
:1021C000C81AD90AC6018C0F9D1F0E94C51021E0B4
:1021D000911007C0292D990C330B232F221F222782
:1021E000221F982E920E8993CE15DF0559F7C5014F
:1021F000800F911F0E94C51021E030E0891511F079
:1022000030E020E0C901DF91CF911F910F91FF9045
:10221000EF90DF90CF90BF90AF909F900895EF9296
:10222000FF920F931F93CF93DF9300D000D01F92A4
:102230001F92CDB7DEB79E012F5F3F4F7901285F18
:102240003F4FF701982F917091938695E217F3070E
:10225000C9F78F01F80182918F01805D0E945205BC
:10226000E016F106B9F728960FB6F894DEBF0FBE58
:10227000CDBFDF91CF911F910F91FF90EF90089507
:10228000A29889988A988F98A5987398E2E0F1E0CF
:1022900080818F7D808380818F7B808310988B9855
:1022A0005F9808959A9A819A829A879A9D9A6B9AD2
:1022B000E1E0F1E0808188608083808180628083BA
:1022C000808180648083089A839A579A0C94401185
:1022D000E9ECF0E080818F7E808380818061808363
:1022E00080910C0980930B09EBE0F8E080E091E02D
:1022F000DF019C011D9221503040E1F70895EAE48E
:10230000F3E08CE3DF011D928A95E9F710927709DB
:102310001092501381E0809349031092760908953A
:102320004F925F926F927F92AF92BF92CF92DF9265
:10233000EF92FF920F931F93CF93DF93EC015C0119
:102340002CE1A20EB11C8C01C12CD12C7601F8011C
:1023500041905190619071908F0120E030E0A9018F
:10236000C301B2010E944B51882371F0A301920175
:10237000C301B2010E94AD539B01AC01C701B6017C
:102380000E9456506B017C010A151B0501F7C7011D
:10239000B6010E944C546B017C01AC019B0160E0D2
:1023A00070E080E89FE30E9455512B013C01699148
:1023B0007991899199915E01F4E0AF1AB108A30176
:1023C00092010E94AD53F5016083718382839383F0
:1023D000C017D10761F7C701B601DF91CF911F91F7
:1023E0000F91FF90EF90DF90CF90BF90AF907F90D4
:1023F0006F905F904F9008954F925F926F927F928F
:102400008F929F92AF92BF92CF92DF92EF92FF9204
:102410006B017C0180905F1690906016A090611611
:10242000B090621640905B1650905C1660905D16FE
:1024300070905E16A3019201C501B4010E946D5314
:1024400087FF1BC060913D1570E090E080E00E9426
:10245000FF512AE037ED43E25CE30E94AD53A70150
:1024600096010E94AD536B017C01AC019B01C3013D
:10247000B2010E944B511816BCF040924115509287
:102480004215609243157092441580E094E0FF90ED
:10249000EF90DF90CF90BF90AF909F908F907F9004
:1024A0006F905F904F900895A7019601C501B40108
:1024B0000E946D5387FD1FC020E030E0A901C701D5
:1024C000B6010E944B5181110BC010924115109220
:1024D0004215109243151092441590E080E0D7CF3A
:1024E0008092411590924215A0924315B0924415E6
:1024F00081E090E0CCCFC0924115D0924215E0929D
:102500004315F0924415A5019401C701B6010E943C
:10251000555020910E0930910F09409110095091AA
:1025200011090E94AD530E943A5220E030E040E889
:102530005FE30E9456500E94CE51CB01A8CF2F924C
:102540003F924F925F926F927F928F929F92AF9243
:10255000BF92CF92DF92EF92FF920F931F93CF9390
:10256000DF93CDB7DEB7C054D1090FB6F894DEBF04
:102570000FBECDBF8091381580FD75C2909151136B
:1025800080915213981709F46EC2809109159091A9
:102590000A15892B09F07EC01091381512FF7DC2F3
:1025A0008091501326E4829FC00111248858964FD1
:1025B00090930A15809309154091091550910A15B9
:1025C0005E834D83452B09F44EC20091D91400FF60
:1025D00067C21092D9141092EB141092EC1410925E
:1025E000ED141092EE14AD81BE819E962D913D9119
:1025F0004D915C91D19729833A834B835C8360E052
:1026000070E080E09FE30E94555169877A878B874D
:102610009C87ED81FE8142A853A864A875A886A076
:1026200097A0A0A4B1A411FF29C3F2E0F093EA148B
:10263000A50194010E94AD539B01AC01C301B201FD
:102640000E9455506B017C0120E030E0A9010E94FE
:102650004B5187FF02C329813A814B815C81CA01BA
:10266000B9010E945650A30192010E94AD539B01F3
:10267000AC01C501B4010E9455500E944C546093B6
:10268000F7147093F8148093F9149093FA14186067
:1026900010933815E091A313F8E0EF9FD0011124B7
:1026A000BA87A987FD01ED5AFC4E8091D814848326
:1026B0004090091550900A15D201D296BC91BEA344
:1026C000F201F3A9FFA3D201D496BC91B8A7F201FD
:1026D000F5A9F9A72091E6143091E7144091E81488
:1026E0005091E9146EA17FA18B2F9F2F0E9455500E
:1026F0006AAB7BAB8CAB9DAB20E030E0A9010E94C4
:102700004B5187FF04C01AAA1BAA1CAA1DAA20911C
:10271000FB142E8B3091FC143F8B4091FD14488F9D
:102720005091FE14598F8091F3148E8F9091F41470
:102730009F8FA091F514A8A3B091F614B9A3E091CE
:10274000FF14EAA7F0910015FBA7209101152CA713
:10275000309102153DA74091EF144FAF5091F01406
:1027600021965FAF21976090F1147090F2148091E0
:10277000EA1489839091EB149EA7A091EC14AFA763
:10278000B091ED14B8ABE091EE14E9ABF091F71411
:10279000FBAF2091F8142CAF3091F9143DAF40916C
:1027A000FA144EAF2AA53BA54CA55DA56E897F897D
:1027B000888D998D0E944B518111EFC352E05EAB21
:1027C0009EA19D83AFA1AD87B8A5B98BE9A5ED8B7F
:1027D0008EE3C82E83ECD82E8EE2E82E89E3F82E05
:1027E0001A8E1B8E1C8E1D8EA70196012AA33BA359
:1027F0004CA35DA33981313009F449C4D201313091
:1028000008F4D3C3333009F075C49E962D913D91E1
:102810004D915C91D197C701B6010E94AD534B0118
:102820005C0120E030E040E05FE30E94AD539B019B
:10283000AC016FAD21967FAD2197C3010E94555029
:10284000A70196010E94AD536FAB78AF89AF9AAFE5
:102850009B01AC016D817D8589899D890E945550C0
:102860001B018C012E893F89488D598D0E944B5147
:1028700087FD0CC020E030E0A9016FA978AD89ADDB
:102880009AAD0E944B5118160CF472C42E893F89E0
:10289000488D598D6EA17FA188A599A50E9455509C
:1028A0009B01AC010E9456506B017C012E8D3F8D27
:1028B00048A159A16FAD21967FAD2197C3010E9418
:1028C00056509B01AC01C701B6010E9455516B01E6
:1028D0007C01BE8DBFAFEF8D2196EFAF219768A031
:1028E00079A02E883F88088D198DF1E0F983A70122
:1028F00096016A8D7B8D8C8D9D8D0E9456506A8FBE
:102900007B8F8C8F9D8F2AA13BA14CA15DA10E9442
:102910004B5187FF67C42A8D3B8D4C8D5D8D6AA11D
:102920007BA18CA19DA10E9455506B017C0191015E
:10293000A8016EA57FA588A999A90E944B5187FD82
:102940002FC38FAD21969FAD2197D3018093EF14B4
:102950009093F014A093F114B093F214F981F093D2
:10296000EA14E091A413F091A51381A1811104C090
:102970009091381593FF33C0D20191969C9190733A
:1029800009F45EC4F201EE5BFF4FC080D180E280AB
:10299000F3808823B9F020910315309104154091FC
:1029A0000515509106156FAD21967FAD2197C30196
:1029B0000E94AD539B01AC01C701B6010E94AD530B
:1029C0006B017C01C701B6010E94FC1190930815B0
:1029D0008093071580913815877F809338158091F3
:1029E000071590910815E985FA85ED5AFC4EFE838E
:1029F000ED83978386832091E2143091E314409114
:102A0000E4145091E514B101C8010E94AD532B01AB
:102A10003C010E9434516B017C016091DE14709185
:102A2000DF148091E0149091E1140E9434514B0125
:102A30005C01A70196010E9455500E94CE51698306
:102A40007A838B839C83E981FA81AD81BE81ED938A
:102A5000FC93EF2B09F001C48091381581FFFDC371
:102A6000816080933815C05CDF4F0FB6F894DEBFED
:102A70000FBECDBFDF91CF911F910F91FF90EF90CF
:102A8000DF90CF90BF90AF909F908F907F906F908E
:102A90005F904F903F902F9008950E94780A88CDC4
:102AA0008091D8148F5F893009F480E08093D81426
:102AB000282F30E052E2859FC0011124DC01AA5585
:102AC000BC4E7D01B093A513A093A413ED81FE81AC
:102AD00080A190968C9390E080E04191519161911A
:102AE0007191D701A80FB91F689412F8440F551FB0
:102AF000661F771F1694D1F74D935D936D937C936A
:102B0000139704968C31910541F7AD81BE815C9697
:102B10006D917D918D919C915F97B2E2B29FA001E2
:102B2000B39F500D1124FA01EA55FC4E4B015C0194
:102B300023E0880C991CAA1CBB1C2A95D1F7848E13
:102B4000958EA68EB78E0E94FD516093DE14709311
:102B5000DF148093E0149093E114ED81FE8122A9AB
:102B600033A944A955A90E9455519B01AC0120935A
:102B7000E2143093E3144093E4145093E51460E0BE
:102B800070E080EA9FE30E9455516093E6147093D1
:102B9000E7148093E8149093E9141092DA141092D9
:102BA000DB141092DC141092DD1411FD02C003FF3F
:102BB00043C06091F7147091F8148091F9149091CA
:102BC000FA146093EF147093F0148093F1149093BF
:102BD000F2149B01AC010E94AD53AD81BE8196966B
:102BE0006D937D938D939C939997077F0093D91450
:102BF000D70191961C928091631681FFECCCED81F8
:102C0000FE8181A185FFE7CCFE9620813181428142
:102C1000538160E070E080E89FE30E94555160932B
:102C20000315709304158093051590930615E1E044
:102C3000D7019196EC93CFCCED81FE8166A177A16F
:102C400080A591A50E944C546093EF147093F014EA
:102C50008093F1149093F214CBCFC092EB14D092E6
:102C6000EC14E092ED14F092EE141092F71410921E
:102C7000F8141092F9141092FA1409CD1092EA1473
:102C80004092FB145092FC146092FD147092FE145A
:102C900012FF6AC01092F7141092F8141092F914EF
:102CA0001092FA14C12CD12C76018D819E810E9444
:102CB000030A698B7A8B8B8B9C8B9B01AC010E94E6
:102CC000AD536D837E838F839887A50194010E9405
:102CD0004B5187FF93C02D813E814F815885C5019F
:102CE000B4010E94555029853A854B855C850E9428
:102CF000AD539B01AC01C301B2010E9455506093DA
:102D0000FB147093FC148093FD149093FE1420E048
:102D100030E0A9010E944B5118160CF449C032E072
:102D20003093EA1429813A814B815C81CA01B9014F
:102D30000E945650A30192010E94AD539B01AC0129
:102D4000C501B4010E9455500E944C546093F71481
:102D50007093F8148093F9149093FA148091D91415
:102D600088608093D91493CCE0917709EF5FE432C7
:102D700009F4E0E080915013C12CD12C76018E171C
:102D800051F026E42E9FF0011124E858F64FC6A01A
:102D9000D7A0E0A4F1A4C701B6010E944C546093EF
:102DA000F7147093F8148093F9149093FA147DCF6C
:102DB000A70196016D817E818F8198850E94555073
:102DC00029853A854B855C850E94AD536093FF143D
:102DD00070930015809301159093021589899A8943
:102DE000AB89BC898093F3149093F414A093F514E9
:102DF000B093F61493E09093EA1449CCA70196019E
:102E0000C501B4010E94555029853A854B855C85E2
:102E10000E94AD53A30192010E94565020E030E081
:102E200040E05FE30E94AD536D877E878F87988B6C
:102E300020E030E0A9010E946D5318160CF094C0F8
:102E4000A30192016D857E858F8598890E944B51E3
:102E500087FF88C0A70196016D817E818F8198854B
:102E60000E94555029853A854B855C850E94AD535B
:102E70009B01AC012093FF14309300154093011582
:102E8000509302156D857E858F8598890E946D53BC
:102E90001816BCF529893A894B895C892093F3146B
:102EA0003093F4144093F5145093F614A501940153
:102EB0006D817E818F8198850E944B51811104C064
:102EC00031E03093EA14E3CBA50194016D817E815A
:102ED0008F8198850E94555029853A854B855C8560
:102EE0000E94AD539B01AC01C301B2010E94555039
:102EF0006093FB147093FC148093FD149093FE1464
:102F0000C6CB8D859E85AF85B8898093FB14909341
:102F1000FC14A093FD14B093FE148093FF149093BF
:102F20000015A0930115B093021529813A814B81B8
:102F30005C81CA01B9010E9456502D853E854F859E
:102F400058890E94AD53A70196010E9456500E94D5
:102F50004C546093F3147093F4148093F51490938D
:102F6000F61495CB92E047CF8091F7149091F81426
:102F7000A091F914B091FA141092FB141092FC1461
:102F80001092FD141092FE148093F3149093F41495
:102F9000A093F514B093F6147ACB81E08EAB10CCED
:102FA0002D823D86098B1D8B25CC9E962D913D91C2
:102FB0004D915C91D197C701B6010E94AD534B0171
:102FC0005C0120E030E040E05FE30E94AD532FADB4
:102FD00021963FAD2197A3010E945650A70196016B
:102FE0000E94AD539B01AC016D817D8589899D89CE
:102FF0000E9455501B018C019B01AC016E897F8999
:10300000888D998D0E946D53181694F52E893F89ED
:10301000488D598D6EA17FA188A599A50E94555014
:103020009B01AC010E9456506B017C012E8D3F8D9F
:1030300048A159A16FAD21967FAD2197C3010E9490
:1030400056509B01AC01C701B6010E9455516B015E
:103050007C01BEA9B983EE8DEFAFFF8D2196FFAF46
:10306000219768A079A02E883F88088D198D3FCCC4
:10307000A50194016FAD21967FAD2197C3010E94F8
:1030800056506FAF21967FAF21973C0130CC2E8DEB
:103090003F8D48A159A1C701B6010E94AD539B01C4
:1030A000AC016D817D8589899D890E9455501B01E8
:1030B0008C012AA53BA54CA55DA50E944B5187FF1D
:1030C00016CC2AA53BA54CA55DA56D817D8589897A
:1030D0009D890E9455502E8D3F8D48A159A10E9477
:1030E00055516B017C012AA43BA40CA51DA522E02F
:1030F0002983FDCB9E962D913D914D915C91D19769
:10310000C701B6010E94AD534B015C01AC019B01AC
:103110006FAD21967FAD2197C3010E946D531816A4
:103120008CF520E030E040E05FE3C501B4010E948F
:10313000AD539B01AC016FAD21967FAD2197C301CB
:103140000E945550A70196010E94AD539B01AC010E
:103150006D817D8589899D890E9455501B018C0157
:103160002EA53FA548A959A90E946D53181654F4DD
:10317000A50194016FAD21967FAD2197C3010E94F7
:1031800055507FCF2EA53FA548A959A96D817D85B2
:1031900089899D890E9455509B01AC010E9456501F
:1031A0006B017C012BAD3CAD4DAD5EAD6FAD21969D
:1031B0007FAD2197C3010E9456509B01AC01C7010E
:1031C000B6010E9455516B017C01BBADBFAFECADA8
:1031D0002196EFAF21976DAC7EAC2EA43FA408A939
:1031E00019A985CB2AA93BA94CA95DA9B101C801A0
:1031F0000E946D5318169CF42EE333EC4EE259E313
:103200006AA17BA18CA19DA10E9456506AA37BA3B9
:103210008CA39DA32A8D3B8D4C8D5D8D84CB8FAD72
:1032200021969FAD2197D3018093EF149093F014D2
:10323000A093F114B093F21429812093EA1491CB56
:103240001092411510924215109243151092441598
:103250001092081510920715BDCB2091DA14309109
:10326000DB144091DC145091DD146A8D7B8D8C8DC4
:103270009D8D0E9456506D837E838F839887A30116
:103280009201C501B4010E9455509B01AC016D81B2
:103290007E818F8198850E9455514B015C0120EC05
:1032A00031EE44E65EE40E94AD530E9434510E9428
:1032B000CE51E985FA85ED5AFC4E603D37E0730743
:1032C0008105910508F054C01582E985FA85ED5A0B
:1032D000FC4E73836283809152138093A3138F5F9C
:1032E0008A3009F47BC080935213E0910915F09164
:1032F0000A15C101D80182AB93ABA4ABB5ABC092A8
:10330000DE14D092DF14E092E014F092E114A301F5
:103310009201C701B6010E945550A50194010E9477
:10332000AD536093DA147093DB148093DC149093A4
:10333000DD142091EB143091EC144091ED14509178
:10334000EE14B101C8010E944B51811117C990912F
:103350003815998320E030E0A901B101C8010E942D
:103360006D531816F4F5A981A160A09338157BCB95
:10337000603A4FE074078105910520F551E05583CF
:10338000E985FA85ED5AFC4E2581022E04C09695FA
:103390008795779567950A94D2F749815A8102C03B
:1033A000440F551F2A95E2F751834083611571053B
:1033B00051E08507910508F488CF8FEF9FEF938345
:1033C000828389CF6034AFE17A078105910518F4D3
:1033D000B2E0B583D5CF23E02583D2CF109252132C
:1033E00084CFB981B2FF04C0B160B09338153BCB34
:1033F00010920A1510920915909177098091501337
:10340000891709F4BBC881E0890F843209F480E090
:1034100020917609921302C08093760980937709F0
:10342000ADC8019708F40895EFE9FFE03197F1F78F
:1034300000C00000F6CF80916F008D7F80936F00F9
:1034400080918100887F8160809381001092320991
:1034500080915116909134158F3F49F420911215A7
:10346000211105C0903829F490E00C94111A943081
:10347000D9F70895CF93DF930E941B1AE8EDF4E18A
:1034800081E3DF011D928A95E9F7C3E3D9E083E484
:10349000FE0111928A95E9F710920A15109209150A
:1034A000109251131092A31381E080935213109243
:1034B00032090E949B04809131098F8F82B1817003
:1034C00090913009892B82B988B18170909131092E
:1034D000892B88B9DF91CF910895EF92FF920F93D6
:1034E0001F93CF93DF93EC01FC0127E08FEF9FEF59
:1034F0002150D9F48C017E0186E0E80EF11C8991FF
:103500000E940405EC16FD06D1F7802F0E940405E9
:10351000812F0E94040582E390E0DF91CF911F91FB
:103520000F91FF90EF900C94111A3191832748E08E
:1035300050E0BC016170772796958795672B21F045
:1035400031E0832730EA93274150510991F7D0CFDA
:10355000CF93DF9300D000D0CDB7DEB78091631654
:1035600081FF0EC08091A0008F7D8093A0002696E1
:103570000FB6F894DEBF0FBECDBFDF91CF91089597
:1035800086E0E9E0F2E0DE01119601900D928A9565
:10359000E1F7CE0101960E946D1AE9CFCF92DF923A
:1035A000EF92FF92CF93DF9300D000D0CDB7DEB77C
:1035B00090913515911110C06A017B01811119C0DC
:1035C0001092411510924215109243151092441515
:1035D0000E94A81A10923F1526960FB6F894DEBFE7
:1035E0000FBECDBFDF91CF91FF90EF90DF90CF90D6
:1035F0000895909163169270803181F486E0EFE037
:10360000F2E0992381F08091631681FF17C0C70112
:10361000B6010E94FC110E946D04DCCF9111F3CF22
:1036200086E0E5E1F2E0DE01119601900D928A95C7
:10363000E1F7CE0101960E946D1AE5CF20E030E05F
:1036400040EC50E4C701B6010E9455510E94CE5192
:1036500081E0898386E08A8380EF8B8388E08C8396
:103660007D836E83CE0101960E946D1AB3CFE1E097
:10367000F1E080818061808383E08093A0008AE113
:103680008093A10080E094E09093A9008093A8002B
:1036900020915F163091601640916116509162162C
:1036A00060915B1670915C1680915D1690915E162C
:1036B0000E9455509B01AC0160E070EC8FE794E4F0
:1036C0000E94555160930E0970930F098093100961
:1036D000909311090C94A81A2F923F924F925F92E7
:1036E0006F927F928F929F92AF92BF92CF92DF9212
:1036F000EF92FF920F931F93CF93DF93CDB7DEB777
:103700002F970FB6F894DEBF0FBECDBF082F4B0129
:103710002DB73EB73F872E878CE0EBE1F2E0DE016C
:10372000119601900D928A95E1F70E94681110E0C0
:10373000180184E0220C331C8A95E1F733E03D87C1
:103740002E018DE0480E511C810102531A4E3801A2
:1037500094EF690E711C0B501F4F9E012F5F3F4F5E
:103760007901F70181917F010E941D05E414F504A0
:10377000C1F7F12CE12CF101EE0DFF1DEC54F94ED7
:1037800080810E941D05FFEFEF1AFF0A2EE0E2166E
:10379000F10489F7F301E080F8018081FE2CE82E26
:1037A000E80CF91C8F2D0E941D05FE2DFF70EF2ED9
:1037B0008F2F0E941D0585E50E941D05F301F082F3
:1037C000F801E08284E690E00E94111A0E94F3045E
:1037D0008A3A19F50E94F304CDB6DEB6A82EB12CB4
:1037E0002DB73EB72A193B090FB6F8943EBF0FBE5E
:1037F0002DBFEDB7FEB731967F01682FCF010E9434
:10380000DD04EA0CFB1CF70131978081853559F006
:103810000FB6F894DEBE0FBECDBEFD85F150FD871C
:10382000F1119BCF05C00FB6F894DEBE0FBECDBE22
:103830008E859F850FB6F8949EBF0FBE8DBF2F96C5
:103840000FB6F894DEBF0FBECDBFDF91CF911F91B1
:103850000F91FF90EF90DF90CF90BF90AF909F902F
:103860008F907F906F905F904F903F902F90089532
:103870005F926F927F928F929F92AF92BF92CF9200
:10388000DF92EF92FF920F931F93CF93DF9300D0BD
:1038900000D000D01F921F92CDB7DEB74C016DB69D
:1038A0007EB68BE0E7E2F2E0DE01119601900D9228
:1038B0008A95E1F70E94681183E0582E5E012CE0A2
:1038C000A20EB11C8E010F5F1F4FF80181918F0175
:1038D0000E941D05A016B106C1F784E690E00E9483
:1038E000111A0E94F3048A3A09F04BC00E94F304B3
:1038F000CDB6DEB6082F10E02DB73EB7201B310B3A
:103900000FB6F8943EBF0FBE2DBFEDB7FEB7319690
:103910007F01682FCF010E94DD040E0D1F1DF801ED
:1039200031978081853541F5F701369680E1D401E4
:1039300001900D928A95E1F70FB6F894DEBE0FBEA6
:10394000CDBE0FB6F8947EBE0FBE6DBE2B960FB6E1
:10395000F894DEBF0FBECDBFDF91CF911F910F91C5
:10396000FF90EF90DF90CF90BF90AF909F908F909F
:103970007F906F905F9008950FB6F894DEBE0FBEF3
:10398000CDBE5A9451109ECFDCCF4F925F926F9272
:103990007F928F929F92AF92BF92CF92DF92EF92DF
:1039A000FF920F931F93CF93DF93C0911215CC23F7
:1039B00049F181E08093341584E193E00E9400078F
:1039C0008C2F0E94DB060E94BA0784EF91E00E94D0
:1039D000111AC150C23088F48DEA93E00E940007AA
:1039E00080EA93E00E9400070E94A00980E10E9403
:1039F00076038091131584FFFCCF8FB7F894109253
:103A000012158FBFC0911315CC2309F4DBC0C4FF7E
:103A100014C081E080933515DF91CF911F910F91F4
:103A2000FF90EF90DF90CF90BF90AF909F908F90DE
:103A30007F906F905F904F900895C0FF05C00E94E7
:103A4000880A81E00E9476038C2F887E09F46AC080
:103A500080913415982F937009F053C08872A9F0A3
:103A600080913615807C89F40E94370482E080932F
:103A7000381580913415803241F480E2C7FD0CC0C6
:103A800080913615806880933615809134158111A8
:103A900003C091E090933615C6FF07C085FD05C0B1
:103AA00090913615906490933615C3FF05C0807EC3
:103AB00019F480E180933415C5FF23C08DEA93E0AB
:103AC0000E94000784E693E00E9400070E94A0097C
:103AD0008091361587FD10C090913415903451F4C3
:103AE00083FF04C0837E82608093361580E48093D8
:103AF000341502C09038D1F78091361580628093DA
:103B00003615C7FF0CC080913415813029F480919F
:103B1000361585608093361580E88093341588EEDD
:103B20000E947603C1FF28C08C2F887611F5809102
:103B30003415803441F48091361585FD04C084FF2E
:103B4000F4C01092341580913415882309F4F3C021
:103B500084FF0FC09091361590FF0BC0803109F0A3
:103B6000EAC080913E15882309F4E5C088608093FF
:103B70003E1582E00E947603C2FF24C09091361564
:103B800080913415807D09F4EFC080913715811143
:103B9000EBC097FDEBC00E943704809177098093BA
:103BA00076090E94FD0C8091381581FF05C0909127
:103BB0003615916090933615897F8093381584E08F
:103BC0000E94760390910E15992309F44DC08FB78A
:103BD000F89410920E158FBF40913B15842F90FDE5
:103BE00084E691FD865F92FD8A5093FD8F5F94FD80
:103BF0008150893C08F088EC8A3008F48AE03091E2
:103C00003C15232F95FD24E696FD22E397FD29E13F
:103C1000481302C0231741F180933B1520933C15B4
:103C200010923F158090770940905013C82D89E974
:103C3000B82E96E7E92E26E9F22EDEE736E4532E7B
:103C4000C411AFC08B2D9E2DAF2DBD2F809382034D
:103C500090938303A0938403B09385030E94370459
:103C6000809276090E94FD0C90910F15992309F41A
:103C700045C08FB7F89410920F158FBF20913D1556
:103C8000822F90FD84E691FD865F92FD8A5093FD20
:103C90008F5F94FD8150893C08F088EC8A3008F4ED
:103CA0008AE0281749F020913815286020933815AC
:103CB00080933D1510923F158091341595FF09C0F2
:103CC000803139F420913E152111C0C022E02093AB
:103CD0003E15292F207C91F0882311F0887171F016
:103CE00080919A0397FF03C087FFB4C08F7796FF38
:103CF00003C086FFB1C08F7B80939A0380913415F7
:103D00008C7F09F489CEDF91CF911F910F91FF90A5
:103D1000EF90DF90CF90BF90AF909F908F907F906B
:103D20006F905F904F900C949F1282FF0CCF886031
:103D30008093361508CF109238150E94780A892B87
:103D400071F08091361586FD0AC01092361588E014
:103D5000809334150E949F120E945B040ACF109238
:103D600036151092341505CF97FF0AC010923815FA
:103D70000E947F110E943A1A0E9457100E94F20975
:103D80008091361585FF08C08F7781608093361546
:103D900080E48093341513CF1092361510923415A9
:103DA0000ECFCC2ED12CC59DC00111248858964F22
:103DB0000E94030A3B01982EA92E2B2D3E2D4F2D3C
:103DC0005D2F0E946D535C9C80015D9C100D112441
:103DD0000858164F18169CF52B2D3E2D4F2D5D2F94
:103DE0006B2D7E2D8F2D9D2F0E94AD53F80162A764
:103DF00073A784A795A75C9C80015D9C100D11247E
:103E00000858164FF801C6A8D7A8E0ACF1ACA70136
:103E1000960162A573A584A595A50E946D531816F9
:103E20002CF4F801C2A6D3A6E4A6F5A6CF5FC4324F
:103E300009F4C0E0B62CE72CF92CDA2D01CF930160
:103E4000492D5A2DB301892D9A2DCECF20FF41CF78
:103E500024603DCF80684BCF80644ECFCF92DF92FD
:103E6000EF92FF920F931F93CF93DF930E94C51C95
:103E700080913615882309F460C00E94780A009763
:103E8000D1F5C0919B0380919A03C82BC0909C03ED
:103E9000D0909D03E0909E03F0909F038091631665
:103EA00081FF03C080E20E945E03C073D1E0809175
:103EB0003615882309F441C09091351591113DC004
:103EC00080FF16C090913415292F207C09F484C0FE
:103ED00082FD1BC010923E1540E050E0BA0180E028
:103EE0000E94CE1A809136158D7F8460809336159E
:103EF0000E94C51CDCCFFC01C1A18E5B9F4FFC0161
:103F0000C080D180E280F380C9CF903811F58DEA6E
:103F100093E00E9400078BE193E00E9400070E945B
:103F2000A00940E050E0BA0180E00E94CE1A0E9451
:103F30001B1A80913515882349F0DF91CF911F918D
:103F40000F91FF90EF90DF90CF9008950E94C51CD5
:103F5000F0CF903429F4909106018F7D809336152F
:103F60008091361583FFC4CF90919B03992359F01C
:103F700081FDBECF8091631681FF10C080913815FE
:103F80008860809338158091361581FDB1CF8061AE
:103F90008093361582E00E948003AACFB701A60164
:103FA0008C2F0E94CE1A01E510E00150110959F33F
:103FB000809135158111E7CF0E94C51C809136157F
:103FC00081FD96CFFFEF20E782E0F1502040804056
:103FD000E1F700C00000E9CF80913E158823C9F1C8
:103FE00081FF0DC080919B03882351F140E050E098
:103FF000BA0180E00E94CE1AD0933E1579CF8C7022
:1040000009F476CF80919B03882399F08DEA93E0A1
:104010000E94000784E293E00E9400070E94A0092A
:104020008091631681FF0FC080913815886080935E
:10403000381580913E1583FF03C082E00E94800303
:1040400010923E1555CFB701A6018C2F0E94CE1AB3
:10405000F0CF8091381583FF4BCFB701A6018C2F8D
:104060000E94CE1A80913815877F8093381540CFF3
:104070000E94F50C0E942E1F80913515811108C0F9
:104080000E94780A892BB1F780913415883091F31A
:104090000895CF93DF9321E031E0829FE001839F79
:1040A000D00D1124DD5F40E051E0BE0184E197E1D5
:1040B0000E94CD10892B79F4109214170E94382099
:1040C00040E051E064E177E1CE010E947D1080E0A4
:1040D000DF91CF91089581E0FBCF0E9438201092AC
:1040E00040150895CF92DF92EF92FF92CF93909177
:1040F0003415923079F06A017B01C82F0E94382074
:10410000B701A6018C2FCF91FF90EF90DF90CF9059
:104110000C94CE1ACF91FF90EF90DF90CF9008953E
:104120000F931F93CF93C82F8B010E9438202DE14E
:10413000C29FC00111244CE150E0B8019E5FCF91B5
:104140001F910F910C947D101F93CF93DF93182F25
:10415000EB018DE1189FB00111247E5F4CE150E02E
:10416000CE010E94CD10892B71F48CE1FE011192D9
:104170008A95E9F7BE01812F0E94902080E0DF91AF
:10418000CF911F91089581E0FACF4F925F926F9285
:104190007F928F929F92AF92BF92CF92DF92EF92D7
:1041A000FF920F931F93CF93DF93CDB7DEB76C973A
:1041B0000FB6F894DEBF0FBECDBF182F80FFF7C13A
:1041C0008AE080934E1689E18093511610924F1623
:1041D00084E08093501682E0809352168AE097ED37
:1041E000A3E2BCE38093531690935416A093551604
:1041F000B09356168FE692E1A3E0BBE38093571687
:1042000090935816A0935916B0935A1680E090E4F4
:10421000ACE9B6E480935B1690935C16A0935D16B0
:10422000B0935E1610925F1610926016109261168F
:10423000109262161092641680E090E0A8ECB1E44F
:104240008093651690936616A0936716B0936816D0
:1042500080E090E0A6E1B4E48093691690936A163A
:10426000A0936B16B0936C168AEF90E090936E1645
:1042700080936D1680E090E0A0E0B0E480936F162C
:1042800090937016A0937116B093721688E1809384
:10429000631680E090E0A8ECB3E48093DE15909381
:1042A000DF15A093E015B093E1158093E21590938C
:1042B000E315A093E415B093E5158093E61590936C
:1042C000E715A093E815B093E91580E090E0AAE720
:1042D000B5E48093FA159093FB15A093FC15B09369
:1042E000FD158093FE159093FF15A0930016B093D3
:1042F00001168093021690930316A0930416B093B0
:10430000051680E098ECAFEAB9E480931616909316
:104310001716A0931816B093191680931A16909337
:104320001B16A0931C16B0931D1680931E16909317
:104330001F16A0932016B093211680E090E0A8EC01
:10434000B3EC8093321690933316A0933416B09347
:1043500035168093361690933716A0933816B0937F
:10436000391680933A1690933B16A0933C16B0935F
:104370003D1681E080937316109274161092751694
:10438000109276161092771610927816109279166F
:1043900010927A1610927B163CE7C32E36E1D32E8C
:1043A0004CEEE42EFF24FA94412C512C50EA652E59
:1043B00050EC752E812C912C68E4A62E62ECB62E62
:1043C000F60141925192619271926F01B7010F2CE7
:1043D000000C880B990B0E94FF51F601648B758BC2
:1043E000868B978B84A695A6A6A6B7A6FEE1EF1AA4
:1043F000F10878E3E7167FEFF70611F7E4ECF6E152
:1044000061E050E440EC33E02AE096E082E3608330
:10441000118252834383148215821682178210867A
:10442000118632872387948785871686178670962C
:1044300077E1E430F70759F7109204171092051747
:10444000109206171092071710920817109209176A
:1044500010920A1710920B1710920C1710920D174A
:1044600010920E1710920F1710921017109211172A
:1044700010921217109213178FE195ECA1E3B3E499
:104480008093EA159093EB15A093EC15B093ED157E
:1044900040E050E06AE775E4409306165093071633
:1044A0006093081670930916C12C88ECD82E8FEAF9
:1044B000E82E89E4F82EC0922216D0922316E092BC
:1044C0002416F092251680E090E0A8E4B3EC8093E7
:1044D0003E1690933F16A0934016B0934116812C40
:1044E000912C20EAA22E23E4B22E8092EE15909217
:1044F000EF15A092F015B092F11540930A16509363
:104500000B1660930C1670930D16C0922616D0925F
:104510002716E0922816F09229168093421690935F
:104520004316A0934416B09345168092F2159092CC
:10453000F315A092F415B092F515C0922A16D092F8
:104540002B16E0922C16F0922D1640930E165093D7
:104550000F16609310167093111680934616909361
:104560004716A0934816B09349168092F61590927C
:10457000F715A092F815B092F915C0922E16D092A8
:104580002F16E0923016F092311640931216509387
:104590001316609314167093151680934A16909311
:1045A0004B16A0934C16B0934D160E94B81011FFF5
:1045B00010C0CE0101967C018CE1F70111928A9521
:1045C000E9F700E0B701802F0E9490200F5F0830CC
:1045D000C9F712FF14C060E080E093E00E945D1014
:1045E00060E081E093E00E945D1060E081E094E093
:1045F0000E945D1060E082E094E00E945D1013FF75
:104600000AC060E08EEA93E00E945D1060E08FEAED
:1046100093E00E945D106C960FB6F894DEBF0FBE5B
:10462000CDBFDF91CF911F910F91FF90EF90DF9061
:10463000CF90BF90AF909F908F907F906F905F9042
:104640004F900895CF92DF92EF92FF920F931F93B6
:10465000CF93DF936B017A01E90120910B012F7752
:1046600020930B0120910B01206820930B01F894FB
:104670008230910591F030F44FEF6FEF019779F0B0
:1046800040E008C040E06FEF8330910521F04FEF2C
:104690000497B1F760E080E003C040E060E08FEF96
:1046A0000E94311082E0C816D104B1F038F44FEF07
:1046B0006FEFCA94CD2891F040E00BC040E06FEF5F
:1046C00093E0C916D10431F04FEF84E0C816D1044D
:1046D00099F760E080E003C040E060E08FEF0E9467
:1046E000311092E0E916F104B1F038F44FEF6FEFBA
:1046F000EA94EF2891F040E00BC040E06FEF83E0D8
:10470000E816F10431F04FEF94E0E916F10499F75F
:1047100060E080E003C040E060E08FEF0E94311075
:10472000C230D10591F030F44FEF6FEF219779F05F
:1047300040E008C040E06FEFC330D10521F04FEFFB
:104740002497B1F760E080E003C040E060E08FEFC5
:104750000E94311002301105A1F038F44FEF6FEFD5
:104760000130110581F040E009C040E06FEF0330F7
:10477000110529F04FEF04301105A9F760E080E042
:1047800003C040E060E08FEF0E94311078948FEE1C
:1047900090E00197F1F700C00000DF91CF911F91E9
:1047A0000F91FF90EF90DF90CF900895CF93DF931C
:1047B000D82FA198A19AF894CFE0D130A9F480E045
:1047C0000E94C80F8FEF0E94C80F80E00E94C80FA0
:1047D000C15099F778948FEE90E00197F1F700C0FF
:1047E0000000DF91CF910895D23029F48FEF0E941D
:1047F000C80F80E0E8CF80E00E94C80F80E00E94F0
:10480000C80F8FEFE3CF8091131584FD20C080E1A6
:104810000E9480030E94A81A0E94401190913415B2
:10482000892F8C7221F480913815867059F094305C
:1048300061F480911215811103C086E00E9470031B
:104840000E941B1A81E00C94D62383E0F7CF0895D1
:10485000CF93C82F0E944D10C1111DC088988FE7BB
:1048600097E00197F1F700C000008C2F0E944010E4
:10487000E7E1F1E03197F1F700C00000C11111C08C
:104880008FB180958170E7E6F6E03197F1F700C0CF
:104890000000CF910895C13011F44098E0CF759891
:1048A000DECFC13011F486B1ECCF8CB185FB882707
:1048B00080F991E08927E7CF0F931F93CF93DF9380
:1048C000C82F08E010E0D0E0D6958C2F0E944D1044
:1048D000C11120C0889880E18A95F1F78C2F0E9441
:1048E0004010E5E3EA95F1F70000C11119C08FB15E
:1048F0008170E7ECF0E03197F1F700C00000811122
:10490000D0680150110901F78D2FDF91CF911F91D0
:104910000F910895C13011F44098DDCF7598DBCF29
:10492000C13011F486B1E4CF8CB185FB882780F9C2
:10493000E0CF0F931F93CF93DF93C82FD62F08E0BC
:1049400010E08C2F0E944D10D0FF1FC0C11117C066
:1049500088988AE18A95F1F700C08C2F0E94401058
:104960008BED90E00197F1F700C00000D695015063
:10497000110939F7DF91CF911F910F910895C1303F
:1049800011F44098E6CF7598E4CFC1110FC0889814
:1049900083E091E00197F1F700C000008C2F0E94A6
:1049A00040109AE19A95F1F700C0E0CFC13011F4C0
:1049B0004098EECF7598ECCF8F929F92AF92BF92B6
:1049C000CF92DF92EF92FF92CF93C82F61111AC05E
:1049D0000E94282481110DC060E070E0CB01CF91CE
:1049E000FF90EF90DF90CF90BF90AF909F908F900F
:1049F00008956CEC8C2F0E94992464E48C2F0E9403
:104A00009924EACF442341F30E9428246CEC8C2F94
:104A10000E9499246EEB8C2F0E9499248C2F0E9467
:104A20005C24C82E8C2F0E945C24D82E0D2C000CE8
:104A3000EE08FF08C701B601C1112FC00E94FF5147
:104A400020E030E040E85DE30E94AD534B015C01A3
:104A500020E030E040EA50E40E946D53181694F4D0
:104A600020E030E040EA52E4C501B4010E944B511D
:104A700087FF08C08092860390928703A0928803E4
:104A8000B0928903C701B6010E94FF5120E030E0D7
:104A900040E85DE30E94AD53A2CF0E94FF5120E0A9
:104AA00030E040E85DE30E94AD534B015C0120E043
:104AB00030E040EA50E4C130B9F40E946D5318165A
:104AC0000CF720E030E040EA52E4C501B4010E9456
:104AD0004B5187FFD7CF80928A0390928B03A0928D
:104AE0008C03B0928D03CECF0E946D53181654F6EE
:104AF00020E030E040EA52E4C501B4010E944B518D
:104B000087FFC0CF80928E0390928F03A092900374
:104B1000B0929103B7CF2F923F924F925F926F92D4
:104B20007F928F929F92AF92BF92CF92DF92EF923D
:104B3000FF920F931F93CF93DF93CDB7DEB7C65885
:104B4000D1090FB6F894DEBF0FBECDBFE9967FAF97
:104B50006EAFE997B09050132B2D30E0E3963FAF46
:104B60002EAFE39726E4B29EA0011124BA01685843
:104B7000764FEB967FAF6EAFEB97DB011D922A95D8
:104B8000E9F7E996EEADFFADE9972485DB01919653
:104B90002C93FB01EE5BFF4FE996AEADBFADE997FD
:104BA00014964D915D916D917C911797408351833F
:104BB0006283738318964D915D916D917C911B97E3
:104BC000EB96EEADFFADEB9742A353A364A375A3A1
:104BD00021FFE9C12CE1E4E1F5E1DE01D996019084
:104BE0000D922A95E1F7E4968FAFE497E5969FAF93
:104BF000E5972EED35E1CD57DF4F39832883C35834
:104C0000D040BE01635E7F4FCF57DF4F798368830B
:104C1000C158D040CE01C996C158DF4F99838883CF
:104C2000CF57D040EB96AEADBFADEB97EF96BFAF91
:104C3000AEAFEF974E01B5E58B0E911CED969FAE92
:104C40008EAEED9710E086E4E396EEADFFADE39710
:104C50008E9F10018F9F300C112491012858364FE0
:104C60001901B901645E7F4FCB57DF4F79836883A9
:104C7000C558D04070E2270E311CE596AEADBFADF1
:104C8000E5976D917D918D919D91E596BFAFAEAF0A
:104C9000E597CD57DF4FE881F981C358D040419067
:104CA000519061907190CD57DF4FF983E883C358DD
:104CB000D040A30192010E94AD530E947A53CF5776
:104CC000DF4FA881B981C158D0406D937D938D93FA
:104CD0009D93CF57DF4FB983A883C158D040C158A7
:104CE000DF4FE881F981CF57D040C190D190E1905A
:104CF000F190C158DF4FF983E883CF57D0406C194A
:104D00007D098E099F099B01AC0197FF07C02227EF
:104D10003327A901261B370B480B590BEF96AEAD75
:104D2000BFADEF972D933D934D935D93EF96BFAF3E
:104D3000AEAFEF97CB57DF4FE881F981C558D04030
:104D4000C080D180E280F380C216D306E406F50667
:104D500010F469017A01CB57DF4FA881B981C5589A
:104D6000D040CD92DD92ED92FC9213970E94FF51BC
:104D7000A30192010E945551ED96EEADFFADED9766
:104D80006193719381939193ED96FFAFEEAFED97A1
:104D900020E030E0A9010E944B5187FF07C0812F1E
:104DA0000E948104D1019C91892B8C931F5F173045
:104DB00009F063CF80E0CD28CE28CF2809F4D9C0F0
:104DC000CE018B5A9F4F0E9490116B017C0186E4AB
:104DD000E396EEADFFADE3978E9F80018F9F100DA0
:104DE00011240858164FD801D296CD92DD92ED923B
:104DF000FC92D597BE016B5A7F4F86E196E10E94E7
:104E0000680EF80166A777A780AB91ABBE016B5A1D
:104E10007F4F8AEF95E10E94680ED801DA966D9374
:104E20007D938D939C93DD979196AC90025C1F4F80
:104E3000A0FEBDC0F801608371838283938380915B
:104E40007709B81611F0A1FECDC086E4E3962EAD29
:104E50003FADE397829FF001839FF00D1124E85846
:104E6000F64F16A217A210A611A616AA17AA10AEE0
:104E700011AE86E4E396EEADFFADE3978E9F800121
:104E80008F9F100D11240858164FD80191968C91C0
:104E900081FD6EC0EB968EAD9FADEB970E94030A2D
:104EA0006B017C018090820390908303A090840327
:104EB000B0908503AC019B01C501B4010E944B5128
:104EC00087FF6DC1A5019401C501B4010E94AD53D6
:104ED000F80162A773A784A795A786E4E396EEADD1
:104EE000FFADE3978E9F80018F9F100D112408580E
:104EF000164FD801D6968D909D90AD90BC90D997C5
:104F0000A50194019A966D917D918D919C919D97AB
:104F10000E946D5318162CF4F80182A693A6A4A63D
:104F2000B5A6C0928203D0928303E0928403F092EC
:104F300085038CE1FE01EB5AFF4FA6E6B3E001903A
:104F40000D928A95E1F78CE1FE017D96AAE4B3E02B
:104F500001900D928A95E1F7809149038093501357
:104F60008F5F843209F480E0809349030E94FD0C36
:104F700081E0CA57DF4F0FB6F894DEBF0FBECDBF3A
:104F8000DF91CF911F910F91FF90EF90DF90CF9025
:104F9000BF90AF909F908F907F906F905F904F9059
:104FA0003F902F9008952CE1EAE4F3E016CEE996C5
:104FB000AEADBFADE9972D913D914D915C91A3FCB4
:104FC00006C0F801208331834283538338CFC70161
:104FD000B6010E94AD53D8016D937D938D939C9340
:104FE00013972DCF66E673E0E9967FAF6EAFE99732
:104FF0008E010F5F1F4F14017CE1270E311CC12C65
:10500000D12C76015801E996EEADFFADE99781917B
:105010009191A191B191E996FFAFEEAFE997E79633
:105020008CAF9DAFAEAFBFAFE797D4014D905D9011
:105030006D907D904D01A3019201E7966CAD7DAD21
:105040008EAD9FADE7970E94AD539B01AC01C701A8
:10505000B6010E9455506B017C01E7962CAD3DAD29
:105060004EAD5FADE797C301B2010E945550F80104
:1050700061937193819391938F012814390419F6E8
:105080002FEE3FEF4FE75FE3C701B6010E946D537C
:1050900018166CF486E4E3962EAD3FADE397829F3D
:1050A000F001839FF00D1124E858F64FDECE2FEE6D
:1050B0003FEF4FE75FEBC701B6010E944B5187FFFF
:1050C00015C086E4E3966EAD7FADE397869FF00151
:1050D000879FF00D1124E858F64F89E996E7A6E975
:1050E000BEE786AB97ABA0AFB1AFC3CEC5010E9400
:1050F0009011B50186E196E10E94680E4B015C01BA
:10510000A701960160E070E080E89FE30E9455509F
:1051100020E030E040E05FE30E94AD530E944C5439
:105120006B017C0120915316309154164091551615
:1051300050915616C501B4010E94AD53A7019601C6
:105140000E94AD534B015C01A701960160E070E045
:1051500080E89FE30E9455509B01AC01C501B4015A
:105160000E9455516B017C0120E030E0A9010E94B2
:105170004B5187FF03C0C12CD12C760186E4E39606
:10518000AEADBFADE3978A9FF0018B9FF00D112468
:10519000E858F64FC6AAD7AAE0AEF1AE6ACEA7018C
:1051A0009601C701B6010E94AD53D8019A966D933E
:1051B0007D938D939C939D9790CEBF92CF92DF92DB
:1051C000EF92FF920F931F93CF93DF93CDB7DEB78C
:1051D000A9970FB6F894DEBF0FBECDBFB82E0E94C0
:1051E00038200E94930F80913515811179C08E016E
:1051F000035E1F4F8DE0F80111928A95E9F786E072
:1052000089A720E030E040E450EC60914A167091AC
:105210004B1680914C1690914D160E94AD536B0128
:105220007C0120E030E0A9010E944B5187FF03C0C0
:10523000C12CD12C760164E175E1CE0101960E946A
:10524000FB0310922C1510922D1510922E15109212
:105250002F15BB2021F0F7FAF094F7F8F094C98EDF
:10526000DA8EEB8EFC8E82E080933A1580E090E03F
:10527000A8E4B2E48D8F9E8FAF8FB8A3B801CE01A2
:1052800001960E948B2584E0809338150E949F121E
:105290000E945B0412E0809109018095BB2081F19E
:1052A0008071811110E010933A150E949F12809135
:1052B0001315847309F448C01091131514FF03C02B
:1052C00086E00E94700315FF03C087E00E94700310
:1052D000809112158823B1F00E9403240E942E1F92
:1052E000A9960FB6F894DEBF0FBECDBFDF91CF9168
:1052F0001F910F91FF90EF90DF90CF90BF90089596
:105300008072CFCF84E00E9476030E943A1A809187
:105310006D1690916E160E94111A10922C15109213
:105320002D1510922E1510922F15109238150E94DF
:105330002E1F809135158111D3CF0E9457100E94E6
:10534000F2090E949D0FCCCF1111A5CFDECFBF92E5
:10535000CF92DF92EF92FF920F931F93CF93DF9341
:10536000CDB7DEB7A9970FB6F894DEBF0FBECDBF9D
:10537000B82E0E9438205F9A0E94930F80913515B5
:10538000811176C08E01035E1F4F8DE0F8011192EE
:105390008A95E9F786E089A720E030E040E450EC08
:1053A0006091421670914316809144169091451673
:1053B0000E94AD536B017C0120E030E0A9010E9406
:1053C0004B5187FF03C0C12CD12C760164E175E1FC
:1053D000CE0101960E94FB03109224151092251510
:1053E0001092261510922715BB2009F451C0F7FA28
:1053F000F094F7F8F094C98ADA8AEB8AFC8A80E4A0
:1054000080933A1580E090E0A8E4B2E48D8F9E8FFF
:10541000AF8FB8A3B801CE0101960E948B2584E01E
:10542000809338150E949F120E945B0410E4BB20F9
:1054300011F07D9B10E010933A150E949F1280910D
:105440001315847309F452C01091131514FF03C08F
:1054500086E00E94700315FF03C087E00E9470037E
:10546000809112158823E9F00E9403240E942E1FC8
:10547000A9960FB6F894DEBF0FBECDBFDF91CF91D6
:105480001F910F91FF90EF90DF90CF90BF90089504
:1054900080E090E0A0ECBFE3898B9A8BAB8BBC8B58
:1054A000AECF84E00E9476030E943A1A80916D1676
:1054B00090916E160E94111A1092241510922515C3
:1054C0001092261510922715109238150E942E1F43
:1054D000809135158111CCCF0E9457100E94F2099E
:1054E0000E949D0F0E9438205F98C2CF11119FCF5C
:1054F000DBCFEF92FF921F93CF93DF93EC017B0101
:105500008091631685FF22C010913415103211F17D
:10551000CE010E9489038823C9F081E0809337156A
:10552000183069F488E00E9480030E942E1F809149
:10553000351581110BC0809134158111F6CF0E9471
:10554000032482E00E9470030E942E1F8091341574
:105550008230C1F00E942E1F80913515811112C03A
:105560009091770980914903981303C00E94F50C2C
:10557000F1CFB701CE01DF91CF911F91FF90EF9056
:105580000C948B25DF91CF911F91FF90EF900895A0
:105590002F923F924F925F926F927F928F929F9243
:1055A000AF92BF92CF92DF92EF92FF920F931F9331
:1055B000CF93DF93CDB7DEB7E7970FB6F894DEBF92
:1055C0000FBECDBF90913515911114C18DAB9E01C9
:1055D000235E3F4F3AAB29AB8DE0D9011D928A95EE
:1055E000E9F786E089A72EEDA22E25E1B22EFE0175
:1055F000BA964F0110E000E0C12CD12C7601FDA934
:105600002F2E312C802F0E944403D4018D934D0105
:10561000C101002E02C0959587950A94E2F780FF9C
:105620001BC020E030E040EC5FEBF501EC5AFF4F8F
:1056300060817181828193810E94AD53762E472EC5
:10564000582E692EA70196010E944B5187FD04C078
:10565000C72CD42CE52CF62C0F5F1F4FB4E0AB0EFB
:10566000B11C0730110571F68090691690906A168A
:10567000A0906B16B0906C1694E0692E01E064E186
:1056800075E1CE0101960E94FB0380916416E82F1C
:10569000F0E0FCABEBABFE01319684E1482E85E1F6
:1056A000582E5FAA4EAA712C10E030E020E0B7011E
:1056B000A6017058C101022E02C0959587950A94E3
:1056C000E2F780FF28C07394AEA9BFA91D921D9276
:1056D0001D921C9213978BA99CA9022E02C095952E
:1056E00087950A94E2F780FF07C0002339F04083D2
:1056F00051836283738306C00023C9F3C082D182C1
:10570000E282F3828AE290E08C0F9D1F820F931F4A
:10571000DC018C91182B2F5F3F4F34968EA99FA9E7
:1057200004969FAB8EAB2730310521F6672D70E0D4
:1057300090E080E00E94FD510E944C5410933A1575
:10574000A50194010E94AD536D8F7E8F8F8F98A31A
:10575000BE01635E7F4FCE0101960E948B2594E0CF
:10576000909338150E949F120E945B040023E9F079
:105770000E94770FFE01BA9630E020E090E0619140
:10578000462F412359F0AC01022E02C05595479592
:105790000A94E2F740FF02C0609516232F5F3F4F47
:1057A0002730310561F710933A150E949F128091BE
:1057B0001315847309F47AC01091131514FF03C0F4
:1057C00086E00E94700315FF03C087E00E9470030B
:1057D000011182C00E94770FADA98A2319F088E0D9
:1057E0000E947003809112158823E9F00E9403241F
:1057F0000E942E1FE7960FB6F894DEBF0FBECDBFF6
:10580000DF91CF911F910F91FF90EF90DF90CF909C
:10581000BF90AF909F908F907F906F905F904F90D0
:105820003F902F90089584E00E9476030E943A1AD8
:1058300080916D1690916E160E94111AB1E00B279F
:10584000D1F120E030E040EA50E460916F167091B1
:10585000701680917116909172160E94AD536B0173
:105860007C018090651690906616A0906716B090A7
:1058700068166A94611003CF90E080E09101082ED1
:1058800002C0359527950A94E2F720FF05C0F20182
:1058900010821182128213820196F4E04F0E511C85
:1058A0008730910559F710923815A4CF812F8E7F3C
:1058B00009F05CCFBBCFC0906F16D0907016E0900F
:1058C0007116F09072168090691690906A16A090EA
:1058D0006B16B0906C16CDCF12FF84CF89E080CFCD
:1058E000CF93C82F0E94930F8C2FC11104C084E066
:1058F0000E94C82A83E00E94C82A0E942E1F80911D
:105900003515811107C00E9457100E94F209CF91EE
:105910000C949D0FCF9108952F923F924F925F92DA
:105920006F927F928F929F92AF92BF92CF92DF92AF
:10593000EF92FF920F931F93CF93DF93CDB7DEB714
:10594000C256D1090FB6F894DEBF0FBECDBF3C01E1
:10595000E6EEF2E089E5DF011D928A95E9F78AE03B
:10596000E2E9F3E0A7EEB2E001900D928A95E1F74B
:10597000F3018081843291F01EA61FAA312C212CC4
:1059800027961FAE1EAE27971FAE1FA61BAA64E068
:10599000C62E76E6472E75E1572E7CC181E08093B6
:1059A000E7021092E80283E08EA7F1E0FFABE6CFBA
:1059B0000FEB010F0A3110F00C94823C8F5F8EA721
:1059C000AE01465D5F4FBE01625D7F4FC3010E9425
:1059D000BE0E882311F40C94853C8AA49BA4ACA42D
:1059E000BDA4C501B4010E9490540E94CE51D62E90
:1059F000E62EF12CB7010F2C000C880B990B0E949E
:105A0000FF519B01AC01C501B4010E94555020E03B
:105A100030E048EC52E40E94AD530E941A540E94B8
:105A2000CE51CB01173409F426C01D3409F48DC1C1
:105A3000E02F000FFF0B8827EF5DF24D8F4F0C9486
:105A40000655082F3C2F492F562F522D632F522DCC
:105A5000522D6D2F7A2F872F942F522D982F522D44
:105A6000A62F522DB02FBA2FC42F522D522D522DAA
:105A7000443151315E3128E2D21609F4FDC02D15B2
:105A800080F133E13D1580F041E1D41608F0B1C05A
:105A9000A4E0DA1609F489C0DA16E0F0BAE0DB1601
:105AA00009F47BC084E1ADC0ECE1DE1609F475C0F9
:105AB000ED1548F0F5E1FD15A8F325E12D1920932A
:105AC000E90226E09BC02EE1D21609F466C036E258
:105AD000D312E8CF3BA931110C94883C42E04BAB88
