:100000000C94CF020C94F0020C94F0020C94F002C9
:100010000C94F0020C94F0020C94F0020C94F00298
:100020000C94F0020C94A0520C94F0020C94DF4B50
:100030000C9429520C94F0020C94F0020C94F002EF
:100040000C94F0020C943B4C0C94F0020C94F002D3
:100050000C94F0020C94F0020C94F0020C94254CD9
:100060000C94F0020C9408510C94FE510C94F00284
:100070000C94F0020C94F0020C94F0020C94F00238
:100080000C94F0020C94F0020C94F0020C94FE4FCD
:100090000C94E0500C94B5500C94F0020C94F002C7
:1000A0000C94F0020C94F0020C94F0020C94F00208
:1000B0000C94F0020C94F0020C94F0020C94B552E3
:1000C0000C94F0020C94F0020C94F0020C948D50FD
:1000D0000C9462500C94F0020C943A500C940F5013
:1000E0000C94F002084AD73B3BCE016E84BCBFFDA6
:1000F000C12F3D6C74319ABD56833DDA3D00C77FF8
:1001000011BED9E4BB4C3E916BAAAABE0000008090
:100110003F05A84CCDB2D44EB93836A9020C50B91F
:10012000918688083CA6AAAA2ABE000000803F004B
:100130000C94AC4B0C9497510C9481460C94E85160
:100140000C94B1310C94D84B0C9440460C94F7307D
:100150000C94C64B0C9450310C945B460C949D51FE
:100160000C944C460C94564B0C94E2510C945A311E
:100170000C9465460C9443310C9491510C94D331FA
:100180000C94C1510C9479460C94D0510C94BD4BF5
:100190000C94414B0C946C4B0C94A5510C94743101
:1001A0000C9499510C94984B0C94A3510C9481315C
:1001B0000C94354B0C94054B0C94E6510C949F51C8
:1001C0000C94BF510C947F460C940E4B0C94894BAD
:1001D0000C9493310C9470510C94A7310C94B44B43
:1001E0000C94384B0C94C5510C94AB510C94DE51CB
:1001F0000C94CD510C94C6310C94164B0C943631A2
:100200000C94C7510C94A7510C94EA510C94BD5115
:100210000C94204B0C9438460C940B4B0C94604B74
:100220000C946D460C94C9510C94A34B0C94B7518B
:100230000C94134B0C94BB510C948F4B0C94804B2F
:100240000C943C460C94B5510C949B510C94293160
:100250000C94CB510C94774B0C9493510C944646D0
:100260000C9487510C949D310C94464A0C94D651B1
:100270000C94744B0C9483460C9450460C94AF51E0
:100280000C94B1510C9495510C948D510C94673190
:100290000C9485310C9442460C94AD510C943D2F36
:1002A0000C94EC510C94A9510C94E0310C94DA515B
:1002B0000C944A4B0C94284B0C9473460C94CF4BE3
:1002C0000D0A007C57506F733A004D506F733A001F
:1002D0000D0A00416C61726D3A005BE68EA2E992F4
:1002E000883A00636F6E74726F6C2D312E302E3031
:1002F0002D616C70686134005B76657273696F6E36
:100300003A007C46533A007C4C6E3A007C42663A96
:10031000007C473A007C4D3A007C533A007C4642D0
:100320003A007C53463A007C483A007C41463A0009
:100330007C4C3A007C433A007C48573A007C44525B
:100340003A007C443A007C54443A007C523A007CA7
:1003500052573A007C4C573A007C5246543A007C43
:100360004C46543A007C53543A007C463A007C5444
:100370003A007C4C443A007C57506F733A007C4DF5
:10038000506F733A00536C65657000446F6F723A3A
:1003900000436865636B00416C61726D00486F6D6E
:1003A000696E67004D6F76696E67005061757365A1
:1003B000004D6F76696E6700526561647900657201
:1003C000726F723A005D002C002C002C002C002C67
:1003D000002C002C006E756C6C5D00276368616DED
:1003E000666572272C0027746872656164272C008B
:1003F000276472696C6C272C0027636F6E65272C4D
:10040000002762616C6C272C0027656E646D696C37
:100410006C272C005B007D0D0A00273A007B2774B7
:100420006F6F6C007D0D0A00273A007B27746F6F99
:100430006C007D0D0A00273A007B27746F6F6C00FB
:100440000D0A005D005B746F6F6C5374617475739B
:100450003A20000D0A00537461727420746F6F6C3F
:100460002073657474696E6700204700204D00207A
:10047000530020460020540033382E005B47433A97
:1004800047005B5A706F733A005B544C4F3A005B05
:100490004739323A003330003238005B47005B4F57
:1004A00050543A005B5645523A312E31652E323067
:1004B0003137303131343A00536C656570696E679D
:1004C00000526573746F72696E67207370696E6431
:1004D0006C6500526573746F72696E67206465663F
:1004E00061756C74730050726F6772616D20656E18
:1004F00064656400436865636B206C696D6974733F
:1005000000436865636B20646F6F720044697361B8
:10051000626C656400456E61626C65640043617580
:1005200074696F6E3A20556E6C6F636B6564005032
:100530006C6561736520756E6C6F636B00506C65E4
:10054000617365205265736574005B4D53473A00D3
:100550006F6B0D0A00244E005D7D0D0A002C007BA0
:1005600027746F6F6C44617461273A5B000D0A0059
:100570006265666F7265546F6F6C3A000D0A006EAB
:100580006F77546F6F6C3A000D0A00537461727488
:1005900020746F6F6C2073657474696E670011242A
:1005A0001FBECFEFD1E2DEBFCDBF00E00CBF2DE11B
:1005B000A0E0B4E001C01D92A136B207E1F714E05B
:1005C000A0E0B2E0E4E4FFEB00E00BBF02C0079064
:1005D0000D92A030B107D9F70E9408540C94A05F87
:1005E0000C9400002F923F924F925F926F927F92F5
:1005F0008F929F92AF92BF92CF92DF92EF92FF9233
:100600000F931F93CF93DF93CDB7DEB72E970FB61F
:10061000F894DEBF0FBECDBF4B015C017A0120E034
:1006200030E0A9010E94C15810E087FF05C0B7FA69
:10063000B094B7F8B09411E0C501B4010E944459D8
:100640006B877C878D879E87112331F08DE2F701C0
:100650008083C70101967C016B857C858D859E8595
:100660008E010F5F1F4F68013AE0232E312C412C81
:10067000512C3801EFEF6E1A7E0AA20191010E94FF
:100680005A5C605DF8016083B901CA01830161159C
:1006900071058105910569F7D701F301CE16DF06D3
:1006A000E1F583010C191D090F5F1F4F0E0D1F1D72
:1006B0006B857C858D859E850E9473599B01AC015D
:1006C000C501B4010E94CB5793012C193D09E20EDC
:1006D000F31E2EE2F7012083680124E0F22EFA9443
:1006E000F1101EC0F80113822E960FB6F894DEBFEB
:1006F0000FBECDBFDF91CF911F910F91FF90EF9073
:10070000DF90CF90BF90AF909F908F907F906F9031
:100710005F904F903F902F90089582918D93BECF20
:1007200020E030E040E251E40E94235B4B015C0199
:100730000E943D5920E3260FF60121936F01072EF9
:10074000000C880B990B0E9475599B01AC01C501E7
:10075000B4010E94CB57C3CF2FB7F8949091D11A10
:10076000892B8093D11A2FBF08952FB7F8949091B9
:10077000D01A892B8093D01A2FBF08959FB7F89471
:100780008093CF1A9FBF08959FB7F8942091CE1AF7
:10079000809582238093CE1A9FBF08952FB7F89437
:1007A0009091CE1A892B8093CE1A2FBF08952F9245
:1007B0003F924F925F926F927F928F929F92AF92F1
:1007C000BF92CF92DF92EF92FF920F931F93CF933E
:1007D000DF9300D01F92CDB7DEB720919E1C222E52
:1007E000312C4090A91C5090AA1C6090AB1C7090BA
:1007F000AC1C2CE63CE13A8329838C011C821B82D1
:10080000E981FA81C190D190E190F190FA83E98376
:1008100020E030E0A901C701B6010E94C158882339
:10082000B9F1F80180809180A280B3802DEC3CEC7E
:100830004CEC5DE3C301B2010E94CB579B01AC01BC
:10084000C1010B8002C0959587950A94E2F780FF5D
:1008500011C0C501B4010E94C15887FD09C0C7017C
:10086000B6019058A50194010E94C15887FF10C09D
:1008700081E01BC0C501B4010E94E35A1816C4F3FD
:10088000A5019401C701B6010E94E35A181684F32A
:100890002B813C812F5F3F4F3C832B830C5F1F4F8D
:1008A0002730310509F0ACCF80E00F900F900F900A
:1008B0000F90DF91CF911F910F91FF90EF90DF90FC
:1008C000CF90BF90AF909F908F907F906F905F90F0
:1008D0004F903F902F9008958F929F92AF92BF922A
:1008E000CF92DF92EF92FF920F931F93CF93DF93FC
:1008F000EB0128E1E22E2CE1F22E8C016B018CE160
:10090000C80ED11C6991799189919991F7018190D3
:100910009190A190B1907F010E947559A501940119
:100920000E94CB58F80161937193819391938F0149
:10093000CC15DD0539F7DF91CF911F910F91FF9015
:10094000EF90DF90CF90BF90AF909F908F900895E1
:10095000E2E0F1E08081886080830895882341F09F
:10096000739A91E0811101C090E09093F11A08957B
:100970007398F7CF882341F08F9A91E0811101C0DD
:1009800090E09093F31A08958F98F7CF813019F47F
:10099000899A8A9804C089988230D9F78A9A809374
:1009A000F41A0895882341F0A29A91E0811101C0C0
:1009B00090E09093F21A0895A298F7CFCF93DF9327
:1009C000C091C91AD091CA1A2097C9F08091991A7A
:1009D00081608093991A6091AF1A7091B01A8091DA
:1009E000B11A9091B21A9B01AC010E94235B6EA3D5
:1009F0007FA388A799A71092CA1A1092C91ADF91EB
:100A0000CF910895E3EFFEE08091F00E868F809104
:100A1000881C8250990B880F8195858FEFE6F0E056
:100A2000808182608083089520919D1C21FF0BC0EE
:100A30009093AB008093AA00892B31F48091A000A1
:100A40008F7D8093A00008958091A0008062F9CFEF
:100A5000882361F0813061F0823061F0833061F091
:100A6000843061F0853061F082E0089580E8089577
:100A700080E4089580E2089580E1089588E0089573
:100A800084E00895882361F0813061F0823061F064
:100A9000833061F0843061F0853061F082E0089548
:100AA00084E0089588E0089580E1089580E2089543
:100AB00080E4089580E80895AF92BF92CF92DF92CC
:100AC000EF92FF920F931F93CF93DF93E090891CD7
:100AD000F12CC0908A1CD12CD0E0C0E010E000E0E6
:100AE000BC2EAC2EC7010C2E02C0959587950A949A
:100AF000E2F780FF04C08C2F0E944205082BC6013C
:100B000002C095958795AA94E2F780FF04C08B2DCB
:100B10000E942805182B2196C730D10509F70093AC
:100B2000F00E1093F10EDF91CF911F910F91FF9076
:100B3000EF90DF90CF90BF90AF9008959091D21A30
:100B40008091D31A891749F0E92FF0E0EB53F64F63
:100B500080819F5F9093D21A08958FEF089520911E
:100B6000CC0EDC0180E0861301C008959091CB0E7D
:100B70002917D9F3E92FF0E0E553F24F30813D9387
:100B80008F5F9F5F9093CB0EEECF9091CB0E8091B5
:100B9000CC0E891749F0E92FF0E0E553F24F808140
:100BA0009F5F9093CB0E08958FEF0895E091C90C4D
:100BB00091E09E0F2091CA0D291761F0F0E0E653F5
:100BC000F34F80839093C90C8091310180628093B0
:100BD000310104C02091CE1A24FFECCF0895E0919A
:100BE000C50A91E09E0F2091C60B291761F0F0E035
:100BF000EA53F54F80839093C50A8091D1008062BB
:100C00008093D10004C02091CE1A24FFECCF089528
:100C1000E091C30891E09E0F2091C409291761F06B
:100C2000F0E0EC53F74F80839093C3088091C900A4
:100C300080628093C90004C02091CE1A24FFECCFBB
:100C40000895E091BF06DC0180E091E09E0F2091C5
:100C5000C007291308C0E093BF069091C1009062BD
:100C60009093C10008952D91F0E0E054F94F208356
:100C70008F5FE92F6813E9CFEECFE091BF0691E0D7
:100C80009E0F2091C007291761F0F0E0E054F94F62
:100C900080839093BF068091C10080628093C100E1
:100CA00004C02091CE1A24FFECCF08951092D20EEA
:100CB00090919D1C97FD03C09CE09093D20E8823D9
:100CC00031F08091D20E9CE089278093D20E089556
:100CD0008F929F92AF92BF92CF92DF92EF92FF924C
:100CE0000F931F93CF93DF93CDB7DEB72D970FB63A
:100CF000F894DEBF0FBECDBF6B017C01042F20E056
:100D000030E0A9010E94C15887FF07C08DE20E9410
:100D1000D605F7FAF094F7F8F09420E030E048ECCC
:100D200052E4C701B6010E94235B20E030E048ECAA
:100D300052E4043031F0033031F420E030E040E29E
:100D400051E40E94235B20E030E040E05FE30E943A
:100D5000CC570E943D5910E03AE0832E912CA12CF3
:100D6000B12CE12FF0E0611571058105910581F548
:100D700081E090E08C0F9D1FE80FF91F80E31017B2
:100D8000C8F1101309C0E1E0F0E0EC0FFD1FE10F26
:100D9000F11D80E380831F5FEE24E394F12CEC0EC1
:100DA000FD1EE10EF11C111128C02D960FB6F8940E
:100DB000DEBF0FBECDBFDF91CF911F910F91FF908E
:100DC000EF90DF90CF90BF90AF909F908F9008955D
:100DD000EE24E394F12CEC0EFD1EEE0EFF1EA50199
:100DE00094010E945A5C605DF7016083B901CA01F9
:100DF0001F5FB7CF1F5F8193C2CF101303C08EE276
:100E00000E94D605F70182917F010E94D6051150FC
:100E1000CACF0F931F93CF938C01C0E0F80161916B
:100E20007191819191918F0120919D1C43E020FF50
:100E300007C02BE832E441E25DE30E94235B44E01B
:100E40000E946806C33019F08CE20E94D605CF5F7D
:100E5000C43021F7CF911F910F9108958F929F92E7
:100E6000AF92BF92CF92DF92EF92FF920F931F93B8
:100E7000CF93DF93CDB7DEB72D970FB6F894DEBFD3
:100E80000FBECDBF6B017C01042F20E030E0A90133
:100E90000E94C15887FF07C08DE20E943D06F7FA05
:100EA000F094F7F8F094102F123008F054C000FFBF
:100EB0000AC020E030E040E251E4C701B6010E94E0
:100EC000235B6B017C0120E030E040E05FE3C70181
:100ED000B6010E94CC570E943D5910E03AE0832EA3
:100EE000912CA12CB12CE12FF0E061157105810549
:100EF0009105E9F581E090E08C0F9D1FE80FF91F47
:100F000080E3101708F445C0101309C0E1E0F0E0D9
:100F1000EC0FFD1FE10FF11D80E380831F5FEE24C6
:100F2000E394F12CEC0EFD1EE10EF11C111134C006
:100F30002D960FB6F894DEBF0FBECDBFDF91CF91D7
:100F40001F910F91FF90EF90DF90CF90BF90AF90E7
:100F50009F908F90089520E030E048EC52E4C70164
:100F6000B6010E94235B6B017C0112509DCFEE24E1
:100F7000E394F12CEC0EFD1EEE0EFF1EA501940174
:100F80000E945A5C605DF7016083B901CA011F5F6E
:100F9000AACF1F5F8193B5CF101303C08EE20E94CA
:100FA0003D06F70182917F010E943D061150BECFA0
:100FB00020919D1C40E020FF07C02BE832E441E275
:100FC0005DE30E94235B41E00C942E0720919D1C61
:100FD00043E020FF07C02BE832E441E25DE30E94DA
:100FE000235B44E00C942E070F931F93CF938C0147
:100FF000C0E0F80161917191819191918F010E94FE
:10100000E607C33019F08CE20E943D06CF5FC43082
:1010100081F7CF911F910F9108958F929F92AF9278
:10102000BF92CF92DF92EF92FF920F931F93CF93D5
:10103000DF9300D000D000D01F92CDB7DEB761158E
:10104000710581059105A9F480E32A960FB6F894FD
:10105000DEBF0FBECDBFDF91CF911F910F91FF90EB
:10106000EF90DF90CF90BF90AF909F908F900C94B7
:101070003D0600E09E012F5F3F4F79012AE0822E5E
:10108000912CA12CB12C6701C00ED11CA50194019B
:101090000E945A5CF6016083B901CA010F5F6115B5
:1010A00071058105910579F70E0D1F2D111DE016B3
:1010B000F10699F42A960FB6F894DEBF0FBECDBFA5
:1010C000DF91CF911F910F91FF90EF90DF90CF9024
:1010D000BF90AF909F908F900895F80182918F01FB
:1010E000805D0E943D06E3CFCF92DF92EF92FF92A8
:1010F00097FF0CC06B017C018DE20E943D066627C4
:101100007727CB016C197D098E099F09FF90EF901D
:10111000DF90CF900C940D08CF93DF93843658F076
:101120006AE00E942C5CC0E3C90F6AE00E942C5C5C
:10113000D0E3D90F04C0C0E0D0E08A30B0F7805DC2
:101140000E943D06DD2319F08D2F0E943D06CC2321
:1011500029F08C2FDF91CF910C943D06DF91CF9138
:101160000895CF93DF93EC01FE01849121968111C4
:1011700003C0DF91CF9108950E94D605F5CFCF939C
:10118000DF93EC01FE0184912196811103C0DF9170
:10119000CF9108950E943D06F5CF2F923F924F9236
:1011A0005F926F927F928F929F92AF92BF92CF92F7
:1011B000DF92EF92FF920F931F93CF93DF9300D0B4
:1011C00000D01F921F92CDB7DEB7FC0110812180A5
:1011D0003284C384D4840585E684F784FE24EF2416
:1011E000FE24428053806480758049825A826B82DB
:1011F0007C8286809780A084B1848D829E82AF821B
:10120000B88684E194E00E94BF08133009F46FC0EF
:1012100050F4113009F468C081E094E0123061F0BC
:1012200085ED93E047C0153009F467C008F462C04B
:101230008BED93E01630A1F70E94BF08822D0E942B
:101240008C0883ED93E00E94BF0843E0C301B20124
:101250000E942E0781ED93E00E94BF0843E0C50184
:10126000B4010E942E078FEC93E00E94BF08832DEB
:101270000E948C088DEC93E00E94BF088C2D0E9488
:101280008C088BEC93E00E94BF088D2D0E948C0887
:1012900089EC93E00E94BF08802F0E948C0887ECA5
:1012A00093E00E94BF08B70190E080E00E940D0823
:1012B00085EC93E028960FB6F894DEBF0FBECDBF45
:1012C000DF91CF911F910F91FF90EF90DF90CF9022
:1012D000BF90AF909F908F907F906F905F904F9056
:1012E0003F902F900C94BF0889E094E0A5CF89EF40
:1012F00093E0A2CF80EF93E09FCF86EE93E09CCF68
:1013000080ED92E00C94BF08CF93C82F8EEB93E052
:101310000E94BF088C2F0E948C08CF910C948009EA
:10132000882321F0823031F00C94840980E595E027
:101330000C94BF080895CF92DF92EF92FF92CF9363
:10134000DF93D82F6A017B01C22F84E20E943D0601
:101350008D2F0E948C088DE30E943D064C2FC70103
:10136000B6010E942E07DF91CF91FF90EF90DF90A2
:10137000CF900C948009EF92FF920F931F93CF931D
:10138000DF9302EC1CE1C2EDD0E0EE24E394EC0E1E
:1013900082E0F82EFC0EF801D130C9F0D230F1F025
:1013A000408151816281738123E08C2F0E949B09CF
:1013B000DF5FD33081F7CD5F0C5F1F4FC43E21F755
:1013C000DF91CF911F910F91FF90EF900895408D85
:1013D000518D628D738D23E08E2DE8CF40A951A9E8
:1013E00062A973A923E08F2DE1CFCF93DF93D82F8C
:1013F000C62F84E20E943D068D2F0E948C088DE34B
:101400000E943D068C2F0E948C08DF91CF910C9496
:101410008009EF92FF920F931F93CF93DF93609118
:10142000881C70E080E00E94F50960918B1C70E0E0
:1014300081E00E94F5096091891C70E082E00E94C1
:10144000F50960918A1C70E083E00E94F5096091C3
:101450009D1C62FB662760F970E084E00E94F5093C
:1014600060919D1C66FB662760F970E085E00E9434
:10147000F50980919D1C082E000C990B692F661FA1
:101480006627661F70E086E00E94F50960918C1C5B
:1014900070E08AE00E94F50940918D1C50918E1CED
:1014A00060918F1C7091901C23E08BE00E949B093F
:1014B0004091911C5091921C6091931C7091941CCE
:1014C00023E08CE00E949B0960919D1C617070E09C
:1014D0008DE00E94F50960919D1C65FB662760F90F
:1014E00070E084E10E94F50960919D1C63FB662712
:1014F00060F970E085E10E94F50960919D1C62959C
:10150000617070E086E10E94F50960919E1C70E0B8
:1015100087E10E94F50940919F1C5091A01C6091A9
:10152000A11C7091A21C23E088E10E949B094091BC
:10153000A31C5091A41C6091A51C7091A61C23E0D3
:1015400089E10E949B096091A71C7091A81C8AE107
:101550000E94F5094091A91C5091AA1C6091AB1CF6
:101560007091AC1C23E08BE10E949B094091951C7B
:101570005091961C6091971C7091981C20E08EE110
:101580000E949B094091991C50919A1C60919B1C50
:1015900070919C1C20E08FE10E949B0960919D1C32
:1015A0006695617070E080E20E94F5094091B61C7A
:1015B0005091B71C6091B81C7091B91C23E081E276
:1015C0000E949B094091BA1C5091BB1C6091BC1CAD
:1015D0007091BD1C23E082E20E949B094091BE1CD9
:1015E0005091BF1C6091C01C7091C11C23E083E22C
:1015F0000E949B0940915A1D50915B1D60915C1D9A
:1016000070915D1D23E084E20E949B0960915E1D44
:1016100070E085E20E94F50994E6F92E10E0C8E139
:10162000DCE100E0E02EEF0C123009F461C0133071
:1016300009F46BC0113009F456C0488159816A81A0
:101640007B8123E08E2D0E949B090F5F249607303B
:1016500049F78AE0F80E1F5FECE8FE12E0CF6091D8
:10166000AD1C70E088EC0E94F5094091AE1C5091D1
:10167000AF1C6091B01C7091B11C23E089EC0E94FA
:101680009B094091B21C5091B31C6091B41C7091A5
:10169000B51C23E08AEC0E949B0902EC1CE1C2ED20
:1016A000D0E0EE24E394EC0E82E0F82EFC0EF8017C
:1016B000D130A1F1D230C9F1408151816281738171
:1016C00023E08C2F0E949B09DF5FD33081F7CD5F31
:1016D0000C5F1F4FC43E21F7DF91CF911F910F91F7
:1016E000FF90EF9008954C8D5D8D6E8D7F8DA9CF0D
:1016F00020E030E041E655E468AD79AD8AAD9BADC0
:101700000E94CB58AB01BC019CCFFE01EC5AFF4FAD
:101710004081518162817381705893CF408D518D8A
:10172000628D738D23E08E2DCDCF40A951A962A982
:1017300073A923E08F2DC6CF8DE50E943D060C9442
:10174000800988EF92E00E94BF0883EE92E00E9439
:10175000BF080C949C0BCF93DF93CDB7DEB76C978B
:101760000FB6F894DEBF0FBECDBF8AED92E00E94A7
:10177000BF0863ED7EE0CE0101960E946C04CE01AD
:1017800001960E94F4078AE30E943D068091DD1ACB
:101790000E948C088CE20E943D066091B21C709100
:1017A000B31C8091B41C9091B51C0E94E6070E9466
:1017B0009C0B6C960FB6F894DEBF0FBECDBFDF91C9
:1017C000CF910895CF93DF93EC018991811103C0EC
:1017D000DF91CF9108950E943D06F7CFE0E7FBE14E
:1017E000A3E8B6E041915191619171914D935D9360
:1017F0006D937D938BE1EC38F807A1F70895BF92C4
:10180000CF92DF92EF92FF920F931F93CF93DF93CC
:101810007C01FC01FE9600811181D281C381FC0113
:1018200081A180FF33C06091E01A70E090E080E019
:101830000E9475592AE037ED43E25CE30E94235B86
:101840009B01AC01B8018D2F9C2F0E94235B8B0163
:10185000D82FC92F20E030E040E85FE3B8018D2F9A
:101860009C2F0E94E35A181624F000E010E0D0E804
:10187000CFE3B8018D2F9C2FDF91CF911F910F9156
:10188000FF90EF90DF90CF90BF90089582FD17C03A
:101890006091DF1A70E090E080E00E9475592AE0C4
:1018A00037ED43E25CE30E94235B9B01AC01B8018E
:1018B0008D2F9C2F0E94235B8B01D82FC92FF701FE
:1018C000B2ACC3ACD4ACF5AC98014D2F5C2F6B2DF2
:1018D0007C2D8D2D9F2D0E94C15887FFBBCF0B2DD6
:1018E0001C2DDD2DCF2DB6CF8091370F9091101983
:1018F000981739F026E4829FC0011124885C904F2C
:10190000089590E080E008954F925F926F927F92E9
:101910008F929F92AF92BF92CF92DF92EF92FF92FF
:101920000F931F93CF93DF93CDB7DEB7C057D10985
:101930000FB6F894DEBF0FBECDBF8CE1E0E7FBE150
:10194000DE01119601900D928A95E1F7BE016F5F5D
:101950007F4FCE014D960E946C04BE016F5F7F4F9A
:10196000CE01C9960E946C048CE30E943D068091D2
:10197000D81A883009F44BC108F02FC1813009F41E
:101980004FC108F43FC1823009F44DC1843009F4DD
:1019900044C180918C1C282F2170E22E80FF5CC1F5
:1019A0008091E41A882309F457C18EE793E00E94DE
:1019B000BF08CE014D960E94F40787E793E00E948E
:1019C000BF08CE01C9960E94F40782E793E00E9407
:1019D000BF086091FA1A7091FB1A8091FC1A9091DD
:1019E000FD1A42E00E942E078EE693E00E94BF0897
:1019F0008091AD1C0E948C088AE693E00E94BF088B
:101A000060910F1B7091101B8091111B9091121B04
:101A10000E94D80785E693E00E94BF0860E070E06E
:101A2000CB010E94D8078FE593E00E94BF0860E0D9
:101A300070E0CB010E94D80789E593E00E94BF08BF
:101A400060E070E0CB010E94D80784E593E00E943B
:101A5000BF086091F51A70E090E080E00E94735931
:101A60000E94D8078FE493E00E94BF086091F61AA5
:101A700070E090E080E00E9473590E94D8078BE4E8
:101A800093E00E94BF086091ED1A70E090E080E062
:101A90000E9473590E94D80786E493E00E94BF0811
:101AA0006091EE1A70E090E080E00E9473590E940D
:101AB000D80782E493E00E94BF086091EF1A70E0BB
:101AC00090E080E00E9473590E94D8078DE393E074
:101AD0000E94BF086091F71A70E090E080E00E94D9
:101AE00073590E94D80788E393E00E94BF08609171
:101AF000001B70E090E080E00E9473590E94D807BC
:101B000084E393E00E94BF086091F01A70E090E0D7
:101B100080E00E9473590E94D80780E393E00E94FE
:101B2000BF086091F11A70E090E080E00E94735964
:101B30000E94D8078BE293E00E94BF086091F21ADE
:101B400070E090E080E00E9473590E94D80787E21D
:101B500093E00E94BF086091F91A70E090E080E085
:101B60000E9473590E94D80782E293E00E94BF0846
:101B70006091F41A70E090E080E00E9473590E9436
:101B8000D8078DE193E00E94BF086091F31A70E0DE
:101B900090E080E00E9473590E94D80789E193E0A9
:101BA0000E94BF0860910B1B70910C1B80910D1B54
:101BB00090910E1B40E00E942E0785E193E00E9469
:101BC000BF0880910A1B803109F498C0803209F463
:101BD00025C1811196C085E392C08032D9F050F4BE
:101BE000803109F0D6CE8091DA1A87FD13C08BEAD6
:101BF00093E00AC08034D1F0803809F0CACE85E87D
:101C000093E002C088EB93E00E94BF08C2CE81EB54
:101C100093E0FACF84EA93E0F7CF8DE993E0F4CF35
:101C200087E993E0F1CF81E993E0EECF8BE893E091
:101C30000E94BF088091DA1A83FF04C083E30E94E8
:101C40003D06A7CE82FF06C085FF02C081E3F7CF25
:101C500080E3F5CF82E3F3CF40906C1B50906D1B77
:101C600060906E1B70906F1B84E3A82E8BE1B82EE2
:101C70006E0185E5C80ED11C8E01075C1F4FF12C4B
:101C80004601F50161917191819191915F01208DE2
:101C9000318D428D538D0E94CC57F6016193719323
:101CA000819391936F01F2E0FF1225C0A30192018D
:101CB0000E94CC57F4016087718782879387E11077
:101CC00016C0F60134972081318142815381F80199
:101CD00060817181828193810E94CB57F80160837A
:101CE000718382839383F6E0FF1609F45ECEF3944A
:101CF0000C5F1F4FC6CFEE2021F3F5CF83E30E9488
:101D00003D0681E193E00E94BF088091071B8A5C39
:101D10000E948C0880918C1C81FF1EC08CE093E097
:101D20000E94BF08909110198091370F981708F4FE
:101D300077C08D5D891B0E948C088CE20E943D0655
:101D40008091C1089091C208981708F46BC0981B45
:101D5000892F80950E948C080E94740C009791F046
:101D6000FC01C2A0D3A0E4A0F5A0C114D104E104F9
:101D7000F10441F087E093E00E94BF08C701B6017B
:101D80000E94740882E093E00E94BF088091D81AF4
:101D90008C7709F44AC06091AF1A7091B01A8091A3
:101DA000B11A9091B21A0E94D8078CE20E943D06A7
:101DB0006091E51A7091E61A8091E71A9091E81AFD
:101DC00040E00E942E078091E41A882391F181500F
:101DD0008093E41A8091E31A8823E1F18150809383
:101DE000E31A8EE30E943D060E948009C059DF4F2E
:101DF0000FB6F894DEBF0FBECDBFDF91CF911F911C
:101E00000F91FF90EF90DF90CF90BF90AF909F9099
:101E10008F907F906F905F904F90089584E36FCF85
:101E2000815088CF8150891B95CF60E070E0CB0155
:101E3000BACF8091D81A8C7759F08DE18093E41A4B
:101E40008091E31A8111C6CF81E08093E31AC2CF5B
:101E500089E0F4CF8091D81A8C7711F083E1BFCF5D
:101E600089E0BDCF0E94740C892B19F082E00C949C
:101E7000CE0308952F923F924F925F926F927F927E
:101E80008F929F92AF92BF92CF92DF92EF92FF928A
:101E90000F931F93CF93DF9300D01F92CDB7DEB780
:101EA00000911019002309F486C00983398131504B
:101EB00039831091360F131709F466C0C32ED12C45
:101EC000E6E43E9FC00111249C01285C304F79015B
:101ED000F90172A483A494A4A5A466A577A580A9FA
:101EE00091A99B01AC010E94CC57F70122A933A90B
:101EF00044A955A90E94235BB62EE72EF82E9B839A
:101F0000262F372F482F592F672D782D892D9A2D61
:101F10000E94C15887FF03C0B72C7401AB8286E4CE
:101F20008C9DF0018D9DF00D1124E85CF04F8B2D00
:101F30009E2DAF2DBB8186A397A3A0A7B1A7F98142
:101F40008F2FF11101C084E2FF24FA94F80E309033
:101F5000370F1F1133C0131102C00E94DE04E6E4E4
:101F60001E9FC0011124885C904F9A83898333247B
:101F70003394310EF4E23F1201C0312C86E4282E56
:101F8000031185C01093360F0F900F900F900F9094
:101F9000DF91CF911F910F91FF90EF90DF90CF9045
:101FA000BF90AF909F908F907F906F905F904F9079
:101FB0003F902F90089524E2298378CF298186E4E9
:101FC000289F90011124285C304F3C832B8326E40A
:101FD000E22E8F2C912CFE9CC0011124FC01E85CA8
:101FE000F04FFA83E983F11002C094E2F92EFA94DB
:101FF000F31002C00E94DE04E89CC001E99C900D31
:1020000011249C01285C304F6901F90142A453A4BA
:1020100064A475A4A301920166A177A180A591A5EE
:102020000E94C158882339F1F60166A577A580A9D9
:1020300091A99B01AC010E94CC57F60122A933A9BA
:1020400044A955A90E94235BEB81FC8126A137A1FD
:1020500040A551A50E94CC574B015C01AC019B01EE
:10206000C301B2010E94E35AF60118165CF486A27D
:1020700097A2A0A6B1A629813A813C832B831F1188
:10208000A8CF6DCF46A257A260A671A6F4CFC32CED
:10209000D12C329CC00111249C01285C304F790165
:1020A000E981FA8146A057A060A471A4F90186A035
:1020B00097A0A0A4B1A4A5019401C301B2010E94FC
:1020C000C15887FF26C0E981FA8166A577A580A956
:1020D00091A99B01AC010E94CC57E981FA8122A908
:1020E00033A944A955A90E94235BA30192010E9430
:1020F000CC572B013C01AC019B01C501B4010E94EE
:10210000E35A181634F4F70146A257A260A671A646
:10211000132D2C9CF0012D9CF00D1124E85CF04F48
:1021200022A533A544A555A566A177A180A591A5B3
:102130000E94C158811101C0132D3394F4E23F1263
:1021400001C0312CFA82E9821BCF6F927F928F926D
:102150009F92AF92BF92CF92DF92EF92FF920F9336
:102160001F93CF93DF93EB018C015B018CE1A80EF1
:10217000B11C89E9682E96E7792E26E9822E3EE782
:10218000932EC990D990E990F99020E030E0A90110
:10219000C701B6010E94C1588823B9F0A701960172
:1021A000F80160817181828193810E94CB586B011B
:1021B0007C01E894F7F89301A401C701B6010E94DD
:1021C000E35A181614F0360147010C5F1F4FCA1569
:1021D000DB05B9F6B301C401DF91CF911F910F91D7
:1021E000FF90EF90DF90CF90BF90AF909F908F9037
:1021F0007F906F9008954F925F926F927F92AF920F
:10220000BF92CF92DF92EF92FF920F931F93CF93E3
:10221000DF936C01FB015A01A081A80FB92FB11DFA
:102220008C91ED018D3249F5229611968C9101E049
:10223000512C612C10E020E030E0A9017E0190EDEE
:10224000792E780E89E0871528F16394A8E0A61509
:10225000E8F051101150A5E0B0E00E94A35C9B0192
:10226000AC01220F331F441F551F270D311D411D87
:10227000511D2196D7018C91E1CF8B3219F0219617
:1022800000E0D6CF229611968C91FACF5110F1CF63
:102290001F5FEFCFBEEF7B1205C0511003C0552466
:1022A0005394E7CF662009F17F01CA01B9010E946A
:1022B00073592B013C0120E030E0A9010E94C15874
:1022C00081112EC0002309F448C077FA709477F882
:1022D0007094F5014082518262827382CC19DD09CB
:1022E000C150F701C08366246394862DDF91CF919E
:1022F0001F910F91FF90EF90DF90CF90BF90AF9024
:102300007F906F905F904F9008952AE037ED43E201
:102310005CE3C301B2010E94235B2B013C011E5F01
:102320001F3F9CF31F3F59F42DEC3CEC4CEC5DE35C
:10233000C301B2010E94235B2B013C01C3CF1123D7
:1023400009F220E030E040E251E4C301B2010E9412
:10235000235B2B013C011150F2CFD5014D925D92D0
:102360006D927C921397BACF93B180919D1C86FF9A
:1023700017C09E77B9F094FB882780F995FD82609D
:10238000292F207409F08460292F247092FD886021
:1023900091FD80612111806293FF05C080640895E2
:1023A0009095E7CF80E00895EBE6F0E080818178BA
:1023B0008083E8E6F0E080818E7F8083089584B199
:1023C000817884B9809107018B7F80930701809188
:1023D000080184608093080185B18E6785B980917A
:1023E0009D1C83FF16C080916B008E6780936B00ED
:1023F0008091680081608093680084B7877F84BF84
:102400008091600088618093600081E0809360002B
:1024100008950E94D411F1CF27E030E090E0AC01A4
:10242000022E02C0559547950A94E2F7A09A40FF04
:1024300011C00000000000000000000000000000CB
:10244000000000000000A0980000000021503109A9
:1024500030F7089500000000A09800000000000080
:102460000000000000000000000000000000EECFAF
:10247000809181048823F1F180917A0080648093B7
:102480007A0080917A0086FDFCCF9091780080914F
:102490007900892798278927009721F0893E23E032
:1024A00092075CF010926D0410926E0410926F040B
:1024B00010927004109277040895092E000CAA0B54
:1024C000BB0B40917C0450917D0460917E0470911F
:1024D0007F04840F951FA61FB71F80937C049093E1
:1024E0007D04A0937E04B0937F04809180048F5F6D
:1024F00080938004089560E77BE188E19BE10C9480
:102500006C04F894F999FECF92BD81BD81E08FBB38
:1025100020B5862F8227082E000C990B50E08623C9
:102520009523892B49F084E16F3F11F060BD84E071
:102530008FBBF99A789408952617E1F360BD84E281
:10254000F7CF9F92AF92BF92CF92DF92EF92FF921E
:102550000F931F93CF93DF935C018A017B01E40EFD
:10256000F51EEB01912C6C01C61AD70ACE018C0D19
:102570009D1D21E0911007C0292D990C330B232FAD
:10258000221F2227221F6991962E920E0E948112ED
:10259000CE15DF0559F7692DC501800F911FDF9119
:1025A000CF911F910F91FF90EF90DF90CF90BF9050
:1025B000AF909F900C9481126AE090E080E00E94BE
:1025C000811247E451E068E17CE181E090E00C9405
:1025D000A112F999FECF92BD81BD81E08FBB80B57C
:1025E00008959F92AF92BF92CF92DF92EF92FF92A7
:1025F0000F931F93CF93DF935B018A017C01E40E5D
:10260000F51EEC01912C6B01C81AD90AC6018C0F7A
:102610009D1F0E94E91221E0911007C0292D990CFD
:10262000330B232F221F2227221F982E920E8993CD
:10263000CE15DF0559F7C501800F911F0E94E912E1
:1026400021E030E0891511F030E020E0C901DF9190
:10265000CF911F910F91FF90EF90DF90CF90BF909F
:10266000AF909F900895E9ECF0E080818F7E8083A9
:102670008081806180838091CC0E8093CB0EEBECC7
:10268000FDE080E091E0DF019C011D92215030408F
:10269000E1F70895E3E8F6E08CE3DF011D928A9507
:1026A000E9F71092370F1092101981E0809382069B
:1026B0001092360F089580E00E94D20480E00E94BC
:1026C000C60480E00E94BA04A59880E00E94AE048F
:1026D000E2E0F1E080818F7D808380818F7B808349
:1026E00010988B985F988081877F808308954F92A0
:1026F0005F926F927F92AF92BF92CF92DF92EF92F2
:10270000FF920F931F93CF93DF93EC015C012CE1B9
:10271000A20EB11C8C01C12CD12C7601F801419084
:102720005190619071908F0120E030E0A901C301C8
:10273000B2010E94C158882371F0A3019201C30124
:10274000B2010E94235B9B01AC01C701B6010E944C
:10275000CC576B017C010A151B0501F7C701B601B7
:102760000E94C25B6B017C01AC019B0160E070E0E8
:1027700080E89FE30E94CB582B013C01699179913D
:10278000899199915E01F4E0AF1AB108A301920119
:102790000E94235BF5016083718382839383C0175A
:1027A000D10761F7C701B601DF91CF911F910F915A
:1027B000FF90EF90DF90CF90BF90AF907F906F90A1
:1027C0005F904F9008954F925F926F927F928F9299
:1027D0009F92AF92BF92CF92DF92EF92FF926B01E6
:1027E0007C018090991C90909A1CA0909B1CB090AA
:1027F0009C1C4090951C5090961C6090971C70906B
:10280000981CA3019201C501B4010E94E35A87FFFD
:102810001BC06091E11A70E090E080E00E94755961
:102820002AE037ED43E25CE30E94235BA7019601B7
:102830000E94235B6B017C01AC019B01C301B201CF
:102840000E94C1581816BCF04092E51A5092E61A40
:102850006092E71A7092E81A80E094E0FF90EF909F
:10286000DF90CF90BF90AF909F908F907F906F90B0
:102870005F904F900895A7019601C501B4010E9491
:10288000E35A87FD1FC020E030E0A901C701B6016F
:102890000E94C15881110BC01092E51A1092E61ADD
:1028A0001092E71A1092E81A90E080E0D7CF809259
:1028B000E51A9092E61AA092E71AB092E81A81E01F
:1028C00090E0CCCFC092E51AD092E61AE092E71AD7
:1028D000F092E81AA5019401C701B6010E94CB57F6
:1028E0002091CE0E3091CF0E4091D00E5091D10E4E
:1028F0000E94235B0E94B05920E030E040E85FE393
:102900000E94CC570E944459CB01A8CF2F923F92EE
:102910004F925F926F927F928F929F92AF92BF92EF
:10292000CF92DF92EF92FF920F931F93CF93DF939B
:10293000CDB7DEB7C054D1090FB6F894DEBF0FBED5
:10294000CDBF8091DC1A80FD75C2909111198091E4
:102950001219981709F46EC28091C91A9091CA1A77
:10296000892B09F07EC01091DC1A12FF7DC2809184
:10297000101926E4829FC0011124885C904F909327
:10298000CA1A8093C91A4091C91A5091CA1A5E8313
:102990004D83452B09F44EC20091991A00FF67C27E
:1029A0001092991A1092AB1A1092AC1A1092AD1A9A
:1029B0001092AE1AAD81BE819E962D913D914D91A2
:1029C0005C91D19729833A834B835C8360E070E00C
:1029D00080E09FE30E94CB5869877A878B879C872A
:1029E000ED81FE8142A853A864A875A886A097A08F
:1029F000A0A4B1A411FF29C3F2E0F093AA1AA50183
:102A000094010E94235B9B01AC01C301B2010E94AF
:102A1000CB576B017C0120E030E0A9010E94C15836
:102A200087FF02C329813A814B815C81CA01B901C8
:102A30000E94CC57A30192010E94235B9B01AC0131
:102A4000C501B4010E94CB570E94C25B6093B71AC4
:102A50007093B81A8093B91A9093BA1A18601093A9
:102A6000DC1AE0916319F8E0EF9FD0011124BA87D6
:102A7000A987FD01ED5EF64E8091981A84834090FF
:102A8000C91A5090CA1AD201D296BC91BEA3F201C3
:102A9000F3A9FFA3D201D496BC91B8A7F201F5A97E
:102AA000F9A72091A61A3091A71A4091A81A50911F
:102AB000A91A6EA17FA18B2F9F2F0E94CB576AABC3
:102AC0007BAB8CAB9DAB20E030E0A9010E94C158EC
:102AD00087FF04C01AAA1BAA1CAA1DAA2091BB1A10
:102AE0002E8B3091BC1A3F8B4091BD1A488F50916C
:102AF000BE1A598F8091B31A8E8F9091B41A9F8FFE
:102B0000A091B51AA8A3B091B61AB9A3E091BF1AC3
:102B1000EAA7F091C01AFBA72091C11A2CA7309107
:102B2000C21A3DA74091AF1A4FAF5091B01A2196EB
:102B30005FAF21976090B11A7090B21A8091AA1A73
:102B400089839091AB1A9EA7A091AC1AAFA7B091C0
:102B5000AD1AB8ABE091AE1AE9ABF091B71AFBAF82
:102B60002091B81A2CAF3091B91A3DAF4091BA1AE2
:102B70004EAF2AA53BA54CA55DA56E897F89888DA2
:102B8000998D0E94C1588111EFC352E05EAB9EA1A6
:102B90009D83AFA1AD87B8A5B98BE9A5ED8B8EE379
:102BA000C82E83ECD82E8EE2E82E89E3F82E1A8EFA
:102BB0001B8E1C8E1D8EA70196012AA33BA34CA33E
:102BC0005DA33981313009F449C4D201313008F4B0
:102BD000D3C3333009F075C49E962D913D914D912C
:102BE0005C91D197C701B6010E94235B4B015C0148
:102BF00020E030E040E05FE30E94235B9B01AC01FA
:102C00006FAD21967FAD2197C3010E94CB57A701DD
:102C100096010E94235B6FAB78AF89AF9AAF9B019F
:102C2000AC016D817D8589899D890E94CB571B01EF
:102C30008C012E893F89488D598D0E94C15887FD8E
:102C40000CC020E030E0A9016FA978AD89AD9AAD44
:102C50000E94C15818160CF472C42E893F89488D01
:102C6000598D6EA17FA188A599A50E94CB579B0184
:102C7000AC010E94CC576B017C012E8D3F8D48A189
:102C800059A16FAD21967FAD2197C3010E94CC570A
:102C90009B01AC01C701B6010E94CB586B017C01BE
:102CA000BE8DBFAFEF8D2196EFAF219768A079A0C1
:102CB0002E883F88088D198DF1E0F983A7019601D0
:102CC0006A8D7B8D8C8D9D8D0E94CC576A8F7B8FFA
:102CD0008C8F9D8F2AA13BA14CA15DA10E94C15860
:102CE00087FF67C42A8D3B8D4C8D5D8D6AA17BA1CA
:102CF0008CA19DA10E94CB576B017C019101A80181
:102D00006EA57FA588A999A90E94C15887FD2FC3E8
:102D10008FAD21969FAD2197D3018093AF1A9093E9
:102D2000B01AA093B11AB093B21AF981F093AA1A0B
:102D3000E0916419F091651981A1811104C090910D
:102D4000DC1A93FF33C0D20191969C91907309F4E1
:102D50005EC4F201EE5BFF4FC080D180E280F38061
:102D60008823B9F02091C31A3091C41A4091C51A32
:102D70005091C61A6FAD21967FAD2197C3010E9475
:102D8000235B9B01AC01C701B6010E94235B6B0171
:102D90007C01C701B6010E94E3139093C81A809387
:102DA000C71A8091DC1A877F8093DC1A8091C71A3A
:102DB0009091C81AE985FA85ED5EF64EFE83ED83A3
:102DC000978386832091A21A3091A31A4091A41A66
:102DD0005091A51AB101C8010E94235B2B013C014F
:102DE0000E94AA586B017C0160919E1A70919F1AF3
:102DF0008091A01A9091A11A0E94AA584B015C01DF
:102E0000A70196010E94CB570E94445969837A8397
:102E10008B839C83E981FA81AD81BE81ED93FC9324
:102E2000EF2B09F001C48091DC1A81FFFDC38160A2
:102E30008093DC1AC05CDF4F0FB6F894DEBF0FBE84
:102E4000CDBFDF91CF911F910F91FF90EF90DF9059
:102E5000CF90BF90AF909F908F907F906F905F903A
:102E60004F903F902F9008950E94740C88CD8091D0
:102E7000981A8F5F893009F480E08093981A282F80
:102E800030E052E2859FC0011124DC01AA59B64E00
:102E90007D01B0936519A0936419ED81FE8180A135
:102EA00090968C9390E080E0419151916191719165
:102EB000D701A80FB91F689412F8440F551F661F59
:102EC000771F1694D1F74D935D936D937C93139771
:102ED00004968C31910541F7AD81BE815C966D9170
:102EE0007D918D919C915F97B2E2B29FA001B39FBB
:102EF000500D1124FA01EA59F64E4B015C0123E012
:102F0000880C991CAA1CBB1C2A95D1F7848E958E1F
:102F1000A68EB78E0E94735960939E1A70939F1A63
:102F20008093A01A9093A11AED81FE8122A933A962
:102F300044A955A90E94CB589B01AC012093A21A29
:102F40003093A31A4093A41A5093A51A60E070E03E
:102F500080EA9FE30E94CB586093A61A7093A71A49
:102F60008093A81A9093A91A10929A1A10929B1AF9
:102F700010929C1A10929D1A11FD02C003FF43C0CB
:102F80006091B71A7091B81A8091B91A9091BA1AD3
:102F90006093AF1A7093B01A8093B11A9093B21ADB
:102FA0009B01AC010E94235BAD81BE8196966D931F
:102FB0007D938D939C939997077F0093991AD701DE
:102FC00091961C9280919D1C81FFECCCED81FE813D
:102FD00081A185FFE7CCFE9620813181428153811A
:102FE00060E070E080E89FE30E94CB586093C31AD2
:102FF0007093C41A8093C51A9093C61AE1E0D70162
:103000009196EC93CFCCED81FE8166A177A180A54E
:1030100091A50E94C25B6093AF1A7093B01A80931F
:10302000B11A9093B21ACBCFC092AB1AD092AC1A0D
:10303000E092AD1AF092AE1A1092B71A1092B81A26
:103040001092B91A1092BA1A09CD1092AA1A409287
:10305000BB1A5092BC1A6092BD1A7092BE1A12FF2F
:103060006AC01092B71A1092B81A1092B91A109238
:10307000BA1AC12CD12C76018D819E810E94FF0B42
:10308000698B7A8B8B8B9C8B9B01AC010E94235BA1
:103090006D837E838F839887A50194010E94C15818
:1030A00087FF93C02D813E814F815885C501B401B2
:1030B0000E94CB5729853A854B855C850E94235B0E
:1030C0009B01AC01C301B2010E94CB576093BB1AB4
:1030D0007093BC1A8093BD1A9093BE1A20E030E022
:1030E000A9010E94C15818160CF449C032E030936F
:1030F000AA1A29813A814B815C81CA01B9010E94D7
:10310000CC57A30192010E94235B9B01AC01C50136
:10311000B4010E94CB570E94C25B6093B71A7093B0
:10312000B81A8093B91A9093BA1A8091991A886044
:103130008093991A93CCE091370FEF5FE43209F452
:10314000E0E080911019C12CD12C76018E1751F03E
:1031500026E42E9FF0011124E85CF04FC6A0D7A012
:10316000E0A4F1A4C701B6010E94C25B6093B71A44
:103170007093B81A8093B91A9093BA1A7DCFA701A9
:1031800096016D817E818F8198850E94CB5729851C
:103190003A854B855C850E94235B6093BF1A7093D0
:1031A000C01A8093C11A9093C21A89899A89AB89EF
:1031B000BC898093B31A9093B41AA093B51AB093B4
:1031C000B61A93E09093AA1A49CCA7019601C501BB
:1031D000B4010E94CB5729853A854B855C850E94B6
:1031E000235BA30192010E94CC5720E030E040E035
:1031F0005FE30E94235B6D877E878F87988B20E03B
:1032000030E0A9010E94E35A18160CF094C0A30103
:1032100092016D857E858F8598890E94C15887FFB0
:1032200088C0A70196016D817E818F8198850E945B
:10323000CB5729853A854B855C850E94235B9B0192
:10324000AC012093BF1A3093C01A4093C11A509317
:10325000C21A6D857E858F8598890E94E35A18165B
:10326000BCF529893A894B895C892093B31A30933C
:10327000B41A4093B51A5093B61AA50194016D8102
:103280007E818F8198850E94C158811104C031E0F0
:103290003093AA1AE3CBA50194016D817E818F81C1
:1032A00098850E94CB5729853A854B855C850E947D
:1032B000235B9B01AC01C301B2010E94CB57609319
:1032C000BB1A7093BC1A8093BD1A9093BE1AC6CBDA
:1032D0008D859E85AF85B8898093BB1A9093BC1A63
:1032E000A093BD1AB093BE1A8093BF1A9093C01AD0
:1032F000A093C11AB093C21A29813A814B815C8193
:10330000CA01B9010E94CC572D853E854F85588949
:103310000E94235BA70196010E94CC570E94C25BCA
:103320006093B31A7093B41A8093B51A9093B61A37
:1033300095CB92E047CF8091B71A9091B81AA0919F
:10334000B91AB091BA1A1092BB1A1092BC1A109204
:10335000BD1A1092BE1A8093B31A9093B41AA09318
:10336000B51AB093B61A7ACB81E08EAB10CC2D8211
:103370003D86098B1D8B25CC9E962D913D914D91BF
:103380005C91D197C701B6010E94235B4B015C01A0
:1033900020E030E040E05FE30E94235B2FAD219608
:1033A0003FAD2197A3010E94CC57A70196010E942F
:1033B000235B9B01AC016D817D8589899D890E947C
:1033C000CB571B018C019B01AC016E897F89888DD5
:1033D000998D0E94E35A181694F52E893F89488DDD
:1033E000598D6EA17FA188A599A50E94CB579B01FD
:1033F000AC010E94CC576B017C012E8D3F8D48A102
:1034000059A16FAD21967FAD2197C3010E94CC5782
:103410009B01AC01C701B6010E94CB586B017C0136
:10342000BEA9B983EE8DEFAFFF8D2196FFAF219737
:1034300068A079A02E883F88088D198D3FCCA50102
:1034400094016FAD21967FAD2197C3010E94CC57A7
:103450006FAF21967FAF21973C0130CC2E8D3F8DF1
:1034600048A159A1C701B6010E94235B9B01AC0191
:103470006D817D8589899D890E94CB571B018C01B7
:103480002AA53BA54CA55DA50E94C15887FF16CC77
:103490002AA53BA54CA55DA56D817D8589899D8962
:1034A0000E94CB572E8D3F8D48A159A10E94CB5829
:1034B0006B017C012AA43BA40CA51DA522E0298355
:1034C000FDCB9E962D913D914D915C91D197C70179
:1034D000B6010E94235B4B015C01AC019B016FAD07
:1034E00021967FAD2197C3010E94E35A18168CF5EF
:1034F00020E030E040E05FE3C501B4010E94235BBF
:103500009B01AC016FAD21967FAD2197C3010E9455
:10351000CB57A70196010E94235B9B01AC016D81F3
:103520007D8589899D890E94CB571B018C012EA521
:103530003FA548A959A90E94E35A181654F4A501B9
:1035400094016FAD21967FAD2197C3010E94CB57A7
:103550007FCF2EA53FA548A959A96D817D85898971
:103560009D890E94CB579B01AC010E94CC576B01F7
:103570007C012BAD3CAD4DAD5EAD6FAD21967FAD09
:103580002197C3010E94CC579B01AC01C701B60132
:103590000E94CB586B017C01BBADBFAFECAD219657
:1035A000EFAF21976DAC7EAC2EA43FA408A919A95A
:1035B00085CB2AA93BA94CA95DA9B101C8010E94EC
:1035C000E35A18169CF42EE333EC4EE259E36AA159
:1035D0007BA18CA19DA10E94CC576AA37BA38CA345
:1035E0009DA32A8D3B8D4C8D5D8D84CB8FAD219617
:1035F0009FAD2197D3018093AF1A9093B01AA093F7
:10360000B11AB093B21A29812093AA1A91CB1092C1
:10361000E51A1092E61A1092E71A1092E81A109220
:10362000C81A1092C71ABDCB20919A1A30919B1AD2
:1036300040919C1A50919D1A6A8D7B8D8C8D9D8D29
:103640000E94CC576D837E838F839887A30192015C
:10365000C501B4010E94CB579B01AC016D817E81F5
:103660008F8198850E94CB584B015C0120EC31EE94
:1036700044E65EE40E94235B0E94AA580E944459DB
:10368000E985FA85ED5EF64E603D37E0730781050A
:10369000910508F054C01582E985FA85ED5EF64E75
:1036A0007383628380911219809363198F5F8A30CC
:1036B00009F47BC080931219E091C91AF091CA1ADB
:1036C000C101D80182AB93ABA4ABB5ABC0929E1A3B
:1036D000D0929F1AE092A01AF092A11AA30192012F
:1036E000C701B6010E94CB57A50194010E94235B3C
:1036F00060939A1A70939B1A80939C1A90939D1AC8
:103700002091AB1A3091AC1A4091AD1A5091AE1A7B
:10371000B101C8010E94C158811117C99091DC1AEA
:10372000998320E030E0A901B101C8010E94E35A69
:103730001816F4F5A981A160A093DC1A7BCB603A3E
:103740004FE074078105910520F551E05583E98527
:10375000FA85ED5EF64E2581022E04C0969587957A
:10376000779567950A94D2F749815A8102C0440F30
:10377000551F2A95E2F7518340836115710551E089
:103780008507910508F488CF8FEF9FEF938382839D
:1037900089CF6034AFE17A078105910518F4B2E072
:1037A000B583D5CF23E02583D2CF1092121984CFD1
:1037B000B981B2FF04C0B160B093DC1A3BCB109268
:1037C000CA1A1092C91A9091370F8091101989174F
:1037D00009F4BBC881E0890F843209F480E02091AC
:1037E000360F921302C08093360F8093370FADC807
:1037F000019708F40895EFE9FFE03197F1F700C071
:103800000000F6CF80916F008D7F80936F008091D4
:103810008100887F8160809381001092F20E8091F8
:103820008B1C9091D81A8F3F49F42091CF1A211107
:1038300005C0903829F490E00C94F81B9430D9F727
:103840000895CF93DF930E94021CE8E9FAE181E337
:10385000DF011D928A95E9F7C3EFDEE083E4FE0104
:1038600011928A95E9F71092CA1A1092C91A109209
:1038700011191092631981E0809312191092F20EBF
:103880000E945C058091F10E8F8F82B181709091C2
:10389000F00E892B82B988B181709091F10E892B3D
:1038A00088B9DF91CF910895EF92FF920F931F9304
:1038B000CF93DF93EC01FC0127E08FEF9FEF2150C6
:1038C000D9F48C017E0186E0E80EF11C89910E94FA
:1038D000EF05EC16FD06D1F7802F0E94EF05812F32
:1038E0000E94EF0582E390E0DF91CF911F910F914D
:1038F000FF90EF900C94F81B3191832748E050E043
:10390000BC016170772796958795672B21F031E090
:10391000832730EA93274150510991F7D0CFCF93B5
:10392000DF9300D000D0CDB7DEB780919D1C81FF22
:103930000EC08091A0008F7D8093A00026960FB6C8
:10394000F894DEBF0FBECDBFDF91CF91089586E022
:10395000E9E0F2E0DE01119601900D928A95E1F71F
:10396000CE0101960E94541CE9CFCF92DF92EF92D4
:10397000FF92CF93DF9300D000D0CDB7DEB7909108
:10398000D91A911110C06A017B01811119C01092DE
:10399000E51A1092E61A1092E71A1092E81A0E949D
:1039A0008F1C1092E31A26960FB6F894DEBF0FBE56
:1039B000CDBFDF91CF91FF90EF90DF90CF90089532
:1039C00090919D1C9270803181F486E0EFE0F2E0EE
:1039D000992381F080919D1C81FF17C0C701B6011A
:1039E0000E94E3130E941405DCCF9111F3CF86E00F
:1039F000E5E1F2E0DE01119601900D928A95E1F782
:103A0000CE0101960E94541CE5CF20E030E040EC4E
:103A100050E4C701B6010E94CB580E94445981E08E
:103A2000898386E08A8380EF8B8388E08C837D8323
:103A30006E83CE0101960E94541CB3CFE1E0F1E009
:103A400080818061808383E08093A0008AE18093FD
:103A5000A10080E094E09093A9008093A8002091B9
:103A6000991C30919A1C40919B1C50919C1C609118
:103A7000951C7091961C8091971C9091981C0E94A7
:103A8000CB579B01AC0160E070EC8FE794E40E949F
:103A9000CB586093CE0E7093CF0E8093D00E909340
:103AA000D10E0C948F1C2F923F924F925F926F9287
:103AB0007F928F929F92AF92BF92CF92DF92EF92BE
:103AC000FF920F931F93CF93DF93CDB7DEB72F975E
:103AD0000FB6F894DEBF0FBECDBF082F4B016DB6F9
:103AE0007EB68CE0EBE1F2E0DE01119601900D92E2
:103AF0008A95E1F70E94331310E0180184E0220C4C
:103B0000331C8A95E1F723E02D872E013DE0430E1B
:103B1000511CF101E85FF24EFF87EE878101075FDC
:103B2000124E9E012F5F3F4F7901F70181917F0176
:103B30000E940806E414F504C1F7F12CE12CF10110
:103B4000EE0DFF1DE650F34E80810E940806FFEF48
:103B5000EF1AFF0A2EE0E216F10489F7EE85FF85E1
:103B6000E080F8018081FE2CE82EE80CF91C8F2DF6
:103B70000E940806FE2DFF70EF2E8F2F0E94080670
:103B800085E50E940806EE85FF85F082F801E08257
:103B900084E690E00E94F81B0E94C5058A3A19F558
:103BA0000E94C505CDB6DEB6A82EB12C2DB73EB706
:103BB0002A193B090FB6F8943EBF0FBE2DBFEDB7D3
:103BC000FEB731967F01682FCF010E94AF05EA0C46
:103BD000FB1CF70131978081853559F00FB6F894B9
:103BE000DEBE0FBECDBEFD85F150FD87F11199CF30
:103BF00005C00FB6F894DEBE0FBECDBE0FB6F8946A
:103C00007EBE0FBE6DBE2F960FB6F894DEBF0FBE00
:103C1000CDBFDF91CF911F910F91FF90EF90DF907B
:103C2000CF90BF90AF909F908F907F906F905F905C
:103C30004F903F902F9008955F926F927F928F9256
:103C40009F92AF92BF92CF92DF92EF92FF920F932B
:103C50001F93CF93DF9300D000D000D01F921F920C
:103C6000CDB7DEB74C016DB67EB68BE0E7E2F2E091
:103C7000DE01119601900D928A95E1F70E943313AF
:103C80008FE0582E5E012CE0A20EB11C8E010F5F5A
:103C90001F4FF80181918F010E940806A016B106FE
:103CA000C1F784E690E00E94F81B0E94C5058A3A9D
:103CB00009F04BC00E94C505CDB6DEB6082F10E056
:103CC0002DB73EB7201B310B0FB6F8943EBF0FBE89
:103CD0002DBFEDB7FEB731967F01682FCF010E944F
:103CE000AF050E0D1F1DF80131978081853541F517
:103CF000F701369680E1D40101900D928A95E1F7A3
:103D00000FB6F894DEBE0FBECDBE0FB6F8947EBEE1
:103D10000FBE6DBE2B960FB6F894DEBF0FBECDBFA3
:103D2000DF91CF911F910F91FF90EF90DF90CF9097
:103D3000BF90AF909F908F907F906F905F9008950D
:103D40000FB6F894DEBE0FBECDBE5A9451109ECF72
:103D5000DCCFCF93C82F83ED92E00E94BF088C2F59
:103D60000E948C080E94800984EF91E0CF910C940E
:103D7000F81B4F925F926F927F928F929F92AF92B9
:103D8000BF92CF92DF92EF92FF920F931F93CF9348
:103D9000DF93C091CF1ACC23F9F081E08093D81A39
:103DA0008C2F0E94A91EC150C23088F48AE495E08D
:103DB0000E94BF088DE395E00E94BF080E949C0B03
:103DC00080E10E94C4038091CE1A84FFFCCF8FB79C
:103DD000F8941092CF1A8FBFC091CE1ACC2309F459
:103DE000DBC0C4FF14C081E08093D91ADF91CF916A
:103DF0001F910F91FF90EF90DF90CF90BF90AF9009
:103E00009F908F907F906F905F904F900895C0FF2C
:103E100005C00E94840C81E00E94C4038C2F887E20
:103E200009F46AC08091D81A982F937009F053C092
:103E30008872A9F08091DA1A807C89F40E94DE04ED
:103E400082E08093DC1A8091D81A803241F480E2BB
:103E5000C7FD0CC08091DA1A80688093DA1A8091CD
:103E6000D81A811103C091E09093DA1AC6FF07C0F7
:103E700085FD05C09091DA1A90649093DA1AC3FF19
:103E800005C0807E19F480E18093D81AC5FF23C055
:103E90008AE495E00E94BF0881E095E00E94BF0897
:103EA0000E949C0B8091DA1A87FD10C09091D81A5D
:103EB000903451F483FF04C0837E82608093DA1AC9
:103EC00080E48093D81A02C09038D1F78091DA1A32
:103ED00080628093DA1AC7FF0CC08091D81A8130B3
:103EE00029F48091DA1A85608093DA1A80E8809349
:103EF000D81A88EE0E94C403C1FF28C08C2F887690
:103F000011F58091D81A803441F48091DA1A85FD38
:103F100004C084FFF4C01092D81A8091D81A882364
:103F200009F4F3C084FF0FC09091DA1A90FF0BC020
:103F3000803109F0EAC08091E21A882309F4E5C0D3
:103F400088608093E21A82E00E94C403C2FF24C00A
:103F50009091DA1A8091D81A807D09F4EFC080918F
:103F6000DB1A8111EBC097FDEBC00E94DE0480914B
:103F7000370F8093360F0E943A0F8091DC1A81FF31
:103F800005C09091DA1A91609093DA1A897F809334
:103F9000DC1A84E00E94C4039091D01A992309F49A
:103FA0004DC08FB7F8941092D01A8FBF4091DF1A8E
:103FB000842F90FD84E691FD865F92FD8A5093FDEB
:103FC0008F5F94FD8150893C08F088EC8A3008F4BA
:103FD0008AE03091E01A232F95FD24E696FD22E336
:103FE00097FD29E1481302C0231741F18093DF1A9E
:103FF0002093E01A1092E31A8090370F4090101926
:10400000C82D89E9B82E96E7E92E26E9F22EDEE7DB
:1040100036E4532EC411AFC08B2D9E2DAF2DBD2F76
:104020008093BB069093BC06A093BD06B093BE06DA
:104030000E94DE048092360F0E943A0F9091D11AAE
:10404000992309F445C08FB7F8941092D11A8FBF05
:104050002091E11A822F90FD84E691FD865F92FD0A
:104060008A5093FD8F5F94FD8150893C08F088EC65
:104070008A3008F48AE0281749F02091DC1A286079
:104080002093DC1A8093E11A1092E31A8091D81AD7
:1040900095FF09C0803139F42091E21A2111C0C086
:1040A00022E02093E21A292F207C91F0882311F03E
:1040B000887171F08091091B97FF03C087FFB4C01E
:1040C0008F7796FF03C086FFB1C08F7B8093091B5B
:1040D0008091D81A8C7F09F489CEDF91CF911F91FE
:1040E0000F91FF90EF90DF90CF90BF90AF909F9097
:1040F0008F907F906F905F904F900C94861482FF0A
:104100000CCF88608093DA1A08CF1092DC1A0E94D4
:10411000740C892B71F08091DA1A86FD0AC0109216
:10412000DA1A88E08093D81A0E9486140E94020549
:104130000ACF1092DA1A1092D81A05CF97FF0AC048
:104140001092DC1A0E944A130E94211C0E947B12CA
:104150000E94EE0B8091DA1A85FF08C08F7781608C
:104160008093DA1A80E48093D81A13CF1092DA1A67
:104170001092D81A0ECFCC2ED12CC59DC00111247F
:10418000885C904F0E94FF0B3B01982EA92E2B2D8F
:104190003E2D4F2D5D2F0E94E35A5C9C80015D9C5B
:1041A000100D1124085C104F18169CF52B2D3E2D78
:1041B0004F2D5D2F6B2D7E2D8F2D9D2F0E94235B0C
:1041C000F80162A773A784A795A75C9C80015D9CFA
:1041D000100D1124085C104FF801C6A8D7A8E0AC58
:1041E000F1ACA701960162A573A584A595A50E94CF
:1041F000E35A18162CF4F801C2A6D3A6E4A6F5A635
:10420000CF5FC43209F4C0E0B62CE72CF92CDA2DCC
:1042100001CF9301492D5A2DB301892D9A2DCECF6F
:1042200020FF41CF24603DCF80684BCF80644ECFCC
:10423000CF92DF92EF92FF920F931F93CF93DF9372
:104240000E94B91E8091DA1A882309F460C00E9486
:10425000740C0097D1F5C0910A1B8091091BC82BE3
:10426000C0900B1BD0900C1BE0900D1BF0900E1B10
:1042700080919D1C81FF03C080E20E94AC03C0734B
:10428000D1E08091DA1A882309F441C09091D91ABB
:1042900091113DC080FF16C09091D81A292F207C23
:1042A00009F484C082FD1BC01092E21A40E050E085
:1042B000BA0180E00E94B51C8091DA1A8D7F84607B
:1042C0008093DA1A0E94B91EDCCFFC01C1A18E5B7B
:1042D0009F4FFC01C080D180E280F380C9CF90382D
:1042E00011F58AE495E00E94BF0888EB94E00E94F3
:1042F000BF080E949C0B40E050E0BA0180E00E94A1
:10430000B51C0E94021C8091D91A882349F0DF91C4
:10431000CF911F910F91FF90EF90DF90CF90089574
:104320000E94B91EF0CF903429F4909106018F7D40
:104330008093DA1A8091DA1A83FFC4CF90910A1B16
:10434000992359F081FDBECF80919D1C81FF10C043
:104350008091DC1A88608093DC1A8091DA1A81FDE2
:10436000B1CF80618093DA1A82E00E94CE03AACF97
:10437000B701A6018C2F0E94B51C01E510E0015089
:10438000110959F38091D91A8111E7CF0E94B91E02
:104390008091DA1A81FD96CFFFEF20E782E0F1509D
:1043A00020408040E1F700C00000E9CF8091E21A90
:1043B0008823C9F181FF0DC080910A1B882351F128
:1043C00040E050E0BA0180E00E94B51CD093E21AB0
:1043D00079CF8C7009F476CF80910A1B882399F0ED
:1043E0008AE495E00E94BF0881EC94E00E94BF0837
:1043F0000E949C0B80919D1C81FF0FC08091DC1A54
:1044000088608093DC1A8091E21A83FF03C082E007
:104410000E94CE031092E21A55CFB701A6018C2F4D
:104420000E94B51CF0CF8091DC1A83FF4BCFB701FF
:10443000A6018C2F0E94B51C8091DC1A877F809387
:10444000DC1A40CF0E94320F0E9418218091D91AA5
:10445000811108C00E94740C892BB1F78091D81A81
:10446000883091F308950E9422221092E41A089550
:10447000CF92DF92EF92FF92CF939091D81A923021
:1044800079F06A017B01C82F0E942222B701A601A0
:104490008C2FCF91FF90EF90DF90CF900C94B51CB4
:1044A000CF91FF90EF90DF90CF9008950F931F93DF
:1044B000CF93DF938B0121E031E0829FE001839F66
:1044C000D00D1124DD5F40E051E0BE01C8010E9423
:1044D000F112892B81F4F80110820E94222240E01F
:1044E00051E0B801CE010E94A11280E0DF91CF918E
:1044F0001F910F91089581E0F9CF0F931F93CF93F0
:10450000C82F8B010E9422222DE1C29FC0011124DD
:104510004CE150E0B8019E5FCF911F910F910C9438
:10452000A1121F93CF93DF93182FEB018DE1189FFA
:10453000B00111247E5F4CE150E0CE010E94F112E7
:10454000892B71F48CE1FE0111928A95E9F7BE0185
:10455000812F0E947D2280E0DF91CF911F910895ED
:1045600081E0FACF4F925F926F927F928F929F92EB
:10457000AF92BF92CF92DF92EF92FF920F931F9371
:10458000CF93DF93CDB7DEB76C970FB6F894DEBF4D
:104590000FBECDBF182F80FF2CC28AE08093881CED
:1045A00089E180938B1C1092891C82E080938A1C85
:1045B00080938C1C8AE097EDA3E2BCE380938D1C72
:1045C00090938E1CA0938F1CB093901C8FE692E169
:1045D000A3E0BBE38093911C9093921CA093931C47
:1045E000B093941C80E090E0AFE7B3E48093951C17
:1045F0009093961CA093971CB093981C1092991CB2
:1046000010929A1C10929B1C10929C1C10929E1C43
:1046100080E090E0A8ECB1E480939F1C9093A01CF4
:10462000A093A11CB093A21C80E090E0A6E1B4E4AA
:104630008093A31C9093A41CA093A51CB093A61CCC
:104640008AEF90E09093A81C8093A71C80E090E0F4
:10465000A0E0B0E48093A91C9093AA1CA093AB1C8B
:10466000B093AC1C88E180939D1C80E090E0A8ECA6
:10467000B3E48093181C9093191CA0931A1CB09358
:104680001B1C80931C1C90931D1CA0931E1CB0939C
:104690001F1C8093201C9093211CA093221CB0937C
:1046A000231C80E090ECAAE5B5E48093341C909341
:1046B000351CA093361CB093371C8093381C909304
:1046C000391CA0933A1CB0933B1C80933C1C9093E4
:1046D0003D1CA0933E1CB0933F1C80E098ECAFEAD9
:1046E000B9E48093501C9093511CA093521CB0933A
:1046F000531C8093541C9093551CA093561CB0934C
:10470000571C8093581C9093591CA0935A1CB0932B
:104710005B1C80E090E0A8ECB3EC80936C1C909361
:104720006D1CA0936E1CB0936F1C8093701C9093B3
:10473000711CA093721CB093731C8093741C909393
:10474000751CA093761CB093771C80E090E0ACE5DC
:10475000B2EC8093B61C9093B71CA093B81CB09396
:10476000B91C1092BA1C1092BB1C1092BC1C109267
:10477000BD1C80E090E0A8E5B2EC8093BE1C909355
:10478000BF1CA093C01CB093C11C8DEC9CECACE88A
:10479000BFEB80935A1D90935B1DA0935C1DB0935B
:1047A0005D1D86E280935E1D1092AD1C1092AE1CC2
:1047B0001092AF1C1092B01C1092B11C1092B21C3F
:1047C0001092B31C1092B41C1092B51C42ECC42E73
:1047D0004CE1D42E5EEDE52EFF24FA946DEC462ECE
:1047E0006CEC562E6CE4662E6EEB762E812C912CA2
:1047F00076EFA72E72ECB72EF6014192519261929C
:1048000071926F01B7010F2C000C880B990B0E945D
:104810007559F601648B758B868B978B84A695A64C
:10482000A6A6B7A6F3E2EF1AF1088CE0E8168FEF20
:10483000F80611F7EAE0FDE181E070EC60E453E096
:104840004AE036E022E392E28083118212821382F0
:104850007483658316821782108611865287438778
:1048600034872587868797877096ADE1EA34FA0703
:1048700059F710924A1D10924B1D10924C1D109228
:104880004D1D10924E1D10924F1D1092501D1092F2
:10489000511D1092521D1092531D1092541D1092D2
:1048A000551D1092561D1092571D87E08093581D7C
:1048B00084E08093591D80E090E0A4E3B3E480930A
:1048C000241C9093251CA093261CB093271C80E0E9
:1048D00090ECAAE5B5E48093401C9093411CA09312
:1048E000421CB093431C40E058EC6FEA79E44093DB
:1048F0005C1C50935D1C60935E1C70935F1C80E099
:1049000090E0A8E4B3EC8093781C9093791CA0937A
:104910007A1CB0937B1C812C912C20EAA22E23E4DC
:10492000B22E8092281C9092291CA0922A1CB09230
:104930002B1CC12CD12C3AE7E32E35E4F32EC09288
:10494000441CD092451CE092461CF092471C4093B8
:10495000601C5093611C6093621C7093631C809375
:104960007C1C90937D1CA0937E1CB0937F1C809236
:104970002C1C90922D1CA0922E1CB0922F1C4093A8
:10498000641C5093651C6093661C7093671CC092F6
:10499000481CD092491CE0924A1CF0924B1C809318
:1049A000801C9093811CA093821CB093831C8092E6
:1049B000301C9092311CA092321CB092331C409358
:1049C000681C5093691C60936A1C70936B1CC092A6
:1049D0004C1CD0924D1CE0924E1CF0924F1C8093C8
:1049E000841C9093851CA093861CB093871C0E9406
:1049F000DC1211FF0FC0FE0131967F018CE1119294
:104A00008A95E9F700E0B701802F0E947D220F5FB1
:104A10000830C9F712FF14C060E080E093E00E9404
:104A2000811260E081E093E00E94811260E081E009
:104A300094E00E94811260E082E094E00E94811282
:104A400013FF0AC060E08EEA93E00E94811260E0EA
:104A50008FEA93E00E9481126C960FB6F894DEBF45
:104A60000FBECDBFDF91CF911F910F91FF90EF90BF
:104A7000DF90CF90BF90AF909F908F907F906F907E
:104A80005F904F900895EF92FF920F931F93CF93F3
:104A9000DF93CDB7DEB765970FB6F894DEBF0FBED4
:104AA000CDBFE5E1FE2EE2E3F2E0DE0111960190DA
:104AB0000D92FA94E1F78230910549F1E0F4019703
:104AC00009F162307105B1F140F56130710571F1A4
:104AD0004230510509F441C098F541305105C9F102
:104AE0002230310509F457C0F0F52130310509F4C1
:104AF00045C01F8657C08330910561F0049709F7C0
:104B00008FEF03C08FEF8E838F838887DACF8FEF8D
:104B10008F83D7CF8FEF8E83D4CF6330710569F049
:104B20008FEF64307105A1F68B87D2CF8FEF898725
:104B30008A87FACF8FEF8A87CBCF8FEF8987C8CF4D
:104B40004330510569F08FEF4430510549F68E87A7
:104B5000C7CF8FEF8C878D87FACF8FEF8D87C0CF30
:104B60008FEF8C87BDCF23303105D1F02430310554
:104B700009F0BFCF1F86188A8FEF03C08FEF8F8792
:104B8000888B898B02301105E1F170F40130110539
:104B9000A9F01A8A3DC01F868FEF888B198AF2CF41
:104BA0008FEF8F87188AFACF0330110579F104301F
:104BB000110579F71A8A1B8A8FEF03C08FEF8A8B52
:104BC0008B8B8C8B8E010F5F1F4F7E0186E1E80E71
:104BD000F11CF80181918F010E94EF050E151F0550
:104BE000C1F784E690E065960FB6F894DEBF0FBE7D
:104BF000CDBFDF91CF911F910F91FF90EF900C945B
:104C0000F81B1A8A8FEF8B8B1C8ADCCF8FEF8A8B75
:104C10001B8AFACFCF93DF93D82FA198A19AF8944B
:104C2000C0EAD13019F580E00E940C128FEF0E948B
:104C30000C1280E00E940C12C15099F778948CE31A
:104C400090E0A0E0B0E08A309105A105B105E8F45C
:104C500025E02A95F1F700000197A109B109009715
:104C6000A105B10581F7DF91CF910895D23029F4E4
:104C70008FEF0E940C1280E0DACF80E00E940C12CD
:104C800080E00E940C128FEFD5CF25E32A95F1F733
:104C900000000A97A109B109E2CF8091CE1A84FDE4
:104CA00020C080E10E94CE030E948F1C0E945B13F3
:104CB0009091D81A892F8C7221F48091DC1A867019
:104CC00059F0943079F48091CF1A811103C086E0B5
:104CD0000E94BE030E94021C81E00E940A261092DC
:104CE000F91A089583E0F4CF3F924F925F926F924A
:104CF0007F928F929F92AF92BF92CF92DF92EF926C
:104D0000FF920F931F93CF93DF93CDB7DEB76697D4
:104D10000FB6F894DEBF0FBECDBF9091D81A913078
:104D200009F464C098E0E7E4F2E0DE011196019036
:104D30000D929A95E1F798E0EFE4F2E0DE01199622
:104D400001900D929A95E1F796E0E7E5F2E0DE0139
:104D5000519601900D929A95E1F79091D31A909304
:104D6000D21A8E01075F1F4F882309F49BC0CE0122
:104D700001966C01F60181916F010E94EF05C0164A
:104D8000D106C1F784E690E00E94F81B0E949E05C0
:104D90008F3FE1F722E3D22E5E01F7E1AF0EB11CA7
:104DA000812C38E0932E8E010F5E1F4FF801819108
:104DB0008F010E94EF05A016B106C1F784E690E0CE
:104DC0000E94F81B0E949E058F3F41F5C4018E1979
:104DD0009F09F1E0EF16F8E0FF0610F0C7019850C8
:104DE00084369105D8F581E08093EE1A66960FB669
:104DF000F894DEBF0FBECDBFDF91CF911F910F9111
:104E0000FF90EF90DF90CF90BF90AF909F908F90EA
:104E10007F906F905F904F903F9008958E3F91F6F6
:104E20000E949E058E3F71F60E949E05853051F6C8
:104E30000E949E05813031F60E949E05823011F657
:104E40000E949E05082F0E949E05182F0E949E0515
:104E50008A3F09F0B7CFF02EE12EB4CFDA94D1100B
:104E6000A2CF81E08093D81A8AE00E94A91E0E94F6
:104E70004D2666960FB6F894DEBF0FBECDBFDF910C
:104E8000CF911F910F91FF90EF90DF90CF90BF9047
:104E9000AF909F908F907F906F905F904F903F90DA
:104EA0000C9418214E0181E1880E911C6801F601D5
:104EB00081916F010E94EF058C149D04C1F784E677
:104EC00090E00E94F81B0E949E058F3FE1F782E36D
:104ED000382E2E01F7E14F0E511C96EF692E99E006
:104EE000792E5401F50181915F010E94EF05A41410
:104EF000B504C1F784E690E00E94F81B0E949E056D
:104F00008F3FB1F4F7EFEF16F9E0FF0680F1C7012C
:104F1000865F994084369105D8F51092EE1AF80113
:104F200081918F010E94EF05C016D106C1F75ECFB7
:104F30008E3F21F70E949E058E3F01F70E949E053D
:104F40008530E1F60E949E058130C1F60E949E05E3
:104F50008230A1F60E949E05A82E0E949E05B82EC2
:104F60000E949E058A3F51F6FA2CEB2CC7CFC30155
:104F70008E199F098436910558F41092EE1AF801A3
:104F800081918F010E94EF050C151D05C1F72ECFF1
:104F90003A943110A6CF65CFCF93C82F81E09C2FD4
:104FA0009870C3FF80E08093EF1A911103C081E0F5
:104FB0000E94AE04C1FB882780F98093F71A809184
:104FC000CF1A811108C0C7FD06C00E944D2681E09E
:104FD000CF910C94BE03CF9108952F923F924F92A0
:104FE0005F926F927F928F929F92AF92BF92CF9279
:104FF000DF92EF92FF920F931F93CF93DF93CDB782
:10500000DEB7C658D1090FB6F894DEBF0FBECDBFCC
:10501000E9967FAF6EAFE997B09010192B2D30E075
:10502000E3963FAF2EAFE39726E4B29EA001112492
:10503000BA01685C704FEB967FAF6EAFEB97DB0108
:105040001D922A95E9F7E996EEADFFADE997248523
:10505000DB0191962C93FB01EE5BFF4FE996AEAD21
:10506000BFADE99714964D915D916D917C91179725
:10507000408351836283738318964D915D916D9146
:105080007C911B97EB96EEADFFADEB9742A353A33C
:1050900064A375A321FFE9C12CE1E0E7FBE1DE0198
:1050A000D99601900D922A95E1F7E4968FAFE49797
:1050B000E5969FAFE59728E13CE1CD57DF4F398377
:1050C0002883C358D040BE01635E7F4FCF57DF4F68
:1050D00079836883C158D040CE01C996C158DF4F4B
:1050E00099838883CF57D040EB96AEADBFADEB9799
:1050F000EF96BFAFAEAFEF974E01B5E58B0E911CAB
:10510000ED969FAE8EAEED9710E086E4E396EEADA1
:10511000FFADE3978E9F10018F9F300C11249101FA
:10512000285C304F1901B901645E7F4FCB57DF4FC8
:1051300079836883C558D04070E2270E311CE5960C
:10514000AEADBFADE5976D917D918D919D91E59649
:10515000BFAFAEAFE597CD57DF4FE881F981C358B8
:10516000D0404190519061907190CD57DF4FF983BD
:10517000E883C358D040A30192010E94235B0E94A0
:10518000F05ACF57DF4FA881B981C158D0406D93F5
:105190007D938D939D93CF57DF4FB983A883C158DB
:1051A000D040C158DF4FE881F981CF57D040C1903E
:1051B000D190E190F190C158DF4FF983E883CF5748
:1051C000D0406C197D098E099F099B01AC0197FFA6
:1051D00007C022273327A901261B370B480B590B81
:1051E000EF96AEADBFADEF972D933D934D935D938D
:1051F000EF96BFAFAEAFEF97CB57DF4FE881F981A6
:10520000C558D040C080D180E280F380C216D3065A
:10521000E406F50610F469017A01CB57DF4FA88147
:10522000B981C558D040CD92DD92ED92FC92139792
:105230000E947559A30192010E94CB58ED96EEADE4
:10524000FFADED976193719381939193ED96FFAFCD
:10525000EEAFED9720E030E0A9010E94C15887FF32
:1052600007C0812F0E942805D1019C91892B8C9326
:105270001F5F173009F063CF80E0CD28CE28CF28FC
:1052800009F4D9C0CE018B5A9F4F0E9477136B014E
:105290007C0186E4E396EEADFFADE3978E9F80013F
:1052A0008F9F100D1124085C104FD801D296CD921B
:1052B000DD92ED92FC92D597BE016B5A7F4F80E54F
:1052C0009CE10E94A510F80166A777A780AB91AB7F
:1052D000BE016B5A7F4F84E39CE10E94A510D80168
:1052E000DA966D937D938D939C93DD979196AC9018
:1052F000025C1F4FA0FEBDC0F801608371838283F2
:1053000093838091370FB81611F0A1FECDC086E4CB
:10531000E3962EAD3FADE397829FF001839FF00DA2
:105320001124E85CF04F16A217A210A611A616AA27
:1053300017AA10AE11AE86E4E396EEADFFADE3978B
:105340008E9F80018F9F100D1124085C104FD80193
:1053500091968C9181FD6EC0EB968EAD9FADEB97D3
:105360000E94FF0B6B017C018090BB069090BC06F5
:10537000A090BD06B090BE06AC019B01C501B40172
:105380000E94C15887FF6DC1A5019401C501B401F8
:105390000E94235BF80162A773A784A795A786E400
:1053A000E396EEADFFADE3978E9F80018F9F100DCA
:1053B0001124085C104FD801D6968D909D90AD9029
:1053C000BC90D997A50194019A966D917D918D918C
:1053D0009C919D970E94E35A18162CF4F80182A61E
:1053E00093A6A4A6B5A6C092BB06D092BC06E09236
:1053F000BD06F092BE068CE1FE01EB5AFF4FAFE90D
:10540000B6E001900D928A95E1F78CE1FE017D9660
:10541000A3E8B6E001900D928A95E1F780918206AB
:10542000809310198F5F843209F480E080938206A4
:105430000E943A0F81E0CA57DF4F0FB6F894DEBFE3
:105440000FBECDBFDF91CF911F910F91FF90EF90D5
:10545000DF90CF90BF90AF909F908F907F906F9094
:105460005F904F903F902F9008952CE1E3E8F6E095
:1054700016CEE996AEADBFADE9972D913D914D9118
:105480005C91A3FC06C0F8012083318342835383DF
:1054900038CFC701B6010E94235BD8016D937D937D
:1054A0008D939C9313972DCF6FE976E0E9967FAFAC
:1054B0006EAFE9978E010F5F1F4F14017CE1270E3D
:1054C000311CC12CD12C76015801E996EEADFFAD0F
:1054D000E99781919191A191B191E996FFAFEEAFDA
:1054E000E997E7968CAF9DAFAEAFBFAFE797D4011A
:1054F0004D905D906D907D904D01A3019201E796D6
:105500006CAD7DAD8EAD9FADE7970E94235B9B0197
:10551000AC01C701B6010E94CB576B017C01E79635
:105520002CAD3DAD4EAD5FADE797C301B2010E941A
:10553000CB57F80161937193819391938F01281454
:10554000390419F62FEE3FEF4FE75FE3C701B601CD
:105550000E94E35A18166CF486E4E3962EAD3FAD34
:10556000E397829FF001839FF00D1124E85CF04FD8
:10557000DECE2FEE3FEF4FE75FEBC701B6010E9493
:10558000C15887FF15C086E4E3966EAD7FADE39703
:10559000869FF001879FF00D1124E85CF04F89E9A8
:1055A00096E7A6E9BEE786AB97ABA0AFB1AFC3CE97
:1055B000C5010E947713B50180E59CE10E94A5100A
:1055C0004B015C01A701960160E070E080E89FE379
:1055D0000E94CB5720E030E040E05FE30E94235B75
:1055E0000E94C25B6B017C0120918D1C30918E1C4E
:1055F00040918F1C5091901CC501B4010E94235B07
:10560000A70196010E94235B4B015C01A701960153
:1056100060E070E080E89FE30E94CB579B01AC0103
:10562000C501B4010E94CB586B017C0120E030E041
:10563000A9010E94C15887FF03C0C12CD12C76015B
:1056400086E4E396AEADBFADE3978A9FF0018B9FF2
:10565000F00D1124E85CF04FC6AAD7AAE0AEF1AE77
:105660006ACEA7019601C701B6010E94235BD8014B
:105670009A966D937D938D939C939D9790CEAF92C8
:10568000BF92CF92DF92EF92FF920F931F93CF932F
:10569000DF93CDB7DEB7A9970FB6F894DEBF0FBE84
:1056A000CDBF082F0E9422225F9A0E94D4118091C0
:1056B000D91A811173C05E018DE1A80EB11C8DE075
:1056C000F50111928A95E9F786E089A720E030E09C
:1056D00040E450EC60917C1C70917D1C80917E1C9C
:1056E00090917F1C0E94235B6B017C0120E030E0E5
:1056F000A9010E94C15887FF03C0C12CD12C76019B
:1057000060E77BE1CE0101960E946C041092801B41
:105710001092811B1092821B1092831B002309F4AC
:105720004EC0C98ADA8AEB8AFC8A80E48093DE1A4A
:1057300080E090E0A8E4B2E48D8F9E8FAF8FB8A395
:10574000B501CE0101960E94ED2784E08093DC1A1A
:105750000E9486140E94020510E4002311F07D9B34
:1057600010E01093DE1A0E9486148091CE1A847382
:1057700009F457C01091CE1A14FF03C086E00E94AE
:10578000BE0315FF03C087E00E94BE038091CF1ABD
:10579000882311F10E944D260E941821A9960FB668
:1057A000F894DEBF0FBECDBFDF91CF911F910F9157
:1057B000FF90EF90DF90CF90BF90AF9008958091D1
:1057C0005A1D90915B1DA0915C1DB0915D1D898B50
:1057D0009A8BAB8BBC8BA9CF84E00E94C4030E9440
:1057E000211C8091A71C9091A81C0E94F81B10926C
:1057F000801B1092811B1092821B1092831B1092AF
:10580000DC1A0E9418218091D91A8111C7CF0E94F9
:105810007B120E94EE0B0E94DF110E9422225F98F1
:10582000BDCF11119ACFDBCFEF92FF921F93CF9391
:10583000DF93EC017B0180919D1C85FF26C01091B8
:10584000D81A103231F18091011B8C38F0F4CE015E
:105850000E94D7038823C9F081E08093DB1A1830B7
:1058600069F488E00E94CE030E9418218091D91A21
:1058700081110BC08091D81A8111F6CF0E944D265C
:1058800082E00E94BE030E9418218091D81A8230C3
:10589000C1F00E9418218091D91A811112C09091F3
:1058A000370F80918206981303C00E94320FF1CF08
:1058B000B701CE01DF91CF911F91FF90EF900C9433
:1058C000ED27DF91CF911F91FF90EF9008952F92D8
:1058D0003F924F925F926F927F928F929F92AF9280
:1058E000BF92CF92DF92EF92FF920F931F93CF93CD
:1058F000DF93CDB7DEB7E7970FB6F894DEBF0FBEE4
:10590000CDBF9091D91A911114C18DAB9E01235E28
:105910003F4F3AAB29AB8DE0D9011D928A95E9F74B
:1059200086E089A728E1A22E2CE1B22EFE01BA96CC
:105930004F0110E000E0C12CD12C7601FDA92F2EE3
:10594000312C802F0E944205D4018D934D01C1015D
:10595000002E02C0959587950A94E2F780FF1BC040
:1059600020E030E040EC5FEBF501EC5AFF4F608146
:105970007181828193810E94235B762E472E582E5F
:10598000692EA70196010E94C15887FD04C0C72C4B
:10599000D42CE52CF62C0F5F1F4FB4E0AB0EB11CDE
:1059A0000730110571F68090A31C9090A41CA09064
:1059B000A51CB090A61C94E0692E01E060E77BE195
:1059C000CE0101960E946C0480919E1CE82FF0E0AD
:1059D000FCABEBABFE01319680E7482E8BE1582EF5
:1059E0005FAA4EAA712C10E030E020E0B701A601BA
:1059F0007058C101022E02C0959587950A94E2F76E
:105A000080FF28C07394AEA9BFA91D921D921D925C
:105A10001C9213978BA99CA9022E02C0959587957D
:105A20000A94E2F780FF07C0002339F040835183D6
:105A30006283738306C00023C9F3C082D182E282ED
:105A4000F3828AE290E08C0F9D1F820F931FDC018E
:105A50008C91182B2F5F3F4F34968EA99FA90496E7
:105A60009FAB8EAB2730310521F6672D70E090E0BB
:105A700080E00E9473590E94C25B1093DE1AA50158
:105A800094010E94235B6D8F7E8F8F8F98A3BE0140
:105A9000635E7F4FCE0101960E94ED2794E09093C4
:105AA000DC1A0E9486140E9402050023E9F00E947D
:105AB000B411FE01BA9630E020E090E06191462FEB
:105AC000412359F0AC01022E02C0559547950A9426
:105AD000E2F740FF02C0609516232F5F3F4F27304B
